{
	"data": {
		"bytecode": {
			"linkReferences": {},
			"object": "60a06040523073ffffffffffffffffffffffffffffffffffffffff1660809073ffffffffffffffffffffffffffffffffffffffff168152503480156200004457600080fd5b5060805161889e6200007d600039600081816113e4015281816114720152818161256a015281816125f801526126bb015261889e6000f3fe6080604052600436106104095760003560e01c8063715018a611610213578063ad974f4c11610123578063d1c280bd116100ab578063dc245e121161007a578063dc245e1214610fc8578063dcf6e81914611005578063e7cca9c71461102e578063e9bd186d14611059578063f2fde38b1461109657610410565b8063d1c280bd14610f30578063d7c5bd9114610f5b578063db5184e614610f86578063dbd0e1b614610f9d57610410565b8063c912807a116100f2578063c912807a14610e25578063c94d6b1f14610e4e578063c9dc630214610e8b578063cf6ad82414610eb6578063cfbdb85914610ef357610410565b8063ad974f4c14610d55578063b20feb2d14610d80578063b68e1e4614610dab578063b94265b814610de857610410565b80638e68dce4116101a65780639c7dd27e116101755780639c7dd27e14610c48578063a5bac94314610c85578063a6ad941014610cb0578063a821b06914610cdb578063ac6f6a2d14610d1857610410565b80638e68dce414610b9c578063918a54db14610bc757806394a73f5914610bf25780639a9466ae14610c1d57610410565b806383dd0341116101e257806383dd034114610acc578063857d22ef14610b09578063862b092b14610b465780638da5cb5b14610b7157610410565b8063715018a614610a245780637e76a70c14610a3b5780638129fc1c14610a7857806382647e4714610a8f57610410565b806334dcfa8c1161031957806352414ec9116102a157806366146ef11161027057806366146ef114610938578063669e8e8e1461097557806367deb84f14610991578063685ac12b146109ce5780636c5e0611146109f957610410565b806352414ec91461089057806352d1902d146108b95780635c975abb146108e457806362b304151461090f57610410565b806342910c5a116102e857806342910c5a146107b65780634595066b146107e1578063472d561d1461081e5780634c3a5875146108495780634f1ef2861461087457610410565b806334dcfa8c146106ea5780633659cfe6146107135780633cac0f531461073c57806340a2472a1461077957610410565b80631cecbe9a1161039c57806328b7bede1161036b57806328b7bede146106275780632cf9a69c146106525780632ecd70201461067d5780632f11d653146106a857806331e529a0146106bf57610410565b80631cecbe9a1461057d5780631f9e65e4146105a657806324883508146105d157806324f65ee7146105fc57610410565b806318452cd8116103d857806318452cd8146104ad57806318cfd80f146104ea5780631a5ffc3e146105155780631b10f3871461054057610410565b80630207aef41461041557806304c76af01461044057806308d05d5e146104575780630c678bce1461048257610410565b3661041057005b600080fd5b34801561042157600080fd5b5061042a6110bf565b604051610437919061647e565b60405180910390f35b34801561044c57600080fd5b506104556110ca565b005b34801561046357600080fd5b5061046c61111b565b60405161047991906164b5565b60405180910390f35b34801561048e57600080fd5b50610497611133565b6040516104a4919061647e565b60405180910390f35b3480156104b957600080fd5b506104d460048036038101906104cf9190616542565b61113e565b6040516104e1919061658a565b60405180910390f35b3480156104f657600080fd5b506104ff6111da565b60405161050c919061647e565b60405180910390f35b34801561052157600080fd5b5061052a6111e5565b604051610537919061647e565b60405180910390f35b34801561054c57600080fd5b50610567600480360381019061056291906165d1565b6111f0565b604051610574919061658a565b60405180910390f35b34801561058957600080fd5b506105a4600480360381019061059f91906165fe565b61120b565b005b3480156105b257600080fd5b506105bb61125e565b6040516105c8919061647e565b60405180910390f35b3480156105dd57600080fd5b506105e66112c4565b6040516105f3919061664d565b60405180910390f35b34801561060857600080fd5b506106116112ef565b60405161061e919061647e565b60405180910390f35b34801561063357600080fd5b5061063c6112f9565b604051610649919061664d565b60405180910390f35b34801561065e57600080fd5b50610667611324565b604051610674919061647e565b60405180910390f35b34801561068957600080fd5b5061069261132f565b60405161069f919061647e565b60405180910390f35b3480156106b457600080fd5b506106bd61133a565b005b3480156106cb57600080fd5b506106d461134c565b6040516106e1919061647e565b60405180910390f35b3480156106f657600080fd5b50610711600480360381019061070c91906165fe565b611357565b005b34801561071f57600080fd5b5061073a60048036038101906107359190616542565b6113e2565b005b34801561074857600080fd5b50610763600480360381019061075e9190616723565b61156a565b604051610770919061658a565b60405180910390f35b34801561078557600080fd5b506107a0600480360381019061079b9190616542565b611bdf565b6040516107ad9190616a76565b60405180910390f35b3480156107c257600080fd5b506107cb611f10565b6040516107d8919061658a565b60405180910390f35b3480156107ed57600080fd5b5061080860048036038101906108039190616a98565b612222565b604051610815919061658a565b60405180910390f35b34801561082a57600080fd5b50610833612545565b604051610840919061647e565b60405180910390f35b34801561085557600080fd5b5061085e612550565b60405161086b919061658a565b60405180910390f35b61088e60048036038101906108899190616c8f565b612568565b005b34801561089c57600080fd5b506108b760048036038101906108b291906165d1565b6126a4565b005b3480156108c557600080fd5b506108ce6126b7565b6040516108db9190616d04565b60405180910390f35b3480156108f057600080fd5b506108f9612770565b604051610906919061658a565b60405180910390f35b34801561091b57600080fd5b5061093660048036038101906109319190616d1f565b612787565b005b34801561094457600080fd5b5061095f600480360381019061095a91906165d1565b612c70565b60405161096c919061647e565b60405180910390f35b61098f600480360381019061098a9190616d72565b612c88565b005b34801561099d57600080fd5b506109b860048036038101906109b391906165d1565b613097565b6040516109c5919061658a565b60405180910390f35b3480156109da57600080fd5b506109e36130b2565b6040516109f0919061647e565b60405180910390f35b348015610a0557600080fd5b50610a0e6130bd565b604051610a1b919061647e565b60405180910390f35b348015610a3057600080fd5b50610a396130c8565b005b348015610a4757600080fd5b50610a626004803603810190610a5d9190616dde565b6130dc565b604051610a6f919061658a565b60405180910390f35b348015610a8457600080fd5b50610a8d61310a565b005b348015610a9b57600080fd5b50610ab66004803603810190610ab19190616e61565b6137d6565b604051610ac3919061658a565b60405180910390f35b348015610ad857600080fd5b50610af36004803603810190610aee9190616542565b6137fd565b604051610b00919061647e565b60405180910390f35b348015610b1557600080fd5b50610b306004803603810190610b2b9190616542565b61380f565b604051610b3d919061658a565b60405180910390f35b348015610b5257600080fd5b50610b5b613864565b604051610b689190616f2d565b60405180910390f35b348015610b7d57600080fd5b50610b866138f6565b604051610b93919061664d565b60405180910390f35b348015610ba857600080fd5b50610bb1613920565b604051610bbe919061664d565b60405180910390f35b348015610bd357600080fd5b50610bdc61394b565b604051610be99190616fbe565b60405180910390f35b348015610bfe57600080fd5b50610c076139a4565b604051610c14919061647e565b60405180910390f35b348015610c2957600080fd5b50610c32613a56565b604051610c3f919061647e565b60405180910390f35b348015610c5457600080fd5b50610c6f6004803603810190610c6a919061700c565b613a61565b604051610c7c919061658a565b60405180910390f35b348015610c9157600080fd5b50610c9a613a90565b604051610ca7919061664d565b60405180910390f35b348015610cbc57600080fd5b50610cc5613abb565b604051610cd2919061647e565b60405180910390f35b348015610ce757600080fd5b50610d026004803603810190610cfd9190616542565b613ac6565b604051610d0f919061658a565b60405180910390f35b348015610d2457600080fd5b50610d3f6004803603810190610d3a9190616542565b613b1b565b604051610d4c919061658a565b60405180910390f35b348015610d6157600080fd5b50610d6a613b70565b604051610d77919061647e565b60405180910390f35b348015610d8c57600080fd5b50610d95613b7a565b604051610da2919061647e565b60405180910390f35b348015610db757600080fd5b50610dd26004803603810190610dcd9190616542565b613b85565b604051610ddf919061658a565b60405180910390f35b348015610df457600080fd5b50610e0f6004803603810190610e0a9190616d72565b613dc2565b604051610e1c919061658a565b60405180910390f35b348015610e3157600080fd5b50610e4c6004803603810190610e4791906165d1565b613dd9565b005b348015610e5a57600080fd5b50610e756004803603810190610e7091906165d1565b613dec565b604051610e82919061658a565b60405180910390f35b348015610e9757600080fd5b50610ea0613e07565b604051610ead919061658a565b60405180910390f35b348015610ec257600080fd5b50610edd6004803603810190610ed891906165d1565b613e1f565b604051610eea919061647e565b60405180910390f35b348015610eff57600080fd5b50610f1a6004803603810190610f1591906165d1565b613e89565b604051610f27919061658a565b60405180910390f35b348015610f3c57600080fd5b50610f45613ea4565b604051610f52919061664d565b60405180910390f35b348015610f6757600080fd5b50610f70613ecf565b604051610f7d919061647e565b60405180910390f35b348015610f9257600080fd5b50610f9b613ed9565b005b348015610fa957600080fd5b50610fb2613eeb565b604051610fbf919061664d565b60405180910390f35b348015610fd457600080fd5b50610fef6004803603810190610fea91906165d1565b613f15565b604051610ffc919061658a565b60405180910390f35b34801561101157600080fd5b5061102c60048036038101906110279190617065565b613f30565b005b34801561103a57600080fd5b50611043613f7d565b604051611050919061647e565b60405180910390f35b34801561106557600080fd5b50611080600480360381019061107b9190616dde565b613f88565b60405161108d919061658a565b60405180910390f35b3480156110a257600080fd5b506110bd60048036038101906110b89190616542565b613fb6565b005b600061011754905090565b6110d2614039565b3373ffffffffffffffffffffffffffffffffffffffff166108fc479081150290604051600060405180830381858888f19350505050158015611118573d6000803e3d6000fd5b50565b600061010c60009054906101000a900460ff16905090565b600061011554905090565b60008073ffffffffffffffffffffffffffffffffffffffff1661011160008473ffffffffffffffffffffffffffffffffffffffff1673ffffffffffffffffffffffffffffffffffffffff16815260200190815260200160002060000160009054906101000a900473ffffffffffffffffffffffffffffffffffffffff1673ffffffffffffffffffffffffffffffffffffffff1614159050919050565b600061010e54905090565b600061011354905090565b60006111fa614039565b816101088190555060019050919050565b611213614039565b8173ffffffffffffffffffffffffffffffffffffffff166108fc829081150290604051600060405180830381858888f19350505050158015611259573d6000803e3d6000fd5b505050565b6000806112696139a4565b90506000610106548261127c91906170f0565b90508060fc54600a61128e9190617254565b60fc54600a61129d9190617254565b60016112a9919061729f565b6112b3919061729f565b6112bd91906170f0565b9250505090565b600061011060009054906101000a900473ffffffffffffffffffffffffffffffffffffffff16905090565b600060fc54905090565b600061010060009054906101000a900473ffffffffffffffffffffffffffffffffffffffff16905090565b600061010a54905090565b600061010954905090565b611342614039565b61134a6140b7565b565b600061011454905090565b61135f614039565b8173ffffffffffffffffffffffffffffffffffffffff1663a9059cbb33836040518363ffffffff1660e01b815260040161139a9291906172e1565b6020604051808303816000875af11580156113b9573d6000803e3d6000fd5b505050506040513d601f19601f820116820180604052508101906113dd919061731f565b505050565b7f000000000000000000000000000000000000000000000000000000000000000073ffffffffffffffffffffffffffffffffffffffff163073ffffffffffffffffffffffffffffffffffffffff1603611470576040517f08c379a0000000000000000000000000000000000000000000000000000000008152600401611467906173be565b60405180910390fd5b7f000000000000000000000000000000000000000000000000000000000000000073ffffffffffffffffffffffffffffffffffffffff166114af61411a565b73ffffffffffffffffffffffffffffffffffffffff1614611505576040517f08c379a00000000000000000000000000000000000000000000000000000000081526004016114fc90617450565b60405180910390fd5b61150e81614171565b61156781600067ffffffffffffffff81111561152d5761152c616b64565b5b6040519080825280601f01601f19166020018201604052801561155f5781602001600182028036833780820191505090505b50600061417c565b50565b6000611574614039565b60005b85859050811015611bd157600073ffffffffffffffffffffffffffffffffffffffff168686838181106115ad576115ac617470565b5b90506020020160208101906115c29190617065565b73ffffffffffffffffffffffffffffffffffffffff16036116a3576040516115e9906174f6565b604051809103902086868381811061160457611603617470565b5b90506020020160208101906116199190617065565b73ffffffffffffffffffffffffffffffffffffffff1685858481811061164257611641617470565b5b90506020020160208101906116579190616542565b73ffffffffffffffffffffffffffffffffffffffff167f63a04625ee50186097257e079ace9a312982f1976bdffa769db82a83c2ffc00660405160405180910390a46000915050611bd7565b6116fb8686838181106116b9576116b8617470565b5b90506020020160208101906116ce9190617065565b8585848181106116e1576116e0617470565b5b90506020020160208101906116f69190616542565b6142ea565b156117c65760405161170c9061757d565b604051809103902086868381811061172757611726617470565b5b905060200201602081019061173c9190617065565b73ffffffffffffffffffffffffffffffffffffffff1685858481811061176557611764617470565b5b905060200201602081019061177a9190616542565b73ffffffffffffffffffffffffffffffffffffffff167f63a04625ee50186097257e079ace9a312982f1976bdffa769db82a83c2ffc00660405160405180910390a46000915050611bd7565b600073ffffffffffffffffffffffffffffffffffffffff1661011160008686858181106117f6576117f5617470565b5b905060200201602081019061180b9190616542565b73ffffffffffffffffffffffffffffffffffffffff1673ffffffffffffffffffffffffffffffffffffffff16815260200190815260200160002060000160009054906101000a900473ffffffffffffffffffffffffffffffffffffffff1673ffffffffffffffffffffffffffffffffffffffff161461194a5760405161189090617604565b60405180910390208686838181106118ab576118aa617470565b5b90506020020160208101906118c09190617065565b73ffffffffffffffffffffffffffffffffffffffff168585848181106118e9576118e8617470565b5b90506020020160208101906118fe9190616542565b73ffffffffffffffffffffffffffffffffffffffff167f63a04625ee50186097257e079ace9a312982f1976bdffa769db82a83c2ffc00660405160405180910390a46000915050611bd7565b6000610111600086868581811061196457611963617470565b5b90506020020160208101906119799190616542565b73ffffffffffffffffffffffffffffffffffffffff1673ffffffffffffffffffffffffffffffffffffffff1681526020019081526020016000209050600061011160008989868181106119cf576119ce617470565b5b90506020020160208101906119e49190617065565b73ffffffffffffffffffffffffffffffffffffffff1673ffffffffffffffffffffffffffffffffffffffff1681526020019081526020016000209050878784818110611a3357611a32617470565b5b9050602002016020810190611a489190617065565b8260000160006101000a81548173ffffffffffffffffffffffffffffffffffffffff021916908373ffffffffffffffffffffffffffffffffffffffff16021790555080600301868685818110611aa157611aa0617470565b5b9050602002016020810190611ab69190616542565b9080600181540180825580915050600190039060005260206000200160009091909190916101000a81548173ffffffffffffffffffffffffffffffffffffffff021916908373ffffffffffffffffffffffffffffffffffffffff160217905550878784818110611b2957611b28617470565b5b9050602002016020810190611b3e9190617065565b73ffffffffffffffffffffffffffffffffffffffff16868685818110611b6757611b66617470565b5b9050602002016020810190611b7c9190616542565b73ffffffffffffffffffffffffffffffffffffffff167ffaf63637882ff2d63ca76881cf92fb857130e36f350c926f9cc884b499b42b7760405160405180910390a3505080611bca90617619565b9050611577565b50600190505b949350505050565b611be7616315565b61011160008373ffffffffffffffffffffffffffffffffffffffff1673ffffffffffffffffffffffffffffffffffffffff168152602001908152602001600020604051806101a00160405290816000820160009054906101000a900473ffffffffffffffffffffffffffffffffffffffff1673ffffffffffffffffffffffffffffffffffffffff1673ffffffffffffffffffffffffffffffffffffffff1681526020016001820160009054906101000a900473ffffffffffffffffffffffffffffffffffffffff1673ffffffffffffffffffffffffffffffffffffffff1673ffffffffffffffffffffffffffffffffffffffff1681526020016002820154815260200160038201805480602002602001604051908101604052809291908181526020018280548015611d6e57602002820191906000526020600020905b8160009054906101000a900473ffffffffffffffffffffffffffffffffffffffff1673ffffffffffffffffffffffffffffffffffffffff1681526020019060010190808311611d24575b50505050508152602001600482015481526020016005820154815260200160068201548152602001600782015481526020016008820154815260200160098201805480602002602001604051908101604052809291908181526020018280548015611df857602002820191906000526020600020905b815481526020019060010190808311611de4575b50505050508152602001600a8201805480602002602001604051908101604052809291908181526020018280548015611e5057602002820191906000526020600020905b815481526020019060010190808311611e3c575b50505050508152602001600b8201805480602002602001604051908101604052809291908181526020018280548015611ea857602002820191906000526020600020905b815481526020019060010190808311611e94575b50505050508152602001600c8201805480602002602001604051908101604052809291908181526020018280548015611f0057602002820191906000526020600020905b815481526020019060010190808311611eec575b5050505050815250509050919050565b60006003611f1d33614434565b1015611f5e576040517f08c379a0000000000000000000000000000000000000000000000000000000008152600401611f55906176d3565b60405180910390fd5b600061011160003373ffffffffffffffffffffffffffffffffffffffff1673ffffffffffffffffffffffffffffffffffffffff16815260200190815260200160002090506000816007015490506000826008015490503373ffffffffffffffffffffffffffffffffffffffff166108fc839081150290604051600060405180830381858888f19350505050158015611ffa573d6000803e3d6000fd5b5061010260009054906101000a900473ffffffffffffffffffffffffffffffffffffffff1673ffffffffffffffffffffffffffffffffffffffff1663a9059cbb33836040518363ffffffff1660e01b81526004016120599291906172e1565b6020604051808303816000875af1158015612078573d6000803e3d6000fd5b505050506040513d601f19601f8201168201806040525081019061209c919061731f565b5060008360070181905550600083600801819055508260090182908060018154018082558091505060019003906000526020600020016000909190919091505582600a0181908060018154018082558091505060019003906000526020600020016000909190919091505582600b01612113614484565b908060018154018082558091505060019003906000526020600020016000909190919091505582600c01612145614484565b908060018154018082558091505060019003906000526020600020016000909190919091505581610112600082825461217e91906176f3565b9250508190555080610113600082825461219891906176f3565b925050819055508161011460008282546121b29190617727565b925050819055508061011560008282546121cc9190617727565b9250508190555080823373ffffffffffffffffffffffffffffffffffffffff167ff198724b6aac1f79c4da584b6cfddae930ca71f26eeb27046fc8bd11bf56f6d860405160405180910390a46001935050505090565b600061222c614039565b6103f2881461227e578761011160008b73ffffffffffffffffffffffffffffffffffffffff1673ffffffffffffffffffffffffffffffffffffffff168152602001908152602001600020600501819055505b6103f287146122d0578661011160008b73ffffffffffffffffffffffffffffffffffffffff1673ffffffffffffffffffffffffffffffffffffffff168152602001908152602001600020600601819055505b600073ffffffffffffffffffffffffffffffffffffffff168673ffffffffffffffffffffffffffffffffffffffff16146123a95761011160008a73ffffffffffffffffffffffffffffffffffffffff1673ffffffffffffffffffffffffffffffffffffffff168152602001908152602001600020600301869080600181540180825580915050600190039060005260206000200160009091909190916101000a81548173ffffffffffffffffffffffffffffffffffffffff021916908373ffffffffffffffffffffffffffffffffffffffff1602179055505b6103f285146123fb578461011160008b73ffffffffffffffffffffffffffffffffffffffff1673ffffffffffffffffffffffffffffffffffffffff168152602001908152602001600020600701819055505b6103f2841461244d578361011160008b73ffffffffffffffffffffffffffffffffffffffff1673ffffffffffffffffffffffffffffffffffffffff168152602001908152602001600020600801819055505b6103f283146124c15761011160008a73ffffffffffffffffffffffffffffffffffffffff1673ffffffffffffffffffffffffffffffffffffffff1681526020019081526020016000206009018390806001815401808255809150506001900390600052602060002001600090919091909150555b6103f282146125355761011160008a73ffffffffffffffffffffffffffffffffffffffff1673ffffffffffffffffffffffffffffffffffffffff168152602001908152602001600020600a018290806001815401808255809150506001900390600052602060002001600090919091909150555b6001905098975050505050505050565b600061010554905090565b600061010760009054906101000a900460ff16905090565b7f000000000000000000000000000000000000000000000000000000000000000073ffffffffffffffffffffffffffffffffffffffff163073ffffffffffffffffffffffffffffffffffffffff16036125f6576040517f08c379a00000000000000000000000000000000000000000000000000000000081526004016125ed906173be565b60405180910390fd5b7f000000000000000000000000000000000000000000000000000000000000000073ffffffffffffffffffffffffffffffffffffffff1661263561411a565b73ffffffffffffffffffffffffffffffffffffffff161461268b576040517f08c379a000000000000000000000000000000000000000000000000000000000815260040161268290617450565b60405180910390fd5b61269482614171565b6126a08282600161417c565b5050565b6126ac614039565b806101178190555050565b60007f000000000000000000000000000000000000000000000000000000000000000073ffffffffffffffffffffffffffffffffffffffff163073ffffffffffffffffffffffffffffffffffffffff1614612747576040517f08c379a000000000000000000000000000000000000000000000000000000000815260040161273e906177cd565b60405180910390fd5b7f360894a13ba1a3210667c828492db98dca3e2076cc3735a920a3ca505d382bbc60001b905090565b6000606560009054906101000a900460ff16905090565b61278f61448c565b6127b360fc54600a6127a19190617254565b610106546144d690919063ffffffff16565b8110156127f5576040517f08c379a00000000000000000000000000000000000000000000000000000000081526004016127ec9061785f565b60405180910390fd5b600060fc54600a6128069190617254565b6101055483612815919061729f565b61281f91906170f0565b9050600061285e61284f606461284161010854876144d690919063ffffffff16565b6144ec90919063ffffffff16565b8461450290919063ffffffff16565b905061010260009054906101000a900473ffffffffffffffffffffffffffffffffffffffff1673ffffffffffffffffffffffffffffffffffffffff166323b872dd3330866040518463ffffffff1660e01b81526004016128c09392919061787f565b6020604051808303816000875af11580156128df573d6000803e3d6000fd5b505050506040513d601f19601f82011682018060405250810190612903919061731f565b5061290d3361113e565b1580156129475750600073ffffffffffffffffffffffffffffffffffffffff168573ffffffffffffffffffffffffffffffffffffffff1614155b15612958576129568585614518565b505b61010760009054906101000a900460ff1615612afe5761010160009054906101000a900473ffffffffffffffffffffffffffffffffffffffff1673ffffffffffffffffffffffffffffffffffffffff1663ea65e62233846040518363ffffffff1660e01b81526004016129cc9291906172e1565b6020604051808303816000875af11580156129eb573d6000803e3d6000fd5b505050506040513d601f19601f82011682018060405250810190612a0f919061731f565b5061010060009054906101000a900473ffffffffffffffffffffffffffffffffffffffff1673ffffffffffffffffffffffffffffffffffffffff166323b872dd60fe60009054906101000a900473ffffffffffffffffffffffffffffffffffffffff1661010160009054906101000a900473ffffffffffffffffffffffffffffffffffffffff16856040518463ffffffff1660e01b8152600401612ab59392919061787f565b6020604051808303816000875af1158015612ad4573d6000803e3d6000fd5b505050506040513d601f19601f82011682018060405250810190612af8919061731f565b50612bc5565b61010060009054906101000a900473ffffffffffffffffffffffffffffffffffffffff1673ffffffffffffffffffffffffffffffffffffffff166323b872dd60fe60009054906101000a900473ffffffffffffffffffffffffffffffffffffffff1633856040518463ffffffff1660e01b8152600401612b809392919061787f565b6020604051808303816000875af1158015612b9f573d6000803e3d6000fd5b505050506040513d601f19601f82011682018060405250810190612bc3919061731f565b505b61010760019054906101000a900460ff1615612be757612be58133614a79565b505b816101096000828254612bfa91906176f3565b925050819055508261010b6000828254612c1491906176f3565b925050819055503373ffffffffffffffffffffffffffffffffffffffff167f55c18555197c6574627cf460c66073d10aa05d412468800b7b71feeaf82ea92d83604051612c61919061647e565b60405180910390a25050505050565b60006101055482612c81919061729f565b9050919050565b612c9061448c565b6000349050612c9d61125e565b811015612cdf576040517f08c379a0000000000000000000000000000000000000000000000000000000008152600401612cd690617928565b60405180910390fd5b6000612cea82613e1f565b90506000612d29612d1a6064612d0c61010854876144d690919063ffffffff16565b6144ec90919063ffffffff16565b8461450290919063ffffffff16565b9050612d343361113e565b158015612d6e5750600073ffffffffffffffffffffffffffffffffffffffff168573ffffffffffffffffffffffffffffffffffffffff1614155b15612d7f57612d7d8585614518565b505b61010760009054906101000a900460ff1615612f255761010160009054906101000a900473ffffffffffffffffffffffffffffffffffffffff1673ffffffffffffffffffffffffffffffffffffffff1663ea65e62233846040518363ffffffff1660e01b8152600401612df39291906172e1565b6020604051808303816000875af1158015612e12573d6000803e3d6000fd5b505050506040513d601f19601f82011682018060405250810190612e36919061731f565b5061010060009054906101000a900473ffffffffffffffffffffffffffffffffffffffff1673ffffffffffffffffffffffffffffffffffffffff166323b872dd60fe60009054906101000a900473ffffffffffffffffffffffffffffffffffffffff1661010160009054906101000a900473ffffffffffffffffffffffffffffffffffffffff16856040518463ffffffff1660e01b8152600401612edc9392919061787f565b6020604051808303816000875af1158015612efb573d6000803e3d6000fd5b505050506040513d601f19601f82011682018060405250810190612f1f919061731f565b50612fec565b61010060009054906101000a900473ffffffffffffffffffffffffffffffffffffffff1673ffffffffffffffffffffffffffffffffffffffff166323b872dd60fe60009054906101000a900473ffffffffffffffffffffffffffffffffffffffff1633856040518463ffffffff1660e01b8152600401612fa79392919061787f565b6020604051808303816000875af1158015612fc6573d6000803e3d6000fd5b505050506040513d601f19601f82011682018060405250810190612fea919061731f565b505b61010760019054906101000a900460ff161561300e5761300c81336153c7565b505b81610109600082825461302191906176f3565b925050819055508261010a600082825461303b91906176f3565b925050819055503373ffffffffffffffffffffffffffffffffffffffff167f55c18555197c6574627cf460c66073d10aa05d412468800b7b71feeaf82ea92d83604051613088919061647e565b60405180910390a25050505050565b60006130a1614039565b8161010e8190555060019050919050565b600061010654905090565b600061010b54905090565b6130d0614039565b6130da6000615d15565b565b60006130e6614039565b8161010760006101000a81548160ff02191690831515021790555060019050919050565b60008060019054906101000a900460ff1615905080801561313b5750600160008054906101000a900460ff1660ff16105b80613168575061314a30615ddb565b1580156131675750600160008054906101000a900460ff1660ff16145b5b6131a7576040517f08c379a000000000000000000000000000000000000000000000000000000000815260040161319e906179ba565b60405180910390fd5b60016000806101000a81548160ff021916908360ff16021790555080156131e4576001600060016101000a81548160ff0219169083151502179055505b732514895c72f50d8bd4b4f9b1110f0d6bd2c9752661010460006101000a81548173ffffffffffffffffffffffffffffffffffffffff021916908373ffffffffffffffffffffffffffffffffffffffff16021790555073535b4371db9cf38f0bdc1ad19b4c8712a9117ccd61010060006101000a81548173ffffffffffffffffffffffffffffffffffffffff021916908373ffffffffffffffffffffffffffffffffffffffff160217905550737a0dec713157f4289e112f5b8785c4ae8b298f7f60fe60006101000a81548173ffffffffffffffffffffffffffffffffffffffff021916908373ffffffffffffffffffffffffffffffffffffffff160217905550738842764dc150085c2b440ed6bac00d1b764478cf61010160006101000a81548173ffffffffffffffffffffffffffffffffffffffff021916908373ffffffffffffffffffffffffffffffffffffffff16021790555073b425da01b4a353ff9f36f6cae4acd32911046fe561010260006101000a81548173ffffffffffffffffffffffffffffffffffffffff021916908373ffffffffffffffffffffffffffffffffffffffff160217905550673560488b9745ed8061010581905550600c6101068190555061010060009054906101000a900473ffffffffffffffffffffffffffffffffffffffff1673ffffffffffffffffffffffffffffffffffffffff166306fdde036040518163ffffffff1660e01b81526004016000604051808303816000875af115801561341a573d6000803e3d6000fd5b505050506040513d6000823e3d601f19601f820116820180604052508101906134439190617a7b565b60fb90816134519190617cd0565b5061010060009054906101000a900473ffffffffffffffffffffffffffffffffffffffff1673ffffffffffffffffffffffffffffffffffffffff1663313ce5676040518163ffffffff1660e01b81526004016020604051808303816000875af11580156134c2573d6000803e3d6000fd5b505050506040513d601f19601f820116820180604052508101906134e69190617db7565b60fc8190555061010060009054906101000a900473ffffffffffffffffffffffffffffffffffffffff1673ffffffffffffffffffffffffffffffffffffffff166318160ddd6040518163ffffffff1660e01b8152600401602060405180830381865afa15801561355a573d6000803e3d6000fd5b505050506040513d601f19601f8201168201806040525081019061357e9190617db7565b60fd8190555061010060009054906101000a900473ffffffffffffffffffffffffffffffffffffffff1673ffffffffffffffffffffffffffffffffffffffff1663bab5ca6e6040518163ffffffff1660e01b81526004016020604051808303816000875af11580156135f4573d6000803e3d6000fd5b505050506040513d601f19601f820116820180604052508101906136189190617db7565b60ff81905550600161010760006101000a81548160ff021916908315150217905550600161010760016101000a81548160ff021916908315150217905550602161010881905550737a0dec713157f4289e112f5b8785c4ae8b298f7f61011060006101000a81548173ffffffffffffffffffffffffffffffffffffffff021916908373ffffffffffffffffffffffffffffffffffffffff160217905550600861010c60006101000a81548160ff021916908360ff160217905550606461010f81905550604661010e81905550604051806101000160405280601960ff168152602001600b60ff168152602001600960ff168152602001600860ff168152602001600660ff168152602001600460ff168152602001600360ff168152602001600460ff1681525061010d90600861374f9291906163a9565b5060036101168190555060066101178190555061376a615dfe565b613772615e57565b61377a615eb0565b80156137d35760008060016101000a81548160ff0219169083151502179055507f7f26b83ff96e1f2b6a682f133852f6798a09c465da95921460cefb384740249860016040516137ca9190617e1f565b60405180910390a15b50565b60006137e0614039565b828261010d91906137f29291906163fb565b506001905092915050565b600061380882614434565b9050919050565b6000613819614039565b8161010460006101000a81548173ffffffffffffffffffffffffffffffffffffffff021916908373ffffffffffffffffffffffffffffffffffffffff16021790555060019050919050565b606060fb805461387390617af3565b80601f016020809104026020016040519081016040528092919081815260200182805461389f90617af3565b80156138ec5780601f106138c1576101008083540402835291602001916138ec565b820191906000526020600020905b8154815290600101906020018083116138cf57829003601f168201915b5050505050905090565b6000603360009054906101000a900473ffffffffffffffffffffffffffffffffffffffff16905090565b600061010160009054906101000a900473ffffffffffffffffffffffffffffffffffffffff16905090565b606061010d80548060200260200160405190810160405280929190818152602001828054801561399a57602002820191906000526020600020905b815481526020019060010190808311613986575b5050505050905090565b60008061010460009054906101000a900473ffffffffffffffffffffffffffffffffffffffff1673ffffffffffffffffffffffffffffffffffffffff1663feaf968c6040518163ffffffff1660e01b815260040160a060405180830381865afa158015613a15573d6000803e3d6000fd5b505050506040513d601f19601f82011682018060405250810190613a399190617eb2565b5050509150506402540be40081613a50919061729f565b91505090565b600061011654905090565b6000613a6b614039565b8161010c60006101000a81548160ff021916908360ff16021790555060019050919050565b600061010260009054906101000a900473ffffffffffffffffffffffffffffffffffffffff16905090565b600061010854905090565b6000613ad0614039565b8161010160006101000a81548173ffffffffffffffffffffffffffffffffffffffff021916908373ffffffffffffffffffffffffffffffffffffffff16021790555060019050919050565b6000613b25614039565b8161010260006101000a81548173ffffffffffffffffffffffffffffffffffffffff021916908373ffffffffffffffffffffffffffffffffffffffff16021790555060019050919050565b600060fd54905090565b600061011254905090565b6000613b8f614039565b8161010060006101000a81548173ffffffffffffffffffffffffffffffffffffffff021916908373ffffffffffffffffffffffffffffffffffffffff1602179055508173ffffffffffffffffffffffffffffffffffffffff166306fdde036040518163ffffffff1660e01b81526004016000604051808303816000875af1158015613c1e573d6000803e3d6000fd5b505050506040513d6000823e3d601f19601f82011682018060405250810190613c479190617a7b565b60fb9081613c559190617cd0565b508173ffffffffffffffffffffffffffffffffffffffff1663313ce5676040518163ffffffff1660e01b81526004016020604051808303816000875af1158015613ca3573d6000803e3d6000fd5b505050506040513d601f19601f82011682018060405250810190613cc79190617db7565b60fc819055508173ffffffffffffffffffffffffffffffffffffffff166318160ddd6040518163ffffffff1660e01b8152600401602060405180830381865afa158015613d18573d6000803e3d6000fd5b505050506040513d601f19601f82011682018060405250810190613d3c9190617db7565b60fd819055508173ffffffffffffffffffffffffffffffffffffffff1663bab5ca6e6040518163ffffffff1660e01b81526004016020604051808303816000875af1158015613d8f573d6000803e3d6000fd5b505050506040513d601f19601f82011682018060405250810190613db39190617db7565b60ff8190555060019050919050565b6000613dce8383614518565b506001905092915050565b613de1614039565b806101168190555050565b6000613df6614039565b816101068190555060019050919050565b600061010760019054906101000a900460ff16905090565b600080613e2a6139a4565b9050600060fc54600a613e3d9190617254565b8285613e49919061729f565b613e5391906170f0565b90506101055481613e64919061729f565b925060fc54600a613e759190617254565b83613e8091906170f0565b92505050919050565b6000613e93614039565b8161010f8190555060019050919050565b600061010460009054906101000a900473ffffffffffffffffffffffffffffffffffffffff16905090565b600060ff54905090565b613ee1614039565b613ee9615f01565b565b600060fe60009054906101000a900473ffffffffffffffffffffffffffffffffffffffff16905090565b6000613f1f614039565b816101058190555060019050919050565b613f38614039565b8061011060006101000a81548173ffffffffffffffffffffffffffffffffffffffff021916908373ffffffffffffffffffffffffffffffffffffffff16021790555050565b600061010f54905090565b6000613f92614039565b8161010760016101000a81548160ff02191690831515021790555060019050919050565b613fbe614039565b600073ffffffffffffffffffffffffffffffffffffffff168173ffffffffffffffffffffffffffffffffffffffff160361402d576040517f08c379a000000000000000000000000000000000000000000000000000000000815260040161402490617f9f565b60405180910390fd5b61403681615d15565b50565b614041615f64565b73ffffffffffffffffffffffffffffffffffffffff1661405f6138f6565b73ffffffffffffffffffffffffffffffffffffffff16146140b5576040517f08c379a00000000000000000000000000000000000000000000000000000000081526004016140ac9061800b565b60405180910390fd5b565b6140bf61448c565b6001606560006101000a81548160ff0219169083151502179055507f62e78cea01bee320cd4e420270b5ea74000d11b0c9f74754ebdbfc544b05a258614103615f64565b604051614110919061664d565b60405180910390a1565b60006141487f360894a13ba1a3210667c828492db98dca3e2076cc3735a920a3ca505d382bbc60001b615f6c565b60000160009054906101000a900473ffffffffffffffffffffffffffffffffffffffff16905090565b614179614039565b50565b6141a87f4910fdfa16fed3260ed0e7147f7cc6da11a60208b5b9406d12a635614ffd914360001b615f76565b60000160009054906101000a900460ff16156141cc576141c783615f80565b6142e5565b8273ffffffffffffffffffffffffffffffffffffffff166352d1902d6040518163ffffffff1660e01b8152600401602060405180830381865afa92505050801561423457506040513d601f19601f820116820180604052508101906142319190618057565b60015b614273576040517f08c379a000000000000000000000000000000000000000000000000000000000815260040161426a906180f6565b60405180910390fd5b7f360894a13ba1a3210667c828492db98dca3e2076cc3735a920a3ca505d382bbc60001b81146142d8576040517f08c379a00000000000000000000000000000000000000000000000000000000081526004016142cf90618188565b60405180910390fd5b506142e4838383616039565b5b505050565b60008073ffffffffffffffffffffffffffffffffffffffff168373ffffffffffffffffffffffffffffffffffffffff160361435a576040517f08c379a0000000000000000000000000000000000000000000000000000000008152600401614351906181f4565b60405180910390fd5b600083905060005b61010d80549050811015614427578373ffffffffffffffffffffffffffffffffffffffff168273ffffffffffffffffffffffffffffffffffffffff16036143ae5760019250505061442e565b61011160008373ffffffffffffffffffffffffffffffffffffffff1673ffffffffffffffffffffffffffffffffffffffff16815260200190815260200160002060000160009054906101000a900473ffffffffffffffffffffffffffffffffffffffff169150808061441f90617619565b915050614362565b5060009150505b92915050565b600061011160008373ffffffffffffffffffffffffffffffffffffffff1673ffffffffffffffffffffffffffffffffffffffff168152602001908152602001600020600301805490509050919050565b600042905090565b614494612770565b156144d4576040517f08c379a00000000000000000000000000000000000000000000000000000000081526004016144cb90618260565b60405180910390fd5b565b600081836144e4919061729f565b905092915050565b600081836144fa91906170f0565b905092915050565b600081836145109190617727565b905092915050565b60008083905060008390506101175461453086614434565b1115614571576040517f08c379a000000000000000000000000000000000000000000000000000000000815260040161456890618318565b60405180910390fd5b600073ffffffffffffffffffffffffffffffffffffffff168273ffffffffffffffffffffffffffffffffffffffff1614806145d85750600073ffffffffffffffffffffffffffffffffffffffff168173ffffffffffffffffffffffffffffffffffffffff16145b15614656576040516145e9906183aa565b60405180910390208273ffffffffffffffffffffffffffffffffffffffff163373ffffffffffffffffffffffffffffffffffffffff167f63a04625ee50186097257e079ace9a312982f1976bdffa769db82a83c2ffc00660405160405180910390a4600092505050614a73565b61466082336142ea565b80614671575061467081336142ea565b5b156146ef5760405161468290618431565b60405180910390208273ffffffffffffffffffffffffffffffffffffffff163373ffffffffffffffffffffffffffffffffffffffff167f63a04625ee50186097257e079ace9a312982f1976bdffa769db82a83c2ffc00660405160405180910390a4600092505050614a73565b600073ffffffffffffffffffffffffffffffffffffffff1661011160003373ffffffffffffffffffffffffffffffffffffffff1673ffffffffffffffffffffffffffffffffffffffff16815260200190815260200160002060000160009054906101000a900473ffffffffffffffffffffffffffffffffffffffff1673ffffffffffffffffffffffffffffffffffffffff161415801561481f5750600073ffffffffffffffffffffffffffffffffffffffff1661011160003373ffffffffffffffffffffffffffffffffffffffff1673ffffffffffffffffffffffffffffffffffffffff16815260200190815260200160002060010160009054906101000a900473ffffffffffffffffffffffffffffffffffffffff1673ffffffffffffffffffffffffffffffffffffffff1614155b1561489d57604051614830906184b8565b60405180910390208273ffffffffffffffffffffffffffffffffffffffff163373ffffffffffffffffffffffffffffffffffffffff167f63a04625ee50186097257e079ace9a312982f1976bdffa769db82a83c2ffc00660405160405180910390a4600092505050614a73565b600061011160003373ffffffffffffffffffffffffffffffffffffffff1673ffffffffffffffffffffffffffffffffffffffff1681526020019081526020016000209050600061011160008573ffffffffffffffffffffffffffffffffffffffff1673ffffffffffffffffffffffffffffffffffffffff1681526020019081526020016000209050838260000160006101000a81548173ffffffffffffffffffffffffffffffffffffffff021916908373ffffffffffffffffffffffffffffffffffffffff160217905550828260010160006101000a81548173ffffffffffffffffffffffffffffffffffffffff021916908373ffffffffffffffffffffffffffffffffffffffff16021790555080600301339080600181540180825580915050600190039060005260206000200160009091909190916101000a81548173ffffffffffffffffffffffffffffffffffffffff021916908373ffffffffffffffffffffffffffffffffffffffff1602179055508373ffffffffffffffffffffffffffffffffffffffff163373ffffffffffffffffffffffffffffffffffffffff167ffaf63637882ff2d63ca76881cf92fb857130e36f350c926f9cc884b499b42b7760405160405180910390a360019450505050505b92915050565b60008061011160008473ffffffffffffffffffffffffffffffffffffffff1673ffffffffffffffffffffffffffffffffffffffff168152602001908152602001600020604051806101a00160405290816000820160009054906101000a900473ffffffffffffffffffffffffffffffffffffffff1673ffffffffffffffffffffffffffffffffffffffff1673ffffffffffffffffffffffffffffffffffffffff1681526020016001820160009054906101000a900473ffffffffffffffffffffffffffffffffffffffff1673ffffffffffffffffffffffffffffffffffffffff1673ffffffffffffffffffffffffffffffffffffffff1681526020016002820154815260200160038201805480602002602001604051908101604052809291908181526020018280548015614c0357602002820191906000526020600020905b8160009054906101000a900473ffffffffffffffffffffffffffffffffffffffff1673ffffffffffffffffffffffffffffffffffffffff1681526020019060010190808311614bb9575b50505050508152602001600482015481526020016005820154815260200160068201548152602001600782015481526020016008820154815260200160098201805480602002602001604051908101604052809291908181526020018280548015614c8d57602002820191906000526020600020905b815481526020019060010190808311614c79575b50505050508152602001600a8201805480602002602001604051908101604052809291908181526020018280548015614ce557602002820191906000526020600020905b815481526020019060010190808311614cd1575b50505050508152602001600b8201805480602002602001604051908101604052809291908181526020018280548015614d3d57602002820191906000526020600020905b815481526020019060010190808311614d29575b50505050508152602001600c8201805480602002602001604051908101604052809291908181526020018280548015614d9557602002820191906000526020600020905b815481526020019060010190808311614d81575b50505050508152505090506000805b61010d805490508110156153a15760008360000151905060008460200151905060006101116000876000015173ffffffffffffffffffffffffffffffffffffffff1673ffffffffffffffffffffffffffffffffffffffff168152602001908152602001600020905060006101116000886020015173ffffffffffffffffffffffffffffffffffffffff1673ffffffffffffffffffffffffffffffffffffffff1681526020019081526020016000209050600073ffffffffffffffffffffffffffffffffffffffff168473ffffffffffffffffffffffffffffffffffffffff161480614ebb5750600073ffffffffffffffffffffffffffffffffffffffff168373ffffffffffffffffffffffffffffffffffffffff16145b15614ec957505050506153a1565b6000614f1261010f54614f0461010d8981548110614eea57614ee9617470565b5b90600052602060002001548e6144d690919063ffffffff16565b6144ec90919063ffffffff16565b90508373ffffffffffffffffffffffffffffffffffffffff168573ffffffffffffffffffffffffffffffffffffffff1614158015614f7d5750600073ffffffffffffffffffffffffffffffffffffffff168473ffffffffffffffffffffffffffffffffffffffff1614155b8015614f8d575060008860400151145b8015614f995750600086145b15614fee576001886040018181525050614fbd6002826144ec90919063ffffffff16565b826008016000828254614fd091906176f3565b92505081905550614feb6002826144ec90919063ffffffff16565b90505b8083600801600082825461500291906176f3565b925050819055508a83600601600082825461501d91906176f3565b92505081905550808761503091906176f3565b9650808573ffffffffffffffffffffffffffffffffffffffff168b73ffffffffffffffffffffffffffffffffffffffff167f4d2ba4492b0c23a552760ad8f123604f2e008a55f8435e777ce0fa59fb39c83160018a61508f91906176f3565b60405161509c9190618519565b60405180910390a482604051806101a00160405290816000820160009054906101000a900473ffffffffffffffffffffffffffffffffffffffff1673ffffffffffffffffffffffffffffffffffffffff1673ffffffffffffffffffffffffffffffffffffffff1681526020016001820160009054906101000a900473ffffffffffffffffffffffffffffffffffffffff1673ffffffffffffffffffffffffffffffffffffffff1673ffffffffffffffffffffffffffffffffffffffff16815260200160028201548152602001600382018054806020026020016040519081016040528092919081815260200182805480156151ec57602002820191906000526020600020905b8160009054906101000a900473ffffffffffffffffffffffffffffffffffffffff1673ffffffffffffffffffffffffffffffffffffffff16815260200190600101908083116151a2575b5050505050815260200160048201548152602001600582015481526020016006820154815260200160078201548152602001600882015481526020016009820180548060200260200160405190810160405280929190818152602001828054801561527657602002820191906000526020600020905b815481526020019060010190808311615262575b50505050508152602001600a82018054806020026020016040519081016040528092919081815260200182805480156152ce57602002820191906000526020600020905b8154815260200190600101908083116152ba575b50505050508152602001600b820180548060200260200160405190810160405280929190818152602001828054801561532657602002820191906000526020600020905b815481526020019060010190808311615312575b50505050508152602001600c820180548060200260200160405190810160405280929190818152602001828054801561537e57602002820191906000526020600020905b81548152602001906001019080831161536a575b50505050508152505097505050505050808061539990617619565b915050614da4565b508061011560008282546153b591906176f3565b92505081905550809250505092915050565b60008061011160008473ffffffffffffffffffffffffffffffffffffffff1673ffffffffffffffffffffffffffffffffffffffff168152602001908152602001600020604051806101a00160405290816000820160009054906101000a900473ffffffffffffffffffffffffffffffffffffffff1673ffffffffffffffffffffffffffffffffffffffff1673ffffffffffffffffffffffffffffffffffffffff1681526020016001820160009054906101000a900473ffffffffffffffffffffffffffffffffffffffff1673ffffffffffffffffffffffffffffffffffffffff1673ffffffffffffffffffffffffffffffffffffffff168152602001600282015481526020016003820180548060200260200160405190810160405280929190818152602001828054801561555157602002820191906000526020600020905b8160009054906101000a900473ffffffffffffffffffffffffffffffffffffffff1673ffffffffffffffffffffffffffffffffffffffff1681526020019060010190808311615507575b505050505081526020016004820154815260200160058201548152602001600682015481526020016007820154815260200160088201548152602001600982018054806020026020016040519081016040528092919081815260200182805480156155db57602002820191906000526020600020905b8154815260200190600101908083116155c7575b50505050508152602001600a820180548060200260200160405190810160405280929190818152602001828054801561563357602002820191906000526020600020905b81548152602001906001019080831161561f575b50505050508152602001600b820180548060200260200160405190810160405280929190818152602001828054801561568b57602002820191906000526020600020905b815481526020019060010190808311615677575b50505050508152602001600c82018054806020026020016040519081016040528092919081815260200182805480156156e357602002820191906000526020600020905b8154815260200190600101908083116156cf575b50505050508152505090506000805b61010d80549050811015615cef5760008360000151905060008460200151905060006101116000876000015173ffffffffffffffffffffffffffffffffffffffff1673ffffffffffffffffffffffffffffffffffffffff168152602001908152602001600020905060006101116000886020015173ffffffffffffffffffffffffffffffffffffffff1673ffffffffffffffffffffffffffffffffffffffff1681526020019081526020016000209050600073ffffffffffffffffffffffffffffffffffffffff168473ffffffffffffffffffffffffffffffffffffffff1614806158095750600073ffffffffffffffffffffffffffffffffffffffff168373ffffffffffffffffffffffffffffffffffffffff16145b156158175750505050615cef565b600061586061010f5461585261010d898154811061583857615837617470565b5b90600052602060002001548e6144d690919063ffffffff16565b6144ec90919063ffffffff16565b90508373ffffffffffffffffffffffffffffffffffffffff168573ffffffffffffffffffffffffffffffffffffffff16141580156158cb5750600073ffffffffffffffffffffffffffffffffffffffff168473ffffffffffffffffffffffffffffffffffffffff1614155b80156158db575060008860400151145b80156158e75750600086145b1561593c57600188604001818152505061590b6002826144ec90919063ffffffff16565b82600701600082825461591e91906176f3565b925050819055506159396002826144ec90919063ffffffff16565b90505b8083600701600082825461595091906176f3565b925050819055508a83600501600082825461596b91906176f3565b92505081905550808761597e91906176f3565b9650808573ffffffffffffffffffffffffffffffffffffffff168b73ffffffffffffffffffffffffffffffffffffffff167f4d2ba4492b0c23a552760ad8f123604f2e008a55f8435e777ce0fa59fb39c83160018a6159dd91906176f3565b6040516159ea9190618593565b60405180910390a482604051806101a00160405290816000820160009054906101000a900473ffffffffffffffffffffffffffffffffffffffff1673ffffffffffffffffffffffffffffffffffffffff1673ffffffffffffffffffffffffffffffffffffffff1681526020016001820160009054906101000a900473ffffffffffffffffffffffffffffffffffffffff1673ffffffffffffffffffffffffffffffffffffffff1673ffffffffffffffffffffffffffffffffffffffff1681526020016002820154815260200160038201805480602002602001604051908101604052809291908181526020018280548015615b3a57602002820191906000526020600020905b8160009054906101000a900473ffffffffffffffffffffffffffffffffffffffff1673ffffffffffffffffffffffffffffffffffffffff1681526020019060010190808311615af0575b50505050508152602001600482015481526020016005820154815260200160068201548152602001600782015481526020016008820154815260200160098201805480602002602001604051908101604052809291908181526020018280548015615bc457602002820191906000526020600020905b815481526020019060010190808311615bb0575b50505050508152602001600a8201805480602002602001604051908101604052809291908181526020018280548015615c1c57602002820191906000526020600020905b815481526020019060010190808311615c08575b50505050508152602001600b8201805480602002602001604051908101604052809291908181526020018280548015615c7457602002820191906000526020600020905b815481526020019060010190808311615c60575b50505050508152602001600c8201805480602002602001604051908101604052809291908181526020018280548015615ccc57602002820191906000526020600020905b815481526020019060010190808311615cb8575b505050505081525050975050505050508080615ce790617619565b9150506156f2565b50806101146000828254615d0391906176f3565b92505081905550809250505092915050565b6000603360009054906101000a900473ffffffffffffffffffffffffffffffffffffffff16905081603360006101000a81548173ffffffffffffffffffffffffffffffffffffffff021916908373ffffffffffffffffffffffffffffffffffffffff1602179055508173ffffffffffffffffffffffffffffffffffffffff168173ffffffffffffffffffffffffffffffffffffffff167f8be0079c531659141344cd1fd0a4f28419497f9722a3daafe3b4186f6b6457e060405160405180910390a35050565b6000808273ffffffffffffffffffffffffffffffffffffffff163b119050919050565b600060019054906101000a900460ff16615e4d576040517f08c379a0000000000000000000000000000000000000000000000000000000008152600401615e4490618633565b60405180910390fd5b615e55616065565b565b600060019054906101000a900460ff16615ea6576040517f08c379a0000000000000000000000000000000000000000000000000000000008152600401615e9d90618633565b60405180910390fd5b615eae6160d1565b565b600060019054906101000a900460ff16615eff576040517f08c379a0000000000000000000000000000000000000000000000000000000008152600401615ef690618633565b60405180910390fd5b565b615f09616132565b6000606560006101000a81548160ff0219169083151502179055507f5db9ee0a495bf2e6ff9c91a7834c1ba4fdd244a5e8aa4e537bd38aeae4b073aa615f4d615f64565b604051615f5a919061664d565b60405180910390a1565b600033905090565b6000819050919050565b6000819050919050565b615f8981615ddb565b615fc8576040517f08c379a0000000000000000000000000000000000000000000000000000000008152600401615fbf906186c5565b60405180910390fd5b80615ff57f360894a13ba1a3210667c828492db98dca3e2076cc3735a920a3ca505d382bbc60001b615f6c565b60000160006101000a81548173ffffffffffffffffffffffffffffffffffffffff021916908373ffffffffffffffffffffffffffffffffffffffff16021790555050565b6160428361617b565b60008251118061604f5750805b156160605761605e83836161ca565b505b505050565b600060019054906101000a900460ff166160b4576040517f08c379a00000000000000000000000000000000000000000000000000000000081526004016160ab90618633565b60405180910390fd5b6000606560006101000a81548160ff021916908315150217905550565b600060019054906101000a900460ff16616120576040517f08c379a000000000000000000000000000000000000000000000000000000000815260040161611790618633565b60405180910390fd5b61613061612b615f64565b615d15565b565b61613a612770565b616179576040517f08c379a000000000000000000000000000000000000000000000000000000000815260040161617090618731565b60405180910390fd5b565b61618481615f80565b8073ffffffffffffffffffffffffffffffffffffffff167fbc7cd75a20ee27fd9adebab32041f755214dbc6bffa90cc0225b39da2e5c2d3b60405160405180910390a250565b60606161d583615ddb565b616214576040517f08c379a000000000000000000000000000000000000000000000000000000000815260040161620b906187c3565b60405180910390fd5b6000808473ffffffffffffffffffffffffffffffffffffffff168460405161623c919061882a565b600060405180830381855af49150503d8060008114616277576040519150601f19603f3d011682016040523d82523d6000602084013e61627c565b606091505b50915091506162a48282604051806060016040528060278152602001618842602791396162ae565b9250505092915050565b606083156162be5782905061630e565b6000835111156162d15782518084602001fd5b816040517f08c379a00000000000000000000000000000000000000000000000000000000081526004016163059190616f2d565b60405180910390fd5b9392505050565b604051806101a00160405280600073ffffffffffffffffffffffffffffffffffffffff168152602001600073ffffffffffffffffffffffffffffffffffffffff16815260200160008152602001606081526020016000815260200160008152602001600081526020016000815260200160008152602001606081526020016060815260200160608152602001606081525090565b8280548282559060005260206000209081019282156163ea579160200282015b828111156163e9578251829060ff169055916020019190600101906163c9565b5b5090506163f79190616448565b5090565b828054828255906000526020600020908101928215616437579160200282015b8281111561643657823582559160200191906001019061641b565b5b5090506164449190616448565b5090565b5b80821115616461576000816000905550600101616449565b5090565b6000819050919050565b61647881616465565b82525050565b6000602082019050616493600083018461646f565b92915050565b600060ff82169050919050565b6164af81616499565b82525050565b60006020820190506164ca60008301846164a6565b92915050565b6000604051905090565b600080fd5b600080fd5b600073ffffffffffffffffffffffffffffffffffffffff82169050919050565b600061650f826164e4565b9050919050565b61651f81616504565b811461652a57600080fd5b50565b60008135905061653c81616516565b92915050565b600060208284031215616558576165576164da565b5b60006165668482850161652d565b91505092915050565b60008115159050919050565b6165848161656f565b82525050565b600060208201905061659f600083018461657b565b92915050565b6165ae81616465565b81146165b957600080fd5b50565b6000813590506165cb816165a5565b92915050565b6000602082840312156165e7576165e66164da565b5b60006165f5848285016165bc565b91505092915050565b60008060408385031215616615576166146164da565b5b60006166238582860161652d565b9250506020616634858286016165bc565b9150509250929050565b61664781616504565b82525050565b6000602082019050616662600083018461663e565b92915050565b600080fd5b600080fd5b600080fd5b60008083601f84011261668d5761668c616668565b5b8235905067ffffffffffffffff8111156166aa576166a961666d565b5b6020830191508360208202830111156166c6576166c5616672565b5b9250929050565b60008083601f8401126166e3576166e2616668565b5b8235905067ffffffffffffffff811115616700576166ff61666d565b5b60208301915083602082028301111561671c5761671b616672565b5b9250929050565b6000806000806040858703121561673d5761673c6164da565b5b600085013567ffffffffffffffff81111561675b5761675a6164df565b5b61676787828801616677565b9450945050602085013567ffffffffffffffff81111561678a576167896164df565b5b616796878288016166cd565b925092505092959194509250565b60006167af826164e4565b9050919050565b6167bf816167a4565b82525050565b6167ce81616465565b82525050565b600081519050919050565b600082825260208201905092915050565b6000819050602082019050919050565b61680981616504565b82525050565b600061681b8383616800565b60208301905092915050565b6000602082019050919050565b600061683f826167d4565b61684981856167df565b9350616854836167f0565b8060005b8381101561688557815161686c888261680f565b975061687783616827565b925050600181019050616858565b5085935050505092915050565b600081519050919050565b600082825260208201905092915050565b6000819050602082019050919050565b60006168ca83836167c5565b60208301905092915050565b6000602082019050919050565b60006168ee82616892565b6168f8818561689d565b9350616903836168ae565b8060005b8381101561693457815161691b88826168be565b9750616926836168d6565b925050600181019050616907565b5085935050505092915050565b60006101a08301600083015161695a60008601826167b6565b50602083015161696d60208601826167b6565b50604083015161698060408601826167c5565b50606083015184820360608601526169988282616834565b91505060808301516169ad60808601826167c5565b5060a08301516169c060a08601826167c5565b5060c08301516169d360c08601826167c5565b5060e08301516169e660e08601826167c5565b506101008301516169fb6101008601826167c5565b50610120830151848203610120860152616a1582826168e3565b915050610140830151848203610140860152616a3182826168e3565b915050610160830151848203610160860152616a4d82826168e3565b915050610180830151848203610180860152616a6982826168e3565b9150508091505092915050565b60006020820190508181036000830152616a908184616941565b905092915050565b600080600080600080600080610100898b031215616ab957616ab86164da565b5b6000616ac78b828c0161652d565b9850506020616ad88b828c016165bc565b9750506040616ae98b828c016165bc565b9650506060616afa8b828c0161652d565b9550506080616b0b8b828c016165bc565b94505060a0616b1c8b828c016165bc565b93505060c0616b2d8b828c016165bc565b92505060e0616b3e8b828c016165bc565b9150509295985092959890939650565b600080fd5b6000601f19601f8301169050919050565b7f4e487b7100000000000000000000000000000000000000000000000000000000600052604160045260246000fd5b616b9c82616b53565b810181811067ffffffffffffffff82111715616bbb57616bba616b64565b5b80604052505050565b6000616bce6164d0565b9050616bda8282616b93565b919050565b600067ffffffffffffffff821115616bfa57616bf9616b64565b5b616c0382616b53565b9050602081019050919050565b82818337600083830152505050565b6000616c32616c2d84616bdf565b616bc4565b905082815260208101848484011115616c4e57616c4d616b4e565b5b616c59848285616c10565b509392505050565b600082601f830112616c7657616c75616668565b5b8135616c86848260208601616c1f565b91505092915050565b60008060408385031215616ca657616ca56164da565b5b6000616cb48582860161652d565b925050602083013567ffffffffffffffff811115616cd557616cd46164df565b5b616ce185828601616c61565b9150509250929050565b6000819050919050565b616cfe81616ceb565b82525050565b6000602082019050616d196000830184616cf5565b92915050565b600080600060608486031215616d3857616d376164da565b5b6000616d468682870161652d565b9350506020616d578682870161652d565b9250506040616d68868287016165bc565b9150509250925092565b60008060408385031215616d8957616d886164da565b5b6000616d978582860161652d565b9250506020616da88582860161652d565b9150509250929050565b616dbb8161656f565b8114616dc657600080fd5b50565b600081359050616dd881616db2565b92915050565b600060208284031215616df457616df36164da565b5b6000616e0284828501616dc9565b91505092915050565b60008083601f840112616e2157616e20616668565b5b8235905067ffffffffffffffff811115616e3e57616e3d61666d565b5b602083019150836020820283011115616e5a57616e59616672565b5b9250929050565b60008060208385031215616e7857616e776164da565b5b600083013567ffffffffffffffff811115616e9657616e956164df565b5b616ea285828601616e0b565b92509250509250929050565b600081519050919050565b600082825260208201905092915050565b60005b83811015616ee8578082015181840152602081019050616ecd565b60008484015250505050565b6000616eff82616eae565b616f098185616eb9565b9350616f19818560208601616eca565b616f2281616b53565b840191505092915050565b60006020820190508181036000830152616f478184616ef4565b905092915050565b600082825260208201905092915050565b6000616f6b82616892565b616f758185616f4f565b9350616f80836168ae565b8060005b83811015616fb1578151616f9888826168be565b9750616fa3836168d6565b925050600181019050616f84565b5085935050505092915050565b60006020820190508181036000830152616fd88184616f60565b905092915050565b616fe981616499565b8114616ff457600080fd5b50565b60008135905061700681616fe0565b92915050565b600060208284031215617022576170216164da565b5b600061703084828501616ff7565b91505092915050565b617042816167a4565b811461704d57600080fd5b50565b60008135905061705f81617039565b92915050565b60006020828403121561707b5761707a6164da565b5b600061708984828501617050565b91505092915050565b7f4e487b7100000000000000000000000000000000000000000000000000000000600052601260045260246000fd5b7f4e487b7100000000000000000000000000000000000000000000000000000000600052601160045260246000fd5b60006170fb82616465565b915061710683616465565b92508261711657617115617092565b5b828204905092915050565b60008160011c9050919050565b6000808291508390505b600185111561717857808604811115617154576171536170c1565b5b60018516156171635780820291505b808102905061717185617121565b9450617138565b94509492505050565b600082617191576001905061724d565b8161719f576000905061724d565b81600181146171b557600281146171bf576171ee565b600191505061724d565b60ff8411156171d1576171d06170c1565b5b8360020a9150848211156171e8576171e76170c1565b5b5061724d565b5060208310610133831016604e8410600b84101617156172235782820a90508381111561721e5761721d6170c1565b5b61724d565b617230848484600161712e565b92509050818404811115617247576172466170c1565b5b81810290505b9392505050565b600061725f82616465565b915061726a83616465565b92506172977fffffffffffffffffffffffffffffffffffffffffffffffffffffffffffffffff8484617181565b905092915050565b60006172aa82616465565b91506172b583616465565b92508282026172c381616465565b915082820484148315176172da576172d96170c1565b5b5092915050565b60006040820190506172f6600083018561663e565b617303602083018461646f565b9392505050565b60008151905061731981616db2565b92915050565b600060208284031215617335576173346164da565b5b60006173438482850161730a565b91505092915050565b7f46756e6374696f6e206d7573742062652063616c6c6564207468726f7567682060008201527f64656c656761746563616c6c0000000000000000000000000000000000000000602082015250565b60006173a8602c83616eb9565b91506173b38261734c565b604082019050919050565b600060208201905081810360008301526173d78161739b565b9050919050565b7f46756e6374696f6e206d7573742062652063616c6c6564207468726f7567682060008201527f6163746976652070726f78790000000000000000000000000000000000000000602082015250565b600061743a602c83616eb9565b9150617445826173de565b604082019050919050565b600060208201905081810360008301526174698161742d565b9050919050565b7f4e487b7100000000000000000000000000000000000000000000000000000000600052603260045260246000fd5b600081905092915050565b7f52656665727265722063616e6e6f742062652030783020616464726573730000600082015250565b60006174e0601e8361749f565b91506174eb826174aa565b601e82019050919050565b6000617501826174d3565b9150819050919050565b7f526566657265652063616e6e6f74206265206f6e65206f66207265666572726560008201527f722075706c696e65730000000000000000000000000000000000000000000000602082015250565b600061756760298361749f565b91506175728261750b565b602982019050919050565b60006175888261755a565b9150819050919050565b7f416464726573732068617665206265656e20726567697374657265642075706c60008201527f696e650000000000000000000000000000000000000000000000000000000000602082015250565b60006175ee60238361749f565b91506175f982617592565b602382019050919050565b600061760f826175e1565b9150819050919050565b600061762482616465565b91507fffffffffffffffffffffffffffffffffffffffffffffffffffffffffffffffff8203617656576176556170c1565b5b600182019050919050565b7f596f7520646f6e27742068617665206d696e206e6f206f66207265666572656560008201527f732e000000000000000000000000000000000000000000000000000000000000602082015250565b60006176bd602283616eb9565b91506176c882617661565b604082019050919050565b600060208201905081810360008301526176ec816176b0565b9050919050565b60006176fe82616465565b915061770983616465565b9250828201905080821115617721576177206170c1565b5b92915050565b600061773282616465565b915061773d83616465565b9250828203905081811115617755576177546170c1565b5b92915050565b7f555550535570677261646561626c653a206d757374206e6f742062652063616c60008201527f6c6564207468726f7567682064656c656761746563616c6c0000000000000000602082015250565b60006177b7603883616eb9565b91506177c28261775b565b604082019050919050565b600060208201905081810360008301526177e6816177aa565b9050919050565b7f427579696e672076616c7565206c657373207468656e206d696e696d756d206260008201527f7579696e672076616c75652e0000000000000000000000000000000000000000602082015250565b6000617849602c83616eb9565b9150617854826177ed565b604082019050919050565b600060208201905081810360008301526178788161783c565b9050919050565b6000606082019050617894600083018661663e565b6178a1602083018561663e565b6178ae604083018461646f565b949350505050565b7f4554482056616c7565206c657373207468656e206d696e696d756d206275796960008201527f6e67206574682076616c75652e00000000000000000000000000000000000000602082015250565b6000617912602d83616eb9565b915061791d826178b6565b604082019050919050565b6000602082019050818103600083015261794181617905565b9050919050565b7f496e697469616c697a61626c653a20636f6e747261637420697320616c72656160008201527f647920696e697469616c697a6564000000000000000000000000000000000000602082015250565b60006179a4602e83616eb9565b91506179af82617948565b604082019050919050565b600060208201905081810360008301526179d381617997565b9050919050565b600067ffffffffffffffff8211156179f5576179f4616b64565b5b6179fe82616b53565b9050602081019050919050565b6000617a1e617a19846179da565b616bc4565b905082815260208101848484011115617a3a57617a39616b4e565b5b617a45848285616eca565b509392505050565b600082601f830112617a6257617a61616668565b5b8151617a72848260208601617a0b565b91505092915050565b600060208284031215617a9157617a906164da565b5b600082015167ffffffffffffffff811115617aaf57617aae6164df565b5b617abb84828501617a4d565b91505092915050565b7f4e487b7100000000000000000000000000000000000000000000000000000000600052602260045260246000fd5b60006002820490506001821680617b0b57607f821691505b602082108103617b1e57617b1d617ac4565b5b50919050565b60008190508160005260206000209050919050565b60006020601f8301049050919050565b600082821b905092915050565b600060088302617b867fffffffffffffffffffffffffffffffffffffffffffffffffffffffffffffffff82617b49565b617b908683617b49565b95508019841693508086168417925050509392505050565b6000819050919050565b6000617bcd617bc8617bc384616465565b617ba8565b616465565b9050919050565b6000819050919050565b617be783617bb2565b617bfb617bf382617bd4565b848454617b56565b825550505050565b600090565b617c10617c03565b617c1b818484617bde565b505050565b5b81811015617c3f57617c34600082617c08565b600181019050617c21565b5050565b601f821115617c8457617c5581617b24565b617c5e84617b39565b81016020851015617c6d578190505b617c81617c7985617b39565b830182617c20565b50505b505050565b600082821c905092915050565b6000617ca760001984600802617c89565b1980831691505092915050565b6000617cc08383617c96565b9150826002028217905092915050565b617cd982616eae565b67ffffffffffffffff811115617cf257617cf1616b64565b5b617cfc8254617af3565b617d07828285617c43565b600060209050601f831160018114617d3a5760008415617d28578287015190505b617d328582617cb4565b865550617d9a565b601f198416617d4886617b24565b60005b82811015617d7057848901518255600182019150602085019450602081019050617d4b565b86831015617d8d5784890151617d89601f891682617c96565b8355505b6001600288020188555050505b505050505050565b600081519050617db1816165a5565b92915050565b600060208284031215617dcd57617dcc6164da565b5b6000617ddb84828501617da2565b91505092915050565b6000819050919050565b6000617e09617e04617dff84617de4565b617ba8565b616499565b9050919050565b617e1981617dee565b82525050565b6000602082019050617e346000830184617e10565b92915050565b600069ffffffffffffffffffff82169050919050565b617e5981617e3a565b8114617e6457600080fd5b50565b600081519050617e7681617e50565b92915050565b6000819050919050565b617e8f81617e7c565b8114617e9a57600080fd5b50565b600081519050617eac81617e86565b92915050565b600080600080600060a08688031215617ece57617ecd6164da565b5b6000617edc88828901617e67565b9550506020617eed88828901617e9d565b9450506040617efe88828901617da2565b9350506060617f0f88828901617da2565b9250506080617f2088828901617e67565b9150509295509295909350565b7f4f776e61626c653a206e6577206f776e657220697320746865207a65726f206160008201527f6464726573730000000000000000000000000000000000000000000000000000602082015250565b6000617f89602683616eb9565b9150617f9482617f2d565b604082019050919050565b60006020820190508181036000830152617fb881617f7c565b9050919050565b7f4f776e61626c653a2063616c6c6572206973206e6f7420746865206f776e6572600082015250565b6000617ff5602083616eb9565b915061800082617fbf565b602082019050919050565b6000602082019050818103600083015261802481617fe8565b9050919050565b61803481616ceb565b811461803f57600080fd5b50565b6000815190506180518161802b565b92915050565b60006020828403121561806d5761806c6164da565b5b600061807b84828501618042565b91505092915050565b7f45524331393637557067726164653a206e657720696d706c656d656e7461746960008201527f6f6e206973206e6f742055555053000000000000000000000000000000000000602082015250565b60006180e0602e83616eb9565b91506180eb82618084565b604082019050919050565b6000602082019050818103600083015261810f816180d3565b9050919050565b7f45524331393637557067726164653a20756e737570706f727465642070726f7860008201527f6961626c65555549440000000000000000000000000000000000000000000000602082015250565b6000618172602983616eb9565b915061817d82618116565b604082019050919050565b600060208201905081810360008301526181a181618165565b9050919050565b7f416464726573732063616e6e6f74206265203078302e00000000000000000000600082015250565b60006181de601683616eb9565b91506181e9826181a8565b602082019050919050565b6000602082019050818103600083015261820d816181d1565b9050919050565b7f5061757361626c653a2070617573656400000000000000000000000000000000600082015250565b600061824a601083616eb9565b915061825582618214565b602082019050919050565b600060208201905081810360008301526182798161823d565b9050919050565b7f5265666572726572206d617820726566657272656420636f756e74206578636560008201527f656465642e20506c656173652063686f6f736520616e6f74686572207265666560208201527f727265722e000000000000000000000000000000000000000000000000000000604082015250565b6000618302604583616eb9565b915061830d82618280565b606082019050919050565b60006020820190508181036000830152618331816182f5565b9050919050565b7f5265666572726572206f7220506172656e742063616e6e6f742062652030783060008201527f2061646472657373000000000000000000000000000000000000000000000000602082015250565b600061839460288361749f565b915061839f82618338565b602882019050919050565b60006183b582618387565b9150819050919050565b7f52656665726565206f7220706172656e742063616e6e6f74206265206f6e652060008201527f6f66207265666572726572206f7220706172656e742075706c696e6573000000602082015250565b600061841b603d8361749f565b9150618426826183bf565b603d82019050919050565b600061843c8261840e565b9150819050919050565b7f416464726573732068617665206265656e20726567697374657265642075706c60008201527f696e6520616e6420706172656e74000000000000000000000000000000000000602082015250565b60006184a2602e8361749f565b91506184ad82618446565b602e82019050919050565b60006184c382618495565b9150819050919050565b7f5553440000000000000000000000000000000000000000000000000000000000600082015250565b6000618503600383616eb9565b915061850e826184cd565b602082019050919050565b600060408201905061852e600083018461646f565b818103602083015261853f816184f6565b905092915050565b7f4554480000000000000000000000000000000000000000000000000000000000600082015250565b600061857d600383616eb9565b915061858882618547565b602082019050919050565b60006040820190506185a8600083018461646f565b81810360208301526185b981618570565b905092915050565b7f496e697469616c697a61626c653a20636f6e7472616374206973206e6f74206960008201527f6e697469616c697a696e67000000000000000000000000000000000000000000602082015250565b600061861d602b83616eb9565b9150618628826185c1565b604082019050919050565b6000602082019050818103600083015261864c81618610565b9050919050565b7f455243313936373a206e657720696d706c656d656e746174696f6e206973206e60008201527f6f74206120636f6e747261637400000000000000000000000000000000000000602082015250565b60006186af602d83616eb9565b91506186ba82618653565b604082019050919050565b600060208201905081810360008301526186de816186a2565b9050919050565b7f5061757361626c653a206e6f7420706175736564000000000000000000000000600082015250565b600061871b601483616eb9565b9150618726826186e5565b602082019050919050565b6000602082019050818103600083015261874a8161870e565b9050919050565b7f416464726573733a2064656c65676174652063616c6c20746f206e6f6e2d636f60008201527f6e74726163740000000000000000000000000000000000000000000000000000602082015250565b60006187ad602683616eb9565b91506187b882618751565b604082019050919050565b600060208201905081810360008301526187dc816187a0565b9050919050565b600081519050919050565b600081905092915050565b6000618804826187e3565b61880e81856187ee565b935061881e818560208601616eca565b80840191505092915050565b600061883682846187f9565b91508190509291505056fe416464726573733a206c6f772d6c6576656c2064656c65676174652063616c6c206661696c6564a2646970667358221220da62f2bfcd42e86edf11ec8624588df29bacc886af3dbd8ff98fc0277d8a759764736f6c63430008110033",
			"opcodes": "PUSH1 0xA0 PUSH1 0x40 MSTORE ADDRESS PUSH20 0xFFFFFFFFFFFFFFFFFFFFFFFFFFFFFFFFFFFFFFFF AND PUSH1 0x80 SWAP1 PUSH20 0xFFFFFFFFFFFFFFFFFFFFFFFFFFFFFFFFFFFFFFFF AND DUP2 MSTORE POP CALLVALUE DUP1 ISZERO PUSH3 0x44 JUMPI PUSH1 0x0 DUP1 REVERT JUMPDEST POP PUSH1 0x80 MLOAD PUSH2 0x889E PUSH3 0x7D PUSH1 0x0 CODECOPY PUSH1 0x0 DUP2 DUP2 PUSH2 0x13E4 ADD MSTORE DUP2 DUP2 PUSH2 0x1472 ADD MSTORE DUP2 DUP2 PUSH2 0x256A ADD MSTORE DUP2 DUP2 PUSH2 0x25F8 ADD MSTORE PUSH2 0x26BB ADD MSTORE PUSH2 0x889E PUSH1 0x0 RETURN INVALID PUSH1 0x80 PUSH1 0x40 MSTORE PUSH1 0x4 CALLDATASIZE LT PUSH2 0x409 JUMPI PUSH1 0x0 CALLDATALOAD PUSH1 0xE0 SHR DUP1 PUSH4 0x715018A6 GT PUSH2 0x213 JUMPI DUP1 PUSH4 0xAD974F4C GT PUSH2 0x123 JUMPI DUP1 PUSH4 0xD1C280BD GT PUSH2 0xAB JUMPI DUP1 PUSH4 0xDC245E12 GT PUSH2 0x7A JUMPI DUP1 PUSH4 0xDC245E12 EQ PUSH2 0xFC8 JUMPI DUP1 PUSH4 0xDCF6E819 EQ PUSH2 0x1005 JUMPI DUP1 PUSH4 0xE7CCA9C7 EQ PUSH2 0x102E JUMPI DUP1 PUSH4 0xE9BD186D EQ PUSH2 0x1059 JUMPI DUP1 PUSH4 0xF2FDE38B EQ PUSH2 0x1096 JUMPI PUSH2 0x410 JUMP JUMPDEST DUP1 PUSH4 0xD1C280BD EQ PUSH2 0xF30 JUMPI DUP1 PUSH4 0xD7C5BD91 EQ PUSH2 0xF5B JUMPI DUP1 PUSH4 0xDB5184E6 EQ PUSH2 0xF86 JUMPI DUP1 PUSH4 0xDBD0E1B6 EQ PUSH2 0xF9D JUMPI PUSH2 0x410 JUMP JUMPDEST DUP1 PUSH4 0xC912807A GT PUSH2 0xF2 JUMPI DUP1 PUSH4 0xC912807A EQ PUSH2 0xE25 JUMPI DUP1 PUSH4 0xC94D6B1F EQ PUSH2 0xE4E JUMPI DUP1 PUSH4 0xC9DC6302 EQ PUSH2 0xE8B JUMPI DUP1 PUSH4 0xCF6AD824 EQ PUSH2 0xEB6 JUMPI DUP1 PUSH4 0xCFBDB859 EQ PUSH2 0xEF3 JUMPI PUSH2 0x410 JUMP JUMPDEST DUP1 PUSH4 0xAD974F4C EQ PUSH2 0xD55 JUMPI DUP1 PUSH4 0xB20FEB2D EQ PUSH2 0xD80 JUMPI DUP1 PUSH4 0xB68E1E46 EQ PUSH2 0xDAB JUMPI DUP1 PUSH4 0xB94265B8 EQ PUSH2 0xDE8 JUMPI PUSH2 0x410 JUMP JUMPDEST DUP1 PUSH4 0x8E68DCE4 GT PUSH2 0x1A6 JUMPI DUP1 PUSH4 0x9C7DD27E GT PUSH2 0x175 JUMPI DUP1 PUSH4 0x9C7DD27E EQ PUSH2 0xC48 JUMPI DUP1 PUSH4 0xA5BAC943 EQ PUSH2 0xC85 JUMPI DUP1 PUSH4 0xA6AD9410 EQ PUSH2 0xCB0 JUMPI DUP1 PUSH4 0xA821B069 EQ PUSH2 0xCDB JUMPI DUP1 PUSH4 0xAC6F6A2D EQ PUSH2 0xD18 JUMPI PUSH2 0x410 JUMP JUMPDEST DUP1 PUSH4 0x8E68DCE4 EQ PUSH2 0xB9C JUMPI DUP1 PUSH4 0x918A54DB EQ PUSH2 0xBC7 JUMPI DUP1 PUSH4 0x94A73F59 EQ PUSH2 0xBF2 JUMPI DUP1 PUSH4 0x9A9466AE EQ PUSH2 0xC1D JUMPI PUSH2 0x410 JUMP JUMPDEST DUP1 PUSH4 0x83DD0341 GT PUSH2 0x1E2 JUMPI DUP1 PUSH4 0x83DD0341 EQ PUSH2 0xACC JUMPI DUP1 PUSH4 0x857D22EF EQ PUSH2 0xB09 JUMPI DUP1 PUSH4 0x862B092B EQ PUSH2 0xB46 JUMPI DUP1 PUSH4 0x8DA5CB5B EQ PUSH2 0xB71 JUMPI PUSH2 0x410 JUMP JUMPDEST DUP1 PUSH4 0x715018A6 EQ PUSH2 0xA24 JUMPI DUP1 PUSH4 0x7E76A70C EQ PUSH2 0xA3B JUMPI DUP1 PUSH4 0x8129FC1C EQ PUSH2 0xA78 JUMPI DUP1 PUSH4 0x82647E47 EQ PUSH2 0xA8F JUMPI PUSH2 0x410 JUMP JUMPDEST DUP1 PUSH4 0x34DCFA8C GT PUSH2 0x319 JUMPI DUP1 PUSH4 0x52414EC9 GT PUSH2 0x2A1 JUMPI DUP1 PUSH4 0x66146EF1 GT PUSH2 0x270 JUMPI DUP1 PUSH4 0x66146EF1 EQ PUSH2 0x938 JUMPI DUP1 PUSH4 0x669E8E8E EQ PUSH2 0x975 JUMPI DUP1 PUSH4 0x67DEB84F EQ PUSH2 0x991 JUMPI DUP1 PUSH4 0x685AC12B EQ PUSH2 0x9CE JUMPI DUP1 PUSH4 0x6C5E0611 EQ PUSH2 0x9F9 JUMPI PUSH2 0x410 JUMP JUMPDEST DUP1 PUSH4 0x52414EC9 EQ PUSH2 0x890 JUMPI DUP1 PUSH4 0x52D1902D EQ PUSH2 0x8B9 JUMPI DUP1 PUSH4 0x5C975ABB EQ PUSH2 0x8E4 JUMPI DUP1 PUSH4 0x62B30415 EQ PUSH2 0x90F JUMPI PUSH2 0x410 JUMP JUMPDEST DUP1 PUSH4 0x42910C5A GT PUSH2 0x2E8 JUMPI DUP1 PUSH4 0x42910C5A EQ PUSH2 0x7B6 JUMPI DUP1 PUSH4 0x4595066B EQ PUSH2 0x7E1 JUMPI DUP1 PUSH4 0x472D561D EQ PUSH2 0x81E JUMPI DUP1 PUSH4 0x4C3A5875 EQ PUSH2 0x849 JUMPI DUP1 PUSH4 0x4F1EF286 EQ PUSH2 0x874 JUMPI PUSH2 0x410 JUMP JUMPDEST DUP1 PUSH4 0x34DCFA8C EQ PUSH2 0x6EA JUMPI DUP1 PUSH4 0x3659CFE6 EQ PUSH2 0x713 JUMPI DUP1 PUSH4 0x3CAC0F53 EQ PUSH2 0x73C JUMPI DUP1 PUSH4 0x40A2472A EQ PUSH2 0x779 JUMPI PUSH2 0x410 JUMP JUMPDEST DUP1 PUSH4 0x1CECBE9A GT PUSH2 0x39C JUMPI DUP1 PUSH4 0x28B7BEDE GT PUSH2 0x36B JUMPI DUP1 PUSH4 0x28B7BEDE EQ PUSH2 0x627 JUMPI DUP1 PUSH4 0x2CF9A69C EQ PUSH2 0x652 JUMPI DUP1 PUSH4 0x2ECD7020 EQ PUSH2 0x67D JUMPI DUP1 PUSH4 0x2F11D653 EQ PUSH2 0x6A8 JUMPI DUP1 PUSH4 0x31E529A0 EQ PUSH2 0x6BF JUMPI PUSH2 0x410 JUMP JUMPDEST DUP1 PUSH4 0x1CECBE9A EQ PUSH2 0x57D JUMPI DUP1 PUSH4 0x1F9E65E4 EQ PUSH2 0x5A6 JUMPI DUP1 PUSH4 0x24883508 EQ PUSH2 0x5D1 JUMPI DUP1 PUSH4 0x24F65EE7 EQ PUSH2 0x5FC JUMPI PUSH2 0x410 JUMP JUMPDEST DUP1 PUSH4 0x18452CD8 GT PUSH2 0x3D8 JUMPI DUP1 PUSH4 0x18452CD8 EQ PUSH2 0x4AD JUMPI DUP1 PUSH4 0x18CFD80F EQ PUSH2 0x4EA JUMPI DUP1 PUSH4 0x1A5FFC3E EQ PUSH2 0x515 JUMPI DUP1 PUSH4 0x1B10F387 EQ PUSH2 0x540 JUMPI PUSH2 0x410 JUMP JUMPDEST DUP1 PUSH4 0x207AEF4 EQ PUSH2 0x415 JUMPI DUP1 PUSH4 0x4C76AF0 EQ PUSH2 0x440 JUMPI DUP1 PUSH4 0x8D05D5E EQ PUSH2 0x457 JUMPI DUP1 PUSH4 0xC678BCE EQ PUSH2 0x482 JUMPI PUSH2 0x410 JUMP JUMPDEST CALLDATASIZE PUSH2 0x410 JUMPI STOP JUMPDEST PUSH1 0x0 DUP1 REVERT JUMPDEST CALLVALUE DUP1 ISZERO PUSH2 0x421 JUMPI PUSH1 0x0 DUP1 REVERT JUMPDEST POP PUSH2 0x42A PUSH2 0x10BF JUMP JUMPDEST PUSH1 0x40 MLOAD PUSH2 0x437 SWAP2 SWAP1 PUSH2 0x647E JUMP JUMPDEST PUSH1 0x40 MLOAD DUP1 SWAP2 SUB SWAP1 RETURN JUMPDEST CALLVALUE DUP1 ISZERO PUSH2 0x44C JUMPI PUSH1 0x0 DUP1 REVERT JUMPDEST POP PUSH2 0x455 PUSH2 0x10CA JUMP JUMPDEST STOP JUMPDEST CALLVALUE DUP1 ISZERO PUSH2 0x463 JUMPI PUSH1 0x0 DUP1 REVERT JUMPDEST POP PUSH2 0x46C PUSH2 0x111B JUMP JUMPDEST PUSH1 0x40 MLOAD PUSH2 0x479 SWAP2 SWAP1 PUSH2 0x64B5 JUMP JUMPDEST PUSH1 0x40 MLOAD DUP1 SWAP2 SUB SWAP1 RETURN JUMPDEST CALLVALUE DUP1 ISZERO PUSH2 0x48E JUMPI PUSH1 0x0 DUP1 REVERT JUMPDEST POP PUSH2 0x497 PUSH2 0x1133 JUMP JUMPDEST PUSH1 0x40 MLOAD PUSH2 0x4A4 SWAP2 SWAP1 PUSH2 0x647E JUMP JUMPDEST PUSH1 0x40 MLOAD DUP1 SWAP2 SUB SWAP1 RETURN JUMPDEST CALLVALUE DUP1 ISZERO PUSH2 0x4B9 JUMPI PUSH1 0x0 DUP1 REVERT JUMPDEST POP PUSH2 0x4D4 PUSH1 0x4 DUP1 CALLDATASIZE SUB DUP2 ADD SWAP1 PUSH2 0x4CF SWAP2 SWAP1 PUSH2 0x6542 JUMP JUMPDEST PUSH2 0x113E JUMP JUMPDEST PUSH1 0x40 MLOAD PUSH2 0x4E1 SWAP2 SWAP1 PUSH2 0x658A JUMP JUMPDEST PUSH1 0x40 MLOAD DUP1 SWAP2 SUB SWAP1 RETURN JUMPDEST CALLVALUE DUP1 ISZERO PUSH2 0x4F6 JUMPI PUSH1 0x0 DUP1 REVERT JUMPDEST POP PUSH2 0x4FF PUSH2 0x11DA JUMP JUMPDEST PUSH1 0x40 MLOAD PUSH2 0x50C SWAP2 SWAP1 PUSH2 0x647E JUMP JUMPDEST PUSH1 0x40 MLOAD DUP1 SWAP2 SUB SWAP1 RETURN JUMPDEST CALLVALUE DUP1 ISZERO PUSH2 0x521 JUMPI PUSH1 0x0 DUP1 REVERT JUMPDEST POP PUSH2 0x52A PUSH2 0x11E5 JUMP JUMPDEST PUSH1 0x40 MLOAD PUSH2 0x537 SWAP2 SWAP1 PUSH2 0x647E JUMP JUMPDEST PUSH1 0x40 MLOAD DUP1 SWAP2 SUB SWAP1 RETURN JUMPDEST CALLVALUE DUP1 ISZERO PUSH2 0x54C JUMPI PUSH1 0x0 DUP1 REVERT JUMPDEST POP PUSH2 0x567 PUSH1 0x4 DUP1 CALLDATASIZE SUB DUP2 ADD SWAP1 PUSH2 0x562 SWAP2 SWAP1 PUSH2 0x65D1 JUMP JUMPDEST PUSH2 0x11F0 JUMP JUMPDEST PUSH1 0x40 MLOAD PUSH2 0x574 SWAP2 SWAP1 PUSH2 0x658A JUMP JUMPDEST PUSH1 0x40 MLOAD DUP1 SWAP2 SUB SWAP1 RETURN JUMPDEST CALLVALUE DUP1 ISZERO PUSH2 0x589 JUMPI PUSH1 0x0 DUP1 REVERT JUMPDEST POP PUSH2 0x5A4 PUSH1 0x4 DUP1 CALLDATASIZE SUB DUP2 ADD SWAP1 PUSH2 0x59F SWAP2 SWAP1 PUSH2 0x65FE JUMP JUMPDEST PUSH2 0x120B JUMP JUMPDEST STOP JUMPDEST CALLVALUE DUP1 ISZERO PUSH2 0x5B2 JUMPI PUSH1 0x0 DUP1 REVERT JUMPDEST POP PUSH2 0x5BB PUSH2 0x125E JUMP JUMPDEST PUSH1 0x40 MLOAD PUSH2 0x5C8 SWAP2 SWAP1 PUSH2 0x647E JUMP JUMPDEST PUSH1 0x40 MLOAD DUP1 SWAP2 SUB SWAP1 RETURN JUMPDEST CALLVALUE DUP1 ISZERO PUSH2 0x5DD JUMPI PUSH1 0x0 DUP1 REVERT JUMPDEST POP PUSH2 0x5E6 PUSH2 0x12C4 JUMP JUMPDEST PUSH1 0x40 MLOAD PUSH2 0x5F3 SWAP2 SWAP1 PUSH2 0x664D JUMP JUMPDEST PUSH1 0x40 MLOAD DUP1 SWAP2 SUB SWAP1 RETURN JUMPDEST CALLVALUE DUP1 ISZERO PUSH2 0x608 JUMPI PUSH1 0x0 DUP1 REVERT JUMPDEST POP PUSH2 0x611 PUSH2 0x12EF JUMP JUMPDEST PUSH1 0x40 MLOAD PUSH2 0x61E SWAP2 SWAP1 PUSH2 0x647E JUMP JUMPDEST PUSH1 0x40 MLOAD DUP1 SWAP2 SUB SWAP1 RETURN JUMPDEST CALLVALUE DUP1 ISZERO PUSH2 0x633 JUMPI PUSH1 0x0 DUP1 REVERT JUMPDEST POP PUSH2 0x63C PUSH2 0x12F9 JUMP JUMPDEST PUSH1 0x40 MLOAD PUSH2 0x649 SWAP2 SWAP1 PUSH2 0x664D JUMP JUMPDEST PUSH1 0x40 MLOAD DUP1 SWAP2 SUB SWAP1 RETURN JUMPDEST CALLVALUE DUP1 ISZERO PUSH2 0x65E JUMPI PUSH1 0x0 DUP1 REVERT JUMPDEST POP PUSH2 0x667 PUSH2 0x1324 JUMP JUMPDEST PUSH1 0x40 MLOAD PUSH2 0x674 SWAP2 SWAP1 PUSH2 0x647E JUMP JUMPDEST PUSH1 0x40 MLOAD DUP1 SWAP2 SUB SWAP1 RETURN JUMPDEST CALLVALUE DUP1 ISZERO PUSH2 0x689 JUMPI PUSH1 0x0 DUP1 REVERT JUMPDEST POP PUSH2 0x692 PUSH2 0x132F JUMP JUMPDEST PUSH1 0x40 MLOAD PUSH2 0x69F SWAP2 SWAP1 PUSH2 0x647E JUMP JUMPDEST PUSH1 0x40 MLOAD DUP1 SWAP2 SUB SWAP1 RETURN JUMPDEST CALLVALUE DUP1 ISZERO PUSH2 0x6B4 JUMPI PUSH1 0x0 DUP1 REVERT JUMPDEST POP PUSH2 0x6BD PUSH2 0x133A JUMP JUMPDEST STOP JUMPDEST CALLVALUE DUP1 ISZERO PUSH2 0x6CB JUMPI PUSH1 0x0 DUP1 REVERT JUMPDEST POP PUSH2 0x6D4 PUSH2 0x134C JUMP JUMPDEST PUSH1 0x40 MLOAD PUSH2 0x6E1 SWAP2 SWAP1 PUSH2 0x647E JUMP JUMPDEST PUSH1 0x40 MLOAD DUP1 SWAP2 SUB SWAP1 RETURN JUMPDEST CALLVALUE DUP1 ISZERO PUSH2 0x6F6 JUMPI PUSH1 0x0 DUP1 REVERT JUMPDEST POP PUSH2 0x711 PUSH1 0x4 DUP1 CALLDATASIZE SUB DUP2 ADD SWAP1 PUSH2 0x70C SWAP2 SWAP1 PUSH2 0x65FE JUMP JUMPDEST PUSH2 0x1357 JUMP JUMPDEST STOP JUMPDEST CALLVALUE DUP1 ISZERO PUSH2 0x71F JUMPI PUSH1 0x0 DUP1 REVERT JUMPDEST POP PUSH2 0x73A PUSH1 0x4 DUP1 CALLDATASIZE SUB DUP2 ADD SWAP1 PUSH2 0x735 SWAP2 SWAP1 PUSH2 0x6542 JUMP JUMPDEST PUSH2 0x13E2 JUMP JUMPDEST STOP JUMPDEST CALLVALUE DUP1 ISZERO PUSH2 0x748 JUMPI PUSH1 0x0 DUP1 REVERT JUMPDEST POP PUSH2 0x763 PUSH1 0x4 DUP1 CALLDATASIZE SUB DUP2 ADD SWAP1 PUSH2 0x75E SWAP2 SWAP1 PUSH2 0x6723 JUMP JUMPDEST PUSH2 0x156A JUMP JUMPDEST PUSH1 0x40 MLOAD PUSH2 0x770 SWAP2 SWAP1 PUSH2 0x658A JUMP JUMPDEST PUSH1 0x40 MLOAD DUP1 SWAP2 SUB SWAP1 RETURN JUMPDEST CALLVALUE DUP1 ISZERO PUSH2 0x785 JUMPI PUSH1 0x0 DUP1 REVERT JUMPDEST POP PUSH2 0x7A0 PUSH1 0x4 DUP1 CALLDATASIZE SUB DUP2 ADD SWAP1 PUSH2 0x79B SWAP2 SWAP1 PUSH2 0x6542 JUMP JUMPDEST PUSH2 0x1BDF JUMP JUMPDEST PUSH1 0x40 MLOAD PUSH2 0x7AD SWAP2 SWAP1 PUSH2 0x6A76 JUMP JUMPDEST PUSH1 0x40 MLOAD DUP1 SWAP2 SUB SWAP1 RETURN JUMPDEST CALLVALUE DUP1 ISZERO PUSH2 0x7C2 JUMPI PUSH1 0x0 DUP1 REVERT JUMPDEST POP PUSH2 0x7CB PUSH2 0x1F10 JUMP JUMPDEST PUSH1 0x40 MLOAD PUSH2 0x7D8 SWAP2 SWAP1 PUSH2 0x658A JUMP JUMPDEST PUSH1 0x40 MLOAD DUP1 SWAP2 SUB SWAP1 RETURN JUMPDEST CALLVALUE DUP1 ISZERO PUSH2 0x7ED JUMPI PUSH1 0x0 DUP1 REVERT JUMPDEST POP PUSH2 0x808 PUSH1 0x4 DUP1 CALLDATASIZE SUB DUP2 ADD SWAP1 PUSH2 0x803 SWAP2 SWAP1 PUSH2 0x6A98 JUMP JUMPDEST PUSH2 0x2222 JUMP JUMPDEST PUSH1 0x40 MLOAD PUSH2 0x815 SWAP2 SWAP1 PUSH2 0x658A JUMP JUMPDEST PUSH1 0x40 MLOAD DUP1 SWAP2 SUB SWAP1 RETURN JUMPDEST CALLVALUE DUP1 ISZERO PUSH2 0x82A JUMPI PUSH1 0x0 DUP1 REVERT JUMPDEST POP PUSH2 0x833 PUSH2 0x2545 JUMP JUMPDEST PUSH1 0x40 MLOAD PUSH2 0x840 SWAP2 SWAP1 PUSH2 0x647E JUMP JUMPDEST PUSH1 0x40 MLOAD DUP1 SWAP2 SUB SWAP1 RETURN JUMPDEST CALLVALUE DUP1 ISZERO PUSH2 0x855 JUMPI PUSH1 0x0 DUP1 REVERT JUMPDEST POP PUSH2 0x85E PUSH2 0x2550 JUMP JUMPDEST PUSH1 0x40 MLOAD PUSH2 0x86B SWAP2 SWAP1 PUSH2 0x658A JUMP JUMPDEST PUSH1 0x40 MLOAD DUP1 SWAP2 SUB SWAP1 RETURN JUMPDEST PUSH2 0x88E PUSH1 0x4 DUP1 CALLDATASIZE SUB DUP2 ADD SWAP1 PUSH2 0x889 SWAP2 SWAP1 PUSH2 0x6C8F JUMP JUMPDEST PUSH2 0x2568 JUMP JUMPDEST STOP JUMPDEST CALLVALUE DUP1 ISZERO PUSH2 0x89C JUMPI PUSH1 0x0 DUP1 REVERT JUMPDEST POP PUSH2 0x8B7 PUSH1 0x4 DUP1 CALLDATASIZE SUB DUP2 ADD SWAP1 PUSH2 0x8B2 SWAP2 SWAP1 PUSH2 0x65D1 JUMP JUMPDEST PUSH2 0x26A4 JUMP JUMPDEST STOP JUMPDEST CALLVALUE DUP1 ISZERO PUSH2 0x8C5 JUMPI PUSH1 0x0 DUP1 REVERT JUMPDEST POP PUSH2 0x8CE PUSH2 0x26B7 JUMP JUMPDEST PUSH1 0x40 MLOAD PUSH2 0x8DB SWAP2 SWAP1 PUSH2 0x6D04 JUMP JUMPDEST PUSH1 0x40 MLOAD DUP1 SWAP2 SUB SWAP1 RETURN JUMPDEST CALLVALUE DUP1 ISZERO PUSH2 0x8F0 JUMPI PUSH1 0x0 DUP1 REVERT JUMPDEST POP PUSH2 0x8F9 PUSH2 0x2770 JUMP JUMPDEST PUSH1 0x40 MLOAD PUSH2 0x906 SWAP2 SWAP1 PUSH2 0x658A JUMP JUMPDEST PUSH1 0x40 MLOAD DUP1 SWAP2 SUB SWAP1 RETURN JUMPDEST CALLVALUE DUP1 ISZERO PUSH2 0x91B JUMPI PUSH1 0x0 DUP1 REVERT JUMPDEST POP PUSH2 0x936 PUSH1 0x4 DUP1 CALLDATASIZE SUB DUP2 ADD SWAP1 PUSH2 0x931 SWAP2 SWAP1 PUSH2 0x6D1F JUMP JUMPDEST PUSH2 0x2787 JUMP JUMPDEST STOP JUMPDEST CALLVALUE DUP1 ISZERO PUSH2 0x944 JUMPI PUSH1 0x0 DUP1 REVERT JUMPDEST POP PUSH2 0x95F PUSH1 0x4 DUP1 CALLDATASIZE SUB DUP2 ADD SWAP1 PUSH2 0x95A SWAP2 SWAP1 PUSH2 0x65D1 JUMP JUMPDEST PUSH2 0x2C70 JUMP JUMPDEST PUSH1 0x40 MLOAD PUSH2 0x96C SWAP2 SWAP1 PUSH2 0x647E JUMP JUMPDEST PUSH1 0x40 MLOAD DUP1 SWAP2 SUB SWAP1 RETURN JUMPDEST PUSH2 0x98F PUSH1 0x4 DUP1 CALLDATASIZE SUB DUP2 ADD SWAP1 PUSH2 0x98A SWAP2 SWAP1 PUSH2 0x6D72 JUMP JUMPDEST PUSH2 0x2C88 JUMP JUMPDEST STOP JUMPDEST CALLVALUE DUP1 ISZERO PUSH2 0x99D JUMPI PUSH1 0x0 DUP1 REVERT JUMPDEST POP PUSH2 0x9B8 PUSH1 0x4 DUP1 CALLDATASIZE SUB DUP2 ADD SWAP1 PUSH2 0x9B3 SWAP2 SWAP1 PUSH2 0x65D1 JUMP JUMPDEST PUSH2 0x3097 JUMP JUMPDEST PUSH1 0x40 MLOAD PUSH2 0x9C5 SWAP2 SWAP1 PUSH2 0x658A JUMP JUMPDEST PUSH1 0x40 MLOAD DUP1 SWAP2 SUB SWAP1 RETURN JUMPDEST CALLVALUE DUP1 ISZERO PUSH2 0x9DA JUMPI PUSH1 0x0 DUP1 REVERT JUMPDEST POP PUSH2 0x9E3 PUSH2 0x30B2 JUMP JUMPDEST PUSH1 0x40 MLOAD PUSH2 0x9F0 SWAP2 SWAP1 PUSH2 0x647E JUMP JUMPDEST PUSH1 0x40 MLOAD DUP1 SWAP2 SUB SWAP1 RETURN JUMPDEST CALLVALUE DUP1 ISZERO PUSH2 0xA05 JUMPI PUSH1 0x0 DUP1 REVERT JUMPDEST POP PUSH2 0xA0E PUSH2 0x30BD JUMP JUMPDEST PUSH1 0x40 MLOAD PUSH2 0xA1B SWAP2 SWAP1 PUSH2 0x647E JUMP JUMPDEST PUSH1 0x40 MLOAD DUP1 SWAP2 SUB SWAP1 RETURN JUMPDEST CALLVALUE DUP1 ISZERO PUSH2 0xA30 JUMPI PUSH1 0x0 DUP1 REVERT JUMPDEST POP PUSH2 0xA39 PUSH2 0x30C8 JUMP JUMPDEST STOP JUMPDEST CALLVALUE DUP1 ISZERO PUSH2 0xA47 JUMPI PUSH1 0x0 DUP1 REVERT JUMPDEST POP PUSH2 0xA62 PUSH1 0x4 DUP1 CALLDATASIZE SUB DUP2 ADD SWAP1 PUSH2 0xA5D SWAP2 SWAP1 PUSH2 0x6DDE JUMP JUMPDEST PUSH2 0x30DC JUMP JUMPDEST PUSH1 0x40 MLOAD PUSH2 0xA6F SWAP2 SWAP1 PUSH2 0x658A JUMP JUMPDEST PUSH1 0x40 MLOAD DUP1 SWAP2 SUB SWAP1 RETURN JUMPDEST CALLVALUE DUP1 ISZERO PUSH2 0xA84 JUMPI PUSH1 0x0 DUP1 REVERT JUMPDEST POP PUSH2 0xA8D PUSH2 0x310A JUMP JUMPDEST STOP JUMPDEST CALLVALUE DUP1 ISZERO PUSH2 0xA9B JUMPI PUSH1 0x0 DUP1 REVERT JUMPDEST POP PUSH2 0xAB6 PUSH1 0x4 DUP1 CALLDATASIZE SUB DUP2 ADD SWAP1 PUSH2 0xAB1 SWAP2 SWAP1 PUSH2 0x6E61 JUMP JUMPDEST PUSH2 0x37D6 JUMP JUMPDEST PUSH1 0x40 MLOAD PUSH2 0xAC3 SWAP2 SWAP1 PUSH2 0x658A JUMP JUMPDEST PUSH1 0x40 MLOAD DUP1 SWAP2 SUB SWAP1 RETURN JUMPDEST CALLVALUE DUP1 ISZERO PUSH2 0xAD8 JUMPI PUSH1 0x0 DUP1 REVERT JUMPDEST POP PUSH2 0xAF3 PUSH1 0x4 DUP1 CALLDATASIZE SUB DUP2 ADD SWAP1 PUSH2 0xAEE SWAP2 SWAP1 PUSH2 0x6542 JUMP JUMPDEST PUSH2 0x37FD JUMP JUMPDEST PUSH1 0x40 MLOAD PUSH2 0xB00 SWAP2 SWAP1 PUSH2 0x647E JUMP JUMPDEST PUSH1 0x40 MLOAD DUP1 SWAP2 SUB SWAP1 RETURN JUMPDEST CALLVALUE DUP1 ISZERO PUSH2 0xB15 JUMPI PUSH1 0x0 DUP1 REVERT JUMPDEST POP PUSH2 0xB30 PUSH1 0x4 DUP1 CALLDATASIZE SUB DUP2 ADD SWAP1 PUSH2 0xB2B SWAP2 SWAP1 PUSH2 0x6542 JUMP JUMPDEST PUSH2 0x380F JUMP JUMPDEST PUSH1 0x40 MLOAD PUSH2 0xB3D SWAP2 SWAP1 PUSH2 0x658A JUMP JUMPDEST PUSH1 0x40 MLOAD DUP1 SWAP2 SUB SWAP1 RETURN JUMPDEST CALLVALUE DUP1 ISZERO PUSH2 0xB52 JUMPI PUSH1 0x0 DUP1 REVERT JUMPDEST POP PUSH2 0xB5B PUSH2 0x3864 JUMP JUMPDEST PUSH1 0x40 MLOAD PUSH2 0xB68 SWAP2 SWAP1 PUSH2 0x6F2D JUMP JUMPDEST PUSH1 0x40 MLOAD DUP1 SWAP2 SUB SWAP1 RETURN JUMPDEST CALLVALUE DUP1 ISZERO PUSH2 0xB7D JUMPI PUSH1 0x0 DUP1 REVERT JUMPDEST POP PUSH2 0xB86 PUSH2 0x38F6 JUMP JUMPDEST PUSH1 0x40 MLOAD PUSH2 0xB93 SWAP2 SWAP1 PUSH2 0x664D JUMP JUMPDEST PUSH1 0x40 MLOAD DUP1 SWAP2 SUB SWAP1 RETURN JUMPDEST CALLVALUE DUP1 ISZERO PUSH2 0xBA8 JUMPI PUSH1 0x0 DUP1 REVERT JUMPDEST POP PUSH2 0xBB1 PUSH2 0x3920 JUMP JUMPDEST PUSH1 0x40 MLOAD PUSH2 0xBBE SWAP2 SWAP1 PUSH2 0x664D JUMP JUMPDEST PUSH1 0x40 MLOAD DUP1 SWAP2 SUB SWAP1 RETURN JUMPDEST CALLVALUE DUP1 ISZERO PUSH2 0xBD3 JUMPI PUSH1 0x0 DUP1 REVERT JUMPDEST POP PUSH2 0xBDC PUSH2 0x394B JUMP JUMPDEST PUSH1 0x40 MLOAD PUSH2 0xBE9 SWAP2 SWAP1 PUSH2 0x6FBE JUMP JUMPDEST PUSH1 0x40 MLOAD DUP1 SWAP2 SUB SWAP1 RETURN JUMPDEST CALLVALUE DUP1 ISZERO PUSH2 0xBFE JUMPI PUSH1 0x0 DUP1 REVERT JUMPDEST POP PUSH2 0xC07 PUSH2 0x39A4 JUMP JUMPDEST PUSH1 0x40 MLOAD PUSH2 0xC14 SWAP2 SWAP1 PUSH2 0x647E JUMP JUMPDEST PUSH1 0x40 MLOAD DUP1 SWAP2 SUB SWAP1 RETURN JUMPDEST CALLVALUE DUP1 ISZERO PUSH2 0xC29 JUMPI PUSH1 0x0 DUP1 REVERT JUMPDEST POP PUSH2 0xC32 PUSH2 0x3A56 JUMP JUMPDEST PUSH1 0x40 MLOAD PUSH2 0xC3F SWAP2 SWAP1 PUSH2 0x647E JUMP JUMPDEST PUSH1 0x40 MLOAD DUP1 SWAP2 SUB SWAP1 RETURN JUMPDEST CALLVALUE DUP1 ISZERO PUSH2 0xC54 JUMPI PUSH1 0x0 DUP1 REVERT JUMPDEST POP PUSH2 0xC6F PUSH1 0x4 DUP1 CALLDATASIZE SUB DUP2 ADD SWAP1 PUSH2 0xC6A SWAP2 SWAP1 PUSH2 0x700C JUMP JUMPDEST PUSH2 0x3A61 JUMP JUMPDEST PUSH1 0x40 MLOAD PUSH2 0xC7C SWAP2 SWAP1 PUSH2 0x658A JUMP JUMPDEST PUSH1 0x40 MLOAD DUP1 SWAP2 SUB SWAP1 RETURN JUMPDEST CALLVALUE DUP1 ISZERO PUSH2 0xC91 JUMPI PUSH1 0x0 DUP1 REVERT JUMPDEST POP PUSH2 0xC9A PUSH2 0x3A90 JUMP JUMPDEST PUSH1 0x40 MLOAD PUSH2 0xCA7 SWAP2 SWAP1 PUSH2 0x664D JUMP JUMPDEST PUSH1 0x40 MLOAD DUP1 SWAP2 SUB SWAP1 RETURN JUMPDEST CALLVALUE DUP1 ISZERO PUSH2 0xCBC JUMPI PUSH1 0x0 DUP1 REVERT JUMPDEST POP PUSH2 0xCC5 PUSH2 0x3ABB JUMP JUMPDEST PUSH1 0x40 MLOAD PUSH2 0xCD2 SWAP2 SWAP1 PUSH2 0x647E JUMP JUMPDEST PUSH1 0x40 MLOAD DUP1 SWAP2 SUB SWAP1 RETURN JUMPDEST CALLVALUE DUP1 ISZERO PUSH2 0xCE7 JUMPI PUSH1 0x0 DUP1 REVERT JUMPDEST POP PUSH2 0xD02 PUSH1 0x4 DUP1 CALLDATASIZE SUB DUP2 ADD SWAP1 PUSH2 0xCFD SWAP2 SWAP1 PUSH2 0x6542 JUMP JUMPDEST PUSH2 0x3AC6 JUMP JUMPDEST PUSH1 0x40 MLOAD PUSH2 0xD0F SWAP2 SWAP1 PUSH2 0x658A JUMP JUMPDEST PUSH1 0x40 MLOAD DUP1 SWAP2 SUB SWAP1 RETURN JUMPDEST CALLVALUE DUP1 ISZERO PUSH2 0xD24 JUMPI PUSH1 0x0 DUP1 REVERT JUMPDEST POP PUSH2 0xD3F PUSH1 0x4 DUP1 CALLDATASIZE SUB DUP2 ADD SWAP1 PUSH2 0xD3A SWAP2 SWAP1 PUSH2 0x6542 JUMP JUMPDEST PUSH2 0x3B1B JUMP JUMPDEST PUSH1 0x40 MLOAD PUSH2 0xD4C SWAP2 SWAP1 PUSH2 0x658A JUMP JUMPDEST PUSH1 0x40 MLOAD DUP1 SWAP2 SUB SWAP1 RETURN JUMPDEST CALLVALUE DUP1 ISZERO PUSH2 0xD61 JUMPI PUSH1 0x0 DUP1 REVERT JUMPDEST POP PUSH2 0xD6A PUSH2 0x3B70 JUMP JUMPDEST PUSH1 0x40 MLOAD PUSH2 0xD77 SWAP2 SWAP1 PUSH2 0x647E JUMP JUMPDEST PUSH1 0x40 MLOAD DUP1 SWAP2 SUB SWAP1 RETURN JUMPDEST CALLVALUE DUP1 ISZERO PUSH2 0xD8C JUMPI PUSH1 0x0 DUP1 REVERT JUMPDEST POP PUSH2 0xD95 PUSH2 0x3B7A JUMP JUMPDEST PUSH1 0x40 MLOAD PUSH2 0xDA2 SWAP2 SWAP1 PUSH2 0x647E JUMP JUMPDEST PUSH1 0x40 MLOAD DUP1 SWAP2 SUB SWAP1 RETURN JUMPDEST CALLVALUE DUP1 ISZERO PUSH2 0xDB7 JUMPI PUSH1 0x0 DUP1 REVERT JUMPDEST POP PUSH2 0xDD2 PUSH1 0x4 DUP1 CALLDATASIZE SUB DUP2 ADD SWAP1 PUSH2 0xDCD SWAP2 SWAP1 PUSH2 0x6542 JUMP JUMPDEST PUSH2 0x3B85 JUMP JUMPDEST PUSH1 0x40 MLOAD PUSH2 0xDDF SWAP2 SWAP1 PUSH2 0x658A JUMP JUMPDEST PUSH1 0x40 MLOAD DUP1 SWAP2 SUB SWAP1 RETURN JUMPDEST CALLVALUE DUP1 ISZERO PUSH2 0xDF4 JUMPI PUSH1 0x0 DUP1 REVERT JUMPDEST POP PUSH2 0xE0F PUSH1 0x4 DUP1 CALLDATASIZE SUB DUP2 ADD SWAP1 PUSH2 0xE0A SWAP2 SWAP1 PUSH2 0x6D72 JUMP JUMPDEST PUSH2 0x3DC2 JUMP JUMPDEST PUSH1 0x40 MLOAD PUSH2 0xE1C SWAP2 SWAP1 PUSH2 0x658A JUMP JUMPDEST PUSH1 0x40 MLOAD DUP1 SWAP2 SUB SWAP1 RETURN JUMPDEST CALLVALUE DUP1 ISZERO PUSH2 0xE31 JUMPI PUSH1 0x0 DUP1 REVERT JUMPDEST POP PUSH2 0xE4C PUSH1 0x4 DUP1 CALLDATASIZE SUB DUP2 ADD SWAP1 PUSH2 0xE47 SWAP2 SWAP1 PUSH2 0x65D1 JUMP JUMPDEST PUSH2 0x3DD9 JUMP JUMPDEST STOP JUMPDEST CALLVALUE DUP1 ISZERO PUSH2 0xE5A JUMPI PUSH1 0x0 DUP1 REVERT JUMPDEST POP PUSH2 0xE75 PUSH1 0x4 DUP1 CALLDATASIZE SUB DUP2 ADD SWAP1 PUSH2 0xE70 SWAP2 SWAP1 PUSH2 0x65D1 JUMP JUMPDEST PUSH2 0x3DEC JUMP JUMPDEST PUSH1 0x40 MLOAD PUSH2 0xE82 SWAP2 SWAP1 PUSH2 0x658A JUMP JUMPDEST PUSH1 0x40 MLOAD DUP1 SWAP2 SUB SWAP1 RETURN JUMPDEST CALLVALUE DUP1 ISZERO PUSH2 0xE97 JUMPI PUSH1 0x0 DUP1 REVERT JUMPDEST POP PUSH2 0xEA0 PUSH2 0x3E07 JUMP JUMPDEST PUSH1 0x40 MLOAD PUSH2 0xEAD SWAP2 SWAP1 PUSH2 0x658A JUMP JUMPDEST PUSH1 0x40 MLOAD DUP1 SWAP2 SUB SWAP1 RETURN JUMPDEST CALLVALUE DUP1 ISZERO PUSH2 0xEC2 JUMPI PUSH1 0x0 DUP1 REVERT JUMPDEST POP PUSH2 0xEDD PUSH1 0x4 DUP1 CALLDATASIZE SUB DUP2 ADD SWAP1 PUSH2 0xED8 SWAP2 SWAP1 PUSH2 0x65D1 JUMP JUMPDEST PUSH2 0x3E1F JUMP JUMPDEST PUSH1 0x40 MLOAD PUSH2 0xEEA SWAP2 SWAP1 PUSH2 0x647E JUMP JUMPDEST PUSH1 0x40 MLOAD DUP1 SWAP2 SUB SWAP1 RETURN JUMPDEST CALLVALUE DUP1 ISZERO PUSH2 0xEFF JUMPI PUSH1 0x0 DUP1 REVERT JUMPDEST POP PUSH2 0xF1A PUSH1 0x4 DUP1 CALLDATASIZE SUB DUP2 ADD SWAP1 PUSH2 0xF15 SWAP2 SWAP1 PUSH2 0x65D1 JUMP JUMPDEST PUSH2 0x3E89 JUMP JUMPDEST PUSH1 0x40 MLOAD PUSH2 0xF27 SWAP2 SWAP1 PUSH2 0x658A JUMP JUMPDEST PUSH1 0x40 MLOAD DUP1 SWAP2 SUB SWAP1 RETURN JUMPDEST CALLVALUE DUP1 ISZERO PUSH2 0xF3C JUMPI PUSH1 0x0 DUP1 REVERT JUMPDEST POP PUSH2 0xF45 PUSH2 0x3EA4 JUMP JUMPDEST PUSH1 0x40 MLOAD PUSH2 0xF52 SWAP2 SWAP1 PUSH2 0x664D JUMP JUMPDEST PUSH1 0x40 MLOAD DUP1 SWAP2 SUB SWAP1 RETURN JUMPDEST CALLVALUE DUP1 ISZERO PUSH2 0xF67 JUMPI PUSH1 0x0 DUP1 REVERT JUMPDEST POP PUSH2 0xF70 PUSH2 0x3ECF JUMP JUMPDEST PUSH1 0x40 MLOAD PUSH2 0xF7D SWAP2 SWAP1 PUSH2 0x647E JUMP JUMPDEST PUSH1 0x40 MLOAD DUP1 SWAP2 SUB SWAP1 RETURN JUMPDEST CALLVALUE DUP1 ISZERO PUSH2 0xF92 JUMPI PUSH1 0x0 DUP1 REVERT JUMPDEST POP PUSH2 0xF9B PUSH2 0x3ED9 JUMP JUMPDEST STOP JUMPDEST CALLVALUE DUP1 ISZERO PUSH2 0xFA9 JUMPI PUSH1 0x0 DUP1 REVERT JUMPDEST POP PUSH2 0xFB2 PUSH2 0x3EEB JUMP JUMPDEST PUSH1 0x40 MLOAD PUSH2 0xFBF SWAP2 SWAP1 PUSH2 0x664D JUMP JUMPDEST PUSH1 0x40 MLOAD DUP1 SWAP2 SUB SWAP1 RETURN JUMPDEST CALLVALUE DUP1 ISZERO PUSH2 0xFD4 JUMPI PUSH1 0x0 DUP1 REVERT JUMPDEST POP PUSH2 0xFEF PUSH1 0x4 DUP1 CALLDATASIZE SUB DUP2 ADD SWAP1 PUSH2 0xFEA SWAP2 SWAP1 PUSH2 0x65D1 JUMP JUMPDEST PUSH2 0x3F15 JUMP JUMPDEST PUSH1 0x40 MLOAD PUSH2 0xFFC SWAP2 SWAP1 PUSH2 0x658A JUMP JUMPDEST PUSH1 0x40 MLOAD DUP1 SWAP2 SUB SWAP1 RETURN JUMPDEST CALLVALUE DUP1 ISZERO PUSH2 0x1011 JUMPI PUSH1 0x0 DUP1 REVERT JUMPDEST POP PUSH2 0x102C PUSH1 0x4 DUP1 CALLDATASIZE SUB DUP2 ADD SWAP1 PUSH2 0x1027 SWAP2 SWAP1 PUSH2 0x7065 JUMP JUMPDEST PUSH2 0x3F30 JUMP JUMPDEST STOP JUMPDEST CALLVALUE DUP1 ISZERO PUSH2 0x103A JUMPI PUSH1 0x0 DUP1 REVERT JUMPDEST POP PUSH2 0x1043 PUSH2 0x3F7D JUMP JUMPDEST PUSH1 0x40 MLOAD PUSH2 0x1050 SWAP2 SWAP1 PUSH2 0x647E JUMP JUMPDEST PUSH1 0x40 MLOAD DUP1 SWAP2 SUB SWAP1 RETURN JUMPDEST CALLVALUE DUP1 ISZERO PUSH2 0x1065 JUMPI PUSH1 0x0 DUP1 REVERT JUMPDEST POP PUSH2 0x1080 PUSH1 0x4 DUP1 CALLDATASIZE SUB DUP2 ADD SWAP1 PUSH2 0x107B SWAP2 SWAP1 PUSH2 0x6DDE JUMP JUMPDEST PUSH2 0x3F88 JUMP JUMPDEST PUSH1 0x40 MLOAD PUSH2 0x108D SWAP2 SWAP1 PUSH2 0x658A JUMP JUMPDEST PUSH1 0x40 MLOAD DUP1 SWAP2 SUB SWAP1 RETURN JUMPDEST CALLVALUE DUP1 ISZERO PUSH2 0x10A2 JUMPI PUSH1 0x0 DUP1 REVERT JUMPDEST POP PUSH2 0x10BD PUSH1 0x4 DUP1 CALLDATASIZE SUB DUP2 ADD SWAP1 PUSH2 0x10B8 SWAP2 SWAP1 PUSH2 0x6542 JUMP JUMPDEST PUSH2 0x3FB6 JUMP JUMPDEST STOP JUMPDEST PUSH1 0x0 PUSH2 0x117 SLOAD SWAP1 POP SWAP1 JUMP JUMPDEST PUSH2 0x10D2 PUSH2 0x4039 JUMP JUMPDEST CALLER PUSH20 0xFFFFFFFFFFFFFFFFFFFFFFFFFFFFFFFFFFFFFFFF AND PUSH2 0x8FC SELFBALANCE SWAP1 DUP2 ISZERO MUL SWAP1 PUSH1 0x40 MLOAD PUSH1 0x0 PUSH1 0x40 MLOAD DUP1 DUP4 SUB DUP2 DUP6 DUP9 DUP9 CALL SWAP4 POP POP POP POP ISZERO DUP1 ISZERO PUSH2 0x1118 JUMPI RETURNDATASIZE PUSH1 0x0 DUP1 RETURNDATACOPY RETURNDATASIZE PUSH1 0x0 REVERT JUMPDEST POP JUMP JUMPDEST PUSH1 0x0 PUSH2 0x10C PUSH1 0x0 SWAP1 SLOAD SWAP1 PUSH2 0x100 EXP SWAP1 DIV PUSH1 0xFF AND SWAP1 POP SWAP1 JUMP JUMPDEST PUSH1 0x0 PUSH2 0x115 SLOAD SWAP1 POP SWAP1 JUMP JUMPDEST PUSH1 0x0 DUP1 PUSH20 0xFFFFFFFFFFFFFFFFFFFFFFFFFFFFFFFFFFFFFFFF AND PUSH2 0x111 PUSH1 0x0 DUP5 PUSH20 0xFFFFFFFFFFFFFFFFFFFFFFFFFFFFFFFFFFFFFFFF AND PUSH20 0xFFFFFFFFFFFFFFFFFFFFFFFFFFFFFFFFFFFFFFFF AND DUP2 MSTORE PUSH1 0x20 ADD SWAP1 DUP2 MSTORE PUSH1 0x20 ADD PUSH1 0x0 KECCAK256 PUSH1 0x0 ADD PUSH1 0x0 SWAP1 SLOAD SWAP1 PUSH2 0x100 EXP SWAP1 DIV PUSH20 0xFFFFFFFFFFFFFFFFFFFFFFFFFFFFFFFFFFFFFFFF AND PUSH20 0xFFFFFFFFFFFFFFFFFFFFFFFFFFFFFFFFFFFFFFFF AND EQ ISZERO SWAP1 POP SWAP2 SWAP1 POP JUMP JUMPDEST PUSH1 0x0 PUSH2 0x10E SLOAD SWAP1 POP SWAP1 JUMP JUMPDEST PUSH1 0x0 PUSH2 0x113 SLOAD SWAP1 POP SWAP1 JUMP JUMPDEST PUSH1 0x0 PUSH2 0x11FA PUSH2 0x4039 JUMP JUMPDEST DUP2 PUSH2 0x108 DUP2 SWAP1 SSTORE POP PUSH1 0x1 SWAP1 POP SWAP2 SWAP1 POP JUMP JUMPDEST PUSH2 0x1213 PUSH2 0x4039 JUMP JUMPDEST DUP2 PUSH20 0xFFFFFFFFFFFFFFFFFFFFFFFFFFFFFFFFFFFFFFFF AND PUSH2 0x8FC DUP3 SWAP1 DUP2 ISZERO MUL SWAP1 PUSH1 0x40 MLOAD PUSH1 0x0 PUSH1 0x40 MLOAD DUP1 DUP4 SUB DUP2 DUP6 DUP9 DUP9 CALL SWAP4 POP POP POP POP ISZERO DUP1 ISZERO PUSH2 0x1259 JUMPI RETURNDATASIZE PUSH1 0x0 DUP1 RETURNDATACOPY RETURNDATASIZE PUSH1 0x0 REVERT JUMPDEST POP POP POP JUMP JUMPDEST PUSH1 0x0 DUP1 PUSH2 0x1269 PUSH2 0x39A4 JUMP JUMPDEST SWAP1 POP PUSH1 0x0 PUSH2 0x106 SLOAD DUP3 PUSH2 0x127C SWAP2 SWAP1 PUSH2 0x70F0 JUMP JUMPDEST SWAP1 POP DUP1 PUSH1 0xFC SLOAD PUSH1 0xA PUSH2 0x128E SWAP2 SWAP1 PUSH2 0x7254 JUMP JUMPDEST PUSH1 0xFC SLOAD PUSH1 0xA PUSH2 0x129D SWAP2 SWAP1 PUSH2 0x7254 JUMP JUMPDEST PUSH1 0x1 PUSH2 0x12A9 SWAP2 SWAP1 PUSH2 0x729F JUMP JUMPDEST PUSH2 0x12B3 SWAP2 SWAP1 PUSH2 0x729F JUMP JUMPDEST PUSH2 0x12BD SWAP2 SWAP1 PUSH2 0x70F0 JUMP JUMPDEST SWAP3 POP POP POP SWAP1 JUMP JUMPDEST PUSH1 0x0 PUSH2 0x110 PUSH1 0x0 SWAP1 SLOAD SWAP1 PUSH2 0x100 EXP SWAP1 DIV PUSH20 0xFFFFFFFFFFFFFFFFFFFFFFFFFFFFFFFFFFFFFFFF AND SWAP1 POP SWAP1 JUMP JUMPDEST PUSH1 0x0 PUSH1 0xFC SLOAD SWAP1 POP SWAP1 JUMP JUMPDEST PUSH1 0x0 PUSH2 0x100 PUSH1 0x0 SWAP1 SLOAD SWAP1 PUSH2 0x100 EXP SWAP1 DIV PUSH20 0xFFFFFFFFFFFFFFFFFFFFFFFFFFFFFFFFFFFFFFFF AND SWAP1 POP SWAP1 JUMP JUMPDEST PUSH1 0x0 PUSH2 0x10A SLOAD SWAP1 POP SWAP1 JUMP JUMPDEST PUSH1 0x0 PUSH2 0x109 SLOAD SWAP1 POP SWAP1 JUMP JUMPDEST PUSH2 0x1342 PUSH2 0x4039 JUMP JUMPDEST PUSH2 0x134A PUSH2 0x40B7 JUMP JUMPDEST JUMP JUMPDEST PUSH1 0x0 PUSH2 0x114 SLOAD SWAP1 POP SWAP1 JUMP JUMPDEST PUSH2 0x135F PUSH2 0x4039 JUMP JUMPDEST DUP2 PUSH20 0xFFFFFFFFFFFFFFFFFFFFFFFFFFFFFFFFFFFFFFFF AND PUSH4 0xA9059CBB CALLER DUP4 PUSH1 0x40 MLOAD DUP4 PUSH4 0xFFFFFFFF AND PUSH1 0xE0 SHL DUP2 MSTORE PUSH1 0x4 ADD PUSH2 0x139A SWAP3 SWAP2 SWAP1 PUSH2 0x72E1 JUMP JUMPDEST PUSH1 0x20 PUSH1 0x40 MLOAD DUP1 DUP4 SUB DUP2 PUSH1 0x0 DUP8 GAS CALL ISZERO DUP1 ISZERO PUSH2 0x13B9 JUMPI RETURNDATASIZE PUSH1 0x0 DUP1 RETURNDATACOPY RETURNDATASIZE PUSH1 0x0 REVERT JUMPDEST POP POP POP POP PUSH1 0x40 MLOAD RETURNDATASIZE PUSH1 0x1F NOT PUSH1 0x1F DUP3 ADD AND DUP3 ADD DUP1 PUSH1 0x40 MSTORE POP DUP2 ADD SWAP1 PUSH2 0x13DD SWAP2 SWAP1 PUSH2 0x731F JUMP JUMPDEST POP POP POP JUMP JUMPDEST PUSH32 0x0 PUSH20 0xFFFFFFFFFFFFFFFFFFFFFFFFFFFFFFFFFFFFFFFF AND ADDRESS PUSH20 0xFFFFFFFFFFFFFFFFFFFFFFFFFFFFFFFFFFFFFFFF AND SUB PUSH2 0x1470 JUMPI PUSH1 0x40 MLOAD PUSH32 0x8C379A000000000000000000000000000000000000000000000000000000000 DUP2 MSTORE PUSH1 0x4 ADD PUSH2 0x1467 SWAP1 PUSH2 0x73BE JUMP JUMPDEST PUSH1 0x40 MLOAD DUP1 SWAP2 SUB SWAP1 REVERT JUMPDEST PUSH32 0x0 PUSH20 0xFFFFFFFFFFFFFFFFFFFFFFFFFFFFFFFFFFFFFFFF AND PUSH2 0x14AF PUSH2 0x411A JUMP JUMPDEST PUSH20 0xFFFFFFFFFFFFFFFFFFFFFFFFFFFFFFFFFFFFFFFF AND EQ PUSH2 0x1505 JUMPI PUSH1 0x40 MLOAD PUSH32 0x8C379A000000000000000000000000000000000000000000000000000000000 DUP2 MSTORE PUSH1 0x4 ADD PUSH2 0x14FC SWAP1 PUSH2 0x7450 JUMP JUMPDEST PUSH1 0x40 MLOAD DUP1 SWAP2 SUB SWAP1 REVERT JUMPDEST PUSH2 0x150E DUP2 PUSH2 0x4171 JUMP JUMPDEST PUSH2 0x1567 DUP2 PUSH1 0x0 PUSH8 0xFFFFFFFFFFFFFFFF DUP2 GT ISZERO PUSH2 0x152D JUMPI PUSH2 0x152C PUSH2 0x6B64 JUMP JUMPDEST JUMPDEST PUSH1 0x40 MLOAD SWAP1 DUP1 DUP3 MSTORE DUP1 PUSH1 0x1F ADD PUSH1 0x1F NOT AND PUSH1 0x20 ADD DUP3 ADD PUSH1 0x40 MSTORE DUP1 ISZERO PUSH2 0x155F JUMPI DUP2 PUSH1 0x20 ADD PUSH1 0x1 DUP3 MUL DUP1 CALLDATASIZE DUP4 CALLDATACOPY DUP1 DUP3 ADD SWAP2 POP POP SWAP1 POP JUMPDEST POP PUSH1 0x0 PUSH2 0x417C JUMP JUMPDEST POP JUMP JUMPDEST PUSH1 0x0 PUSH2 0x1574 PUSH2 0x4039 JUMP JUMPDEST PUSH1 0x0 JUMPDEST DUP6 DUP6 SWAP1 POP DUP2 LT ISZERO PUSH2 0x1BD1 JUMPI PUSH1 0x0 PUSH20 0xFFFFFFFFFFFFFFFFFFFFFFFFFFFFFFFFFFFFFFFF AND DUP7 DUP7 DUP4 DUP2 DUP2 LT PUSH2 0x15AD JUMPI PUSH2 0x15AC PUSH2 0x7470 JUMP JUMPDEST JUMPDEST SWAP1 POP PUSH1 0x20 MUL ADD PUSH1 0x20 DUP2 ADD SWAP1 PUSH2 0x15C2 SWAP2 SWAP1 PUSH2 0x7065 JUMP JUMPDEST PUSH20 0xFFFFFFFFFFFFFFFFFFFFFFFFFFFFFFFFFFFFFFFF AND SUB PUSH2 0x16A3 JUMPI PUSH1 0x40 MLOAD PUSH2 0x15E9 SWAP1 PUSH2 0x74F6 JUMP JUMPDEST PUSH1 0x40 MLOAD DUP1 SWAP2 SUB SWAP1 KECCAK256 DUP7 DUP7 DUP4 DUP2 DUP2 LT PUSH2 0x1604 JUMPI PUSH2 0x1603 PUSH2 0x7470 JUMP JUMPDEST JUMPDEST SWAP1 POP PUSH1 0x20 MUL ADD PUSH1 0x20 DUP2 ADD SWAP1 PUSH2 0x1619 SWAP2 SWAP1 PUSH2 0x7065 JUMP JUMPDEST PUSH20 0xFFFFFFFFFFFFFFFFFFFFFFFFFFFFFFFFFFFFFFFF AND DUP6 DUP6 DUP5 DUP2 DUP2 LT PUSH2 0x1642 JUMPI PUSH2 0x1641 PUSH2 0x7470 JUMP JUMPDEST JUMPDEST SWAP1 POP PUSH1 0x20 MUL ADD PUSH1 0x20 DUP2 ADD SWAP1 PUSH2 0x1657 SWAP2 SWAP1 PUSH2 0x6542 JUMP JUMPDEST PUSH20 0xFFFFFFFFFFFFFFFFFFFFFFFFFFFFFFFFFFFFFFFF AND PUSH32 0x63A04625EE50186097257E079ACE9A312982F1976BDFFA769DB82A83C2FFC006 PUSH1 0x40 MLOAD PUSH1 0x40 MLOAD DUP1 SWAP2 SUB SWAP1 LOG4 PUSH1 0x0 SWAP2 POP POP PUSH2 0x1BD7 JUMP JUMPDEST PUSH2 0x16FB DUP7 DUP7 DUP4 DUP2 DUP2 LT PUSH2 0x16B9 JUMPI PUSH2 0x16B8 PUSH2 0x7470 JUMP JUMPDEST JUMPDEST SWAP1 POP PUSH1 0x20 MUL ADD PUSH1 0x20 DUP2 ADD SWAP1 PUSH2 0x16CE SWAP2 SWAP1 PUSH2 0x7065 JUMP JUMPDEST DUP6 DUP6 DUP5 DUP2 DUP2 LT PUSH2 0x16E1 JUMPI PUSH2 0x16E0 PUSH2 0x7470 JUMP JUMPDEST JUMPDEST SWAP1 POP PUSH1 0x20 MUL ADD PUSH1 0x20 DUP2 ADD SWAP1 PUSH2 0x16F6 SWAP2 SWAP1 PUSH2 0x6542 JUMP JUMPDEST PUSH2 0x42EA JUMP JUMPDEST ISZERO PUSH2 0x17C6 JUMPI PUSH1 0x40 MLOAD PUSH2 0x170C SWAP1 PUSH2 0x757D JUMP JUMPDEST PUSH1 0x40 MLOAD DUP1 SWAP2 SUB SWAP1 KECCAK256 DUP7 DUP7 DUP4 DUP2 DUP2 LT PUSH2 0x1727 JUMPI PUSH2 0x1726 PUSH2 0x7470 JUMP JUMPDEST JUMPDEST SWAP1 POP PUSH1 0x20 MUL ADD PUSH1 0x20 DUP2 ADD SWAP1 PUSH2 0x173C SWAP2 SWAP1 PUSH2 0x7065 JUMP JUMPDEST PUSH20 0xFFFFFFFFFFFFFFFFFFFFFFFFFFFFFFFFFFFFFFFF AND DUP6 DUP6 DUP5 DUP2 DUP2 LT PUSH2 0x1765 JUMPI PUSH2 0x1764 PUSH2 0x7470 JUMP JUMPDEST JUMPDEST SWAP1 POP PUSH1 0x20 MUL ADD PUSH1 0x20 DUP2 ADD SWAP1 PUSH2 0x177A SWAP2 SWAP1 PUSH2 0x6542 JUMP JUMPDEST PUSH20 0xFFFFFFFFFFFFFFFFFFFFFFFFFFFFFFFFFFFFFFFF AND PUSH32 0x63A04625EE50186097257E079ACE9A312982F1976BDFFA769DB82A83C2FFC006 PUSH1 0x40 MLOAD PUSH1 0x40 MLOAD DUP1 SWAP2 SUB SWAP1 LOG4 PUSH1 0x0 SWAP2 POP POP PUSH2 0x1BD7 JUMP JUMPDEST PUSH1 0x0 PUSH20 0xFFFFFFFFFFFFFFFFFFFFFFFFFFFFFFFFFFFFFFFF AND PUSH2 0x111 PUSH1 0x0 DUP7 DUP7 DUP6 DUP2 DUP2 LT PUSH2 0x17F6 JUMPI PUSH2 0x17F5 PUSH2 0x7470 JUMP JUMPDEST JUMPDEST SWAP1 POP PUSH1 0x20 MUL ADD PUSH1 0x20 DUP2 ADD SWAP1 PUSH2 0x180B SWAP2 SWAP1 PUSH2 0x6542 JUMP JUMPDEST PUSH20 0xFFFFFFFFFFFFFFFFFFFFFFFFFFFFFFFFFFFFFFFF AND PUSH20 0xFFFFFFFFFFFFFFFFFFFFFFFFFFFFFFFFFFFFFFFF AND DUP2 MSTORE PUSH1 0x20 ADD SWAP1 DUP2 MSTORE PUSH1 0x20 ADD PUSH1 0x0 KECCAK256 PUSH1 0x0 ADD PUSH1 0x0 SWAP1 SLOAD SWAP1 PUSH2 0x100 EXP SWAP1 DIV PUSH20 0xFFFFFFFFFFFFFFFFFFFFFFFFFFFFFFFFFFFFFFFF AND PUSH20 0xFFFFFFFFFFFFFFFFFFFFFFFFFFFFFFFFFFFFFFFF AND EQ PUSH2 0x194A JUMPI PUSH1 0x40 MLOAD PUSH2 0x1890 SWAP1 PUSH2 0x7604 JUMP JUMPDEST PUSH1 0x40 MLOAD DUP1 SWAP2 SUB SWAP1 KECCAK256 DUP7 DUP7 DUP4 DUP2 DUP2 LT PUSH2 0x18AB JUMPI PUSH2 0x18AA PUSH2 0x7470 JUMP JUMPDEST JUMPDEST SWAP1 POP PUSH1 0x20 MUL ADD PUSH1 0x20 DUP2 ADD SWAP1 PUSH2 0x18C0 SWAP2 SWAP1 PUSH2 0x7065 JUMP JUMPDEST PUSH20 0xFFFFFFFFFFFFFFFFFFFFFFFFFFFFFFFFFFFFFFFF AND DUP6 DUP6 DUP5 DUP2 DUP2 LT PUSH2 0x18E9 JUMPI PUSH2 0x18E8 PUSH2 0x7470 JUMP JUMPDEST JUMPDEST SWAP1 POP PUSH1 0x20 MUL ADD PUSH1 0x20 DUP2 ADD SWAP1 PUSH2 0x18FE SWAP2 SWAP1 PUSH2 0x6542 JUMP JUMPDEST PUSH20 0xFFFFFFFFFFFFFFFFFFFFFFFFFFFFFFFFFFFFFFFF AND PUSH32 0x63A04625EE50186097257E079ACE9A312982F1976BDFFA769DB82A83C2FFC006 PUSH1 0x40 MLOAD PUSH1 0x40 MLOAD DUP1 SWAP2 SUB SWAP1 LOG4 PUSH1 0x0 SWAP2 POP POP PUSH2 0x1BD7 JUMP JUMPDEST PUSH1 0x0 PUSH2 0x111 PUSH1 0x0 DUP7 DUP7 DUP6 DUP2 DUP2 LT PUSH2 0x1964 JUMPI PUSH2 0x1963 PUSH2 0x7470 JUMP JUMPDEST JUMPDEST SWAP1 POP PUSH1 0x20 MUL ADD PUSH1 0x20 DUP2 ADD SWAP1 PUSH2 0x1979 SWAP2 SWAP1 PUSH2 0x6542 JUMP JUMPDEST PUSH20 0xFFFFFFFFFFFFFFFFFFFFFFFFFFFFFFFFFFFFFFFF AND PUSH20 0xFFFFFFFFFFFFFFFFFFFFFFFFFFFFFFFFFFFFFFFF AND DUP2 MSTORE PUSH1 0x20 ADD SWAP1 DUP2 MSTORE PUSH1 0x20 ADD PUSH1 0x0 KECCAK256 SWAP1 POP PUSH1 0x0 PUSH2 0x111 PUSH1 0x0 DUP10 DUP10 DUP7 DUP2 DUP2 LT PUSH2 0x19CF JUMPI PUSH2 0x19CE PUSH2 0x7470 JUMP JUMPDEST JUMPDEST SWAP1 POP PUSH1 0x20 MUL ADD PUSH1 0x20 DUP2 ADD SWAP1 PUSH2 0x19E4 SWAP2 SWAP1 PUSH2 0x7065 JUMP JUMPDEST PUSH20 0xFFFFFFFFFFFFFFFFFFFFFFFFFFFFFFFFFFFFFFFF AND PUSH20 0xFFFFFFFFFFFFFFFFFFFFFFFFFFFFFFFFFFFFFFFF AND DUP2 MSTORE PUSH1 0x20 ADD SWAP1 DUP2 MSTORE PUSH1 0x20 ADD PUSH1 0x0 KECCAK256 SWAP1 POP DUP8 DUP8 DUP5 DUP2 DUP2 LT PUSH2 0x1A33 JUMPI PUSH2 0x1A32 PUSH2 0x7470 JUMP JUMPDEST JUMPDEST SWAP1 POP PUSH1 0x20 MUL ADD PUSH1 0x20 DUP2 ADD SWAP1 PUSH2 0x1A48 SWAP2 SWAP1 PUSH2 0x7065 JUMP JUMPDEST DUP3 PUSH1 0x0 ADD PUSH1 0x0 PUSH2 0x100 EXP DUP2 SLOAD DUP2 PUSH20 0xFFFFFFFFFFFFFFFFFFFFFFFFFFFFFFFFFFFFFFFF MUL NOT AND SWAP1 DUP4 PUSH20 0xFFFFFFFFFFFFFFFFFFFFFFFFFFFFFFFFFFFFFFFF AND MUL OR SWAP1 SSTORE POP DUP1 PUSH1 0x3 ADD DUP7 DUP7 DUP6 DUP2 DUP2 LT PUSH2 0x1AA1 JUMPI PUSH2 0x1AA0 PUSH2 0x7470 JUMP JUMPDEST JUMPDEST SWAP1 POP PUSH1 0x20 MUL ADD PUSH1 0x20 DUP2 ADD SWAP1 PUSH2 0x1AB6 SWAP2 SWAP1 PUSH2 0x6542 JUMP JUMPDEST SWAP1 DUP1 PUSH1 0x1 DUP2 SLOAD ADD DUP1 DUP3 SSTORE DUP1 SWAP2 POP POP PUSH1 0x1 SWAP1 SUB SWAP1 PUSH1 0x0 MSTORE PUSH1 0x20 PUSH1 0x0 KECCAK256 ADD PUSH1 0x0 SWAP1 SWAP2 SWAP1 SWAP2 SWAP1 SWAP2 PUSH2 0x100 EXP DUP2 SLOAD DUP2 PUSH20 0xFFFFFFFFFFFFFFFFFFFFFFFFFFFFFFFFFFFFFFFF MUL NOT AND SWAP1 DUP4 PUSH20 0xFFFFFFFFFFFFFFFFFFFFFFFFFFFFFFFFFFFFFFFF AND MUL OR SWAP1 SSTORE POP DUP8 DUP8 DUP5 DUP2 DUP2 LT PUSH2 0x1B29 JUMPI PUSH2 0x1B28 PUSH2 0x7470 JUMP JUMPDEST JUMPDEST SWAP1 POP PUSH1 0x20 MUL ADD PUSH1 0x20 DUP2 ADD SWAP1 PUSH2 0x1B3E SWAP2 SWAP1 PUSH2 0x7065 JUMP JUMPDEST PUSH20 0xFFFFFFFFFFFFFFFFFFFFFFFFFFFFFFFFFFFFFFFF AND DUP7 DUP7 DUP6 DUP2 DUP2 LT PUSH2 0x1B67 JUMPI PUSH2 0x1B66 PUSH2 0x7470 JUMP JUMPDEST JUMPDEST SWAP1 POP PUSH1 0x20 MUL ADD PUSH1 0x20 DUP2 ADD SWAP1 PUSH2 0x1B7C SWAP2 SWAP1 PUSH2 0x6542 JUMP JUMPDEST PUSH20 0xFFFFFFFFFFFFFFFFFFFFFFFFFFFFFFFFFFFFFFFF AND PUSH32 0xFAF63637882FF2D63CA76881CF92FB857130E36F350C926F9CC884B499B42B77 PUSH1 0x40 MLOAD PUSH1 0x40 MLOAD DUP1 SWAP2 SUB SWAP1 LOG3 POP POP DUP1 PUSH2 0x1BCA SWAP1 PUSH2 0x7619 JUMP JUMPDEST SWAP1 POP PUSH2 0x1577 JUMP JUMPDEST POP PUSH1 0x1 SWAP1 POP JUMPDEST SWAP5 SWAP4 POP POP POP POP JUMP JUMPDEST PUSH2 0x1BE7 PUSH2 0x6315 JUMP JUMPDEST PUSH2 0x111 PUSH1 0x0 DUP4 PUSH20 0xFFFFFFFFFFFFFFFFFFFFFFFFFFFFFFFFFFFFFFFF AND PUSH20 0xFFFFFFFFFFFFFFFFFFFFFFFFFFFFFFFFFFFFFFFF AND DUP2 MSTORE PUSH1 0x20 ADD SWAP1 DUP2 MSTORE PUSH1 0x20 ADD PUSH1 0x0 KECCAK256 PUSH1 0x40 MLOAD DUP1 PUSH2 0x1A0 ADD PUSH1 0x40 MSTORE SWAP1 DUP2 PUSH1 0x0 DUP3 ADD PUSH1 0x0 SWAP1 SLOAD SWAP1 PUSH2 0x100 EXP SWAP1 DIV PUSH20 0xFFFFFFFFFFFFFFFFFFFFFFFFFFFFFFFFFFFFFFFF AND PUSH20 0xFFFFFFFFFFFFFFFFFFFFFFFFFFFFFFFFFFFFFFFF AND PUSH20 0xFFFFFFFFFFFFFFFFFFFFFFFFFFFFFFFFFFFFFFFF AND DUP2 MSTORE PUSH1 0x20 ADD PUSH1 0x1 DUP3 ADD PUSH1 0x0 SWAP1 SLOAD SWAP1 PUSH2 0x100 EXP SWAP1 DIV PUSH20 0xFFFFFFFFFFFFFFFFFFFFFFFFFFFFFFFFFFFFFFFF AND PUSH20 0xFFFFFFFFFFFFFFFFFFFFFFFFFFFFFFFFFFFFFFFF AND PUSH20 0xFFFFFFFFFFFFFFFFFFFFFFFFFFFFFFFFFFFFFFFF AND DUP2 MSTORE PUSH1 0x20 ADD PUSH1 0x2 DUP3 ADD SLOAD DUP2 MSTORE PUSH1 0x20 ADD PUSH1 0x3 DUP3 ADD DUP1 SLOAD DUP1 PUSH1 0x20 MUL PUSH1 0x20 ADD PUSH1 0x40 MLOAD SWAP1 DUP2 ADD PUSH1 0x40 MSTORE DUP1 SWAP3 SWAP2 SWAP1 DUP2 DUP2 MSTORE PUSH1 0x20 ADD DUP3 DUP1 SLOAD DUP1 ISZERO PUSH2 0x1D6E JUMPI PUSH1 0x20 MUL DUP3 ADD SWAP2 SWAP1 PUSH1 0x0 MSTORE PUSH1 0x20 PUSH1 0x0 KECCAK256 SWAP1 JUMPDEST DUP2 PUSH1 0x0 SWAP1 SLOAD SWAP1 PUSH2 0x100 EXP SWAP1 DIV PUSH20 0xFFFFFFFFFFFFFFFFFFFFFFFFFFFFFFFFFFFFFFFF AND PUSH20 0xFFFFFFFFFFFFFFFFFFFFFFFFFFFFFFFFFFFFFFFF AND DUP2 MSTORE PUSH1 0x20 ADD SWAP1 PUSH1 0x1 ADD SWAP1 DUP1 DUP4 GT PUSH2 0x1D24 JUMPI JUMPDEST POP POP POP POP POP DUP2 MSTORE PUSH1 0x20 ADD PUSH1 0x4 DUP3 ADD SLOAD DUP2 MSTORE PUSH1 0x20 ADD PUSH1 0x5 DUP3 ADD SLOAD DUP2 MSTORE PUSH1 0x20 ADD PUSH1 0x6 DUP3 ADD SLOAD DUP2 MSTORE PUSH1 0x20 ADD PUSH1 0x7 DUP3 ADD SLOAD DUP2 MSTORE PUSH1 0x20 ADD PUSH1 0x8 DUP3 ADD SLOAD DUP2 MSTORE PUSH1 0x20 ADD PUSH1 0x9 DUP3 ADD DUP1 SLOAD DUP1 PUSH1 0x20 MUL PUSH1 0x20 ADD PUSH1 0x40 MLOAD SWAP1 DUP2 ADD PUSH1 0x40 MSTORE DUP1 SWAP3 SWAP2 SWAP1 DUP2 DUP2 MSTORE PUSH1 0x20 ADD DUP3 DUP1 SLOAD DUP1 ISZERO PUSH2 0x1DF8 JUMPI PUSH1 0x20 MUL DUP3 ADD SWAP2 SWAP1 PUSH1 0x0 MSTORE PUSH1 0x20 PUSH1 0x0 KECCAK256 SWAP1 JUMPDEST DUP2 SLOAD DUP2 MSTORE PUSH1 0x20 ADD SWAP1 PUSH1 0x1 ADD SWAP1 DUP1 DUP4 GT PUSH2 0x1DE4 JUMPI JUMPDEST POP POP POP POP POP DUP2 MSTORE PUSH1 0x20 ADD PUSH1 0xA DUP3 ADD DUP1 SLOAD DUP1 PUSH1 0x20 MUL PUSH1 0x20 ADD PUSH1 0x40 MLOAD SWAP1 DUP2 ADD PUSH1 0x40 MSTORE DUP1 SWAP3 SWAP2 SWAP1 DUP2 DUP2 MSTORE PUSH1 0x20 ADD DUP3 DUP1 SLOAD DUP1 ISZERO PUSH2 0x1E50 JUMPI PUSH1 0x20 MUL DUP3 ADD SWAP2 SWAP1 PUSH1 0x0 MSTORE PUSH1 0x20 PUSH1 0x0 KECCAK256 SWAP1 JUMPDEST DUP2 SLOAD DUP2 MSTORE PUSH1 0x20 ADD SWAP1 PUSH1 0x1 ADD SWAP1 DUP1 DUP4 GT PUSH2 0x1E3C JUMPI JUMPDEST POP POP POP POP POP DUP2 MSTORE PUSH1 0x20 ADD PUSH1 0xB DUP3 ADD DUP1 SLOAD DUP1 PUSH1 0x20 MUL PUSH1 0x20 ADD PUSH1 0x40 MLOAD SWAP1 DUP2 ADD PUSH1 0x40 MSTORE DUP1 SWAP3 SWAP2 SWAP1 DUP2 DUP2 MSTORE PUSH1 0x20 ADD DUP3 DUP1 SLOAD DUP1 ISZERO PUSH2 0x1EA8 JUMPI PUSH1 0x20 MUL DUP3 ADD SWAP2 SWAP1 PUSH1 0x0 MSTORE PUSH1 0x20 PUSH1 0x0 KECCAK256 SWAP1 JUMPDEST DUP2 SLOAD DUP2 MSTORE PUSH1 0x20 ADD SWAP1 PUSH1 0x1 ADD SWAP1 DUP1 DUP4 GT PUSH2 0x1E94 JUMPI JUMPDEST POP POP POP POP POP DUP2 MSTORE PUSH1 0x20 ADD PUSH1 0xC DUP3 ADD DUP1 SLOAD DUP1 PUSH1 0x20 MUL PUSH1 0x20 ADD PUSH1 0x40 MLOAD SWAP1 DUP2 ADD PUSH1 0x40 MSTORE DUP1 SWAP3 SWAP2 SWAP1 DUP2 DUP2 MSTORE PUSH1 0x20 ADD DUP3 DUP1 SLOAD DUP1 ISZERO PUSH2 0x1F00 JUMPI PUSH1 0x20 MUL DUP3 ADD SWAP2 SWAP1 PUSH1 0x0 MSTORE PUSH1 0x20 PUSH1 0x0 KECCAK256 SWAP1 JUMPDEST DUP2 SLOAD DUP2 MSTORE PUSH1 0x20 ADD SWAP1 PUSH1 0x1 ADD SWAP1 DUP1 DUP4 GT PUSH2 0x1EEC JUMPI JUMPDEST POP POP POP POP POP DUP2 MSTORE POP POP SWAP1 POP SWAP2 SWAP1 POP JUMP JUMPDEST PUSH1 0x0 PUSH1 0x3 PUSH2 0x1F1D CALLER PUSH2 0x4434 JUMP JUMPDEST LT ISZERO PUSH2 0x1F5E JUMPI PUSH1 0x40 MLOAD PUSH32 0x8C379A000000000000000000000000000000000000000000000000000000000 DUP2 MSTORE PUSH1 0x4 ADD PUSH2 0x1F55 SWAP1 PUSH2 0x76D3 JUMP JUMPDEST PUSH1 0x40 MLOAD DUP1 SWAP2 SUB SWAP1 REVERT JUMPDEST PUSH1 0x0 PUSH2 0x111 PUSH1 0x0 CALLER PUSH20 0xFFFFFFFFFFFFFFFFFFFFFFFFFFFFFFFFFFFFFFFF AND PUSH20 0xFFFFFFFFFFFFFFFFFFFFFFFFFFFFFFFFFFFFFFFF AND DUP2 MSTORE PUSH1 0x20 ADD SWAP1 DUP2 MSTORE PUSH1 0x20 ADD PUSH1 0x0 KECCAK256 SWAP1 POP PUSH1 0x0 DUP2 PUSH1 0x7 ADD SLOAD SWAP1 POP PUSH1 0x0 DUP3 PUSH1 0x8 ADD SLOAD SWAP1 POP CALLER PUSH20 0xFFFFFFFFFFFFFFFFFFFFFFFFFFFFFFFFFFFFFFFF AND PUSH2 0x8FC DUP4 SWAP1 DUP2 ISZERO MUL SWAP1 PUSH1 0x40 MLOAD PUSH1 0x0 PUSH1 0x40 MLOAD DUP1 DUP4 SUB DUP2 DUP6 DUP9 DUP9 CALL SWAP4 POP POP POP POP ISZERO DUP1 ISZERO PUSH2 0x1FFA JUMPI RETURNDATASIZE PUSH1 0x0 DUP1 RETURNDATACOPY RETURNDATASIZE PUSH1 0x0 REVERT JUMPDEST POP PUSH2 0x102 PUSH1 0x0 SWAP1 SLOAD SWAP1 PUSH2 0x100 EXP SWAP1 DIV PUSH20 0xFFFFFFFFFFFFFFFFFFFFFFFFFFFFFFFFFFFFFFFF AND PUSH20 0xFFFFFFFFFFFFFFFFFFFFFFFFFFFFFFFFFFFFFFFF AND PUSH4 0xA9059CBB CALLER DUP4 PUSH1 0x40 MLOAD DUP4 PUSH4 0xFFFFFFFF AND PUSH1 0xE0 SHL DUP2 MSTORE PUSH1 0x4 ADD PUSH2 0x2059 SWAP3 SWAP2 SWAP1 PUSH2 0x72E1 JUMP JUMPDEST PUSH1 0x20 PUSH1 0x40 MLOAD DUP1 DUP4 SUB DUP2 PUSH1 0x0 DUP8 GAS CALL ISZERO DUP1 ISZERO PUSH2 0x2078 JUMPI RETURNDATASIZE PUSH1 0x0 DUP1 RETURNDATACOPY RETURNDATASIZE PUSH1 0x0 REVERT JUMPDEST POP POP POP POP PUSH1 0x40 MLOAD RETURNDATASIZE PUSH1 0x1F NOT PUSH1 0x1F DUP3 ADD AND DUP3 ADD DUP1 PUSH1 0x40 MSTORE POP DUP2 ADD SWAP1 PUSH2 0x209C SWAP2 SWAP1 PUSH2 0x731F JUMP JUMPDEST POP PUSH1 0x0 DUP4 PUSH1 0x7 ADD DUP2 SWAP1 SSTORE POP PUSH1 0x0 DUP4 PUSH1 0x8 ADD DUP2 SWAP1 SSTORE POP DUP3 PUSH1 0x9 ADD DUP3 SWAP1 DUP1 PUSH1 0x1 DUP2 SLOAD ADD DUP1 DUP3 SSTORE DUP1 SWAP2 POP POP PUSH1 0x1 SWAP1 SUB SWAP1 PUSH1 0x0 MSTORE PUSH1 0x20 PUSH1 0x0 KECCAK256 ADD PUSH1 0x0 SWAP1 SWAP2 SWAP1 SWAP2 SWAP1 SWAP2 POP SSTORE DUP3 PUSH1 0xA ADD DUP2 SWAP1 DUP1 PUSH1 0x1 DUP2 SLOAD ADD DUP1 DUP3 SSTORE DUP1 SWAP2 POP POP PUSH1 0x1 SWAP1 SUB SWAP1 PUSH1 0x0 MSTORE PUSH1 0x20 PUSH1 0x0 KECCAK256 ADD PUSH1 0x0 SWAP1 SWAP2 SWAP1 SWAP2 SWAP1 SWAP2 POP SSTORE DUP3 PUSH1 0xB ADD PUSH2 0x2113 PUSH2 0x4484 JUMP JUMPDEST SWAP1 DUP1 PUSH1 0x1 DUP2 SLOAD ADD DUP1 DUP3 SSTORE DUP1 SWAP2 POP POP PUSH1 0x1 SWAP1 SUB SWAP1 PUSH1 0x0 MSTORE PUSH1 0x20 PUSH1 0x0 KECCAK256 ADD PUSH1 0x0 SWAP1 SWAP2 SWAP1 SWAP2 SWAP1 SWAP2 POP SSTORE DUP3 PUSH1 0xC ADD PUSH2 0x2145 PUSH2 0x4484 JUMP JUMPDEST SWAP1 DUP1 PUSH1 0x1 DUP2 SLOAD ADD DUP1 DUP3 SSTORE DUP1 SWAP2 POP POP PUSH1 0x1 SWAP1 SUB SWAP1 PUSH1 0x0 MSTORE PUSH1 0x20 PUSH1 0x0 KECCAK256 ADD PUSH1 0x0 SWAP1 SWAP2 SWAP1 SWAP2 SWAP1 SWAP2 POP SSTORE DUP2 PUSH2 0x112 PUSH1 0x0 DUP3 DUP3 SLOAD PUSH2 0x217E SWAP2 SWAP1 PUSH2 0x76F3 JUMP JUMPDEST SWAP3 POP POP DUP2 SWAP1 SSTORE POP DUP1 PUSH2 0x113 PUSH1 0x0 DUP3 DUP3 SLOAD PUSH2 0x2198 SWAP2 SWAP1 PUSH2 0x76F3 JUMP JUMPDEST SWAP3 POP POP DUP2 SWAP1 SSTORE POP DUP2 PUSH2 0x114 PUSH1 0x0 DUP3 DUP3 SLOAD PUSH2 0x21B2 SWAP2 SWAP1 PUSH2 0x7727 JUMP JUMPDEST SWAP3 POP POP DUP2 SWAP1 SSTORE POP DUP1 PUSH2 0x115 PUSH1 0x0 DUP3 DUP3 SLOAD PUSH2 0x21CC SWAP2 SWAP1 PUSH2 0x7727 JUMP JUMPDEST SWAP3 POP POP DUP2 SWAP1 SSTORE POP DUP1 DUP3 CALLER PUSH20 0xFFFFFFFFFFFFFFFFFFFFFFFFFFFFFFFFFFFFFFFF AND PUSH32 0xF198724B6AAC1F79C4DA584B6CFDDAE930CA71F26EEB27046FC8BD11BF56F6D8 PUSH1 0x40 MLOAD PUSH1 0x40 MLOAD DUP1 SWAP2 SUB SWAP1 LOG4 PUSH1 0x1 SWAP4 POP POP POP POP SWAP1 JUMP JUMPDEST PUSH1 0x0 PUSH2 0x222C PUSH2 0x4039 JUMP JUMPDEST PUSH2 0x3F2 DUP9 EQ PUSH2 0x227E JUMPI DUP8 PUSH2 0x111 PUSH1 0x0 DUP12 PUSH20 0xFFFFFFFFFFFFFFFFFFFFFFFFFFFFFFFFFFFFFFFF AND PUSH20 0xFFFFFFFFFFFFFFFFFFFFFFFFFFFFFFFFFFFFFFFF AND DUP2 MSTORE PUSH1 0x20 ADD SWAP1 DUP2 MSTORE PUSH1 0x20 ADD PUSH1 0x0 KECCAK256 PUSH1 0x5 ADD DUP2 SWAP1 SSTORE POP JUMPDEST PUSH2 0x3F2 DUP8 EQ PUSH2 0x22D0 JUMPI DUP7 PUSH2 0x111 PUSH1 0x0 DUP12 PUSH20 0xFFFFFFFFFFFFFFFFFFFFFFFFFFFFFFFFFFFFFFFF AND PUSH20 0xFFFFFFFFFFFFFFFFFFFFFFFFFFFFFFFFFFFFFFFF AND DUP2 MSTORE PUSH1 0x20 ADD SWAP1 DUP2 MSTORE PUSH1 0x20 ADD PUSH1 0x0 KECCAK256 PUSH1 0x6 ADD DUP2 SWAP1 SSTORE POP JUMPDEST PUSH1 0x0 PUSH20 0xFFFFFFFFFFFFFFFFFFFFFFFFFFFFFFFFFFFFFFFF AND DUP7 PUSH20 0xFFFFFFFFFFFFFFFFFFFFFFFFFFFFFFFFFFFFFFFF AND EQ PUSH2 0x23A9 JUMPI PUSH2 0x111 PUSH1 0x0 DUP11 PUSH20 0xFFFFFFFFFFFFFFFFFFFFFFFFFFFFFFFFFFFFFFFF AND PUSH20 0xFFFFFFFFFFFFFFFFFFFFFFFFFFFFFFFFFFFFFFFF AND DUP2 MSTORE PUSH1 0x20 ADD SWAP1 DUP2 MSTORE PUSH1 0x20 ADD PUSH1 0x0 KECCAK256 PUSH1 0x3 ADD DUP7 SWAP1 DUP1 PUSH1 0x1 DUP2 SLOAD ADD DUP1 DUP3 SSTORE DUP1 SWAP2 POP POP PUSH1 0x1 SWAP1 SUB SWAP1 PUSH1 0x0 MSTORE PUSH1 0x20 PUSH1 0x0 KECCAK256 ADD PUSH1 0x0 SWAP1 SWAP2 SWAP1 SWAP2 SWAP1 SWAP2 PUSH2 0x100 EXP DUP2 SLOAD DUP2 PUSH20 0xFFFFFFFFFFFFFFFFFFFFFFFFFFFFFFFFFFFFFFFF MUL NOT AND SWAP1 DUP4 PUSH20 0xFFFFFFFFFFFFFFFFFFFFFFFFFFFFFFFFFFFFFFFF AND MUL OR SWAP1 SSTORE POP JUMPDEST PUSH2 0x3F2 DUP6 EQ PUSH2 0x23FB JUMPI DUP5 PUSH2 0x111 PUSH1 0x0 DUP12 PUSH20 0xFFFFFFFFFFFFFFFFFFFFFFFFFFFFFFFFFFFFFFFF AND PUSH20 0xFFFFFFFFFFFFFFFFFFFFFFFFFFFFFFFFFFFFFFFF AND DUP2 MSTORE PUSH1 0x20 ADD SWAP1 DUP2 MSTORE PUSH1 0x20 ADD PUSH1 0x0 KECCAK256 PUSH1 0x7 ADD DUP2 SWAP1 SSTORE POP JUMPDEST PUSH2 0x3F2 DUP5 EQ PUSH2 0x244D JUMPI DUP4 PUSH2 0x111 PUSH1 0x0 DUP12 PUSH20 0xFFFFFFFFFFFFFFFFFFFFFFFFFFFFFFFFFFFFFFFF AND PUSH20 0xFFFFFFFFFFFFFFFFFFFFFFFFFFFFFFFFFFFFFFFF AND DUP2 MSTORE PUSH1 0x20 ADD SWAP1 DUP2 MSTORE PUSH1 0x20 ADD PUSH1 0x0 KECCAK256 PUSH1 0x8 ADD DUP2 SWAP1 SSTORE POP JUMPDEST PUSH2 0x3F2 DUP4 EQ PUSH2 0x24C1 JUMPI PUSH2 0x111 PUSH1 0x0 DUP11 PUSH20 0xFFFFFFFFFFFFFFFFFFFFFFFFFFFFFFFFFFFFFFFF AND PUSH20 0xFFFFFFFFFFFFFFFFFFFFFFFFFFFFFFFFFFFFFFFF AND DUP2 MSTORE PUSH1 0x20 ADD SWAP1 DUP2 MSTORE PUSH1 0x20 ADD PUSH1 0x0 KECCAK256 PUSH1 0x9 ADD DUP4 SWAP1 DUP1 PUSH1 0x1 DUP2 SLOAD ADD DUP1 DUP3 SSTORE DUP1 SWAP2 POP POP PUSH1 0x1 SWAP1 SUB SWAP1 PUSH1 0x0 MSTORE PUSH1 0x20 PUSH1 0x0 KECCAK256 ADD PUSH1 0x0 SWAP1 SWAP2 SWAP1 SWAP2 SWAP1 SWAP2 POP SSTORE JUMPDEST PUSH2 0x3F2 DUP3 EQ PUSH2 0x2535 JUMPI PUSH2 0x111 PUSH1 0x0 DUP11 PUSH20 0xFFFFFFFFFFFFFFFFFFFFFFFFFFFFFFFFFFFFFFFF AND PUSH20 0xFFFFFFFFFFFFFFFFFFFFFFFFFFFFFFFFFFFFFFFF AND DUP2 MSTORE PUSH1 0x20 ADD SWAP1 DUP2 MSTORE PUSH1 0x20 ADD PUSH1 0x0 KECCAK256 PUSH1 0xA ADD DUP3 SWAP1 DUP1 PUSH1 0x1 DUP2 SLOAD ADD DUP1 DUP3 SSTORE DUP1 SWAP2 POP POP PUSH1 0x1 SWAP1 SUB SWAP1 PUSH1 0x0 MSTORE PUSH1 0x20 PUSH1 0x0 KECCAK256 ADD PUSH1 0x0 SWAP1 SWAP2 SWAP1 SWAP2 SWAP1 SWAP2 POP SSTORE JUMPDEST PUSH1 0x1 SWAP1 POP SWAP9 SWAP8 POP POP POP POP POP POP POP POP JUMP JUMPDEST PUSH1 0x0 PUSH2 0x105 SLOAD SWAP1 POP SWAP1 JUMP JUMPDEST PUSH1 0x0 PUSH2 0x107 PUSH1 0x0 SWAP1 SLOAD SWAP1 PUSH2 0x100 EXP SWAP1 DIV PUSH1 0xFF AND SWAP1 POP SWAP1 JUMP JUMPDEST PUSH32 0x0 PUSH20 0xFFFFFFFFFFFFFFFFFFFFFFFFFFFFFFFFFFFFFFFF AND ADDRESS PUSH20 0xFFFFFFFFFFFFFFFFFFFFFFFFFFFFFFFFFFFFFFFF AND SUB PUSH2 0x25F6 JUMPI PUSH1 0x40 MLOAD PUSH32 0x8C379A000000000000000000000000000000000000000000000000000000000 DUP2 MSTORE PUSH1 0x4 ADD PUSH2 0x25ED SWAP1 PUSH2 0x73BE JUMP JUMPDEST PUSH1 0x40 MLOAD DUP1 SWAP2 SUB SWAP1 REVERT JUMPDEST PUSH32 0x0 PUSH20 0xFFFFFFFFFFFFFFFFFFFFFFFFFFFFFFFFFFFFFFFF AND PUSH2 0x2635 PUSH2 0x411A JUMP JUMPDEST PUSH20 0xFFFFFFFFFFFFFFFFFFFFFFFFFFFFFFFFFFFFFFFF AND EQ PUSH2 0x268B JUMPI PUSH1 0x40 MLOAD PUSH32 0x8C379A000000000000000000000000000000000000000000000000000000000 DUP2 MSTORE PUSH1 0x4 ADD PUSH2 0x2682 SWAP1 PUSH2 0x7450 JUMP JUMPDEST PUSH1 0x40 MLOAD DUP1 SWAP2 SUB SWAP1 REVERT JUMPDEST PUSH2 0x2694 DUP3 PUSH2 0x4171 JUMP JUMPDEST PUSH2 0x26A0 DUP3 DUP3 PUSH1 0x1 PUSH2 0x417C JUMP JUMPDEST POP POP JUMP JUMPDEST PUSH2 0x26AC PUSH2 0x4039 JUMP JUMPDEST DUP1 PUSH2 0x117 DUP2 SWAP1 SSTORE POP POP JUMP JUMPDEST PUSH1 0x0 PUSH32 0x0 PUSH20 0xFFFFFFFFFFFFFFFFFFFFFFFFFFFFFFFFFFFFFFFF AND ADDRESS PUSH20 0xFFFFFFFFFFFFFFFFFFFFFFFFFFFFFFFFFFFFFFFF AND EQ PUSH2 0x2747 JUMPI PUSH1 0x40 MLOAD PUSH32 0x8C379A000000000000000000000000000000000000000000000000000000000 DUP2 MSTORE PUSH1 0x4 ADD PUSH2 0x273E SWAP1 PUSH2 0x77CD JUMP JUMPDEST PUSH1 0x40 MLOAD DUP1 SWAP2 SUB SWAP1 REVERT JUMPDEST PUSH32 0x360894A13BA1A3210667C828492DB98DCA3E2076CC3735A920A3CA505D382BBC PUSH1 0x0 SHL SWAP1 POP SWAP1 JUMP JUMPDEST PUSH1 0x0 PUSH1 0x65 PUSH1 0x0 SWAP1 SLOAD SWAP1 PUSH2 0x100 EXP SWAP1 DIV PUSH1 0xFF AND SWAP1 POP SWAP1 JUMP JUMPDEST PUSH2 0x278F PUSH2 0x448C JUMP JUMPDEST PUSH2 0x27B3 PUSH1 0xFC SLOAD PUSH1 0xA PUSH2 0x27A1 SWAP2 SWAP1 PUSH2 0x7254 JUMP JUMPDEST PUSH2 0x106 SLOAD PUSH2 0x44D6 SWAP1 SWAP2 SWAP1 PUSH4 0xFFFFFFFF AND JUMP JUMPDEST DUP2 LT ISZERO PUSH2 0x27F5 JUMPI PUSH1 0x40 MLOAD PUSH32 0x8C379A000000000000000000000000000000000000000000000000000000000 DUP2 MSTORE PUSH1 0x4 ADD PUSH2 0x27EC SWAP1 PUSH2 0x785F JUMP JUMPDEST PUSH1 0x40 MLOAD DUP1 SWAP2 SUB SWAP1 REVERT JUMPDEST PUSH1 0x0 PUSH1 0xFC SLOAD PUSH1 0xA PUSH2 0x2806 SWAP2 SWAP1 PUSH2 0x7254 JUMP JUMPDEST PUSH2 0x105 SLOAD DUP4 PUSH2 0x2815 SWAP2 SWAP1 PUSH2 0x729F JUMP JUMPDEST PUSH2 0x281F SWAP2 SWAP1 PUSH2 0x70F0 JUMP JUMPDEST SWAP1 POP PUSH1 0x0 PUSH2 0x285E PUSH2 0x284F PUSH1 0x64 PUSH2 0x2841 PUSH2 0x108 SLOAD DUP8 PUSH2 0x44D6 SWAP1 SWAP2 SWAP1 PUSH4 0xFFFFFFFF AND JUMP JUMPDEST PUSH2 0x44EC SWAP1 SWAP2 SWAP1 PUSH4 0xFFFFFFFF AND JUMP JUMPDEST DUP5 PUSH2 0x4502 SWAP1 SWAP2 SWAP1 PUSH4 0xFFFFFFFF AND JUMP JUMPDEST SWAP1 POP PUSH2 0x102 PUSH1 0x0 SWAP1 SLOAD SWAP1 PUSH2 0x100 EXP SWAP1 DIV PUSH20 0xFFFFFFFFFFFFFFFFFFFFFFFFFFFFFFFFFFFFFFFF AND PUSH20 0xFFFFFFFFFFFFFFFFFFFFFFFFFFFFFFFFFFFFFFFF AND PUSH4 0x23B872DD CALLER ADDRESS DUP7 PUSH1 0x40 MLOAD DUP5 PUSH4 0xFFFFFFFF AND PUSH1 0xE0 SHL DUP2 MSTORE PUSH1 0x4 ADD PUSH2 0x28C0 SWAP4 SWAP3 SWAP2 SWAP1 PUSH2 0x787F JUMP JUMPDEST PUSH1 0x20 PUSH1 0x40 MLOAD DUP1 DUP4 SUB DUP2 PUSH1 0x0 DUP8 GAS CALL ISZERO DUP1 ISZERO PUSH2 0x28DF JUMPI RETURNDATASIZE PUSH1 0x0 DUP1 RETURNDATACOPY RETURNDATASIZE PUSH1 0x0 REVERT JUMPDEST POP POP POP POP PUSH1 0x40 MLOAD RETURNDATASIZE PUSH1 0x1F NOT PUSH1 0x1F DUP3 ADD AND DUP3 ADD DUP1 PUSH1 0x40 MSTORE POP DUP2 ADD SWAP1 PUSH2 0x2903 SWAP2 SWAP1 PUSH2 0x731F JUMP JUMPDEST POP PUSH2 0x290D CALLER PUSH2 0x113E JUMP JUMPDEST ISZERO DUP1 ISZERO PUSH2 0x2947 JUMPI POP PUSH1 0x0 PUSH20 0xFFFFFFFFFFFFFFFFFFFFFFFFFFFFFFFFFFFFFFFF AND DUP6 PUSH20 0xFFFFFFFFFFFFFFFFFFFFFFFFFFFFFFFFFFFFFFFF AND EQ ISZERO JUMPDEST ISZERO PUSH2 0x2958 JUMPI PUSH2 0x2956 DUP6 DUP6 PUSH2 0x4518 JUMP JUMPDEST POP JUMPDEST PUSH2 0x107 PUSH1 0x0 SWAP1 SLOAD SWAP1 PUSH2 0x100 EXP SWAP1 DIV PUSH1 0xFF AND ISZERO PUSH2 0x2AFE JUMPI PUSH2 0x101 PUSH1 0x0 SWAP1 SLOAD SWAP1 PUSH2 0x100 EXP SWAP1 DIV PUSH20 0xFFFFFFFFFFFFFFFFFFFFFFFFFFFFFFFFFFFFFFFF AND PUSH20 0xFFFFFFFFFFFFFFFFFFFFFFFFFFFFFFFFFFFFFFFF AND PUSH4 0xEA65E622 CALLER DUP5 PUSH1 0x40 MLOAD DUP4 PUSH4 0xFFFFFFFF AND PUSH1 0xE0 SHL DUP2 MSTORE PUSH1 0x4 ADD PUSH2 0x29CC SWAP3 SWAP2 SWAP1 PUSH2 0x72E1 JUMP JUMPDEST PUSH1 0x20 PUSH1 0x40 MLOAD DUP1 DUP4 SUB DUP2 PUSH1 0x0 DUP8 GAS CALL ISZERO DUP1 ISZERO PUSH2 0x29EB JUMPI RETURNDATASIZE PUSH1 0x0 DUP1 RETURNDATACOPY RETURNDATASIZE PUSH1 0x0 REVERT JUMPDEST POP POP POP POP PUSH1 0x40 MLOAD RETURNDATASIZE PUSH1 0x1F NOT PUSH1 0x1F DUP3 ADD AND DUP3 ADD DUP1 PUSH1 0x40 MSTORE POP DUP2 ADD SWAP1 PUSH2 0x2A0F SWAP2 SWAP1 PUSH2 0x731F JUMP JUMPDEST POP PUSH2 0x100 PUSH1 0x0 SWAP1 SLOAD SWAP1 PUSH2 0x100 EXP SWAP1 DIV PUSH20 0xFFFFFFFFFFFFFFFFFFFFFFFFFFFFFFFFFFFFFFFF AND PUSH20 0xFFFFFFFFFFFFFFFFFFFFFFFFFFFFFFFFFFFFFFFF AND PUSH4 0x23B872DD PUSH1 0xFE PUSH1 0x0 SWAP1 SLOAD SWAP1 PUSH2 0x100 EXP SWAP1 DIV PUSH20 0xFFFFFFFFFFFFFFFFFFFFFFFFFFFFFFFFFFFFFFFF AND PUSH2 0x101 PUSH1 0x0 SWAP1 SLOAD SWAP1 PUSH2 0x100 EXP SWAP1 DIV PUSH20 0xFFFFFFFFFFFFFFFFFFFFFFFFFFFFFFFFFFFFFFFF AND DUP6 PUSH1 0x40 MLOAD DUP5 PUSH4 0xFFFFFFFF AND PUSH1 0xE0 SHL DUP2 MSTORE PUSH1 0x4 ADD PUSH2 0x2AB5 SWAP4 SWAP3 SWAP2 SWAP1 PUSH2 0x787F JUMP JUMPDEST PUSH1 0x20 PUSH1 0x40 MLOAD DUP1 DUP4 SUB DUP2 PUSH1 0x0 DUP8 GAS CALL ISZERO DUP1 ISZERO PUSH2 0x2AD4 JUMPI RETURNDATASIZE PUSH1 0x0 DUP1 RETURNDATACOPY RETURNDATASIZE PUSH1 0x0 REVERT JUMPDEST POP POP POP POP PUSH1 0x40 MLOAD RETURNDATASIZE PUSH1 0x1F NOT PUSH1 0x1F DUP3 ADD AND DUP3 ADD DUP1 PUSH1 0x40 MSTORE POP DUP2 ADD SWAP1 PUSH2 0x2AF8 SWAP2 SWAP1 PUSH2 0x731F JUMP JUMPDEST POP PUSH2 0x2BC5 JUMP JUMPDEST PUSH2 0x100 PUSH1 0x0 SWAP1 SLOAD SWAP1 PUSH2 0x100 EXP SWAP1 DIV PUSH20 0xFFFFFFFFFFFFFFFFFFFFFFFFFFFFFFFFFFFFFFFF AND PUSH20 0xFFFFFFFFFFFFFFFFFFFFFFFFFFFFFFFFFFFFFFFF AND PUSH4 0x23B872DD PUSH1 0xFE PUSH1 0x0 SWAP1 SLOAD SWAP1 PUSH2 0x100 EXP SWAP1 DIV PUSH20 0xFFFFFFFFFFFFFFFFFFFFFFFFFFFFFFFFFFFFFFFF AND CALLER DUP6 PUSH1 0x40 MLOAD DUP5 PUSH4 0xFFFFFFFF AND PUSH1 0xE0 SHL DUP2 MSTORE PUSH1 0x4 ADD PUSH2 0x2B80 SWAP4 SWAP3 SWAP2 SWAP1 PUSH2 0x787F JUMP JUMPDEST PUSH1 0x20 PUSH1 0x40 MLOAD DUP1 DUP4 SUB DUP2 PUSH1 0x0 DUP8 GAS CALL ISZERO DUP1 ISZERO PUSH2 0x2B9F JUMPI RETURNDATASIZE PUSH1 0x0 DUP1 RETURNDATACOPY RETURNDATASIZE PUSH1 0x0 REVERT JUMPDEST POP POP POP POP PUSH1 0x40 MLOAD RETURNDATASIZE PUSH1 0x1F NOT PUSH1 0x1F DUP3 ADD AND DUP3 ADD DUP1 PUSH1 0x40 MSTORE POP DUP2 ADD SWAP1 PUSH2 0x2BC3 SWAP2 SWAP1 PUSH2 0x731F JUMP JUMPDEST POP JUMPDEST PUSH2 0x107 PUSH1 0x1 SWAP1 SLOAD SWAP1 PUSH2 0x100 EXP SWAP1 DIV PUSH1 0xFF AND ISZERO PUSH2 0x2BE7 JUMPI PUSH2 0x2BE5 DUP2 CALLER PUSH2 0x4A79 JUMP JUMPDEST POP JUMPDEST DUP2 PUSH2 0x109 PUSH1 0x0 DUP3 DUP3 SLOAD PUSH2 0x2BFA SWAP2 SWAP1 PUSH2 0x76F3 JUMP JUMPDEST SWAP3 POP POP DUP2 SWAP1 SSTORE POP DUP3 PUSH2 0x10B PUSH1 0x0 DUP3 DUP3 SLOAD PUSH2 0x2C14 SWAP2 SWAP1 PUSH2 0x76F3 JUMP JUMPDEST SWAP3 POP POP DUP2 SWAP1 SSTORE POP CALLER PUSH20 0xFFFFFFFFFFFFFFFFFFFFFFFFFFFFFFFFFFFFFFFF AND PUSH32 0x55C18555197C6574627CF460C66073D10AA05D412468800B7B71FEEAF82EA92D DUP4 PUSH1 0x40 MLOAD PUSH2 0x2C61 SWAP2 SWAP1 PUSH2 0x647E JUMP JUMPDEST PUSH1 0x40 MLOAD DUP1 SWAP2 SUB SWAP1 LOG2 POP POP POP POP POP JUMP JUMPDEST PUSH1 0x0 PUSH2 0x105 SLOAD DUP3 PUSH2 0x2C81 SWAP2 SWAP1 PUSH2 0x729F JUMP JUMPDEST SWAP1 POP SWAP2 SWAP1 POP JUMP JUMPDEST PUSH2 0x2C90 PUSH2 0x448C JUMP JUMPDEST PUSH1 0x0 CALLVALUE SWAP1 POP PUSH2 0x2C9D PUSH2 0x125E JUMP JUMPDEST DUP2 LT ISZERO PUSH2 0x2CDF JUMPI PUSH1 0x40 MLOAD PUSH32 0x8C379A000000000000000000000000000000000000000000000000000000000 DUP2 MSTORE PUSH1 0x4 ADD PUSH2 0x2CD6 SWAP1 PUSH2 0x7928 JUMP JUMPDEST PUSH1 0x40 MLOAD DUP1 SWAP2 SUB SWAP1 REVERT JUMPDEST PUSH1 0x0 PUSH2 0x2CEA DUP3 PUSH2 0x3E1F JUMP JUMPDEST SWAP1 POP PUSH1 0x0 PUSH2 0x2D29 PUSH2 0x2D1A PUSH1 0x64 PUSH2 0x2D0C PUSH2 0x108 SLOAD DUP8 PUSH2 0x44D6 SWAP1 SWAP2 SWAP1 PUSH4 0xFFFFFFFF AND JUMP JUMPDEST PUSH2 0x44EC SWAP1 SWAP2 SWAP1 PUSH4 0xFFFFFFFF AND JUMP JUMPDEST DUP5 PUSH2 0x4502 SWAP1 SWAP2 SWAP1 PUSH4 0xFFFFFFFF AND JUMP JUMPDEST SWAP1 POP PUSH2 0x2D34 CALLER PUSH2 0x113E JUMP JUMPDEST ISZERO DUP1 ISZERO PUSH2 0x2D6E JUMPI POP PUSH1 0x0 PUSH20 0xFFFFFFFFFFFFFFFFFFFFFFFFFFFFFFFFFFFFFFFF AND DUP6 PUSH20 0xFFFFFFFFFFFFFFFFFFFFFFFFFFFFFFFFFFFFFFFF AND EQ ISZERO JUMPDEST ISZERO PUSH2 0x2D7F JUMPI PUSH2 0x2D7D DUP6 DUP6 PUSH2 0x4518 JUMP JUMPDEST POP JUMPDEST PUSH2 0x107 PUSH1 0x0 SWAP1 SLOAD SWAP1 PUSH2 0x100 EXP SWAP1 DIV PUSH1 0xFF AND ISZERO PUSH2 0x2F25 JUMPI PUSH2 0x101 PUSH1 0x0 SWAP1 SLOAD SWAP1 PUSH2 0x100 EXP SWAP1 DIV PUSH20 0xFFFFFFFFFFFFFFFFFFFFFFFFFFFFFFFFFFFFFFFF AND PUSH20 0xFFFFFFFFFFFFFFFFFFFFFFFFFFFFFFFFFFFFFFFF AND PUSH4 0xEA65E622 CALLER DUP5 PUSH1 0x40 MLOAD DUP4 PUSH4 0xFFFFFFFF AND PUSH1 0xE0 SHL DUP2 MSTORE PUSH1 0x4 ADD PUSH2 0x2DF3 SWAP3 SWAP2 SWAP1 PUSH2 0x72E1 JUMP JUMPDEST PUSH1 0x20 PUSH1 0x40 MLOAD DUP1 DUP4 SUB DUP2 PUSH1 0x0 DUP8 GAS CALL ISZERO DUP1 ISZERO PUSH2 0x2E12 JUMPI RETURNDATASIZE PUSH1 0x0 DUP1 RETURNDATACOPY RETURNDATASIZE PUSH1 0x0 REVERT JUMPDEST POP POP POP POP PUSH1 0x40 MLOAD RETURNDATASIZE PUSH1 0x1F NOT PUSH1 0x1F DUP3 ADD AND DUP3 ADD DUP1 PUSH1 0x40 MSTORE POP DUP2 ADD SWAP1 PUSH2 0x2E36 SWAP2 SWAP1 PUSH2 0x731F JUMP JUMPDEST POP PUSH2 0x100 PUSH1 0x0 SWAP1 SLOAD SWAP1 PUSH2 0x100 EXP SWAP1 DIV PUSH20 0xFFFFFFFFFFFFFFFFFFFFFFFFFFFFFFFFFFFFFFFF AND PUSH20 0xFFFFFFFFFFFFFFFFFFFFFFFFFFFFFFFFFFFFFFFF AND PUSH4 0x23B872DD PUSH1 0xFE PUSH1 0x0 SWAP1 SLOAD SWAP1 PUSH2 0x100 EXP SWAP1 DIV PUSH20 0xFFFFFFFFFFFFFFFFFFFFFFFFFFFFFFFFFFFFFFFF AND PUSH2 0x101 PUSH1 0x0 SWAP1 SLOAD SWAP1 PUSH2 0x100 EXP SWAP1 DIV PUSH20 0xFFFFFFFFFFFFFFFFFFFFFFFFFFFFFFFFFFFFFFFF AND DUP6 PUSH1 0x40 MLOAD DUP5 PUSH4 0xFFFFFFFF AND PUSH1 0xE0 SHL DUP2 MSTORE PUSH1 0x4 ADD PUSH2 0x2EDC SWAP4 SWAP3 SWAP2 SWAP1 PUSH2 0x787F JUMP JUMPDEST PUSH1 0x20 PUSH1 0x40 MLOAD DUP1 DUP4 SUB DUP2 PUSH1 0x0 DUP8 GAS CALL ISZERO DUP1 ISZERO PUSH2 0x2EFB JUMPI RETURNDATASIZE PUSH1 0x0 DUP1 RETURNDATACOPY RETURNDATASIZE PUSH1 0x0 REVERT JUMPDEST POP POP POP POP PUSH1 0x40 MLOAD RETURNDATASIZE PUSH1 0x1F NOT PUSH1 0x1F DUP3 ADD AND DUP3 ADD DUP1 PUSH1 0x40 MSTORE POP DUP2 ADD SWAP1 PUSH2 0x2F1F SWAP2 SWAP1 PUSH2 0x731F JUMP JUMPDEST POP PUSH2 0x2FEC JUMP JUMPDEST PUSH2 0x100 PUSH1 0x0 SWAP1 SLOAD SWAP1 PUSH2 0x100 EXP SWAP1 DIV PUSH20 0xFFFFFFFFFFFFFFFFFFFFFFFFFFFFFFFFFFFFFFFF AND PUSH20 0xFFFFFFFFFFFFFFFFFFFFFFFFFFFFFFFFFFFFFFFF AND PUSH4 0x23B872DD PUSH1 0xFE PUSH1 0x0 SWAP1 SLOAD SWAP1 PUSH2 0x100 EXP SWAP1 DIV PUSH20 0xFFFFFFFFFFFFFFFFFFFFFFFFFFFFFFFFFFFFFFFF AND CALLER DUP6 PUSH1 0x40 MLOAD DUP5 PUSH4 0xFFFFFFFF AND PUSH1 0xE0 SHL DUP2 MSTORE PUSH1 0x4 ADD PUSH2 0x2FA7 SWAP4 SWAP3 SWAP2 SWAP1 PUSH2 0x787F JUMP JUMPDEST PUSH1 0x20 PUSH1 0x40 MLOAD DUP1 DUP4 SUB DUP2 PUSH1 0x0 DUP8 GAS CALL ISZERO DUP1 ISZERO PUSH2 0x2FC6 JUMPI RETURNDATASIZE PUSH1 0x0 DUP1 RETURNDATACOPY RETURNDATASIZE PUSH1 0x0 REVERT JUMPDEST POP POP POP POP PUSH1 0x40 MLOAD RETURNDATASIZE PUSH1 0x1F NOT PUSH1 0x1F DUP3 ADD AND DUP3 ADD DUP1 PUSH1 0x40 MSTORE POP DUP2 ADD SWAP1 PUSH2 0x2FEA SWAP2 SWAP1 PUSH2 0x731F JUMP JUMPDEST POP JUMPDEST PUSH2 0x107 PUSH1 0x1 SWAP1 SLOAD SWAP1 PUSH2 0x100 EXP SWAP1 DIV PUSH1 0xFF AND ISZERO PUSH2 0x300E JUMPI PUSH2 0x300C DUP2 CALLER PUSH2 0x53C7 JUMP JUMPDEST POP JUMPDEST DUP2 PUSH2 0x109 PUSH1 0x0 DUP3 DUP3 SLOAD PUSH2 0x3021 SWAP2 SWAP1 PUSH2 0x76F3 JUMP JUMPDEST SWAP3 POP POP DUP2 SWAP1 SSTORE POP DUP3 PUSH2 0x10A PUSH1 0x0 DUP3 DUP3 SLOAD PUSH2 0x303B SWAP2 SWAP1 PUSH2 0x76F3 JUMP JUMPDEST SWAP3 POP POP DUP2 SWAP1 SSTORE POP CALLER PUSH20 0xFFFFFFFFFFFFFFFFFFFFFFFFFFFFFFFFFFFFFFFF AND PUSH32 0x55C18555197C6574627CF460C66073D10AA05D412468800B7B71FEEAF82EA92D DUP4 PUSH1 0x40 MLOAD PUSH2 0x3088 SWAP2 SWAP1 PUSH2 0x647E JUMP JUMPDEST PUSH1 0x40 MLOAD DUP1 SWAP2 SUB SWAP1 LOG2 POP POP POP POP POP JUMP JUMPDEST PUSH1 0x0 PUSH2 0x30A1 PUSH2 0x4039 JUMP JUMPDEST DUP2 PUSH2 0x10E DUP2 SWAP1 SSTORE POP PUSH1 0x1 SWAP1 POP SWAP2 SWAP1 POP JUMP JUMPDEST PUSH1 0x0 PUSH2 0x106 SLOAD SWAP1 POP SWAP1 JUMP JUMPDEST PUSH1 0x0 PUSH2 0x10B SLOAD SWAP1 POP SWAP1 JUMP JUMPDEST PUSH2 0x30D0 PUSH2 0x4039 JUMP JUMPDEST PUSH2 0x30DA PUSH1 0x0 PUSH2 0x5D15 JUMP JUMPDEST JUMP JUMPDEST PUSH1 0x0 PUSH2 0x30E6 PUSH2 0x4039 JUMP JUMPDEST DUP2 PUSH2 0x107 PUSH1 0x0 PUSH2 0x100 EXP DUP2 SLOAD DUP2 PUSH1 0xFF MUL NOT AND SWAP1 DUP4 ISZERO ISZERO MUL OR SWAP1 SSTORE POP PUSH1 0x1 SWAP1 POP SWAP2 SWAP1 POP JUMP JUMPDEST PUSH1 0x0 DUP1 PUSH1 0x1 SWAP1 SLOAD SWAP1 PUSH2 0x100 EXP SWAP1 DIV PUSH1 0xFF AND ISZERO SWAP1 POP DUP1 DUP1 ISZERO PUSH2 0x313B JUMPI POP PUSH1 0x1 PUSH1 0x0 DUP1 SLOAD SWAP1 PUSH2 0x100 EXP SWAP1 DIV PUSH1 0xFF AND PUSH1 0xFF AND LT JUMPDEST DUP1 PUSH2 0x3168 JUMPI POP PUSH2 0x314A ADDRESS PUSH2 0x5DDB JUMP JUMPDEST ISZERO DUP1 ISZERO PUSH2 0x3167 JUMPI POP PUSH1 0x1 PUSH1 0x0 DUP1 SLOAD SWAP1 PUSH2 0x100 EXP SWAP1 DIV PUSH1 0xFF AND PUSH1 0xFF AND EQ JUMPDEST JUMPDEST PUSH2 0x31A7 JUMPI PUSH1 0x40 MLOAD PUSH32 0x8C379A000000000000000000000000000000000000000000000000000000000 DUP2 MSTORE PUSH1 0x4 ADD PUSH2 0x319E SWAP1 PUSH2 0x79BA JUMP JUMPDEST PUSH1 0x40 MLOAD DUP1 SWAP2 SUB SWAP1 REVERT JUMPDEST PUSH1 0x1 PUSH1 0x0 DUP1 PUSH2 0x100 EXP DUP2 SLOAD DUP2 PUSH1 0xFF MUL NOT AND SWAP1 DUP4 PUSH1 0xFF AND MUL OR SWAP1 SSTORE POP DUP1 ISZERO PUSH2 0x31E4 JUMPI PUSH1 0x1 PUSH1 0x0 PUSH1 0x1 PUSH2 0x100 EXP DUP2 SLOAD DUP2 PUSH1 0xFF MUL NOT AND SWAP1 DUP4 ISZERO ISZERO MUL OR SWAP1 SSTORE POP JUMPDEST PUSH20 0x2514895C72F50D8BD4B4F9B1110F0D6BD2C97526 PUSH2 0x104 PUSH1 0x0 PUSH2 0x100 EXP DUP2 SLOAD DUP2 PUSH20 0xFFFFFFFFFFFFFFFFFFFFFFFFFFFFFFFFFFFFFFFF MUL NOT AND SWAP1 DUP4 PUSH20 0xFFFFFFFFFFFFFFFFFFFFFFFFFFFFFFFFFFFFFFFF AND MUL OR SWAP1 SSTORE POP PUSH20 0x535B4371DB9CF38F0BDC1AD19B4C8712A9117CCD PUSH2 0x100 PUSH1 0x0 PUSH2 0x100 EXP DUP2 SLOAD DUP2 PUSH20 0xFFFFFFFFFFFFFFFFFFFFFFFFFFFFFFFFFFFFFFFF MUL NOT AND SWAP1 DUP4 PUSH20 0xFFFFFFFFFFFFFFFFFFFFFFFFFFFFFFFFFFFFFFFF AND MUL OR SWAP1 SSTORE POP PUSH20 0x7A0DEC713157F4289E112F5B8785C4AE8B298F7F PUSH1 0xFE PUSH1 0x0 PUSH2 0x100 EXP DUP2 SLOAD DUP2 PUSH20 0xFFFFFFFFFFFFFFFFFFFFFFFFFFFFFFFFFFFFFFFF MUL NOT AND SWAP1 DUP4 PUSH20 0xFFFFFFFFFFFFFFFFFFFFFFFFFFFFFFFFFFFFFFFF AND MUL OR SWAP1 SSTORE POP PUSH20 0x8842764DC150085C2B440ED6BAC00D1B764478CF PUSH2 0x101 PUSH1 0x0 PUSH2 0x100 EXP DUP2 SLOAD DUP2 PUSH20 0xFFFFFFFFFFFFFFFFFFFFFFFFFFFFFFFFFFFFFFFF MUL NOT AND SWAP1 DUP4 PUSH20 0xFFFFFFFFFFFFFFFFFFFFFFFFFFFFFFFFFFFFFFFF AND MUL OR SWAP1 SSTORE POP PUSH20 0xB425DA01B4A353FF9F36F6CAE4ACD32911046FE5 PUSH2 0x102 PUSH1 0x0 PUSH2 0x100 EXP DUP2 SLOAD DUP2 PUSH20 0xFFFFFFFFFFFFFFFFFFFFFFFFFFFFFFFFFFFFFFFF MUL NOT AND SWAP1 DUP4 PUSH20 0xFFFFFFFFFFFFFFFFFFFFFFFFFFFFFFFFFFFFFFFF AND MUL OR SWAP1 SSTORE POP PUSH8 0x3560488B9745ED80 PUSH2 0x105 DUP2 SWAP1 SSTORE POP PUSH1 0xC PUSH2 0x106 DUP2 SWAP1 SSTORE POP PUSH2 0x100 PUSH1 0x0 SWAP1 SLOAD SWAP1 PUSH2 0x100 EXP SWAP1 DIV PUSH20 0xFFFFFFFFFFFFFFFFFFFFFFFFFFFFFFFFFFFFFFFF AND PUSH20 0xFFFFFFFFFFFFFFFFFFFFFFFFFFFFFFFFFFFFFFFF AND PUSH4 0x6FDDE03 PUSH1 0x40 MLOAD DUP2 PUSH4 0xFFFFFFFF AND PUSH1 0xE0 SHL DUP2 MSTORE PUSH1 0x4 ADD PUSH1 0x0 PUSH1 0x40 MLOAD DUP1 DUP4 SUB DUP2 PUSH1 0x0 DUP8 GAS CALL ISZERO DUP1 ISZERO PUSH2 0x341A JUMPI RETURNDATASIZE PUSH1 0x0 DUP1 RETURNDATACOPY RETURNDATASIZE PUSH1 0x0 REVERT JUMPDEST POP POP POP POP PUSH1 0x40 MLOAD RETURNDATASIZE PUSH1 0x0 DUP3 RETURNDATACOPY RETURNDATASIZE PUSH1 0x1F NOT PUSH1 0x1F DUP3 ADD AND DUP3 ADD DUP1 PUSH1 0x40 MSTORE POP DUP2 ADD SWAP1 PUSH2 0x3443 SWAP2 SWAP1 PUSH2 0x7A7B JUMP JUMPDEST PUSH1 0xFB SWAP1 DUP2 PUSH2 0x3451 SWAP2 SWAP1 PUSH2 0x7CD0 JUMP JUMPDEST POP PUSH2 0x100 PUSH1 0x0 SWAP1 SLOAD SWAP1 PUSH2 0x100 EXP SWAP1 DIV PUSH20 0xFFFFFFFFFFFFFFFFFFFFFFFFFFFFFFFFFFFFFFFF AND PUSH20 0xFFFFFFFFFFFFFFFFFFFFFFFFFFFFFFFFFFFFFFFF AND PUSH4 0x313CE567 PUSH1 0x40 MLOAD DUP2 PUSH4 0xFFFFFFFF AND PUSH1 0xE0 SHL DUP2 MSTORE PUSH1 0x4 ADD PUSH1 0x20 PUSH1 0x40 MLOAD DUP1 DUP4 SUB DUP2 PUSH1 0x0 DUP8 GAS CALL ISZERO DUP1 ISZERO PUSH2 0x34C2 JUMPI RETURNDATASIZE PUSH1 0x0 DUP1 RETURNDATACOPY RETURNDATASIZE PUSH1 0x0 REVERT JUMPDEST POP POP POP POP PUSH1 0x40 MLOAD RETURNDATASIZE PUSH1 0x1F NOT PUSH1 0x1F DUP3 ADD AND DUP3 ADD DUP1 PUSH1 0x40 MSTORE POP DUP2 ADD SWAP1 PUSH2 0x34E6 SWAP2 SWAP1 PUSH2 0x7DB7 JUMP JUMPDEST PUSH1 0xFC DUP2 SWAP1 SSTORE POP PUSH2 0x100 PUSH1 0x0 SWAP1 SLOAD SWAP1 PUSH2 0x100 EXP SWAP1 DIV PUSH20 0xFFFFFFFFFFFFFFFFFFFFFFFFFFFFFFFFFFFFFFFF AND PUSH20 0xFFFFFFFFFFFFFFFFFFFFFFFFFFFFFFFFFFFFFFFF AND PUSH4 0x18160DDD PUSH1 0x40 MLOAD DUP2 PUSH4 0xFFFFFFFF AND PUSH1 0xE0 SHL DUP2 MSTORE PUSH1 0x4 ADD PUSH1 0x20 PUSH1 0x40 MLOAD DUP1 DUP4 SUB DUP2 DUP7 GAS STATICCALL ISZERO DUP1 ISZERO PUSH2 0x355A JUMPI RETURNDATASIZE PUSH1 0x0 DUP1 RETURNDATACOPY RETURNDATASIZE PUSH1 0x0 REVERT JUMPDEST POP POP POP POP PUSH1 0x40 MLOAD RETURNDATASIZE PUSH1 0x1F NOT PUSH1 0x1F DUP3 ADD AND DUP3 ADD DUP1 PUSH1 0x40 MSTORE POP DUP2 ADD SWAP1 PUSH2 0x357E SWAP2 SWAP1 PUSH2 0x7DB7 JUMP JUMPDEST PUSH1 0xFD DUP2 SWAP1 SSTORE POP PUSH2 0x100 PUSH1 0x0 SWAP1 SLOAD SWAP1 PUSH2 0x100 EXP SWAP1 DIV PUSH20 0xFFFFFFFFFFFFFFFFFFFFFFFFFFFFFFFFFFFFFFFF AND PUSH20 0xFFFFFFFFFFFFFFFFFFFFFFFFFFFFFFFFFFFFFFFF AND PUSH4 0xBAB5CA6E PUSH1 0x40 MLOAD DUP2 PUSH4 0xFFFFFFFF AND PUSH1 0xE0 SHL DUP2 MSTORE PUSH1 0x4 ADD PUSH1 0x20 PUSH1 0x40 MLOAD DUP1 DUP4 SUB DUP2 PUSH1 0x0 DUP8 GAS CALL ISZERO DUP1 ISZERO PUSH2 0x35F4 JUMPI RETURNDATASIZE PUSH1 0x0 DUP1 RETURNDATACOPY RETURNDATASIZE PUSH1 0x0 REVERT JUMPDEST POP POP POP POP PUSH1 0x40 MLOAD RETURNDATASIZE PUSH1 0x1F NOT PUSH1 0x1F DUP3 ADD AND DUP3 ADD DUP1 PUSH1 0x40 MSTORE POP DUP2 ADD SWAP1 PUSH2 0x3618 SWAP2 SWAP1 PUSH2 0x7DB7 JUMP JUMPDEST PUSH1 0xFF DUP2 SWAP1 SSTORE POP PUSH1 0x1 PUSH2 0x107 PUSH1 0x0 PUSH2 0x100 EXP DUP2 SLOAD DUP2 PUSH1 0xFF MUL NOT AND SWAP1 DUP4 ISZERO ISZERO MUL OR SWAP1 SSTORE POP PUSH1 0x1 PUSH2 0x107 PUSH1 0x1 PUSH2 0x100 EXP DUP2 SLOAD DUP2 PUSH1 0xFF MUL NOT AND SWAP1 DUP4 ISZERO ISZERO MUL OR SWAP1 SSTORE POP PUSH1 0x21 PUSH2 0x108 DUP2 SWAP1 SSTORE POP PUSH20 0x7A0DEC713157F4289E112F5B8785C4AE8B298F7F PUSH2 0x110 PUSH1 0x0 PUSH2 0x100 EXP DUP2 SLOAD DUP2 PUSH20 0xFFFFFFFFFFFFFFFFFFFFFFFFFFFFFFFFFFFFFFFF MUL NOT AND SWAP1 DUP4 PUSH20 0xFFFFFFFFFFFFFFFFFFFFFFFFFFFFFFFFFFFFFFFF AND MUL OR SWAP1 SSTORE POP PUSH1 0x8 PUSH2 0x10C PUSH1 0x0 PUSH2 0x100 EXP DUP2 SLOAD DUP2 PUSH1 0xFF MUL NOT AND SWAP1 DUP4 PUSH1 0xFF AND MUL OR SWAP1 SSTORE POP PUSH1 0x64 PUSH2 0x10F DUP2 SWAP1 SSTORE POP PUSH1 0x46 PUSH2 0x10E DUP2 SWAP1 SSTORE POP PUSH1 0x40 MLOAD DUP1 PUSH2 0x100 ADD PUSH1 0x40 MSTORE DUP1 PUSH1 0x19 PUSH1 0xFF AND DUP2 MSTORE PUSH1 0x20 ADD PUSH1 0xB PUSH1 0xFF AND DUP2 MSTORE PUSH1 0x20 ADD PUSH1 0x9 PUSH1 0xFF AND DUP2 MSTORE PUSH1 0x20 ADD PUSH1 0x8 PUSH1 0xFF AND DUP2 MSTORE PUSH1 0x20 ADD PUSH1 0x6 PUSH1 0xFF AND DUP2 MSTORE PUSH1 0x20 ADD PUSH1 0x4 PUSH1 0xFF AND DUP2 MSTORE PUSH1 0x20 ADD PUSH1 0x3 PUSH1 0xFF AND DUP2 MSTORE PUSH1 0x20 ADD PUSH1 0x4 PUSH1 0xFF AND DUP2 MSTORE POP PUSH2 0x10D SWAP1 PUSH1 0x8 PUSH2 0x374F SWAP3 SWAP2 SWAP1 PUSH2 0x63A9 JUMP JUMPDEST POP PUSH1 0x3 PUSH2 0x116 DUP2 SWAP1 SSTORE POP PUSH1 0x6 PUSH2 0x117 DUP2 SWAP1 SSTORE POP PUSH2 0x376A PUSH2 0x5DFE JUMP JUMPDEST PUSH2 0x3772 PUSH2 0x5E57 JUMP JUMPDEST PUSH2 0x377A PUSH2 0x5EB0 JUMP JUMPDEST DUP1 ISZERO PUSH2 0x37D3 JUMPI PUSH1 0x0 DUP1 PUSH1 0x1 PUSH2 0x100 EXP DUP2 SLOAD DUP2 PUSH1 0xFF MUL NOT AND SWAP1 DUP4 ISZERO ISZERO MUL OR SWAP1 SSTORE POP PUSH32 0x7F26B83FF96E1F2B6A682F133852F6798A09C465DA95921460CEFB3847402498 PUSH1 0x1 PUSH1 0x40 MLOAD PUSH2 0x37CA SWAP2 SWAP1 PUSH2 0x7E1F JUMP JUMPDEST PUSH1 0x40 MLOAD DUP1 SWAP2 SUB SWAP1 LOG1 JUMPDEST POP JUMP JUMPDEST PUSH1 0x0 PUSH2 0x37E0 PUSH2 0x4039 JUMP JUMPDEST DUP3 DUP3 PUSH2 0x10D SWAP2 SWAP1 PUSH2 0x37F2 SWAP3 SWAP2 SWAP1 PUSH2 0x63FB JUMP JUMPDEST POP PUSH1 0x1 SWAP1 POP SWAP3 SWAP2 POP POP JUMP JUMPDEST PUSH1 0x0 PUSH2 0x3808 DUP3 PUSH2 0x4434 JUMP JUMPDEST SWAP1 POP SWAP2 SWAP1 POP JUMP JUMPDEST PUSH1 0x0 PUSH2 0x3819 PUSH2 0x4039 JUMP JUMPDEST DUP2 PUSH2 0x104 PUSH1 0x0 PUSH2 0x100 EXP DUP2 SLOAD DUP2 PUSH20 0xFFFFFFFFFFFFFFFFFFFFFFFFFFFFFFFFFFFFFFFF MUL NOT AND SWAP1 DUP4 PUSH20 0xFFFFFFFFFFFFFFFFFFFFFFFFFFFFFFFFFFFFFFFF AND MUL OR SWAP1 SSTORE POP PUSH1 0x1 SWAP1 POP SWAP2 SWAP1 POP JUMP JUMPDEST PUSH1 0x60 PUSH1 0xFB DUP1 SLOAD PUSH2 0x3873 SWAP1 PUSH2 0x7AF3 JUMP JUMPDEST DUP1 PUSH1 0x1F ADD PUSH1 0x20 DUP1 SWAP2 DIV MUL PUSH1 0x20 ADD PUSH1 0x40 MLOAD SWAP1 DUP2 ADD PUSH1 0x40 MSTORE DUP1 SWAP3 SWAP2 SWAP1 DUP2 DUP2 MSTORE PUSH1 0x20 ADD DUP3 DUP1 SLOAD PUSH2 0x389F SWAP1 PUSH2 0x7AF3 JUMP JUMPDEST DUP1 ISZERO PUSH2 0x38EC JUMPI DUP1 PUSH1 0x1F LT PUSH2 0x38C1 JUMPI PUSH2 0x100 DUP1 DUP4 SLOAD DIV MUL DUP4 MSTORE SWAP2 PUSH1 0x20 ADD SWAP2 PUSH2 0x38EC JUMP JUMPDEST DUP3 ADD SWAP2 SWAP1 PUSH1 0x0 MSTORE PUSH1 0x20 PUSH1 0x0 KECCAK256 SWAP1 JUMPDEST DUP2 SLOAD DUP2 MSTORE SWAP1 PUSH1 0x1 ADD SWAP1 PUSH1 0x20 ADD DUP1 DUP4 GT PUSH2 0x38CF JUMPI DUP3 SWAP1 SUB PUSH1 0x1F AND DUP3 ADD SWAP2 JUMPDEST POP POP POP POP POP SWAP1 POP SWAP1 JUMP JUMPDEST PUSH1 0x0 PUSH1 0x33 PUSH1 0x0 SWAP1 SLOAD SWAP1 PUSH2 0x100 EXP SWAP1 DIV PUSH20 0xFFFFFFFFFFFFFFFFFFFFFFFFFFFFFFFFFFFFFFFF AND SWAP1 POP SWAP1 JUMP JUMPDEST PUSH1 0x0 PUSH2 0x101 PUSH1 0x0 SWAP1 SLOAD SWAP1 PUSH2 0x100 EXP SWAP1 DIV PUSH20 0xFFFFFFFFFFFFFFFFFFFFFFFFFFFFFFFFFFFFFFFF AND SWAP1 POP SWAP1 JUMP JUMPDEST PUSH1 0x60 PUSH2 0x10D DUP1 SLOAD DUP1 PUSH1 0x20 MUL PUSH1 0x20 ADD PUSH1 0x40 MLOAD SWAP1 DUP2 ADD PUSH1 0x40 MSTORE DUP1 SWAP3 SWAP2 SWAP1 DUP2 DUP2 MSTORE PUSH1 0x20 ADD DUP3 DUP1 SLOAD DUP1 ISZERO PUSH2 0x399A JUMPI PUSH1 0x20 MUL DUP3 ADD SWAP2 SWAP1 PUSH1 0x0 MSTORE PUSH1 0x20 PUSH1 0x0 KECCAK256 SWAP1 JUMPDEST DUP2 SLOAD DUP2 MSTORE PUSH1 0x20 ADD SWAP1 PUSH1 0x1 ADD SWAP1 DUP1 DUP4 GT PUSH2 0x3986 JUMPI JUMPDEST POP POP POP POP POP SWAP1 POP SWAP1 JUMP JUMPDEST PUSH1 0x0 DUP1 PUSH2 0x104 PUSH1 0x0 SWAP1 SLOAD SWAP1 PUSH2 0x100 EXP SWAP1 DIV PUSH20 0xFFFFFFFFFFFFFFFFFFFFFFFFFFFFFFFFFFFFFFFF AND PUSH20 0xFFFFFFFFFFFFFFFFFFFFFFFFFFFFFFFFFFFFFFFF AND PUSH4 0xFEAF968C PUSH1 0x40 MLOAD DUP2 PUSH4 0xFFFFFFFF AND PUSH1 0xE0 SHL DUP2 MSTORE PUSH1 0x4 ADD PUSH1 0xA0 PUSH1 0x40 MLOAD DUP1 DUP4 SUB DUP2 DUP7 GAS STATICCALL ISZERO DUP1 ISZERO PUSH2 0x3A15 JUMPI RETURNDATASIZE PUSH1 0x0 DUP1 RETURNDATACOPY RETURNDATASIZE PUSH1 0x0 REVERT JUMPDEST POP POP POP POP PUSH1 0x40 MLOAD RETURNDATASIZE PUSH1 0x1F NOT PUSH1 0x1F DUP3 ADD AND DUP3 ADD DUP1 PUSH1 0x40 MSTORE POP DUP2 ADD SWAP1 PUSH2 0x3A39 SWAP2 SWAP1 PUSH2 0x7EB2 JUMP JUMPDEST POP POP POP SWAP2 POP POP PUSH5 0x2540BE400 DUP2 PUSH2 0x3A50 SWAP2 SWAP1 PUSH2 0x729F JUMP JUMPDEST SWAP2 POP POP SWAP1 JUMP JUMPDEST PUSH1 0x0 PUSH2 0x116 SLOAD SWAP1 POP SWAP1 JUMP JUMPDEST PUSH1 0x0 PUSH2 0x3A6B PUSH2 0x4039 JUMP JUMPDEST DUP2 PUSH2 0x10C PUSH1 0x0 PUSH2 0x100 EXP DUP2 SLOAD DUP2 PUSH1 0xFF MUL NOT AND SWAP1 DUP4 PUSH1 0xFF AND MUL OR SWAP1 SSTORE POP PUSH1 0x1 SWAP1 POP SWAP2 SWAP1 POP JUMP JUMPDEST PUSH1 0x0 PUSH2 0x102 PUSH1 0x0 SWAP1 SLOAD SWAP1 PUSH2 0x100 EXP SWAP1 DIV PUSH20 0xFFFFFFFFFFFFFFFFFFFFFFFFFFFFFFFFFFFFFFFF AND SWAP1 POP SWAP1 JUMP JUMPDEST PUSH1 0x0 PUSH2 0x108 SLOAD SWAP1 POP SWAP1 JUMP JUMPDEST PUSH1 0x0 PUSH2 0x3AD0 PUSH2 0x4039 JUMP JUMPDEST DUP2 PUSH2 0x101 PUSH1 0x0 PUSH2 0x100 EXP DUP2 SLOAD DUP2 PUSH20 0xFFFFFFFFFFFFFFFFFFFFFFFFFFFFFFFFFFFFFFFF MUL NOT AND SWAP1 DUP4 PUSH20 0xFFFFFFFFFFFFFFFFFFFFFFFFFFFFFFFFFFFFFFFF AND MUL OR SWAP1 SSTORE POP PUSH1 0x1 SWAP1 POP SWAP2 SWAP1 POP JUMP JUMPDEST PUSH1 0x0 PUSH2 0x3B25 PUSH2 0x4039 JUMP JUMPDEST DUP2 PUSH2 0x102 PUSH1 0x0 PUSH2 0x100 EXP DUP2 SLOAD DUP2 PUSH20 0xFFFFFFFFFFFFFFFFFFFFFFFFFFFFFFFFFFFFFFFF MUL NOT AND SWAP1 DUP4 PUSH20 0xFFFFFFFFFFFFFFFFFFFFFFFFFFFFFFFFFFFFFFFF AND MUL OR SWAP1 SSTORE POP PUSH1 0x1 SWAP1 POP SWAP2 SWAP1 POP JUMP JUMPDEST PUSH1 0x0 PUSH1 0xFD SLOAD SWAP1 POP SWAP1 JUMP JUMPDEST PUSH1 0x0 PUSH2 0x112 SLOAD SWAP1 POP SWAP1 JUMP JUMPDEST PUSH1 0x0 PUSH2 0x3B8F PUSH2 0x4039 JUMP JUMPDEST DUP2 PUSH2 0x100 PUSH1 0x0 PUSH2 0x100 EXP DUP2 SLOAD DUP2 PUSH20 0xFFFFFFFFFFFFFFFFFFFFFFFFFFFFFFFFFFFFFFFF MUL NOT AND SWAP1 DUP4 PUSH20 0xFFFFFFFFFFFFFFFFFFFFFFFFFFFFFFFFFFFFFFFF AND MUL OR SWAP1 SSTORE POP DUP2 PUSH20 0xFFFFFFFFFFFFFFFFFFFFFFFFFFFFFFFFFFFFFFFF AND PUSH4 0x6FDDE03 PUSH1 0x40 MLOAD DUP2 PUSH4 0xFFFFFFFF AND PUSH1 0xE0 SHL DUP2 MSTORE PUSH1 0x4 ADD PUSH1 0x0 PUSH1 0x40 MLOAD DUP1 DUP4 SUB DUP2 PUSH1 0x0 DUP8 GAS CALL ISZERO DUP1 ISZERO PUSH2 0x3C1E JUMPI RETURNDATASIZE PUSH1 0x0 DUP1 RETURNDATACOPY RETURNDATASIZE PUSH1 0x0 REVERT JUMPDEST POP POP POP POP PUSH1 0x40 MLOAD RETURNDATASIZE PUSH1 0x0 DUP3 RETURNDATACOPY RETURNDATASIZE PUSH1 0x1F NOT PUSH1 0x1F DUP3 ADD AND DUP3 ADD DUP1 PUSH1 0x40 MSTORE POP DUP2 ADD SWAP1 PUSH2 0x3C47 SWAP2 SWAP1 PUSH2 0x7A7B JUMP JUMPDEST PUSH1 0xFB SWAP1 DUP2 PUSH2 0x3C55 SWAP2 SWAP1 PUSH2 0x7CD0 JUMP JUMPDEST POP DUP2 PUSH20 0xFFFFFFFFFFFFFFFFFFFFFFFFFFFFFFFFFFFFFFFF AND PUSH4 0x313CE567 PUSH1 0x40 MLOAD DUP2 PUSH4 0xFFFFFFFF AND PUSH1 0xE0 SHL DUP2 MSTORE PUSH1 0x4 ADD PUSH1 0x20 PUSH1 0x40 MLOAD DUP1 DUP4 SUB DUP2 PUSH1 0x0 DUP8 GAS CALL ISZERO DUP1 ISZERO PUSH2 0x3CA3 JUMPI RETURNDATASIZE PUSH1 0x0 DUP1 RETURNDATACOPY RETURNDATASIZE PUSH1 0x0 REVERT JUMPDEST POP POP POP POP PUSH1 0x40 MLOAD RETURNDATASIZE PUSH1 0x1F NOT PUSH1 0x1F DUP3 ADD AND DUP3 ADD DUP1 PUSH1 0x40 MSTORE POP DUP2 ADD SWAP1 PUSH2 0x3CC7 SWAP2 SWAP1 PUSH2 0x7DB7 JUMP JUMPDEST PUSH1 0xFC DUP2 SWAP1 SSTORE POP DUP2 PUSH20 0xFFFFFFFFFFFFFFFFFFFFFFFFFFFFFFFFFFFFFFFF AND PUSH4 0x18160DDD PUSH1 0x40 MLOAD DUP2 PUSH4 0xFFFFFFFF AND PUSH1 0xE0 SHL DUP2 MSTORE PUSH1 0x4 ADD PUSH1 0x20 PUSH1 0x40 MLOAD DUP1 DUP4 SUB DUP2 DUP7 GAS STATICCALL ISZERO DUP1 ISZERO PUSH2 0x3D18 JUMPI RETURNDATASIZE PUSH1 0x0 DUP1 RETURNDATACOPY RETURNDATASIZE PUSH1 0x0 REVERT JUMPDEST POP POP POP POP PUSH1 0x40 MLOAD RETURNDATASIZE PUSH1 0x1F NOT PUSH1 0x1F DUP3 ADD AND DUP3 ADD DUP1 PUSH1 0x40 MSTORE POP DUP2 ADD SWAP1 PUSH2 0x3D3C SWAP2 SWAP1 PUSH2 0x7DB7 JUMP JUMPDEST PUSH1 0xFD DUP2 SWAP1 SSTORE POP DUP2 PUSH20 0xFFFFFFFFFFFFFFFFFFFFFFFFFFFFFFFFFFFFFFFF AND PUSH4 0xBAB5CA6E PUSH1 0x40 MLOAD DUP2 PUSH4 0xFFFFFFFF AND PUSH1 0xE0 SHL DUP2 MSTORE PUSH1 0x4 ADD PUSH1 0x20 PUSH1 0x40 MLOAD DUP1 DUP4 SUB DUP2 PUSH1 0x0 DUP8 GAS CALL ISZERO DUP1 ISZERO PUSH2 0x3D8F JUMPI RETURNDATASIZE PUSH1 0x0 DUP1 RETURNDATACOPY RETURNDATASIZE PUSH1 0x0 REVERT JUMPDEST POP POP POP POP PUSH1 0x40 MLOAD RETURNDATASIZE PUSH1 0x1F NOT PUSH1 0x1F DUP3 ADD AND DUP3 ADD DUP1 PUSH1 0x40 MSTORE POP DUP2 ADD SWAP1 PUSH2 0x3DB3 SWAP2 SWAP1 PUSH2 0x7DB7 JUMP JUMPDEST PUSH1 0xFF DUP2 SWAP1 SSTORE POP PUSH1 0x1 SWAP1 POP SWAP2 SWAP1 POP JUMP JUMPDEST PUSH1 0x0 PUSH2 0x3DCE DUP4 DUP4 PUSH2 0x4518 JUMP JUMPDEST POP PUSH1 0x1 SWAP1 POP SWAP3 SWAP2 POP POP JUMP JUMPDEST PUSH2 0x3DE1 PUSH2 0x4039 JUMP JUMPDEST DUP1 PUSH2 0x116 DUP2 SWAP1 SSTORE POP POP JUMP JUMPDEST PUSH1 0x0 PUSH2 0x3DF6 PUSH2 0x4039 JUMP JUMPDEST DUP2 PUSH2 0x106 DUP2 SWAP1 SSTORE POP PUSH1 0x1 SWAP1 POP SWAP2 SWAP1 POP JUMP JUMPDEST PUSH1 0x0 PUSH2 0x107 PUSH1 0x1 SWAP1 SLOAD SWAP1 PUSH2 0x100 EXP SWAP1 DIV PUSH1 0xFF AND SWAP1 POP SWAP1 JUMP JUMPDEST PUSH1 0x0 DUP1 PUSH2 0x3E2A PUSH2 0x39A4 JUMP JUMPDEST SWAP1 POP PUSH1 0x0 PUSH1 0xFC SLOAD PUSH1 0xA PUSH2 0x3E3D SWAP2 SWAP1 PUSH2 0x7254 JUMP JUMPDEST DUP3 DUP6 PUSH2 0x3E49 SWAP2 SWAP1 PUSH2 0x729F JUMP JUMPDEST PUSH2 0x3E53 SWAP2 SWAP1 PUSH2 0x70F0 JUMP JUMPDEST SWAP1 POP PUSH2 0x105 SLOAD DUP2 PUSH2 0x3E64 SWAP2 SWAP1 PUSH2 0x729F JUMP JUMPDEST SWAP3 POP PUSH1 0xFC SLOAD PUSH1 0xA PUSH2 0x3E75 SWAP2 SWAP1 PUSH2 0x7254 JUMP JUMPDEST DUP4 PUSH2 0x3E80 SWAP2 SWAP1 PUSH2 0x70F0 JUMP JUMPDEST SWAP3 POP POP POP SWAP2 SWAP1 POP JUMP JUMPDEST PUSH1 0x0 PUSH2 0x3E93 PUSH2 0x4039 JUMP JUMPDEST DUP2 PUSH2 0x10F DUP2 SWAP1 SSTORE POP PUSH1 0x1 SWAP1 POP SWAP2 SWAP1 POP JUMP JUMPDEST PUSH1 0x0 PUSH2 0x104 PUSH1 0x0 SWAP1 SLOAD SWAP1 PUSH2 0x100 EXP SWAP1 DIV PUSH20 0xFFFFFFFFFFFFFFFFFFFFFFFFFFFFFFFFFFFFFFFF AND SWAP1 POP SWAP1 JUMP JUMPDEST PUSH1 0x0 PUSH1 0xFF SLOAD SWAP1 POP SWAP1 JUMP JUMPDEST PUSH2 0x3EE1 PUSH2 0x4039 JUMP JUMPDEST PUSH2 0x3EE9 PUSH2 0x5F01 JUMP JUMPDEST JUMP JUMPDEST PUSH1 0x0 PUSH1 0xFE PUSH1 0x0 SWAP1 SLOAD SWAP1 PUSH2 0x100 EXP SWAP1 DIV PUSH20 0xFFFFFFFFFFFFFFFFFFFFFFFFFFFFFFFFFFFFFFFF AND SWAP1 POP SWAP1 JUMP JUMPDEST PUSH1 0x0 PUSH2 0x3F1F PUSH2 0x4039 JUMP JUMPDEST DUP2 PUSH2 0x105 DUP2 SWAP1 SSTORE POP PUSH1 0x1 SWAP1 POP SWAP2 SWAP1 POP JUMP JUMPDEST PUSH2 0x3F38 PUSH2 0x4039 JUMP JUMPDEST DUP1 PUSH2 0x110 PUSH1 0x0 PUSH2 0x100 EXP DUP2 SLOAD DUP2 PUSH20 0xFFFFFFFFFFFFFFFFFFFFFFFFFFFFFFFFFFFFFFFF MUL NOT AND SWAP1 DUP4 PUSH20 0xFFFFFFFFFFFFFFFFFFFFFFFFFFFFFFFFFFFFFFFF AND MUL OR SWAP1 SSTORE POP POP JUMP JUMPDEST PUSH1 0x0 PUSH2 0x10F SLOAD SWAP1 POP SWAP1 JUMP JUMPDEST PUSH1 0x0 PUSH2 0x3F92 PUSH2 0x4039 JUMP JUMPDEST DUP2 PUSH2 0x107 PUSH1 0x1 PUSH2 0x100 EXP DUP2 SLOAD DUP2 PUSH1 0xFF MUL NOT AND SWAP1 DUP4 ISZERO ISZERO MUL OR SWAP1 SSTORE POP PUSH1 0x1 SWAP1 POP SWAP2 SWAP1 POP JUMP JUMPDEST PUSH2 0x3FBE PUSH2 0x4039 JUMP JUMPDEST PUSH1 0x0 PUSH20 0xFFFFFFFFFFFFFFFFFFFFFFFFFFFFFFFFFFFFFFFF AND DUP2 PUSH20 0xFFFFFFFFFFFFFFFFFFFFFFFFFFFFFFFFFFFFFFFF AND SUB PUSH2 0x402D JUMPI PUSH1 0x40 MLOAD PUSH32 0x8C379A000000000000000000000000000000000000000000000000000000000 DUP2 MSTORE PUSH1 0x4 ADD PUSH2 0x4024 SWAP1 PUSH2 0x7F9F JUMP JUMPDEST PUSH1 0x40 MLOAD DUP1 SWAP2 SUB SWAP1 REVERT JUMPDEST PUSH2 0x4036 DUP2 PUSH2 0x5D15 JUMP JUMPDEST POP JUMP JUMPDEST PUSH2 0x4041 PUSH2 0x5F64 JUMP JUMPDEST PUSH20 0xFFFFFFFFFFFFFFFFFFFFFFFFFFFFFFFFFFFFFFFF AND PUSH2 0x405F PUSH2 0x38F6 JUMP JUMPDEST PUSH20 0xFFFFFFFFFFFFFFFFFFFFFFFFFFFFFFFFFFFFFFFF AND EQ PUSH2 0x40B5 JUMPI PUSH1 0x40 MLOAD PUSH32 0x8C379A000000000000000000000000000000000000000000000000000000000 DUP2 MSTORE PUSH1 0x4 ADD PUSH2 0x40AC SWAP1 PUSH2 0x800B JUMP JUMPDEST PUSH1 0x40 MLOAD DUP1 SWAP2 SUB SWAP1 REVERT JUMPDEST JUMP JUMPDEST PUSH2 0x40BF PUSH2 0x448C JUMP JUMPDEST PUSH1 0x1 PUSH1 0x65 PUSH1 0x0 PUSH2 0x100 EXP DUP2 SLOAD DUP2 PUSH1 0xFF MUL NOT AND SWAP1 DUP4 ISZERO ISZERO MUL OR SWAP1 SSTORE POP PUSH32 0x62E78CEA01BEE320CD4E420270B5EA74000D11B0C9F74754EBDBFC544B05A258 PUSH2 0x4103 PUSH2 0x5F64 JUMP JUMPDEST PUSH1 0x40 MLOAD PUSH2 0x4110 SWAP2 SWAP1 PUSH2 0x664D JUMP JUMPDEST PUSH1 0x40 MLOAD DUP1 SWAP2 SUB SWAP1 LOG1 JUMP JUMPDEST PUSH1 0x0 PUSH2 0x4148 PUSH32 0x360894A13BA1A3210667C828492DB98DCA3E2076CC3735A920A3CA505D382BBC PUSH1 0x0 SHL PUSH2 0x5F6C JUMP JUMPDEST PUSH1 0x0 ADD PUSH1 0x0 SWAP1 SLOAD SWAP1 PUSH2 0x100 EXP SWAP1 DIV PUSH20 0xFFFFFFFFFFFFFFFFFFFFFFFFFFFFFFFFFFFFFFFF AND SWAP1 POP SWAP1 JUMP JUMPDEST PUSH2 0x4179 PUSH2 0x4039 JUMP JUMPDEST POP JUMP JUMPDEST PUSH2 0x41A8 PUSH32 0x4910FDFA16FED3260ED0E7147F7CC6DA11A60208B5B9406D12A635614FFD9143 PUSH1 0x0 SHL PUSH2 0x5F76 JUMP JUMPDEST PUSH1 0x0 ADD PUSH1 0x0 SWAP1 SLOAD SWAP1 PUSH2 0x100 EXP SWAP1 DIV PUSH1 0xFF AND ISZERO PUSH2 0x41CC JUMPI PUSH2 0x41C7 DUP4 PUSH2 0x5F80 JUMP JUMPDEST PUSH2 0x42E5 JUMP JUMPDEST DUP3 PUSH20 0xFFFFFFFFFFFFFFFFFFFFFFFFFFFFFFFFFFFFFFFF AND PUSH4 0x52D1902D PUSH1 0x40 MLOAD DUP2 PUSH4 0xFFFFFFFF AND PUSH1 0xE0 SHL DUP2 MSTORE PUSH1 0x4 ADD PUSH1 0x20 PUSH1 0x40 MLOAD DUP1 DUP4 SUB DUP2 DUP7 GAS STATICCALL SWAP3 POP POP POP DUP1 ISZERO PUSH2 0x4234 JUMPI POP PUSH1 0x40 MLOAD RETURNDATASIZE PUSH1 0x1F NOT PUSH1 0x1F DUP3 ADD AND DUP3 ADD DUP1 PUSH1 0x40 MSTORE POP DUP2 ADD SWAP1 PUSH2 0x4231 SWAP2 SWAP1 PUSH2 0x8057 JUMP JUMPDEST PUSH1 0x1 JUMPDEST PUSH2 0x4273 JUMPI PUSH1 0x40 MLOAD PUSH32 0x8C379A000000000000000000000000000000000000000000000000000000000 DUP2 MSTORE PUSH1 0x4 ADD PUSH2 0x426A SWAP1 PUSH2 0x80F6 JUMP JUMPDEST PUSH1 0x40 MLOAD DUP1 SWAP2 SUB SWAP1 REVERT JUMPDEST PUSH32 0x360894A13BA1A3210667C828492DB98DCA3E2076CC3735A920A3CA505D382BBC PUSH1 0x0 SHL DUP2 EQ PUSH2 0x42D8 JUMPI PUSH1 0x40 MLOAD PUSH32 0x8C379A000000000000000000000000000000000000000000000000000000000 DUP2 MSTORE PUSH1 0x4 ADD PUSH2 0x42CF SWAP1 PUSH2 0x8188 JUMP JUMPDEST PUSH1 0x40 MLOAD DUP1 SWAP2 SUB SWAP1 REVERT JUMPDEST POP PUSH2 0x42E4 DUP4 DUP4 DUP4 PUSH2 0x6039 JUMP JUMPDEST JUMPDEST POP POP POP JUMP JUMPDEST PUSH1 0x0 DUP1 PUSH20 0xFFFFFFFFFFFFFFFFFFFFFFFFFFFFFFFFFFFFFFFF AND DUP4 PUSH20 0xFFFFFFFFFFFFFFFFFFFFFFFFFFFFFFFFFFFFFFFF AND SUB PUSH2 0x435A JUMPI PUSH1 0x40 MLOAD PUSH32 0x8C379A000000000000000000000000000000000000000000000000000000000 DUP2 MSTORE PUSH1 0x4 ADD PUSH2 0x4351 SWAP1 PUSH2 0x81F4 JUMP JUMPDEST PUSH1 0x40 MLOAD DUP1 SWAP2 SUB SWAP1 REVERT JUMPDEST PUSH1 0x0 DUP4 SWAP1 POP PUSH1 0x0 JUMPDEST PUSH2 0x10D DUP1 SLOAD SWAP1 POP DUP2 LT ISZERO PUSH2 0x4427 JUMPI DUP4 PUSH20 0xFFFFFFFFFFFFFFFFFFFFFFFFFFFFFFFFFFFFFFFF AND DUP3 PUSH20 0xFFFFFFFFFFFFFFFFFFFFFFFFFFFFFFFFFFFFFFFF AND SUB PUSH2 0x43AE JUMPI PUSH1 0x1 SWAP3 POP POP POP PUSH2 0x442E JUMP JUMPDEST PUSH2 0x111 PUSH1 0x0 DUP4 PUSH20 0xFFFFFFFFFFFFFFFFFFFFFFFFFFFFFFFFFFFFFFFF AND PUSH20 0xFFFFFFFFFFFFFFFFFFFFFFFFFFFFFFFFFFFFFFFF AND DUP2 MSTORE PUSH1 0x20 ADD SWAP1 DUP2 MSTORE PUSH1 0x20 ADD PUSH1 0x0 KECCAK256 PUSH1 0x0 ADD PUSH1 0x0 SWAP1 SLOAD SWAP1 PUSH2 0x100 EXP SWAP1 DIV PUSH20 0xFFFFFFFFFFFFFFFFFFFFFFFFFFFFFFFFFFFFFFFF AND SWAP2 POP DUP1 DUP1 PUSH2 0x441F SWAP1 PUSH2 0x7619 JUMP JUMPDEST SWAP2 POP POP PUSH2 0x4362 JUMP JUMPDEST POP PUSH1 0x0 SWAP2 POP POP JUMPDEST SWAP3 SWAP2 POP POP JUMP JUMPDEST PUSH1 0x0 PUSH2 0x111 PUSH1 0x0 DUP4 PUSH20 0xFFFFFFFFFFFFFFFFFFFFFFFFFFFFFFFFFFFFFFFF AND PUSH20 0xFFFFFFFFFFFFFFFFFFFFFFFFFFFFFFFFFFFFFFFF AND DUP2 MSTORE PUSH1 0x20 ADD SWAP1 DUP2 MSTORE PUSH1 0x20 ADD PUSH1 0x0 KECCAK256 PUSH1 0x3 ADD DUP1 SLOAD SWAP1 POP SWAP1 POP SWAP2 SWAP1 POP JUMP JUMPDEST PUSH1 0x0 TIMESTAMP SWAP1 POP SWAP1 JUMP JUMPDEST PUSH2 0x4494 PUSH2 0x2770 JUMP JUMPDEST ISZERO PUSH2 0x44D4 JUMPI PUSH1 0x40 MLOAD PUSH32 0x8C379A000000000000000000000000000000000000000000000000000000000 DUP2 MSTORE PUSH1 0x4 ADD PUSH2 0x44CB SWAP1 PUSH2 0x8260 JUMP JUMPDEST PUSH1 0x40 MLOAD DUP1 SWAP2 SUB SWAP1 REVERT JUMPDEST JUMP JUMPDEST PUSH1 0x0 DUP2 DUP4 PUSH2 0x44E4 SWAP2 SWAP1 PUSH2 0x729F JUMP JUMPDEST SWAP1 POP SWAP3 SWAP2 POP POP JUMP JUMPDEST PUSH1 0x0 DUP2 DUP4 PUSH2 0x44FA SWAP2 SWAP1 PUSH2 0x70F0 JUMP JUMPDEST SWAP1 POP SWAP3 SWAP2 POP POP JUMP JUMPDEST PUSH1 0x0 DUP2 DUP4 PUSH2 0x4510 SWAP2 SWAP1 PUSH2 0x7727 JUMP JUMPDEST SWAP1 POP SWAP3 SWAP2 POP POP JUMP JUMPDEST PUSH1 0x0 DUP1 DUP4 SWAP1 POP PUSH1 0x0 DUP4 SWAP1 POP PUSH2 0x117 SLOAD PUSH2 0x4530 DUP7 PUSH2 0x4434 JUMP JUMPDEST GT ISZERO PUSH2 0x4571 JUMPI PUSH1 0x40 MLOAD PUSH32 0x8C379A000000000000000000000000000000000000000000000000000000000 DUP2 MSTORE PUSH1 0x4 ADD PUSH2 0x4568 SWAP1 PUSH2 0x8318 JUMP JUMPDEST PUSH1 0x40 MLOAD DUP1 SWAP2 SUB SWAP1 REVERT JUMPDEST PUSH1 0x0 PUSH20 0xFFFFFFFFFFFFFFFFFFFFFFFFFFFFFFFFFFFFFFFF AND DUP3 PUSH20 0xFFFFFFFFFFFFFFFFFFFFFFFFFFFFFFFFFFFFFFFF AND EQ DUP1 PUSH2 0x45D8 JUMPI POP PUSH1 0x0 PUSH20 0xFFFFFFFFFFFFFFFFFFFFFFFFFFFFFFFFFFFFFFFF AND DUP2 PUSH20 0xFFFFFFFFFFFFFFFFFFFFFFFFFFFFFFFFFFFFFFFF AND EQ JUMPDEST ISZERO PUSH2 0x4656 JUMPI PUSH1 0x40 MLOAD PUSH2 0x45E9 SWAP1 PUSH2 0x83AA JUMP JUMPDEST PUSH1 0x40 MLOAD DUP1 SWAP2 SUB SWAP1 KECCAK256 DUP3 PUSH20 0xFFFFFFFFFFFFFFFFFFFFFFFFFFFFFFFFFFFFFFFF AND CALLER PUSH20 0xFFFFFFFFFFFFFFFFFFFFFFFFFFFFFFFFFFFFFFFF AND PUSH32 0x63A04625EE50186097257E079ACE9A312982F1976BDFFA769DB82A83C2FFC006 PUSH1 0x40 MLOAD PUSH1 0x40 MLOAD DUP1 SWAP2 SUB SWAP1 LOG4 PUSH1 0x0 SWAP3 POP POP POP PUSH2 0x4A73 JUMP JUMPDEST PUSH2 0x4660 DUP3 CALLER PUSH2 0x42EA JUMP JUMPDEST DUP1 PUSH2 0x4671 JUMPI POP PUSH2 0x4670 DUP2 CALLER PUSH2 0x42EA JUMP JUMPDEST JUMPDEST ISZERO PUSH2 0x46EF JUMPI PUSH1 0x40 MLOAD PUSH2 0x4682 SWAP1 PUSH2 0x8431 JUMP JUMPDEST PUSH1 0x40 MLOAD DUP1 SWAP2 SUB SWAP1 KECCAK256 DUP3 PUSH20 0xFFFFFFFFFFFFFFFFFFFFFFFFFFFFFFFFFFFFFFFF AND CALLER PUSH20 0xFFFFFFFFFFFFFFFFFFFFFFFFFFFFFFFFFFFFFFFF AND PUSH32 0x63A04625EE50186097257E079ACE9A312982F1976BDFFA769DB82A83C2FFC006 PUSH1 0x40 MLOAD PUSH1 0x40 MLOAD DUP1 SWAP2 SUB SWAP1 LOG4 PUSH1 0x0 SWAP3 POP POP POP PUSH2 0x4A73 JUMP JUMPDEST PUSH1 0x0 PUSH20 0xFFFFFFFFFFFFFFFFFFFFFFFFFFFFFFFFFFFFFFFF AND PUSH2 0x111 PUSH1 0x0 CALLER PUSH20 0xFFFFFFFFFFFFFFFFFFFFFFFFFFFFFFFFFFFFFFFF AND PUSH20 0xFFFFFFFFFFFFFFFFFFFFFFFFFFFFFFFFFFFFFFFF AND DUP2 MSTORE PUSH1 0x20 ADD SWAP1 DUP2 MSTORE PUSH1 0x20 ADD PUSH1 0x0 KECCAK256 PUSH1 0x0 ADD PUSH1 0x0 SWAP1 SLOAD SWAP1 PUSH2 0x100 EXP SWAP1 DIV PUSH20 0xFFFFFFFFFFFFFFFFFFFFFFFFFFFFFFFFFFFFFFFF AND PUSH20 0xFFFFFFFFFFFFFFFFFFFFFFFFFFFFFFFFFFFFFFFF AND EQ ISZERO DUP1 ISZERO PUSH2 0x481F JUMPI POP PUSH1 0x0 PUSH20 0xFFFFFFFFFFFFFFFFFFFFFFFFFFFFFFFFFFFFFFFF AND PUSH2 0x111 PUSH1 0x0 CALLER PUSH20 0xFFFFFFFFFFFFFFFFFFFFFFFFFFFFFFFFFFFFFFFF AND PUSH20 0xFFFFFFFFFFFFFFFFFFFFFFFFFFFFFFFFFFFFFFFF AND DUP2 MSTORE PUSH1 0x20 ADD SWAP1 DUP2 MSTORE PUSH1 0x20 ADD PUSH1 0x0 KECCAK256 PUSH1 0x1 ADD PUSH1 0x0 SWAP1 SLOAD SWAP1 PUSH2 0x100 EXP SWAP1 DIV PUSH20 0xFFFFFFFFFFFFFFFFFFFFFFFFFFFFFFFFFFFFFFFF AND PUSH20 0xFFFFFFFFFFFFFFFFFFFFFFFFFFFFFFFFFFFFFFFF AND EQ ISZERO JUMPDEST ISZERO PUSH2 0x489D JUMPI PUSH1 0x40 MLOAD PUSH2 0x4830 SWAP1 PUSH2 0x84B8 JUMP JUMPDEST PUSH1 0x40 MLOAD DUP1 SWAP2 SUB SWAP1 KECCAK256 DUP3 PUSH20 0xFFFFFFFFFFFFFFFFFFFFFFFFFFFFFFFFFFFFFFFF AND CALLER PUSH20 0xFFFFFFFFFFFFFFFFFFFFFFFFFFFFFFFFFFFFFFFF AND PUSH32 0x63A04625EE50186097257E079ACE9A312982F1976BDFFA769DB82A83C2FFC006 PUSH1 0x40 MLOAD PUSH1 0x40 MLOAD DUP1 SWAP2 SUB SWAP1 LOG4 PUSH1 0x0 SWAP3 POP POP POP PUSH2 0x4A73 JUMP JUMPDEST PUSH1 0x0 PUSH2 0x111 PUSH1 0x0 CALLER PUSH20 0xFFFFFFFFFFFFFFFFFFFFFFFFFFFFFFFFFFFFFFFF AND PUSH20 0xFFFFFFFFFFFFFFFFFFFFFFFFFFFFFFFFFFFFFFFF AND DUP2 MSTORE PUSH1 0x20 ADD SWAP1 DUP2 MSTORE PUSH1 0x20 ADD PUSH1 0x0 KECCAK256 SWAP1 POP PUSH1 0x0 PUSH2 0x111 PUSH1 0x0 DUP6 PUSH20 0xFFFFFFFFFFFFFFFFFFFFFFFFFFFFFFFFFFFFFFFF AND PUSH20 0xFFFFFFFFFFFFFFFFFFFFFFFFFFFFFFFFFFFFFFFF AND DUP2 MSTORE PUSH1 0x20 ADD SWAP1 DUP2 MSTORE PUSH1 0x20 ADD PUSH1 0x0 KECCAK256 SWAP1 POP DUP4 DUP3 PUSH1 0x0 ADD PUSH1 0x0 PUSH2 0x100 EXP DUP2 SLOAD DUP2 PUSH20 0xFFFFFFFFFFFFFFFFFFFFFFFFFFFFFFFFFFFFFFFF MUL NOT AND SWAP1 DUP4 PUSH20 0xFFFFFFFFFFFFFFFFFFFFFFFFFFFFFFFFFFFFFFFF AND MUL OR SWAP1 SSTORE POP DUP3 DUP3 PUSH1 0x1 ADD PUSH1 0x0 PUSH2 0x100 EXP DUP2 SLOAD DUP2 PUSH20 0xFFFFFFFFFFFFFFFFFFFFFFFFFFFFFFFFFFFFFFFF MUL NOT AND SWAP1 DUP4 PUSH20 0xFFFFFFFFFFFFFFFFFFFFFFFFFFFFFFFFFFFFFFFF AND MUL OR SWAP1 SSTORE POP DUP1 PUSH1 0x3 ADD CALLER SWAP1 DUP1 PUSH1 0x1 DUP2 SLOAD ADD DUP1 DUP3 SSTORE DUP1 SWAP2 POP POP PUSH1 0x1 SWAP1 SUB SWAP1 PUSH1 0x0 MSTORE PUSH1 0x20 PUSH1 0x0 KECCAK256 ADD PUSH1 0x0 SWAP1 SWAP2 SWAP1 SWAP2 SWAP1 SWAP2 PUSH2 0x100 EXP DUP2 SLOAD DUP2 PUSH20 0xFFFFFFFFFFFFFFFFFFFFFFFFFFFFFFFFFFFFFFFF MUL NOT AND SWAP1 DUP4 PUSH20 0xFFFFFFFFFFFFFFFFFFFFFFFFFFFFFFFFFFFFFFFF AND MUL OR SWAP1 SSTORE POP DUP4 PUSH20 0xFFFFFFFFFFFFFFFFFFFFFFFFFFFFFFFFFFFFFFFF AND CALLER PUSH20 0xFFFFFFFFFFFFFFFFFFFFFFFFFFFFFFFFFFFFFFFF AND PUSH32 0xFAF63637882FF2D63CA76881CF92FB857130E36F350C926F9CC884B499B42B77 PUSH1 0x40 MLOAD PUSH1 0x40 MLOAD DUP1 SWAP2 SUB SWAP1 LOG3 PUSH1 0x1 SWAP5 POP POP POP POP POP JUMPDEST SWAP3 SWAP2 POP POP JUMP JUMPDEST PUSH1 0x0 DUP1 PUSH2 0x111 PUSH1 0x0 DUP5 PUSH20 0xFFFFFFFFFFFFFFFFFFFFFFFFFFFFFFFFFFFFFFFF AND PUSH20 0xFFFFFFFFFFFFFFFFFFFFFFFFFFFFFFFFFFFFFFFF AND DUP2 MSTORE PUSH1 0x20 ADD SWAP1 DUP2 MSTORE PUSH1 0x20 ADD PUSH1 0x0 KECCAK256 PUSH1 0x40 MLOAD DUP1 PUSH2 0x1A0 ADD PUSH1 0x40 MSTORE SWAP1 DUP2 PUSH1 0x0 DUP3 ADD PUSH1 0x0 SWAP1 SLOAD SWAP1 PUSH2 0x100 EXP SWAP1 DIV PUSH20 0xFFFFFFFFFFFFFFFFFFFFFFFFFFFFFFFFFFFFFFFF AND PUSH20 0xFFFFFFFFFFFFFFFFFFFFFFFFFFFFFFFFFFFFFFFF AND PUSH20 0xFFFFFFFFFFFFFFFFFFFFFFFFFFFFFFFFFFFFFFFF AND DUP2 MSTORE PUSH1 0x20 ADD PUSH1 0x1 DUP3 ADD PUSH1 0x0 SWAP1 SLOAD SWAP1 PUSH2 0x100 EXP SWAP1 DIV PUSH20 0xFFFFFFFFFFFFFFFFFFFFFFFFFFFFFFFFFFFFFFFF AND PUSH20 0xFFFFFFFFFFFFFFFFFFFFFFFFFFFFFFFFFFFFFFFF AND PUSH20 0xFFFFFFFFFFFFFFFFFFFFFFFFFFFFFFFFFFFFFFFF AND DUP2 MSTORE PUSH1 0x20 ADD PUSH1 0x2 DUP3 ADD SLOAD DUP2 MSTORE PUSH1 0x20 ADD PUSH1 0x3 DUP3 ADD DUP1 SLOAD DUP1 PUSH1 0x20 MUL PUSH1 0x20 ADD PUSH1 0x40 MLOAD SWAP1 DUP2 ADD PUSH1 0x40 MSTORE DUP1 SWAP3 SWAP2 SWAP1 DUP2 DUP2 MSTORE PUSH1 0x20 ADD DUP3 DUP1 SLOAD DUP1 ISZERO PUSH2 0x4C03 JUMPI PUSH1 0x20 MUL DUP3 ADD SWAP2 SWAP1 PUSH1 0x0 MSTORE PUSH1 0x20 PUSH1 0x0 KECCAK256 SWAP1 JUMPDEST DUP2 PUSH1 0x0 SWAP1 SLOAD SWAP1 PUSH2 0x100 EXP SWAP1 DIV PUSH20 0xFFFFFFFFFFFFFFFFFFFFFFFFFFFFFFFFFFFFFFFF AND PUSH20 0xFFFFFFFFFFFFFFFFFFFFFFFFFFFFFFFFFFFFFFFF AND DUP2 MSTORE PUSH1 0x20 ADD SWAP1 PUSH1 0x1 ADD SWAP1 DUP1 DUP4 GT PUSH2 0x4BB9 JUMPI JUMPDEST POP POP POP POP POP DUP2 MSTORE PUSH1 0x20 ADD PUSH1 0x4 DUP3 ADD SLOAD DUP2 MSTORE PUSH1 0x20 ADD PUSH1 0x5 DUP3 ADD SLOAD DUP2 MSTORE PUSH1 0x20 ADD PUSH1 0x6 DUP3 ADD SLOAD DUP2 MSTORE PUSH1 0x20 ADD PUSH1 0x7 DUP3 ADD SLOAD DUP2 MSTORE PUSH1 0x20 ADD PUSH1 0x8 DUP3 ADD SLOAD DUP2 MSTORE PUSH1 0x20 ADD PUSH1 0x9 DUP3 ADD DUP1 SLOAD DUP1 PUSH1 0x20 MUL PUSH1 0x20 ADD PUSH1 0x40 MLOAD SWAP1 DUP2 ADD PUSH1 0x40 MSTORE DUP1 SWAP3 SWAP2 SWAP1 DUP2 DUP2 MSTORE PUSH1 0x20 ADD DUP3 DUP1 SLOAD DUP1 ISZERO PUSH2 0x4C8D JUMPI PUSH1 0x20 MUL DUP3 ADD SWAP2 SWAP1 PUSH1 0x0 MSTORE PUSH1 0x20 PUSH1 0x0 KECCAK256 SWAP1 JUMPDEST DUP2 SLOAD DUP2 MSTORE PUSH1 0x20 ADD SWAP1 PUSH1 0x1 ADD SWAP1 DUP1 DUP4 GT PUSH2 0x4C79 JUMPI JUMPDEST POP POP POP POP POP DUP2 MSTORE PUSH1 0x20 ADD PUSH1 0xA DUP3 ADD DUP1 SLOAD DUP1 PUSH1 0x20 MUL PUSH1 0x20 ADD PUSH1 0x40 MLOAD SWAP1 DUP2 ADD PUSH1 0x40 MSTORE DUP1 SWAP3 SWAP2 SWAP1 DUP2 DUP2 MSTORE PUSH1 0x20 ADD DUP3 DUP1 SLOAD DUP1 ISZERO PUSH2 0x4CE5 JUMPI PUSH1 0x20 MUL DUP3 ADD SWAP2 SWAP1 PUSH1 0x0 MSTORE PUSH1 0x20 PUSH1 0x0 KECCAK256 SWAP1 JUMPDEST DUP2 SLOAD DUP2 MSTORE PUSH1 0x20 ADD SWAP1 PUSH1 0x1 ADD SWAP1 DUP1 DUP4 GT PUSH2 0x4CD1 JUMPI JUMPDEST POP POP POP POP POP DUP2 MSTORE PUSH1 0x20 ADD PUSH1 0xB DUP3 ADD DUP1 SLOAD DUP1 PUSH1 0x20 MUL PUSH1 0x20 ADD PUSH1 0x40 MLOAD SWAP1 DUP2 ADD PUSH1 0x40 MSTORE DUP1 SWAP3 SWAP2 SWAP1 DUP2 DUP2 MSTORE PUSH1 0x20 ADD DUP3 DUP1 SLOAD DUP1 ISZERO PUSH2 0x4D3D JUMPI PUSH1 0x20 MUL DUP3 ADD SWAP2 SWAP1 PUSH1 0x0 MSTORE PUSH1 0x20 PUSH1 0x0 KECCAK256 SWAP1 JUMPDEST DUP2 SLOAD DUP2 MSTORE PUSH1 0x20 ADD SWAP1 PUSH1 0x1 ADD SWAP1 DUP1 DUP4 GT PUSH2 0x4D29 JUMPI JUMPDEST POP POP POP POP POP DUP2 MSTORE PUSH1 0x20 ADD PUSH1 0xC DUP3 ADD DUP1 SLOAD DUP1 PUSH1 0x20 MUL PUSH1 0x20 ADD PUSH1 0x40 MLOAD SWAP1 DUP2 ADD PUSH1 0x40 MSTORE DUP1 SWAP3 SWAP2 SWAP1 DUP2 DUP2 MSTORE PUSH1 0x20 ADD DUP3 DUP1 SLOAD DUP1 ISZERO PUSH2 0x4D95 JUMPI PUSH1 0x20 MUL DUP3 ADD SWAP2 SWAP1 PUSH1 0x0 MSTORE PUSH1 0x20 PUSH1 0x0 KECCAK256 SWAP1 JUMPDEST DUP2 SLOAD DUP2 MSTORE PUSH1 0x20 ADD SWAP1 PUSH1 0x1 ADD SWAP1 DUP1 DUP4 GT PUSH2 0x4D81 JUMPI JUMPDEST POP POP POP POP POP DUP2 MSTORE POP POP SWAP1 POP PUSH1 0x0 DUP1 JUMPDEST PUSH2 0x10D DUP1 SLOAD SWAP1 POP DUP2 LT ISZERO PUSH2 0x53A1 JUMPI PUSH1 0x0 DUP4 PUSH1 0x0 ADD MLOAD SWAP1 POP PUSH1 0x0 DUP5 PUSH1 0x20 ADD MLOAD SWAP1 POP PUSH1 0x0 PUSH2 0x111 PUSH1 0x0 DUP8 PUSH1 0x0 ADD MLOAD PUSH20 0xFFFFFFFFFFFFFFFFFFFFFFFFFFFFFFFFFFFFFFFF AND PUSH20 0xFFFFFFFFFFFFFFFFFFFFFFFFFFFFFFFFFFFFFFFF AND DUP2 MSTORE PUSH1 0x20 ADD SWAP1 DUP2 MSTORE PUSH1 0x20 ADD PUSH1 0x0 KECCAK256 SWAP1 POP PUSH1 0x0 PUSH2 0x111 PUSH1 0x0 DUP9 PUSH1 0x20 ADD MLOAD PUSH20 0xFFFFFFFFFFFFFFFFFFFFFFFFFFFFFFFFFFFFFFFF AND PUSH20 0xFFFFFFFFFFFFFFFFFFFFFFFFFFFFFFFFFFFFFFFF AND DUP2 MSTORE PUSH1 0x20 ADD SWAP1 DUP2 MSTORE PUSH1 0x20 ADD PUSH1 0x0 KECCAK256 SWAP1 POP PUSH1 0x0 PUSH20 0xFFFFFFFFFFFFFFFFFFFFFFFFFFFFFFFFFFFFFFFF AND DUP5 PUSH20 0xFFFFFFFFFFFFFFFFFFFFFFFFFFFFFFFFFFFFFFFF AND EQ DUP1 PUSH2 0x4EBB JUMPI POP PUSH1 0x0 PUSH20 0xFFFFFFFFFFFFFFFFFFFFFFFFFFFFFFFFFFFFFFFF AND DUP4 PUSH20 0xFFFFFFFFFFFFFFFFFFFFFFFFFFFFFFFFFFFFFFFF AND EQ JUMPDEST ISZERO PUSH2 0x4EC9 JUMPI POP POP POP POP PUSH2 0x53A1 JUMP JUMPDEST PUSH1 0x0 PUSH2 0x4F12 PUSH2 0x10F SLOAD PUSH2 0x4F04 PUSH2 0x10D DUP10 DUP2 SLOAD DUP2 LT PUSH2 0x4EEA JUMPI PUSH2 0x4EE9 PUSH2 0x7470 JUMP JUMPDEST JUMPDEST SWAP1 PUSH1 0x0 MSTORE PUSH1 0x20 PUSH1 0x0 KECCAK256 ADD SLOAD DUP15 PUSH2 0x44D6 SWAP1 SWAP2 SWAP1 PUSH4 0xFFFFFFFF AND JUMP JUMPDEST PUSH2 0x44EC SWAP1 SWAP2 SWAP1 PUSH4 0xFFFFFFFF AND JUMP JUMPDEST SWAP1 POP DUP4 PUSH20 0xFFFFFFFFFFFFFFFFFFFFFFFFFFFFFFFFFFFFFFFF AND DUP6 PUSH20 0xFFFFFFFFFFFFFFFFFFFFFFFFFFFFFFFFFFFFFFFF AND EQ ISZERO DUP1 ISZERO PUSH2 0x4F7D JUMPI POP PUSH1 0x0 PUSH20 0xFFFFFFFFFFFFFFFFFFFFFFFFFFFFFFFFFFFFFFFF AND DUP5 PUSH20 0xFFFFFFFFFFFFFFFFFFFFFFFFFFFFFFFFFFFFFFFF AND EQ ISZERO JUMPDEST DUP1 ISZERO PUSH2 0x4F8D JUMPI POP PUSH1 0x0 DUP9 PUSH1 0x40 ADD MLOAD EQ JUMPDEST DUP1 ISZERO PUSH2 0x4F99 JUMPI POP PUSH1 0x0 DUP7 EQ JUMPDEST ISZERO PUSH2 0x4FEE JUMPI PUSH1 0x1 DUP9 PUSH1 0x40 ADD DUP2 DUP2 MSTORE POP POP PUSH2 0x4FBD PUSH1 0x2 DUP3 PUSH2 0x44EC SWAP1 SWAP2 SWAP1 PUSH4 0xFFFFFFFF AND JUMP JUMPDEST DUP3 PUSH1 0x8 ADD PUSH1 0x0 DUP3 DUP3 SLOAD PUSH2 0x4FD0 SWAP2 SWAP1 PUSH2 0x76F3 JUMP JUMPDEST SWAP3 POP POP DUP2 SWAP1 SSTORE POP PUSH2 0x4FEB PUSH1 0x2 DUP3 PUSH2 0x44EC SWAP1 SWAP2 SWAP1 PUSH4 0xFFFFFFFF AND JUMP JUMPDEST SWAP1 POP JUMPDEST DUP1 DUP4 PUSH1 0x8 ADD PUSH1 0x0 DUP3 DUP3 SLOAD PUSH2 0x5002 SWAP2 SWAP1 PUSH2 0x76F3 JUMP JUMPDEST SWAP3 POP POP DUP2 SWAP1 SSTORE POP DUP11 DUP4 PUSH1 0x6 ADD PUSH1 0x0 DUP3 DUP3 SLOAD PUSH2 0x501D SWAP2 SWAP1 PUSH2 0x76F3 JUMP JUMPDEST SWAP3 POP POP DUP2 SWAP1 SSTORE POP DUP1 DUP8 PUSH2 0x5030 SWAP2 SWAP1 PUSH2 0x76F3 JUMP JUMPDEST SWAP7 POP DUP1 DUP6 PUSH20 0xFFFFFFFFFFFFFFFFFFFFFFFFFFFFFFFFFFFFFFFF AND DUP12 PUSH20 0xFFFFFFFFFFFFFFFFFFFFFFFFFFFFFFFFFFFFFFFF AND PUSH32 0x4D2BA4492B0C23A552760AD8F123604F2E008A55F8435E777CE0FA59FB39C831 PUSH1 0x1 DUP11 PUSH2 0x508F SWAP2 SWAP1 PUSH2 0x76F3 JUMP JUMPDEST PUSH1 0x40 MLOAD PUSH2 0x509C SWAP2 SWAP1 PUSH2 0x8519 JUMP JUMPDEST PUSH1 0x40 MLOAD DUP1 SWAP2 SUB SWAP1 LOG4 DUP3 PUSH1 0x40 MLOAD DUP1 PUSH2 0x1A0 ADD PUSH1 0x40 MSTORE SWAP1 DUP2 PUSH1 0x0 DUP3 ADD PUSH1 0x0 SWAP1 SLOAD SWAP1 PUSH2 0x100 EXP SWAP1 DIV PUSH20 0xFFFFFFFFFFFFFFFFFFFFFFFFFFFFFFFFFFFFFFFF AND PUSH20 0xFFFFFFFFFFFFFFFFFFFFFFFFFFFFFFFFFFFFFFFF AND PUSH20 0xFFFFFFFFFFFFFFFFFFFFFFFFFFFFFFFFFFFFFFFF AND DUP2 MSTORE PUSH1 0x20 ADD PUSH1 0x1 DUP3 ADD PUSH1 0x0 SWAP1 SLOAD SWAP1 PUSH2 0x100 EXP SWAP1 DIV PUSH20 0xFFFFFFFFFFFFFFFFFFFFFFFFFFFFFFFFFFFFFFFF AND PUSH20 0xFFFFFFFFFFFFFFFFFFFFFFFFFFFFFFFFFFFFFFFF AND PUSH20 0xFFFFFFFFFFFFFFFFFFFFFFFFFFFFFFFFFFFFFFFF AND DUP2 MSTORE PUSH1 0x20 ADD PUSH1 0x2 DUP3 ADD SLOAD DUP2 MSTORE PUSH1 0x20 ADD PUSH1 0x3 DUP3 ADD DUP1 SLOAD DUP1 PUSH1 0x20 MUL PUSH1 0x20 ADD PUSH1 0x40 MLOAD SWAP1 DUP2 ADD PUSH1 0x40 MSTORE DUP1 SWAP3 SWAP2 SWAP1 DUP2 DUP2 MSTORE PUSH1 0x20 ADD DUP3 DUP1 SLOAD DUP1 ISZERO PUSH2 0x51EC JUMPI PUSH1 0x20 MUL DUP3 ADD SWAP2 SWAP1 PUSH1 0x0 MSTORE PUSH1 0x20 PUSH1 0x0 KECCAK256 SWAP1 JUMPDEST DUP2 PUSH1 0x0 SWAP1 SLOAD SWAP1 PUSH2 0x100 EXP SWAP1 DIV PUSH20 0xFFFFFFFFFFFFFFFFFFFFFFFFFFFFFFFFFFFFFFFF AND PUSH20 0xFFFFFFFFFFFFFFFFFFFFFFFFFFFFFFFFFFFFFFFF AND DUP2 MSTORE PUSH1 0x20 ADD SWAP1 PUSH1 0x1 ADD SWAP1 DUP1 DUP4 GT PUSH2 0x51A2 JUMPI JUMPDEST POP POP POP POP POP DUP2 MSTORE PUSH1 0x20 ADD PUSH1 0x4 DUP3 ADD SLOAD DUP2 MSTORE PUSH1 0x20 ADD PUSH1 0x5 DUP3 ADD SLOAD DUP2 MSTORE PUSH1 0x20 ADD PUSH1 0x6 DUP3 ADD SLOAD DUP2 MSTORE PUSH1 0x20 ADD PUSH1 0x7 DUP3 ADD SLOAD DUP2 MSTORE PUSH1 0x20 ADD PUSH1 0x8 DUP3 ADD SLOAD DUP2 MSTORE PUSH1 0x20 ADD PUSH1 0x9 DUP3 ADD DUP1 SLOAD DUP1 PUSH1 0x20 MUL PUSH1 0x20 ADD PUSH1 0x40 MLOAD SWAP1 DUP2 ADD PUSH1 0x40 MSTORE DUP1 SWAP3 SWAP2 SWAP1 DUP2 DUP2 MSTORE PUSH1 0x20 ADD DUP3 DUP1 SLOAD DUP1 ISZERO PUSH2 0x5276 JUMPI PUSH1 0x20 MUL DUP3 ADD SWAP2 SWAP1 PUSH1 0x0 MSTORE PUSH1 0x20 PUSH1 0x0 KECCAK256 SWAP1 JUMPDEST DUP2 SLOAD DUP2 MSTORE PUSH1 0x20 ADD SWAP1 PUSH1 0x1 ADD SWAP1 DUP1 DUP4 GT PUSH2 0x5262 JUMPI JUMPDEST POP POP POP POP POP DUP2 MSTORE PUSH1 0x20 ADD PUSH1 0xA DUP3 ADD DUP1 SLOAD DUP1 PUSH1 0x20 MUL PUSH1 0x20 ADD PUSH1 0x40 MLOAD SWAP1 DUP2 ADD PUSH1 0x40 MSTORE DUP1 SWAP3 SWAP2 SWAP1 DUP2 DUP2 MSTORE PUSH1 0x20 ADD DUP3 DUP1 SLOAD DUP1 ISZERO PUSH2 0x52CE JUMPI PUSH1 0x20 MUL DUP3 ADD SWAP2 SWAP1 PUSH1 0x0 MSTORE PUSH1 0x20 PUSH1 0x0 KECCAK256 SWAP1 JUMPDEST DUP2 SLOAD DUP2 MSTORE PUSH1 0x20 ADD SWAP1 PUSH1 0x1 ADD SWAP1 DUP1 DUP4 GT PUSH2 0x52BA JUMPI JUMPDEST POP POP POP POP POP DUP2 MSTORE PUSH1 0x20 ADD PUSH1 0xB DUP3 ADD DUP1 SLOAD DUP1 PUSH1 0x20 MUL PUSH1 0x20 ADD PUSH1 0x40 MLOAD SWAP1 DUP2 ADD PUSH1 0x40 MSTORE DUP1 SWAP3 SWAP2 SWAP1 DUP2 DUP2 MSTORE PUSH1 0x20 ADD DUP3 DUP1 SLOAD DUP1 ISZERO PUSH2 0x5326 JUMPI PUSH1 0x20 MUL DUP3 ADD SWAP2 SWAP1 PUSH1 0x0 MSTORE PUSH1 0x20 PUSH1 0x0 KECCAK256 SWAP1 JUMPDEST DUP2 SLOAD DUP2 MSTORE PUSH1 0x20 ADD SWAP1 PUSH1 0x1 ADD SWAP1 DUP1 DUP4 GT PUSH2 0x5312 JUMPI JUMPDEST POP POP POP POP POP DUP2 MSTORE PUSH1 0x20 ADD PUSH1 0xC DUP3 ADD DUP1 SLOAD DUP1 PUSH1 0x20 MUL PUSH1 0x20 ADD PUSH1 0x40 MLOAD SWAP1 DUP2 ADD PUSH1 0x40 MSTORE DUP1 SWAP3 SWAP2 SWAP1 DUP2 DUP2 MSTORE PUSH1 0x20 ADD DUP3 DUP1 SLOAD DUP1 ISZERO PUSH2 0x537E JUMPI PUSH1 0x20 MUL DUP3 ADD SWAP2 SWAP1 PUSH1 0x0 MSTORE PUSH1 0x20 PUSH1 0x0 KECCAK256 SWAP1 JUMPDEST DUP2 SLOAD DUP2 MSTORE PUSH1 0x20 ADD SWAP1 PUSH1 0x1 ADD SWAP1 DUP1 DUP4 GT PUSH2 0x536A JUMPI JUMPDEST POP POP POP POP POP DUP2 MSTORE POP POP SWAP8 POP POP POP POP POP POP DUP1 DUP1 PUSH2 0x5399 SWAP1 PUSH2 0x7619 JUMP JUMPDEST SWAP2 POP POP PUSH2 0x4DA4 JUMP JUMPDEST POP DUP1 PUSH2 0x115 PUSH1 0x0 DUP3 DUP3 SLOAD PUSH2 0x53B5 SWAP2 SWAP1 PUSH2 0x76F3 JUMP JUMPDEST SWAP3 POP POP DUP2 SWAP1 SSTORE POP DUP1 SWAP3 POP POP POP SWAP3 SWAP2 POP POP JUMP JUMPDEST PUSH1 0x0 DUP1 PUSH2 0x111 PUSH1 0x0 DUP5 PUSH20 0xFFFFFFFFFFFFFFFFFFFFFFFFFFFFFFFFFFFFFFFF AND PUSH20 0xFFFFFFFFFFFFFFFFFFFFFFFFFFFFFFFFFFFFFFFF AND DUP2 MSTORE PUSH1 0x20 ADD SWAP1 DUP2 MSTORE PUSH1 0x20 ADD PUSH1 0x0 KECCAK256 PUSH1 0x40 MLOAD DUP1 PUSH2 0x1A0 ADD PUSH1 0x40 MSTORE SWAP1 DUP2 PUSH1 0x0 DUP3 ADD PUSH1 0x0 SWAP1 SLOAD SWAP1 PUSH2 0x100 EXP SWAP1 DIV PUSH20 0xFFFFFFFFFFFFFFFFFFFFFFFFFFFFFFFFFFFFFFFF AND PUSH20 0xFFFFFFFFFFFFFFFFFFFFFFFFFFFFFFFFFFFFFFFF AND PUSH20 0xFFFFFFFFFFFFFFFFFFFFFFFFFFFFFFFFFFFFFFFF AND DUP2 MSTORE PUSH1 0x20 ADD PUSH1 0x1 DUP3 ADD PUSH1 0x0 SWAP1 SLOAD SWAP1 PUSH2 0x100 EXP SWAP1 DIV PUSH20 0xFFFFFFFFFFFFFFFFFFFFFFFFFFFFFFFFFFFFFFFF AND PUSH20 0xFFFFFFFFFFFFFFFFFFFFFFFFFFFFFFFFFFFFFFFF AND PUSH20 0xFFFFFFFFFFFFFFFFFFFFFFFFFFFFFFFFFFFFFFFF AND DUP2 MSTORE PUSH1 0x20 ADD PUSH1 0x2 DUP3 ADD SLOAD DUP2 MSTORE PUSH1 0x20 ADD PUSH1 0x3 DUP3 ADD DUP1 SLOAD DUP1 PUSH1 0x20 MUL PUSH1 0x20 ADD PUSH1 0x40 MLOAD SWAP1 DUP2 ADD PUSH1 0x40 MSTORE DUP1 SWAP3 SWAP2 SWAP1 DUP2 DUP2 MSTORE PUSH1 0x20 ADD DUP3 DUP1 SLOAD DUP1 ISZERO PUSH2 0x5551 JUMPI PUSH1 0x20 MUL DUP3 ADD SWAP2 SWAP1 PUSH1 0x0 MSTORE PUSH1 0x20 PUSH1 0x0 KECCAK256 SWAP1 JUMPDEST DUP2 PUSH1 0x0 SWAP1 SLOAD SWAP1 PUSH2 0x100 EXP SWAP1 DIV PUSH20 0xFFFFFFFFFFFFFFFFFFFFFFFFFFFFFFFFFFFFFFFF AND PUSH20 0xFFFFFFFFFFFFFFFFFFFFFFFFFFFFFFFFFFFFFFFF AND DUP2 MSTORE PUSH1 0x20 ADD SWAP1 PUSH1 0x1 ADD SWAP1 DUP1 DUP4 GT PUSH2 0x5507 JUMPI JUMPDEST POP POP POP POP POP DUP2 MSTORE PUSH1 0x20 ADD PUSH1 0x4 DUP3 ADD SLOAD DUP2 MSTORE PUSH1 0x20 ADD PUSH1 0x5 DUP3 ADD SLOAD DUP2 MSTORE PUSH1 0x20 ADD PUSH1 0x6 DUP3 ADD SLOAD DUP2 MSTORE PUSH1 0x20 ADD PUSH1 0x7 DUP3 ADD SLOAD DUP2 MSTORE PUSH1 0x20 ADD PUSH1 0x8 DUP3 ADD SLOAD DUP2 MSTORE PUSH1 0x20 ADD PUSH1 0x9 DUP3 ADD DUP1 SLOAD DUP1 PUSH1 0x20 MUL PUSH1 0x20 ADD PUSH1 0x40 MLOAD SWAP1 DUP2 ADD PUSH1 0x40 MSTORE DUP1 SWAP3 SWAP2 SWAP1 DUP2 DUP2 MSTORE PUSH1 0x20 ADD DUP3 DUP1 SLOAD DUP1 ISZERO PUSH2 0x55DB JUMPI PUSH1 0x20 MUL DUP3 ADD SWAP2 SWAP1 PUSH1 0x0 MSTORE PUSH1 0x20 PUSH1 0x0 KECCAK256 SWAP1 JUMPDEST DUP2 SLOAD DUP2 MSTORE PUSH1 0x20 ADD SWAP1 PUSH1 0x1 ADD SWAP1 DUP1 DUP4 GT PUSH2 0x55C7 JUMPI JUMPDEST POP POP POP POP POP DUP2 MSTORE PUSH1 0x20 ADD PUSH1 0xA DUP3 ADD DUP1 SLOAD DUP1 PUSH1 0x20 MUL PUSH1 0x20 ADD PUSH1 0x40 MLOAD SWAP1 DUP2 ADD PUSH1 0x40 MSTORE DUP1 SWAP3 SWAP2 SWAP1 DUP2 DUP2 MSTORE PUSH1 0x20 ADD DUP3 DUP1 SLOAD DUP1 ISZERO PUSH2 0x5633 JUMPI PUSH1 0x20 MUL DUP3 ADD SWAP2 SWAP1 PUSH1 0x0 MSTORE PUSH1 0x20 PUSH1 0x0 KECCAK256 SWAP1 JUMPDEST DUP2 SLOAD DUP2 MSTORE PUSH1 0x20 ADD SWAP1 PUSH1 0x1 ADD SWAP1 DUP1 DUP4 GT PUSH2 0x561F JUMPI JUMPDEST POP POP POP POP POP DUP2 MSTORE PUSH1 0x20 ADD PUSH1 0xB DUP3 ADD DUP1 SLOAD DUP1 PUSH1 0x20 MUL PUSH1 0x20 ADD PUSH1 0x40 MLOAD SWAP1 DUP2 ADD PUSH1 0x40 MSTORE DUP1 SWAP3 SWAP2 SWAP1 DUP2 DUP2 MSTORE PUSH1 0x20 ADD DUP3 DUP1 SLOAD DUP1 ISZERO PUSH2 0x568B JUMPI PUSH1 0x20 MUL DUP3 ADD SWAP2 SWAP1 PUSH1 0x0 MSTORE PUSH1 0x20 PUSH1 0x0 KECCAK256 SWAP1 JUMPDEST DUP2 SLOAD DUP2 MSTORE PUSH1 0x20 ADD SWAP1 PUSH1 0x1 ADD SWAP1 DUP1 DUP4 GT PUSH2 0x5677 JUMPI JUMPDEST POP POP POP POP POP DUP2 MSTORE PUSH1 0x20 ADD PUSH1 0xC DUP3 ADD DUP1 SLOAD DUP1 PUSH1 0x20 MUL PUSH1 0x20 ADD PUSH1 0x40 MLOAD SWAP1 DUP2 ADD PUSH1 0x40 MSTORE DUP1 SWAP3 SWAP2 SWAP1 DUP2 DUP2 MSTORE PUSH1 0x20 ADD DUP3 DUP1 SLOAD DUP1 ISZERO PUSH2 0x56E3 JUMPI PUSH1 0x20 MUL DUP3 ADD SWAP2 SWAP1 PUSH1 0x0 MSTORE PUSH1 0x20 PUSH1 0x0 KECCAK256 SWAP1 JUMPDEST DUP2 SLOAD DUP2 MSTORE PUSH1 0x20 ADD SWAP1 PUSH1 0x1 ADD SWAP1 DUP1 DUP4 GT PUSH2 0x56CF JUMPI JUMPDEST POP POP POP POP POP DUP2 MSTORE POP POP SWAP1 POP PUSH1 0x0 DUP1 JUMPDEST PUSH2 0x10D DUP1 SLOAD SWAP1 POP DUP2 LT ISZERO PUSH2 0x5CEF JUMPI PUSH1 0x0 DUP4 PUSH1 0x0 ADD MLOAD SWAP1 POP PUSH1 0x0 DUP5 PUSH1 0x20 ADD MLOAD SWAP1 POP PUSH1 0x0 PUSH2 0x111 PUSH1 0x0 DUP8 PUSH1 0x0 ADD MLOAD PUSH20 0xFFFFFFFFFFFFFFFFFFFFFFFFFFFFFFFFFFFFFFFF AND PUSH20 0xFFFFFFFFFFFFFFFFFFFFFFFFFFFFFFFFFFFFFFFF AND DUP2 MSTORE PUSH1 0x20 ADD SWAP1 DUP2 MSTORE PUSH1 0x20 ADD PUSH1 0x0 KECCAK256 SWAP1 POP PUSH1 0x0 PUSH2 0x111 PUSH1 0x0 DUP9 PUSH1 0x20 ADD MLOAD PUSH20 0xFFFFFFFFFFFFFFFFFFFFFFFFFFFFFFFFFFFFFFFF AND PUSH20 0xFFFFFFFFFFFFFFFFFFFFFFFFFFFFFFFFFFFFFFFF AND DUP2 MSTORE PUSH1 0x20 ADD SWAP1 DUP2 MSTORE PUSH1 0x20 ADD PUSH1 0x0 KECCAK256 SWAP1 POP PUSH1 0x0 PUSH20 0xFFFFFFFFFFFFFFFFFFFFFFFFFFFFFFFFFFFFFFFF AND DUP5 PUSH20 0xFFFFFFFFFFFFFFFFFFFFFFFFFFFFFFFFFFFFFFFF AND EQ DUP1 PUSH2 0x5809 JUMPI POP PUSH1 0x0 PUSH20 0xFFFFFFFFFFFFFFFFFFFFFFFFFFFFFFFFFFFFFFFF AND DUP4 PUSH20 0xFFFFFFFFFFFFFFFFFFFFFFFFFFFFFFFFFFFFFFFF AND EQ JUMPDEST ISZERO PUSH2 0x5817 JUMPI POP POP POP POP PUSH2 0x5CEF JUMP JUMPDEST PUSH1 0x0 PUSH2 0x5860 PUSH2 0x10F SLOAD PUSH2 0x5852 PUSH2 0x10D DUP10 DUP2 SLOAD DUP2 LT PUSH2 0x5838 JUMPI PUSH2 0x5837 PUSH2 0x7470 JUMP JUMPDEST JUMPDEST SWAP1 PUSH1 0x0 MSTORE PUSH1 0x20 PUSH1 0x0 KECCAK256 ADD SLOAD DUP15 PUSH2 0x44D6 SWAP1 SWAP2 SWAP1 PUSH4 0xFFFFFFFF AND JUMP JUMPDEST PUSH2 0x44EC SWAP1 SWAP2 SWAP1 PUSH4 0xFFFFFFFF AND JUMP JUMPDEST SWAP1 POP DUP4 PUSH20 0xFFFFFFFFFFFFFFFFFFFFFFFFFFFFFFFFFFFFFFFF AND DUP6 PUSH20 0xFFFFFFFFFFFFFFFFFFFFFFFFFFFFFFFFFFFFFFFF AND EQ ISZERO DUP1 ISZERO PUSH2 0x58CB JUMPI POP PUSH1 0x0 PUSH20 0xFFFFFFFFFFFFFFFFFFFFFFFFFFFFFFFFFFFFFFFF AND DUP5 PUSH20 0xFFFFFFFFFFFFFFFFFFFFFFFFFFFFFFFFFFFFFFFF AND EQ ISZERO JUMPDEST DUP1 ISZERO PUSH2 0x58DB JUMPI POP PUSH1 0x0 DUP9 PUSH1 0x40 ADD MLOAD EQ JUMPDEST DUP1 ISZERO PUSH2 0x58E7 JUMPI POP PUSH1 0x0 DUP7 EQ JUMPDEST ISZERO PUSH2 0x593C JUMPI PUSH1 0x1 DUP9 PUSH1 0x40 ADD DUP2 DUP2 MSTORE POP POP PUSH2 0x590B PUSH1 0x2 DUP3 PUSH2 0x44EC SWAP1 SWAP2 SWAP1 PUSH4 0xFFFFFFFF AND JUMP JUMPDEST DUP3 PUSH1 0x7 ADD PUSH1 0x0 DUP3 DUP3 SLOAD PUSH2 0x591E SWAP2 SWAP1 PUSH2 0x76F3 JUMP JUMPDEST SWAP3 POP POP DUP2 SWAP1 SSTORE POP PUSH2 0x5939 PUSH1 0x2 DUP3 PUSH2 0x44EC SWAP1 SWAP2 SWAP1 PUSH4 0xFFFFFFFF AND JUMP JUMPDEST SWAP1 POP JUMPDEST DUP1 DUP4 PUSH1 0x7 ADD PUSH1 0x0 DUP3 DUP3 SLOAD PUSH2 0x5950 SWAP2 SWAP1 PUSH2 0x76F3 JUMP JUMPDEST SWAP3 POP POP DUP2 SWAP1 SSTORE POP DUP11 DUP4 PUSH1 0x5 ADD PUSH1 0x0 DUP3 DUP3 SLOAD PUSH2 0x596B SWAP2 SWAP1 PUSH2 0x76F3 JUMP JUMPDEST SWAP3 POP POP DUP2 SWAP1 SSTORE POP DUP1 DUP8 PUSH2 0x597E SWAP2 SWAP1 PUSH2 0x76F3 JUMP JUMPDEST SWAP7 POP DUP1 DUP6 PUSH20 0xFFFFFFFFFFFFFFFFFFFFFFFFFFFFFFFFFFFFFFFF AND DUP12 PUSH20 0xFFFFFFFFFFFFFFFFFFFFFFFFFFFFFFFFFFFFFFFF AND PUSH32 0x4D2BA4492B0C23A552760AD8F123604F2E008A55F8435E777CE0FA59FB39C831 PUSH1 0x1 DUP11 PUSH2 0x59DD SWAP2 SWAP1 PUSH2 0x76F3 JUMP JUMPDEST PUSH1 0x40 MLOAD PUSH2 0x59EA SWAP2 SWAP1 PUSH2 0x8593 JUMP JUMPDEST PUSH1 0x40 MLOAD DUP1 SWAP2 SUB SWAP1 LOG4 DUP3 PUSH1 0x40 MLOAD DUP1 PUSH2 0x1A0 ADD PUSH1 0x40 MSTORE SWAP1 DUP2 PUSH1 0x0 DUP3 ADD PUSH1 0x0 SWAP1 SLOAD SWAP1 PUSH2 0x100 EXP SWAP1 DIV PUSH20 0xFFFFFFFFFFFFFFFFFFFFFFFFFFFFFFFFFFFFFFFF AND PUSH20 0xFFFFFFFFFFFFFFFFFFFFFFFFFFFFFFFFFFFFFFFF AND PUSH20 0xFFFFFFFFFFFFFFFFFFFFFFFFFFFFFFFFFFFFFFFF AND DUP2 MSTORE PUSH1 0x20 ADD PUSH1 0x1 DUP3 ADD PUSH1 0x0 SWAP1 SLOAD SWAP1 PUSH2 0x100 EXP SWAP1 DIV PUSH20 0xFFFFFFFFFFFFFFFFFFFFFFFFFFFFFFFFFFFFFFFF AND PUSH20 0xFFFFFFFFFFFFFFFFFFFFFFFFFFFFFFFFFFFFFFFF AND PUSH20 0xFFFFFFFFFFFFFFFFFFFFFFFFFFFFFFFFFFFFFFFF AND DUP2 MSTORE PUSH1 0x20 ADD PUSH1 0x2 DUP3 ADD SLOAD DUP2 MSTORE PUSH1 0x20 ADD PUSH1 0x3 DUP3 ADD DUP1 SLOAD DUP1 PUSH1 0x20 MUL PUSH1 0x20 ADD PUSH1 0x40 MLOAD SWAP1 DUP2 ADD PUSH1 0x40 MSTORE DUP1 SWAP3 SWAP2 SWAP1 DUP2 DUP2 MSTORE PUSH1 0x20 ADD DUP3 DUP1 SLOAD DUP1 ISZERO PUSH2 0x5B3A JUMPI PUSH1 0x20 MUL DUP3 ADD SWAP2 SWAP1 PUSH1 0x0 MSTORE PUSH1 0x20 PUSH1 0x0 KECCAK256 SWAP1 JUMPDEST DUP2 PUSH1 0x0 SWAP1 SLOAD SWAP1 PUSH2 0x100 EXP SWAP1 DIV PUSH20 0xFFFFFFFFFFFFFFFFFFFFFFFFFFFFFFFFFFFFFFFF AND PUSH20 0xFFFFFFFFFFFFFFFFFFFFFFFFFFFFFFFFFFFFFFFF AND DUP2 MSTORE PUSH1 0x20 ADD SWAP1 PUSH1 0x1 ADD SWAP1 DUP1 DUP4 GT PUSH2 0x5AF0 JUMPI JUMPDEST POP POP POP POP POP DUP2 MSTORE PUSH1 0x20 ADD PUSH1 0x4 DUP3 ADD SLOAD DUP2 MSTORE PUSH1 0x20 ADD PUSH1 0x5 DUP3 ADD SLOAD DUP2 MSTORE PUSH1 0x20 ADD PUSH1 0x6 DUP3 ADD SLOAD DUP2 MSTORE PUSH1 0x20 ADD PUSH1 0x7 DUP3 ADD SLOAD DUP2 MSTORE PUSH1 0x20 ADD PUSH1 0x8 DUP3 ADD SLOAD DUP2 MSTORE PUSH1 0x20 ADD PUSH1 0x9 DUP3 ADD DUP1 SLOAD DUP1 PUSH1 0x20 MUL PUSH1 0x20 ADD PUSH1 0x40 MLOAD SWAP1 DUP2 ADD PUSH1 0x40 MSTORE DUP1 SWAP3 SWAP2 SWAP1 DUP2 DUP2 MSTORE PUSH1 0x20 ADD DUP3 DUP1 SLOAD DUP1 ISZERO PUSH2 0x5BC4 JUMPI PUSH1 0x20 MUL DUP3 ADD SWAP2 SWAP1 PUSH1 0x0 MSTORE PUSH1 0x20 PUSH1 0x0 KECCAK256 SWAP1 JUMPDEST DUP2 SLOAD DUP2 MSTORE PUSH1 0x20 ADD SWAP1 PUSH1 0x1 ADD SWAP1 DUP1 DUP4 GT PUSH2 0x5BB0 JUMPI JUMPDEST POP POP POP POP POP DUP2 MSTORE PUSH1 0x20 ADD PUSH1 0xA DUP3 ADD DUP1 SLOAD DUP1 PUSH1 0x20 MUL PUSH1 0x20 ADD PUSH1 0x40 MLOAD SWAP1 DUP2 ADD PUSH1 0x40 MSTORE DUP1 SWAP3 SWAP2 SWAP1 DUP2 DUP2 MSTORE PUSH1 0x20 ADD DUP3 DUP1 SLOAD DUP1 ISZERO PUSH2 0x5C1C JUMPI PUSH1 0x20 MUL DUP3 ADD SWAP2 SWAP1 PUSH1 0x0 MSTORE PUSH1 0x20 PUSH1 0x0 KECCAK256 SWAP1 JUMPDEST DUP2 SLOAD DUP2 MSTORE PUSH1 0x20 ADD SWAP1 PUSH1 0x1 ADD SWAP1 DUP1 DUP4 GT PUSH2 0x5C08 JUMPI JUMPDEST POP POP POP POP POP DUP2 MSTORE PUSH1 0x20 ADD PUSH1 0xB DUP3 ADD DUP1 SLOAD DUP1 PUSH1 0x20 MUL PUSH1 0x20 ADD PUSH1 0x40 MLOAD SWAP1 DUP2 ADD PUSH1 0x40 MSTORE DUP1 SWAP3 SWAP2 SWAP1 DUP2 DUP2 MSTORE PUSH1 0x20 ADD DUP3 DUP1 SLOAD DUP1 ISZERO PUSH2 0x5C74 JUMPI PUSH1 0x20 MUL DUP3 ADD SWAP2 SWAP1 PUSH1 0x0 MSTORE PUSH1 0x20 PUSH1 0x0 KECCAK256 SWAP1 JUMPDEST DUP2 SLOAD DUP2 MSTORE PUSH1 0x20 ADD SWAP1 PUSH1 0x1 ADD SWAP1 DUP1 DUP4 GT PUSH2 0x5C60 JUMPI JUMPDEST POP POP POP POP POP DUP2 MSTORE PUSH1 0x20 ADD PUSH1 0xC DUP3 ADD DUP1 SLOAD DUP1 PUSH1 0x20 MUL PUSH1 0x20 ADD PUSH1 0x40 MLOAD SWAP1 DUP2 ADD PUSH1 0x40 MSTORE DUP1 SWAP3 SWAP2 SWAP1 DUP2 DUP2 MSTORE PUSH1 0x20 ADD DUP3 DUP1 SLOAD DUP1 ISZERO PUSH2 0x5CCC JUMPI PUSH1 0x20 MUL DUP3 ADD SWAP2 SWAP1 PUSH1 0x0 MSTORE PUSH1 0x20 PUSH1 0x0 KECCAK256 SWAP1 JUMPDEST DUP2 SLOAD DUP2 MSTORE PUSH1 0x20 ADD SWAP1 PUSH1 0x1 ADD SWAP1 DUP1 DUP4 GT PUSH2 0x5CB8 JUMPI JUMPDEST POP POP POP POP POP DUP2 MSTORE POP POP SWAP8 POP POP POP POP POP POP DUP1 DUP1 PUSH2 0x5CE7 SWAP1 PUSH2 0x7619 JUMP JUMPDEST SWAP2 POP POP PUSH2 0x56F2 JUMP JUMPDEST POP DUP1 PUSH2 0x114 PUSH1 0x0 DUP3 DUP3 SLOAD PUSH2 0x5D03 SWAP2 SWAP1 PUSH2 0x76F3 JUMP JUMPDEST SWAP3 POP POP DUP2 SWAP1 SSTORE POP DUP1 SWAP3 POP POP POP SWAP3 SWAP2 POP POP JUMP JUMPDEST PUSH1 0x0 PUSH1 0x33 PUSH1 0x0 SWAP1 SLOAD SWAP1 PUSH2 0x100 EXP SWAP1 DIV PUSH20 0xFFFFFFFFFFFFFFFFFFFFFFFFFFFFFFFFFFFFFFFF AND SWAP1 POP DUP2 PUSH1 0x33 PUSH1 0x0 PUSH2 0x100 EXP DUP2 SLOAD DUP2 PUSH20 0xFFFFFFFFFFFFFFFFFFFFFFFFFFFFFFFFFFFFFFFF MUL NOT AND SWAP1 DUP4 PUSH20 0xFFFFFFFFFFFFFFFFFFFFFFFFFFFFFFFFFFFFFFFF AND MUL OR SWAP1 SSTORE POP DUP2 PUSH20 0xFFFFFFFFFFFFFFFFFFFFFFFFFFFFFFFFFFFFFFFF AND DUP2 PUSH20 0xFFFFFFFFFFFFFFFFFFFFFFFFFFFFFFFFFFFFFFFF AND PUSH32 0x8BE0079C531659141344CD1FD0A4F28419497F9722A3DAAFE3B4186F6B6457E0 PUSH1 0x40 MLOAD PUSH1 0x40 MLOAD DUP1 SWAP2 SUB SWAP1 LOG3 POP POP JUMP JUMPDEST PUSH1 0x0 DUP1 DUP3 PUSH20 0xFFFFFFFFFFFFFFFFFFFFFFFFFFFFFFFFFFFFFFFF AND EXTCODESIZE GT SWAP1 POP SWAP2 SWAP1 POP JUMP JUMPDEST PUSH1 0x0 PUSH1 0x1 SWAP1 SLOAD SWAP1 PUSH2 0x100 EXP SWAP1 DIV PUSH1 0xFF AND PUSH2 0x5E4D JUMPI PUSH1 0x40 MLOAD PUSH32 0x8C379A000000000000000000000000000000000000000000000000000000000 DUP2 MSTORE PUSH1 0x4 ADD PUSH2 0x5E44 SWAP1 PUSH2 0x8633 JUMP JUMPDEST PUSH1 0x40 MLOAD DUP1 SWAP2 SUB SWAP1 REVERT JUMPDEST PUSH2 0x5E55 PUSH2 0x6065 JUMP JUMPDEST JUMP JUMPDEST PUSH1 0x0 PUSH1 0x1 SWAP1 SLOAD SWAP1 PUSH2 0x100 EXP SWAP1 DIV PUSH1 0xFF AND PUSH2 0x5EA6 JUMPI PUSH1 0x40 MLOAD PUSH32 0x8C379A000000000000000000000000000000000000000000000000000000000 DUP2 MSTORE PUSH1 0x4 ADD PUSH2 0x5E9D SWAP1 PUSH2 0x8633 JUMP JUMPDEST PUSH1 0x40 MLOAD DUP1 SWAP2 SUB SWAP1 REVERT JUMPDEST PUSH2 0x5EAE PUSH2 0x60D1 JUMP JUMPDEST JUMP JUMPDEST PUSH1 0x0 PUSH1 0x1 SWAP1 SLOAD SWAP1 PUSH2 0x100 EXP SWAP1 DIV PUSH1 0xFF AND PUSH2 0x5EFF JUMPI PUSH1 0x40 MLOAD PUSH32 0x8C379A000000000000000000000000000000000000000000000000000000000 DUP2 MSTORE PUSH1 0x4 ADD PUSH2 0x5EF6 SWAP1 PUSH2 0x8633 JUMP JUMPDEST PUSH1 0x40 MLOAD DUP1 SWAP2 SUB SWAP1 REVERT JUMPDEST JUMP JUMPDEST PUSH2 0x5F09 PUSH2 0x6132 JUMP JUMPDEST PUSH1 0x0 PUSH1 0x65 PUSH1 0x0 PUSH2 0x100 EXP DUP2 SLOAD DUP2 PUSH1 0xFF MUL NOT AND SWAP1 DUP4 ISZERO ISZERO MUL OR SWAP1 SSTORE POP PUSH32 0x5DB9EE0A495BF2E6FF9C91A7834C1BA4FDD244A5E8AA4E537BD38AEAE4B073AA PUSH2 0x5F4D PUSH2 0x5F64 JUMP JUMPDEST PUSH1 0x40 MLOAD PUSH2 0x5F5A SWAP2 SWAP1 PUSH2 0x664D JUMP JUMPDEST PUSH1 0x40 MLOAD DUP1 SWAP2 SUB SWAP1 LOG1 JUMP JUMPDEST PUSH1 0x0 CALLER SWAP1 POP SWAP1 JUMP JUMPDEST PUSH1 0x0 DUP2 SWAP1 POP SWAP2 SWAP1 POP JUMP JUMPDEST PUSH1 0x0 DUP2 SWAP1 POP SWAP2 SWAP1 POP JUMP JUMPDEST PUSH2 0x5F89 DUP2 PUSH2 0x5DDB JUMP JUMPDEST PUSH2 0x5FC8 JUMPI PUSH1 0x40 MLOAD PUSH32 0x8C379A000000000000000000000000000000000000000000000000000000000 DUP2 MSTORE PUSH1 0x4 ADD PUSH2 0x5FBF SWAP1 PUSH2 0x86C5 JUMP JUMPDEST PUSH1 0x40 MLOAD DUP1 SWAP2 SUB SWAP1 REVERT JUMPDEST DUP1 PUSH2 0x5FF5 PUSH32 0x360894A13BA1A3210667C828492DB98DCA3E2076CC3735A920A3CA505D382BBC PUSH1 0x0 SHL PUSH2 0x5F6C JUMP JUMPDEST PUSH1 0x0 ADD PUSH1 0x0 PUSH2 0x100 EXP DUP2 SLOAD DUP2 PUSH20 0xFFFFFFFFFFFFFFFFFFFFFFFFFFFFFFFFFFFFFFFF MUL NOT AND SWAP1 DUP4 PUSH20 0xFFFFFFFFFFFFFFFFFFFFFFFFFFFFFFFFFFFFFFFF AND MUL OR SWAP1 SSTORE POP POP JUMP JUMPDEST PUSH2 0x6042 DUP4 PUSH2 0x617B JUMP JUMPDEST PUSH1 0x0 DUP3 MLOAD GT DUP1 PUSH2 0x604F JUMPI POP DUP1 JUMPDEST ISZERO PUSH2 0x6060 JUMPI PUSH2 0x605E DUP4 DUP4 PUSH2 0x61CA JUMP JUMPDEST POP JUMPDEST POP POP POP JUMP JUMPDEST PUSH1 0x0 PUSH1 0x1 SWAP1 SLOAD SWAP1 PUSH2 0x100 EXP SWAP1 DIV PUSH1 0xFF AND PUSH2 0x60B4 JUMPI PUSH1 0x40 MLOAD PUSH32 0x8C379A000000000000000000000000000000000000000000000000000000000 DUP2 MSTORE PUSH1 0x4 ADD PUSH2 0x60AB SWAP1 PUSH2 0x8633 JUMP JUMPDEST PUSH1 0x40 MLOAD DUP1 SWAP2 SUB SWAP1 REVERT JUMPDEST PUSH1 0x0 PUSH1 0x65 PUSH1 0x0 PUSH2 0x100 EXP DUP2 SLOAD DUP2 PUSH1 0xFF MUL NOT AND SWAP1 DUP4 ISZERO ISZERO MUL OR SWAP1 SSTORE POP JUMP JUMPDEST PUSH1 0x0 PUSH1 0x1 SWAP1 SLOAD SWAP1 PUSH2 0x100 EXP SWAP1 DIV PUSH1 0xFF AND PUSH2 0x6120 JUMPI PUSH1 0x40 MLOAD PUSH32 0x8C379A000000000000000000000000000000000000000000000000000000000 DUP2 MSTORE PUSH1 0x4 ADD PUSH2 0x6117 SWAP1 PUSH2 0x8633 JUMP JUMPDEST PUSH1 0x40 MLOAD DUP1 SWAP2 SUB SWAP1 REVERT JUMPDEST PUSH2 0x6130 PUSH2 0x612B PUSH2 0x5F64 JUMP JUMPDEST PUSH2 0x5D15 JUMP JUMPDEST JUMP JUMPDEST PUSH2 0x613A PUSH2 0x2770 JUMP JUMPDEST PUSH2 0x6179 JUMPI PUSH1 0x40 MLOAD PUSH32 0x8C379A000000000000000000000000000000000000000000000000000000000 DUP2 MSTORE PUSH1 0x4 ADD PUSH2 0x6170 SWAP1 PUSH2 0x8731 JUMP JUMPDEST PUSH1 0x40 MLOAD DUP1 SWAP2 SUB SWAP1 REVERT JUMPDEST JUMP JUMPDEST PUSH2 0x6184 DUP2 PUSH2 0x5F80 JUMP JUMPDEST DUP1 PUSH20 0xFFFFFFFFFFFFFFFFFFFFFFFFFFFFFFFFFFFFFFFF AND PUSH32 0xBC7CD75A20EE27FD9ADEBAB32041F755214DBC6BFFA90CC0225B39DA2E5C2D3B PUSH1 0x40 MLOAD PUSH1 0x40 MLOAD DUP1 SWAP2 SUB SWAP1 LOG2 POP JUMP JUMPDEST PUSH1 0x60 PUSH2 0x61D5 DUP4 PUSH2 0x5DDB JUMP JUMPDEST PUSH2 0x6214 JUMPI PUSH1 0x40 MLOAD PUSH32 0x8C379A000000000000000000000000000000000000000000000000000000000 DUP2 MSTORE PUSH1 0x4 ADD PUSH2 0x620B SWAP1 PUSH2 0x87C3 JUMP JUMPDEST PUSH1 0x40 MLOAD DUP1 SWAP2 SUB SWAP1 REVERT JUMPDEST PUSH1 0x0 DUP1 DUP5 PUSH20 0xFFFFFFFFFFFFFFFFFFFFFFFFFFFFFFFFFFFFFFFF AND DUP5 PUSH1 0x40 MLOAD PUSH2 0x623C SWAP2 SWAP1 PUSH2 0x882A JUMP JUMPDEST PUSH1 0x0 PUSH1 0x40 MLOAD DUP1 DUP4 SUB DUP2 DUP6 GAS DELEGATECALL SWAP2 POP POP RETURNDATASIZE DUP1 PUSH1 0x0 DUP2 EQ PUSH2 0x6277 JUMPI PUSH1 0x40 MLOAD SWAP2 POP PUSH1 0x1F NOT PUSH1 0x3F RETURNDATASIZE ADD AND DUP3 ADD PUSH1 0x40 MSTORE RETURNDATASIZE DUP3 MSTORE RETURNDATASIZE PUSH1 0x0 PUSH1 0x20 DUP5 ADD RETURNDATACOPY PUSH2 0x627C JUMP JUMPDEST PUSH1 0x60 SWAP2 POP JUMPDEST POP SWAP2 POP SWAP2 POP PUSH2 0x62A4 DUP3 DUP3 PUSH1 0x40 MLOAD DUP1 PUSH1 0x60 ADD PUSH1 0x40 MSTORE DUP1 PUSH1 0x27 DUP2 MSTORE PUSH1 0x20 ADD PUSH2 0x8842 PUSH1 0x27 SWAP2 CODECOPY PUSH2 0x62AE JUMP JUMPDEST SWAP3 POP POP POP SWAP3 SWAP2 POP POP JUMP JUMPDEST PUSH1 0x60 DUP4 ISZERO PUSH2 0x62BE JUMPI DUP3 SWAP1 POP PUSH2 0x630E JUMP JUMPDEST PUSH1 0x0 DUP4 MLOAD GT ISZERO PUSH2 0x62D1 JUMPI DUP3 MLOAD DUP1 DUP5 PUSH1 0x20 ADD REVERT JUMPDEST DUP2 PUSH1 0x40 MLOAD PUSH32 0x8C379A000000000000000000000000000000000000000000000000000000000 DUP2 MSTORE PUSH1 0x4 ADD PUSH2 0x6305 SWAP2 SWAP1 PUSH2 0x6F2D JUMP JUMPDEST PUSH1 0x40 MLOAD DUP1 SWAP2 SUB SWAP1 REVERT JUMPDEST SWAP4 SWAP3 POP POP POP JUMP JUMPDEST PUSH1 0x40 MLOAD DUP1 PUSH2 0x1A0 ADD PUSH1 0x40 MSTORE DUP1 PUSH1 0x0 PUSH20 0xFFFFFFFFFFFFFFFFFFFFFFFFFFFFFFFFFFFFFFFF AND DUP2 MSTORE PUSH1 0x20 ADD PUSH1 0x0 PUSH20 0xFFFFFFFFFFFFFFFFFFFFFFFFFFFFFFFFFFFFFFFF AND DUP2 MSTORE PUSH1 0x20 ADD PUSH1 0x0 DUP2 MSTORE PUSH1 0x20 ADD PUSH1 0x60 DUP2 MSTORE PUSH1 0x20 ADD PUSH1 0x0 DUP2 MSTORE PUSH1 0x20 ADD PUSH1 0x0 DUP2 MSTORE PUSH1 0x20 ADD PUSH1 0x0 DUP2 MSTORE PUSH1 0x20 ADD PUSH1 0x0 DUP2 MSTORE PUSH1 0x20 ADD PUSH1 0x0 DUP2 MSTORE PUSH1 0x20 ADD PUSH1 0x60 DUP2 MSTORE PUSH1 0x20 ADD PUSH1 0x60 DUP2 MSTORE PUSH1 0x20 ADD PUSH1 0x60 DUP2 MSTORE PUSH1 0x20 ADD PUSH1 0x60 DUP2 MSTORE POP SWAP1 JUMP JUMPDEST DUP3 DUP1 SLOAD DUP3 DUP3 SSTORE SWAP1 PUSH1 0x0 MSTORE PUSH1 0x20 PUSH1 0x0 KECCAK256 SWAP1 DUP2 ADD SWAP3 DUP3 ISZERO PUSH2 0x63EA JUMPI SWAP2 PUSH1 0x20 MUL DUP3 ADD JUMPDEST DUP3 DUP2 GT ISZERO PUSH2 0x63E9 JUMPI DUP3 MLOAD DUP3 SWAP1 PUSH1 0xFF AND SWAP1 SSTORE SWAP2 PUSH1 0x20 ADD SWAP2 SWAP1 PUSH1 0x1 ADD SWAP1 PUSH2 0x63C9 JUMP JUMPDEST JUMPDEST POP SWAP1 POP PUSH2 0x63F7 SWAP2 SWAP1 PUSH2 0x6448 JUMP JUMPDEST POP SWAP1 JUMP JUMPDEST DUP3 DUP1 SLOAD DUP3 DUP3 SSTORE SWAP1 PUSH1 0x0 MSTORE PUSH1 0x20 PUSH1 0x0 KECCAK256 SWAP1 DUP2 ADD SWAP3 DUP3 ISZERO PUSH2 0x6437 JUMPI SWAP2 PUSH1 0x20 MUL DUP3 ADD JUMPDEST DUP3 DUP2 GT ISZERO PUSH2 0x6436 JUMPI DUP3 CALLDATALOAD DUP3 SSTORE SWAP2 PUSH1 0x20 ADD SWAP2 SWAP1 PUSH1 0x1 ADD SWAP1 PUSH2 0x641B JUMP JUMPDEST JUMPDEST POP SWAP1 POP PUSH2 0x6444 SWAP2 SWAP1 PUSH2 0x6448 JUMP JUMPDEST POP SWAP1 JUMP JUMPDEST JUMPDEST DUP1 DUP3 GT ISZERO PUSH2 0x6461 JUMPI PUSH1 0x0 DUP2 PUSH1 0x0 SWAP1 SSTORE POP PUSH1 0x1 ADD PUSH2 0x6449 JUMP JUMPDEST POP SWAP1 JUMP JUMPDEST PUSH1 0x0 DUP2 SWAP1 POP SWAP2 SWAP1 POP JUMP JUMPDEST PUSH2 0x6478 DUP2 PUSH2 0x6465 JUMP JUMPDEST DUP3 MSTORE POP POP JUMP JUMPDEST PUSH1 0x0 PUSH1 0x20 DUP3 ADD SWAP1 POP PUSH2 0x6493 PUSH1 0x0 DUP4 ADD DUP5 PUSH2 0x646F JUMP JUMPDEST SWAP3 SWAP2 POP POP JUMP JUMPDEST PUSH1 0x0 PUSH1 0xFF DUP3 AND SWAP1 POP SWAP2 SWAP1 POP JUMP JUMPDEST PUSH2 0x64AF DUP2 PUSH2 0x6499 JUMP JUMPDEST DUP3 MSTORE POP POP JUMP JUMPDEST PUSH1 0x0 PUSH1 0x20 DUP3 ADD SWAP1 POP PUSH2 0x64CA PUSH1 0x0 DUP4 ADD DUP5 PUSH2 0x64A6 JUMP JUMPDEST SWAP3 SWAP2 POP POP JUMP JUMPDEST PUSH1 0x0 PUSH1 0x40 MLOAD SWAP1 POP SWAP1 JUMP JUMPDEST PUSH1 0x0 DUP1 REVERT JUMPDEST PUSH1 0x0 DUP1 REVERT JUMPDEST PUSH1 0x0 PUSH20 0xFFFFFFFFFFFFFFFFFFFFFFFFFFFFFFFFFFFFFFFF DUP3 AND SWAP1 POP SWAP2 SWAP1 POP JUMP JUMPDEST PUSH1 0x0 PUSH2 0x650F DUP3 PUSH2 0x64E4 JUMP JUMPDEST SWAP1 POP SWAP2 SWAP1 POP JUMP JUMPDEST PUSH2 0x651F DUP2 PUSH2 0x6504 JUMP JUMPDEST DUP2 EQ PUSH2 0x652A JUMPI PUSH1 0x0 DUP1 REVERT JUMPDEST POP JUMP JUMPDEST PUSH1 0x0 DUP2 CALLDATALOAD SWAP1 POP PUSH2 0x653C DUP2 PUSH2 0x6516 JUMP JUMPDEST SWAP3 SWAP2 POP POP JUMP JUMPDEST PUSH1 0x0 PUSH1 0x20 DUP3 DUP5 SUB SLT ISZERO PUSH2 0x6558 JUMPI PUSH2 0x6557 PUSH2 0x64DA JUMP JUMPDEST JUMPDEST PUSH1 0x0 PUSH2 0x6566 DUP5 DUP3 DUP6 ADD PUSH2 0x652D JUMP JUMPDEST SWAP2 POP POP SWAP3 SWAP2 POP POP JUMP JUMPDEST PUSH1 0x0 DUP2 ISZERO ISZERO SWAP1 POP SWAP2 SWAP1 POP JUMP JUMPDEST PUSH2 0x6584 DUP2 PUSH2 0x656F JUMP JUMPDEST DUP3 MSTORE POP POP JUMP JUMPDEST PUSH1 0x0 PUSH1 0x20 DUP3 ADD SWAP1 POP PUSH2 0x659F PUSH1 0x0 DUP4 ADD DUP5 PUSH2 0x657B JUMP JUMPDEST SWAP3 SWAP2 POP POP JUMP JUMPDEST PUSH2 0x65AE DUP2 PUSH2 0x6465 JUMP JUMPDEST DUP2 EQ PUSH2 0x65B9 JUMPI PUSH1 0x0 DUP1 REVERT JUMPDEST POP JUMP JUMPDEST PUSH1 0x0 DUP2 CALLDATALOAD SWAP1 POP PUSH2 0x65CB DUP2 PUSH2 0x65A5 JUMP JUMPDEST SWAP3 SWAP2 POP POP JUMP JUMPDEST PUSH1 0x0 PUSH1 0x20 DUP3 DUP5 SUB SLT ISZERO PUSH2 0x65E7 JUMPI PUSH2 0x65E6 PUSH2 0x64DA JUMP JUMPDEST JUMPDEST PUSH1 0x0 PUSH2 0x65F5 DUP5 DUP3 DUP6 ADD PUSH2 0x65BC JUMP JUMPDEST SWAP2 POP POP SWAP3 SWAP2 POP POP JUMP JUMPDEST PUSH1 0x0 DUP1 PUSH1 0x40 DUP4 DUP6 SUB SLT ISZERO PUSH2 0x6615 JUMPI PUSH2 0x6614 PUSH2 0x64DA JUMP JUMPDEST JUMPDEST PUSH1 0x0 PUSH2 0x6623 DUP6 DUP3 DUP7 ADD PUSH2 0x652D JUMP JUMPDEST SWAP3 POP POP PUSH1 0x20 PUSH2 0x6634 DUP6 DUP3 DUP7 ADD PUSH2 0x65BC JUMP JUMPDEST SWAP2 POP POP SWAP3 POP SWAP3 SWAP1 POP JUMP JUMPDEST PUSH2 0x6647 DUP2 PUSH2 0x6504 JUMP JUMPDEST DUP3 MSTORE POP POP JUMP JUMPDEST PUSH1 0x0 PUSH1 0x20 DUP3 ADD SWAP1 POP PUSH2 0x6662 PUSH1 0x0 DUP4 ADD DUP5 PUSH2 0x663E JUMP JUMPDEST SWAP3 SWAP2 POP POP JUMP JUMPDEST PUSH1 0x0 DUP1 REVERT JUMPDEST PUSH1 0x0 DUP1 REVERT JUMPDEST PUSH1 0x0 DUP1 REVERT JUMPDEST PUSH1 0x0 DUP1 DUP4 PUSH1 0x1F DUP5 ADD SLT PUSH2 0x668D JUMPI PUSH2 0x668C PUSH2 0x6668 JUMP JUMPDEST JUMPDEST DUP3 CALLDATALOAD SWAP1 POP PUSH8 0xFFFFFFFFFFFFFFFF DUP2 GT ISZERO PUSH2 0x66AA JUMPI PUSH2 0x66A9 PUSH2 0x666D JUMP JUMPDEST JUMPDEST PUSH1 0x20 DUP4 ADD SWAP2 POP DUP4 PUSH1 0x20 DUP3 MUL DUP4 ADD GT ISZERO PUSH2 0x66C6 JUMPI PUSH2 0x66C5 PUSH2 0x6672 JUMP JUMPDEST JUMPDEST SWAP3 POP SWAP3 SWAP1 POP JUMP JUMPDEST PUSH1 0x0 DUP1 DUP4 PUSH1 0x1F DUP5 ADD SLT PUSH2 0x66E3 JUMPI PUSH2 0x66E2 PUSH2 0x6668 JUMP JUMPDEST JUMPDEST DUP3 CALLDATALOAD SWAP1 POP PUSH8 0xFFFFFFFFFFFFFFFF DUP2 GT ISZERO PUSH2 0x6700 JUMPI PUSH2 0x66FF PUSH2 0x666D JUMP JUMPDEST JUMPDEST PUSH1 0x20 DUP4 ADD SWAP2 POP DUP4 PUSH1 0x20 DUP3 MUL DUP4 ADD GT ISZERO PUSH2 0x671C JUMPI PUSH2 0x671B PUSH2 0x6672 JUMP JUMPDEST JUMPDEST SWAP3 POP SWAP3 SWAP1 POP JUMP JUMPDEST PUSH1 0x0 DUP1 PUSH1 0x0 DUP1 PUSH1 0x40 DUP6 DUP8 SUB SLT ISZERO PUSH2 0x673D JUMPI PUSH2 0x673C PUSH2 0x64DA JUMP JUMPDEST JUMPDEST PUSH1 0x0 DUP6 ADD CALLDATALOAD PUSH8 0xFFFFFFFFFFFFFFFF DUP2 GT ISZERO PUSH2 0x675B JUMPI PUSH2 0x675A PUSH2 0x64DF JUMP JUMPDEST JUMPDEST PUSH2 0x6767 DUP8 DUP3 DUP9 ADD PUSH2 0x6677 JUMP JUMPDEST SWAP5 POP SWAP5 POP POP PUSH1 0x20 DUP6 ADD CALLDATALOAD PUSH8 0xFFFFFFFFFFFFFFFF DUP2 GT ISZERO PUSH2 0x678A JUMPI PUSH2 0x6789 PUSH2 0x64DF JUMP JUMPDEST JUMPDEST PUSH2 0x6796 DUP8 DUP3 DUP9 ADD PUSH2 0x66CD JUMP JUMPDEST SWAP3 POP SWAP3 POP POP SWAP3 SWAP6 SWAP2 SWAP5 POP SWAP3 POP JUMP JUMPDEST PUSH1 0x0 PUSH2 0x67AF DUP3 PUSH2 0x64E4 JUMP JUMPDEST SWAP1 POP SWAP2 SWAP1 POP JUMP JUMPDEST PUSH2 0x67BF DUP2 PUSH2 0x67A4 JUMP JUMPDEST DUP3 MSTORE POP POP JUMP JUMPDEST PUSH2 0x67CE DUP2 PUSH2 0x6465 JUMP JUMPDEST DUP3 MSTORE POP POP JUMP JUMPDEST PUSH1 0x0 DUP2 MLOAD SWAP1 POP SWAP2 SWAP1 POP JUMP JUMPDEST PUSH1 0x0 DUP3 DUP3 MSTORE PUSH1 0x20 DUP3 ADD SWAP1 POP SWAP3 SWAP2 POP POP JUMP JUMPDEST PUSH1 0x0 DUP2 SWAP1 POP PUSH1 0x20 DUP3 ADD SWAP1 POP SWAP2 SWAP1 POP JUMP JUMPDEST PUSH2 0x6809 DUP2 PUSH2 0x6504 JUMP JUMPDEST DUP3 MSTORE POP POP JUMP JUMPDEST PUSH1 0x0 PUSH2 0x681B DUP4 DUP4 PUSH2 0x6800 JUMP JUMPDEST PUSH1 0x20 DUP4 ADD SWAP1 POP SWAP3 SWAP2 POP POP JUMP JUMPDEST PUSH1 0x0 PUSH1 0x20 DUP3 ADD SWAP1 POP SWAP2 SWAP1 POP JUMP JUMPDEST PUSH1 0x0 PUSH2 0x683F DUP3 PUSH2 0x67D4 JUMP JUMPDEST PUSH2 0x6849 DUP2 DUP6 PUSH2 0x67DF JUMP JUMPDEST SWAP4 POP PUSH2 0x6854 DUP4 PUSH2 0x67F0 JUMP JUMPDEST DUP1 PUSH1 0x0 JUMPDEST DUP4 DUP2 LT ISZERO PUSH2 0x6885 JUMPI DUP2 MLOAD PUSH2 0x686C DUP9 DUP3 PUSH2 0x680F JUMP JUMPDEST SWAP8 POP PUSH2 0x6877 DUP4 PUSH2 0x6827 JUMP JUMPDEST SWAP3 POP POP PUSH1 0x1 DUP2 ADD SWAP1 POP PUSH2 0x6858 JUMP JUMPDEST POP DUP6 SWAP4 POP POP POP POP SWAP3 SWAP2 POP POP JUMP JUMPDEST PUSH1 0x0 DUP2 MLOAD SWAP1 POP SWAP2 SWAP1 POP JUMP JUMPDEST PUSH1 0x0 DUP3 DUP3 MSTORE PUSH1 0x20 DUP3 ADD SWAP1 POP SWAP3 SWAP2 POP POP JUMP JUMPDEST PUSH1 0x0 DUP2 SWAP1 POP PUSH1 0x20 DUP3 ADD SWAP1 POP SWAP2 SWAP1 POP JUMP JUMPDEST PUSH1 0x0 PUSH2 0x68CA DUP4 DUP4 PUSH2 0x67C5 JUMP JUMPDEST PUSH1 0x20 DUP4 ADD SWAP1 POP SWAP3 SWAP2 POP POP JUMP JUMPDEST PUSH1 0x0 PUSH1 0x20 DUP3 ADD SWAP1 POP SWAP2 SWAP1 POP JUMP JUMPDEST PUSH1 0x0 PUSH2 0x68EE DUP3 PUSH2 0x6892 JUMP JUMPDEST PUSH2 0x68F8 DUP2 DUP6 PUSH2 0x689D JUMP JUMPDEST SWAP4 POP PUSH2 0x6903 DUP4 PUSH2 0x68AE JUMP JUMPDEST DUP1 PUSH1 0x0 JUMPDEST DUP4 DUP2 LT ISZERO PUSH2 0x6934 JUMPI DUP2 MLOAD PUSH2 0x691B DUP9 DUP3 PUSH2 0x68BE JUMP JUMPDEST SWAP8 POP PUSH2 0x6926 DUP4 PUSH2 0x68D6 JUMP JUMPDEST SWAP3 POP POP PUSH1 0x1 DUP2 ADD SWAP1 POP PUSH2 0x6907 JUMP JUMPDEST POP DUP6 SWAP4 POP POP POP POP SWAP3 SWAP2 POP POP JUMP JUMPDEST PUSH1 0x0 PUSH2 0x1A0 DUP4 ADD PUSH1 0x0 DUP4 ADD MLOAD PUSH2 0x695A PUSH1 0x0 DUP7 ADD DUP3 PUSH2 0x67B6 JUMP JUMPDEST POP PUSH1 0x20 DUP4 ADD MLOAD PUSH2 0x696D PUSH1 0x20 DUP7 ADD DUP3 PUSH2 0x67B6 JUMP JUMPDEST POP PUSH1 0x40 DUP4 ADD MLOAD PUSH2 0x6980 PUSH1 0x40 DUP7 ADD DUP3 PUSH2 0x67C5 JUMP JUMPDEST POP PUSH1 0x60 DUP4 ADD MLOAD DUP5 DUP3 SUB PUSH1 0x60 DUP7 ADD MSTORE PUSH2 0x6998 DUP3 DUP3 PUSH2 0x6834 JUMP JUMPDEST SWAP2 POP POP PUSH1 0x80 DUP4 ADD MLOAD PUSH2 0x69AD PUSH1 0x80 DUP7 ADD DUP3 PUSH2 0x67C5 JUMP JUMPDEST POP PUSH1 0xA0 DUP4 ADD MLOAD PUSH2 0x69C0 PUSH1 0xA0 DUP7 ADD DUP3 PUSH2 0x67C5 JUMP JUMPDEST POP PUSH1 0xC0 DUP4 ADD MLOAD PUSH2 0x69D3 PUSH1 0xC0 DUP7 ADD DUP3 PUSH2 0x67C5 JUMP JUMPDEST POP PUSH1 0xE0 DUP4 ADD MLOAD PUSH2 0x69E6 PUSH1 0xE0 DUP7 ADD DUP3 PUSH2 0x67C5 JUMP JUMPDEST POP PUSH2 0x100 DUP4 ADD MLOAD PUSH2 0x69FB PUSH2 0x100 DUP7 ADD DUP3 PUSH2 0x67C5 JUMP JUMPDEST POP PUSH2 0x120 DUP4 ADD MLOAD DUP5 DUP3 SUB PUSH2 0x120 DUP7 ADD MSTORE PUSH2 0x6A15 DUP3 DUP3 PUSH2 0x68E3 JUMP JUMPDEST SWAP2 POP POP PUSH2 0x140 DUP4 ADD MLOAD DUP5 DUP3 SUB PUSH2 0x140 DUP7 ADD MSTORE PUSH2 0x6A31 DUP3 DUP3 PUSH2 0x68E3 JUMP JUMPDEST SWAP2 POP POP PUSH2 0x160 DUP4 ADD MLOAD DUP5 DUP3 SUB PUSH2 0x160 DUP7 ADD MSTORE PUSH2 0x6A4D DUP3 DUP3 PUSH2 0x68E3 JUMP JUMPDEST SWAP2 POP POP PUSH2 0x180 DUP4 ADD MLOAD DUP5 DUP3 SUB PUSH2 0x180 DUP7 ADD MSTORE PUSH2 0x6A69 DUP3 DUP3 PUSH2 0x68E3 JUMP JUMPDEST SWAP2 POP POP DUP1 SWAP2 POP POP SWAP3 SWAP2 POP POP JUMP JUMPDEST PUSH1 0x0 PUSH1 0x20 DUP3 ADD SWAP1 POP DUP2 DUP2 SUB PUSH1 0x0 DUP4 ADD MSTORE PUSH2 0x6A90 DUP2 DUP5 PUSH2 0x6941 JUMP JUMPDEST SWAP1 POP SWAP3 SWAP2 POP POP JUMP JUMPDEST PUSH1 0x0 DUP1 PUSH1 0x0 DUP1 PUSH1 0x0 DUP1 PUSH1 0x0 DUP1 PUSH2 0x100 DUP10 DUP12 SUB SLT ISZERO PUSH2 0x6AB9 JUMPI PUSH2 0x6AB8 PUSH2 0x64DA JUMP JUMPDEST JUMPDEST PUSH1 0x0 PUSH2 0x6AC7 DUP12 DUP3 DUP13 ADD PUSH2 0x652D JUMP JUMPDEST SWAP9 POP POP PUSH1 0x20 PUSH2 0x6AD8 DUP12 DUP3 DUP13 ADD PUSH2 0x65BC JUMP JUMPDEST SWAP8 POP POP PUSH1 0x40 PUSH2 0x6AE9 DUP12 DUP3 DUP13 ADD PUSH2 0x65BC JUMP JUMPDEST SWAP7 POP POP PUSH1 0x60 PUSH2 0x6AFA DUP12 DUP3 DUP13 ADD PUSH2 0x652D JUMP JUMPDEST SWAP6 POP POP PUSH1 0x80 PUSH2 0x6B0B DUP12 DUP3 DUP13 ADD PUSH2 0x65BC JUMP JUMPDEST SWAP5 POP POP PUSH1 0xA0 PUSH2 0x6B1C DUP12 DUP3 DUP13 ADD PUSH2 0x65BC JUMP JUMPDEST SWAP4 POP POP PUSH1 0xC0 PUSH2 0x6B2D DUP12 DUP3 DUP13 ADD PUSH2 0x65BC JUMP JUMPDEST SWAP3 POP POP PUSH1 0xE0 PUSH2 0x6B3E DUP12 DUP3 DUP13 ADD PUSH2 0x65BC JUMP JUMPDEST SWAP2 POP POP SWAP3 SWAP6 SWAP9 POP SWAP3 SWAP6 SWAP9 SWAP1 SWAP4 SWAP7 POP JUMP JUMPDEST PUSH1 0x0 DUP1 REVERT JUMPDEST PUSH1 0x0 PUSH1 0x1F NOT PUSH1 0x1F DUP4 ADD AND SWAP1 POP SWAP2 SWAP1 POP JUMP JUMPDEST PUSH32 0x4E487B7100000000000000000000000000000000000000000000000000000000 PUSH1 0x0 MSTORE PUSH1 0x41 PUSH1 0x4 MSTORE PUSH1 0x24 PUSH1 0x0 REVERT JUMPDEST PUSH2 0x6B9C DUP3 PUSH2 0x6B53 JUMP JUMPDEST DUP2 ADD DUP2 DUP2 LT PUSH8 0xFFFFFFFFFFFFFFFF DUP3 GT OR ISZERO PUSH2 0x6BBB JUMPI PUSH2 0x6BBA PUSH2 0x6B64 JUMP JUMPDEST JUMPDEST DUP1 PUSH1 0x40 MSTORE POP POP POP JUMP JUMPDEST PUSH1 0x0 PUSH2 0x6BCE PUSH2 0x64D0 JUMP JUMPDEST SWAP1 POP PUSH2 0x6BDA DUP3 DUP3 PUSH2 0x6B93 JUMP JUMPDEST SWAP2 SWAP1 POP JUMP JUMPDEST PUSH1 0x0 PUSH8 0xFFFFFFFFFFFFFFFF DUP3 GT ISZERO PUSH2 0x6BFA JUMPI PUSH2 0x6BF9 PUSH2 0x6B64 JUMP JUMPDEST JUMPDEST PUSH2 0x6C03 DUP3 PUSH2 0x6B53 JUMP JUMPDEST SWAP1 POP PUSH1 0x20 DUP2 ADD SWAP1 POP SWAP2 SWAP1 POP JUMP JUMPDEST DUP3 DUP2 DUP4 CALLDATACOPY PUSH1 0x0 DUP4 DUP4 ADD MSTORE POP POP POP JUMP JUMPDEST PUSH1 0x0 PUSH2 0x6C32 PUSH2 0x6C2D DUP5 PUSH2 0x6BDF JUMP JUMPDEST PUSH2 0x6BC4 JUMP JUMPDEST SWAP1 POP DUP3 DUP2 MSTORE PUSH1 0x20 DUP2 ADD DUP5 DUP5 DUP5 ADD GT ISZERO PUSH2 0x6C4E JUMPI PUSH2 0x6C4D PUSH2 0x6B4E JUMP JUMPDEST JUMPDEST PUSH2 0x6C59 DUP5 DUP3 DUP6 PUSH2 0x6C10 JUMP JUMPDEST POP SWAP4 SWAP3 POP POP POP JUMP JUMPDEST PUSH1 0x0 DUP3 PUSH1 0x1F DUP4 ADD SLT PUSH2 0x6C76 JUMPI PUSH2 0x6C75 PUSH2 0x6668 JUMP JUMPDEST JUMPDEST DUP2 CALLDATALOAD PUSH2 0x6C86 DUP5 DUP3 PUSH1 0x20 DUP7 ADD PUSH2 0x6C1F JUMP JUMPDEST SWAP2 POP POP SWAP3 SWAP2 POP POP JUMP JUMPDEST PUSH1 0x0 DUP1 PUSH1 0x40 DUP4 DUP6 SUB SLT ISZERO PUSH2 0x6CA6 JUMPI PUSH2 0x6CA5 PUSH2 0x64DA JUMP JUMPDEST JUMPDEST PUSH1 0x0 PUSH2 0x6CB4 DUP6 DUP3 DUP7 ADD PUSH2 0x652D JUMP JUMPDEST SWAP3 POP POP PUSH1 0x20 DUP4 ADD CALLDATALOAD PUSH8 0xFFFFFFFFFFFFFFFF DUP2 GT ISZERO PUSH2 0x6CD5 JUMPI PUSH2 0x6CD4 PUSH2 0x64DF JUMP JUMPDEST JUMPDEST PUSH2 0x6CE1 DUP6 DUP3 DUP7 ADD PUSH2 0x6C61 JUMP JUMPDEST SWAP2 POP POP SWAP3 POP SWAP3 SWAP1 POP JUMP JUMPDEST PUSH1 0x0 DUP2 SWAP1 POP SWAP2 SWAP1 POP JUMP JUMPDEST PUSH2 0x6CFE DUP2 PUSH2 0x6CEB JUMP JUMPDEST DUP3 MSTORE POP POP JUMP JUMPDEST PUSH1 0x0 PUSH1 0x20 DUP3 ADD SWAP1 POP PUSH2 0x6D19 PUSH1 0x0 DUP4 ADD DUP5 PUSH2 0x6CF5 JUMP JUMPDEST SWAP3 SWAP2 POP POP JUMP JUMPDEST PUSH1 0x0 DUP1 PUSH1 0x0 PUSH1 0x60 DUP5 DUP7 SUB SLT ISZERO PUSH2 0x6D38 JUMPI PUSH2 0x6D37 PUSH2 0x64DA JUMP JUMPDEST JUMPDEST PUSH1 0x0 PUSH2 0x6D46 DUP7 DUP3 DUP8 ADD PUSH2 0x652D JUMP JUMPDEST SWAP4 POP POP PUSH1 0x20 PUSH2 0x6D57 DUP7 DUP3 DUP8 ADD PUSH2 0x652D JUMP JUMPDEST SWAP3 POP POP PUSH1 0x40 PUSH2 0x6D68 DUP7 DUP3 DUP8 ADD PUSH2 0x65BC JUMP JUMPDEST SWAP2 POP POP SWAP3 POP SWAP3 POP SWAP3 JUMP JUMPDEST PUSH1 0x0 DUP1 PUSH1 0x40 DUP4 DUP6 SUB SLT ISZERO PUSH2 0x6D89 JUMPI PUSH2 0x6D88 PUSH2 0x64DA JUMP JUMPDEST JUMPDEST PUSH1 0x0 PUSH2 0x6D97 DUP6 DUP3 DUP7 ADD PUSH2 0x652D JUMP JUMPDEST SWAP3 POP POP PUSH1 0x20 PUSH2 0x6DA8 DUP6 DUP3 DUP7 ADD PUSH2 0x652D JUMP JUMPDEST SWAP2 POP POP SWAP3 POP SWAP3 SWAP1 POP JUMP JUMPDEST PUSH2 0x6DBB DUP2 PUSH2 0x656F JUMP JUMPDEST DUP2 EQ PUSH2 0x6DC6 JUMPI PUSH1 0x0 DUP1 REVERT JUMPDEST POP JUMP JUMPDEST PUSH1 0x0 DUP2 CALLDATALOAD SWAP1 POP PUSH2 0x6DD8 DUP2 PUSH2 0x6DB2 JUMP JUMPDEST SWAP3 SWAP2 POP POP JUMP JUMPDEST PUSH1 0x0 PUSH1 0x20 DUP3 DUP5 SUB SLT ISZERO PUSH2 0x6DF4 JUMPI PUSH2 0x6DF3 PUSH2 0x64DA JUMP JUMPDEST JUMPDEST PUSH1 0x0 PUSH2 0x6E02 DUP5 DUP3 DUP6 ADD PUSH2 0x6DC9 JUMP JUMPDEST SWAP2 POP POP SWAP3 SWAP2 POP POP JUMP JUMPDEST PUSH1 0x0 DUP1 DUP4 PUSH1 0x1F DUP5 ADD SLT PUSH2 0x6E21 JUMPI PUSH2 0x6E20 PUSH2 0x6668 JUMP JUMPDEST JUMPDEST DUP3 CALLDATALOAD SWAP1 POP PUSH8 0xFFFFFFFFFFFFFFFF DUP2 GT ISZERO PUSH2 0x6E3E JUMPI PUSH2 0x6E3D PUSH2 0x666D JUMP JUMPDEST JUMPDEST PUSH1 0x20 DUP4 ADD SWAP2 POP DUP4 PUSH1 0x20 DUP3 MUL DUP4 ADD GT ISZERO PUSH2 0x6E5A JUMPI PUSH2 0x6E59 PUSH2 0x6672 JUMP JUMPDEST JUMPDEST SWAP3 POP SWAP3 SWAP1 POP JUMP JUMPDEST PUSH1 0x0 DUP1 PUSH1 0x20 DUP4 DUP6 SUB SLT ISZERO PUSH2 0x6E78 JUMPI PUSH2 0x6E77 PUSH2 0x64DA JUMP JUMPDEST JUMPDEST PUSH1 0x0 DUP4 ADD CALLDATALOAD PUSH8 0xFFFFFFFFFFFFFFFF DUP2 GT ISZERO PUSH2 0x6E96 JUMPI PUSH2 0x6E95 PUSH2 0x64DF JUMP JUMPDEST JUMPDEST PUSH2 0x6EA2 DUP6 DUP3 DUP7 ADD PUSH2 0x6E0B JUMP JUMPDEST SWAP3 POP SWAP3 POP POP SWAP3 POP SWAP3 SWAP1 POP JUMP JUMPDEST PUSH1 0x0 DUP2 MLOAD SWAP1 POP SWAP2 SWAP1 POP JUMP JUMPDEST PUSH1 0x0 DUP3 DUP3 MSTORE PUSH1 0x20 DUP3 ADD SWAP1 POP SWAP3 SWAP2 POP POP JUMP JUMPDEST PUSH1 0x0 JUMPDEST DUP4 DUP2 LT ISZERO PUSH2 0x6EE8 JUMPI DUP1 DUP3 ADD MLOAD DUP2 DUP5 ADD MSTORE PUSH1 0x20 DUP2 ADD SWAP1 POP PUSH2 0x6ECD JUMP JUMPDEST PUSH1 0x0 DUP5 DUP5 ADD MSTORE POP POP POP POP JUMP JUMPDEST PUSH1 0x0 PUSH2 0x6EFF DUP3 PUSH2 0x6EAE JUMP JUMPDEST PUSH2 0x6F09 DUP2 DUP6 PUSH2 0x6EB9 JUMP JUMPDEST SWAP4 POP PUSH2 0x6F19 DUP2 DUP6 PUSH1 0x20 DUP7 ADD PUSH2 0x6ECA JUMP JUMPDEST PUSH2 0x6F22 DUP2 PUSH2 0x6B53 JUMP JUMPDEST DUP5 ADD SWAP2 POP POP SWAP3 SWAP2 POP POP JUMP JUMPDEST PUSH1 0x0 PUSH1 0x20 DUP3 ADD SWAP1 POP DUP2 DUP2 SUB PUSH1 0x0 DUP4 ADD MSTORE PUSH2 0x6F47 DUP2 DUP5 PUSH2 0x6EF4 JUMP JUMPDEST SWAP1 POP SWAP3 SWAP2 POP POP JUMP JUMPDEST PUSH1 0x0 DUP3 DUP3 MSTORE PUSH1 0x20 DUP3 ADD SWAP1 POP SWAP3 SWAP2 POP POP JUMP JUMPDEST PUSH1 0x0 PUSH2 0x6F6B DUP3 PUSH2 0x6892 JUMP JUMPDEST PUSH2 0x6F75 DUP2 DUP6 PUSH2 0x6F4F JUMP JUMPDEST SWAP4 POP PUSH2 0x6F80 DUP4 PUSH2 0x68AE JUMP JUMPDEST DUP1 PUSH1 0x0 JUMPDEST DUP4 DUP2 LT ISZERO PUSH2 0x6FB1 JUMPI DUP2 MLOAD PUSH2 0x6F98 DUP9 DUP3 PUSH2 0x68BE JUMP JUMPDEST SWAP8 POP PUSH2 0x6FA3 DUP4 PUSH2 0x68D6 JUMP JUMPDEST SWAP3 POP POP PUSH1 0x1 DUP2 ADD SWAP1 POP PUSH2 0x6F84 JUMP JUMPDEST POP DUP6 SWAP4 POP POP POP POP SWAP3 SWAP2 POP POP JUMP JUMPDEST PUSH1 0x0 PUSH1 0x20 DUP3 ADD SWAP1 POP DUP2 DUP2 SUB PUSH1 0x0 DUP4 ADD MSTORE PUSH2 0x6FD8 DUP2 DUP5 PUSH2 0x6F60 JUMP JUMPDEST SWAP1 POP SWAP3 SWAP2 POP POP JUMP JUMPDEST PUSH2 0x6FE9 DUP2 PUSH2 0x6499 JUMP JUMPDEST DUP2 EQ PUSH2 0x6FF4 JUMPI PUSH1 0x0 DUP1 REVERT JUMPDEST POP JUMP JUMPDEST PUSH1 0x0 DUP2 CALLDATALOAD SWAP1 POP PUSH2 0x7006 DUP2 PUSH2 0x6FE0 JUMP JUMPDEST SWAP3 SWAP2 POP POP JUMP JUMPDEST PUSH1 0x0 PUSH1 0x20 DUP3 DUP5 SUB SLT ISZERO PUSH2 0x7022 JUMPI PUSH2 0x7021 PUSH2 0x64DA JUMP JUMPDEST JUMPDEST PUSH1 0x0 PUSH2 0x7030 DUP5 DUP3 DUP6 ADD PUSH2 0x6FF7 JUMP JUMPDEST SWAP2 POP POP SWAP3 SWAP2 POP POP JUMP JUMPDEST PUSH2 0x7042 DUP2 PUSH2 0x67A4 JUMP JUMPDEST DUP2 EQ PUSH2 0x704D JUMPI PUSH1 0x0 DUP1 REVERT JUMPDEST POP JUMP JUMPDEST PUSH1 0x0 DUP2 CALLDATALOAD SWAP1 POP PUSH2 0x705F DUP2 PUSH2 0x7039 JUMP JUMPDEST SWAP3 SWAP2 POP POP JUMP JUMPDEST PUSH1 0x0 PUSH1 0x20 DUP3 DUP5 SUB SLT ISZERO PUSH2 0x707B JUMPI PUSH2 0x707A PUSH2 0x64DA JUMP JUMPDEST JUMPDEST PUSH1 0x0 PUSH2 0x7089 DUP5 DUP3 DUP6 ADD PUSH2 0x7050 JUMP JUMPDEST SWAP2 POP POP SWAP3 SWAP2 POP POP JUMP JUMPDEST PUSH32 0x4E487B7100000000000000000000000000000000000000000000000000000000 PUSH1 0x0 MSTORE PUSH1 0x12 PUSH1 0x4 MSTORE PUSH1 0x24 PUSH1 0x0 REVERT JUMPDEST PUSH32 0x4E487B7100000000000000000000000000000000000000000000000000000000 PUSH1 0x0 MSTORE PUSH1 0x11 PUSH1 0x4 MSTORE PUSH1 0x24 PUSH1 0x0 REVERT JUMPDEST PUSH1 0x0 PUSH2 0x70FB DUP3 PUSH2 0x6465 JUMP JUMPDEST SWAP2 POP PUSH2 0x7106 DUP4 PUSH2 0x6465 JUMP JUMPDEST SWAP3 POP DUP3 PUSH2 0x7116 JUMPI PUSH2 0x7115 PUSH2 0x7092 JUMP JUMPDEST JUMPDEST DUP3 DUP3 DIV SWAP1 POP SWAP3 SWAP2 POP POP JUMP JUMPDEST PUSH1 0x0 DUP2 PUSH1 0x1 SHR SWAP1 POP SWAP2 SWAP1 POP JUMP JUMPDEST PUSH1 0x0 DUP1 DUP3 SWAP2 POP DUP4 SWAP1 POP JUMPDEST PUSH1 0x1 DUP6 GT ISZERO PUSH2 0x7178 JUMPI DUP1 DUP7 DIV DUP2 GT ISZERO PUSH2 0x7154 JUMPI PUSH2 0x7153 PUSH2 0x70C1 JUMP JUMPDEST JUMPDEST PUSH1 0x1 DUP6 AND ISZERO PUSH2 0x7163 JUMPI DUP1 DUP3 MUL SWAP2 POP JUMPDEST DUP1 DUP2 MUL SWAP1 POP PUSH2 0x7171 DUP6 PUSH2 0x7121 JUMP JUMPDEST SWAP5 POP PUSH2 0x7138 JUMP JUMPDEST SWAP5 POP SWAP5 SWAP3 POP POP POP JUMP JUMPDEST PUSH1 0x0 DUP3 PUSH2 0x7191 JUMPI PUSH1 0x1 SWAP1 POP PUSH2 0x724D JUMP JUMPDEST DUP2 PUSH2 0x719F JUMPI PUSH1 0x0 SWAP1 POP PUSH2 0x724D JUMP JUMPDEST DUP2 PUSH1 0x1 DUP2 EQ PUSH2 0x71B5 JUMPI PUSH1 0x2 DUP2 EQ PUSH2 0x71BF JUMPI PUSH2 0x71EE JUMP JUMPDEST PUSH1 0x1 SWAP2 POP POP PUSH2 0x724D JUMP JUMPDEST PUSH1 0xFF DUP5 GT ISZERO PUSH2 0x71D1 JUMPI PUSH2 0x71D0 PUSH2 0x70C1 JUMP JUMPDEST JUMPDEST DUP4 PUSH1 0x2 EXP SWAP2 POP DUP5 DUP3 GT ISZERO PUSH2 0x71E8 JUMPI PUSH2 0x71E7 PUSH2 0x70C1 JUMP JUMPDEST JUMPDEST POP PUSH2 0x724D JUMP JUMPDEST POP PUSH1 0x20 DUP4 LT PUSH2 0x133 DUP4 LT AND PUSH1 0x4E DUP5 LT PUSH1 0xB DUP5 LT AND OR ISZERO PUSH2 0x7223 JUMPI DUP3 DUP3 EXP SWAP1 POP DUP4 DUP2 GT ISZERO PUSH2 0x721E JUMPI PUSH2 0x721D PUSH2 0x70C1 JUMP JUMPDEST JUMPDEST PUSH2 0x724D JUMP JUMPDEST PUSH2 0x7230 DUP5 DUP5 DUP5 PUSH1 0x1 PUSH2 0x712E JUMP JUMPDEST SWAP3 POP SWAP1 POP DUP2 DUP5 DIV DUP2 GT ISZERO PUSH2 0x7247 JUMPI PUSH2 0x7246 PUSH2 0x70C1 JUMP JUMPDEST JUMPDEST DUP2 DUP2 MUL SWAP1 POP JUMPDEST SWAP4 SWAP3 POP POP POP JUMP JUMPDEST PUSH1 0x0 PUSH2 0x725F DUP3 PUSH2 0x6465 JUMP JUMPDEST SWAP2 POP PUSH2 0x726A DUP4 PUSH2 0x6465 JUMP JUMPDEST SWAP3 POP PUSH2 0x7297 PUSH32 0xFFFFFFFFFFFFFFFFFFFFFFFFFFFFFFFFFFFFFFFFFFFFFFFFFFFFFFFFFFFFFFFF DUP5 DUP5 PUSH2 0x7181 JUMP JUMPDEST SWAP1 POP SWAP3 SWAP2 POP POP JUMP JUMPDEST PUSH1 0x0 PUSH2 0x72AA DUP3 PUSH2 0x6465 JUMP JUMPDEST SWAP2 POP PUSH2 0x72B5 DUP4 PUSH2 0x6465 JUMP JUMPDEST SWAP3 POP DUP3 DUP3 MUL PUSH2 0x72C3 DUP2 PUSH2 0x6465 JUMP JUMPDEST SWAP2 POP DUP3 DUP3 DIV DUP5 EQ DUP4 ISZERO OR PUSH2 0x72DA JUMPI PUSH2 0x72D9 PUSH2 0x70C1 JUMP JUMPDEST JUMPDEST POP SWAP3 SWAP2 POP POP JUMP JUMPDEST PUSH1 0x0 PUSH1 0x40 DUP3 ADD SWAP1 POP PUSH2 0x72F6 PUSH1 0x0 DUP4 ADD DUP6 PUSH2 0x663E JUMP JUMPDEST PUSH2 0x7303 PUSH1 0x20 DUP4 ADD DUP5 PUSH2 0x646F JUMP JUMPDEST SWAP4 SWAP3 POP POP POP JUMP JUMPDEST PUSH1 0x0 DUP2 MLOAD SWAP1 POP PUSH2 0x7319 DUP2 PUSH2 0x6DB2 JUMP JUMPDEST SWAP3 SWAP2 POP POP JUMP JUMPDEST PUSH1 0x0 PUSH1 0x20 DUP3 DUP5 SUB SLT ISZERO PUSH2 0x7335 JUMPI PUSH2 0x7334 PUSH2 0x64DA JUMP JUMPDEST JUMPDEST PUSH1 0x0 PUSH2 0x7343 DUP5 DUP3 DUP6 ADD PUSH2 0x730A JUMP JUMPDEST SWAP2 POP POP SWAP3 SWAP2 POP POP JUMP JUMPDEST PUSH32 0x46756E6374696F6E206D7573742062652063616C6C6564207468726F75676820 PUSH1 0x0 DUP3 ADD MSTORE PUSH32 0x64656C656761746563616C6C0000000000000000000000000000000000000000 PUSH1 0x20 DUP3 ADD MSTORE POP JUMP JUMPDEST PUSH1 0x0 PUSH2 0x73A8 PUSH1 0x2C DUP4 PUSH2 0x6EB9 JUMP JUMPDEST SWAP2 POP PUSH2 0x73B3 DUP3 PUSH2 0x734C JUMP JUMPDEST PUSH1 0x40 DUP3 ADD SWAP1 POP SWAP2 SWAP1 POP JUMP JUMPDEST PUSH1 0x0 PUSH1 0x20 DUP3 ADD SWAP1 POP DUP2 DUP2 SUB PUSH1 0x0 DUP4 ADD MSTORE PUSH2 0x73D7 DUP2 PUSH2 0x739B JUMP JUMPDEST SWAP1 POP SWAP2 SWAP1 POP JUMP JUMPDEST PUSH32 0x46756E6374696F6E206D7573742062652063616C6C6564207468726F75676820 PUSH1 0x0 DUP3 ADD MSTORE PUSH32 0x6163746976652070726F78790000000000000000000000000000000000000000 PUSH1 0x20 DUP3 ADD MSTORE POP JUMP JUMPDEST PUSH1 0x0 PUSH2 0x743A PUSH1 0x2C DUP4 PUSH2 0x6EB9 JUMP JUMPDEST SWAP2 POP PUSH2 0x7445 DUP3 PUSH2 0x73DE JUMP JUMPDEST PUSH1 0x40 DUP3 ADD SWAP1 POP SWAP2 SWAP1 POP JUMP JUMPDEST PUSH1 0x0 PUSH1 0x20 DUP3 ADD SWAP1 POP DUP2 DUP2 SUB PUSH1 0x0 DUP4 ADD MSTORE PUSH2 0x7469 DUP2 PUSH2 0x742D JUMP JUMPDEST SWAP1 POP SWAP2 SWAP1 POP JUMP JUMPDEST PUSH32 0x4E487B7100000000000000000000000000000000000000000000000000000000 PUSH1 0x0 MSTORE PUSH1 0x32 PUSH1 0x4 MSTORE PUSH1 0x24 PUSH1 0x0 REVERT JUMPDEST PUSH1 0x0 DUP2 SWAP1 POP SWAP3 SWAP2 POP POP JUMP JUMPDEST PUSH32 0x52656665727265722063616E6E6F742062652030783020616464726573730000 PUSH1 0x0 DUP3 ADD MSTORE POP JUMP JUMPDEST PUSH1 0x0 PUSH2 0x74E0 PUSH1 0x1E DUP4 PUSH2 0x749F JUMP JUMPDEST SWAP2 POP PUSH2 0x74EB DUP3 PUSH2 0x74AA JUMP JUMPDEST PUSH1 0x1E DUP3 ADD SWAP1 POP SWAP2 SWAP1 POP JUMP JUMPDEST PUSH1 0x0 PUSH2 0x7501 DUP3 PUSH2 0x74D3 JUMP JUMPDEST SWAP2 POP DUP2 SWAP1 POP SWAP2 SWAP1 POP JUMP JUMPDEST PUSH32 0x526566657265652063616E6E6F74206265206F6E65206F662072656665727265 PUSH1 0x0 DUP3 ADD MSTORE PUSH32 0x722075706C696E65730000000000000000000000000000000000000000000000 PUSH1 0x20 DUP3 ADD MSTORE POP JUMP JUMPDEST PUSH1 0x0 PUSH2 0x7567 PUSH1 0x29 DUP4 PUSH2 0x749F JUMP JUMPDEST SWAP2 POP PUSH2 0x7572 DUP3 PUSH2 0x750B JUMP JUMPDEST PUSH1 0x29 DUP3 ADD SWAP1 POP SWAP2 SWAP1 POP JUMP JUMPDEST PUSH1 0x0 PUSH2 0x7588 DUP3 PUSH2 0x755A JUMP JUMPDEST SWAP2 POP DUP2 SWAP1 POP SWAP2 SWAP1 POP JUMP JUMPDEST PUSH32 0x416464726573732068617665206265656E20726567697374657265642075706C PUSH1 0x0 DUP3 ADD MSTORE PUSH32 0x696E650000000000000000000000000000000000000000000000000000000000 PUSH1 0x20 DUP3 ADD MSTORE POP JUMP JUMPDEST PUSH1 0x0 PUSH2 0x75EE PUSH1 0x23 DUP4 PUSH2 0x749F JUMP JUMPDEST SWAP2 POP PUSH2 0x75F9 DUP3 PUSH2 0x7592 JUMP JUMPDEST PUSH1 0x23 DUP3 ADD SWAP1 POP SWAP2 SWAP1 POP JUMP JUMPDEST PUSH1 0x0 PUSH2 0x760F DUP3 PUSH2 0x75E1 JUMP JUMPDEST SWAP2 POP DUP2 SWAP1 POP SWAP2 SWAP1 POP JUMP JUMPDEST PUSH1 0x0 PUSH2 0x7624 DUP3 PUSH2 0x6465 JUMP JUMPDEST SWAP2 POP PUSH32 0xFFFFFFFFFFFFFFFFFFFFFFFFFFFFFFFFFFFFFFFFFFFFFFFFFFFFFFFFFFFFFFFF DUP3 SUB PUSH2 0x7656 JUMPI PUSH2 0x7655 PUSH2 0x70C1 JUMP JUMPDEST JUMPDEST PUSH1 0x1 DUP3 ADD SWAP1 POP SWAP2 SWAP1 POP JUMP JUMPDEST PUSH32 0x596F7520646F6E27742068617665206D696E206E6F206F662072656665726565 PUSH1 0x0 DUP3 ADD MSTORE PUSH32 0x732E000000000000000000000000000000000000000000000000000000000000 PUSH1 0x20 DUP3 ADD MSTORE POP JUMP JUMPDEST PUSH1 0x0 PUSH2 0x76BD PUSH1 0x22 DUP4 PUSH2 0x6EB9 JUMP JUMPDEST SWAP2 POP PUSH2 0x76C8 DUP3 PUSH2 0x7661 JUMP JUMPDEST PUSH1 0x40 DUP3 ADD SWAP1 POP SWAP2 SWAP1 POP JUMP JUMPDEST PUSH1 0x0 PUSH1 0x20 DUP3 ADD SWAP1 POP DUP2 DUP2 SUB PUSH1 0x0 DUP4 ADD MSTORE PUSH2 0x76EC DUP2 PUSH2 0x76B0 JUMP JUMPDEST SWAP1 POP SWAP2 SWAP1 POP JUMP JUMPDEST PUSH1 0x0 PUSH2 0x76FE DUP3 PUSH2 0x6465 JUMP JUMPDEST SWAP2 POP PUSH2 0x7709 DUP4 PUSH2 0x6465 JUMP JUMPDEST SWAP3 POP DUP3 DUP3 ADD SWAP1 POP DUP1 DUP3 GT ISZERO PUSH2 0x7721 JUMPI PUSH2 0x7720 PUSH2 0x70C1 JUMP JUMPDEST JUMPDEST SWAP3 SWAP2 POP POP JUMP JUMPDEST PUSH1 0x0 PUSH2 0x7732 DUP3 PUSH2 0x6465 JUMP JUMPDEST SWAP2 POP PUSH2 0x773D DUP4 PUSH2 0x6465 JUMP JUMPDEST SWAP3 POP DUP3 DUP3 SUB SWAP1 POP DUP2 DUP2 GT ISZERO PUSH2 0x7755 JUMPI PUSH2 0x7754 PUSH2 0x70C1 JUMP JUMPDEST JUMPDEST SWAP3 SWAP2 POP POP JUMP JUMPDEST PUSH32 0x555550535570677261646561626C653A206D757374206E6F742062652063616C PUSH1 0x0 DUP3 ADD MSTORE PUSH32 0x6C6564207468726F7567682064656C656761746563616C6C0000000000000000 PUSH1 0x20 DUP3 ADD MSTORE POP JUMP JUMPDEST PUSH1 0x0 PUSH2 0x77B7 PUSH1 0x38 DUP4 PUSH2 0x6EB9 JUMP JUMPDEST SWAP2 POP PUSH2 0x77C2 DUP3 PUSH2 0x775B JUMP JUMPDEST PUSH1 0x40 DUP3 ADD SWAP1 POP SWAP2 SWAP1 POP JUMP JUMPDEST PUSH1 0x0 PUSH1 0x20 DUP3 ADD SWAP1 POP DUP2 DUP2 SUB PUSH1 0x0 DUP4 ADD MSTORE PUSH2 0x77E6 DUP2 PUSH2 0x77AA JUMP JUMPDEST SWAP1 POP SWAP2 SWAP1 POP JUMP JUMPDEST PUSH32 0x427579696E672076616C7565206C657373207468656E206D696E696D756D2062 PUSH1 0x0 DUP3 ADD MSTORE PUSH32 0x7579696E672076616C75652E0000000000000000000000000000000000000000 PUSH1 0x20 DUP3 ADD MSTORE POP JUMP JUMPDEST PUSH1 0x0 PUSH2 0x7849 PUSH1 0x2C DUP4 PUSH2 0x6EB9 JUMP JUMPDEST SWAP2 POP PUSH2 0x7854 DUP3 PUSH2 0x77ED JUMP JUMPDEST PUSH1 0x40 DUP3 ADD SWAP1 POP SWAP2 SWAP1 POP JUMP JUMPDEST PUSH1 0x0 PUSH1 0x20 DUP3 ADD SWAP1 POP DUP2 DUP2 SUB PUSH1 0x0 DUP4 ADD MSTORE PUSH2 0x7878 DUP2 PUSH2 0x783C JUMP JUMPDEST SWAP1 POP SWAP2 SWAP1 POP JUMP JUMPDEST PUSH1 0x0 PUSH1 0x60 DUP3 ADD SWAP1 POP PUSH2 0x7894 PUSH1 0x0 DUP4 ADD DUP7 PUSH2 0x663E JUMP JUMPDEST PUSH2 0x78A1 PUSH1 0x20 DUP4 ADD DUP6 PUSH2 0x663E JUMP JUMPDEST PUSH2 0x78AE PUSH1 0x40 DUP4 ADD DUP5 PUSH2 0x646F JUMP JUMPDEST SWAP5 SWAP4 POP POP POP POP JUMP JUMPDEST PUSH32 0x4554482056616C7565206C657373207468656E206D696E696D756D2062757969 PUSH1 0x0 DUP3 ADD MSTORE PUSH32 0x6E67206574682076616C75652E00000000000000000000000000000000000000 PUSH1 0x20 DUP3 ADD MSTORE POP JUMP JUMPDEST PUSH1 0x0 PUSH2 0x7912 PUSH1 0x2D DUP4 PUSH2 0x6EB9 JUMP JUMPDEST SWAP2 POP PUSH2 0x791D DUP3 PUSH2 0x78B6 JUMP JUMPDEST PUSH1 0x40 DUP3 ADD SWAP1 POP SWAP2 SWAP1 POP JUMP JUMPDEST PUSH1 0x0 PUSH1 0x20 DUP3 ADD SWAP1 POP DUP2 DUP2 SUB PUSH1 0x0 DUP4 ADD MSTORE PUSH2 0x7941 DUP2 PUSH2 0x7905 JUMP JUMPDEST SWAP1 POP SWAP2 SWAP1 POP JUMP JUMPDEST PUSH32 0x496E697469616C697A61626C653A20636F6E747261637420697320616C726561 PUSH1 0x0 DUP3 ADD MSTORE PUSH32 0x647920696E697469616C697A6564000000000000000000000000000000000000 PUSH1 0x20 DUP3 ADD MSTORE POP JUMP JUMPDEST PUSH1 0x0 PUSH2 0x79A4 PUSH1 0x2E DUP4 PUSH2 0x6EB9 JUMP JUMPDEST SWAP2 POP PUSH2 0x79AF DUP3 PUSH2 0x7948 JUMP JUMPDEST PUSH1 0x40 DUP3 ADD SWAP1 POP SWAP2 SWAP1 POP JUMP JUMPDEST PUSH1 0x0 PUSH1 0x20 DUP3 ADD SWAP1 POP DUP2 DUP2 SUB PUSH1 0x0 DUP4 ADD MSTORE PUSH2 0x79D3 DUP2 PUSH2 0x7997 JUMP JUMPDEST SWAP1 POP SWAP2 SWAP1 POP JUMP JUMPDEST PUSH1 0x0 PUSH8 0xFFFFFFFFFFFFFFFF DUP3 GT ISZERO PUSH2 0x79F5 JUMPI PUSH2 0x79F4 PUSH2 0x6B64 JUMP JUMPDEST JUMPDEST PUSH2 0x79FE DUP3 PUSH2 0x6B53 JUMP JUMPDEST SWAP1 POP PUSH1 0x20 DUP2 ADD SWAP1 POP SWAP2 SWAP1 POP JUMP JUMPDEST PUSH1 0x0 PUSH2 0x7A1E PUSH2 0x7A19 DUP5 PUSH2 0x79DA JUMP JUMPDEST PUSH2 0x6BC4 JUMP JUMPDEST SWAP1 POP DUP3 DUP2 MSTORE PUSH1 0x20 DUP2 ADD DUP5 DUP5 DUP5 ADD GT ISZERO PUSH2 0x7A3A JUMPI PUSH2 0x7A39 PUSH2 0x6B4E JUMP JUMPDEST JUMPDEST PUSH2 0x7A45 DUP5 DUP3 DUP6 PUSH2 0x6ECA JUMP JUMPDEST POP SWAP4 SWAP3 POP POP POP JUMP JUMPDEST PUSH1 0x0 DUP3 PUSH1 0x1F DUP4 ADD SLT PUSH2 0x7A62 JUMPI PUSH2 0x7A61 PUSH2 0x6668 JUMP JUMPDEST JUMPDEST DUP2 MLOAD PUSH2 0x7A72 DUP5 DUP3 PUSH1 0x20 DUP7 ADD PUSH2 0x7A0B JUMP JUMPDEST SWAP2 POP POP SWAP3 SWAP2 POP POP JUMP JUMPDEST PUSH1 0x0 PUSH1 0x20 DUP3 DUP5 SUB SLT ISZERO PUSH2 0x7A91 JUMPI PUSH2 0x7A90 PUSH2 0x64DA JUMP JUMPDEST JUMPDEST PUSH1 0x0 DUP3 ADD MLOAD PUSH8 0xFFFFFFFFFFFFFFFF DUP2 GT ISZERO PUSH2 0x7AAF JUMPI PUSH2 0x7AAE PUSH2 0x64DF JUMP JUMPDEST JUMPDEST PUSH2 0x7ABB DUP5 DUP3 DUP6 ADD PUSH2 0x7A4D JUMP JUMPDEST SWAP2 POP POP SWAP3 SWAP2 POP POP JUMP JUMPDEST PUSH32 0x4E487B7100000000000000000000000000000000000000000000000000000000 PUSH1 0x0 MSTORE PUSH1 0x22 PUSH1 0x4 MSTORE PUSH1 0x24 PUSH1 0x0 REVERT JUMPDEST PUSH1 0x0 PUSH1 0x2 DUP3 DIV SWAP1 POP PUSH1 0x1 DUP3 AND DUP1 PUSH2 0x7B0B JUMPI PUSH1 0x7F DUP3 AND SWAP2 POP JUMPDEST PUSH1 0x20 DUP3 LT DUP2 SUB PUSH2 0x7B1E JUMPI PUSH2 0x7B1D PUSH2 0x7AC4 JUMP JUMPDEST JUMPDEST POP SWAP2 SWAP1 POP JUMP JUMPDEST PUSH1 0x0 DUP2 SWAP1 POP DUP2 PUSH1 0x0 MSTORE PUSH1 0x20 PUSH1 0x0 KECCAK256 SWAP1 POP SWAP2 SWAP1 POP JUMP JUMPDEST PUSH1 0x0 PUSH1 0x20 PUSH1 0x1F DUP4 ADD DIV SWAP1 POP SWAP2 SWAP1 POP JUMP JUMPDEST PUSH1 0x0 DUP3 DUP3 SHL SWAP1 POP SWAP3 SWAP2 POP POP JUMP JUMPDEST PUSH1 0x0 PUSH1 0x8 DUP4 MUL PUSH2 0x7B86 PUSH32 0xFFFFFFFFFFFFFFFFFFFFFFFFFFFFFFFFFFFFFFFFFFFFFFFFFFFFFFFFFFFFFFFF DUP3 PUSH2 0x7B49 JUMP JUMPDEST PUSH2 0x7B90 DUP7 DUP4 PUSH2 0x7B49 JUMP JUMPDEST SWAP6 POP DUP1 NOT DUP5 AND SWAP4 POP DUP1 DUP7 AND DUP5 OR SWAP3 POP POP POP SWAP4 SWAP3 POP POP POP JUMP JUMPDEST PUSH1 0x0 DUP2 SWAP1 POP SWAP2 SWAP1 POP JUMP JUMPDEST PUSH1 0x0 PUSH2 0x7BCD PUSH2 0x7BC8 PUSH2 0x7BC3 DUP5 PUSH2 0x6465 JUMP JUMPDEST PUSH2 0x7BA8 JUMP JUMPDEST PUSH2 0x6465 JUMP JUMPDEST SWAP1 POP SWAP2 SWAP1 POP JUMP JUMPDEST PUSH1 0x0 DUP2 SWAP1 POP SWAP2 SWAP1 POP JUMP JUMPDEST PUSH2 0x7BE7 DUP4 PUSH2 0x7BB2 JUMP JUMPDEST PUSH2 0x7BFB PUSH2 0x7BF3 DUP3 PUSH2 0x7BD4 JUMP JUMPDEST DUP5 DUP5 SLOAD PUSH2 0x7B56 JUMP JUMPDEST DUP3 SSTORE POP POP POP POP JUMP JUMPDEST PUSH1 0x0 SWAP1 JUMP JUMPDEST PUSH2 0x7C10 PUSH2 0x7C03 JUMP JUMPDEST PUSH2 0x7C1B DUP2 DUP5 DUP5 PUSH2 0x7BDE JUMP JUMPDEST POP POP POP JUMP JUMPDEST JUMPDEST DUP2 DUP2 LT ISZERO PUSH2 0x7C3F JUMPI PUSH2 0x7C34 PUSH1 0x0 DUP3 PUSH2 0x7C08 JUMP JUMPDEST PUSH1 0x1 DUP2 ADD SWAP1 POP PUSH2 0x7C21 JUMP JUMPDEST POP POP JUMP JUMPDEST PUSH1 0x1F DUP3 GT ISZERO PUSH2 0x7C84 JUMPI PUSH2 0x7C55 DUP2 PUSH2 0x7B24 JUMP JUMPDEST PUSH2 0x7C5E DUP5 PUSH2 0x7B39 JUMP JUMPDEST DUP2 ADD PUSH1 0x20 DUP6 LT ISZERO PUSH2 0x7C6D JUMPI DUP2 SWAP1 POP JUMPDEST PUSH2 0x7C81 PUSH2 0x7C79 DUP6 PUSH2 0x7B39 JUMP JUMPDEST DUP4 ADD DUP3 PUSH2 0x7C20 JUMP JUMPDEST POP POP JUMPDEST POP POP POP JUMP JUMPDEST PUSH1 0x0 DUP3 DUP3 SHR SWAP1 POP SWAP3 SWAP2 POP POP JUMP JUMPDEST PUSH1 0x0 PUSH2 0x7CA7 PUSH1 0x0 NOT DUP5 PUSH1 0x8 MUL PUSH2 0x7C89 JUMP JUMPDEST NOT DUP1 DUP4 AND SWAP2 POP POP SWAP3 SWAP2 POP POP JUMP JUMPDEST PUSH1 0x0 PUSH2 0x7CC0 DUP4 DUP4 PUSH2 0x7C96 JUMP JUMPDEST SWAP2 POP DUP3 PUSH1 0x2 MUL DUP3 OR SWAP1 POP SWAP3 SWAP2 POP POP JUMP JUMPDEST PUSH2 0x7CD9 DUP3 PUSH2 0x6EAE JUMP JUMPDEST PUSH8 0xFFFFFFFFFFFFFFFF DUP2 GT ISZERO PUSH2 0x7CF2 JUMPI PUSH2 0x7CF1 PUSH2 0x6B64 JUMP JUMPDEST JUMPDEST PUSH2 0x7CFC DUP3 SLOAD PUSH2 0x7AF3 JUMP JUMPDEST PUSH2 0x7D07 DUP3 DUP3 DUP6 PUSH2 0x7C43 JUMP JUMPDEST PUSH1 0x0 PUSH1 0x20 SWAP1 POP PUSH1 0x1F DUP4 GT PUSH1 0x1 DUP2 EQ PUSH2 0x7D3A JUMPI PUSH1 0x0 DUP5 ISZERO PUSH2 0x7D28 JUMPI DUP3 DUP8 ADD MLOAD SWAP1 POP JUMPDEST PUSH2 0x7D32 DUP6 DUP3 PUSH2 0x7CB4 JUMP JUMPDEST DUP7 SSTORE POP PUSH2 0x7D9A JUMP JUMPDEST PUSH1 0x1F NOT DUP5 AND PUSH2 0x7D48 DUP7 PUSH2 0x7B24 JUMP JUMPDEST PUSH1 0x0 JUMPDEST DUP3 DUP2 LT ISZERO PUSH2 0x7D70 JUMPI DUP5 DUP10 ADD MLOAD DUP3 SSTORE PUSH1 0x1 DUP3 ADD SWAP2 POP PUSH1 0x20 DUP6 ADD SWAP5 POP PUSH1 0x20 DUP2 ADD SWAP1 POP PUSH2 0x7D4B JUMP JUMPDEST DUP7 DUP4 LT ISZERO PUSH2 0x7D8D JUMPI DUP5 DUP10 ADD MLOAD PUSH2 0x7D89 PUSH1 0x1F DUP10 AND DUP3 PUSH2 0x7C96 JUMP JUMPDEST DUP4 SSTORE POP JUMPDEST PUSH1 0x1 PUSH1 0x2 DUP9 MUL ADD DUP9 SSTORE POP POP POP JUMPDEST POP POP POP POP POP POP JUMP JUMPDEST PUSH1 0x0 DUP2 MLOAD SWAP1 POP PUSH2 0x7DB1 DUP2 PUSH2 0x65A5 JUMP JUMPDEST SWAP3 SWAP2 POP POP JUMP JUMPDEST PUSH1 0x0 PUSH1 0x20 DUP3 DUP5 SUB SLT ISZERO PUSH2 0x7DCD JUMPI PUSH2 0x7DCC PUSH2 0x64DA JUMP JUMPDEST JUMPDEST PUSH1 0x0 PUSH2 0x7DDB DUP5 DUP3 DUP6 ADD PUSH2 0x7DA2 JUMP JUMPDEST SWAP2 POP POP SWAP3 SWAP2 POP POP JUMP JUMPDEST PUSH1 0x0 DUP2 SWAP1 POP SWAP2 SWAP1 POP JUMP JUMPDEST PUSH1 0x0 PUSH2 0x7E09 PUSH2 0x7E04 PUSH2 0x7DFF DUP5 PUSH2 0x7DE4 JUMP JUMPDEST PUSH2 0x7BA8 JUMP JUMPDEST PUSH2 0x6499 JUMP JUMPDEST SWAP1 POP SWAP2 SWAP1 POP JUMP JUMPDEST PUSH2 0x7E19 DUP2 PUSH2 0x7DEE JUMP JUMPDEST DUP3 MSTORE POP POP JUMP JUMPDEST PUSH1 0x0 PUSH1 0x20 DUP3 ADD SWAP1 POP PUSH2 0x7E34 PUSH1 0x0 DUP4 ADD DUP5 PUSH2 0x7E10 JUMP JUMPDEST SWAP3 SWAP2 POP POP JUMP JUMPDEST PUSH1 0x0 PUSH10 0xFFFFFFFFFFFFFFFFFFFF DUP3 AND SWAP1 POP SWAP2 SWAP1 POP JUMP JUMPDEST PUSH2 0x7E59 DUP2 PUSH2 0x7E3A JUMP JUMPDEST DUP2 EQ PUSH2 0x7E64 JUMPI PUSH1 0x0 DUP1 REVERT JUMPDEST POP JUMP JUMPDEST PUSH1 0x0 DUP2 MLOAD SWAP1 POP PUSH2 0x7E76 DUP2 PUSH2 0x7E50 JUMP JUMPDEST SWAP3 SWAP2 POP POP JUMP JUMPDEST PUSH1 0x0 DUP2 SWAP1 POP SWAP2 SWAP1 POP JUMP JUMPDEST PUSH2 0x7E8F DUP2 PUSH2 0x7E7C JUMP JUMPDEST DUP2 EQ PUSH2 0x7E9A JUMPI PUSH1 0x0 DUP1 REVERT JUMPDEST POP JUMP JUMPDEST PUSH1 0x0 DUP2 MLOAD SWAP1 POP PUSH2 0x7EAC DUP2 PUSH2 0x7E86 JUMP JUMPDEST SWAP3 SWAP2 POP POP JUMP JUMPDEST PUSH1 0x0 DUP1 PUSH1 0x0 DUP1 PUSH1 0x0 PUSH1 0xA0 DUP7 DUP9 SUB SLT ISZERO PUSH2 0x7ECE JUMPI PUSH2 0x7ECD PUSH2 0x64DA JUMP JUMPDEST JUMPDEST PUSH1 0x0 PUSH2 0x7EDC DUP9 DUP3 DUP10 ADD PUSH2 0x7E67 JUMP JUMPDEST SWAP6 POP POP PUSH1 0x20 PUSH2 0x7EED DUP9 DUP3 DUP10 ADD PUSH2 0x7E9D JUMP JUMPDEST SWAP5 POP POP PUSH1 0x40 PUSH2 0x7EFE DUP9 DUP3 DUP10 ADD PUSH2 0x7DA2 JUMP JUMPDEST SWAP4 POP POP PUSH1 0x60 PUSH2 0x7F0F DUP9 DUP3 DUP10 ADD PUSH2 0x7DA2 JUMP JUMPDEST SWAP3 POP POP PUSH1 0x80 PUSH2 0x7F20 DUP9 DUP3 DUP10 ADD PUSH2 0x7E67 JUMP JUMPDEST SWAP2 POP POP SWAP3 SWAP6 POP SWAP3 SWAP6 SWAP1 SWAP4 POP JUMP JUMPDEST PUSH32 0x4F776E61626C653A206E6577206F776E657220697320746865207A65726F2061 PUSH1 0x0 DUP3 ADD MSTORE PUSH32 0x6464726573730000000000000000000000000000000000000000000000000000 PUSH1 0x20 DUP3 ADD MSTORE POP JUMP JUMPDEST PUSH1 0x0 PUSH2 0x7F89 PUSH1 0x26 DUP4 PUSH2 0x6EB9 JUMP JUMPDEST SWAP2 POP PUSH2 0x7F94 DUP3 PUSH2 0x7F2D JUMP JUMPDEST PUSH1 0x40 DUP3 ADD SWAP1 POP SWAP2 SWAP1 POP JUMP JUMPDEST PUSH1 0x0 PUSH1 0x20 DUP3 ADD SWAP1 POP DUP2 DUP2 SUB PUSH1 0x0 DUP4 ADD MSTORE PUSH2 0x7FB8 DUP2 PUSH2 0x7F7C JUMP JUMPDEST SWAP1 POP SWAP2 SWAP1 POP JUMP JUMPDEST PUSH32 0x4F776E61626C653A2063616C6C6572206973206E6F7420746865206F776E6572 PUSH1 0x0 DUP3 ADD MSTORE POP JUMP JUMPDEST PUSH1 0x0 PUSH2 0x7FF5 PUSH1 0x20 DUP4 PUSH2 0x6EB9 JUMP JUMPDEST SWAP2 POP PUSH2 0x8000 DUP3 PUSH2 0x7FBF JUMP JUMPDEST PUSH1 0x20 DUP3 ADD SWAP1 POP SWAP2 SWAP1 POP JUMP JUMPDEST PUSH1 0x0 PUSH1 0x20 DUP3 ADD SWAP1 POP DUP2 DUP2 SUB PUSH1 0x0 DUP4 ADD MSTORE PUSH2 0x8024 DUP2 PUSH2 0x7FE8 JUMP JUMPDEST SWAP1 POP SWAP2 SWAP1 POP JUMP JUMPDEST PUSH2 0x8034 DUP2 PUSH2 0x6CEB JUMP JUMPDEST DUP2 EQ PUSH2 0x803F JUMPI PUSH1 0x0 DUP1 REVERT JUMPDEST POP JUMP JUMPDEST PUSH1 0x0 DUP2 MLOAD SWAP1 POP PUSH2 0x8051 DUP2 PUSH2 0x802B JUMP JUMPDEST SWAP3 SWAP2 POP POP JUMP JUMPDEST PUSH1 0x0 PUSH1 0x20 DUP3 DUP5 SUB SLT ISZERO PUSH2 0x806D JUMPI PUSH2 0x806C PUSH2 0x64DA JUMP JUMPDEST JUMPDEST PUSH1 0x0 PUSH2 0x807B DUP5 DUP3 DUP6 ADD PUSH2 0x8042 JUMP JUMPDEST SWAP2 POP POP SWAP3 SWAP2 POP POP JUMP JUMPDEST PUSH32 0x45524331393637557067726164653A206E657720696D706C656D656E74617469 PUSH1 0x0 DUP3 ADD MSTORE PUSH32 0x6F6E206973206E6F742055555053000000000000000000000000000000000000 PUSH1 0x20 DUP3 ADD MSTORE POP JUMP JUMPDEST PUSH1 0x0 PUSH2 0x80E0 PUSH1 0x2E DUP4 PUSH2 0x6EB9 JUMP JUMPDEST SWAP2 POP PUSH2 0x80EB DUP3 PUSH2 0x8084 JUMP JUMPDEST PUSH1 0x40 DUP3 ADD SWAP1 POP SWAP2 SWAP1 POP JUMP JUMPDEST PUSH1 0x0 PUSH1 0x20 DUP3 ADD SWAP1 POP DUP2 DUP2 SUB PUSH1 0x0 DUP4 ADD MSTORE PUSH2 0x810F DUP2 PUSH2 0x80D3 JUMP JUMPDEST SWAP1 POP SWAP2 SWAP1 POP JUMP JUMPDEST PUSH32 0x45524331393637557067726164653A20756E737570706F727465642070726F78 PUSH1 0x0 DUP3 ADD MSTORE PUSH32 0x6961626C65555549440000000000000000000000000000000000000000000000 PUSH1 0x20 DUP3 ADD MSTORE POP JUMP JUMPDEST PUSH1 0x0 PUSH2 0x8172 PUSH1 0x29 DUP4 PUSH2 0x6EB9 JUMP JUMPDEST SWAP2 POP PUSH2 0x817D DUP3 PUSH2 0x8116 JUMP JUMPDEST PUSH1 0x40 DUP3 ADD SWAP1 POP SWAP2 SWAP1 POP JUMP JUMPDEST PUSH1 0x0 PUSH1 0x20 DUP3 ADD SWAP1 POP DUP2 DUP2 SUB PUSH1 0x0 DUP4 ADD MSTORE PUSH2 0x81A1 DUP2 PUSH2 0x8165 JUMP JUMPDEST SWAP1 POP SWAP2 SWAP1 POP JUMP JUMPDEST PUSH32 0x416464726573732063616E6E6F74206265203078302E00000000000000000000 PUSH1 0x0 DUP3 ADD MSTORE POP JUMP JUMPDEST PUSH1 0x0 PUSH2 0x81DE PUSH1 0x16 DUP4 PUSH2 0x6EB9 JUMP JUMPDEST SWAP2 POP PUSH2 0x81E9 DUP3 PUSH2 0x81A8 JUMP JUMPDEST PUSH1 0x20 DUP3 ADD SWAP1 POP SWAP2 SWAP1 POP JUMP JUMPDEST PUSH1 0x0 PUSH1 0x20 DUP3 ADD SWAP1 POP DUP2 DUP2 SUB PUSH1 0x0 DUP4 ADD MSTORE PUSH2 0x820D DUP2 PUSH2 0x81D1 JUMP JUMPDEST SWAP1 POP SWAP2 SWAP1 POP JUMP JUMPDEST PUSH32 0x5061757361626C653A2070617573656400000000000000000000000000000000 PUSH1 0x0 DUP3 ADD MSTORE POP JUMP JUMPDEST PUSH1 0x0 PUSH2 0x824A PUSH1 0x10 DUP4 PUSH2 0x6EB9 JUMP JUMPDEST SWAP2 POP PUSH2 0x8255 DUP3 PUSH2 0x8214 JUMP JUMPDEST PUSH1 0x20 DUP3 ADD SWAP1 POP SWAP2 SWAP1 POP JUMP JUMPDEST PUSH1 0x0 PUSH1 0x20 DUP3 ADD SWAP1 POP DUP2 DUP2 SUB PUSH1 0x0 DUP4 ADD MSTORE PUSH2 0x8279 DUP2 PUSH2 0x823D JUMP JUMPDEST SWAP1 POP SWAP2 SWAP1 POP JUMP JUMPDEST PUSH32 0x5265666572726572206D617820726566657272656420636F756E742065786365 PUSH1 0x0 DUP3 ADD MSTORE PUSH32 0x656465642E20506C656173652063686F6F736520616E6F746865722072656665 PUSH1 0x20 DUP3 ADD MSTORE PUSH32 0x727265722E000000000000000000000000000000000000000000000000000000 PUSH1 0x40 DUP3 ADD MSTORE POP JUMP JUMPDEST PUSH1 0x0 PUSH2 0x8302 PUSH1 0x45 DUP4 PUSH2 0x6EB9 JUMP JUMPDEST SWAP2 POP PUSH2 0x830D DUP3 PUSH2 0x8280 JUMP JUMPDEST PUSH1 0x60 DUP3 ADD SWAP1 POP SWAP2 SWAP1 POP JUMP JUMPDEST PUSH1 0x0 PUSH1 0x20 DUP3 ADD SWAP1 POP DUP2 DUP2 SUB PUSH1 0x0 DUP4 ADD MSTORE PUSH2 0x8331 DUP2 PUSH2 0x82F5 JUMP JUMPDEST SWAP1 POP SWAP2 SWAP1 POP JUMP JUMPDEST PUSH32 0x5265666572726572206F7220506172656E742063616E6E6F7420626520307830 PUSH1 0x0 DUP3 ADD MSTORE PUSH32 0x2061646472657373000000000000000000000000000000000000000000000000 PUSH1 0x20 DUP3 ADD MSTORE POP JUMP JUMPDEST PUSH1 0x0 PUSH2 0x8394 PUSH1 0x28 DUP4 PUSH2 0x749F JUMP JUMPDEST SWAP2 POP PUSH2 0x839F DUP3 PUSH2 0x8338 JUMP JUMPDEST PUSH1 0x28 DUP3 ADD SWAP1 POP SWAP2 SWAP1 POP JUMP JUMPDEST PUSH1 0x0 PUSH2 0x83B5 DUP3 PUSH2 0x8387 JUMP JUMPDEST SWAP2 POP DUP2 SWAP1 POP SWAP2 SWAP1 POP JUMP JUMPDEST PUSH32 0x52656665726565206F7220706172656E742063616E6E6F74206265206F6E6520 PUSH1 0x0 DUP3 ADD MSTORE PUSH32 0x6F66207265666572726572206F7220706172656E742075706C696E6573000000 PUSH1 0x20 DUP3 ADD MSTORE POP JUMP JUMPDEST PUSH1 0x0 PUSH2 0x841B PUSH1 0x3D DUP4 PUSH2 0x749F JUMP JUMPDEST SWAP2 POP PUSH2 0x8426 DUP3 PUSH2 0x83BF JUMP JUMPDEST PUSH1 0x3D DUP3 ADD SWAP1 POP SWAP2 SWAP1 POP JUMP JUMPDEST PUSH1 0x0 PUSH2 0x843C DUP3 PUSH2 0x840E JUMP JUMPDEST SWAP2 POP DUP2 SWAP1 POP SWAP2 SWAP1 POP JUMP JUMPDEST PUSH32 0x416464726573732068617665206265656E20726567697374657265642075706C PUSH1 0x0 DUP3 ADD MSTORE PUSH32 0x696E6520616E6420706172656E74000000000000000000000000000000000000 PUSH1 0x20 DUP3 ADD MSTORE POP JUMP JUMPDEST PUSH1 0x0 PUSH2 0x84A2 PUSH1 0x2E DUP4 PUSH2 0x749F JUMP JUMPDEST SWAP2 POP PUSH2 0x84AD DUP3 PUSH2 0x8446 JUMP JUMPDEST PUSH1 0x2E DUP3 ADD SWAP1 POP SWAP2 SWAP1 POP JUMP JUMPDEST PUSH1 0x0 PUSH2 0x84C3 DUP3 PUSH2 0x8495 JUMP JUMPDEST SWAP2 POP DUP2 SWAP1 POP SWAP2 SWAP1 POP JUMP JUMPDEST PUSH32 0x5553440000000000000000000000000000000000000000000000000000000000 PUSH1 0x0 DUP3 ADD MSTORE POP JUMP JUMPDEST PUSH1 0x0 PUSH2 0x8503 PUSH1 0x3 DUP4 PUSH2 0x6EB9 JUMP JUMPDEST SWAP2 POP PUSH2 0x850E DUP3 PUSH2 0x84CD JUMP JUMPDEST PUSH1 0x20 DUP3 ADD SWAP1 POP SWAP2 SWAP1 POP JUMP JUMPDEST PUSH1 0x0 PUSH1 0x40 DUP3 ADD SWAP1 POP PUSH2 0x852E PUSH1 0x0 DUP4 ADD DUP5 PUSH2 0x646F JUMP JUMPDEST DUP2 DUP2 SUB PUSH1 0x20 DUP4 ADD MSTORE PUSH2 0x853F DUP2 PUSH2 0x84F6 JUMP JUMPDEST SWAP1 POP SWAP3 SWAP2 POP POP JUMP JUMPDEST PUSH32 0x4554480000000000000000000000000000000000000000000000000000000000 PUSH1 0x0 DUP3 ADD MSTORE POP JUMP JUMPDEST PUSH1 0x0 PUSH2 0x857D PUSH1 0x3 DUP4 PUSH2 0x6EB9 JUMP JUMPDEST SWAP2 POP PUSH2 0x8588 DUP3 PUSH2 0x8547 JUMP JUMPDEST PUSH1 0x20 DUP3 ADD SWAP1 POP SWAP2 SWAP1 POP JUMP JUMPDEST PUSH1 0x0 PUSH1 0x40 DUP3 ADD SWAP1 POP PUSH2 0x85A8 PUSH1 0x0 DUP4 ADD DUP5 PUSH2 0x646F JUMP JUMPDEST DUP2 DUP2 SUB PUSH1 0x20 DUP4 ADD MSTORE PUSH2 0x85B9 DUP2 PUSH2 0x8570 JUMP JUMPDEST SWAP1 POP SWAP3 SWAP2 POP POP JUMP JUMPDEST PUSH32 0x496E697469616C697A61626C653A20636F6E7472616374206973206E6F742069 PUSH1 0x0 DUP3 ADD MSTORE PUSH32 0x6E697469616C697A696E67000000000000000000000000000000000000000000 PUSH1 0x20 DUP3 ADD MSTORE POP JUMP JUMPDEST PUSH1 0x0 PUSH2 0x861D PUSH1 0x2B DUP4 PUSH2 0x6EB9 JUMP JUMPDEST SWAP2 POP PUSH2 0x8628 DUP3 PUSH2 0x85C1 JUMP JUMPDEST PUSH1 0x40 DUP3 ADD SWAP1 POP SWAP2 SWAP1 POP JUMP JUMPDEST PUSH1 0x0 PUSH1 0x20 DUP3 ADD SWAP1 POP DUP2 DUP2 SUB PUSH1 0x0 DUP4 ADD MSTORE PUSH2 0x864C DUP2 PUSH2 0x8610 JUMP JUMPDEST SWAP1 POP SWAP2 SWAP1 POP JUMP JUMPDEST PUSH32 0x455243313936373A206E657720696D706C656D656E746174696F6E206973206E PUSH1 0x0 DUP3 ADD MSTORE PUSH32 0x6F74206120636F6E747261637400000000000000000000000000000000000000 PUSH1 0x20 DUP3 ADD MSTORE POP JUMP JUMPDEST PUSH1 0x0 PUSH2 0x86AF PUSH1 0x2D DUP4 PUSH2 0x6EB9 JUMP JUMPDEST SWAP2 POP PUSH2 0x86BA DUP3 PUSH2 0x8653 JUMP JUMPDEST PUSH1 0x40 DUP3 ADD SWAP1 POP SWAP2 SWAP1 POP JUMP JUMPDEST PUSH1 0x0 PUSH1 0x20 DUP3 ADD SWAP1 POP DUP2 DUP2 SUB PUSH1 0x0 DUP4 ADD MSTORE PUSH2 0x86DE DUP2 PUSH2 0x86A2 JUMP JUMPDEST SWAP1 POP SWAP2 SWAP1 POP JUMP JUMPDEST PUSH32 0x5061757361626C653A206E6F7420706175736564000000000000000000000000 PUSH1 0x0 DUP3 ADD MSTORE POP JUMP JUMPDEST PUSH1 0x0 PUSH2 0x871B PUSH1 0x14 DUP4 PUSH2 0x6EB9 JUMP JUMPDEST SWAP2 POP PUSH2 0x8726 DUP3 PUSH2 0x86E5 JUMP JUMPDEST PUSH1 0x20 DUP3 ADD SWAP1 POP SWAP2 SWAP1 POP JUMP JUMPDEST PUSH1 0x0 PUSH1 0x20 DUP3 ADD SWAP1 POP DUP2 DUP2 SUB PUSH1 0x0 DUP4 ADD MSTORE PUSH2 0x874A DUP2 PUSH2 0x870E JUMP JUMPDEST SWAP1 POP SWAP2 SWAP1 POP JUMP JUMPDEST PUSH32 0x416464726573733A2064656C65676174652063616C6C20746F206E6F6E2D636F PUSH1 0x0 DUP3 ADD MSTORE PUSH32 0x6E74726163740000000000000000000000000000000000000000000000000000 PUSH1 0x20 DUP3 ADD MSTORE POP JUMP JUMPDEST PUSH1 0x0 PUSH2 0x87AD PUSH1 0x26 DUP4 PUSH2 0x6EB9 JUMP JUMPDEST SWAP2 POP PUSH2 0x87B8 DUP3 PUSH2 0x8751 JUMP JUMPDEST PUSH1 0x40 DUP3 ADD SWAP1 POP SWAP2 SWAP1 POP JUMP JUMPDEST PUSH1 0x0 PUSH1 0x20 DUP3 ADD SWAP1 POP DUP2 DUP2 SUB PUSH1 0x0 DUP4 ADD MSTORE PUSH2 0x87DC DUP2 PUSH2 0x87A0 JUMP JUMPDEST SWAP1 POP SWAP2 SWAP1 POP JUMP JUMPDEST PUSH1 0x0 DUP2 MLOAD SWAP1 POP SWAP2 SWAP1 POP JUMP JUMPDEST PUSH1 0x0 DUP2 SWAP1 POP SWAP3 SWAP2 POP POP JUMP JUMPDEST PUSH1 0x0 PUSH2 0x8804 DUP3 PUSH2 0x87E3 JUMP JUMPDEST PUSH2 0x880E DUP2 DUP6 PUSH2 0x87EE JUMP JUMPDEST SWAP4 POP PUSH2 0x881E DUP2 DUP6 PUSH1 0x20 DUP7 ADD PUSH2 0x6ECA JUMP JUMPDEST DUP1 DUP5 ADD SWAP2 POP POP SWAP3 SWAP2 POP POP JUMP JUMPDEST PUSH1 0x0 PUSH2 0x8836 DUP3 DUP5 PUSH2 0x87F9 JUMP JUMPDEST SWAP2 POP DUP2 SWAP1 POP SWAP3 SWAP2 POP POP JUMP INVALID COINBASE PUSH5 0x6472657373 GASPRICE KECCAK256 PUSH13 0x6F772D6C6576656C2064656C65 PUSH8 0x6174652063616C6C KECCAK256 PUSH7 0x61696C6564A264 PUSH10 0x70667358221220DA62F2 0xBF 0xCD TIMESTAMP 0xE8 PUSH15 0xDF11EC8624588DF29BACC886AF3DBD DUP16 0xF9 DUP16 0xC0 0x27 PUSH30 0x8A759764736F6C6343000811003300000000000000000000000000000000 "
		},
		"gasEstimates": {
			"creation": {
				"codeDepositCost": "6994800",
				"executionCost": "infinite",
				"totalCost": "infinite"
			},
			"external": {
				"AccountMap(address)": "infinite",
				"AddReferrerAdmin(address[],address[])": "infinite",
				"BuyWithETH(address,address)": "infinite",
				"BuyWithUSD(address,address,uint256)": "infinite",
				"addReferrer(address,address)": "infinite",
				"getDefaultReferrer()": "2635",
				"getETH_USDPrice()": "infinite",
				"getLevelDecimals()": "2547",
				"getLevelRates()": "infinite",
				"getLevelRefferalBonus()": "2528",
				"getMaxBonusLevels()": "2593",
				"getMaxReferredCount()": "2507",
				"getMinContributionETH()": "infinite",
				"getMinContributionUSD()": "2570",
				"getMinReferredCount()": "2571",
				"getPayReferralFee()": "2548",
				"getPricePerUSD()": "2549",
				"getReferredCount(address)": "2966",
				"getSeller()": "2655",
				"getStakingContract()": "2590",
				"getTokenContract()": "2590",
				"getTokenDecimals()": "2572",
				"getTokenName()": "infinite",
				"getTokenSupply()": "2505",
				"getTokenTax()": "2526",
				"getTokensValueETH(uint256)": "infinite",
				"getTokensValueUSD(uint256)": "infinite",
				"getTotalETHRaised()": "2527",
				"getTotalPendingRewardETH()": "2593",
				"getTotalPendingRewardUSD()": "2573",
				"getTotalRewardDistributedETH()": "2527",
				"getTotalRewardDistributedUSD()": "2550",
				"getTotalTokenSold()": "2549",
				"getTotalUSDRaised()": "2592",
				"getUSDContract()": "2611",
				"getpriceFeedOracleAddress()": "2589",
				"hasReferrer(address)": "2979",
				"initialize()": "infinite",
				"isBuyAndStakeEnable()": "2613",
				"isPayReferralEnable()": "2640",
				"owner()": "2656",
				"pauseAdmin()": "infinite",
				"paused()": "2591",
				"proxiableUUID()": "infinite",
				"renounceOwnership()": "30467",
				"sendNativeFundsAdmin(address,uint256)": "infinite",
				"setAccountMap(address,uint256,uint256,address,uint256,uint256,uint256,uint256)": "infinite",
				"setBuyAndStakeAdmin(bool)": "infinite",
				"setDefaultReferrer(address)": "27074",
				"setLevelDecimals(uint256)": "25141",
				"setLevelRate(uint256[])": "infinite",
				"setLevelRefferalBonus(uint256)": "25097",
				"setMaxBonusLevels(uint8)": "27212",
				"setMaxReferredCount(uint256)": "24852",
				"setMinContributionUSDAdmin(uint256)": "25075",
				"setMinReferredCount(uint256)": "24851",
				"setPayReferralAdmin(bool)": "infinite",
				"setPayReferralFeeAdmin(uint256)": "25121",
				"setPricePerUSDAdmin(uint256)": "25052",
				"setStakingContractAdmin(address)": "27321",
				"setTokenContractAdmin(address)": "infinite",
				"setUSDContractAdmin(address)": "27343",
				"setpriceFeedOracleAddressAdmin(address)": "27278",
				"transferOwnership(address)": "30898",
				"unpauseAdmin()": "infinite",
				"upgradeTo(address)": "infinite",
				"upgradeToAndCall(address,bytes)": "infinite",
				"withdrawAdmin()": "infinite",
				"withdrawPendingReward()": "infinite",
				"withdrawTokenAdmin(address,uint256)": "infinite"
			},
			"internal": {
				"_addReferrer(address,address)": "infinite",
				"_authorizeUpgrade(address)": "infinite",
				"_getCurrentTime()": "22",
				"_getReferredCount(address)": "2238",
				"isCircularReference(address,address)": "infinite",
				"payReferralInETH(uint256,address)": "infinite",
				"payReferralInUSD(uint256,address)": "infinite",
				"sum(uint256[] memory)": "infinite"
			}
		},
		"methodIdentifiers": {
			"AccountMap(address)": "40a2472a",
			"AddReferrerAdmin(address[],address[])": "3cac0f53",
			"BuyWithETH(address,address)": "669e8e8e",
			"BuyWithUSD(address,address,uint256)": "62b30415",
			"addReferrer(address,address)": "b94265b8",
			"getDefaultReferrer()": "24883508",
			"getETH_USDPrice()": "94a73f59",
			"getLevelDecimals()": "e7cca9c7",
			"getLevelRates()": "918a54db",
			"getLevelRefferalBonus()": "18cfd80f",
			"getMaxBonusLevels()": "08d05d5e",
			"getMaxReferredCount()": "0207aef4",
			"getMinContributionETH()": "1f9e65e4",
			"getMinContributionUSD()": "685ac12b",
			"getMinReferredCount()": "9a9466ae",
			"getPayReferralFee()": "a6ad9410",
			"getPricePerUSD()": "472d561d",
			"getReferredCount(address)": "83dd0341",
			"getSeller()": "dbd0e1b6",
			"getStakingContract()": "8e68dce4",
			"getTokenContract()": "28b7bede",
			"getTokenDecimals()": "24f65ee7",
			"getTokenName()": "862b092b",
			"getTokenSupply()": "ad974f4c",
			"getTokenTax()": "d7c5bd91",
			"getTokensValueETH(uint256)": "cf6ad824",
			"getTokensValueUSD(uint256)": "66146ef1",
			"getTotalETHRaised()": "2cf9a69c",
			"getTotalPendingRewardETH()": "31e529a0",
			"getTotalPendingRewardUSD()": "0c678bce",
			"getTotalRewardDistributedETH()": "b20feb2d",
			"getTotalRewardDistributedUSD()": "1a5ffc3e",
			"getTotalTokenSold()": "2ecd7020",
			"getTotalUSDRaised()": "6c5e0611",
			"getUSDContract()": "a5bac943",
			"getpriceFeedOracleAddress()": "d1c280bd",
			"hasReferrer(address)": "18452cd8",
			"initialize()": "8129fc1c",
			"isBuyAndStakeEnable()": "4c3a5875",
			"isPayReferralEnable()": "c9dc6302",
			"owner()": "8da5cb5b",
			"pauseAdmin()": "2f11d653",
			"paused()": "5c975abb",
			"proxiableUUID()": "52d1902d",
			"renounceOwnership()": "715018a6",
			"sendNativeFundsAdmin(address,uint256)": "1cecbe9a",
			"setAccountMap(address,uint256,uint256,address,uint256,uint256,uint256,uint256)": "4595066b",
			"setBuyAndStakeAdmin(bool)": "7e76a70c",
			"setDefaultReferrer(address)": "dcf6e819",
			"setLevelDecimals(uint256)": "cfbdb859",
			"setLevelRate(uint256[])": "82647e47",
			"setLevelRefferalBonus(uint256)": "67deb84f",
			"setMaxBonusLevels(uint8)": "9c7dd27e",
			"setMaxReferredCount(uint256)": "52414ec9",
			"setMinContributionUSDAdmin(uint256)": "c94d6b1f",
			"setMinReferredCount(uint256)": "c912807a",
			"setPayReferralAdmin(bool)": "e9bd186d",
			"setPayReferralFeeAdmin(uint256)": "1b10f387",
			"setPricePerUSDAdmin(uint256)": "dc245e12",
			"setStakingContractAdmin(address)": "a821b069",
			"setTokenContractAdmin(address)": "b68e1e46",
			"setUSDContractAdmin(address)": "ac6f6a2d",
			"setpriceFeedOracleAddressAdmin(address)": "857d22ef",
			"transferOwnership(address)": "f2fde38b",
			"unpauseAdmin()": "db5184e6",
			"upgradeTo(address)": "3659cfe6",
			"upgradeToAndCall(address,bytes)": "4f1ef286",
			"withdrawAdmin()": "04c76af0",
			"withdrawPendingReward()": "42910c5a",
			"withdrawTokenAdmin(address,uint256)": "34dcfa8c"
		}
	},
	"abi": [
		{
			"anonymous": false,
			"inputs": [
				{
					"indexed": false,
					"internalType": "address",
					"name": "previousAdmin",
					"type": "address"
				},
				{
					"indexed": false,
					"internalType": "address",
					"name": "newAdmin",
					"type": "address"
				}
			],
			"name": "AdminChanged",
			"type": "event"
		},
		{
			"anonymous": false,
			"inputs": [
				{
					"indexed": true,
					"internalType": "address",
					"name": "beacon",
					"type": "address"
				}
			],
			"name": "BeaconUpgraded",
			"type": "event"
		},
		{
			"anonymous": false,
			"inputs": [
				{
					"indexed": false,
					"internalType": "uint8",
					"name": "version",
					"type": "uint8"
				}
			],
			"name": "Initialized",
			"type": "event"
		},
		{
			"anonymous": false,
			"inputs": [
				{
					"indexed": true,
					"internalType": "address",
					"name": "previousOwner",
					"type": "address"
				},
				{
					"indexed": true,
					"internalType": "address",
					"name": "newOwner",
					"type": "address"
				}
			],
			"name": "OwnershipTransferred",
			"type": "event"
		},
		{
			"anonymous": false,
			"inputs": [
				{
					"indexed": false,
					"internalType": "address",
					"name": "account",
					"type": "address"
				}
			],
			"name": "Paused",
			"type": "event"
		},
		{
			"anonymous": false,
			"inputs": [
				{
					"indexed": true,
					"internalType": "address",
					"name": "from",
					"type": "address"
				},
				{
					"indexed": true,
					"internalType": "uint256",
					"name": "amountETH",
					"type": "uint256"
				},
				{
					"indexed": true,
					"internalType": "uint256",
					"name": "amountUSD",
					"type": "uint256"
				}
			],
			"name": "ReferralIncomeClaimed",
			"type": "event"
		},
		{
			"anonymous": false,
			"inputs": [
				{
					"indexed": true,
					"internalType": "address",
					"name": "from",
					"type": "address"
				},
				{
					"indexed": true,
					"internalType": "address",
					"name": "to",
					"type": "address"
				},
				{
					"indexed": true,
					"internalType": "uint256",
					"name": "amount",
					"type": "uint256"
				},
				{
					"indexed": false,
					"internalType": "uint256",
					"name": "level",
					"type": "uint256"
				},
				{
					"indexed": false,
					"internalType": "string",
					"name": "currency",
					"type": "string"
				}
			],
			"name": "ReferralIncomeGenerated",
			"type": "event"
		},
		{
			"anonymous": false,
			"inputs": [
				{
					"indexed": true,
					"internalType": "address",
					"name": "referee",
					"type": "address"
				},
				{
					"indexed": true,
					"internalType": "address",
					"name": "referrer",
					"type": "address"
				},
				{
					"indexed": true,
					"internalType": "address",
					"name": "parent",
					"type": "address"
				}
			],
			"name": "RegisteredParent",
			"type": "event"
		},
		{
			"anonymous": false,
			"inputs": [
				{
					"indexed": true,
					"internalType": "address",
					"name": "referee",
					"type": "address"
				},
				{
					"indexed": true,
					"internalType": "address",
					"name": "referrer",
					"type": "address"
				}
			],
			"name": "RegisteredReferer",
			"type": "event"
		},
		{
			"anonymous": false,
			"inputs": [
				{
					"indexed": true,
					"internalType": "address",
					"name": "referee",
					"type": "address"
				},
				{
					"indexed": true,
					"internalType": "address",
					"name": "referrer",
					"type": "address"
				},
				{
					"indexed": true,
					"internalType": "string",
					"name": "reason",
					"type": "string"
				}
			],
			"name": "RegisteredRefererFailed",
			"type": "event"
		},
		{
			"anonymous": false,
			"inputs": [
				{
					"indexed": true,
					"internalType": "address",
					"name": "from",
					"type": "address"
				},
				{
					"indexed": false,
					"internalType": "uint256",
					"name": "value",
					"type": "uint256"
				}
			],
			"name": "TokenPurchased",
			"type": "event"
		},
		{
			"anonymous": false,
			"inputs": [
				{
					"indexed": false,
					"internalType": "address",
					"name": "account",
					"type": "address"
				}
			],
			"name": "Unpaused",
			"type": "event"
		},
		{
			"anonymous": false,
			"inputs": [
				{
					"indexed": true,
					"internalType": "address",
					"name": "implementation",
					"type": "address"
				}
			],
			"name": "Upgraded",
			"type": "event"
		},
		{
			"inputs": [
				{
					"internalType": "address",
					"name": "addr",
					"type": "address"
				}
			],
			"name": "AccountMap",
			"outputs": [
				{
					"components": [
						{
							"internalType": "address payable",
							"name": "referrer",
							"type": "address"
						},
						{
							"internalType": "address payable",
							"name": "parent",
							"type": "address"
						},
						{
							"internalType": "uint256",
							"name": "parentPaidCount",
							"type": "uint256"
						},
						{
							"internalType": "address[]",
							"name": "referredAddresses",
							"type": "address[]"
						},
						{
							"internalType": "uint256",
							"name": "referredCount",
							"type": "uint256"
						},
						{
							"internalType": "uint256",
							"name": "totalBusinessETH",
							"type": "uint256"
						},
						{
							"internalType": "uint256",
							"name": "totalBusinessUSD",
							"type": "uint256"
						},
						{
							"internalType": "uint256",
							"name": "pendingRewardETH",
							"type": "uint256"
						},
						{
							"internalType": "uint256",
							"name": "pendingRewardUSD",
							"type": "uint256"
						},
						{
							"internalType": "uint256[]",
							"name": "rewardClaimedETH",
							"type": "uint256[]"
						},
						{
							"internalType": "uint256[]",
							"name": "rewardClaimedUSD",
							"type": "uint256[]"
						},
						{
							"internalType": "uint256[]",
							"name": "rewardClaimedTimeStampETH",
							"type": "uint256[]"
						},
						{
							"internalType": "uint256[]",
							"name": "rewardClaimedTimeStampUSD",
							"type": "uint256[]"
						}
					],
					"internalType": "struct PresaleReferralV3Upgradable.Account",
					"name": "",
					"type": "tuple"
				}
			],
			"stateMutability": "view",
			"type": "function"
		},
		{
			"inputs": [
				{
					"internalType": "address payable[]",
					"name": "referrer",
					"type": "address[]"
				},
				{
					"internalType": "address[]",
					"name": "_referree",
					"type": "address[]"
				}
			],
			"name": "AddReferrerAdmin",
			"outputs": [
				{
					"internalType": "bool",
					"name": "",
					"type": "bool"
				}
			],
			"stateMutability": "nonpayable",
			"type": "function"
		},
		{
			"inputs": [
				{
					"internalType": "address",
					"name": "_referrer",
					"type": "address"
				},
				{
					"internalType": "address",
					"name": "_parent",
					"type": "address"
				}
			],
			"name": "BuyWithETH",
			"outputs": [],
			"stateMutability": "payable",
			"type": "function"
		},
		{
			"inputs": [
				{
					"internalType": "address",
					"name": "_referrer",
					"type": "address"
				},
				{
					"internalType": "address",
					"name": "_parent",
					"type": "address"
				},
				{
					"internalType": "uint256",
					"name": "_value",
					"type": "uint256"
				}
			],
			"name": "BuyWithUSD",
			"outputs": [],
			"stateMutability": "nonpayable",
			"type": "function"
		},
		{
			"inputs": [
				{
					"internalType": "address",
					"name": "_referrer",
					"type": "address"
				},
				{
					"internalType": "address",
					"name": "_parent",
					"type": "address"
				}
			],
			"name": "addReferrer",
			"outputs": [
				{
					"internalType": "bool",
					"name": "",
					"type": "bool"
				}
			],
			"stateMutability": "nonpayable",
			"type": "function"
		},
		{
			"inputs": [],
			"name": "getDefaultReferrer",
			"outputs": [
				{
					"internalType": "address",
					"name": "",
					"type": "address"
				}
			],
			"stateMutability": "view",
			"type": "function"
		},
		{
			"inputs": [],
			"name": "getETH_USDPrice",
			"outputs": [
				{
					"internalType": "uint256",
					"name": "ETH_USD",
					"type": "uint256"
				}
			],
			"stateMutability": "view",
			"type": "function"
		},
		{
			"inputs": [],
			"name": "getLevelDecimals",
			"outputs": [
				{
					"internalType": "uint256",
					"name": "",
					"type": "uint256"
				}
			],
			"stateMutability": "view",
			"type": "function"
		},
		{
			"inputs": [],
			"name": "getLevelRates",
			"outputs": [
				{
					"internalType": "uint256[]",
					"name": "",
					"type": "uint256[]"
				}
			],
			"stateMutability": "view",
			"type": "function"
		},
		{
			"inputs": [],
			"name": "getLevelRefferalBonus",
			"outputs": [
				{
					"internalType": "uint256",
					"name": "",
					"type": "uint256"
				}
			],
			"stateMutability": "view",
			"type": "function"
		},
		{
			"inputs": [],
			"name": "getMaxBonusLevels",
			"outputs": [
				{
					"internalType": "uint8",
					"name": "",
					"type": "uint8"
				}
			],
			"stateMutability": "view",
			"type": "function"
		},
		{
			"inputs": [],
			"name": "getMaxReferredCount",
			"outputs": [
				{
					"internalType": "uint256",
					"name": "",
					"type": "uint256"
				}
			],
			"stateMutability": "view",
			"type": "function"
		},
		{
			"inputs": [],
			"name": "getMinContributionETH",
			"outputs": [
				{
					"internalType": "uint256",
					"name": "minETHRequired",
					"type": "uint256"
				}
			],
			"stateMutability": "view",
			"type": "function"
		},
		{
			"inputs": [],
			"name": "getMinContributionUSD",
			"outputs": [
				{
					"internalType": "uint256",
					"name": "",
					"type": "uint256"
				}
			],
			"stateMutability": "view",
			"type": "function"
		},
		{
			"inputs": [],
			"name": "getMinReferredCount",
			"outputs": [
				{
					"internalType": "uint256",
					"name": "",
					"type": "uint256"
				}
			],
			"stateMutability": "view",
			"type": "function"
		},
		{
			"inputs": [],
			"name": "getPayReferralFee",
			"outputs": [
				{
					"internalType": "uint256",
					"name": "",
					"type": "uint256"
				}
			],
			"stateMutability": "view",
			"type": "function"
		},
		{
			"inputs": [],
			"name": "getPricePerUSD",
			"outputs": [
				{
					"internalType": "uint256",
					"name": "",
					"type": "uint256"
				}
			],
			"stateMutability": "view",
			"type": "function"
		},
		{
			"inputs": [
				{
					"internalType": "address",
					"name": "_address",
					"type": "address"
				}
			],
			"name": "getReferredCount",
			"outputs": [
				{
					"internalType": "uint256",
					"name": "",
					"type": "uint256"
				}
			],
			"stateMutability": "view",
			"type": "function"
		},
		{
			"inputs": [],
			"name": "getSeller",
			"outputs": [
				{
					"internalType": "address",
					"name": "",
					"type": "address"
				}
			],
			"stateMutability": "view",
			"type": "function"
		},
		{
			"inputs": [],
			"name": "getStakingContract",
			"outputs": [
				{
					"internalType": "address",
					"name": "",
					"type": "address"
				}
			],
			"stateMutability": "view",
			"type": "function"
		},
		{
			"inputs": [],
			"name": "getTokenContract",
			"outputs": [
				{
					"internalType": "address",
					"name": "",
					"type": "address"
				}
			],
			"stateMutability": "view",
			"type": "function"
		},
		{
			"inputs": [],
			"name": "getTokenDecimals",
			"outputs": [
				{
					"internalType": "uint256",
					"name": "",
					"type": "uint256"
				}
			],
			"stateMutability": "view",
			"type": "function"
		},
		{
			"inputs": [],
			"name": "getTokenName",
			"outputs": [
				{
					"internalType": "string",
					"name": "",
					"type": "string"
				}
			],
			"stateMutability": "view",
			"type": "function"
		},
		{
			"inputs": [],
			"name": "getTokenSupply",
			"outputs": [
				{
					"internalType": "uint256",
					"name": "",
					"type": "uint256"
				}
			],
			"stateMutability": "view",
			"type": "function"
		},
		{
			"inputs": [],
			"name": "getTokenTax",
			"outputs": [
				{
					"internalType": "uint256",
					"name": "",
					"type": "uint256"
				}
			],
			"stateMutability": "view",
			"type": "function"
		},
		{
			"inputs": [
				{
					"internalType": "uint256",
					"name": "_ethValue",
					"type": "uint256"
				}
			],
			"name": "getTokensValueETH",
			"outputs": [
				{
					"internalType": "uint256",
					"name": "tokenValue",
					"type": "uint256"
				}
			],
			"stateMutability": "view",
			"type": "function"
		},
		{
			"inputs": [
				{
					"internalType": "uint256",
					"name": "_usdValue",
					"type": "uint256"
				}
			],
			"name": "getTokensValueUSD",
			"outputs": [
				{
					"internalType": "uint256",
					"name": "tokenValue",
					"type": "uint256"
				}
			],
			"stateMutability": "view",
			"type": "function"
		},
		{
			"inputs": [],
			"name": "getTotalETHRaised",
			"outputs": [
				{
					"internalType": "uint256",
					"name": "",
					"type": "uint256"
				}
			],
			"stateMutability": "view",
			"type": "function"
		},
		{
			"inputs": [],
			"name": "getTotalPendingRewardETH",
			"outputs": [
				{
					"internalType": "uint256",
					"name": "",
					"type": "uint256"
				}
			],
			"stateMutability": "view",
			"type": "function"
		},
		{
			"inputs": [],
			"name": "getTotalPendingRewardUSD",
			"outputs": [
				{
					"internalType": "uint256",
					"name": "",
					"type": "uint256"
				}
			],
			"stateMutability": "view",
			"type": "function"
		},
		{
			"inputs": [],
			"name": "getTotalRewardDistributedETH",
			"outputs": [
				{
					"internalType": "uint256",
					"name": "",
					"type": "uint256"
				}
			],
			"stateMutability": "view",
			"type": "function"
		},
		{
			"inputs": [],
			"name": "getTotalRewardDistributedUSD",
			"outputs": [
				{
					"internalType": "uint256",
					"name": "",
					"type": "uint256"
				}
			],
			"stateMutability": "view",
			"type": "function"
		},
		{
			"inputs": [],
			"name": "getTotalTokenSold",
			"outputs": [
				{
					"internalType": "uint256",
					"name": "",
					"type": "uint256"
				}
			],
			"stateMutability": "view",
			"type": "function"
		},
		{
			"inputs": [],
			"name": "getTotalUSDRaised",
			"outputs": [
				{
					"internalType": "uint256",
					"name": "",
					"type": "uint256"
				}
			],
			"stateMutability": "view",
			"type": "function"
		},
		{
			"inputs": [],
			"name": "getUSDContract",
			"outputs": [
				{
					"internalType": "address",
					"name": "",
					"type": "address"
				}
			],
			"stateMutability": "view",
			"type": "function"
		},
		{
			"inputs": [],
			"name": "getpriceFeedOracleAddress",
			"outputs": [
				{
					"internalType": "address",
					"name": "",
					"type": "address"
				}
			],
			"stateMutability": "view",
			"type": "function"
		},
		{
			"inputs": [
				{
					"internalType": "address",
					"name": "addr",
					"type": "address"
				}
			],
			"name": "hasReferrer",
			"outputs": [
				{
					"internalType": "bool",
					"name": "",
					"type": "bool"
				}
			],
			"stateMutability": "view",
			"type": "function"
		},
		{
			"inputs": [],
			"name": "initialize",
			"outputs": [],
			"stateMutability": "nonpayable",
			"type": "function"
		},
		{
			"inputs": [],
			"name": "isBuyAndStakeEnable",
			"outputs": [
				{
					"internalType": "bool",
					"name": "",
					"type": "bool"
				}
			],
			"stateMutability": "view",
			"type": "function"
		},
		{
			"inputs": [],
			"name": "isPayReferralEnable",
			"outputs": [
				{
					"internalType": "bool",
					"name": "",
					"type": "bool"
				}
			],
			"stateMutability": "view",
			"type": "function"
		},
		{
			"inputs": [],
			"name": "owner",
			"outputs": [
				{
					"internalType": "address",
					"name": "",
					"type": "address"
				}
			],
			"stateMutability": "view",
			"type": "function"
		},
		{
			"inputs": [],
			"name": "pauseAdmin",
			"outputs": [],
			"stateMutability": "nonpayable",
			"type": "function"
		},
		{
			"inputs": [],
			"name": "paused",
			"outputs": [
				{
					"internalType": "bool",
					"name": "",
					"type": "bool"
				}
			],
			"stateMutability": "view",
			"type": "function"
		},
		{
			"inputs": [],
			"name": "proxiableUUID",
			"outputs": [
				{
					"internalType": "bytes32",
					"name": "",
					"type": "bytes32"
				}
			],
			"stateMutability": "view",
			"type": "function"
		},
		{
			"inputs": [],
			"name": "renounceOwnership",
			"outputs": [],
			"stateMutability": "nonpayable",
			"type": "function"
		},
		{
			"inputs": [
				{
					"internalType": "address",
					"name": "_address",
					"type": "address"
				},
				{
					"internalType": "uint256",
					"name": "_value",
					"type": "uint256"
				}
			],
			"name": "sendNativeFundsAdmin",
			"outputs": [],
			"stateMutability": "nonpayable",
			"type": "function"
		},
		{
			"inputs": [
				{
					"internalType": "address",
					"name": "addr",
					"type": "address"
				},
				{
					"internalType": "uint256",
					"name": "_totalBusinessETH",
					"type": "uint256"
				},
				{
					"internalType": "uint256",
					"name": "_totalBusinessUSD",
					"type": "uint256"
				},
				{
					"internalType": "address",
					"name": "_referredAddresses",
					"type": "address"
				},
				{
					"internalType": "uint256",
					"name": "_pendingRewardETH",
					"type": "uint256"
				},
				{
					"internalType": "uint256",
					"name": "_pendingRewardUSD",
					"type": "uint256"
				},
				{
					"internalType": "uint256",
					"name": "_rewardClaimedETH",
					"type": "uint256"
				},
				{
					"internalType": "uint256",
					"name": "_rewardClaimedUSD",
					"type": "uint256"
				}
			],
			"name": "setAccountMap",
			"outputs": [
				{
					"internalType": "bool",
					"name": "",
					"type": "bool"
				}
			],
			"stateMutability": "nonpayable",
			"type": "function"
		},
		{
			"inputs": [
				{
					"internalType": "bool",
					"name": "_bool",
					"type": "bool"
				}
			],
			"name": "setBuyAndStakeAdmin",
			"outputs": [
				{
					"internalType": "bool",
					"name": "",
					"type": "bool"
				}
			],
			"stateMutability": "nonpayable",
			"type": "function"
		},
		{
			"inputs": [
				{
					"internalType": "address payable",
					"name": "_address",
					"type": "address"
				}
			],
			"name": "setDefaultReferrer",
			"outputs": [],
			"stateMutability": "nonpayable",
			"type": "function"
		},
		{
			"inputs": [
				{
					"internalType": "uint256",
					"name": "_value",
					"type": "uint256"
				}
			],
			"name": "setLevelDecimals",
			"outputs": [
				{
					"internalType": "bool",
					"name": "",
					"type": "bool"
				}
			],
			"stateMutability": "nonpayable",
			"type": "function"
		},
		{
			"inputs": [
				{
					"internalType": "uint256[]",
					"name": "_value",
					"type": "uint256[]"
				}
			],
			"name": "setLevelRate",
			"outputs": [
				{
					"internalType": "bool",
					"name": "",
					"type": "bool"
				}
			],
			"stateMutability": "nonpayable",
			"type": "function"
		},
		{
			"inputs": [
				{
					"internalType": "uint256",
					"name": "_value",
					"type": "uint256"
				}
			],
			"name": "setLevelRefferalBonus",
			"outputs": [
				{
					"internalType": "bool",
					"name": "",
					"type": "bool"
				}
			],
			"stateMutability": "nonpayable",
			"type": "function"
		},
		{
			"inputs": [
				{
					"internalType": "uint8",
					"name": "_value",
					"type": "uint8"
				}
			],
			"name": "setMaxBonusLevels",
			"outputs": [
				{
					"internalType": "bool",
					"name": "",
					"type": "bool"
				}
			],
			"stateMutability": "nonpayable",
			"type": "function"
		},
		{
			"inputs": [
				{
					"internalType": "uint256",
					"name": "_value",
					"type": "uint256"
				}
			],
			"name": "setMaxReferredCount",
			"outputs": [],
			"stateMutability": "nonpayable",
			"type": "function"
		},
		{
			"inputs": [
				{
					"internalType": "uint256",
					"name": "_value",
					"type": "uint256"
				}
			],
			"name": "setMinContributionUSDAdmin",
			"outputs": [
				{
					"internalType": "bool",
					"name": "",
					"type": "bool"
				}
			],
			"stateMutability": "nonpayable",
			"type": "function"
		},
		{
			"inputs": [
				{
					"internalType": "uint256",
					"name": "_value",
					"type": "uint256"
				}
			],
			"name": "setMinReferredCount",
			"outputs": [],
			"stateMutability": "nonpayable",
			"type": "function"
		},
		{
			"inputs": [
				{
					"internalType": "bool",
					"name": "_bool",
					"type": "bool"
				}
			],
			"name": "setPayReferralAdmin",
			"outputs": [
				{
					"internalType": "bool",
					"name": "",
					"type": "bool"
				}
			],
			"stateMutability": "nonpayable",
			"type": "function"
		},
		{
			"inputs": [
				{
					"internalType": "uint256",
					"name": "_value",
					"type": "uint256"
				}
			],
			"name": "setPayReferralFeeAdmin",
			"outputs": [
				{
					"internalType": "bool",
					"name": "",
					"type": "bool"
				}
			],
			"stateMutability": "nonpayable",
			"type": "function"
		},
		{
			"inputs": [
				{
					"internalType": "uint256",
					"name": "_value",
					"type": "uint256"
				}
			],
			"name": "setPricePerUSDAdmin",
			"outputs": [
				{
					"internalType": "bool",
					"name": "",
					"type": "bool"
				}
			],
			"stateMutability": "nonpayable",
			"type": "function"
		},
		{
			"inputs": [
				{
					"internalType": "address",
					"name": "_address",
					"type": "address"
				}
			],
			"name": "setStakingContractAdmin",
			"outputs": [
				{
					"internalType": "bool",
					"name": "",
					"type": "bool"
				}
			],
			"stateMutability": "nonpayable",
			"type": "function"
		},
		{
			"inputs": [
				{
					"internalType": "address",
					"name": "_address",
					"type": "address"
				}
			],
			"name": "setTokenContractAdmin",
			"outputs": [
				{
					"internalType": "bool",
					"name": "",
					"type": "bool"
				}
			],
			"stateMutability": "nonpayable",
			"type": "function"
		},
		{
			"inputs": [
				{
					"internalType": "address",
					"name": "_address",
					"type": "address"
				}
			],
			"name": "setUSDContractAdmin",
			"outputs": [
				{
					"internalType": "bool",
					"name": "",
					"type": "bool"
				}
			],
			"stateMutability": "nonpayable",
			"type": "function"
		},
		{
			"inputs": [
				{
					"internalType": "address",
					"name": "_address",
					"type": "address"
				}
			],
			"name": "setpriceFeedOracleAddressAdmin",
			"outputs": [
				{
					"internalType": "bool",
					"name": "",
					"type": "bool"
				}
			],
			"stateMutability": "nonpayable",
			"type": "function"
		},
		{
			"inputs": [
				{
					"internalType": "address",
					"name": "newOwner",
					"type": "address"
				}
			],
			"name": "transferOwnership",
			"outputs": [],
			"stateMutability": "nonpayable",
			"type": "function"
		},
		{
			"inputs": [],
			"name": "unpauseAdmin",
			"outputs": [],
			"stateMutability": "nonpayable",
			"type": "function"
		},
		{
			"inputs": [
				{
					"internalType": "address",
					"name": "newImplementation",
					"type": "address"
				}
			],
			"name": "upgradeTo",
			"outputs": [],
			"stateMutability": "nonpayable",
			"type": "function"
		},
		{
			"inputs": [
				{
					"internalType": "address",
					"name": "newImplementation",
					"type": "address"
				},
				{
					"internalType": "bytes",
					"name": "data",
					"type": "bytes"
				}
			],
			"name": "upgradeToAndCall",
			"outputs": [],
			"stateMutability": "payable",
			"type": "function"
		},
		{
			"inputs": [],
			"name": "withdrawAdmin",
			"outputs": [],
			"stateMutability": "nonpayable",
			"type": "function"
		},
		{
			"inputs": [],
			"name": "withdrawPendingReward",
			"outputs": [
				{
					"internalType": "bool",
					"name": "",
					"type": "bool"
				}
			],
			"stateMutability": "nonpayable",
			"type": "function"
		},
		{
			"inputs": [
				{
					"internalType": "address",
					"name": "_tokenAddress",
					"type": "address"
				},
				{
					"internalType": "uint256",
					"name": "_value",
					"type": "uint256"
				}
			],
			"name": "withdrawTokenAdmin",
			"outputs": [],
			"stateMutability": "nonpayable",
			"type": "function"
		},
		{
			"stateMutability": "payable",
			"type": "receive"
		}
	]
}