{
  "_format": "hh-sol-artifact-1",
  "contractName": "ReferralV1Upgradable",
  "sourceName": "contracts/ReferralV1Upgradable.sol",
  "abi": [
    {
      "anonymous": false,
      "inputs": [
        {
          "indexed": false,
          "internalType": "address",
          "name": "previousAdmin",
          "type": "address"
        },
        {
          "indexed": false,
          "internalType": "address",
          "name": "newAdmin",
          "type": "address"
        }
      ],
      "name": "AdminChanged",
      "type": "event"
    },
    {
      "anonymous": false,
      "inputs": [
        {
          "indexed": true,
          "internalType": "address",
          "name": "beacon",
          "type": "address"
        }
      ],
      "name": "BeaconUpgraded",
      "type": "event"
    },
    {
      "anonymous": false,
      "inputs": [
        {
          "indexed": false,
          "internalType": "uint8",
          "name": "version",
          "type": "uint8"
        }
      ],
      "name": "Initialized",
      "type": "event"
    },
    {
      "anonymous": false,
      "inputs": [
        {
          "indexed": true,
          "internalType": "address",
          "name": "previousOwner",
          "type": "address"
        },
        {
          "indexed": true,
          "internalType": "address",
          "name": "newOwner",
          "type": "address"
        }
      ],
      "name": "OwnershipTransferred",
      "type": "event"
    },
    {
      "anonymous": false,
      "inputs": [
        {
          "indexed": false,
          "internalType": "address",
          "name": "account",
          "type": "address"
        }
      ],
      "name": "Paused",
      "type": "event"
    },
    {
      "anonymous": false,
      "inputs": [
        {
          "indexed": true,
          "internalType": "address",
          "name": "referee",
          "type": "address"
        },
        {
          "indexed": true,
          "internalType": "address",
          "name": "referrer",
          "type": "address"
        },
        {
          "indexed": true,
          "internalType": "uint256",
          "name": "amount",
          "type": "uint256"
        },
        {
          "indexed": false,
          "internalType": "uint256",
          "name": "level",
          "type": "uint256"
        },
        {
          "indexed": false,
          "internalType": "string",
          "name": "currency",
          "type": "string"
        }
      ],
      "name": "ReferralRewardPaid",
      "type": "event"
    },
    {
      "anonymous": false,
      "inputs": [
        {
          "indexed": true,
          "internalType": "address",
          "name": "referee",
          "type": "address"
        },
        {
          "indexed": true,
          "internalType": "address",
          "name": "referrer",
          "type": "address"
        },
        {
          "indexed": true,
          "internalType": "string",
          "name": "reason",
          "type": "string"
        }
      ],
      "name": "RegisterRefererFailed",
      "type": "event"
    },
    {
      "anonymous": false,
      "inputs": [
        {
          "indexed": true,
          "internalType": "address",
          "name": "referrer",
          "type": "address"
        },
        {
          "indexed": true,
          "internalType": "address",
          "name": "referee",
          "type": "address"
        }
      ],
      "name": "RegisteredReferer",
      "type": "event"
    },
    {
      "anonymous": false,
      "inputs": [
        {
          "indexed": true,
          "internalType": "address",
          "name": "parent",
          "type": "address"
        },
        {
          "indexed": true,
          "internalType": "address",
          "name": "referrer",
          "type": "address"
        },
        {
          "indexed": true,
          "internalType": "address",
          "name": "referee",
          "type": "address"
        }
      ],
      "name": "RegisteredTeamAddress",
      "type": "event"
    },
    {
      "anonymous": false,
      "inputs": [
        {
          "indexed": true,
          "internalType": "address",
          "name": "to",
          "type": "address"
        },
        {
          "indexed": true,
          "internalType": "uint256",
          "name": "tokenValue",
          "type": "uint256"
        },
        {
          "indexed": true,
          "internalType": "address",
          "name": "rewardTokenContract",
          "type": "address"
        }
      ],
      "name": "RewardTokenDistributed",
      "type": "event"
    },
    {
      "anonymous": false,
      "inputs": [
        {
          "indexed": false,
          "internalType": "address",
          "name": "account",
          "type": "address"
        }
      ],
      "name": "Unpaused",
      "type": "event"
    },
    {
      "anonymous": false,
      "inputs": [
        {
          "indexed": true,
          "internalType": "address",
          "name": "implementation",
          "type": "address"
        }
      ],
      "name": "Upgraded",
      "type": "event"
    },
    {
      "inputs": [
        {
          "internalType": "address",
          "name": "_userAddress",
          "type": "address"
        },
        {
          "internalType": "address",
          "name": "_referrerAddress",
          "type": "address"
        }
      ],
      "name": "addReferrerAdmin",
      "outputs": [
        {
          "internalType": "bool",
          "name": "",
          "type": "bool"
        }
      ],
      "stateMutability": "nonpayable",
      "type": "function"
    },
    {
      "inputs": [],
      "name": "getCircularReferenceLevels",
      "outputs": [
        {
          "internalType": "uint256",
          "name": "",
          "type": "uint256"
        }
      ],
      "stateMutability": "view",
      "type": "function"
    },
    {
      "inputs": [],
      "name": "getDefaultReferrer",
      "outputs": [
        {
          "internalType": "address",
          "name": "",
          "type": "address"
        }
      ],
      "stateMutability": "view",
      "type": "function"
    },
    {
      "inputs": [],
      "name": "getLevelDecimals",
      "outputs": [
        {
          "internalType": "uint256",
          "name": "",
          "type": "uint256"
        }
      ],
      "stateMutability": "view",
      "type": "function"
    },
    {
      "inputs": [],
      "name": "getLevelRates",
      "outputs": [
        {
          "internalType": "uint256[]",
          "name": "presale",
          "type": "uint256[]"
        },
        {
          "internalType": "uint256",
          "name": "totalRatePresale",
          "type": "uint256"
        },
        {
          "internalType": "uint256[]",
          "name": "staking",
          "type": "uint256[]"
        },
        {
          "internalType": "uint256",
          "name": "totalRateStaking",
          "type": "uint256"
        }
      ],
      "stateMutability": "view",
      "type": "function"
    },
    {
      "inputs": [],
      "name": "getPresaleContract",
      "outputs": [
        {
          "internalType": "address",
          "name": "",
          "type": "address"
        }
      ],
      "stateMutability": "view",
      "type": "function"
    },
    {
      "inputs": [],
      "name": "getRewardTokenContract",
      "outputs": [
        {
          "internalType": "address",
          "name": "tokenAddress",
          "type": "address"
        },
        {
          "internalType": "string",
          "name": "tokenName",
          "type": "string"
        },
        {
          "internalType": "uint256",
          "name": "tokenDecimals",
          "type": "uint256"
        },
        {
          "internalType": "uint256",
          "name": "tokenSupply",
          "type": "uint256"
        }
      ],
      "stateMutability": "view",
      "type": "function"
    },
    {
      "inputs": [],
      "name": "getRewardTokenOwner",
      "outputs": [
        {
          "internalType": "address",
          "name": "",
          "type": "address"
        }
      ],
      "stateMutability": "view",
      "type": "function"
    },
    {
      "inputs": [],
      "name": "getStakingContract",
      "outputs": [
        {
          "internalType": "address",
          "name": "",
          "type": "address"
        }
      ],
      "stateMutability": "view",
      "type": "function"
    },
    {
      "inputs": [],
      "name": "getTokenContract",
      "outputs": [
        {
          "internalType": "address",
          "name": "tokenAddress",
          "type": "address"
        },
        {
          "internalType": "string",
          "name": "tokenName",
          "type": "string"
        },
        {
          "internalType": "uint256",
          "name": "tokenDecimals",
          "type": "uint256"
        },
        {
          "internalType": "uint256",
          "name": "tokenSupply",
          "type": "uint256"
        }
      ],
      "stateMutability": "view",
      "type": "function"
    },
    {
      "inputs": [],
      "name": "getTokenSeller",
      "outputs": [
        {
          "internalType": "address",
          "name": "",
          "type": "address"
        }
      ],
      "stateMutability": "view",
      "type": "function"
    },
    {
      "inputs": [],
      "name": "getUSDContract",
      "outputs": [
        {
          "internalType": "address",
          "name": "USDAddress",
          "type": "address"
        },
        {
          "internalType": "string",
          "name": "USDName",
          "type": "string"
        },
        {
          "internalType": "uint256",
          "name": "USDDecimals",
          "type": "uint256"
        },
        {
          "internalType": "uint256",
          "name": "USDSupply",
          "type": "uint256"
        }
      ],
      "stateMutability": "view",
      "type": "function"
    },
    {
      "inputs": [
        {
          "internalType": "address",
          "name": "_address",
          "type": "address"
        }
      ],
      "name": "getUserAccount",
      "outputs": [
        {
          "components": [
            {
              "internalType": "address",
              "name": "referrer",
              "type": "address"
            },
            {
              "internalType": "address[]",
              "name": "referredAddresses",
              "type": "address[]"
            },
            {
              "internalType": "address[]",
              "name": "teamAddress",
              "type": "address[]"
            },
            {
              "internalType": "uint256",
              "name": "totalBusinessETH",
              "type": "uint256"
            },
            {
              "internalType": "uint256",
              "name": "totalBusinessUSD",
              "type": "uint256"
            },
            {
              "internalType": "uint256[]",
              "name": "rewardPaidETH",
              "type": "uint256[]"
            },
            {
              "internalType": "uint256[]",
              "name": "rewardPaidUSD",
              "type": "uint256[]"
            },
            {
              "internalType": "uint256[]",
              "name": "rewardPaidStaking",
              "type": "uint256[]"
            },
            {
              "internalType": "uint256[]",
              "name": "rewardPaidTimeETH",
              "type": "uint256[]"
            },
            {
              "internalType": "uint256[]",
              "name": "rewardPaidTimeUSD",
              "type": "uint256[]"
            },
            {
              "internalType": "uint256[]",
              "name": "rewardPaidTimeStaking",
              "type": "uint256[]"
            }
          ],
          "internalType": "struct ReferralV1Upgradable.Account",
          "name": "userAccount",
          "type": "tuple"
        }
      ],
      "stateMutability": "view",
      "type": "function"
    },
    {
      "inputs": [
        {
          "internalType": "address",
          "name": "_address",
          "type": "address"
        }
      ],
      "name": "getUserReferee",
      "outputs": [
        {
          "internalType": "address[]",
          "name": "userRefereeAddress",
          "type": "address[]"
        },
        {
          "internalType": "uint256",
          "name": "userRefereeCount",
          "type": "uint256"
        }
      ],
      "stateMutability": "view",
      "type": "function"
    },
    {
      "inputs": [
        {
          "internalType": "address",
          "name": "_address",
          "type": "address"
        }
      ],
      "name": "getUserReferrerAddress",
      "outputs": [
        {
          "internalType": "address",
          "name": "referrer",
          "type": "address"
        }
      ],
      "stateMutability": "view",
      "type": "function"
    },
    {
      "inputs": [
        {
          "internalType": "address",
          "name": "_address",
          "type": "address"
        }
      ],
      "name": "getUserRewardPaid",
      "outputs": [
        {
          "internalType": "uint256[]",
          "name": "rewardPaidETH",
          "type": "uint256[]"
        },
        {
          "internalType": "uint256[]",
          "name": "rewardPaidUSD",
          "type": "uint256[]"
        },
        {
          "internalType": "uint256[]",
          "name": "rewardPaidStaking",
          "type": "uint256[]"
        }
      ],
      "stateMutability": "view",
      "type": "function"
    },
    {
      "inputs": [
        {
          "internalType": "address",
          "name": "_address",
          "type": "address"
        }
      ],
      "name": "getUserRewardPaidTimestamp",
      "outputs": [
        {
          "internalType": "uint256[]",
          "name": "rewardPaidTimeETH",
          "type": "uint256[]"
        },
        {
          "internalType": "uint256[]",
          "name": "rewardPaidTimeUSD",
          "type": "uint256[]"
        },
        {
          "internalType": "uint256[]",
          "name": "rewardPaidTimeStaking",
          "type": "uint256[]"
        }
      ],
      "stateMutability": "view",
      "type": "function"
    },
    {
      "inputs": [
        {
          "internalType": "address",
          "name": "_address",
          "type": "address"
        }
      ],
      "name": "getUserTeamReferee",
      "outputs": [
        {
          "internalType": "address[]",
          "name": "userTeamReferees",
          "type": "address[]"
        },
        {
          "internalType": "uint256",
          "name": "userTeamRefereeCount",
          "type": "uint256"
        }
      ],
      "stateMutability": "view",
      "type": "function"
    },
    {
      "inputs": [
        {
          "internalType": "address",
          "name": "_address",
          "type": "address"
        }
      ],
      "name": "getUserTotalBusiness",
      "outputs": [
        {
          "internalType": "uint256",
          "name": "businessETH",
          "type": "uint256"
        },
        {
          "internalType": "uint256",
          "name": "businessUSD",
          "type": "uint256"
        }
      ],
      "stateMutability": "view",
      "type": "function"
    },
    {
      "inputs": [
        {
          "internalType": "address",
          "name": "_address",
          "type": "address"
        }
      ],
      "name": "getUserTotalRewardPaid",
      "outputs": [
        {
          "internalType": "uint256",
          "name": "rewardPaidETH",
          "type": "uint256"
        },
        {
          "internalType": "uint256",
          "name": "rewardPaidUSD",
          "type": "uint256"
        },
        {
          "internalType": "uint256",
          "name": "rewardPaidStaking",
          "type": "uint256"
        }
      ],
      "stateMutability": "view",
      "type": "function"
    },
    {
      "inputs": [],
      "name": "initialize",
      "outputs": [],
      "stateMutability": "nonpayable",
      "type": "function"
    },
    {
      "inputs": [],
      "name": "owner",
      "outputs": [
        {
          "internalType": "address",
          "name": "",
          "type": "address"
        }
      ],
      "stateMutability": "view",
      "type": "function"
    },
    {
      "inputs": [],
      "name": "pause",
      "outputs": [],
      "stateMutability": "nonpayable",
      "type": "function"
    },
    {
      "inputs": [],
      "name": "paused",
      "outputs": [
        {
          "internalType": "bool",
          "name": "",
          "type": "bool"
        }
      ],
      "stateMutability": "view",
      "type": "function"
    },
    {
      "inputs": [
        {
          "internalType": "uint256",
          "name": "_value",
          "type": "uint256"
        },
        {
          "internalType": "address",
          "name": "_userAddress",
          "type": "address"
        },
        {
          "internalType": "address",
          "name": "_referrerAddress",
          "type": "address"
        }
      ],
      "name": "payReferralETHAdmin",
      "outputs": [
        {
          "internalType": "bool",
          "name": "",
          "type": "bool"
        }
      ],
      "stateMutability": "nonpayable",
      "type": "function"
    },
    {
      "inputs": [
        {
          "internalType": "uint256",
          "name": "_value",
          "type": "uint256"
        },
        {
          "internalType": "address",
          "name": "_userAddress",
          "type": "address"
        },
        {
          "internalType": "address",
          "name": "_referralAddress",
          "type": "address"
        }
      ],
      "name": "payReferralUSDAdmin",
      "outputs": [
        {
          "internalType": "bool",
          "name": "",
          "type": "bool"
        }
      ],
      "stateMutability": "nonpayable",
      "type": "function"
    },
    {
      "inputs": [
        {
          "internalType": "uint256",
          "name": "_value",
          "type": "uint256"
        },
        {
          "internalType": "address",
          "name": "_referee",
          "type": "address"
        }
      ],
      "name": "payStakingReferralAdmin",
      "outputs": [
        {
          "internalType": "bool",
          "name": "",
          "type": "bool"
        }
      ],
      "stateMutability": "nonpayable",
      "type": "function"
    },
    {
      "inputs": [],
      "name": "proxiableUUID",
      "outputs": [
        {
          "internalType": "bytes32",
          "name": "",
          "type": "bytes32"
        }
      ],
      "stateMutability": "view",
      "type": "function"
    },
    {
      "inputs": [],
      "name": "renounceOwnership",
      "outputs": [],
      "stateMutability": "nonpayable",
      "type": "function"
    },
    {
      "inputs": [
        {
          "internalType": "address",
          "name": "_address",
          "type": "address"
        },
        {
          "internalType": "uint256",
          "name": "_value",
          "type": "uint256"
        }
      ],
      "name": "sendNativeFundsAdmin",
      "outputs": [],
      "stateMutability": "nonpayable",
      "type": "function"
    },
    {
      "inputs": [
        {
          "internalType": "uint256",
          "name": "_value",
          "type": "uint256"
        }
      ],
      "name": "setCircularReferenceLevels",
      "outputs": [
        {
          "internalType": "uint256",
          "name": "",
          "type": "uint256"
        }
      ],
      "stateMutability": "nonpayable",
      "type": "function"
    },
    {
      "inputs": [
        {
          "internalType": "address payable",
          "name": "_address",
          "type": "address"
        }
      ],
      "name": "setDefaultReferrer",
      "outputs": [],
      "stateMutability": "nonpayable",
      "type": "function"
    },
    {
      "inputs": [
        {
          "internalType": "uint256",
          "name": "_value",
          "type": "uint256"
        }
      ],
      "name": "setLevelDecimals",
      "outputs": [
        {
          "internalType": "bool",
          "name": "",
          "type": "bool"
        }
      ],
      "stateMutability": "nonpayable",
      "type": "function"
    },
    {
      "inputs": [
        {
          "internalType": "uint256[]",
          "name": "_value",
          "type": "uint256[]"
        }
      ],
      "name": "setLevelRateReferral",
      "outputs": [
        {
          "internalType": "bool",
          "name": "",
          "type": "bool"
        }
      ],
      "stateMutability": "nonpayable",
      "type": "function"
    },
    {
      "inputs": [
        {
          "internalType": "uint256[]",
          "name": "_value",
          "type": "uint256[]"
        }
      ],
      "name": "setLevelRateStaking",
      "outputs": [
        {
          "internalType": "bool",
          "name": "",
          "type": "bool"
        }
      ],
      "stateMutability": "nonpayable",
      "type": "function"
    },
    {
      "inputs": [
        {
          "internalType": "address",
          "name": "_address",
          "type": "address"
        }
      ],
      "name": "setPresaleContract",
      "outputs": [
        {
          "internalType": "address",
          "name": "",
          "type": "address"
        }
      ],
      "stateMutability": "nonpayable",
      "type": "function"
    },
    {
      "inputs": [
        {
          "internalType": "address",
          "name": "_tokenContractAddress",
          "type": "address"
        }
      ],
      "name": "setRewardTokenContract",
      "outputs": [],
      "stateMutability": "nonpayable",
      "type": "function"
    },
    {
      "inputs": [
        {
          "internalType": "address",
          "name": "_address",
          "type": "address"
        }
      ],
      "name": "setRewardTokenOwner",
      "outputs": [],
      "stateMutability": "nonpayable",
      "type": "function"
    },
    {
      "inputs": [
        {
          "internalType": "address",
          "name": "_address",
          "type": "address"
        }
      ],
      "name": "setStakingContract",
      "outputs": [
        {
          "internalType": "address",
          "name": "",
          "type": "address"
        }
      ],
      "stateMutability": "nonpayable",
      "type": "function"
    },
    {
      "inputs": [
        {
          "internalType": "address",
          "name": "_address",
          "type": "address"
        }
      ],
      "name": "setTokenContractAdmin",
      "outputs": [
        {
          "internalType": "bool",
          "name": "",
          "type": "bool"
        }
      ],
      "stateMutability": "nonpayable",
      "type": "function"
    },
    {
      "inputs": [
        {
          "internalType": "address",
          "name": "_address",
          "type": "address"
        }
      ],
      "name": "setTokenSeller",
      "outputs": [],
      "stateMutability": "nonpayable",
      "type": "function"
    },
    {
      "inputs": [
        {
          "internalType": "address",
          "name": "_address",
          "type": "address"
        }
      ],
      "name": "setUSDContractAdmin",
      "outputs": [
        {
          "internalType": "bool",
          "name": "",
          "type": "bool"
        }
      ],
      "stateMutability": "nonpayable",
      "type": "function"
    },
    {
      "inputs": [
        {
          "internalType": "address",
          "name": "newOwner",
          "type": "address"
        }
      ],
      "name": "transferOwnership",
      "outputs": [],
      "stateMutability": "nonpayable",
      "type": "function"
    },
    {
      "inputs": [],
      "name": "unpause",
      "outputs": [],
      "stateMutability": "nonpayable",
      "type": "function"
    },
    {
      "inputs": [
        {
          "internalType": "address",
          "name": "newImplementation",
          "type": "address"
        }
      ],
      "name": "upgradeTo",
      "outputs": [],
      "stateMutability": "nonpayable",
      "type": "function"
    },
    {
      "inputs": [
        {
          "internalType": "address",
          "name": "newImplementation",
          "type": "address"
        },
        {
          "internalType": "bytes",
          "name": "data",
          "type": "bytes"
        }
      ],
      "name": "upgradeToAndCall",
      "outputs": [],
      "stateMutability": "payable",
      "type": "function"
    },
    {
      "inputs": [],
      "name": "withdrawAdmin",
      "outputs": [],
      "stateMutability": "nonpayable",
      "type": "function"
    },
    {
      "inputs": [
        {
          "internalType": "address",
          "name": "_tokenAddress",
          "type": "address"
        },
        {
          "internalType": "uint256",
          "name": "_value",
          "type": "uint256"
        }
      ],
      "name": "withdrawTokenAdmin",
      "outputs": [],
      "stateMutability": "nonpayable",
      "type": "function"
    },
    {
      "stateMutability": "payable",
      "type": "receive"
    }
  ],
  "bytecode": "0x60a06040523060805234801561001457600080fd5b50608051614b8c61004c60003960008181610cea01528181610d3301528181610e6301528181610ea30152610fab0152614b8c6000f3fe6080604052600436106102975760003560e01c8063715018a61161015a578063ac6f6a2d116100c1578063e7cca9c71161007a578063e7cca9c714610815578063ef519dc01461082b578063f1012b4514610866578063f2fde38b14610884578063f5b8a588146108a4578063fb47e016146108c457600080fd5b8063ac6f6a2d14610755578063b68e1e4614610775578063cfbdb85914610795578063d113efc4146107b5578063dcf6e819146107d5578063e758a9e0146107f557600080fd5b8063918a54db11610113578063918a54db146106a55780639ae1f46e146106ca5780639dd373b9146106e0578063a073975614610700578063a5bac94314610720578063a9bbd1141461073557600080fd5b8063715018a61461060a5780637a22393b1461061f5780638129fc1c1461063f5780638456cb59146106545780638da5cb5b146106695780638e68dce41461068757600080fd5b80633659cfe6116101fe57806352d1902d116101b757806352d1902d146105685780635c975abb1461057d5780635d1657901461059557806365eb204d146105b55780636db9fd31146105ca578063706aa31d146105ea57600080fd5b80633659cfe6146104985780633accb971146104b85780633f4ba83a146104e657806343b4ebf4146104fb5780634f1ef286146105355780635188f1e11461054857600080fd5b80632405091c116102505780632405091c1461037e57806324883508146103d557806328b7bede146103f45780632e6b04e014610419578063309662791461044857806334dcfa8c1461047857600080fd5b806304c76af0146102a357806308fcfbbe146102ba57806314d09b94146102da57806315ec7efa14610311578063161441b3146103305780631cecbe9a1461035e57600080fd5b3661029e57005b600080fd5b3480156102af57600080fd5b506102b86108f1565b005b3480156102c657600080fd5b506102b86102d5366004614300565b610928565b3480156102e657600080fd5b5060ff546001600160a01b03165b6040516001600160a01b0390911681526020015b60405180910390f35b34801561031d57600080fd5b5061010a546001600160a01b03166102f4565b34801561033c57600080fd5b5061035061034b36600461431d565b610953565b604051908152602001610308565b34801561036a57600080fd5b506102b8610379366004614336565b610967565b34801561038a57600080fd5b506103c0610399366004614300565b6001600160a01b031660009081526101086020526040902060038101546004909101549091565b60408051928352602083019190915201610308565b3480156103e157600080fd5b50610107546001600160a01b03166102f4565b34801561040057600080fd5b506104096109aa565b60405161030894939291906143b2565b34801561042557600080fd5b50610439610434366004614300565b610b1f565b60405161030893929190614424565b34801561045457600080fd5b50610468610463366004614467565b610c44565b6040519015158152602001610308565b34801561048457600080fd5b506102b8610493366004614336565b610c67565b3480156104a457600080fd5b506102b86104b3366004614300565b610ce0565b3480156104c457600080fd5b506104d86104d3366004614300565b610dc5565b6040516103089291906144dc565b3480156104f257600080fd5b506102b8610e47565b34801561050757600080fd5b506102f4610516366004614300565b6001600160a01b03908116600090815261010860205260409020541690565b6102b861054336600461459c565b610e59565b34801561055457600080fd5b5061046861056336600461462f565b610f29565b34801561057457600080fd5b50610350610f9e565b34801561058957600080fd5b5060335460ff16610468565b3480156105a157600080fd5b506104686105b0366004614671565b611051565b3480156105c157600080fd5b506104096110c2565b3480156105d657600080fd5b506102b86105e5366004614300565b61120e565b3480156105f657600080fd5b50610439610605366004614300565b611239565b34801561061657600080fd5b506102b861135c565b34801561062b57600080fd5b506102b861063a366004614300565b61136e565b34801561064b57600080fd5b506102b8611398565b34801561066057600080fd5b506102b86115ea565b34801561067557600080fd5b506065546001600160a01b03166102f4565b34801561069357600080fd5b5060fe546001600160a01b03166102f4565b3480156106b157600080fd5b506106ba6115fa565b60405161030894939291906146a1565b3480156106d657600080fd5b5061010354610350565b3480156106ec57600080fd5b506102f46106fb366004614300565b611750565b34801561070c57600080fd5b5061046861071b3660046146de565b611779565b34801561072c57600080fd5b506104096117f1565b34801561074157600080fd5b506102f4610750366004614300565b61193a565b34801561076157600080fd5b50610468610770366004614300565b611963565b34801561078157600080fd5b50610468610790366004614300565b611992565b3480156107a157600080fd5b506104686107b036600461431d565b6119c1565b3480156107c157600080fd5b506104d86107d0366004614300565b6119d5565b3480156107e157600080fd5b506102b86107f0366004614300565b611a55565b34801561080157600080fd5b50610468610810366004614467565b611a80565b34801561082157600080fd5b5061010254610350565b34801561083757600080fd5b5061084b610846366004614300565b611a97565b60408051938452602084019290925290820152606001610308565b34801561087257600080fd5b5060fd546001600160a01b03166102f4565b34801561089057600080fd5b506102b861089f366004614300565b611bb2565b3480156108b057600080fd5b506104686108bf36600461462f565b611c28565b3480156108d057600080fd5b506108e46108df366004614300565b611c90565b6040516103089190614745565b6108f9612011565b60405133904780156108fc02916000818181858888f19350505050158015610925573d6000803e3d6000fd5b50565b610930612011565b61010980546001600160a01b0319166001600160a01b0392909216919091179055565b600061095d612011565b5061010381905590565b61096f612011565b6040516001600160a01b0383169082156108fc029083906000818181858888f193505050501580156109a5573d6000803e3d6000fd5b505050565b60fb54604080516306fdde0360e01b815290516001600160a01b0390921691606091600091829185916306fdde039160048082019286929091908290030181865afa1580156109fd573d6000803e3d6000fd5b505050506040513d6000823e601f3d908101601f19168201604052610a259190810190614862565b925060fb60009054906101000a90046001600160a01b03166001600160a01b031663313ce5676040518163ffffffff1660e01b8152600401602060405180830381865afa158015610a7a573d6000803e3d6000fd5b505050506040513d601f19601f82011682018060405250810190610a9e91906148d0565b915060fb60009054906101000a90046001600160a01b03166001600160a01b03166318160ddd6040518163ffffffff1660e01b8152600401602060405180830381865afa158015610af3573d6000803e3d6000fd5b505050506040513d601f19601f82011682018060405250810190610b1791906148d0565b905090919293565b6001600160a01b038116600090815261010860209081526040918290206008810180548451818502810185019095528085526060948594859493919290830182828015610b8b57602002820191906000526020600020905b815481526020019060010190808311610b77575b5050505050935080600901805480602002602001604051908101604052809291908181526020018280548015610be057602002820191906000526020600020905b815481526020019060010190808311610bcc575b5050505050925080600a01805480602002602001604051908101604052809291908181526020018280548015610c3557602002820191906000526020600020905b815481526020019060010190808311610c21575b50505050509150509193909250565b6000610c4e612011565b610c5b610101848461424b565b50600190505b92915050565b610c6f612011565b60405163a9059cbb60e01b8152336004820152602481018290526001600160a01b0383169063a9059cbb906044016020604051808303816000875af1158015610cbc573d6000803e3d6000fd5b505050506040513d601f19601f820116820180604052508101906109a591906148e9565b6001600160a01b037f0000000000000000000000000000000000000000000000000000000000000000163003610d315760405162461bcd60e51b8152600401610d289061490b565b60405180910390fd5b7f00000000000000000000000000000000000000000000000000000000000000006001600160a01b0316610d7a600080516020614b10833981519152546001600160a01b031690565b6001600160a01b031614610da05760405162461bcd60e51b8152600401610d2890614957565b610da98161206b565b6040805160008082526020820190925261092591839190612073565b6001600160a01b03811660009081526101086020908152604080832060028101805483518186028101860190945280845260609594929392830182828015610e3657602002820191906000526020600020905b81546001600160a01b03168152600190910190602001808311610e18575b505050505092508251915050915091565b610e4f612011565b610e576121de565b565b6001600160a01b037f0000000000000000000000000000000000000000000000000000000000000000163003610ea15760405162461bcd60e51b8152600401610d289061490b565b7f00000000000000000000000000000000000000000000000000000000000000006001600160a01b0316610eea600080516020614b10833981519152546001600160a01b031690565b6001600160a01b031614610f105760405162461bcd60e51b8152600401610d2890614957565b610f198261206b565b610f2582826001612073565b5050565b600033610f3e6065546001600160a01b031690565b6001600160a01b0316816001600160a01b03161480610f6a575060fd546001600160a01b038281169116145b610f865760405162461bcd60e51b8152600401610d28906149a3565b610f91858585612230565b60019150505b9392505050565b6000306001600160a01b037f0000000000000000000000000000000000000000000000000000000000000000161461103e5760405162461bcd60e51b815260206004820152603860248201527f555550535570677261646561626c653a206d757374206e6f742062652063616c60448201527f6c6564207468726f7567682064656c656761746563616c6c00000000000000006064820152608401610d28565b50600080516020614b1083398151915290565b6000336110666065546001600160a01b031690565b6001600160a01b0316816001600160a01b03161480611092575060fe546001600160a01b038281169116145b6110ae5760405162461bcd60e51b8152600401610d28906149a3565b6110b88484612a9e565b5060019392505050565b61010954604080516306fdde0360e01b815290516001600160a01b0390921691606091600091829185916306fdde039160048082019286929091908290030181865afa158015611116573d6000803e3d6000fd5b505050506040513d6000823e601f3d908101601f1916820160405261113e9190810190614862565b925061010960009054906101000a90046001600160a01b03166001600160a01b031663313ce5676040518163ffffffff1660e01b8152600401602060405180830381865afa158015611194573d6000803e3d6000fd5b505050506040513d601f19601f820116820180604052508101906111b891906148d0565b915061010960009054906101000a90046001600160a01b03166001600160a01b03166318160ddd6040518163ffffffff1660e01b8152600401602060405180830381865afa158015610af3573d6000803e3d6000fd5b611216612011565b61010a80546001600160a01b0319166001600160a01b0392909216919091179055565b6001600160a01b0381166000908152610108602090815260409182902060058101805484518185028101850190955280855260609485948594939192908301828280156112a557602002820191906000526020600020905b815481526020019060010190808311611291575b50505050509350806006018054806020026020016040519081016040528092919081815260200182805480156112fa57602002820191906000526020600020905b8154815260200190600101908083116112e6575b5050505050925080600701805480602002602001604051908101604052809291908181526020018280548015610c355760200282019190600052602060002090815481526020019060010190808311610c215750505050509150509193909250565b611364612011565b610e576000613210565b611376612011565b60ff80546001600160a01b0319166001600160a01b0392909216919091179055565b600054610100900460ff16158080156113b85750600054600160ff909116105b806113d25750303b1580156113d2575060005460ff166001145b6114355760405162461bcd60e51b815260206004820152602e60248201527f496e697469616c697a61626c653a20636f6e747261637420697320616c72656160448201526d191e481a5b9a5d1a585b1a5e995960921b6064820152608401610d28565b6000805460ff191660011790558015611458576000805461ff0019166101001790555b60ff8054734345492b7bf4967e8ff7b3d0858945560391eab16001600160a01b0319918216811790925560fb805473ada2dec22f0796f9b4a538f51b6ac868d449c143908316811790915561010980548316909117905560fc805473bfa0e2f4b2676c62885b1033670c71cdefd975fb90831617905560fd80547390de6255f7d4e0b23b19eca6a2ca93a81328c91690831617905561010a80546001600160a81b03191674014345492b7bf4967e8ff7b3d0858945560391eab1179055610107805490911690911790556064610102556040805160208101909152600a815261154690610100906001614296565b506040805160a081018252600a81526005602082018190526003928201929092526002606082015260016080820152611583916101019190614296565b50600561010355611592613262565b61159a613291565b6115a26132c0565b8015610925576000805461ff0019169055604051600181527f7f26b83ff96e1f2b6a682f133852f6798a09c465da95921460cefb38474024989060200160405180910390a150565b6115f2612011565b610e576132e7565b606060006060600061010080548060200260200160405190810160405280929190818152602001828054801561164f57602002820191906000526020600020905b81548152602001906001019080831161163b575b505083519397506000925050505b818160ff1610156116a457858160ff168151811061167d5761167d6149e5565b6020026020010151856116909190614a11565b94508061169c81614a24565b91505061165d565b506101018054806020026020016040519081016040528092919081815260200182805480156116f257602002820191906000526020600020905b8154815260200190600101908083116116de575b505083519396506000925050505b818160ff16101561174757848160ff1681518110611720576117206149e5565b6020026020010151846117339190614a11565b93508061173f81614a24565b915050611700565b50505090919293565b600061175a612011565b5060fe80546001600160a01b0319166001600160a01b03831617905590565b600061178d6065546001600160a01b031690565b6001600160a01b0316336001600160a01b031614806117b6575060fd546001600160a01b031633145b806117cb575060fe546001600160a01b031633145b6117e75760405162461bcd60e51b8152600401610d28906149a3565b610f978383613324565b60fc54604080516306fdde0360e01b815290516001600160a01b0390921691606091600091829185916306fdde039160048082019286929091908290030181865afa158015611844573d6000803e3d6000fd5b505050506040513d6000823e601f3d908101601f1916820160405261186c9190810190614862565b925060fc60009054906101000a90046001600160a01b03166001600160a01b031663313ce5676040518163ffffffff1660e01b8152600401602060405180830381865afa1580156118c1573d6000803e3d6000fd5b505050506040513d601f19601f820116820180604052508101906118e591906148d0565b915060fc60009054906101000a90046001600160a01b03166001600160a01b03166318160ddd6040518163ffffffff1660e01b8152600401602060405180830381865afa158015610af3573d6000803e3d6000fd5b6000611944612011565b5060fd80546001600160a01b0319166001600160a01b03831617905590565b600061196d612011565b5060fc80546001600160a01b0383166001600160a01b03199091161790556001919050565b600061199c612011565b5060fb80546001600160a01b0383166001600160a01b03199091161790556001919050565b60006119cb612011565b5061010255600190565b6001600160a01b03811660009081526101086020908152604080832060018101805483518186028101860190945280845260609594929392830182828015610e36576020028201919060005260206000209081546001600160a01b03168152600190910190602001808311610e1857505050505092508251915050915091565b611a5d612011565b61010780546001600160a01b0319166001600160a01b0392909216919091179055565b6000611a8a612011565b610c5b610100848461424b565b6001600160a01b0381166000908152610108602052604081206005810154600682015460078301548493849390929091845b83811015611b1057846005018181548110611ae657611ae66149e5565b906000526020600020015488611afc9190614a11565b975080611b0881614a43565b915050611ac9565b5060005b82811015611b5b57846006018181548110611b3157611b316149e5565b906000526020600020015487611b479190614a11565b965080611b5381614a43565b915050611b14565b5060005b81811015611ba657846007018181548110611b7c57611b7c6149e5565b906000526020600020015486611b929190614a11565b955080611b9e81614a43565b915050611b5f565b50505050509193909250565b611bba612011565b6001600160a01b038116611c1f5760405162461bcd60e51b815260206004820152602660248201527f4f776e61626c653a206e6577206f776e657220697320746865207a65726f206160448201526564647265737360d01b6064820152608401610d28565b61092581613210565b600033611c3d6065546001600160a01b031690565b6001600160a01b0316816001600160a01b03161480611c69575060fd546001600160a01b038281169116145b611c855760405162461bcd60e51b8152600401610d28906149a3565b610f91858585613550565b611cf660405180610160016040528060006001600160a01b03168152602001606081526020016060815260200160008152602001600081526020016060815260200160608152602001606081526020016060815260200160608152602001606081525090565b6001600160a01b038083166000908152610108602090815260409182902082516101608101845281549094168452600181018054845181850281018501909552808552919385840193909290830182828015611d7b57602002820191906000526020600020905b81546001600160a01b03168152600190910190602001808311611d5d575b5050505050815260200160028201805480602002602001604051908101604052809291908181526020018280548015611ddd57602002820191906000526020600020905b81546001600160a01b03168152600190910190602001808311611dbf575b50505050508152602001600382015481526020016004820154815260200160058201805480602002602001604051908101604052809291908181526020018280548015611e4957602002820191906000526020600020905b815481526020019060010190808311611e35575b5050505050815260200160068201805480602002602001604051908101604052809291908181526020018280548015611ea157602002820191906000526020600020905b815481526020019060010190808311611e8d575b5050505050815260200160078201805480602002602001604051908101604052809291908181526020018280548015611ef957602002820191906000526020600020905b815481526020019060010190808311611ee5575b5050505050815260200160088201805480602002602001604051908101604052809291908181526020018280548015611f5157602002820191906000526020600020905b815481526020019060010190808311611f3d575b5050505050815260200160098201805480602002602001604051908101604052809291908181526020018280548015611fa957602002820191906000526020600020905b815481526020019060010190808311611f95575b50505050508152602001600a820180548060200260200160405190810160405280929190818152602001828054801561200157602002820191906000526020600020905b815481526020019060010190808311611fed575b5050505050815250509050919050565b6065546001600160a01b03163314610e575760405162461bcd60e51b815260206004820181905260248201527f4f776e61626c653a2063616c6c6572206973206e6f7420746865206f776e65726044820152606401610d28565b610925612011565b7f4910fdfa16fed3260ed0e7147f7cc6da11a60208b5b9406d12a635614ffd91435460ff16156120a6576109a583613daa565b826001600160a01b03166352d1902d6040518163ffffffff1660e01b8152600401602060405180830381865afa925050508015612100575060408051601f3d908101601f191682019092526120fd918101906148d0565b60015b6121635760405162461bcd60e51b815260206004820152602e60248201527f45524331393637557067726164653a206e657720696d706c656d656e7461746960448201526d6f6e206973206e6f74205555505360901b6064820152608401610d28565b600080516020614b1083398151915281146121d25760405162461bcd60e51b815260206004820152602960248201527f45524331393637557067726164653a20756e737570706f727465642070726f786044820152681a58589b195555525160ba1b6064820152608401610d28565b506109a5838383613e46565b6121e6613e71565b6033805460ff191690557f5db9ee0a495bf2e6ff9c91a7834c1ba4fdd244a5e8aa4e537bd38aeae4b073aa335b6040516001600160a01b03909116815260200160405180910390a1565b61223982613eba565b15801561224e57506001600160a01b03811615155b1561225f5761225d8282613324565b505b61226881613eba565b15801561227d57506001600160a01b03811615155b1561229c576101075461229a9082906001600160a01b0316613324565b505b6001600160a01b0380831660009081526101086020908152604080832081516101608101835281549095168552600181018054835181860281018601909452808452949594919385810193929083018282801561232257602002820191906000526020600020905b81546001600160a01b03168152600190910190602001808311612304575b505050505081526020016002820180548060200260200160405190810160405280929190818152602001828054801561238457602002820191906000526020600020905b81546001600160a01b03168152600190910190602001808311612366575b505050505081526020016003820154815260200160048201548152602001600582018054806020026020016040519081016040528092919081815260200182805480156123f057602002820191906000526020600020905b8154815260200190600101908083116123dc575b505050505081526020016006820180548060200260200160405190810160405280929190818152602001828054801561244857602002820191906000526020600020905b815481526020019060010190808311612434575b50505050508152602001600782018054806020026020016040519081016040528092919081815260200182805480156124a057602002820191906000526020600020905b81548152602001906001019080831161248c575b50505050508152602001600882018054806020026020016040519081016040528092919081815260200182805480156124f857602002820191906000526020600020905b8154815260200190600101908083116124e4575b505050505081526020016009820180548060200260200160405190810160405280929190818152602001828054801561255057602002820191906000526020600020905b81548152602001906001019080831161253c575b50505050508152602001600a82018054806020026020016040519081016040528092919081815260200182805480156125a857602002820191906000526020600020905b815481526020019060010190808311612594575b50505050508152505090506000805b61010054811015612a7e5782516001600160a01b038116600081815261010860205260409020906125e9575050612a7e565b6000612629610102546126236101008781548110612609576126096149e5565b90600052602060002001548c613edb90919063ffffffff16565b90613ee7565b90508882600401600082825461263f9190614a11565b909155505060068201805460018101825560009182526020909120018190556126688186614a11565b60fc5460ff54919650612689916001600160a01b0391821691168584613ef3565b61010a54600160a01b900460ff16156126fc576101095461010a546126bc916001600160a01b0390811691168584613ef3565b610109546040516001600160a01b03918216918391908616907fdec9451ea7f92de23239ac3b71d0a2c5d5bae68af900a8b74100c866d159f41990600090a45b806001600160a01b03808516908a167f197a0a2b0fbff3fc4f7f4d32597585aa8415fcc4c5dd6634336ec65904529c83612737886001614a11565b6040805191825260208201819052600490820152631554d11560e21b606082015260800160405180910390a4604080516101608101825283546001600160a01b0316815260018401805483516020828102820181019095528181529293869381860193909290918301828280156127d757602002820191906000526020600020905b81546001600160a01b031681526001909101906020018083116127b9575b505050505081526020016002820180548060200260200160405190810160405280929190818152602001828054801561283957602002820191906000526020600020905b81546001600160a01b0316815260019091019060200180831161281b575b505050505081526020016003820154815260200160048201548152602001600582018054806020026020016040519081016040528092919081815260200182805480156128a557602002820191906000526020600020905b815481526020019060010190808311612891575b50505050508152602001600682018054806020026020016040519081016040528092919081815260200182805480156128fd57602002820191906000526020600020905b8154815260200190600101908083116128e9575b505050505081526020016007820180548060200260200160405190810160405280929190818152602001828054801561295557602002820191906000526020600020905b815481526020019060010190808311612941575b50505050508152602001600882018054806020026020016040519081016040528092919081815260200182805480156129ad57602002820191906000526020600020905b815481526020019060010190808311612999575b5050505050815260200160098201805480602002602001604051908101604052809291908181526020018280548015612a0557602002820191906000526020600020905b8154815260200190600101908083116129f1575b50505050508152602001600a8201805480602002602001604051908101604052809291908181526020018280548015612a5d57602002820191906000526020600020905b815481526020019060010190808311612a49575b50505050508152505095505050508080612a7690614a43565b9150506125b7565b50806101056000828254612a929190614a11565b90915550505050505050565b6001600160a01b03808216600090815261010860209081526040808320815161016081018352815490951685526001810180548351818602810186019094528084529495949193858101939290830182828015612b2457602002820191906000526020600020905b81546001600160a01b03168152600190910190602001808311612b06575b5050505050815260200160028201805480602002602001604051908101604052809291908181526020018280548015612b8657602002820191906000526020600020905b81546001600160a01b03168152600190910190602001808311612b68575b50505050508152602001600382015481526020016004820154815260200160058201805480602002602001604051908101604052809291908181526020018280548015612bf257602002820191906000526020600020905b815481526020019060010190808311612bde575b5050505050815260200160068201805480602002602001604051908101604052809291908181526020018280548015612c4a57602002820191906000526020600020905b815481526020019060010190808311612c36575b5050505050815260200160078201805480602002602001604051908101604052809291908181526020018280548015612ca257602002820191906000526020600020905b815481526020019060010190808311612c8e575b5050505050815260200160088201805480602002602001604051908101604052809291908181526020018280548015612cfa57602002820191906000526020600020905b815481526020019060010190808311612ce6575b5050505050815260200160098201805480602002602001604051908101604052809291908181526020018280548015612d5257602002820191906000526020600020905b815481526020019060010190808311612d3e575b50505050508152602001600a8201805480602002602001604051908101604052809291908181526020018280548015612daa57602002820191906000526020600020905b815481526020019060010190808311612d96575b50505050508152505090506000805b610101548110156131f15782516001600160a01b03811660008181526101086020526040902090612deb5750506131f1565b6000612e25610102546126236101018781548110612e0b57612e0b6149e5565b90600052602060002001548b613edb90919063ffffffff16565b60078301805460018101825560009182526020909120018190559050612e4b8186614a11565b60fb5460ff54919650612e6c916001600160a01b0391821691168584613ef3565b806001600160a01b038085169089167f197a0a2b0fbff3fc4f7f4d32597585aa8415fcc4c5dd6634336ec65904529c83612ea7886001614a11565b6040805191825260208201819052600790820152665374616b696e6760c81b606082015260800160405180910390a4604080516101608101825283546001600160a01b031681526001840180548351602082810282018101909552818152929386938186019390929091830182828015612f4a57602002820191906000526020600020905b81546001600160a01b03168152600190910190602001808311612f2c575b5050505050815260200160028201805480602002602001604051908101604052809291908181526020018280548015612fac57602002820191906000526020600020905b81546001600160a01b03168152600190910190602001808311612f8e575b5050505050815260200160038201548152602001600482015481526020016005820180548060200260200160405190810160405280929190818152602001828054801561301857602002820191906000526020600020905b815481526020019060010190808311613004575b505050505081526020016006820180548060200260200160405190810160405280929190818152602001828054801561307057602002820191906000526020600020905b81548152602001906001019080831161305c575b50505050508152602001600782018054806020026020016040519081016040528092919081815260200182805480156130c857602002820191906000526020600020905b8154815260200190600101908083116130b4575b505050505081526020016008820180548060200260200160405190810160405280929190818152602001828054801561312057602002820191906000526020600020905b81548152602001906001019080831161310c575b505050505081526020016009820180548060200260200160405190810160405280929190818152602001828054801561317857602002820191906000526020600020905b815481526020019060010190808311613164575b50505050508152602001600a82018054806020026020016040519081016040528092919081815260200182805480156131d057602002820191906000526020600020905b8154815260200190600101908083116131bc575b505050505081525050955050505080806131e990614a43565b915050612db9565b508061010660008282546132059190614a11565b909155505050505050565b606580546001600160a01b038381166001600160a01b0319831681179093556040519116919082907f8be0079c531659141344cd1fd0a4f28419497f9722a3daafe3b4186f6b6457e090600090a35050565b600054610100900460ff166132895760405162461bcd60e51b8152600401610d2890614a5c565b610e57613f75565b600054610100900460ff166132b85760405162461bcd60e51b8152600401610d2890614a5c565b610e57613fa8565b600054610100900460ff16610e575760405162461bcd60e51b8152600401610d2890614a5c565b6132ef613fd8565b6033805460ff191660011790557f62e78cea01bee320cd4e420270b5ea74000d11b0c9f74754ebdbfc544b05a2586122133390565b6000613330828461401e565b156133c2576040517f526566657265652063616e6e6f74206265206f6e65206f66207265666572726581526939103ab83634b732b99760b11b6020820152602a015b6040518091039020826001600160a01b0316846001600160a01b03167f3a1a86984713a4f9021513989fe0334430012901d62639108f2a816c111a732f60405160405180910390a4506000610c61565b6001600160a01b03838116600090815261010860205260409020541615613411576040517f4164647265737320616c726561647920686176652072656665727265722e00008152601e01613372565b6001600160a01b0380841660008181526101086020908152604080832094871680845281842086546001600160a01b031990811683178855600180830180549182018155875294862090940180549094168617909355905191939290917ffaf63637882ff2d63ca76881cf92fb857130e36f350c926f9cc884b499b42b779190a360005b610101548110156135445781546001600160a01b0316600081815261010860205260409020906134c55750613544565b6002810180546001810182556000918252602082200180546001600160a01b0319166001600160a01b038a81169182179092558354604051949650869491938a84169391909116917fb766b19465b3277b0b275adf79d715cac93166bf6e6a39f26e4ccfdec76ad47e9190a4508061353c81614a43565b915050613495565b50600195945050505050565b61355982613eba565b15801561356e57506001600160a01b03811615155b1561357f5761357d8282613324565b505b61358881613eba565b15801561359d57506001600160a01b03811615155b156135bc57610107546135ba9082906001600160a01b0316613324565b505b6001600160a01b0380831660009081526101086020908152604080832081516101608101835281549095168552600181018054835181860281018601909452808452949594919385810193929083018282801561364257602002820191906000526020600020905b81546001600160a01b03168152600190910190602001808311613624575b50505050508152602001600282018054806020026020016040519081016040528092919081815260200182805480156136a457602002820191906000526020600020905b81546001600160a01b03168152600190910190602001808311613686575b5050505050815260200160038201548152602001600482015481526020016005820180548060200260200160405190810160405280929190818152602001828054801561371057602002820191906000526020600020905b8154815260200190600101908083116136fc575b505050505081526020016006820180548060200260200160405190810160405280929190818152602001828054801561376857602002820191906000526020600020905b815481526020019060010190808311613754575b50505050508152602001600782018054806020026020016040519081016040528092919081815260200182805480156137c057602002820191906000526020600020905b8154815260200190600101908083116137ac575b505050505081526020016008820180548060200260200160405190810160405280929190818152602001828054801561381857602002820191906000526020600020905b815481526020019060010190808311613804575b505050505081526020016009820180548060200260200160405190810160405280929190818152602001828054801561387057602002820191906000526020600020905b81548152602001906001019080831161385c575b50505050508152602001600a82018054806020026020016040519081016040528092919081815260200182805480156138c857602002820191906000526020600020905b8154815260200190600101908083116138b4575b50505050508152505090506000805b61010054811015613d965782516001600160a01b03811660008181526101086020526040902090613909575050613d96565b6000613929610102546126236101008781548110612609576126096149e5565b90508882600301600082825461393f9190614a11565b909155505060058201805460018101825560009182526020909120018190556139688186614a11565b6040519095506001600160a01b0384169082156108fc029083906000818181858888f193505050501580156139a1573d6000803e3d6000fd5b5061010a54600160a01b900460ff1615613a15576101095461010a546139d5916001600160a01b0390811691168584613ef3565b610109546040516001600160a01b03918216918391908616907fdec9451ea7f92de23239ac3b71d0a2c5d5bae68af900a8b74100c866d159f41990600090a45b806001600160a01b03808516908a167f197a0a2b0fbff3fc4f7f4d32597585aa8415fcc4c5dd6634336ec65904529c83613a50886001614a11565b60408051918252602082018190526003908201526208aa8960eb1b606082015260800160405180910390a4604080516101608101825283546001600160a01b031681526001840180548351602082810282018101909552818152929386938186019390929091830182828015613aef57602002820191906000526020600020905b81546001600160a01b03168152600190910190602001808311613ad1575b5050505050815260200160028201805480602002602001604051908101604052809291908181526020018280548015613b5157602002820191906000526020600020905b81546001600160a01b03168152600190910190602001808311613b33575b50505050508152602001600382015481526020016004820154815260200160058201805480602002602001604051908101604052809291908181526020018280548015613bbd57602002820191906000526020600020905b815481526020019060010190808311613ba9575b5050505050815260200160068201805480602002602001604051908101604052809291908181526020018280548015613c1557602002820191906000526020600020905b815481526020019060010190808311613c01575b5050505050815260200160078201805480602002602001604051908101604052809291908181526020018280548015613c6d57602002820191906000526020600020905b815481526020019060010190808311613c59575b5050505050815260200160088201805480602002602001604051908101604052809291908181526020018280548015613cc557602002820191906000526020600020905b815481526020019060010190808311613cb1575b5050505050815260200160098201805480602002602001604051908101604052809291908181526020018280548015613d1d57602002820191906000526020600020905b815481526020019060010190808311613d09575b50505050508152602001600a8201805480602002602001604051908101604052809291908181526020018280548015613d7557602002820191906000526020600020905b815481526020019060010190808311613d61575b50505050508152505095505050508080613d8e90614a43565b9150506138d7565b50806101046000828254612a929190614a11565b6001600160a01b0381163b613e175760405162461bcd60e51b815260206004820152602d60248201527f455243313936373a206e657720696d706c656d656e746174696f6e206973206e60448201526c1bdd08184818dbdb9d1c9858dd609a1b6064820152608401610d28565b600080516020614b1083398151915280546001600160a01b0319166001600160a01b0392909216919091179055565b613e4f836140de565b600082511180613e5c5750805b156109a557613e6b838361411e565b50505050565b60335460ff16610e575760405162461bcd60e51b815260206004820152601460248201527314185d5cd8589b194e881b9bdd081c185d5cd95960621b6044820152606401610d28565b6001600160a01b039081166000908152610108602052604090205416151590565b6000610f978284614aa7565b6000610f978284614abe565b6040516323b872dd60e01b81526001600160a01b0384811660048301528381166024830152604482018390528516906323b872dd906064016020604051808303816000875af1158015613f4a573d6000803e3d6000fd5b505050506040513d601f19601f82011682018060405250810190613f6e91906148e9565b5050505050565b600054610100900460ff16613f9c5760405162461bcd60e51b8152600401610d2890614a5c565b6033805460ff19169055565b600054610100900460ff16613fcf5760405162461bcd60e51b8152600401610d2890614a5c565b610e5733613210565b60335460ff1615610e575760405162461bcd60e51b815260206004820152601060248201526f14185d5cd8589b194e881c185d5cd95960821b6044820152606401610d28565b60006001600160a01b03831661406f5760405162461bcd60e51b815260206004820152601660248201527520b2323932b9b99031b0b73737ba10313290183c181760511b6044820152606401610d28565b8260005b610103548110156140d357836001600160a01b0316826001600160a01b0316036140a257600192505050610c61565b6001600160a01b039182166000908152610108602052604090205490911690806140cb81614a43565b915050614073565b506000949350505050565b6140e781613daa565b6040516001600160a01b038216907fbc7cd75a20ee27fd9adebab32041f755214dbc6bffa90cc0225b39da2e5c2d3b90600090a250565b60606001600160a01b0383163b6141865760405162461bcd60e51b815260206004820152602660248201527f416464726573733a2064656c65676174652063616c6c20746f206e6f6e2d636f6044820152651b9d1c9858dd60d21b6064820152608401610d28565b600080846001600160a01b0316846040516141a19190614ae0565b600060405180830381855af49150503d80600081146141dc576040519150601f19603f3d011682016040523d82523d6000602084013e6141e1565b606091505b50915091506142098282604051806060016040528060278152602001614b3060279139614212565b95945050505050565b60608315614221575081610f97565b8251156142315782518084602001fd5b8160405162461bcd60e51b8152600401610d289190614afc565b828054828255906000526020600020908101928215614286579160200282015b8281111561428657823582559160200191906001019061426b565b506142929291506142d6565b5090565b828054828255906000526020600020908101928215614286579160200282015b82811115614286578251829060ff169055916020019190600101906142b6565b5b8082111561429257600081556001016142d7565b6001600160a01b038116811461092557600080fd5b60006020828403121561431257600080fd5b8135610f97816142eb565b60006020828403121561432f57600080fd5b5035919050565b6000806040838503121561434957600080fd5b8235614354816142eb565b946020939093013593505050565b60005b8381101561437d578181015183820152602001614365565b50506000910152565b6000815180845261439e816020860160208601614362565b601f01601f19169290920160200192915050565b6001600160a01b03851681526080602082018190526000906143d690830186614386565b6040830194909452506060015292915050565b600081518084526020808501945080840160005b83811015614419578151875295820195908201906001016143fd565b509495945050505050565b60608152600061443760608301866143e9565b828103602084015261444981866143e9565b9050828103604084015261445d81856143e9565b9695505050505050565b6000806020838503121561447a57600080fd5b823567ffffffffffffffff8082111561449257600080fd5b818501915085601f8301126144a657600080fd5b8135818111156144b557600080fd5b8660208260051b85010111156144ca57600080fd5b60209290920196919550909350505050565b604080825283519082018190526000906020906060840190828701845b8281101561451e5781516001600160a01b0316845292840192908401906001016144f9565b50505092019290925292915050565b634e487b7160e01b600052604160045260246000fd5b604051601f8201601f1916810167ffffffffffffffff8111828210171561456c5761456c61452d565b604052919050565b600067ffffffffffffffff82111561458e5761458e61452d565b50601f01601f191660200190565b600080604083850312156145af57600080fd5b82356145ba816142eb565b9150602083013567ffffffffffffffff8111156145d657600080fd5b8301601f810185136145e757600080fd5b80356145fa6145f582614574565b614543565b81815286602083850101111561460f57600080fd5b816020840160208301376000602083830101528093505050509250929050565b60008060006060848603121561464457600080fd5b833592506020840135614656816142eb565b91506040840135614666816142eb565b809150509250925092565b6000806040838503121561468457600080fd5b823591506020830135614696816142eb565b809150509250929050565b6080815260006146b460808301876143e9565b85602084015282810360408401526146cc81866143e9565b91505082606083015295945050505050565b600080604083850312156146f157600080fd5b82356146fc816142eb565b91506020830135614696816142eb565b600081518084526020808501945080840160005b838110156144195781516001600160a01b031687529582019590820190600101614720565b6020815261475f6020820183516001600160a01b03169052565b6000602083015161016080604085015261477d61018085018361470c565b91506040850151601f198086850301606087015261479b848361470c565b935060608701516080870152608087015160a087015260a08701519150808685030160c08701526147cc84836143e9565b935060c08701519150808685030160e08701526147e984836143e9565b935060e0870151915061010081878603018188015261480885846143e9565b94508088015192505061012081878603018188015261482785846143e9565b94508088015192505061014081878603018188015261484685846143e9565b90880151878203909201848801529350905061445d83826143e9565b60006020828403121561487457600080fd5b815167ffffffffffffffff81111561488b57600080fd5b8201601f8101841361489c57600080fd5b80516148aa6145f582614574565b8181528560208385010111156148bf57600080fd5b614209826020830160208601614362565b6000602082840312156148e257600080fd5b5051919050565b6000602082840312156148fb57600080fd5b81518015158114610f9757600080fd5b6020808252602c908201527f46756e6374696f6e206d7573742062652063616c6c6564207468726f7567682060408201526b19195b1959d85d1958d85b1b60a21b606082015260800190565b6020808252602c908201527f46756e6374696f6e206d7573742062652063616c6c6564207468726f7567682060408201526b6163746976652070726f787960a01b606082015260800190565b60208082526022908201527f4f6e6c79206f776e65722063616e2063616c6c20746869732066756e6374696f604082015261371760f11b606082015260800190565b634e487b7160e01b600052603260045260246000fd5b634e487b7160e01b600052601160045260246000fd5b80820180821115610c6157610c616149fb565b600060ff821660ff8103614a3a57614a3a6149fb565b60010192915050565b600060018201614a5557614a556149fb565b5060010190565b6020808252602b908201527f496e697469616c697a61626c653a20636f6e7472616374206973206e6f74206960408201526a6e697469616c697a696e6760a81b606082015260800190565b8082028115828204841417610c6157610c616149fb565b600082614adb57634e487b7160e01b600052601260045260246000fd5b500490565b60008251614af2818460208701614362565b9190910192915050565b602081526000610f97602083018461438656fe360894a13ba1a3210667c828492db98dca3e2076cc3735a920a3ca505d382bbc416464726573733a206c6f772d6c6576656c2064656c65676174652063616c6c206661696c6564a26469706673582212204b228e25e8b853f6b32d537624f9678f75db90feef281c9450b0446ec207260a64736f6c63430008110033",
  "linkReferences": {},
  "deployedLinkReferences": {}
}