{
  "_format": "hh-sol-artifact-1",
  "contractName": "ReferralV1Upgradable",
  "sourceName": "contracts/ReferralV1Upgradable.sol",
  "abi": [
    {
      "anonymous": false,
      "inputs": [
        {
          "indexed": false,
          "internalType": "address",
          "name": "previousAdmin",
          "type": "address"
        },
        {
          "indexed": false,
          "internalType": "address",
          "name": "newAdmin",
          "type": "address"
        }
      ],
      "name": "AdminChanged",
      "type": "event"
    },
    {
      "anonymous": false,
      "inputs": [
        {
          "indexed": true,
          "internalType": "address",
          "name": "beacon",
          "type": "address"
        }
      ],
      "name": "BeaconUpgraded",
      "type": "event"
    },
    {
      "anonymous": false,
      "inputs": [
        {
          "indexed": false,
          "internalType": "uint8",
          "name": "version",
          "type": "uint8"
        }
      ],
      "name": "Initialized",
      "type": "event"
    },
    {
      "anonymous": false,
      "inputs": [
        {
          "indexed": true,
          "internalType": "address",
          "name": "previousOwner",
          "type": "address"
        },
        {
          "indexed": true,
          "internalType": "address",
          "name": "newOwner",
          "type": "address"
        }
      ],
      "name": "OwnershipTransferred",
      "type": "event"
    },
    {
      "anonymous": false,
      "inputs": [
        {
          "indexed": false,
          "internalType": "address",
          "name": "account",
          "type": "address"
        }
      ],
      "name": "Paused",
      "type": "event"
    },
    {
      "anonymous": false,
      "inputs": [
        {
          "indexed": true,
          "internalType": "address",
          "name": "referee",
          "type": "address"
        },
        {
          "indexed": true,
          "internalType": "address",
          "name": "referrer",
          "type": "address"
        },
        {
          "indexed": true,
          "internalType": "uint256",
          "name": "amount",
          "type": "uint256"
        },
        {
          "indexed": false,
          "internalType": "uint256",
          "name": "level",
          "type": "uint256"
        },
        {
          "indexed": false,
          "internalType": "string",
          "name": "currency",
          "type": "string"
        }
      ],
      "name": "ReferralRewardPaid",
      "type": "event"
    },
    {
      "anonymous": false,
      "inputs": [
        {
          "indexed": true,
          "internalType": "address",
          "name": "referee",
          "type": "address"
        },
        {
          "indexed": true,
          "internalType": "address",
          "name": "referrer",
          "type": "address"
        },
        {
          "indexed": true,
          "internalType": "string",
          "name": "reason",
          "type": "string"
        }
      ],
      "name": "RegisterRefererFailed",
      "type": "event"
    },
    {
      "anonymous": false,
      "inputs": [
        {
          "indexed": true,
          "internalType": "address",
          "name": "referrer",
          "type": "address"
        },
        {
          "indexed": true,
          "internalType": "address",
          "name": "referee",
          "type": "address"
        }
      ],
      "name": "RegisteredReferer",
      "type": "event"
    },
    {
      "anonymous": false,
      "inputs": [
        {
          "indexed": true,
          "internalType": "address",
          "name": "parent",
          "type": "address"
        },
        {
          "indexed": true,
          "internalType": "address",
          "name": "referrer",
          "type": "address"
        },
        {
          "indexed": true,
          "internalType": "address",
          "name": "referee",
          "type": "address"
        }
      ],
      "name": "RegisteredTeamAddress",
      "type": "event"
    },
    {
      "anonymous": false,
      "inputs": [
        {
          "indexed": false,
          "internalType": "address",
          "name": "account",
          "type": "address"
        }
      ],
      "name": "Unpaused",
      "type": "event"
    },
    {
      "anonymous": false,
      "inputs": [
        {
          "indexed": true,
          "internalType": "address",
          "name": "implementation",
          "type": "address"
        }
      ],
      "name": "Upgraded",
      "type": "event"
    },
    {
      "inputs": [
        {
          "internalType": "address",
          "name": "_userAddress",
          "type": "address"
        },
        {
          "internalType": "address",
          "name": "_referrerAddress",
          "type": "address"
        }
      ],
      "name": "addReferrerAdmin",
      "outputs": [
        {
          "internalType": "bool",
          "name": "",
          "type": "bool"
        }
      ],
      "stateMutability": "nonpayable",
      "type": "function"
    },
    {
      "inputs": [],
      "name": "getCircularReferenceLevels",
      "outputs": [
        {
          "internalType": "uint256",
          "name": "",
          "type": "uint256"
        }
      ],
      "stateMutability": "view",
      "type": "function"
    },
    {
      "inputs": [],
      "name": "getDefaultReferrer",
      "outputs": [
        {
          "internalType": "address",
          "name": "",
          "type": "address"
        }
      ],
      "stateMutability": "view",
      "type": "function"
    },
    {
      "inputs": [],
      "name": "getLevelDecimals",
      "outputs": [
        {
          "internalType": "uint256",
          "name": "",
          "type": "uint256"
        }
      ],
      "stateMutability": "view",
      "type": "function"
    },
    {
      "inputs": [],
      "name": "getLevelRates",
      "outputs": [
        {
          "internalType": "uint256[]",
          "name": "presale",
          "type": "uint256[]"
        },
        {
          "internalType": "uint256",
          "name": "totalRatePresale",
          "type": "uint256"
        },
        {
          "internalType": "uint256[]",
          "name": "staking",
          "type": "uint256[]"
        },
        {
          "internalType": "uint256",
          "name": "totalRateStaking",
          "type": "uint256"
        }
      ],
      "stateMutability": "view",
      "type": "function"
    },
    {
      "inputs": [],
      "name": "getPresaleContract",
      "outputs": [
        {
          "internalType": "address",
          "name": "",
          "type": "address"
        }
      ],
      "stateMutability": "view",
      "type": "function"
    },
    {
      "inputs": [],
      "name": "getStakingContract",
      "outputs": [
        {
          "internalType": "address",
          "name": "",
          "type": "address"
        }
      ],
      "stateMutability": "view",
      "type": "function"
    },
    {
      "inputs": [],
      "name": "getTokenContract",
      "outputs": [
        {
          "internalType": "address",
          "name": "tokenAddress",
          "type": "address"
        },
        {
          "internalType": "string",
          "name": "tokenName",
          "type": "string"
        },
        {
          "internalType": "uint256",
          "name": "tokenDecimals",
          "type": "uint256"
        },
        {
          "internalType": "uint256",
          "name": "tokenSupply",
          "type": "uint256"
        }
      ],
      "stateMutability": "view",
      "type": "function"
    },
    {
      "inputs": [],
      "name": "getTokenSeller",
      "outputs": [
        {
          "internalType": "address",
          "name": "",
          "type": "address"
        }
      ],
      "stateMutability": "view",
      "type": "function"
    },
    {
      "inputs": [],
      "name": "getUSDContract",
      "outputs": [
        {
          "internalType": "address",
          "name": "USDAddress",
          "type": "address"
        },
        {
          "internalType": "string",
          "name": "USDName",
          "type": "string"
        },
        {
          "internalType": "uint256",
          "name": "USDDecimals",
          "type": "uint256"
        },
        {
          "internalType": "uint256",
          "name": "USDSupply",
          "type": "uint256"
        }
      ],
      "stateMutability": "view",
      "type": "function"
    },
    {
      "inputs": [
        {
          "internalType": "address",
          "name": "_address",
          "type": "address"
        }
      ],
      "name": "getUserAccount",
      "outputs": [
        {
          "components": [
            {
              "internalType": "address",
              "name": "referrer",
              "type": "address"
            },
            {
              "internalType": "address[]",
              "name": "referredAddresses",
              "type": "address[]"
            },
            {
              "internalType": "address[]",
              "name": "teamAddress",
              "type": "address[]"
            },
            {
              "internalType": "uint256",
              "name": "totalBusinessETH",
              "type": "uint256"
            },
            {
              "internalType": "uint256",
              "name": "totalBusinessUSD",
              "type": "uint256"
            },
            {
              "internalType": "uint256[]",
              "name": "rewardPaidETH",
              "type": "uint256[]"
            },
            {
              "internalType": "uint256[]",
              "name": "rewardPaidUSD",
              "type": "uint256[]"
            },
            {
              "internalType": "uint256[]",
              "name": "rewardPaidStaking",
              "type": "uint256[]"
            },
            {
              "internalType": "uint256[]",
              "name": "rewardPaidTimeETH",
              "type": "uint256[]"
            },
            {
              "internalType": "uint256[]",
              "name": "rewardPaidTimeUSD",
              "type": "uint256[]"
            },
            {
              "internalType": "uint256[]",
              "name": "rewardPaidTimeStaking",
              "type": "uint256[]"
            }
          ],
          "internalType": "struct ReferralV1Upgradable.Account",
          "name": "userAccount",
          "type": "tuple"
        }
      ],
      "stateMutability": "view",
      "type": "function"
    },
    {
      "inputs": [
        {
          "internalType": "address",
          "name": "_address",
          "type": "address"
        }
      ],
      "name": "getUserReferee",
      "outputs": [
        {
          "internalType": "address[]",
          "name": "userRefereeAddress",
          "type": "address[]"
        },
        {
          "internalType": "uint256",
          "name": "userRefereeCount",
          "type": "uint256"
        }
      ],
      "stateMutability": "view",
      "type": "function"
    },
    {
      "inputs": [
        {
          "internalType": "address",
          "name": "_address",
          "type": "address"
        }
      ],
      "name": "getUserReferrerAddress",
      "outputs": [
        {
          "internalType": "address",
          "name": "referrer",
          "type": "address"
        }
      ],
      "stateMutability": "view",
      "type": "function"
    },
    {
      "inputs": [
        {
          "internalType": "address",
          "name": "_address",
          "type": "address"
        }
      ],
      "name": "getUserRewardPaid",
      "outputs": [
        {
          "internalType": "uint256[]",
          "name": "rewardPaidETH",
          "type": "uint256[]"
        },
        {
          "internalType": "uint256[]",
          "name": "rewardPaidUSD",
          "type": "uint256[]"
        },
        {
          "internalType": "uint256[]",
          "name": "rewardPaidStaking",
          "type": "uint256[]"
        }
      ],
      "stateMutability": "view",
      "type": "function"
    },
    {
      "inputs": [
        {
          "internalType": "address",
          "name": "_address",
          "type": "address"
        }
      ],
      "name": "getUserRewardPaidTimestamp",
      "outputs": [
        {
          "internalType": "uint256[]",
          "name": "rewardPaidTimeETH",
          "type": "uint256[]"
        },
        {
          "internalType": "uint256[]",
          "name": "rewardPaidTimeUSD",
          "type": "uint256[]"
        },
        {
          "internalType": "uint256[]",
          "name": "rewardPaidTimeStaking",
          "type": "uint256[]"
        }
      ],
      "stateMutability": "view",
      "type": "function"
    },
    {
      "inputs": [
        {
          "internalType": "address",
          "name": "_address",
          "type": "address"
        }
      ],
      "name": "getUserTeamReferee",
      "outputs": [
        {
          "internalType": "address[]",
          "name": "userTeamReferees",
          "type": "address[]"
        },
        {
          "internalType": "uint256",
          "name": "userTeamRefereeCount",
          "type": "uint256"
        }
      ],
      "stateMutability": "view",
      "type": "function"
    },
    {
      "inputs": [
        {
          "internalType": "address",
          "name": "_address",
          "type": "address"
        }
      ],
      "name": "getUserTotalBusiness",
      "outputs": [
        {
          "internalType": "uint256",
          "name": "businessETH",
          "type": "uint256"
        },
        {
          "internalType": "uint256",
          "name": "businessUSD",
          "type": "uint256"
        }
      ],
      "stateMutability": "view",
      "type": "function"
    },
    {
      "inputs": [
        {
          "internalType": "address",
          "name": "_address",
          "type": "address"
        }
      ],
      "name": "getUserTotalRewardPaid",
      "outputs": [
        {
          "internalType": "uint256",
          "name": "rewardPaidETH",
          "type": "uint256"
        },
        {
          "internalType": "uint256",
          "name": "rewardPaidUSD",
          "type": "uint256"
        },
        {
          "internalType": "uint256",
          "name": "rewardPaidStaking",
          "type": "uint256"
        }
      ],
      "stateMutability": "view",
      "type": "function"
    },
    {
      "inputs": [],
      "name": "initialize",
      "outputs": [],
      "stateMutability": "nonpayable",
      "type": "function"
    },
    {
      "inputs": [],
      "name": "owner",
      "outputs": [
        {
          "internalType": "address",
          "name": "",
          "type": "address"
        }
      ],
      "stateMutability": "view",
      "type": "function"
    },
    {
      "inputs": [],
      "name": "pause",
      "outputs": [],
      "stateMutability": "nonpayable",
      "type": "function"
    },
    {
      "inputs": [],
      "name": "paused",
      "outputs": [
        {
          "internalType": "bool",
          "name": "",
          "type": "bool"
        }
      ],
      "stateMutability": "view",
      "type": "function"
    },
    {
      "inputs": [
        {
          "internalType": "uint256",
          "name": "_value",
          "type": "uint256"
        },
        {
          "internalType": "address",
          "name": "_userAddress",
          "type": "address"
        },
        {
          "internalType": "address",
          "name": "_referrerAddress",
          "type": "address"
        }
      ],
      "name": "payReferralETHAdmin",
      "outputs": [
        {
          "internalType": "bool",
          "name": "",
          "type": "bool"
        }
      ],
      "stateMutability": "nonpayable",
      "type": "function"
    },
    {
      "inputs": [
        {
          "internalType": "uint256",
          "name": "_value",
          "type": "uint256"
        },
        {
          "internalType": "address",
          "name": "_userAddress",
          "type": "address"
        },
        {
          "internalType": "address",
          "name": "_referralAddress",
          "type": "address"
        }
      ],
      "name": "payReferralUSDAdmin",
      "outputs": [
        {
          "internalType": "bool",
          "name": "",
          "type": "bool"
        }
      ],
      "stateMutability": "nonpayable",
      "type": "function"
    },
    {
      "inputs": [
        {
          "internalType": "uint256",
          "name": "_value",
          "type": "uint256"
        },
        {
          "internalType": "address",
          "name": "_referee",
          "type": "address"
        }
      ],
      "name": "payStakingReferralAdmin",
      "outputs": [
        {
          "internalType": "bool",
          "name": "",
          "type": "bool"
        }
      ],
      "stateMutability": "nonpayable",
      "type": "function"
    },
    {
      "inputs": [],
      "name": "proxiableUUID",
      "outputs": [
        {
          "internalType": "bytes32",
          "name": "",
          "type": "bytes32"
        }
      ],
      "stateMutability": "view",
      "type": "function"
    },
    {
      "inputs": [],
      "name": "renounceOwnership",
      "outputs": [],
      "stateMutability": "nonpayable",
      "type": "function"
    },
    {
      "inputs": [
        {
          "internalType": "address",
          "name": "_address",
          "type": "address"
        },
        {
          "internalType": "uint256",
          "name": "_value",
          "type": "uint256"
        }
      ],
      "name": "sendNativeFundsAdmin",
      "outputs": [],
      "stateMutability": "nonpayable",
      "type": "function"
    },
    {
      "inputs": [
        {
          "internalType": "uint256",
          "name": "_value",
          "type": "uint256"
        }
      ],
      "name": "setCircularReferenceLevels",
      "outputs": [
        {
          "internalType": "uint256",
          "name": "",
          "type": "uint256"
        }
      ],
      "stateMutability": "nonpayable",
      "type": "function"
    },
    {
      "inputs": [
        {
          "internalType": "address payable",
          "name": "_address",
          "type": "address"
        }
      ],
      "name": "setDefaultReferrer",
      "outputs": [],
      "stateMutability": "nonpayable",
      "type": "function"
    },
    {
      "inputs": [
        {
          "internalType": "uint256",
          "name": "_value",
          "type": "uint256"
        }
      ],
      "name": "setLevelDecimals",
      "outputs": [
        {
          "internalType": "bool",
          "name": "",
          "type": "bool"
        }
      ],
      "stateMutability": "nonpayable",
      "type": "function"
    },
    {
      "inputs": [
        {
          "internalType": "uint256[]",
          "name": "_value",
          "type": "uint256[]"
        }
      ],
      "name": "setLevelRateReferral",
      "outputs": [
        {
          "internalType": "bool",
          "name": "",
          "type": "bool"
        }
      ],
      "stateMutability": "nonpayable",
      "type": "function"
    },
    {
      "inputs": [
        {
          "internalType": "uint256[]",
          "name": "_value",
          "type": "uint256[]"
        }
      ],
      "name": "setLevelRateStaking",
      "outputs": [
        {
          "internalType": "bool",
          "name": "",
          "type": "bool"
        }
      ],
      "stateMutability": "nonpayable",
      "type": "function"
    },
    {
      "inputs": [
        {
          "internalType": "address",
          "name": "_address",
          "type": "address"
        }
      ],
      "name": "setPresaleContract",
      "outputs": [
        {
          "internalType": "address",
          "name": "",
          "type": "address"
        }
      ],
      "stateMutability": "nonpayable",
      "type": "function"
    },
    {
      "inputs": [
        {
          "internalType": "address",
          "name": "_address",
          "type": "address"
        }
      ],
      "name": "setStakingContract",
      "outputs": [
        {
          "internalType": "address",
          "name": "",
          "type": "address"
        }
      ],
      "stateMutability": "nonpayable",
      "type": "function"
    },
    {
      "inputs": [
        {
          "internalType": "address",
          "name": "_address",
          "type": "address"
        }
      ],
      "name": "setTokenContractAdmin",
      "outputs": [
        {
          "internalType": "bool",
          "name": "",
          "type": "bool"
        }
      ],
      "stateMutability": "nonpayable",
      "type": "function"
    },
    {
      "inputs": [
        {
          "internalType": "address",
          "name": "_address",
          "type": "address"
        }
      ],
      "name": "setTokenSeller",
      "outputs": [],
      "stateMutability": "nonpayable",
      "type": "function"
    },
    {
      "inputs": [
        {
          "internalType": "address",
          "name": "_address",
          "type": "address"
        }
      ],
      "name": "setUSDContractAdmin",
      "outputs": [
        {
          "internalType": "bool",
          "name": "",
          "type": "bool"
        }
      ],
      "stateMutability": "nonpayable",
      "type": "function"
    },
    {
      "inputs": [
        {
          "internalType": "address",
          "name": "newOwner",
          "type": "address"
        }
      ],
      "name": "transferOwnership",
      "outputs": [],
      "stateMutability": "nonpayable",
      "type": "function"
    },
    {
      "inputs": [],
      "name": "unpause",
      "outputs": [],
      "stateMutability": "nonpayable",
      "type": "function"
    },
    {
      "inputs": [
        {
          "internalType": "address",
          "name": "newImplementation",
          "type": "address"
        }
      ],
      "name": "upgradeTo",
      "outputs": [],
      "stateMutability": "nonpayable",
      "type": "function"
    },
    {
      "inputs": [
        {
          "internalType": "address",
          "name": "newImplementation",
          "type": "address"
        },
        {
          "internalType": "bytes",
          "name": "data",
          "type": "bytes"
        }
      ],
      "name": "upgradeToAndCall",
      "outputs": [],
      "stateMutability": "payable",
      "type": "function"
    },
    {
      "inputs": [],
      "name": "withdrawAdmin",
      "outputs": [],
      "stateMutability": "nonpayable",
      "type": "function"
    },
    {
      "inputs": [
        {
          "internalType": "address",
          "name": "_tokenAddress",
          "type": "address"
        },
        {
          "internalType": "uint256",
          "name": "_value",
          "type": "uint256"
        }
      ],
      "name": "withdrawTokenAdmin",
      "outputs": [],
      "stateMutability": "nonpayable",
      "type": "function"
    },
    {
      "stateMutability": "payable",
      "type": "receive"
    }
  ],
  "bytecode": "0x60a06040523060805234801561001457600080fd5b5060805161486e61004c60003960008181610c1f01528181610c6801528181610d9801528181610dd80152610ee0015261486e6000f3fe60806040526004361061026b5760003560e01c80638129fc1c11610144578063b68e1e46116100b6578063e7cca9c71161007a578063e7cca9c714610775578063ef519dc01461078b578063f1012b45146107c6578063f2fde38b146107e4578063f5b8a58814610804578063fb47e0161461082457600080fd5b8063b68e1e46146106d5578063cfbdb859146106f5578063d113efc414610715578063dcf6e81914610735578063e758a9e01461075557600080fd5b80639ae1f46e116101085780639ae1f46e1461062a5780639dd373b914610640578063a073975614610660578063a5bac94314610680578063a9bbd11414610695578063ac6f6a2d146106b557600080fd5b80638129fc1c1461059f5780638456cb59146105b45780638da5cb5b146105c95780638e68dce4146105e7578063918a54db1461060557600080fd5b80633accb971116101dd57806352d1902d116101a157806352d1902d146104fd5780635c975abb146105125780635d1657901461052a578063706aa31d1461054a578063715018a61461056a5780637a22393b1461057f57600080fd5b80633accb9711461044d5780633f4ba83a1461047b57806343b4ebf4146104905780634f1ef286146104ca5780635188f1e1146104dd57600080fd5b8063248835081161022f578063248835081461036a57806328b7bede146103895780632e6b04e0146103ae57806330966279146103dd57806334dcfa8c1461040d5780633659cfe61461042d57600080fd5b806304c76af01461027757806314d09b941461028e578063161441b3146102c55780631cecbe9a146102f35780632405091c1461031357600080fd5b3661027257005b600080fd5b34801561028357600080fd5b5061028c610851565b005b34801561029a57600080fd5b5060ff546001600160a01b03165b6040516001600160a01b0390911681526020015b60405180910390f35b3480156102d157600080fd5b506102e56102e0366004613fcd565b610888565b6040519081526020016102bc565b3480156102ff57600080fd5b5061028c61030e366004613ffb565b61089c565b34801561031f57600080fd5b5061035561032e366004614027565b6001600160a01b031660009081526101086020526040902060038101546004909101549091565b604080519283526020830191909152016102bc565b34801561037657600080fd5b50610107546001600160a01b03166102a8565b34801561039557600080fd5b5061039e6108df565b6040516102bc9493929190614094565b3480156103ba57600080fd5b506103ce6103c9366004614027565b610a54565b6040516102bc93929190614106565b3480156103e957600080fd5b506103fd6103f8366004614149565b610b79565b60405190151581526020016102bc565b34801561041957600080fd5b5061028c610428366004613ffb565b610b9c565b34801561043957600080fd5b5061028c610448366004614027565b610c15565b34801561045957600080fd5b5061046d610468366004614027565b610cfa565b6040516102bc9291906141be565b34801561048757600080fd5b5061028c610d7c565b34801561049c57600080fd5b506102a86104ab366004614027565b6001600160a01b03908116600090815261010860205260409020541690565b61028c6104d836600461427e565b610d8e565b3480156104e957600080fd5b506103fd6104f8366004614311565b610e5e565b34801561050957600080fd5b506102e5610ed3565b34801561051e57600080fd5b5060335460ff166103fd565b34801561053657600080fd5b506103fd610545366004614353565b610f86565b34801561055657600080fd5b506103ce610565366004614027565b610ff7565b34801561057657600080fd5b5061028c61111a565b34801561058b57600080fd5b5061028c61059a366004614027565b61112c565b3480156105ab57600080fd5b5061028c611156565b3480156105c057600080fd5b5061028c611370565b3480156105d557600080fd5b506065546001600160a01b03166102a8565b3480156105f357600080fd5b5060fe546001600160a01b03166102a8565b34801561061157600080fd5b5061061a611380565b6040516102bc9493929190614383565b34801561063657600080fd5b50610103546102e5565b34801561064c57600080fd5b506102a861065b366004614027565b6114d6565b34801561066c57600080fd5b506103fd61067b3660046143c0565b6114ff565b34801561068c57600080fd5b5061039e611577565b3480156106a157600080fd5b506102a86106b0366004614027565b6116c0565b3480156106c157600080fd5b506103fd6106d0366004614027565b6116e9565b3480156106e157600080fd5b506103fd6106f0366004614027565b611718565b34801561070157600080fd5b506103fd610710366004613fcd565b611747565b34801561072157600080fd5b5061046d610730366004614027565b61175b565b34801561074157600080fd5b5061028c610750366004614027565b6117db565b34801561076157600080fd5b506103fd610770366004614149565b611806565b34801561078157600080fd5b50610102546102e5565b34801561079757600080fd5b506107ab6107a6366004614027565b61181d565b604080519384526020840192909252908201526060016102bc565b3480156107d257600080fd5b5060fd546001600160a01b03166102a8565b3480156107f057600080fd5b5061028c6107ff366004614027565b611938565b34801561081057600080fd5b506103fd61081f366004614311565b6119ae565b34801561083057600080fd5b5061084461083f366004614027565b611a16565b6040516102bc9190614427565b610859611d97565b60405133904780156108fc02916000818181858888f19350505050158015610885573d6000803e3d6000fd5b50565b6000610892611d97565b5061010381905590565b6108a4611d97565b6040516001600160a01b0383169082156108fc029083906000818181858888f193505050501580156108da573d6000803e3d6000fd5b505050565b60fb54604080516306fdde0360e01b815290516001600160a01b0390921691606091600091829185916306fdde039160048082019286929091908290030181865afa158015610932573d6000803e3d6000fd5b505050506040513d6000823e601f3d908101601f1916820160405261095a9190810190614544565b925060fb60009054906101000a90046001600160a01b03166001600160a01b031663313ce5676040518163ffffffff1660e01b8152600401602060405180830381865afa1580156109af573d6000803e3d6000fd5b505050506040513d601f19601f820116820180604052508101906109d391906145b2565b915060fb60009054906101000a90046001600160a01b03166001600160a01b03166318160ddd6040518163ffffffff1660e01b8152600401602060405180830381865afa158015610a28573d6000803e3d6000fd5b505050506040513d601f19601f82011682018060405250810190610a4c91906145b2565b905090919293565b6001600160a01b038116600090815261010860209081526040918290206008810180548451818502810185019095528085526060948594859493919290830182828015610ac057602002820191906000526020600020905b815481526020019060010190808311610aac575b5050505050935080600901805480602002602001604051908101604052809291908181526020018280548015610b1557602002820191906000526020600020905b815481526020019060010190808311610b01575b5050505050925080600a01805480602002602001604051908101604052809291908181526020018280548015610b6a57602002820191906000526020600020905b815481526020019060010190808311610b56575b50505050509150509193909250565b6000610b83611d97565b610b906101018484613f2d565b50600190505b92915050565b610ba4611d97565b60405163a9059cbb60e01b8152336004820152602481018290526001600160a01b0383169063a9059cbb906044016020604051808303816000875af1158015610bf1573d6000803e3d6000fd5b505050506040513d601f19601f820116820180604052508101906108da91906145cb565b6001600160a01b037f0000000000000000000000000000000000000000000000000000000000000000163003610c665760405162461bcd60e51b8152600401610c5d906145ed565b60405180910390fd5b7f00000000000000000000000000000000000000000000000000000000000000006001600160a01b0316610caf6000805160206147f2833981519152546001600160a01b031690565b6001600160a01b031614610cd55760405162461bcd60e51b8152600401610c5d90614639565b610cde81611df1565b6040805160008082526020820190925261088591839190611df9565b6001600160a01b03811660009081526101086020908152604080832060028101805483518186028101860190945280845260609594929392830182828015610d6b57602002820191906000526020600020905b81546001600160a01b03168152600190910190602001808311610d4d575b505050505092508251915050915091565b610d84611d97565b610d8c611f64565b565b6001600160a01b037f0000000000000000000000000000000000000000000000000000000000000000163003610dd65760405162461bcd60e51b8152600401610c5d906145ed565b7f00000000000000000000000000000000000000000000000000000000000000006001600160a01b0316610e1f6000805160206147f2833981519152546001600160a01b031690565b6001600160a01b031614610e455760405162461bcd60e51b8152600401610c5d90614639565b610e4e82611df1565b610e5a82826001611df9565b5050565b600033610e736065546001600160a01b031690565b6001600160a01b0316816001600160a01b03161480610e9f575060fd546001600160a01b038281169116145b610ebb5760405162461bcd60e51b8152600401610c5d90614685565b610ec6858585611fb6565b60019150505b9392505050565b6000306001600160a01b037f00000000000000000000000000000000000000000000000000000000000000001614610f735760405162461bcd60e51b815260206004820152603860248201527f555550535570677261646561626c653a206d757374206e6f742062652063616c60448201527f6c6564207468726f7567682064656c656761746563616c6c00000000000000006064820152608401610c5d565b506000805160206147f283398151915290565b600033610f9b6065546001600160a01b031690565b6001600160a01b0316816001600160a01b03161480610fc7575060fe546001600160a01b038281169116145b610fe35760405162461bcd60e51b8152600401610c5d90614685565b610fed84846127c7565b5060019392505050565b6001600160a01b03811660009081526101086020908152604091829020600581018054845181850281018501909552808552606094859485949391929083018282801561106357602002820191906000526020600020905b81548152602001906001019080831161104f575b50505050509350806006018054806020026020016040519081016040528092919081815260200182805480156110b857602002820191906000526020600020905b8154815260200190600101908083116110a4575b5050505050925080600701805480602002602001604051908101604052809291908181526020018280548015610b6a5760200282019190600052602060002090815481526020019060010190808311610b565750505050509150509193909250565b611122611d97565b610d8c6000612f4f565b611134611d97565b60ff80546001600160a01b0319166001600160a01b0392909216919091179055565b600054610100900460ff16158080156111765750600054600160ff909116105b806111905750303b158015611190575060005460ff166001145b6111f35760405162461bcd60e51b815260206004820152602e60248201527f496e697469616c697a61626c653a20636f6e747261637420697320616c72656160448201526d191e481a5b9a5d1a585b1a5e995960921b6064820152608401610c5d565b6000805460ff191660011790558015611216576000805461ff0019166101001790555b60ff80546001600160a01b031990811673397b8db43aaaa23a757c52c05eb14a66a0f368d890811790925560fb805482167335d21e38200e125c9352c777b256854a6532905317905560fc8054821673c2132d05d31c914a87c6611c10748aeb04b58e8f17905560fd8054821673262a0d88b7acc1677d234f38cb8443b99fb8075f179055610107805490911690911790556064610102556040805160208101909152600581526112cc90610100906001613f78565b506040805160a081018252600a81526005602082018190526003928201929092526002606082015260016080820152611309916101019190613f78565b50600561010355611318612fa1565b611320612fd0565b611328612fff565b8015610885576000805461ff0019169055604051600181527f7f26b83ff96e1f2b6a682f133852f6798a09c465da95921460cefb38474024989060200160405180910390a150565b611378611d97565b610d8c613026565b60606000606060006101008054806020026020016040519081016040528092919081815260200182805480156113d557602002820191906000526020600020905b8154815260200190600101908083116113c1575b505083519397506000925050505b818160ff16101561142a57858160ff1681518110611403576114036146c7565b60200260200101518561141691906146f3565b94508061142281614706565b9150506113e3565b5061010180548060200260200160405190810160405280929190818152602001828054801561147857602002820191906000526020600020905b815481526020019060010190808311611464575b505083519396506000925050505b818160ff1610156114cd57848160ff16815181106114a6576114a66146c7565b6020026020010151846114b991906146f3565b9350806114c581614706565b915050611486565b50505090919293565b60006114e0611d97565b5060fe80546001600160a01b0319166001600160a01b03831617905590565b60006115136065546001600160a01b031690565b6001600160a01b0316336001600160a01b0316148061153c575060fd546001600160a01b031633145b80611551575060fe546001600160a01b031633145b61156d5760405162461bcd60e51b8152600401610c5d90614685565b610ecc8383613063565b60fc54604080516306fdde0360e01b815290516001600160a01b0390921691606091600091829185916306fdde039160048082019286929091908290030181865afa1580156115ca573d6000803e3d6000fd5b505050506040513d6000823e601f3d908101601f191682016040526115f29190810190614544565b925060fc60009054906101000a90046001600160a01b03166001600160a01b031663313ce5676040518163ffffffff1660e01b8152600401602060405180830381865afa158015611647573d6000803e3d6000fd5b505050506040513d601f19601f8201168201806040525081019061166b91906145b2565b915060fc60009054906101000a90046001600160a01b03166001600160a01b03166318160ddd6040518163ffffffff1660e01b8152600401602060405180830381865afa158015610a28573d6000803e3d6000fd5b60006116ca611d97565b5060fd80546001600160a01b0319166001600160a01b03831617905590565b60006116f3611d97565b5060fc80546001600160a01b0383166001600160a01b03199091161790556001919050565b6000611722611d97565b5060fb80546001600160a01b0383166001600160a01b03199091161790556001919050565b6000611751611d97565b5061010255600190565b6001600160a01b03811660009081526101086020908152604080832060018101805483518186028101860190945280845260609594929392830182828015610d6b576020028201919060005260206000209081546001600160a01b03168152600190910190602001808311610d4d57505050505092508251915050915091565b6117e3611d97565b61010780546001600160a01b0319166001600160a01b0392909216919091179055565b6000611810611d97565b610b906101008484613f2d565b6001600160a01b0381166000908152610108602052604081206005810154600682015460078301548493849390929091845b838110156118965784600501818154811061186c5761186c6146c7565b90600052602060002001548861188291906146f3565b97508061188e81614725565b91505061184f565b5060005b828110156118e1578460060181815481106118b7576118b76146c7565b9060005260206000200154876118cd91906146f3565b9650806118d981614725565b91505061189a565b5060005b8181101561192c57846007018181548110611902576119026146c7565b90600052602060002001548661191891906146f3565b95508061192481614725565b9150506118e5565b50505050509193909250565b611940611d97565b6001600160a01b0381166119a55760405162461bcd60e51b815260206004820152602660248201527f4f776e61626c653a206e6577206f776e657220697320746865207a65726f206160448201526564647265737360d01b6064820152608401610c5d565b61088581612f4f565b6000336119c36065546001600160a01b031690565b6001600160a01b0316816001600160a01b031614806119ef575060fd546001600160a01b038281169116145b611a0b5760405162461bcd60e51b8152600401610c5d90614685565b610ec685858561328f565b611a7c60405180610160016040528060006001600160a01b03168152602001606081526020016060815260200160008152602001600081526020016060815260200160608152602001606081526020016060815260200160608152602001606081525090565b6001600160a01b038083166000908152610108602090815260409182902082516101608101845281549094168452600181018054845181850281018501909552808552919385840193909290830182828015611b0157602002820191906000526020600020905b81546001600160a01b03168152600190910190602001808311611ae3575b5050505050815260200160028201805480602002602001604051908101604052809291908181526020018280548015611b6357602002820191906000526020600020905b81546001600160a01b03168152600190910190602001808311611b45575b50505050508152602001600382015481526020016004820154815260200160058201805480602002602001604051908101604052809291908181526020018280548015611bcf57602002820191906000526020600020905b815481526020019060010190808311611bbb575b5050505050815260200160068201805480602002602001604051908101604052809291908181526020018280548015611c2757602002820191906000526020600020905b815481526020019060010190808311611c13575b5050505050815260200160078201805480602002602001604051908101604052809291908181526020018280548015611c7f57602002820191906000526020600020905b815481526020019060010190808311611c6b575b5050505050815260200160088201805480602002602001604051908101604052809291908181526020018280548015611cd757602002820191906000526020600020905b815481526020019060010190808311611cc3575b5050505050815260200160098201805480602002602001604051908101604052809291908181526020018280548015611d2f57602002820191906000526020600020905b815481526020019060010190808311611d1b575b50505050508152602001600a8201805480602002602001604051908101604052809291908181526020018280548015611d8757602002820191906000526020600020905b815481526020019060010190808311611d73575b5050505050815250509050919050565b6065546001600160a01b03163314610d8c5760405162461bcd60e51b815260206004820181905260248201527f4f776e61626c653a2063616c6c6572206973206e6f7420746865206f776e65726044820152606401610c5d565b610885611d97565b7f4910fdfa16fed3260ed0e7147f7cc6da11a60208b5b9406d12a635614ffd91435460ff1615611e2c576108da83613a8c565b826001600160a01b03166352d1902d6040518163ffffffff1660e01b8152600401602060405180830381865afa925050508015611e86575060408051601f3d908101601f19168201909252611e83918101906145b2565b60015b611ee95760405162461bcd60e51b815260206004820152602e60248201527f45524331393637557067726164653a206e657720696d706c656d656e7461746960448201526d6f6e206973206e6f74205555505360901b6064820152608401610c5d565b6000805160206147f28339815191528114611f585760405162461bcd60e51b815260206004820152602960248201527f45524331393637557067726164653a20756e737570706f727465642070726f786044820152681a58589b195555525160ba1b6064820152608401610c5d565b506108da838383613b28565b611f6c613b53565b6033805460ff191690557f5db9ee0a495bf2e6ff9c91a7834c1ba4fdd244a5e8aa4e537bd38aeae4b073aa335b6040516001600160a01b03909116815260200160405180910390a1565b611fbf82613b9c565b158015611fd457506001600160a01b03811615155b15611fe557611fe38282613063565b505b611fee81613b9c565b15801561200357506001600160a01b03811615155b1561202257610107546120209082906001600160a01b0316613063565b505b6001600160a01b038083166000908152610108602090815260408083208151610160810183528154909516855260018101805483518186028101860190945280845294959491938581019392908301828280156120a857602002820191906000526020600020905b81546001600160a01b0316815260019091019060200180831161208a575b505050505081526020016002820180548060200260200160405190810160405280929190818152602001828054801561210a57602002820191906000526020600020905b81546001600160a01b031681526001909101906020018083116120ec575b5050505050815260200160038201548152602001600482015481526020016005820180548060200260200160405190810160405280929190818152602001828054801561217657602002820191906000526020600020905b815481526020019060010190808311612162575b50505050508152602001600682018054806020026020016040519081016040528092919081815260200182805480156121ce57602002820191906000526020600020905b8154815260200190600101908083116121ba575b505050505081526020016007820180548060200260200160405190810160405280929190818152602001828054801561222657602002820191906000526020600020905b815481526020019060010190808311612212575b505050505081526020016008820180548060200260200160405190810160405280929190818152602001828054801561227e57602002820191906000526020600020905b81548152602001906001019080831161226a575b50505050508152602001600982018054806020026020016040519081016040528092919081815260200182805480156122d657602002820191906000526020600020905b8154815260200190600101908083116122c2575b50505050508152602001600a820180548060200260200160405190810160405280929190818152602001828054801561232e57602002820191906000526020600020905b81548152602001906001019080831161231a575b50505050508152505090506000805b610100548110156127a75782516001600160a01b0381166000818152610108602052604090209061236f5750506127a7565b60006123af610102546123a9610100878154811061238f5761238f6146c7565b90600052602060002001548c613bbd90919063ffffffff16565b90613bc9565b9050888260040160008282546123c591906146f3565b909155505060068201805460018181018355600092835260208084209092018490556009850180549182018155835291204291015561240481866146f3565b60fc5460ff54919650612425916001600160a01b0391821691168584613bd5565b806001600160a01b03808516908a167f197a0a2b0fbff3fc4f7f4d32597585aa8415fcc4c5dd6634336ec65904529c836124608860016146f3565b6040805191825260208201819052600490820152631554d11560e21b606082015260800160405180910390a4604080516101608101825283546001600160a01b03168152600184018054835160208281028201810190955281815292938693818601939092909183018282801561250057602002820191906000526020600020905b81546001600160a01b031681526001909101906020018083116124e2575b505050505081526020016002820180548060200260200160405190810160405280929190818152602001828054801561256257602002820191906000526020600020905b81546001600160a01b03168152600190910190602001808311612544575b505050505081526020016003820154815260200160048201548152602001600582018054806020026020016040519081016040528092919081815260200182805480156125ce57602002820191906000526020600020905b8154815260200190600101908083116125ba575b505050505081526020016006820180548060200260200160405190810160405280929190818152602001828054801561262657602002820191906000526020600020905b815481526020019060010190808311612612575b505050505081526020016007820180548060200260200160405190810160405280929190818152602001828054801561267e57602002820191906000526020600020905b81548152602001906001019080831161266a575b50505050508152602001600882018054806020026020016040519081016040528092919081815260200182805480156126d657602002820191906000526020600020905b8154815260200190600101908083116126c2575b505050505081526020016009820180548060200260200160405190810160405280929190818152602001828054801561272e57602002820191906000526020600020905b81548152602001906001019080831161271a575b50505050508152602001600a820180548060200260200160405190810160405280929190818152602001828054801561278657602002820191906000526020600020905b815481526020019060010190808311612772575b5050505050815250509550505050808061279f90614725565b91505061233d565b508061010560008282546127bb91906146f3565b90915550505050505050565b6001600160a01b0380821660009081526101086020908152604080832081516101608101835281549095168552600181018054835181860281018601909452808452949594919385810193929083018282801561284d57602002820191906000526020600020905b81546001600160a01b0316815260019091019060200180831161282f575b50505050508152602001600282018054806020026020016040519081016040528092919081815260200182805480156128af57602002820191906000526020600020905b81546001600160a01b03168152600190910190602001808311612891575b5050505050815260200160038201548152602001600482015481526020016005820180548060200260200160405190810160405280929190818152602001828054801561291b57602002820191906000526020600020905b815481526020019060010190808311612907575b505050505081526020016006820180548060200260200160405190810160405280929190818152602001828054801561297357602002820191906000526020600020905b81548152602001906001019080831161295f575b50505050508152602001600782018054806020026020016040519081016040528092919081815260200182805480156129cb57602002820191906000526020600020905b8154815260200190600101908083116129b7575b5050505050815260200160088201805480602002602001604051908101604052809291908181526020018280548015612a2357602002820191906000526020600020905b815481526020019060010190808311612a0f575b5050505050815260200160098201805480602002602001604051908101604052809291908181526020018280548015612a7b57602002820191906000526020600020905b815481526020019060010190808311612a67575b50505050508152602001600a8201805480602002602001604051908101604052809291908181526020018280548015612ad357602002820191906000526020600020905b815481526020019060010190808311612abf575b50505050508152505090506000805b61010154811015612f305782516001600160a01b03811660008181526101086020526040902090612b14575050612f30565b6000612b4e610102546123a96101018781548110612b3457612b346146c7565b90600052602060002001548b613bbd90919063ffffffff16565b6007830180546001818101835560009283526020808420909201849055600a86018054918201815583529120429101559050612b8a81866146f3565b60fb5460ff54919650612bab916001600160a01b0391821691168584613bd5565b806001600160a01b038085169089167f197a0a2b0fbff3fc4f7f4d32597585aa8415fcc4c5dd6634336ec65904529c83612be68860016146f3565b6040805191825260208201819052600790820152665374616b696e6760c81b606082015260800160405180910390a4604080516101608101825283546001600160a01b031681526001840180548351602082810282018101909552818152929386938186019390929091830182828015612c8957602002820191906000526020600020905b81546001600160a01b03168152600190910190602001808311612c6b575b5050505050815260200160028201805480602002602001604051908101604052809291908181526020018280548015612ceb57602002820191906000526020600020905b81546001600160a01b03168152600190910190602001808311612ccd575b50505050508152602001600382015481526020016004820154815260200160058201805480602002602001604051908101604052809291908181526020018280548015612d5757602002820191906000526020600020905b815481526020019060010190808311612d43575b5050505050815260200160068201805480602002602001604051908101604052809291908181526020018280548015612daf57602002820191906000526020600020905b815481526020019060010190808311612d9b575b5050505050815260200160078201805480602002602001604051908101604052809291908181526020018280548015612e0757602002820191906000526020600020905b815481526020019060010190808311612df3575b5050505050815260200160088201805480602002602001604051908101604052809291908181526020018280548015612e5f57602002820191906000526020600020905b815481526020019060010190808311612e4b575b5050505050815260200160098201805480602002602001604051908101604052809291908181526020018280548015612eb757602002820191906000526020600020905b815481526020019060010190808311612ea3575b50505050508152602001600a8201805480602002602001604051908101604052809291908181526020018280548015612f0f57602002820191906000526020600020905b815481526020019060010190808311612efb575b50505050508152505095505050508080612f2890614725565b915050612ae2565b50806101066000828254612f4491906146f3565b909155505050505050565b606580546001600160a01b038381166001600160a01b0319831681179093556040519116919082907f8be0079c531659141344cd1fd0a4f28419497f9722a3daafe3b4186f6b6457e090600090a35050565b600054610100900460ff16612fc85760405162461bcd60e51b8152600401610c5d9061473e565b610d8c613c57565b600054610100900460ff16612ff75760405162461bcd60e51b8152600401610c5d9061473e565b610d8c613c8a565b600054610100900460ff16610d8c5760405162461bcd60e51b8152600401610c5d9061473e565b61302e613cba565b6033805460ff191660011790557f62e78cea01bee320cd4e420270b5ea74000d11b0c9f74754ebdbfc544b05a258611f993390565b600061306f8284613d00565b15613101576040517f526566657265652063616e6e6f74206265206f6e65206f66207265666572726581526939103ab83634b732b99760b11b6020820152602a015b6040518091039020826001600160a01b0316846001600160a01b03167f3a1a86984713a4f9021513989fe0334430012901d62639108f2a816c111a732f60405160405180910390a4506000610b96565b6001600160a01b03838116600090815261010860205260409020541615613150576040517f4164647265737320616c726561647920686176652072656665727265722e00008152601e016130b1565b6001600160a01b0380841660008181526101086020908152604080832094871680845281842086546001600160a01b031990811683178855600180830180549182018155875294862090940180549094168617909355905191939290917ffaf63637882ff2d63ca76881cf92fb857130e36f350c926f9cc884b499b42b779190a360005b610101548110156132835781546001600160a01b0316600081815261010860205260409020906132045750613283565b6002810180546001810182556000918252602082200180546001600160a01b0319166001600160a01b038a81169182179092558354604051949650869491938a84169391909116917fb766b19465b3277b0b275adf79d715cac93166bf6e6a39f26e4ccfdec76ad47e9190a4508061327b81614725565b9150506131d4565b50600195945050505050565b61329882613b9c565b1580156132ad57506001600160a01b03811615155b156132be576132bc8282613063565b505b6132c781613b9c565b1580156132dc57506001600160a01b03811615155b156132fb57610107546132f99082906001600160a01b0316613063565b505b6001600160a01b0380831660009081526101086020908152604080832081516101608101835281549095168552600181018054835181860281018601909452808452949594919385810193929083018282801561338157602002820191906000526020600020905b81546001600160a01b03168152600190910190602001808311613363575b50505050508152602001600282018054806020026020016040519081016040528092919081815260200182805480156133e357602002820191906000526020600020905b81546001600160a01b031681526001909101906020018083116133c5575b5050505050815260200160038201548152602001600482015481526020016005820180548060200260200160405190810160405280929190818152602001828054801561344f57602002820191906000526020600020905b81548152602001906001019080831161343b575b50505050508152602001600682018054806020026020016040519081016040528092919081815260200182805480156134a757602002820191906000526020600020905b815481526020019060010190808311613493575b50505050508152602001600782018054806020026020016040519081016040528092919081815260200182805480156134ff57602002820191906000526020600020905b8154815260200190600101908083116134eb575b505050505081526020016008820180548060200260200160405190810160405280929190818152602001828054801561355757602002820191906000526020600020905b815481526020019060010190808311613543575b50505050508152602001600982018054806020026020016040519081016040528092919081815260200182805480156135af57602002820191906000526020600020905b81548152602001906001019080831161359b575b50505050508152602001600a820180548060200260200160405190810160405280929190818152602001828054801561360757602002820191906000526020600020905b8154815260200190600101908083116135f3575b50505050508152505090506000805b61010054811015613a785782516001600160a01b03811660008181526101086020526040902090613648575050613a78565b6000613668610102546123a9610100878154811061238f5761238f6146c7565b90508882600301600082825461367e91906146f3565b90915550506005820180546001818101835560009283526020808420909201849055600885018054918201815583529120429101556136bd81866146f3565b6040519095506001600160a01b0384169082156108fc029083906000818181858888f193505050501580156136f6573d6000803e3d6000fd5b50806001600160a01b03808516908a167f197a0a2b0fbff3fc4f7f4d32597585aa8415fcc4c5dd6634336ec65904529c836137328860016146f3565b60408051918252602082018190526003908201526208aa8960eb1b606082015260800160405180910390a4604080516101608101825283546001600160a01b0316815260018401805483516020828102820181019095528181529293869381860193909290918301828280156137d157602002820191906000526020600020905b81546001600160a01b031681526001909101906020018083116137b3575b505050505081526020016002820180548060200260200160405190810160405280929190818152602001828054801561383357602002820191906000526020600020905b81546001600160a01b03168152600190910190602001808311613815575b5050505050815260200160038201548152602001600482015481526020016005820180548060200260200160405190810160405280929190818152602001828054801561389f57602002820191906000526020600020905b81548152602001906001019080831161388b575b50505050508152602001600682018054806020026020016040519081016040528092919081815260200182805480156138f757602002820191906000526020600020905b8154815260200190600101908083116138e3575b505050505081526020016007820180548060200260200160405190810160405280929190818152602001828054801561394f57602002820191906000526020600020905b81548152602001906001019080831161393b575b50505050508152602001600882018054806020026020016040519081016040528092919081815260200182805480156139a757602002820191906000526020600020905b815481526020019060010190808311613993575b50505050508152602001600982018054806020026020016040519081016040528092919081815260200182805480156139ff57602002820191906000526020600020905b8154815260200190600101908083116139eb575b50505050508152602001600a8201805480602002602001604051908101604052809291908181526020018280548015613a5757602002820191906000526020600020905b815481526020019060010190808311613a43575b50505050508152505095505050508080613a7090614725565b915050613616565b508061010460008282546127bb91906146f3565b6001600160a01b0381163b613af95760405162461bcd60e51b815260206004820152602d60248201527f455243313936373a206e657720696d706c656d656e746174696f6e206973206e60448201526c1bdd08184818dbdb9d1c9858dd609a1b6064820152608401610c5d565b6000805160206147f283398151915280546001600160a01b0319166001600160a01b0392909216919091179055565b613b3183613dc0565b600082511180613b3e5750805b156108da57613b4d8383613e00565b50505050565b60335460ff16610d8c5760405162461bcd60e51b815260206004820152601460248201527314185d5cd8589b194e881b9bdd081c185d5cd95960621b6044820152606401610c5d565b6001600160a01b039081166000908152610108602052604090205416151590565b6000610ecc8284614789565b6000610ecc82846147a0565b6040516323b872dd60e01b81526001600160a01b0384811660048301528381166024830152604482018390528516906323b872dd906064016020604051808303816000875af1158015613c2c573d6000803e3d6000fd5b505050506040513d601f19601f82011682018060405250810190613c5091906145cb565b5050505050565b600054610100900460ff16613c7e5760405162461bcd60e51b8152600401610c5d9061473e565b6033805460ff19169055565b600054610100900460ff16613cb15760405162461bcd60e51b8152600401610c5d9061473e565b610d8c33612f4f565b60335460ff1615610d8c5760405162461bcd60e51b815260206004820152601060248201526f14185d5cd8589b194e881c185d5cd95960821b6044820152606401610c5d565b60006001600160a01b038316613d515760405162461bcd60e51b815260206004820152601660248201527520b2323932b9b99031b0b73737ba10313290183c181760511b6044820152606401610c5d565b8260005b61010354811015613db557836001600160a01b0316826001600160a01b031603613d8457600192505050610b96565b6001600160a01b03918216600090815261010860205260409020549091169080613dad81614725565b915050613d55565b506000949350505050565b613dc981613a8c565b6040516001600160a01b038216907fbc7cd75a20ee27fd9adebab32041f755214dbc6bffa90cc0225b39da2e5c2d3b90600090a250565b60606001600160a01b0383163b613e685760405162461bcd60e51b815260206004820152602660248201527f416464726573733a2064656c65676174652063616c6c20746f206e6f6e2d636f6044820152651b9d1c9858dd60d21b6064820152608401610c5d565b600080846001600160a01b031684604051613e8391906147c2565b600060405180830381855af49150503d8060008114613ebe576040519150601f19603f3d011682016040523d82523d6000602084013e613ec3565b606091505b5091509150613eeb828260405180606001604052806027815260200161481260279139613ef4565b95945050505050565b60608315613f03575081610ecc565b825115613f135782518084602001fd5b8160405162461bcd60e51b8152600401610c5d91906147de565b828054828255906000526020600020908101928215613f68579160200282015b82811115613f68578235825591602001919060010190613f4d565b50613f74929150613fb8565b5090565b828054828255906000526020600020908101928215613f68579160200282015b82811115613f68578251829060ff16905591602001919060010190613f98565b5b80821115613f745760008155600101613fb9565b600060208284031215613fdf57600080fd5b5035919050565b6001600160a01b038116811461088557600080fd5b6000806040838503121561400e57600080fd5b823561401981613fe6565b946020939093013593505050565b60006020828403121561403957600080fd5b8135610ecc81613fe6565b60005b8381101561405f578181015183820152602001614047565b50506000910152565b60008151808452614080816020860160208601614044565b601f01601f19169290920160200192915050565b6001600160a01b03851681526080602082018190526000906140b890830186614068565b6040830194909452506060015292915050565b600081518084526020808501945080840160005b838110156140fb578151875295820195908201906001016140df565b509495945050505050565b60608152600061411960608301866140cb565b828103602084015261412b81866140cb565b9050828103604084015261413f81856140cb565b9695505050505050565b6000806020838503121561415c57600080fd5b823567ffffffffffffffff8082111561417457600080fd5b818501915085601f83011261418857600080fd5b81358181111561419757600080fd5b8660208260051b85010111156141ac57600080fd5b60209290920196919550909350505050565b604080825283519082018190526000906020906060840190828701845b828110156142005781516001600160a01b0316845292840192908401906001016141db565b50505092019290925292915050565b634e487b7160e01b600052604160045260246000fd5b604051601f8201601f1916810167ffffffffffffffff8111828210171561424e5761424e61420f565b604052919050565b600067ffffffffffffffff8211156142705761427061420f565b50601f01601f191660200190565b6000806040838503121561429157600080fd5b823561429c81613fe6565b9150602083013567ffffffffffffffff8111156142b857600080fd5b8301601f810185136142c957600080fd5b80356142dc6142d782614256565b614225565b8181528660208385010111156142f157600080fd5b816020840160208301376000602083830101528093505050509250929050565b60008060006060848603121561432657600080fd5b83359250602084013561433881613fe6565b9150604084013561434881613fe6565b809150509250925092565b6000806040838503121561436657600080fd5b82359150602083013561437881613fe6565b809150509250929050565b60808152600061439660808301876140cb565b85602084015282810360408401526143ae81866140cb565b91505082606083015295945050505050565b600080604083850312156143d357600080fd5b82356143de81613fe6565b9150602083013561437881613fe6565b600081518084526020808501945080840160005b838110156140fb5781516001600160a01b031687529582019590820190600101614402565b602081526144416020820183516001600160a01b03169052565b6000602083015161016080604085015261445f6101808501836143ee565b91506040850151601f198086850301606087015261447d84836143ee565b935060608701516080870152608087015160a087015260a08701519150808685030160c08701526144ae84836140cb565b935060c08701519150808685030160e08701526144cb84836140cb565b935060e087015191506101008187860301818801526144ea85846140cb565b94508088015192505061012081878603018188015261450985846140cb565b94508088015192505061014081878603018188015261452885846140cb565b90880151878203909201848801529350905061413f83826140cb565b60006020828403121561455657600080fd5b815167ffffffffffffffff81111561456d57600080fd5b8201601f8101841361457e57600080fd5b805161458c6142d782614256565b8181528560208385010111156145a157600080fd5b613eeb826020830160208601614044565b6000602082840312156145c457600080fd5b5051919050565b6000602082840312156145dd57600080fd5b81518015158114610ecc57600080fd5b6020808252602c908201527f46756e6374696f6e206d7573742062652063616c6c6564207468726f7567682060408201526b19195b1959d85d1958d85b1b60a21b606082015260800190565b6020808252602c908201527f46756e6374696f6e206d7573742062652063616c6c6564207468726f7567682060408201526b6163746976652070726f787960a01b606082015260800190565b60208082526022908201527f4f6e6c79206f776e65722063616e2063616c6c20746869732066756e6374696f604082015261371760f11b606082015260800190565b634e487b7160e01b600052603260045260246000fd5b634e487b7160e01b600052601160045260246000fd5b80820180821115610b9657610b966146dd565b600060ff821660ff810361471c5761471c6146dd565b60010192915050565b600060018201614737576147376146dd565b5060010190565b6020808252602b908201527f496e697469616c697a61626c653a20636f6e7472616374206973206e6f74206960408201526a6e697469616c697a696e6760a81b606082015260800190565b8082028115828204841417610b9657610b966146dd565b6000826147bd57634e487b7160e01b600052601260045260246000fd5b500490565b600082516147d4818460208701614044565b9190910192915050565b602081526000610ecc602083018461406856fe360894a13ba1a3210667c828492db98dca3e2076cc3735a920a3ca505d382bbc416464726573733a206c6f772d6c6576656c2064656c65676174652063616c6c206661696c6564a2646970667358221220ff494686a1d08fb474f256195dde8d3574859b9dfeeb6ea542ee09a1b9012fc764736f6c63430008110033",
  "linkReferences": {},
  "deployedLinkReferences": {}
}