{"contracts/StakingV1Upgradable.sol":{"StakingV1Upgradable":{"abi":[{"anonymous":false,"inputs":[{"indexed":false,"internalType":"address","name":"previousAdmin","type":"address"},{"indexed":false,"internalType":"address","name":"newAdmin","type":"address"}],"name":"AdminChanged","type":"event"},{"anonymous":false,"inputs":[{"indexed":true,"internalType":"address","name":"beacon","type":"address"}],"name":"BeaconUpgraded","type":"event"},{"anonymous":false,"inputs":[{"indexed":false,"internalType":"uint8","name":"version","type":"uint8"}],"name":"Initialized","type":"event"},{"anonymous":false,"inputs":[{"indexed":true,"internalType":"address","name":"previousOwner","type":"address"},{"indexed":true,"internalType":"address","name":"newOwner","type":"address"}],"name":"OwnershipTransferred","type":"event"},{"anonymous":false,"inputs":[{"indexed":false,"internalType":"address","name":"account","type":"address"}],"name":"Paused","type":"event"},{"anonymous":false,"inputs":[{"indexed":true,"internalType":"address","name":"userAddress","type":"address"},{"indexed":true,"internalType":"uint256","name":"valueStaked","type":"uint256"},{"indexed":true,"internalType":"uint256","name":"duration","type":"uint256"},{"indexed":false,"internalType":"uint256","name":"stakingID","type":"uint256"}],"name":"Stake","type":"event"},{"anonymous":false,"inputs":[{"indexed":true,"internalType":"address","name":"userAddress","type":"address"},{"indexed":true,"internalType":"uint256","name":"reward","type":"uint256"},{"indexed":true,"internalType":"uint256","name":"stakingID","type":"uint256"}],"name":"StakingRewardClaimed","type":"event"},{"anonymous":false,"inputs":[{"indexed":false,"internalType":"address","name":"account","type":"address"}],"name":"Unpaused","type":"event"},{"anonymous":false,"inputs":[{"indexed":true,"internalType":"address","name":"userAddress","type":"address"},{"indexed":true,"internalType":"uint256","name":"valueStaked","type":"uint256"},{"indexed":true,"internalType":"uint256","name":"stakingID","type":"uint256"}],"name":"Unstake","type":"event"},{"anonymous":false,"inputs":[{"indexed":true,"internalType":"address","name":"implementation","type":"address"}],"name":"Upgraded","type":"event"},{"inputs":[{"internalType":"uint256","name":"_stakingID","type":"uint256"}],"name":"claimStakingReward","outputs":[{"internalType":"bool","name":"","type":"bool"}],"stateMutability":"nonpayable","type":"function"},{"inputs":[],"name":"getPresaleContract","outputs":[{"internalType":"address","name":"","type":"address"}],"stateMutability":"view","type":"function"},{"inputs":[],"name":"getReferralContract","outputs":[{"internalType":"address","name":"","type":"address"}],"stateMutability":"view","type":"function"},{"inputs":[],"name":"getStakingAnalystics","outputs":[{"internalType":"uint256[]","name":"stakingRewardRates","type":"uint256[]"},{"internalType":"uint256[]","name":"stakingRewardDurations","type":"uint256[]"},{"internalType":"uint256","name":"stakers","type":"uint256"},{"internalType":"uint256","name":"tokenStaked","type":"uint256"},{"internalType":"uint256","name":"rewardDistributed","type":"uint256"}],"stateMutability":"view","type":"function"},{"inputs":[],"name":"getStakingCapping","outputs":[{"internalType":"uint256","name":"minTokensToStake","type":"uint256"},{"internalType":"uint256","name":"minDurationToStake","type":"uint256"},{"internalType":"uint256","name":"maxDurationToStake","type":"uint256"}],"stateMutability":"view","type":"function"},{"inputs":[{"internalType":"address","name":"_userAddress","type":"address"},{"internalType":"uint256","name":"_stakingID","type":"uint256"}],"name":"getStakingReward","outputs":[{"internalType":"uint256","name":"","type":"uint256"}],"stateMutability":"view","type":"function"},{"inputs":[{"internalType":"address","name":"_userAddress","type":"address"}],"name":"getStakingRewardAll","outputs":[{"internalType":"uint256","name":"totalStakingReward","type":"uint256"}],"stateMutability":"view","type":"function"},{"inputs":[],"name":"getTokenContract","outputs":[{"internalType":"address","name":"tokenAddress","type":"address"},{"internalType":"string","name":"tokenName","type":"string"},{"internalType":"uint256","name":"tokenDecimals","type":"uint256"},{"internalType":"uint256","name":"tokenSupply","type":"uint256"}],"stateMutability":"view","type":"function"},{"inputs":[],"name":"getUnStakeFees","outputs":[{"internalType":"uint256","name":"","type":"uint256"}],"stateMutability":"view","type":"function"},{"inputs":[{"internalType":"address","name":"_userAddress","type":"address"},{"internalType":"uint256","name":"_stakingID","type":"uint256"}],"name":"getUserRewardClaimedByStakingID","outputs":[{"internalType":"uint256","name":"","type":"uint256"}],"stateMutability":"view","type":"function"},{"inputs":[{"internalType":"address","name":"_userAddress","type":"address"},{"internalType":"uint256","name":"_stakingID","type":"uint256"}],"name":"getUserStakingAPY","outputs":[{"internalType":"uint256","name":"userStakingAPY","type":"uint256"}],"stateMutability":"view","type":"function"},{"inputs":[{"internalType":"address","name":"_address","type":"address"},{"internalType":"uint256","name":"_stakingID","type":"uint256"}],"name":"getUserStakingByID","outputs":[{"internalType":"uint256","name":"valueStaked","type":"uint256"},{"internalType":"uint256","name":"startTime","type":"uint256"},{"internalType":"uint256","name":"endTime","type":"uint256"},{"internalType":"uint256","name":"stakingDuration","type":"uint256"},{"internalType":"uint256","name":"timeLeft","type":"uint256"}],"stateMutability":"view","type":"function"},{"inputs":[{"internalType":"address","name":"_userAddress","type":"address"}],"name":"getUserStakingIDs","outputs":[{"internalType":"uint256[]","name":"","type":"uint256[]"}],"stateMutability":"view","type":"function"},{"inputs":[{"internalType":"address","name":"_userAddress","type":"address"},{"internalType":"uint256","name":"_stakingID","type":"uint256"}],"name":"getUserStakingRewardRate","outputs":[{"internalType":"uint256","name":"","type":"uint256"}],"stateMutability":"view","type":"function"},{"inputs":[{"internalType":"address","name":"_userAddress","type":"address"}],"name":"getUserTotalRewardClaimed","outputs":[{"internalType":"uint256","name":"totalRewardClaimed","type":"uint256"},{"internalType":"uint256[]","name":"rewardClaimedArray","type":"uint256[]"},{"internalType":"uint256[]","name":"rewardClaimedTimestamp","type":"uint256[]"}],"stateMutability":"view","type":"function"},{"inputs":[{"internalType":"address","name":"_userAddress","type":"address"}],"name":"getUserTotalStakedValue","outputs":[{"internalType":"uint256","name":"userTotalValueStaked","type":"uint256"}],"stateMutability":"view","type":"function"},{"inputs":[{"internalType":"address","name":"_userAddress","type":"address"}],"name":"getUserTotalStakingsCount","outputs":[{"internalType":"uint256","name":"","type":"uint256"}],"stateMutability":"view","type":"function"},{"inputs":[],"name":"initialize","outputs":[],"stateMutability":"nonpayable","type":"function"},{"inputs":[{"internalType":"address","name":"_userAddress","type":"address"}],"name":"isStaked","outputs":[{"internalType":"bool","name":"","type":"bool"}],"stateMutability":"view","type":"function"},{"inputs":[],"name":"owner","outputs":[{"internalType":"address","name":"","type":"address"}],"stateMutability":"view","type":"function"},{"inputs":[],"name":"pause","outputs":[],"stateMutability":"nonpayable","type":"function"},{"inputs":[],"name":"paused","outputs":[{"internalType":"bool","name":"","type":"bool"}],"stateMutability":"view","type":"function"},{"inputs":[],"name":"proxiableUUID","outputs":[{"internalType":"bytes32","name":"","type":"bytes32"}],"stateMutability":"view","type":"function"},{"inputs":[],"name":"renounceOwnership","outputs":[],"stateMutability":"nonpayable","type":"function"},{"inputs":[{"internalType":"uint256","name":"_value","type":"uint256"}],"name":"setMinStakingValue","outputs":[{"internalType":"uint256","name":"","type":"uint256"}],"stateMutability":"nonpayable","type":"function"},{"inputs":[{"internalType":"uint256[]","name":"_rewardRates","type":"uint256[]"},{"internalType":"uint256[]","name":"_stakingDurations","type":"uint256[]"}],"name":"setStakingDurationAndRateAdmin","outputs":[{"internalType":"bool","name":"","type":"bool"}],"stateMutability":"nonpayable","type":"function"},{"inputs":[{"internalType":"uint256","name":"_value","type":"uint256"}],"name":"setUnStakeFeesAdmin","outputs":[],"stateMutability":"nonpayable","type":"function"},{"inputs":[{"internalType":"uint256","name":"_value","type":"uint256"},{"internalType":"uint256","name":"_duration","type":"uint256"}],"name":"stake","outputs":[{"internalType":"bool","name":"","type":"bool"}],"stateMutability":"nonpayable","type":"function"},{"inputs":[{"internalType":"address","name":"_userAddress","type":"address"},{"internalType":"uint256","name":"_value","type":"uint256"},{"internalType":"uint256","name":"_duration","type":"uint256"}],"name":"stakeByAdmin","outputs":[{"internalType":"bool","name":"","type":"bool"}],"stateMutability":"nonpayable","type":"function"},{"inputs":[{"internalType":"address","name":"newOwner","type":"address"}],"name":"transferOwnership","outputs":[],"stateMutability":"nonpayable","type":"function"},{"inputs":[{"internalType":"uint256","name":"_stakingID","type":"uint256"}],"name":"unStake","outputs":[{"internalType":"bool","name":"","type":"bool"}],"stateMutability":"nonpayable","type":"function"},{"inputs":[{"internalType":"address","name":"_userAddress","type":"address"},{"internalType":"uint256","name":"_stakingID","type":"uint256"}],"name":"unStakeByAdmin","outputs":[{"internalType":"bool","name":"","type":"bool"}],"stateMutability":"nonpayable","type":"function"},{"inputs":[],"name":"unpause","outputs":[],"stateMutability":"nonpayable","type":"function"},{"inputs":[{"internalType":"address","name":"_presaleAddress","type":"address"}],"name":"updatePresaleContract","outputs":[{"internalType":"address","name":"","type":"address"}],"stateMutability":"nonpayable","type":"function"},{"inputs":[{"internalType":"address","name":"_referralAddress","type":"address"}],"name":"updateReferralContract","outputs":[{"internalType":"address","name":"","type":"address"}],"stateMutability":"nonpayable","type":"function"},{"inputs":[{"internalType":"address","name":"_tokenAddress","type":"address"}],"name":"updateTokenContract","outputs":[{"internalType":"address","name":"","type":"address"}],"stateMutability":"nonpayable","type":"function"},{"inputs":[{"internalType":"address","name":"newImplementation","type":"address"}],"name":"upgradeTo","outputs":[],"stateMutability":"nonpayable","type":"function"},{"inputs":[{"internalType":"address","name":"newImplementation","type":"address"},{"internalType":"bytes","name":"data","type":"bytes"}],"name":"upgradeToAndCall","outputs":[],"stateMutability":"payable","type":"function"},{"inputs":[{"internalType":"address","name":"_receiver","type":"address"},{"internalType":"uint256","name":"_value","type":"uint256"}],"name":"withdrawNativeFunds","outputs":[{"internalType":"bool","name":"","type":"bool"}],"stateMutability":"nonpayable","type":"function"},{"inputs":[{"internalType":"address","name":"_tokenAddress","type":"address"},{"internalType":"address","name":"_receiver","type":"address"},{"internalType":"uint256","name":"_value","type":"uint256"}],"name":"withdrawTokens","outputs":[{"internalType":"bool","name":"","type":"bool"}],"stateMutability":"nonpayable","type":"function"},{"stateMutability":"payable","type":"receive"}],"evm":{"bytecode":{"linkReferences":{},"object":"60a06040523060805234801561001457600080fd5b50608051612dd061004c60003960008181610b4501528181610b8501528181610d1b01528181610d5b0152610dee0152612dd06000f3fe60806040526004361061023f5760003560e01c80636f51b20b1161012e578063989ced26116100ab578063d3460d8a1161006f578063d3460d8a14610727578063d596fe7f14610747578063eb0bea0e14610767578063f1012b45146107ae578063f2fde38b146107cc57600080fd5b8063989ced2614610650578063ac67511214610670578063ae3132e8146106b8578063cde263ed146106e7578063cdfa89cc1461070757600080fd5b80638d10c868116100f25780638d10c8681461058b5780638d5103bb146105ab5780638da5cb5b146105cb5780638e0e735f146105e95780638ed0b2131461063057600080fd5b80636f51b20b146104ff578063715018a61461052c5780637b0472f0146105415780638129fc1c146105615780638456cb591461057657600080fd5b80633f4ba83a116101bc5780635d3eea91116101805780635d3eea91146104425780635e35359e1461046257806361686dac146104825780636177fd18146104a8578063623b44d5146104c857600080fd5b80633f4ba83a146103cd578063469bbc12146103e25780634f1ef2861461040257806352d1902d146104155780635c975abb1461042a57600080fd5b806326792aca1161020357806326792aca1461032657806328b7bede14610346578063310c9b201461036b578063363a14a91461038b5780633659cfe6146103ab57600080fd5b806303b503141461024b5780630cd9b370146102805780631124f7dd146102a057806323442c60146102d8578063239cd4a4146102f657600080fd5b3661024657005b600080fd5b34801561025757600080fd5b506102606107ec565b604080519384526020840192909252908201526060015b60405180910390f35b34801561028c57600080fd5b50610105545b604051908152602001610277565b3480156102ac57600080fd5b506102c06102bb3660046126ca565b61080c565b6040516001600160a01b039091168152602001610277565b3480156102e457600080fd5b5060fe546001600160a01b03166102c0565b34801561030257600080fd5b506103166103113660046126e5565b61083b565b6040519015158152602001610277565b34801561033257600080fd5b506103166103413660046126fe565b610872565b34801561035257600080fd5b5061035b6108be565b6040516102779493929190612778565b34801561037757600080fd5b506103166103863660046127af565b610a33565b34801561039757600080fd5b506102926103a63660046126fe565b610afe565b3480156103b757600080fd5b506103cb6103c63660046126ca565b610b3b565b005b3480156103d957600080fd5b506103cb610c1a565b3480156103ee57600080fd5b506102926103fd3660046126ca565b610c2c565b6103cb610410366004612851565b610d11565b34801561042157600080fd5b50610292610de1565b34801561043657600080fd5b5060335460ff16610316565b34801561044e57600080fd5b5061031661045d3660046126e5565b610e94565b34801561046e57600080fd5b5061031661047d3660046128e2565b610f0a565b34801561048e57600080fd5b50610497610f92565b604051610277959493929190612959565b3480156104b457600080fd5b506103166104c33660046126ca565b61105a565b3480156104d457600080fd5b506102926104e33660046126ca565b6001600160a01b03166000908152610107602052604090205490565b34801561050b57600080fd5b5061051f61051a3660046126ca565b611145565b604051610277919061299c565b34801561053857600080fd5b506103cb6111b2565b34801561054d57600080fd5b5061031661055c3660046129af565b6111c4565b34801561056d57600080fd5b506103cb611255565b34801561058257600080fd5b506103cb611480565b34801561059757600080fd5b506103166105a63660046126fe565b611490565b3480156105b757600080fd5b506102926105c63660046126fe565b6114af565b3480156105d757600080fd5b506065546001600160a01b03166102c0565b3480156105f557600080fd5b506102926106043660046126fe565b6001600160a01b0391909116600090815261010660209081526040808320938352929052206001015490565b34801561063c57600080fd5b5061029261064b3660046126ca565b6114bb565b34801561065c57600080fd5b506102c061066b3660046126ca565b61158c565b34801561067c57600080fd5b5061069061068b3660046126fe565b6115b9565b604080519586526020860194909452928401919091526060830152608082015260a001610277565b3480156106c457600080fd5b506106d86106d33660046126ca565b611623565b604051610277939291906129d1565b3480156106f357600080fd5b50610316610702366004612a52565b611745565b34801561071357600080fd5b506103cb6107223660046126e5565b611776565b34801561073357600080fd5b506102c06107423660046126ca565b611784565b34801561075357600080fd5b506102926107623660046126e5565b6117b1565b34801561077357600080fd5b506102926107823660046126fe565b6001600160a01b0391909116600090815261010660209081526040808320938352929052206004015490565b3480156107ba57600080fd5b5060fd546001600160a01b03166102c0565b3480156107d857600080fd5b506103cb6107e73660046126ca565b6117c5565b610104546000806107fb61183b565b9150610805611862565b9050909192565b6000610816611896565b5060fd80546001600160a01b0319166001600160a01b0383169081179091555b919050565b60008061084833846118f0565b60fc5460fb54919250610869916001600160a01b0391821691163384611aa4565b50600192915050565b600061087c611896565b6040516001600160a01b0384169083156108fc029084906000818181858888f193505050501580156108b2573d6000803e3d6000fd5b50600190505b92915050565b60fc54604080516306fdde0360e01b815290516001600160a01b0390921691606091600091829185916306fdde039160048082019286929091908290030181865afa158015610911573d6000803e3d6000fd5b505050506040513d6000823e601f3d908101601f191682016040526109399190810190612abe565b925060fc60009054906101000a90046001600160a01b03166001600160a01b031663313ce5676040518163ffffffff1660e01b8152600401602060405180830381865afa15801561098e573d6000803e3d6000fd5b505050506040513d601f19601f820116820180604052508101906109b29190612b2c565b915060fc60009054906101000a90046001600160a01b03166001600160a01b03166318160ddd6040518163ffffffff1660e01b8152600401602060405180830381865afa158015610a07573d6000803e3d6000fd5b505050506040513d601f19601f82011682018060405250810190610a2b9190612b2c565b905090919293565b600033610a486065546001600160a01b031690565b6001600160a01b0316816001600160a01b03161480610a74575060fd546001600160a01b038281169116145b80610a8c575060fe546001600160a01b038281169116145b610ae85760405162461bcd60e51b815260206004820152602260248201527f4f6e6c79206f776e65722063616e2063616c6c20746869732066756e6374696f604482015261371760f11b60648201526084015b60405180910390fd5b610af3858585611b26565b9150505b9392505050565b6001600160a01b03821660009081526101066020908152604080832084845290915281206001810154610b3281600c612b5b565b95945050505050565b6001600160a01b037f0000000000000000000000000000000000000000000000000000000000000000163003610b835760405162461bcd60e51b8152600401610adf90612b72565b7f00000000000000000000000000000000000000000000000000000000000000006001600160a01b0316610bcc600080516020612d54833981519152546001600160a01b031690565b6001600160a01b031614610bf25760405162461bcd60e51b8152600401610adf90612bbe565b610bfb81611d3c565b60408051600080825260208201909252610c1791839190611d44565b50565b610c22611896565b610c2a611eb4565b565b6001600160a01b03811660009081526101076020908152604080832080548251818502810185019093528083528493830182828015610c8a57602002820191906000526020600020905b815481526020019060010190808311610c76575b505083519394506000925050505b81811015610d09576001600160a01b0385166000908152610106602052604081208451909190859084908110610cd057610cd0612c0a565b602002602001015181526020019081526020016000206000015484610cf59190612c20565b935080610d0181612c33565b915050610c98565b505050919050565b6001600160a01b037f0000000000000000000000000000000000000000000000000000000000000000163003610d595760405162461bcd60e51b8152600401610adf90612b72565b7f00000000000000000000000000000000000000000000000000000000000000006001600160a01b0316610da2600080516020612d54833981519152546001600160a01b031690565b6001600160a01b031614610dc85760405162461bcd60e51b8152600401610adf90612bbe565b610dd182611d3c565b610ddd82826001611d44565b5050565b6000306001600160a01b037f00000000000000000000000000000000000000000000000000000000000000001614610e815760405162461bcd60e51b815260206004820152603860248201527f555550535570677261646561626c653a206d757374206e6f742062652063616c60448201527f6c6564207468726f7567682064656c656761746563616c6c00000000000000006064820152608401610adf565b50600080516020612d5483398151915290565b600080610ea133846118f0565b90506000610eaf3385611f06565b905060646101055482610ec29190612b5b565b610ecc9190612c4c565b610ed69082612c6e565b60fc5460fb54919250610f00916001600160a01b03918216911633610efb8587612c20565b611aa4565b5060019392505050565b6000610f14611896565b60405163a9059cbb60e01b81526001600160a01b0384811660048301526024820184905285169063a9059cbb906044016020604051808303816000875af1158015610f63573d6000803e3d6000fd5b505050506040513d601f19601f82011682018060405250810190610f879190612c81565b506001949350505050565b6060806000806000610103805480602002602001604051908101604052809291908181526020018280548015610fe757602002820191906000526020600020905b815481526020019060010190808311610fd3575b5050505050945061010280548060200260200160405190810160405280929190818152602001828054801561103b57602002820191906000526020600020905b815481526020019060010190808311611027575b5050505050935060ff5492506101005491506101015490509091929394565b6001600160a01b038116600090815261010760209081526040808320805482518185028101850190935280835284938301828280156110b857602002820191906000526020600020905b8154815260200190600101908083116110a4575b505083519394506000925050505b8181101561113a576001600160a01b038516600090815261010660205260408120845182908690859081106110fd576110fd612c0a565b6020026020010151815260200190815260200160002060000154111561112857506001949350505050565b8061113281612c33565b9150506110c6565b506000949350505050565b6001600160a01b038116600090815261010760209081526040918290208054835181840281018401909452808452606093928301828280156111a657602002820191906000526020600020905b815481526020019060010190808311611192575b50505050509050919050565b6111ba611896565b610c2a600061202f565b60006111ce612081565b60fc546040516323b872dd60e01b8152336004820152306024820152604481018590526001600160a01b03909116906323b872dd906064016020604051808303816000875af1158015611225573d6000803e3d6000fd5b505050506040513d601f19601f820116820180604052508101906112499190612c81565b50610af7338484611b26565b600054610100900460ff16158080156112755750600054600160ff909116105b8061128f5750303b15801561128f575060005460ff166001145b6112f25760405162461bcd60e51b815260206004820152602e60248201527f496e697469616c697a61626c653a20636f6e747261637420697320616c72656160448201526d191e481a5b9a5d1a585b1a5e995960921b6064820152608401610adf565b6000805460ff191660011790558015611315576000805461ff0019166101001790555b60fb80546001600160a01b031990811673397b8db43aaaa23a757c52c05eb14a66a0f368d81790915560fc805482167335d21e38200e125c9352c777b256854a6532905317905560fd8054821673262a0d88b7acc1677d234f38cb8443b99fb8075f17905560fe8054909116732d227feed1bfbb46fbf8aef5c3d32e5da4487a6c179055604080516080810182526276a700815262ed4e0060208201526301e13380918101919091526302ce818060608201526113d7906101029060046125d0565b5060408051608081018252600c8152600f60208201526012918101919091526015606082015261140c90610103906004612623565b50670de0b6b3a764000061010455600a610105556114286120c7565b6114306120f6565b611438612125565b8015610c17576000805461ff0019169055604051600181527f7f26b83ff96e1f2b6a682f133852f6798a09c465da95921460cefb38474024989060200160405180910390a150565b611488611896565b610c2a61214c565b600061149a611896565b6114a483836118f0565b506108b28383611f06565b6000610af78383612189565b6001600160a01b0381166000908152610107602090815260408083208054825181850281018501909352808352849383018282801561151957602002820191906000526020600020905b815481526020019060010190808311611505575b5050506001600160a01b038616600090815261010760205260408120549394509150505b818160ff161015610d095761156e85848360ff168151811061156157611561612c0a565b6020026020010151612189565b6115789085612c20565b93508061158481612ca3565b91505061153d565b6000611596611896565b5060fc80546001600160a01b0319166001600160a01b0392909216918217905590565b6001600160a01b03821660009081526101066020908152604080832084845290915281208054600282015460038301549193909281906115f98585612c6e565b925083421061160b5760009150611618565b6116154285612c6e565b91505b509295509295909350565b6001600160a01b0381166000908152610108602090815260408083208054825181850281018501909352808352606093849392919083018282801561168757602002820191906000526020600020905b815481526020019060010190808311611673575b505083519395506000925050505b818110156116d6578381815181106116af576116af612c0a565b6020026020010151856116c29190612c20565b9450806116ce81612c33565b915050611695565b506001600160a01b038516600090815261010960209081526040918290208054835181840281018401909452808452909183018282801561173657602002820191906000526020600020905b815481526020019060010190808311611722575b50505050509150509193909250565b600061174f611896565b61175c6101038686612663565b5061176a6101028484612663565b50600195945050505050565b61177e611896565b61010555565b600061178e611896565b5060fe80546001600160a01b0319166001600160a01b0392909216918217905590565b60006117bb611896565b5061010481905590565b6117cd611896565b6001600160a01b0381166118325760405162461bcd60e51b815260206004820152602660248201527f4f776e61626c653a206e6577206f776e657220697320746865207a65726f206160448201526564647265737360d01b6064820152608401610adf565b610c178161202f565b600061010260008154811061185257611852612c0a565b9060005260206000200154905090565b6101028054600091611875600183612c6e565b8154811061188557611885612c0a565b906000526020600020015491505090565b6065546001600160a01b03163314610c2a5760405162461bcd60e51b815260206004820181905260248201527f4f776e61626c653a2063616c6c6572206973206e6f7420746865206f776e65726044820152606401610adf565b6001600160a01b038216600090815261010660209081526040808320848452909152812080546119625760405162461bcd60e51b815260206004820152601860248201527f596f752068617665206e6f207374616b696e67207965742e00000000000000006044820152606401610adf565b600061196e8585612189565b9050808260040160008282546119849190612c20565b90915550506001600160a01b038516600081815261010860209081526040808320805460018101825590845282842001859055928252610109905220428154600181018355600092835260208320015561010180548392906119e7908490612c20565b9091555050604051849082906001600160a01b038816907fd6ab86e55e7211dddcda4c7c65e9e1c75f06b5da6b05222f8cd39b93986fecad90600090a460fe546040516305d1657960e41b8152600481018390526001600160a01b03878116602483015290911690635d165790906044016020604051808303816000875af1158015611a77573d6000803e3d6000fd5b505050506040513d601f19601f82011682018060405250810190611a9b9190612c81565b50949350505050565b6040516323b872dd60e01b81526001600160a01b0384811660048301528381166024830152604482018390528516906323b872dd906064016020604051808303816000875af1158015611afb573d6000803e3d6000fd5b505050506040513d601f19601f82011682018060405250810190611b1f9190612c81565b5050505050565b6000611b30611862565b8211158015611b465750611b4261183b565b8210155b611bca5760405162461bcd60e51b815260206004820152604960248201527f5374616b696e67206475726174696f6e206d757374206265203e3d206d696e5360448201527f74616b696e674475726174696f6e20616e64203c3d206d61785374616b696e67606482015268223ab930ba34b7b71760b91b608482015260a401610adf565b61010454831015611c315760405162461bcd60e51b815260206004820152602b60248201527f5374616b696e672076616c75652073686f756c64206265203e3d206d696e537460448201526a30b5b4b733ab30b63ab29760a91b6064820152608401610adf565b600060ff546001611c429190612c20565b6001600160a01b0386166000908152610106602090815260408083208484529091529020858155909150611c7584612236565b60018201554260028201558342611c8c9190612c20565b60038201556001600160a01b038616600090815261010760209081526040822080546001810182559083529082200183905560ff805491611ccc83612c33565b9190505550846101006000828254611ce49190612c20565b925050819055508385876001600160a01b03167ff556991011e831bcfac4f406d547e5e32cdd98267efab83935230d5f8d02c44685604051611d2891815260200190565b60405180910390a450600195945050505050565b610c17611896565b7f4910fdfa16fed3260ed0e7147f7cc6da11a60208b5b9406d12a635614ffd91435460ff1615611d7c57611d77836122e8565b505050565b826001600160a01b03166352d1902d6040518163ffffffff1660e01b8152600401602060405180830381865afa925050508015611dd6575060408051601f3d908101601f19168201909252611dd391810190612b2c565b60015b611e395760405162461bcd60e51b815260206004820152602e60248201527f45524331393637557067726164653a206e657720696d706c656d656e7461746960448201526d6f6e206973206e6f74205555505360901b6064820152608401610adf565b600080516020612d548339815191528114611ea85760405162461bcd60e51b815260206004820152602960248201527f45524331393637557067726164653a20756e737570706f727465642070726f786044820152681a58589b195555525160ba1b6064820152608401610adf565b50611d77838383612384565b611ebc6123af565b6033805460ff191690557f5db9ee0a495bf2e6ff9c91a7834c1ba4fdd244a5e8aa4e537bd38aeae4b073aa335b6040516001600160a01b03909116815260200160405180910390a1565b6001600160a01b038216600090815261010660209081526040808320848452909152812080548015801590611f3f575060038201544210155b611fa85760405162461bcd60e51b815260206004820152603460248201527f596f7572207374616b696e67206973206e6f74206f766572206f7220796f75206044820152733430bb329037379039ba30b5b4b733903cb2ba1760611b6064820152608401610adf565b60008083556001830181905560028301819055600383018190556101008054839290611fd5908490612c6e565b909155505060ff8054906000611fea83612cc2565b91905055508381866001600160a01b03167ff960dbf9e5d0682f7a298ed974e33a28b4464914b7a2bfac12ae419a9afeb28060405160405180910390a4949350505050565b606580546001600160a01b038381166001600160a01b0319831681179093556040519116919082907f8be0079c531659141344cd1fd0a4f28419497f9722a3daafe3b4186f6b6457e090600090a35050565b60335460ff1615610c2a5760405162461bcd60e51b815260206004820152601060248201526f14185d5cd8589b194e881c185d5cd95960821b6044820152606401610adf565b600054610100900460ff166120ee5760405162461bcd60e51b8152600401610adf90612cd9565b610c2a6123f8565b600054610100900460ff1661211d5760405162461bcd60e51b8152600401610adf90612cd9565b610c2a61242b565b600054610100900460ff16610c2a5760405162461bcd60e51b8152600401610adf90612cd9565b612154612081565b6033805460ff191660011790557f62e78cea01bee320cd4e420270b5ea74000d11b0c9f74754ebdbfc544b05a258611ee93390565b6001600160a01b03821660009081526101066020908152604080832084845290915281208054600282015460038301546001840154859062278d00906064906121d29087612b5b565b6121dc9190612c4c565b6121e69190612c4c565b905060006121f48442612c6e565b90508560040154612215612208858461245b565b612210611862565b61245b565b61221f9084612b5b565b6122299190612c6e565b9998505050505050505050565b610102546000908290825b818160ff161015610d09576101028160ff168154811061226357612263612c0a565b9060005260206000200154831161229d576101038160ff168154811061228b5761228b612c0a565b90600052602060002001549350610d09565b6122a8600183612c6e565b8160ff16036122d6576101038160ff16815481106122c8576122c8612c0a565b906000526020600020015493505b806122e081612ca3565b915050612241565b6001600160a01b0381163b6123555760405162461bcd60e51b815260206004820152602d60248201527f455243313936373a206e657720696d706c656d656e746174696f6e206973206e60448201526c1bdd08184818dbdb9d1c9858dd609a1b6064820152608401610adf565b600080516020612d5483398151915280546001600160a01b0319166001600160a01b0392909216919091179055565b61238d83612471565b60008251118061239a5750805b15611d77576123a983836124b1565b50505050565b60335460ff16610c2a5760405162461bcd60e51b815260206004820152601460248201527314185d5cd8589b194e881b9bdd081c185d5cd95960621b6044820152606401610adf565b600054610100900460ff1661241f5760405162461bcd60e51b8152600401610adf90612cd9565b6033805460ff19169055565b600054610100900460ff166124525760405162461bcd60e51b8152600401610adf90612cd9565b610c2a3361202f565b600081831061246a5781610af7565b5090919050565b61247a816122e8565b6040516001600160a01b038216907fbc7cd75a20ee27fd9adebab32041f755214dbc6bffa90cc0225b39da2e5c2d3b90600090a250565b60606001600160a01b0383163b6125195760405162461bcd60e51b815260206004820152602660248201527f416464726573733a2064656c65676174652063616c6c20746f206e6f6e2d636f6044820152651b9d1c9858dd60d21b6064820152608401610adf565b600080846001600160a01b0316846040516125349190612d24565b600060405180830381855af49150503d806000811461256f576040519150601f19603f3d011682016040523d82523d6000602084013e612574565b606091505b5091509150610b328282604051806060016040528060278152602001612d7460279139606083156125a6575081610af7565b8251156125b65782518084602001fd5b8160405162461bcd60e51b8152600401610adf9190612d40565b828054828255906000526020600020908101928215612613579160200282015b82811115612613578251829063ffffffff169055916020019190600101906125f0565b5061261f92915061269e565b5090565b828054828255906000526020600020908101928215612613579160200282015b82811115612613578251829060ff16905591602001919060010190612643565b828054828255906000526020600020908101928215612613579160200282015b82811115612613578235825591602001919060010190612683565b5b8082111561261f576000815560010161269f565b80356001600160a01b038116811461083657600080fd5b6000602082840312156126dc57600080fd5b610af7826126b3565b6000602082840312156126f757600080fd5b5035919050565b6000806040838503121561271157600080fd5b61271a836126b3565b946020939093013593505050565b60005b8381101561274357818101518382015260200161272b565b50506000910152565b60008151808452612764816020860160208601612728565b601f01601f19169290920160200192915050565b6001600160a01b038516815260806020820181905260009061279c9083018661274c565b6040830194909452506060015292915050565b6000806000606084860312156127c457600080fd5b6127cd846126b3565b95602085013595506040909401359392505050565b634e487b7160e01b600052604160045260246000fd5b604051601f8201601f1916810167ffffffffffffffff81118282101715612821576128216127e2565b604052919050565b600067ffffffffffffffff821115612843576128436127e2565b50601f01601f191660200190565b6000806040838503121561286457600080fd5b61286d836126b3565b9150602083013567ffffffffffffffff81111561288957600080fd5b8301601f8101851361289a57600080fd5b80356128ad6128a882612829565b6127f8565b8181528660208385010111156128c257600080fd5b816020840160208301376000602083830101528093505050509250929050565b6000806000606084860312156128f757600080fd5b612900846126b3565b925061290e602085016126b3565b9150604084013590509250925092565b600081518084526020808501945080840160005b8381101561294e57815187529582019590820190600101612932565b509495945050505050565b60a08152600061296c60a083018861291e565b828103602084015261297e818861291e565b60408401969096525050606081019290925260809091015292915050565b602081526000610af7602083018461291e565b600080604083850312156129c257600080fd5b50508035926020909101359150565b8381526060602082015260006129ea606083018561291e565b82810360408401526129fc818561291e565b9695505050505050565b60008083601f840112612a1857600080fd5b50813567ffffffffffffffff811115612a3057600080fd5b6020830191508360208260051b8501011115612a4b57600080fd5b9250929050565b60008060008060408587031215612a6857600080fd5b843567ffffffffffffffff80821115612a8057600080fd5b612a8c88838901612a06565b90965094506020870135915080821115612aa557600080fd5b50612ab287828801612a06565b95989497509550505050565b600060208284031215612ad057600080fd5b815167ffffffffffffffff811115612ae757600080fd5b8201601f81018413612af857600080fd5b8051612b066128a882612829565b818152856020838501011115612b1b57600080fd5b610b32826020830160208601612728565b600060208284031215612b3e57600080fd5b5051919050565b634e487b7160e01b600052601160045260246000fd5b80820281158282048414176108b8576108b8612b45565b6020808252602c908201527f46756e6374696f6e206d7573742062652063616c6c6564207468726f7567682060408201526b19195b1959d85d1958d85b1b60a21b606082015260800190565b6020808252602c908201527f46756e6374696f6e206d7573742062652063616c6c6564207468726f7567682060408201526b6163746976652070726f787960a01b606082015260800190565b634e487b7160e01b600052603260045260246000fd5b808201808211156108b8576108b8612b45565b600060018201612c4557612c45612b45565b5060010190565b600082612c6957634e487b7160e01b600052601260045260246000fd5b500490565b818103818111156108b8576108b8612b45565b600060208284031215612c9357600080fd5b81518015158114610af757600080fd5b600060ff821660ff8103612cb957612cb9612b45565b60010192915050565b600081612cd157612cd1612b45565b506000190190565b6020808252602b908201527f496e697469616c697a61626c653a20636f6e7472616374206973206e6f74206960408201526a6e697469616c697a696e6760a81b606082015260800190565b60008251612d36818460208701612728565b9190910192915050565b602081526000610af7602083018461274c56fe360894a13ba1a3210667c828492db98dca3e2076cc3735a920a3ca505d382bbc416464726573733a206c6f772d6c6576656c2064656c65676174652063616c6c206661696c6564a2646970667358221220d658f6938f71d44a4a989245d13b5708a792aa892484536dc043cc673c556dff64736f6c63430008110033","opcodes":"PUSH1 0xA0 PUSH1 0x40 MSTORE ADDRESS PUSH1 0x80 MSTORE CALLVALUE DUP1 ISZERO PUSH2 0x14 JUMPI PUSH1 0x0 DUP1 REVERT JUMPDEST POP PUSH1 0x80 MLOAD PUSH2 0x2DD0 PUSH2 0x4C PUSH1 0x0 CODECOPY PUSH1 0x0 DUP2 DUP2 PUSH2 0xB45 ADD MSTORE DUP2 DUP2 PUSH2 0xB85 ADD MSTORE DUP2 DUP2 PUSH2 0xD1B ADD MSTORE DUP2 DUP2 PUSH2 0xD5B ADD MSTORE PUSH2 0xDEE ADD MSTORE PUSH2 0x2DD0 PUSH1 0x0 RETURN INVALID PUSH1 0x80 PUSH1 0x40 MSTORE PUSH1 0x4 CALLDATASIZE LT PUSH2 0x23F JUMPI PUSH1 0x0 CALLDATALOAD PUSH1 0xE0 SHR DUP1 PUSH4 0x6F51B20B GT PUSH2 0x12E JUMPI DUP1 PUSH4 0x989CED26 GT PUSH2 0xAB JUMPI DUP1 PUSH4 0xD3460D8A GT PUSH2 0x6F JUMPI DUP1 PUSH4 0xD3460D8A EQ PUSH2 0x727 JUMPI DUP1 PUSH4 0xD596FE7F EQ PUSH2 0x747 JUMPI DUP1 PUSH4 0xEB0BEA0E EQ PUSH2 0x767 JUMPI DUP1 PUSH4 0xF1012B45 EQ PUSH2 0x7AE JUMPI DUP1 PUSH4 0xF2FDE38B EQ PUSH2 0x7CC JUMPI PUSH1 0x0 DUP1 REVERT JUMPDEST DUP1 PUSH4 0x989CED26 EQ PUSH2 0x650 JUMPI DUP1 PUSH4 0xAC675112 EQ PUSH2 0x670 JUMPI DUP1 PUSH4 0xAE3132E8 EQ PUSH2 0x6B8 JUMPI DUP1 PUSH4 0xCDE263ED EQ PUSH2 0x6E7 JUMPI DUP1 PUSH4 0xCDFA89CC EQ PUSH2 0x707 JUMPI PUSH1 0x0 DUP1 REVERT JUMPDEST DUP1 PUSH4 0x8D10C868 GT PUSH2 0xF2 JUMPI DUP1 PUSH4 0x8D10C868 EQ PUSH2 0x58B JUMPI DUP1 PUSH4 0x8D5103BB EQ PUSH2 0x5AB JUMPI DUP1 PUSH4 0x8DA5CB5B EQ PUSH2 0x5CB JUMPI DUP1 PUSH4 0x8E0E735F EQ PUSH2 0x5E9 JUMPI DUP1 PUSH4 0x8ED0B213 EQ PUSH2 0x630 JUMPI PUSH1 0x0 DUP1 REVERT JUMPDEST DUP1 PUSH4 0x6F51B20B EQ PUSH2 0x4FF JUMPI DUP1 PUSH4 0x715018A6 EQ PUSH2 0x52C JUMPI DUP1 PUSH4 0x7B0472F0 EQ PUSH2 0x541 JUMPI DUP1 PUSH4 0x8129FC1C EQ PUSH2 0x561 JUMPI DUP1 PUSH4 0x8456CB59 EQ PUSH2 0x576 JUMPI PUSH1 0x0 DUP1 REVERT JUMPDEST DUP1 PUSH4 0x3F4BA83A GT PUSH2 0x1BC JUMPI DUP1 PUSH4 0x5D3EEA91 GT PUSH2 0x180 JUMPI DUP1 PUSH4 0x5D3EEA91 EQ PUSH2 0x442 JUMPI DUP1 PUSH4 0x5E35359E EQ PUSH2 0x462 JUMPI DUP1 PUSH4 0x61686DAC EQ PUSH2 0x482 JUMPI DUP1 PUSH4 0x6177FD18 EQ PUSH2 0x4A8 JUMPI DUP1 PUSH4 0x623B44D5 EQ PUSH2 0x4C8 JUMPI PUSH1 0x0 DUP1 REVERT JUMPDEST DUP1 PUSH4 0x3F4BA83A EQ PUSH2 0x3CD JUMPI DUP1 PUSH4 0x469BBC12 EQ PUSH2 0x3E2 JUMPI DUP1 PUSH4 0x4F1EF286 EQ PUSH2 0x402 JUMPI DUP1 PUSH4 0x52D1902D EQ PUSH2 0x415 JUMPI DUP1 PUSH4 0x5C975ABB EQ PUSH2 0x42A JUMPI PUSH1 0x0 DUP1 REVERT JUMPDEST DUP1 PUSH4 0x26792ACA GT PUSH2 0x203 JUMPI DUP1 PUSH4 0x26792ACA EQ PUSH2 0x326 JUMPI DUP1 PUSH4 0x28B7BEDE EQ PUSH2 0x346 JUMPI DUP1 PUSH4 0x310C9B20 EQ PUSH2 0x36B JUMPI DUP1 PUSH4 0x363A14A9 EQ PUSH2 0x38B JUMPI DUP1 PUSH4 0x3659CFE6 EQ PUSH2 0x3AB JUMPI PUSH1 0x0 DUP1 REVERT JUMPDEST DUP1 PUSH4 0x3B50314 EQ PUSH2 0x24B JUMPI DUP1 PUSH4 0xCD9B370 EQ PUSH2 0x280 JUMPI DUP1 PUSH4 0x1124F7DD EQ PUSH2 0x2A0 JUMPI DUP1 PUSH4 0x23442C60 EQ PUSH2 0x2D8 JUMPI DUP1 PUSH4 0x239CD4A4 EQ PUSH2 0x2F6 JUMPI PUSH1 0x0 DUP1 REVERT JUMPDEST CALLDATASIZE PUSH2 0x246 JUMPI STOP JUMPDEST PUSH1 0x0 DUP1 REVERT JUMPDEST CALLVALUE DUP1 ISZERO PUSH2 0x257 JUMPI PUSH1 0x0 DUP1 REVERT JUMPDEST POP PUSH2 0x260 PUSH2 0x7EC JUMP JUMPDEST PUSH1 0x40 DUP1 MLOAD SWAP4 DUP5 MSTORE PUSH1 0x20 DUP5 ADD SWAP3 SWAP1 SWAP3 MSTORE SWAP1 DUP3 ADD MSTORE PUSH1 0x60 ADD JUMPDEST PUSH1 0x40 MLOAD DUP1 SWAP2 SUB SWAP1 RETURN JUMPDEST CALLVALUE DUP1 ISZERO PUSH2 0x28C JUMPI PUSH1 0x0 DUP1 REVERT JUMPDEST POP PUSH2 0x105 SLOAD JUMPDEST PUSH1 0x40 MLOAD SWAP1 DUP2 MSTORE PUSH1 0x20 ADD PUSH2 0x277 JUMP JUMPDEST CALLVALUE DUP1 ISZERO PUSH2 0x2AC JUMPI PUSH1 0x0 DUP1 REVERT JUMPDEST POP PUSH2 0x2C0 PUSH2 0x2BB CALLDATASIZE PUSH1 0x4 PUSH2 0x26CA JUMP JUMPDEST PUSH2 0x80C JUMP JUMPDEST PUSH1 0x40 MLOAD PUSH1 0x1 PUSH1 0x1 PUSH1 0xA0 SHL SUB SWAP1 SWAP2 AND DUP2 MSTORE PUSH1 0x20 ADD PUSH2 0x277 JUMP JUMPDEST CALLVALUE DUP1 ISZERO PUSH2 0x2E4 JUMPI PUSH1 0x0 DUP1 REVERT JUMPDEST POP PUSH1 0xFE SLOAD PUSH1 0x1 PUSH1 0x1 PUSH1 0xA0 SHL SUB AND PUSH2 0x2C0 JUMP JUMPDEST CALLVALUE DUP1 ISZERO PUSH2 0x302 JUMPI PUSH1 0x0 DUP1 REVERT JUMPDEST POP PUSH2 0x316 PUSH2 0x311 CALLDATASIZE PUSH1 0x4 PUSH2 0x26E5 JUMP JUMPDEST PUSH2 0x83B JUMP JUMPDEST PUSH1 0x40 MLOAD SWAP1 ISZERO ISZERO DUP2 MSTORE PUSH1 0x20 ADD PUSH2 0x277 JUMP JUMPDEST CALLVALUE DUP1 ISZERO PUSH2 0x332 JUMPI PUSH1 0x0 DUP1 REVERT JUMPDEST POP PUSH2 0x316 PUSH2 0x341 CALLDATASIZE PUSH1 0x4 PUSH2 0x26FE JUMP JUMPDEST PUSH2 0x872 JUMP JUMPDEST CALLVALUE DUP1 ISZERO PUSH2 0x352 JUMPI PUSH1 0x0 DUP1 REVERT JUMPDEST POP PUSH2 0x35B PUSH2 0x8BE JUMP JUMPDEST PUSH1 0x40 MLOAD PUSH2 0x277 SWAP5 SWAP4 SWAP3 SWAP2 SWAP1 PUSH2 0x2778 JUMP JUMPDEST CALLVALUE DUP1 ISZERO PUSH2 0x377 JUMPI PUSH1 0x0 DUP1 REVERT JUMPDEST POP PUSH2 0x316 PUSH2 0x386 CALLDATASIZE PUSH1 0x4 PUSH2 0x27AF JUMP JUMPDEST PUSH2 0xA33 JUMP JUMPDEST CALLVALUE DUP1 ISZERO PUSH2 0x397 JUMPI PUSH1 0x0 DUP1 REVERT JUMPDEST POP PUSH2 0x292 PUSH2 0x3A6 CALLDATASIZE PUSH1 0x4 PUSH2 0x26FE JUMP JUMPDEST PUSH2 0xAFE JUMP JUMPDEST CALLVALUE DUP1 ISZERO PUSH2 0x3B7 JUMPI PUSH1 0x0 DUP1 REVERT JUMPDEST POP PUSH2 0x3CB PUSH2 0x3C6 CALLDATASIZE PUSH1 0x4 PUSH2 0x26CA JUMP JUMPDEST PUSH2 0xB3B JUMP JUMPDEST STOP JUMPDEST CALLVALUE DUP1 ISZERO PUSH2 0x3D9 JUMPI PUSH1 0x0 DUP1 REVERT JUMPDEST POP PUSH2 0x3CB PUSH2 0xC1A JUMP JUMPDEST CALLVALUE DUP1 ISZERO PUSH2 0x3EE JUMPI PUSH1 0x0 DUP1 REVERT JUMPDEST POP PUSH2 0x292 PUSH2 0x3FD CALLDATASIZE PUSH1 0x4 PUSH2 0x26CA JUMP JUMPDEST PUSH2 0xC2C JUMP JUMPDEST PUSH2 0x3CB PUSH2 0x410 CALLDATASIZE PUSH1 0x4 PUSH2 0x2851 JUMP JUMPDEST PUSH2 0xD11 JUMP JUMPDEST CALLVALUE DUP1 ISZERO PUSH2 0x421 JUMPI PUSH1 0x0 DUP1 REVERT JUMPDEST POP PUSH2 0x292 PUSH2 0xDE1 JUMP JUMPDEST CALLVALUE DUP1 ISZERO PUSH2 0x436 JUMPI PUSH1 0x0 DUP1 REVERT JUMPDEST POP PUSH1 0x33 SLOAD PUSH1 0xFF AND PUSH2 0x316 JUMP JUMPDEST CALLVALUE DUP1 ISZERO PUSH2 0x44E JUMPI PUSH1 0x0 DUP1 REVERT JUMPDEST POP PUSH2 0x316 PUSH2 0x45D CALLDATASIZE PUSH1 0x4 PUSH2 0x26E5 JUMP JUMPDEST PUSH2 0xE94 JUMP JUMPDEST CALLVALUE DUP1 ISZERO PUSH2 0x46E JUMPI PUSH1 0x0 DUP1 REVERT JUMPDEST POP PUSH2 0x316 PUSH2 0x47D CALLDATASIZE PUSH1 0x4 PUSH2 0x28E2 JUMP JUMPDEST PUSH2 0xF0A JUMP JUMPDEST CALLVALUE DUP1 ISZERO PUSH2 0x48E JUMPI PUSH1 0x0 DUP1 REVERT JUMPDEST POP PUSH2 0x497 PUSH2 0xF92 JUMP JUMPDEST PUSH1 0x40 MLOAD PUSH2 0x277 SWAP6 SWAP5 SWAP4 SWAP3 SWAP2 SWAP1 PUSH2 0x2959 JUMP JUMPDEST CALLVALUE DUP1 ISZERO PUSH2 0x4B4 JUMPI PUSH1 0x0 DUP1 REVERT JUMPDEST POP PUSH2 0x316 PUSH2 0x4C3 CALLDATASIZE PUSH1 0x4 PUSH2 0x26CA JUMP JUMPDEST PUSH2 0x105A JUMP JUMPDEST CALLVALUE DUP1 ISZERO PUSH2 0x4D4 JUMPI PUSH1 0x0 DUP1 REVERT JUMPDEST POP PUSH2 0x292 PUSH2 0x4E3 CALLDATASIZE PUSH1 0x4 PUSH2 0x26CA JUMP JUMPDEST PUSH1 0x1 PUSH1 0x1 PUSH1 0xA0 SHL SUB AND PUSH1 0x0 SWAP1 DUP2 MSTORE PUSH2 0x107 PUSH1 0x20 MSTORE PUSH1 0x40 SWAP1 KECCAK256 SLOAD SWAP1 JUMP JUMPDEST CALLVALUE DUP1 ISZERO PUSH2 0x50B JUMPI PUSH1 0x0 DUP1 REVERT JUMPDEST POP PUSH2 0x51F PUSH2 0x51A CALLDATASIZE PUSH1 0x4 PUSH2 0x26CA JUMP JUMPDEST PUSH2 0x1145 JUMP JUMPDEST PUSH1 0x40 MLOAD PUSH2 0x277 SWAP2 SWAP1 PUSH2 0x299C JUMP JUMPDEST CALLVALUE DUP1 ISZERO PUSH2 0x538 JUMPI PUSH1 0x0 DUP1 REVERT JUMPDEST POP PUSH2 0x3CB PUSH2 0x11B2 JUMP JUMPDEST CALLVALUE DUP1 ISZERO PUSH2 0x54D JUMPI PUSH1 0x0 DUP1 REVERT JUMPDEST POP PUSH2 0x316 PUSH2 0x55C CALLDATASIZE PUSH1 0x4 PUSH2 0x29AF JUMP JUMPDEST PUSH2 0x11C4 JUMP JUMPDEST CALLVALUE DUP1 ISZERO PUSH2 0x56D JUMPI PUSH1 0x0 DUP1 REVERT JUMPDEST POP PUSH2 0x3CB PUSH2 0x1255 JUMP JUMPDEST CALLVALUE DUP1 ISZERO PUSH2 0x582 JUMPI PUSH1 0x0 DUP1 REVERT JUMPDEST POP PUSH2 0x3CB PUSH2 0x1480 JUMP JUMPDEST CALLVALUE DUP1 ISZERO PUSH2 0x597 JUMPI PUSH1 0x0 DUP1 REVERT JUMPDEST POP PUSH2 0x316 PUSH2 0x5A6 CALLDATASIZE PUSH1 0x4 PUSH2 0x26FE JUMP JUMPDEST PUSH2 0x1490 JUMP JUMPDEST CALLVALUE DUP1 ISZERO PUSH2 0x5B7 JUMPI PUSH1 0x0 DUP1 REVERT JUMPDEST POP PUSH2 0x292 PUSH2 0x5C6 CALLDATASIZE PUSH1 0x4 PUSH2 0x26FE JUMP JUMPDEST PUSH2 0x14AF JUMP JUMPDEST CALLVALUE DUP1 ISZERO PUSH2 0x5D7 JUMPI PUSH1 0x0 DUP1 REVERT JUMPDEST POP PUSH1 0x65 SLOAD PUSH1 0x1 PUSH1 0x1 PUSH1 0xA0 SHL SUB AND PUSH2 0x2C0 JUMP JUMPDEST CALLVALUE DUP1 ISZERO PUSH2 0x5F5 JUMPI PUSH1 0x0 DUP1 REVERT JUMPDEST POP PUSH2 0x292 PUSH2 0x604 CALLDATASIZE PUSH1 0x4 PUSH2 0x26FE JUMP JUMPDEST PUSH1 0x1 PUSH1 0x1 PUSH1 0xA0 SHL SUB SWAP2 SWAP1 SWAP2 AND PUSH1 0x0 SWAP1 DUP2 MSTORE PUSH2 0x106 PUSH1 0x20 SWAP1 DUP2 MSTORE PUSH1 0x40 DUP1 DUP4 KECCAK256 SWAP4 DUP4 MSTORE SWAP3 SWAP1 MSTORE KECCAK256 PUSH1 0x1 ADD SLOAD SWAP1 JUMP JUMPDEST CALLVALUE DUP1 ISZERO PUSH2 0x63C JUMPI PUSH1 0x0 DUP1 REVERT JUMPDEST POP PUSH2 0x292 PUSH2 0x64B CALLDATASIZE PUSH1 0x4 PUSH2 0x26CA JUMP JUMPDEST PUSH2 0x14BB JUMP JUMPDEST CALLVALUE DUP1 ISZERO PUSH2 0x65C JUMPI PUSH1 0x0 DUP1 REVERT JUMPDEST POP PUSH2 0x2C0 PUSH2 0x66B CALLDATASIZE PUSH1 0x4 PUSH2 0x26CA JUMP JUMPDEST PUSH2 0x158C JUMP JUMPDEST CALLVALUE DUP1 ISZERO PUSH2 0x67C JUMPI PUSH1 0x0 DUP1 REVERT JUMPDEST POP PUSH2 0x690 PUSH2 0x68B CALLDATASIZE PUSH1 0x4 PUSH2 0x26FE JUMP JUMPDEST PUSH2 0x15B9 JUMP JUMPDEST PUSH1 0x40 DUP1 MLOAD SWAP6 DUP7 MSTORE PUSH1 0x20 DUP7 ADD SWAP5 SWAP1 SWAP5 MSTORE SWAP3 DUP5 ADD SWAP2 SWAP1 SWAP2 MSTORE PUSH1 0x60 DUP4 ADD MSTORE PUSH1 0x80 DUP3 ADD MSTORE PUSH1 0xA0 ADD PUSH2 0x277 JUMP JUMPDEST CALLVALUE DUP1 ISZERO PUSH2 0x6C4 JUMPI PUSH1 0x0 DUP1 REVERT JUMPDEST POP PUSH2 0x6D8 PUSH2 0x6D3 CALLDATASIZE PUSH1 0x4 PUSH2 0x26CA JUMP JUMPDEST PUSH2 0x1623 JUMP JUMPDEST PUSH1 0x40 MLOAD PUSH2 0x277 SWAP4 SWAP3 SWAP2 SWAP1 PUSH2 0x29D1 JUMP JUMPDEST CALLVALUE DUP1 ISZERO PUSH2 0x6F3 JUMPI PUSH1 0x0 DUP1 REVERT JUMPDEST POP PUSH2 0x316 PUSH2 0x702 CALLDATASIZE PUSH1 0x4 PUSH2 0x2A52 JUMP JUMPDEST PUSH2 0x1745 JUMP JUMPDEST CALLVALUE DUP1 ISZERO PUSH2 0x713 JUMPI PUSH1 0x0 DUP1 REVERT JUMPDEST POP PUSH2 0x3CB PUSH2 0x722 CALLDATASIZE PUSH1 0x4 PUSH2 0x26E5 JUMP JUMPDEST PUSH2 0x1776 JUMP JUMPDEST CALLVALUE DUP1 ISZERO PUSH2 0x733 JUMPI PUSH1 0x0 DUP1 REVERT JUMPDEST POP PUSH2 0x2C0 PUSH2 0x742 CALLDATASIZE PUSH1 0x4 PUSH2 0x26CA JUMP JUMPDEST PUSH2 0x1784 JUMP JUMPDEST CALLVALUE DUP1 ISZERO PUSH2 0x753 JUMPI PUSH1 0x0 DUP1 REVERT JUMPDEST POP PUSH2 0x292 PUSH2 0x762 CALLDATASIZE PUSH1 0x4 PUSH2 0x26E5 JUMP JUMPDEST PUSH2 0x17B1 JUMP JUMPDEST CALLVALUE DUP1 ISZERO PUSH2 0x773 JUMPI PUSH1 0x0 DUP1 REVERT JUMPDEST POP PUSH2 0x292 PUSH2 0x782 CALLDATASIZE PUSH1 0x4 PUSH2 0x26FE JUMP JUMPDEST PUSH1 0x1 PUSH1 0x1 PUSH1 0xA0 SHL SUB SWAP2 SWAP1 SWAP2 AND PUSH1 0x0 SWAP1 DUP2 MSTORE PUSH2 0x106 PUSH1 0x20 SWAP1 DUP2 MSTORE PUSH1 0x40 DUP1 DUP4 KECCAK256 SWAP4 DUP4 MSTORE SWAP3 SWAP1 MSTORE KECCAK256 PUSH1 0x4 ADD SLOAD SWAP1 JUMP JUMPDEST CALLVALUE DUP1 ISZERO PUSH2 0x7BA JUMPI PUSH1 0x0 DUP1 REVERT JUMPDEST POP PUSH1 0xFD SLOAD PUSH1 0x1 PUSH1 0x1 PUSH1 0xA0 SHL SUB AND PUSH2 0x2C0 JUMP JUMPDEST CALLVALUE DUP1 ISZERO PUSH2 0x7D8 JUMPI PUSH1 0x0 DUP1 REVERT JUMPDEST POP PUSH2 0x3CB PUSH2 0x7E7 CALLDATASIZE PUSH1 0x4 PUSH2 0x26CA JUMP JUMPDEST PUSH2 0x17C5 JUMP JUMPDEST PUSH2 0x104 SLOAD PUSH1 0x0 DUP1 PUSH2 0x7FB PUSH2 0x183B JUMP JUMPDEST SWAP2 POP PUSH2 0x805 PUSH2 0x1862 JUMP JUMPDEST SWAP1 POP SWAP1 SWAP2 SWAP3 JUMP JUMPDEST PUSH1 0x0 PUSH2 0x816 PUSH2 0x1896 JUMP JUMPDEST POP PUSH1 0xFD DUP1 SLOAD PUSH1 0x1 PUSH1 0x1 PUSH1 0xA0 SHL SUB NOT AND PUSH1 0x1 PUSH1 0x1 PUSH1 0xA0 SHL SUB DUP4 AND SWAP1 DUP2 OR SWAP1 SWAP2 SSTORE JUMPDEST SWAP2 SWAP1 POP JUMP JUMPDEST PUSH1 0x0 DUP1 PUSH2 0x848 CALLER DUP5 PUSH2 0x18F0 JUMP JUMPDEST PUSH1 0xFC SLOAD PUSH1 0xFB SLOAD SWAP2 SWAP3 POP PUSH2 0x869 SWAP2 PUSH1 0x1 PUSH1 0x1 PUSH1 0xA0 SHL SUB SWAP2 DUP3 AND SWAP2 AND CALLER DUP5 PUSH2 0x1AA4 JUMP JUMPDEST POP PUSH1 0x1 SWAP3 SWAP2 POP POP JUMP JUMPDEST PUSH1 0x0 PUSH2 0x87C PUSH2 0x1896 JUMP JUMPDEST PUSH1 0x40 MLOAD PUSH1 0x1 PUSH1 0x1 PUSH1 0xA0 SHL SUB DUP5 AND SWAP1 DUP4 ISZERO PUSH2 0x8FC MUL SWAP1 DUP5 SWAP1 PUSH1 0x0 DUP2 DUP2 DUP2 DUP6 DUP9 DUP9 CALL SWAP4 POP POP POP POP ISZERO DUP1 ISZERO PUSH2 0x8B2 JUMPI RETURNDATASIZE PUSH1 0x0 DUP1 RETURNDATACOPY RETURNDATASIZE PUSH1 0x0 REVERT JUMPDEST POP PUSH1 0x1 SWAP1 POP JUMPDEST SWAP3 SWAP2 POP POP JUMP JUMPDEST PUSH1 0xFC SLOAD PUSH1 0x40 DUP1 MLOAD PUSH4 0x6FDDE03 PUSH1 0xE0 SHL DUP2 MSTORE SWAP1 MLOAD PUSH1 0x1 PUSH1 0x1 PUSH1 0xA0 SHL SUB SWAP1 SWAP3 AND SWAP2 PUSH1 0x60 SWAP2 PUSH1 0x0 SWAP2 DUP3 SWAP2 DUP6 SWAP2 PUSH4 0x6FDDE03 SWAP2 PUSH1 0x4 DUP1 DUP3 ADD SWAP3 DUP7 SWAP3 SWAP1 SWAP2 SWAP1 DUP3 SWAP1 SUB ADD DUP2 DUP7 GAS STATICCALL ISZERO DUP1 ISZERO PUSH2 0x911 JUMPI RETURNDATASIZE PUSH1 0x0 DUP1 RETURNDATACOPY RETURNDATASIZE PUSH1 0x0 REVERT JUMPDEST POP POP POP POP PUSH1 0x40 MLOAD RETURNDATASIZE PUSH1 0x0 DUP3 RETURNDATACOPY PUSH1 0x1F RETURNDATASIZE SWAP1 DUP2 ADD PUSH1 0x1F NOT AND DUP3 ADD PUSH1 0x40 MSTORE PUSH2 0x939 SWAP2 SWAP1 DUP2 ADD SWAP1 PUSH2 0x2ABE JUMP JUMPDEST SWAP3 POP PUSH1 0xFC PUSH1 0x0 SWAP1 SLOAD SWAP1 PUSH2 0x100 EXP SWAP1 DIV PUSH1 0x1 PUSH1 0x1 PUSH1 0xA0 SHL SUB AND PUSH1 0x1 PUSH1 0x1 PUSH1 0xA0 SHL SUB AND PUSH4 0x313CE567 PUSH1 0x40 MLOAD DUP2 PUSH4 0xFFFFFFFF AND PUSH1 0xE0 SHL DUP2 MSTORE PUSH1 0x4 ADD PUSH1 0x20 PUSH1 0x40 MLOAD DUP1 DUP4 SUB DUP2 DUP7 GAS STATICCALL ISZERO DUP1 ISZERO PUSH2 0x98E JUMPI RETURNDATASIZE PUSH1 0x0 DUP1 RETURNDATACOPY RETURNDATASIZE PUSH1 0x0 REVERT JUMPDEST POP POP POP POP PUSH1 0x40 MLOAD RETURNDATASIZE PUSH1 0x1F NOT PUSH1 0x1F DUP3 ADD AND DUP3 ADD DUP1 PUSH1 0x40 MSTORE POP DUP2 ADD SWAP1 PUSH2 0x9B2 SWAP2 SWAP1 PUSH2 0x2B2C JUMP JUMPDEST SWAP2 POP PUSH1 0xFC PUSH1 0x0 SWAP1 SLOAD SWAP1 PUSH2 0x100 EXP SWAP1 DIV PUSH1 0x1 PUSH1 0x1 PUSH1 0xA0 SHL SUB AND PUSH1 0x1 PUSH1 0x1 PUSH1 0xA0 SHL SUB AND PUSH4 0x18160DDD PUSH1 0x40 MLOAD DUP2 PUSH4 0xFFFFFFFF AND PUSH1 0xE0 SHL DUP2 MSTORE PUSH1 0x4 ADD PUSH1 0x20 PUSH1 0x40 MLOAD DUP1 DUP4 SUB DUP2 DUP7 GAS STATICCALL ISZERO DUP1 ISZERO PUSH2 0xA07 JUMPI RETURNDATASIZE PUSH1 0x0 DUP1 RETURNDATACOPY RETURNDATASIZE PUSH1 0x0 REVERT JUMPDEST POP POP POP POP PUSH1 0x40 MLOAD RETURNDATASIZE PUSH1 0x1F NOT PUSH1 0x1F DUP3 ADD AND DUP3 ADD DUP1 PUSH1 0x40 MSTORE POP DUP2 ADD SWAP1 PUSH2 0xA2B SWAP2 SWAP1 PUSH2 0x2B2C JUMP JUMPDEST SWAP1 POP SWAP1 SWAP2 SWAP3 SWAP4 JUMP JUMPDEST PUSH1 0x0 CALLER PUSH2 0xA48 PUSH1 0x65 SLOAD PUSH1 0x1 PUSH1 0x1 PUSH1 0xA0 SHL SUB AND SWAP1 JUMP JUMPDEST PUSH1 0x1 PUSH1 0x1 PUSH1 0xA0 SHL SUB AND DUP2 PUSH1 0x1 PUSH1 0x1 PUSH1 0xA0 SHL SUB AND EQ DUP1 PUSH2 0xA74 JUMPI POP PUSH1 0xFD SLOAD PUSH1 0x1 PUSH1 0x1 PUSH1 0xA0 SHL SUB DUP3 DUP2 AND SWAP2 AND EQ JUMPDEST DUP1 PUSH2 0xA8C JUMPI POP PUSH1 0xFE SLOAD PUSH1 0x1 PUSH1 0x1 PUSH1 0xA0 SHL SUB DUP3 DUP2 AND SWAP2 AND EQ JUMPDEST PUSH2 0xAE8 JUMPI PUSH1 0x40 MLOAD PUSH3 0x461BCD PUSH1 0xE5 SHL DUP2 MSTORE PUSH1 0x20 PUSH1 0x4 DUP3 ADD MSTORE PUSH1 0x22 PUSH1 0x24 DUP3 ADD MSTORE PUSH32 0x4F6E6C79206F776E65722063616E2063616C6C20746869732066756E6374696F PUSH1 0x44 DUP3 ADD MSTORE PUSH2 0x3717 PUSH1 0xF1 SHL PUSH1 0x64 DUP3 ADD MSTORE PUSH1 0x84 ADD JUMPDEST PUSH1 0x40 MLOAD DUP1 SWAP2 SUB SWAP1 REVERT JUMPDEST PUSH2 0xAF3 DUP6 DUP6 DUP6 PUSH2 0x1B26 JUMP JUMPDEST SWAP2 POP POP JUMPDEST SWAP4 SWAP3 POP POP POP JUMP JUMPDEST PUSH1 0x1 PUSH1 0x1 PUSH1 0xA0 SHL SUB DUP3 AND PUSH1 0x0 SWAP1 DUP2 MSTORE PUSH2 0x106 PUSH1 0x20 SWAP1 DUP2 MSTORE PUSH1 0x40 DUP1 DUP4 KECCAK256 DUP5 DUP5 MSTORE SWAP1 SWAP2 MSTORE DUP2 KECCAK256 PUSH1 0x1 DUP2 ADD SLOAD PUSH2 0xB32 DUP2 PUSH1 0xC PUSH2 0x2B5B JUMP JUMPDEST SWAP6 SWAP5 POP POP POP POP POP JUMP JUMPDEST PUSH1 0x1 PUSH1 0x1 PUSH1 0xA0 SHL SUB PUSH32 0x0 AND ADDRESS SUB PUSH2 0xB83 JUMPI PUSH1 0x40 MLOAD PUSH3 0x461BCD PUSH1 0xE5 SHL DUP2 MSTORE PUSH1 0x4 ADD PUSH2 0xADF SWAP1 PUSH2 0x2B72 JUMP JUMPDEST PUSH32 0x0 PUSH1 0x1 PUSH1 0x1 PUSH1 0xA0 SHL SUB AND PUSH2 0xBCC PUSH1 0x0 DUP1 MLOAD PUSH1 0x20 PUSH2 0x2D54 DUP4 CODECOPY DUP2 MLOAD SWAP2 MSTORE SLOAD PUSH1 0x1 PUSH1 0x1 PUSH1 0xA0 SHL SUB AND SWAP1 JUMP JUMPDEST PUSH1 0x1 PUSH1 0x1 PUSH1 0xA0 SHL SUB AND EQ PUSH2 0xBF2 JUMPI PUSH1 0x40 MLOAD PUSH3 0x461BCD PUSH1 0xE5 SHL DUP2 MSTORE PUSH1 0x4 ADD PUSH2 0xADF SWAP1 PUSH2 0x2BBE JUMP JUMPDEST PUSH2 0xBFB DUP2 PUSH2 0x1D3C JUMP JUMPDEST PUSH1 0x40 DUP1 MLOAD PUSH1 0x0 DUP1 DUP3 MSTORE PUSH1 0x20 DUP3 ADD SWAP1 SWAP3 MSTORE PUSH2 0xC17 SWAP2 DUP4 SWAP2 SWAP1 PUSH2 0x1D44 JUMP JUMPDEST POP JUMP JUMPDEST PUSH2 0xC22 PUSH2 0x1896 JUMP JUMPDEST PUSH2 0xC2A PUSH2 0x1EB4 JUMP JUMPDEST JUMP JUMPDEST PUSH1 0x1 PUSH1 0x1 PUSH1 0xA0 SHL SUB DUP2 AND PUSH1 0x0 SWAP1 DUP2 MSTORE PUSH2 0x107 PUSH1 0x20 SWAP1 DUP2 MSTORE PUSH1 0x40 DUP1 DUP4 KECCAK256 DUP1 SLOAD DUP3 MLOAD DUP2 DUP6 MUL DUP2 ADD DUP6 ADD SWAP1 SWAP4 MSTORE DUP1 DUP4 MSTORE DUP5 SWAP4 DUP4 ADD DUP3 DUP3 DUP1 ISZERO PUSH2 0xC8A JUMPI PUSH1 0x20 MUL DUP3 ADD SWAP2 SWAP1 PUSH1 0x0 MSTORE PUSH1 0x20 PUSH1 0x0 KECCAK256 SWAP1 JUMPDEST DUP2 SLOAD DUP2 MSTORE PUSH1 0x20 ADD SWAP1 PUSH1 0x1 ADD SWAP1 DUP1 DUP4 GT PUSH2 0xC76 JUMPI JUMPDEST POP POP DUP4 MLOAD SWAP4 SWAP5 POP PUSH1 0x0 SWAP3 POP POP POP JUMPDEST DUP2 DUP2 LT ISZERO PUSH2 0xD09 JUMPI PUSH1 0x1 PUSH1 0x1 PUSH1 0xA0 SHL SUB DUP6 AND PUSH1 0x0 SWAP1 DUP2 MSTORE PUSH2 0x106 PUSH1 0x20 MSTORE PUSH1 0x40 DUP2 KECCAK256 DUP5 MLOAD SWAP1 SWAP2 SWAP1 DUP6 SWAP1 DUP5 SWAP1 DUP2 LT PUSH2 0xCD0 JUMPI PUSH2 0xCD0 PUSH2 0x2C0A JUMP JUMPDEST PUSH1 0x20 MUL PUSH1 0x20 ADD ADD MLOAD DUP2 MSTORE PUSH1 0x20 ADD SWAP1 DUP2 MSTORE PUSH1 0x20 ADD PUSH1 0x0 KECCAK256 PUSH1 0x0 ADD SLOAD DUP5 PUSH2 0xCF5 SWAP2 SWAP1 PUSH2 0x2C20 JUMP JUMPDEST SWAP4 POP DUP1 PUSH2 0xD01 DUP2 PUSH2 0x2C33 JUMP JUMPDEST SWAP2 POP POP PUSH2 0xC98 JUMP JUMPDEST POP POP POP SWAP2 SWAP1 POP JUMP JUMPDEST PUSH1 0x1 PUSH1 0x1 PUSH1 0xA0 SHL SUB PUSH32 0x0 AND ADDRESS SUB PUSH2 0xD59 JUMPI PUSH1 0x40 MLOAD PUSH3 0x461BCD PUSH1 0xE5 SHL DUP2 MSTORE PUSH1 0x4 ADD PUSH2 0xADF SWAP1 PUSH2 0x2B72 JUMP JUMPDEST PUSH32 0x0 PUSH1 0x1 PUSH1 0x1 PUSH1 0xA0 SHL SUB AND PUSH2 0xDA2 PUSH1 0x0 DUP1 MLOAD PUSH1 0x20 PUSH2 0x2D54 DUP4 CODECOPY DUP2 MLOAD SWAP2 MSTORE SLOAD PUSH1 0x1 PUSH1 0x1 PUSH1 0xA0 SHL SUB AND SWAP1 JUMP JUMPDEST PUSH1 0x1 PUSH1 0x1 PUSH1 0xA0 SHL SUB AND EQ PUSH2 0xDC8 JUMPI PUSH1 0x40 MLOAD PUSH3 0x461BCD PUSH1 0xE5 SHL DUP2 MSTORE PUSH1 0x4 ADD PUSH2 0xADF SWAP1 PUSH2 0x2BBE JUMP JUMPDEST PUSH2 0xDD1 DUP3 PUSH2 0x1D3C JUMP JUMPDEST PUSH2 0xDDD DUP3 DUP3 PUSH1 0x1 PUSH2 0x1D44 JUMP JUMPDEST POP POP JUMP JUMPDEST PUSH1 0x0 ADDRESS PUSH1 0x1 PUSH1 0x1 PUSH1 0xA0 SHL SUB PUSH32 0x0 AND EQ PUSH2 0xE81 JUMPI PUSH1 0x40 MLOAD PUSH3 0x461BCD PUSH1 0xE5 SHL DUP2 MSTORE PUSH1 0x20 PUSH1 0x4 DUP3 ADD MSTORE PUSH1 0x38 PUSH1 0x24 DUP3 ADD MSTORE PUSH32 0x555550535570677261646561626C653A206D757374206E6F742062652063616C PUSH1 0x44 DUP3 ADD MSTORE PUSH32 0x6C6564207468726F7567682064656C656761746563616C6C0000000000000000 PUSH1 0x64 DUP3 ADD MSTORE PUSH1 0x84 ADD PUSH2 0xADF JUMP JUMPDEST POP PUSH1 0x0 DUP1 MLOAD PUSH1 0x20 PUSH2 0x2D54 DUP4 CODECOPY DUP2 MLOAD SWAP2 MSTORE SWAP1 JUMP JUMPDEST PUSH1 0x0 DUP1 PUSH2 0xEA1 CALLER DUP5 PUSH2 0x18F0 JUMP JUMPDEST SWAP1 POP PUSH1 0x0 PUSH2 0xEAF CALLER DUP6 PUSH2 0x1F06 JUMP JUMPDEST SWAP1 POP PUSH1 0x64 PUSH2 0x105 SLOAD DUP3 PUSH2 0xEC2 SWAP2 SWAP1 PUSH2 0x2B5B JUMP JUMPDEST PUSH2 0xECC SWAP2 SWAP1 PUSH2 0x2C4C JUMP JUMPDEST PUSH2 0xED6 SWAP1 DUP3 PUSH2 0x2C6E JUMP JUMPDEST PUSH1 0xFC SLOAD PUSH1 0xFB SLOAD SWAP2 SWAP3 POP PUSH2 0xF00 SWAP2 PUSH1 0x1 PUSH1 0x1 PUSH1 0xA0 SHL SUB SWAP2 DUP3 AND SWAP2 AND CALLER PUSH2 0xEFB DUP6 DUP8 PUSH2 0x2C20 JUMP JUMPDEST PUSH2 0x1AA4 JUMP JUMPDEST POP PUSH1 0x1 SWAP4 SWAP3 POP POP POP JUMP JUMPDEST PUSH1 0x0 PUSH2 0xF14 PUSH2 0x1896 JUMP JUMPDEST PUSH1 0x40 MLOAD PUSH4 0xA9059CBB PUSH1 0xE0 SHL DUP2 MSTORE PUSH1 0x1 PUSH1 0x1 PUSH1 0xA0 SHL SUB DUP5 DUP2 AND PUSH1 0x4 DUP4 ADD MSTORE PUSH1 0x24 DUP3 ADD DUP5 SWAP1 MSTORE DUP6 AND SWAP1 PUSH4 0xA9059CBB SWAP1 PUSH1 0x44 ADD PUSH1 0x20 PUSH1 0x40 MLOAD DUP1 DUP4 SUB DUP2 PUSH1 0x0 DUP8 GAS CALL ISZERO DUP1 ISZERO PUSH2 0xF63 JUMPI RETURNDATASIZE PUSH1 0x0 DUP1 RETURNDATACOPY RETURNDATASIZE PUSH1 0x0 REVERT JUMPDEST POP POP POP POP PUSH1 0x40 MLOAD RETURNDATASIZE PUSH1 0x1F NOT PUSH1 0x1F DUP3 ADD AND DUP3 ADD DUP1 PUSH1 0x40 MSTORE POP DUP2 ADD SWAP1 PUSH2 0xF87 SWAP2 SWAP1 PUSH2 0x2C81 JUMP JUMPDEST POP PUSH1 0x1 SWAP5 SWAP4 POP POP POP POP JUMP JUMPDEST PUSH1 0x60 DUP1 PUSH1 0x0 DUP1 PUSH1 0x0 PUSH2 0x103 DUP1 SLOAD DUP1 PUSH1 0x20 MUL PUSH1 0x20 ADD PUSH1 0x40 MLOAD SWAP1 DUP2 ADD PUSH1 0x40 MSTORE DUP1 SWAP3 SWAP2 SWAP1 DUP2 DUP2 MSTORE PUSH1 0x20 ADD DUP3 DUP1 SLOAD DUP1 ISZERO PUSH2 0xFE7 JUMPI PUSH1 0x20 MUL DUP3 ADD SWAP2 SWAP1 PUSH1 0x0 MSTORE PUSH1 0x20 PUSH1 0x0 KECCAK256 SWAP1 JUMPDEST DUP2 SLOAD DUP2 MSTORE PUSH1 0x20 ADD SWAP1 PUSH1 0x1 ADD SWAP1 DUP1 DUP4 GT PUSH2 0xFD3 JUMPI JUMPDEST POP POP POP POP POP SWAP5 POP PUSH2 0x102 DUP1 SLOAD DUP1 PUSH1 0x20 MUL PUSH1 0x20 ADD PUSH1 0x40 MLOAD SWAP1 DUP2 ADD PUSH1 0x40 MSTORE DUP1 SWAP3 SWAP2 SWAP1 DUP2 DUP2 MSTORE PUSH1 0x20 ADD DUP3 DUP1 SLOAD DUP1 ISZERO PUSH2 0x103B JUMPI PUSH1 0x20 MUL DUP3 ADD SWAP2 SWAP1 PUSH1 0x0 MSTORE PUSH1 0x20 PUSH1 0x0 KECCAK256 SWAP1 JUMPDEST DUP2 SLOAD DUP2 MSTORE PUSH1 0x20 ADD SWAP1 PUSH1 0x1 ADD SWAP1 DUP1 DUP4 GT PUSH2 0x1027 JUMPI JUMPDEST POP POP POP POP POP SWAP4 POP PUSH1 0xFF SLOAD SWAP3 POP PUSH2 0x100 SLOAD SWAP2 POP PUSH2 0x101 SLOAD SWAP1 POP SWAP1 SWAP2 SWAP3 SWAP4 SWAP5 JUMP JUMPDEST PUSH1 0x1 PUSH1 0x1 PUSH1 0xA0 SHL SUB DUP2 AND PUSH1 0x0 SWAP1 DUP2 MSTORE PUSH2 0x107 PUSH1 0x20 SWAP1 DUP2 MSTORE PUSH1 0x40 DUP1 DUP4 KECCAK256 DUP1 SLOAD DUP3 MLOAD DUP2 DUP6 MUL DUP2 ADD DUP6 ADD SWAP1 SWAP4 MSTORE DUP1 DUP4 MSTORE DUP5 SWAP4 DUP4 ADD DUP3 DUP3 DUP1 ISZERO PUSH2 0x10B8 JUMPI PUSH1 0x20 MUL DUP3 ADD SWAP2 SWAP1 PUSH1 0x0 MSTORE PUSH1 0x20 PUSH1 0x0 KECCAK256 SWAP1 JUMPDEST DUP2 SLOAD DUP2 MSTORE PUSH1 0x20 ADD SWAP1 PUSH1 0x1 ADD SWAP1 DUP1 DUP4 GT PUSH2 0x10A4 JUMPI JUMPDEST POP POP DUP4 MLOAD SWAP4 SWAP5 POP PUSH1 0x0 SWAP3 POP POP POP JUMPDEST DUP2 DUP2 LT ISZERO PUSH2 0x113A JUMPI PUSH1 0x1 PUSH1 0x1 PUSH1 0xA0 SHL SUB DUP6 AND PUSH1 0x0 SWAP1 DUP2 MSTORE PUSH2 0x106 PUSH1 0x20 MSTORE PUSH1 0x40 DUP2 KECCAK256 DUP5 MLOAD DUP3 SWAP1 DUP7 SWAP1 DUP6 SWAP1 DUP2 LT PUSH2 0x10FD JUMPI PUSH2 0x10FD PUSH2 0x2C0A JUMP JUMPDEST PUSH1 0x20 MUL PUSH1 0x20 ADD ADD MLOAD DUP2 MSTORE PUSH1 0x20 ADD SWAP1 DUP2 MSTORE PUSH1 0x20 ADD PUSH1 0x0 KECCAK256 PUSH1 0x0 ADD SLOAD GT ISZERO PUSH2 0x1128 JUMPI POP PUSH1 0x1 SWAP5 SWAP4 POP POP POP POP JUMP JUMPDEST DUP1 PUSH2 0x1132 DUP2 PUSH2 0x2C33 JUMP JUMPDEST SWAP2 POP POP PUSH2 0x10C6 JUMP JUMPDEST POP PUSH1 0x0 SWAP5 SWAP4 POP POP POP POP JUMP JUMPDEST PUSH1 0x1 PUSH1 0x1 PUSH1 0xA0 SHL SUB DUP2 AND PUSH1 0x0 SWAP1 DUP2 MSTORE PUSH2 0x107 PUSH1 0x20 SWAP1 DUP2 MSTORE PUSH1 0x40 SWAP2 DUP3 SWAP1 KECCAK256 DUP1 SLOAD DUP4 MLOAD DUP2 DUP5 MUL DUP2 ADD DUP5 ADD SWAP1 SWAP5 MSTORE DUP1 DUP5 MSTORE PUSH1 0x60 SWAP4 SWAP3 DUP4 ADD DUP3 DUP3 DUP1 ISZERO PUSH2 0x11A6 JUMPI PUSH1 0x20 MUL DUP3 ADD SWAP2 SWAP1 PUSH1 0x0 MSTORE PUSH1 0x20 PUSH1 0x0 KECCAK256 SWAP1 JUMPDEST DUP2 SLOAD DUP2 MSTORE PUSH1 0x20 ADD SWAP1 PUSH1 0x1 ADD SWAP1 DUP1 DUP4 GT PUSH2 0x1192 JUMPI JUMPDEST POP POP POP POP POP SWAP1 POP SWAP2 SWAP1 POP JUMP JUMPDEST PUSH2 0x11BA PUSH2 0x1896 JUMP JUMPDEST PUSH2 0xC2A PUSH1 0x0 PUSH2 0x202F JUMP JUMPDEST PUSH1 0x0 PUSH2 0x11CE PUSH2 0x2081 JUMP JUMPDEST PUSH1 0xFC SLOAD PUSH1 0x40 MLOAD PUSH4 0x23B872DD PUSH1 0xE0 SHL DUP2 MSTORE CALLER PUSH1 0x4 DUP3 ADD MSTORE ADDRESS PUSH1 0x24 DUP3 ADD MSTORE PUSH1 0x44 DUP2 ADD DUP6 SWAP1 MSTORE PUSH1 0x1 PUSH1 0x1 PUSH1 0xA0 SHL SUB SWAP1 SWAP2 AND SWAP1 PUSH4 0x23B872DD SWAP1 PUSH1 0x64 ADD PUSH1 0x20 PUSH1 0x40 MLOAD DUP1 DUP4 SUB DUP2 PUSH1 0x0 DUP8 GAS CALL ISZERO DUP1 ISZERO PUSH2 0x1225 JUMPI RETURNDATASIZE PUSH1 0x0 DUP1 RETURNDATACOPY RETURNDATASIZE PUSH1 0x0 REVERT JUMPDEST POP POP POP POP PUSH1 0x40 MLOAD RETURNDATASIZE PUSH1 0x1F NOT PUSH1 0x1F DUP3 ADD AND DUP3 ADD DUP1 PUSH1 0x40 MSTORE POP DUP2 ADD SWAP1 PUSH2 0x1249 SWAP2 SWAP1 PUSH2 0x2C81 JUMP JUMPDEST POP PUSH2 0xAF7 CALLER DUP5 DUP5 PUSH2 0x1B26 JUMP JUMPDEST PUSH1 0x0 SLOAD PUSH2 0x100 SWAP1 DIV PUSH1 0xFF AND ISZERO DUP1 DUP1 ISZERO PUSH2 0x1275 JUMPI POP PUSH1 0x0 SLOAD PUSH1 0x1 PUSH1 0xFF SWAP1 SWAP2 AND LT JUMPDEST DUP1 PUSH2 0x128F JUMPI POP ADDRESS EXTCODESIZE ISZERO DUP1 ISZERO PUSH2 0x128F JUMPI POP PUSH1 0x0 SLOAD PUSH1 0xFF AND PUSH1 0x1 EQ JUMPDEST PUSH2 0x12F2 JUMPI PUSH1 0x40 MLOAD PUSH3 0x461BCD PUSH1 0xE5 SHL DUP2 MSTORE PUSH1 0x20 PUSH1 0x4 DUP3 ADD MSTORE PUSH1 0x2E PUSH1 0x24 DUP3 ADD MSTORE PUSH32 0x496E697469616C697A61626C653A20636F6E747261637420697320616C726561 PUSH1 0x44 DUP3 ADD MSTORE PUSH14 0x191E481A5B9A5D1A585B1A5E9959 PUSH1 0x92 SHL PUSH1 0x64 DUP3 ADD MSTORE PUSH1 0x84 ADD PUSH2 0xADF JUMP JUMPDEST PUSH1 0x0 DUP1 SLOAD PUSH1 0xFF NOT AND PUSH1 0x1 OR SWAP1 SSTORE DUP1 ISZERO PUSH2 0x1315 JUMPI PUSH1 0x0 DUP1 SLOAD PUSH2 0xFF00 NOT AND PUSH2 0x100 OR SWAP1 SSTORE JUMPDEST PUSH1 0xFB DUP1 SLOAD PUSH1 0x1 PUSH1 0x1 PUSH1 0xA0 SHL SUB NOT SWAP1 DUP2 AND PUSH20 0x397B8DB43AAAA23A757C52C05EB14A66A0F368D8 OR SWAP1 SWAP2 SSTORE PUSH1 0xFC DUP1 SLOAD DUP3 AND PUSH20 0x35D21E38200E125C9352C777B256854A65329053 OR SWAP1 SSTORE PUSH1 0xFD DUP1 SLOAD DUP3 AND PUSH20 0x262A0D88B7ACC1677D234F38CB8443B99FB8075F OR SWAP1 SSTORE PUSH1 0xFE DUP1 SLOAD SWAP1 SWAP2 AND PUSH20 0x2D227FEED1BFBB46FBF8AEF5C3D32E5DA4487A6C OR SWAP1 SSTORE PUSH1 0x40 DUP1 MLOAD PUSH1 0x80 DUP2 ADD DUP3 MSTORE PUSH3 0x76A700 DUP2 MSTORE PUSH3 0xED4E00 PUSH1 0x20 DUP3 ADD MSTORE PUSH4 0x1E13380 SWAP2 DUP2 ADD SWAP2 SWAP1 SWAP2 MSTORE PUSH4 0x2CE8180 PUSH1 0x60 DUP3 ADD MSTORE PUSH2 0x13D7 SWAP1 PUSH2 0x102 SWAP1 PUSH1 0x4 PUSH2 0x25D0 JUMP JUMPDEST POP PUSH1 0x40 DUP1 MLOAD PUSH1 0x80 DUP2 ADD DUP3 MSTORE PUSH1 0xC DUP2 MSTORE PUSH1 0xF PUSH1 0x20 DUP3 ADD MSTORE PUSH1 0x12 SWAP2 DUP2 ADD SWAP2 SWAP1 SWAP2 MSTORE PUSH1 0x15 PUSH1 0x60 DUP3 ADD MSTORE PUSH2 0x140C SWAP1 PUSH2 0x103 SWAP1 PUSH1 0x4 PUSH2 0x2623 JUMP JUMPDEST POP PUSH8 0xDE0B6B3A7640000 PUSH2 0x104 SSTORE PUSH1 0xA PUSH2 0x105 SSTORE PUSH2 0x1428 PUSH2 0x20C7 JUMP JUMPDEST PUSH2 0x1430 PUSH2 0x20F6 JUMP JUMPDEST PUSH2 0x1438 PUSH2 0x2125 JUMP JUMPDEST DUP1 ISZERO PUSH2 0xC17 JUMPI PUSH1 0x0 DUP1 SLOAD PUSH2 0xFF00 NOT AND SWAP1 SSTORE PUSH1 0x40 MLOAD PUSH1 0x1 DUP2 MSTORE PUSH32 0x7F26B83FF96E1F2B6A682F133852F6798A09C465DA95921460CEFB3847402498 SWAP1 PUSH1 0x20 ADD PUSH1 0x40 MLOAD DUP1 SWAP2 SUB SWAP1 LOG1 POP JUMP JUMPDEST PUSH2 0x1488 PUSH2 0x1896 JUMP JUMPDEST PUSH2 0xC2A PUSH2 0x214C JUMP JUMPDEST PUSH1 0x0 PUSH2 0x149A PUSH2 0x1896 JUMP JUMPDEST PUSH2 0x14A4 DUP4 DUP4 PUSH2 0x18F0 JUMP JUMPDEST POP PUSH2 0x8B2 DUP4 DUP4 PUSH2 0x1F06 JUMP JUMPDEST PUSH1 0x0 PUSH2 0xAF7 DUP4 DUP4 PUSH2 0x2189 JUMP JUMPDEST PUSH1 0x1 PUSH1 0x1 PUSH1 0xA0 SHL SUB DUP2 AND PUSH1 0x0 SWAP1 DUP2 MSTORE PUSH2 0x107 PUSH1 0x20 SWAP1 DUP2 MSTORE PUSH1 0x40 DUP1 DUP4 KECCAK256 DUP1 SLOAD DUP3 MLOAD DUP2 DUP6 MUL DUP2 ADD DUP6 ADD SWAP1 SWAP4 MSTORE DUP1 DUP4 MSTORE DUP5 SWAP4 DUP4 ADD DUP3 DUP3 DUP1 ISZERO PUSH2 0x1519 JUMPI PUSH1 0x20 MUL DUP3 ADD SWAP2 SWAP1 PUSH1 0x0 MSTORE PUSH1 0x20 PUSH1 0x0 KECCAK256 SWAP1 JUMPDEST DUP2 SLOAD DUP2 MSTORE PUSH1 0x20 ADD SWAP1 PUSH1 0x1 ADD SWAP1 DUP1 DUP4 GT PUSH2 0x1505 JUMPI JUMPDEST POP POP POP PUSH1 0x1 PUSH1 0x1 PUSH1 0xA0 SHL SUB DUP7 AND PUSH1 0x0 SWAP1 DUP2 MSTORE PUSH2 0x107 PUSH1 0x20 MSTORE PUSH1 0x40 DUP2 KECCAK256 SLOAD SWAP4 SWAP5 POP SWAP2 POP POP JUMPDEST DUP2 DUP2 PUSH1 0xFF AND LT ISZERO PUSH2 0xD09 JUMPI PUSH2 0x156E DUP6 DUP5 DUP4 PUSH1 0xFF AND DUP2 MLOAD DUP2 LT PUSH2 0x1561 JUMPI PUSH2 0x1561 PUSH2 0x2C0A JUMP JUMPDEST PUSH1 0x20 MUL PUSH1 0x20 ADD ADD MLOAD PUSH2 0x2189 JUMP JUMPDEST PUSH2 0x1578 SWAP1 DUP6 PUSH2 0x2C20 JUMP JUMPDEST SWAP4 POP DUP1 PUSH2 0x1584 DUP2 PUSH2 0x2CA3 JUMP JUMPDEST SWAP2 POP POP PUSH2 0x153D JUMP JUMPDEST PUSH1 0x0 PUSH2 0x1596 PUSH2 0x1896 JUMP JUMPDEST POP PUSH1 0xFC DUP1 SLOAD PUSH1 0x1 PUSH1 0x1 PUSH1 0xA0 SHL SUB NOT AND PUSH1 0x1 PUSH1 0x1 PUSH1 0xA0 SHL SUB SWAP3 SWAP1 SWAP3 AND SWAP2 DUP3 OR SWAP1 SSTORE SWAP1 JUMP JUMPDEST PUSH1 0x1 PUSH1 0x1 PUSH1 0xA0 SHL SUB DUP3 AND PUSH1 0x0 SWAP1 DUP2 MSTORE PUSH2 0x106 PUSH1 0x20 SWAP1 DUP2 MSTORE PUSH1 0x40 DUP1 DUP4 KECCAK256 DUP5 DUP5 MSTORE SWAP1 SWAP2 MSTORE DUP2 KECCAK256 DUP1 SLOAD PUSH1 0x2 DUP3 ADD SLOAD PUSH1 0x3 DUP4 ADD SLOAD SWAP2 SWAP4 SWAP1 SWAP3 DUP2 SWAP1 PUSH2 0x15F9 DUP6 DUP6 PUSH2 0x2C6E JUMP JUMPDEST SWAP3 POP DUP4 TIMESTAMP LT PUSH2 0x160B JUMPI PUSH1 0x0 SWAP2 POP PUSH2 0x1618 JUMP JUMPDEST PUSH2 0x1615 TIMESTAMP DUP6 PUSH2 0x2C6E JUMP JUMPDEST SWAP2 POP JUMPDEST POP SWAP3 SWAP6 POP SWAP3 SWAP6 SWAP1 SWAP4 POP JUMP JUMPDEST PUSH1 0x1 PUSH1 0x1 PUSH1 0xA0 SHL SUB DUP2 AND PUSH1 0x0 SWAP1 DUP2 MSTORE PUSH2 0x108 PUSH1 0x20 SWAP1 DUP2 MSTORE PUSH1 0x40 DUP1 DUP4 KECCAK256 DUP1 SLOAD DUP3 MLOAD DUP2 DUP6 MUL DUP2 ADD DUP6 ADD SWAP1 SWAP4 MSTORE DUP1 DUP4 MSTORE PUSH1 0x60 SWAP4 DUP5 SWAP4 SWAP3 SWAP2 SWAP1 DUP4 ADD DUP3 DUP3 DUP1 ISZERO PUSH2 0x1687 JUMPI PUSH1 0x20 MUL DUP3 ADD SWAP2 SWAP1 PUSH1 0x0 MSTORE PUSH1 0x20 PUSH1 0x0 KECCAK256 SWAP1 JUMPDEST DUP2 SLOAD DUP2 MSTORE PUSH1 0x20 ADD SWAP1 PUSH1 0x1 ADD SWAP1 DUP1 DUP4 GT PUSH2 0x1673 JUMPI JUMPDEST POP POP DUP4 MLOAD SWAP4 SWAP6 POP PUSH1 0x0 SWAP3 POP POP POP JUMPDEST DUP2 DUP2 LT ISZERO PUSH2 0x16D6 JUMPI DUP4 DUP2 DUP2 MLOAD DUP2 LT PUSH2 0x16AF JUMPI PUSH2 0x16AF PUSH2 0x2C0A JUMP JUMPDEST PUSH1 0x20 MUL PUSH1 0x20 ADD ADD MLOAD DUP6 PUSH2 0x16C2 SWAP2 SWAP1 PUSH2 0x2C20 JUMP JUMPDEST SWAP5 POP DUP1 PUSH2 0x16CE DUP2 PUSH2 0x2C33 JUMP JUMPDEST SWAP2 POP POP PUSH2 0x1695 JUMP JUMPDEST POP PUSH1 0x1 PUSH1 0x1 PUSH1 0xA0 SHL SUB DUP6 AND PUSH1 0x0 SWAP1 DUP2 MSTORE PUSH2 0x109 PUSH1 0x20 SWAP1 DUP2 MSTORE PUSH1 0x40 SWAP2 DUP3 SWAP1 KECCAK256 DUP1 SLOAD DUP4 MLOAD DUP2 DUP5 MUL DUP2 ADD DUP5 ADD SWAP1 SWAP5 MSTORE DUP1 DUP5 MSTORE SWAP1 SWAP2 DUP4 ADD DUP3 DUP3 DUP1 ISZERO PUSH2 0x1736 JUMPI PUSH1 0x20 MUL DUP3 ADD SWAP2 SWAP1 PUSH1 0x0 MSTORE PUSH1 0x20 PUSH1 0x0 KECCAK256 SWAP1 JUMPDEST DUP2 SLOAD DUP2 MSTORE PUSH1 0x20 ADD SWAP1 PUSH1 0x1 ADD SWAP1 DUP1 DUP4 GT PUSH2 0x1722 JUMPI JUMPDEST POP POP POP POP POP SWAP2 POP POP SWAP2 SWAP4 SWAP1 SWAP3 POP JUMP JUMPDEST PUSH1 0x0 PUSH2 0x174F PUSH2 0x1896 JUMP JUMPDEST PUSH2 0x175C PUSH2 0x103 DUP7 DUP7 PUSH2 0x2663 JUMP JUMPDEST POP PUSH2 0x176A PUSH2 0x102 DUP5 DUP5 PUSH2 0x2663 JUMP JUMPDEST POP PUSH1 0x1 SWAP6 SWAP5 POP POP POP POP POP JUMP JUMPDEST PUSH2 0x177E PUSH2 0x1896 JUMP JUMPDEST PUSH2 0x105 SSTORE JUMP JUMPDEST PUSH1 0x0 PUSH2 0x178E PUSH2 0x1896 JUMP JUMPDEST POP PUSH1 0xFE DUP1 SLOAD PUSH1 0x1 PUSH1 0x1 PUSH1 0xA0 SHL SUB NOT AND PUSH1 0x1 PUSH1 0x1 PUSH1 0xA0 SHL SUB SWAP3 SWAP1 SWAP3 AND SWAP2 DUP3 OR SWAP1 SSTORE SWAP1 JUMP JUMPDEST PUSH1 0x0 PUSH2 0x17BB PUSH2 0x1896 JUMP JUMPDEST POP PUSH2 0x104 DUP2 SWAP1 SSTORE SWAP1 JUMP JUMPDEST PUSH2 0x17CD PUSH2 0x1896 JUMP JUMPDEST PUSH1 0x1 PUSH1 0x1 PUSH1 0xA0 SHL SUB DUP2 AND PUSH2 0x1832 JUMPI PUSH1 0x40 MLOAD PUSH3 0x461BCD PUSH1 0xE5 SHL DUP2 MSTORE PUSH1 0x20 PUSH1 0x4 DUP3 ADD MSTORE PUSH1 0x26 PUSH1 0x24 DUP3 ADD MSTORE PUSH32 0x4F776E61626C653A206E6577206F776E657220697320746865207A65726F2061 PUSH1 0x44 DUP3 ADD MSTORE PUSH6 0x646472657373 PUSH1 0xD0 SHL PUSH1 0x64 DUP3 ADD MSTORE PUSH1 0x84 ADD PUSH2 0xADF JUMP JUMPDEST PUSH2 0xC17 DUP2 PUSH2 0x202F JUMP JUMPDEST PUSH1 0x0 PUSH2 0x102 PUSH1 0x0 DUP2 SLOAD DUP2 LT PUSH2 0x1852 JUMPI PUSH2 0x1852 PUSH2 0x2C0A JUMP JUMPDEST SWAP1 PUSH1 0x0 MSTORE PUSH1 0x20 PUSH1 0x0 KECCAK256 ADD SLOAD SWAP1 POP SWAP1 JUMP JUMPDEST PUSH2 0x102 DUP1 SLOAD PUSH1 0x0 SWAP2 PUSH2 0x1875 PUSH1 0x1 DUP4 PUSH2 0x2C6E JUMP JUMPDEST DUP2 SLOAD DUP2 LT PUSH2 0x1885 JUMPI PUSH2 0x1885 PUSH2 0x2C0A JUMP JUMPDEST SWAP1 PUSH1 0x0 MSTORE PUSH1 0x20 PUSH1 0x0 KECCAK256 ADD SLOAD SWAP2 POP POP SWAP1 JUMP JUMPDEST PUSH1 0x65 SLOAD PUSH1 0x1 PUSH1 0x1 PUSH1 0xA0 SHL SUB AND CALLER EQ PUSH2 0xC2A JUMPI PUSH1 0x40 MLOAD PUSH3 0x461BCD PUSH1 0xE5 SHL DUP2 MSTORE PUSH1 0x20 PUSH1 0x4 DUP3 ADD DUP2 SWAP1 MSTORE PUSH1 0x24 DUP3 ADD MSTORE PUSH32 0x4F776E61626C653A2063616C6C6572206973206E6F7420746865206F776E6572 PUSH1 0x44 DUP3 ADD MSTORE PUSH1 0x64 ADD PUSH2 0xADF JUMP JUMPDEST PUSH1 0x1 PUSH1 0x1 PUSH1 0xA0 SHL SUB DUP3 AND PUSH1 0x0 SWAP1 DUP2 MSTORE PUSH2 0x106 PUSH1 0x20 SWAP1 DUP2 MSTORE PUSH1 0x40 DUP1 DUP4 KECCAK256 DUP5 DUP5 MSTORE SWAP1 SWAP2 MSTORE DUP2 KECCAK256 DUP1 SLOAD PUSH2 0x1962 JUMPI PUSH1 0x40 MLOAD PUSH3 0x461BCD PUSH1 0xE5 SHL DUP2 MSTORE PUSH1 0x20 PUSH1 0x4 DUP3 ADD MSTORE PUSH1 0x18 PUSH1 0x24 DUP3 ADD MSTORE PUSH32 0x596F752068617665206E6F207374616B696E67207965742E0000000000000000 PUSH1 0x44 DUP3 ADD MSTORE PUSH1 0x64 ADD PUSH2 0xADF JUMP JUMPDEST PUSH1 0x0 PUSH2 0x196E DUP6 DUP6 PUSH2 0x2189 JUMP JUMPDEST SWAP1 POP DUP1 DUP3 PUSH1 0x4 ADD PUSH1 0x0 DUP3 DUP3 SLOAD PUSH2 0x1984 SWAP2 SWAP1 PUSH2 0x2C20 JUMP JUMPDEST SWAP1 SWAP2 SSTORE POP POP PUSH1 0x1 PUSH1 0x1 PUSH1 0xA0 SHL SUB DUP6 AND PUSH1 0x0 DUP2 DUP2 MSTORE PUSH2 0x108 PUSH1 0x20 SWAP1 DUP2 MSTORE PUSH1 0x40 DUP1 DUP4 KECCAK256 DUP1 SLOAD PUSH1 0x1 DUP2 ADD DUP3 SSTORE SWAP1 DUP5 MSTORE DUP3 DUP5 KECCAK256 ADD DUP6 SWAP1 SSTORE SWAP3 DUP3 MSTORE PUSH2 0x109 SWAP1 MSTORE KECCAK256 TIMESTAMP DUP2 SLOAD PUSH1 0x1 DUP2 ADD DUP4 SSTORE PUSH1 0x0 SWAP3 DUP4 MSTORE PUSH1 0x20 DUP4 KECCAK256 ADD SSTORE PUSH2 0x101 DUP1 SLOAD DUP4 SWAP3 SWAP1 PUSH2 0x19E7 SWAP1 DUP5 SWAP1 PUSH2 0x2C20 JUMP JUMPDEST SWAP1 SWAP2 SSTORE POP POP PUSH1 0x40 MLOAD DUP5 SWAP1 DUP3 SWAP1 PUSH1 0x1 PUSH1 0x1 PUSH1 0xA0 SHL SUB DUP9 AND SWAP1 PUSH32 0xD6AB86E55E7211DDDCDA4C7C65E9E1C75F06B5DA6B05222F8CD39B93986FECAD SWAP1 PUSH1 0x0 SWAP1 LOG4 PUSH1 0xFE SLOAD PUSH1 0x40 MLOAD PUSH4 0x5D16579 PUSH1 0xE4 SHL DUP2 MSTORE PUSH1 0x4 DUP2 ADD DUP4 SWAP1 MSTORE PUSH1 0x1 PUSH1 0x1 PUSH1 0xA0 SHL SUB DUP8 DUP2 AND PUSH1 0x24 DUP4 ADD MSTORE SWAP1 SWAP2 AND SWAP1 PUSH4 0x5D165790 SWAP1 PUSH1 0x44 ADD PUSH1 0x20 PUSH1 0x40 MLOAD DUP1 DUP4 SUB DUP2 PUSH1 0x0 DUP8 GAS CALL ISZERO DUP1 ISZERO PUSH2 0x1A77 JUMPI RETURNDATASIZE PUSH1 0x0 DUP1 RETURNDATACOPY RETURNDATASIZE PUSH1 0x0 REVERT JUMPDEST POP POP POP POP PUSH1 0x40 MLOAD RETURNDATASIZE PUSH1 0x1F NOT PUSH1 0x1F DUP3 ADD AND DUP3 ADD DUP1 PUSH1 0x40 MSTORE POP DUP2 ADD SWAP1 PUSH2 0x1A9B SWAP2 SWAP1 PUSH2 0x2C81 JUMP JUMPDEST POP SWAP5 SWAP4 POP POP POP POP JUMP JUMPDEST PUSH1 0x40 MLOAD PUSH4 0x23B872DD PUSH1 0xE0 SHL DUP2 MSTORE PUSH1 0x1 PUSH1 0x1 PUSH1 0xA0 SHL SUB DUP5 DUP2 AND PUSH1 0x4 DUP4 ADD MSTORE DUP4 DUP2 AND PUSH1 0x24 DUP4 ADD MSTORE PUSH1 0x44 DUP3 ADD DUP4 SWAP1 MSTORE DUP6 AND SWAP1 PUSH4 0x23B872DD SWAP1 PUSH1 0x64 ADD PUSH1 0x20 PUSH1 0x40 MLOAD DUP1 DUP4 SUB DUP2 PUSH1 0x0 DUP8 GAS CALL ISZERO DUP1 ISZERO PUSH2 0x1AFB JUMPI RETURNDATASIZE PUSH1 0x0 DUP1 RETURNDATACOPY RETURNDATASIZE PUSH1 0x0 REVERT JUMPDEST POP POP POP POP PUSH1 0x40 MLOAD RETURNDATASIZE PUSH1 0x1F NOT PUSH1 0x1F DUP3 ADD AND DUP3 ADD DUP1 PUSH1 0x40 MSTORE POP DUP2 ADD SWAP1 PUSH2 0x1B1F SWAP2 SWAP1 PUSH2 0x2C81 JUMP JUMPDEST POP POP POP POP POP JUMP JUMPDEST PUSH1 0x0 PUSH2 0x1B30 PUSH2 0x1862 JUMP JUMPDEST DUP3 GT ISZERO DUP1 ISZERO PUSH2 0x1B46 JUMPI POP PUSH2 0x1B42 PUSH2 0x183B JUMP JUMPDEST DUP3 LT ISZERO JUMPDEST PUSH2 0x1BCA JUMPI PUSH1 0x40 MLOAD PUSH3 0x461BCD PUSH1 0xE5 SHL DUP2 MSTORE PUSH1 0x20 PUSH1 0x4 DUP3 ADD MSTORE PUSH1 0x49 PUSH1 0x24 DUP3 ADD MSTORE PUSH32 0x5374616B696E67206475726174696F6E206D757374206265203E3D206D696E53 PUSH1 0x44 DUP3 ADD MSTORE PUSH32 0x74616B696E674475726174696F6E20616E64203C3D206D61785374616B696E67 PUSH1 0x64 DUP3 ADD MSTORE PUSH9 0x223AB930BA34B7B717 PUSH1 0xB9 SHL PUSH1 0x84 DUP3 ADD MSTORE PUSH1 0xA4 ADD PUSH2 0xADF JUMP JUMPDEST PUSH2 0x104 SLOAD DUP4 LT ISZERO PUSH2 0x1C31 JUMPI PUSH1 0x40 MLOAD PUSH3 0x461BCD PUSH1 0xE5 SHL DUP2 MSTORE PUSH1 0x20 PUSH1 0x4 DUP3 ADD MSTORE PUSH1 0x2B PUSH1 0x24 DUP3 ADD MSTORE PUSH32 0x5374616B696E672076616C75652073686F756C64206265203E3D206D696E5374 PUSH1 0x44 DUP3 ADD MSTORE PUSH11 0x30B5B4B733AB30B63AB297 PUSH1 0xA9 SHL PUSH1 0x64 DUP3 ADD MSTORE PUSH1 0x84 ADD PUSH2 0xADF JUMP JUMPDEST PUSH1 0x0 PUSH1 0xFF SLOAD PUSH1 0x1 PUSH2 0x1C42 SWAP2 SWAP1 PUSH2 0x2C20 JUMP JUMPDEST PUSH1 0x1 PUSH1 0x1 PUSH1 0xA0 SHL SUB DUP7 AND PUSH1 0x0 SWAP1 DUP2 MSTORE PUSH2 0x106 PUSH1 0x20 SWAP1 DUP2 MSTORE PUSH1 0x40 DUP1 DUP4 KECCAK256 DUP5 DUP5 MSTORE SWAP1 SWAP2 MSTORE SWAP1 KECCAK256 DUP6 DUP2 SSTORE SWAP1 SWAP2 POP PUSH2 0x1C75 DUP5 PUSH2 0x2236 JUMP JUMPDEST PUSH1 0x1 DUP3 ADD SSTORE TIMESTAMP PUSH1 0x2 DUP3 ADD SSTORE DUP4 TIMESTAMP PUSH2 0x1C8C SWAP2 SWAP1 PUSH2 0x2C20 JUMP JUMPDEST PUSH1 0x3 DUP3 ADD SSTORE PUSH1 0x1 PUSH1 0x1 PUSH1 0xA0 SHL SUB DUP7 AND PUSH1 0x0 SWAP1 DUP2 MSTORE PUSH2 0x107 PUSH1 0x20 SWAP1 DUP2 MSTORE PUSH1 0x40 DUP3 KECCAK256 DUP1 SLOAD PUSH1 0x1 DUP2 ADD DUP3 SSTORE SWAP1 DUP4 MSTORE SWAP1 DUP3 KECCAK256 ADD DUP4 SWAP1 SSTORE PUSH1 0xFF DUP1 SLOAD SWAP2 PUSH2 0x1CCC DUP4 PUSH2 0x2C33 JUMP JUMPDEST SWAP2 SWAP1 POP SSTORE POP DUP5 PUSH2 0x100 PUSH1 0x0 DUP3 DUP3 SLOAD PUSH2 0x1CE4 SWAP2 SWAP1 PUSH2 0x2C20 JUMP JUMPDEST SWAP3 POP POP DUP2 SWAP1 SSTORE POP DUP4 DUP6 DUP8 PUSH1 0x1 PUSH1 0x1 PUSH1 0xA0 SHL SUB AND PUSH32 0xF556991011E831BCFAC4F406D547E5E32CDD98267EFAB83935230D5F8D02C446 DUP6 PUSH1 0x40 MLOAD PUSH2 0x1D28 SWAP2 DUP2 MSTORE PUSH1 0x20 ADD SWAP1 JUMP JUMPDEST PUSH1 0x40 MLOAD DUP1 SWAP2 SUB SWAP1 LOG4 POP PUSH1 0x1 SWAP6 SWAP5 POP POP POP POP POP JUMP JUMPDEST PUSH2 0xC17 PUSH2 0x1896 JUMP JUMPDEST PUSH32 0x4910FDFA16FED3260ED0E7147F7CC6DA11A60208B5B9406D12A635614FFD9143 SLOAD PUSH1 0xFF AND ISZERO PUSH2 0x1D7C JUMPI PUSH2 0x1D77 DUP4 PUSH2 0x22E8 JUMP JUMPDEST POP POP POP JUMP JUMPDEST DUP3 PUSH1 0x1 PUSH1 0x1 PUSH1 0xA0 SHL SUB AND PUSH4 0x52D1902D PUSH1 0x40 MLOAD DUP2 PUSH4 0xFFFFFFFF AND PUSH1 0xE0 SHL DUP2 MSTORE PUSH1 0x4 ADD PUSH1 0x20 PUSH1 0x40 MLOAD DUP1 DUP4 SUB DUP2 DUP7 GAS STATICCALL SWAP3 POP POP POP DUP1 ISZERO PUSH2 0x1DD6 JUMPI POP PUSH1 0x40 DUP1 MLOAD PUSH1 0x1F RETURNDATASIZE SWAP1 DUP2 ADD PUSH1 0x1F NOT AND DUP3 ADD SWAP1 SWAP3 MSTORE PUSH2 0x1DD3 SWAP2 DUP2 ADD SWAP1 PUSH2 0x2B2C JUMP JUMPDEST PUSH1 0x1 JUMPDEST PUSH2 0x1E39 JUMPI PUSH1 0x40 MLOAD PUSH3 0x461BCD PUSH1 0xE5 SHL DUP2 MSTORE PUSH1 0x20 PUSH1 0x4 DUP3 ADD MSTORE PUSH1 0x2E PUSH1 0x24 DUP3 ADD MSTORE PUSH32 0x45524331393637557067726164653A206E657720696D706C656D656E74617469 PUSH1 0x44 DUP3 ADD MSTORE PUSH14 0x6F6E206973206E6F742055555053 PUSH1 0x90 SHL PUSH1 0x64 DUP3 ADD MSTORE PUSH1 0x84 ADD PUSH2 0xADF JUMP JUMPDEST PUSH1 0x0 DUP1 MLOAD PUSH1 0x20 PUSH2 0x2D54 DUP4 CODECOPY DUP2 MLOAD SWAP2 MSTORE DUP2 EQ PUSH2 0x1EA8 JUMPI PUSH1 0x40 MLOAD PUSH3 0x461BCD PUSH1 0xE5 SHL DUP2 MSTORE PUSH1 0x20 PUSH1 0x4 DUP3 ADD MSTORE PUSH1 0x29 PUSH1 0x24 DUP3 ADD MSTORE PUSH32 0x45524331393637557067726164653A20756E737570706F727465642070726F78 PUSH1 0x44 DUP3 ADD MSTORE PUSH9 0x1A58589B1955555251 PUSH1 0xBA SHL PUSH1 0x64 DUP3 ADD MSTORE PUSH1 0x84 ADD PUSH2 0xADF JUMP JUMPDEST POP PUSH2 0x1D77 DUP4 DUP4 DUP4 PUSH2 0x2384 JUMP JUMPDEST PUSH2 0x1EBC PUSH2 0x23AF JUMP JUMPDEST PUSH1 0x33 DUP1 SLOAD PUSH1 0xFF NOT AND SWAP1 SSTORE PUSH32 0x5DB9EE0A495BF2E6FF9C91A7834C1BA4FDD244A5E8AA4E537BD38AEAE4B073AA CALLER JUMPDEST PUSH1 0x40 MLOAD PUSH1 0x1 PUSH1 0x1 PUSH1 0xA0 SHL SUB SWAP1 SWAP2 AND DUP2 MSTORE PUSH1 0x20 ADD PUSH1 0x40 MLOAD DUP1 SWAP2 SUB SWAP1 LOG1 JUMP JUMPDEST PUSH1 0x1 PUSH1 0x1 PUSH1 0xA0 SHL SUB DUP3 AND PUSH1 0x0 SWAP1 DUP2 MSTORE PUSH2 0x106 PUSH1 0x20 SWAP1 DUP2 MSTORE PUSH1 0x40 DUP1 DUP4 KECCAK256 DUP5 DUP5 MSTORE SWAP1 SWAP2 MSTORE DUP2 KECCAK256 DUP1 SLOAD DUP1 ISZERO DUP1 ISZERO SWAP1 PUSH2 0x1F3F JUMPI POP PUSH1 0x3 DUP3 ADD SLOAD TIMESTAMP LT ISZERO JUMPDEST PUSH2 0x1FA8 JUMPI PUSH1 0x40 MLOAD PUSH3 0x461BCD PUSH1 0xE5 SHL DUP2 MSTORE PUSH1 0x20 PUSH1 0x4 DUP3 ADD MSTORE PUSH1 0x34 PUSH1 0x24 DUP3 ADD MSTORE PUSH32 0x596F7572207374616B696E67206973206E6F74206F766572206F7220796F7520 PUSH1 0x44 DUP3 ADD MSTORE PUSH20 0x3430BB329037379039BA30B5B4B733903CB2BA17 PUSH1 0x61 SHL PUSH1 0x64 DUP3 ADD MSTORE PUSH1 0x84 ADD PUSH2 0xADF JUMP JUMPDEST PUSH1 0x0 DUP1 DUP4 SSTORE PUSH1 0x1 DUP4 ADD DUP2 SWAP1 SSTORE PUSH1 0x2 DUP4 ADD DUP2 SWAP1 SSTORE PUSH1 0x3 DUP4 ADD DUP2 SWAP1 SSTORE PUSH2 0x100 DUP1 SLOAD DUP4 SWAP3 SWAP1 PUSH2 0x1FD5 SWAP1 DUP5 SWAP1 PUSH2 0x2C6E JUMP JUMPDEST SWAP1 SWAP2 SSTORE POP POP PUSH1 0xFF DUP1 SLOAD SWAP1 PUSH1 0x0 PUSH2 0x1FEA DUP4 PUSH2 0x2CC2 JUMP JUMPDEST SWAP2 SWAP1 POP SSTORE POP DUP4 DUP2 DUP7 PUSH1 0x1 PUSH1 0x1 PUSH1 0xA0 SHL SUB AND PUSH32 0xF960DBF9E5D0682F7A298ED974E33A28B4464914B7A2BFAC12AE419A9AFEB280 PUSH1 0x40 MLOAD PUSH1 0x40 MLOAD DUP1 SWAP2 SUB SWAP1 LOG4 SWAP5 SWAP4 POP POP POP POP JUMP JUMPDEST PUSH1 0x65 DUP1 SLOAD PUSH1 0x1 PUSH1 0x1 PUSH1 0xA0 SHL SUB DUP4 DUP2 AND PUSH1 0x1 PUSH1 0x1 PUSH1 0xA0 SHL SUB NOT DUP4 AND DUP2 OR SWAP1 SWAP4 SSTORE PUSH1 0x40 MLOAD SWAP2 AND SWAP2 SWAP1 DUP3 SWAP1 PUSH32 0x8BE0079C531659141344CD1FD0A4F28419497F9722A3DAAFE3B4186F6B6457E0 SWAP1 PUSH1 0x0 SWAP1 LOG3 POP POP JUMP JUMPDEST PUSH1 0x33 SLOAD PUSH1 0xFF AND ISZERO PUSH2 0xC2A JUMPI PUSH1 0x40 MLOAD PUSH3 0x461BCD PUSH1 0xE5 SHL DUP2 MSTORE PUSH1 0x20 PUSH1 0x4 DUP3 ADD MSTORE PUSH1 0x10 PUSH1 0x24 DUP3 ADD MSTORE PUSH16 0x14185D5CD8589B194E881C185D5CD959 PUSH1 0x82 SHL PUSH1 0x44 DUP3 ADD MSTORE PUSH1 0x64 ADD PUSH2 0xADF JUMP JUMPDEST PUSH1 0x0 SLOAD PUSH2 0x100 SWAP1 DIV PUSH1 0xFF AND PUSH2 0x20EE JUMPI PUSH1 0x40 MLOAD PUSH3 0x461BCD PUSH1 0xE5 SHL DUP2 MSTORE PUSH1 0x4 ADD PUSH2 0xADF SWAP1 PUSH2 0x2CD9 JUMP JUMPDEST PUSH2 0xC2A PUSH2 0x23F8 JUMP JUMPDEST PUSH1 0x0 SLOAD PUSH2 0x100 SWAP1 DIV PUSH1 0xFF AND PUSH2 0x211D JUMPI PUSH1 0x40 MLOAD PUSH3 0x461BCD PUSH1 0xE5 SHL DUP2 MSTORE PUSH1 0x4 ADD PUSH2 0xADF SWAP1 PUSH2 0x2CD9 JUMP JUMPDEST PUSH2 0xC2A PUSH2 0x242B JUMP JUMPDEST PUSH1 0x0 SLOAD PUSH2 0x100 SWAP1 DIV PUSH1 0xFF AND PUSH2 0xC2A JUMPI PUSH1 0x40 MLOAD PUSH3 0x461BCD PUSH1 0xE5 SHL DUP2 MSTORE PUSH1 0x4 ADD PUSH2 0xADF SWAP1 PUSH2 0x2CD9 JUMP JUMPDEST PUSH2 0x2154 PUSH2 0x2081 JUMP JUMPDEST PUSH1 0x33 DUP1 SLOAD PUSH1 0xFF NOT AND PUSH1 0x1 OR SWAP1 SSTORE PUSH32 0x62E78CEA01BEE320CD4E420270B5EA74000D11B0C9F74754EBDBFC544B05A258 PUSH2 0x1EE9 CALLER SWAP1 JUMP JUMPDEST PUSH1 0x1 PUSH1 0x1 PUSH1 0xA0 SHL SUB DUP3 AND PUSH1 0x0 SWAP1 DUP2 MSTORE PUSH2 0x106 PUSH1 0x20 SWAP1 DUP2 MSTORE PUSH1 0x40 DUP1 DUP4 KECCAK256 DUP5 DUP5 MSTORE SWAP1 SWAP2 MSTORE DUP2 KECCAK256 DUP1 SLOAD PUSH1 0x2 DUP3 ADD SLOAD PUSH1 0x3 DUP4 ADD SLOAD PUSH1 0x1 DUP5 ADD SLOAD DUP6 SWAP1 PUSH3 0x278D00 SWAP1 PUSH1 0x64 SWAP1 PUSH2 0x21D2 SWAP1 DUP8 PUSH2 0x2B5B JUMP JUMPDEST PUSH2 0x21DC SWAP2 SWAP1 PUSH2 0x2C4C JUMP JUMPDEST PUSH2 0x21E6 SWAP2 SWAP1 PUSH2 0x2C4C JUMP JUMPDEST SWAP1 POP PUSH1 0x0 PUSH2 0x21F4 DUP5 TIMESTAMP PUSH2 0x2C6E JUMP JUMPDEST SWAP1 POP DUP6 PUSH1 0x4 ADD SLOAD PUSH2 0x2215 PUSH2 0x2208 DUP6 DUP5 PUSH2 0x245B JUMP JUMPDEST PUSH2 0x2210 PUSH2 0x1862 JUMP JUMPDEST PUSH2 0x245B JUMP JUMPDEST PUSH2 0x221F SWAP1 DUP5 PUSH2 0x2B5B JUMP JUMPDEST PUSH2 0x2229 SWAP2 SWAP1 PUSH2 0x2C6E JUMP JUMPDEST SWAP10 SWAP9 POP POP POP POP POP POP POP POP POP JUMP JUMPDEST PUSH2 0x102 SLOAD PUSH1 0x0 SWAP1 DUP3 SWAP1 DUP3 JUMPDEST DUP2 DUP2 PUSH1 0xFF AND LT ISZERO PUSH2 0xD09 JUMPI PUSH2 0x102 DUP2 PUSH1 0xFF AND DUP2 SLOAD DUP2 LT PUSH2 0x2263 JUMPI PUSH2 0x2263 PUSH2 0x2C0A JUMP JUMPDEST SWAP1 PUSH1 0x0 MSTORE PUSH1 0x20 PUSH1 0x0 KECCAK256 ADD SLOAD DUP4 GT PUSH2 0x229D JUMPI PUSH2 0x103 DUP2 PUSH1 0xFF AND DUP2 SLOAD DUP2 LT PUSH2 0x228B JUMPI PUSH2 0x228B PUSH2 0x2C0A JUMP JUMPDEST SWAP1 PUSH1 0x0 MSTORE PUSH1 0x20 PUSH1 0x0 KECCAK256 ADD SLOAD SWAP4 POP PUSH2 0xD09 JUMP JUMPDEST PUSH2 0x22A8 PUSH1 0x1 DUP4 PUSH2 0x2C6E JUMP JUMPDEST DUP2 PUSH1 0xFF AND SUB PUSH2 0x22D6 JUMPI PUSH2 0x103 DUP2 PUSH1 0xFF AND DUP2 SLOAD DUP2 LT PUSH2 0x22C8 JUMPI PUSH2 0x22C8 PUSH2 0x2C0A JUMP JUMPDEST SWAP1 PUSH1 0x0 MSTORE PUSH1 0x20 PUSH1 0x0 KECCAK256 ADD SLOAD SWAP4 POP JUMPDEST DUP1 PUSH2 0x22E0 DUP2 PUSH2 0x2CA3 JUMP JUMPDEST SWAP2 POP POP PUSH2 0x2241 JUMP JUMPDEST PUSH1 0x1 PUSH1 0x1 PUSH1 0xA0 SHL SUB DUP2 AND EXTCODESIZE PUSH2 0x2355 JUMPI PUSH1 0x40 MLOAD PUSH3 0x461BCD PUSH1 0xE5 SHL DUP2 MSTORE PUSH1 0x20 PUSH1 0x4 DUP3 ADD MSTORE PUSH1 0x2D PUSH1 0x24 DUP3 ADD MSTORE PUSH32 0x455243313936373A206E657720696D706C656D656E746174696F6E206973206E PUSH1 0x44 DUP3 ADD MSTORE PUSH13 0x1BDD08184818DBDB9D1C9858DD PUSH1 0x9A SHL PUSH1 0x64 DUP3 ADD MSTORE PUSH1 0x84 ADD PUSH2 0xADF JUMP JUMPDEST PUSH1 0x0 DUP1 MLOAD PUSH1 0x20 PUSH2 0x2D54 DUP4 CODECOPY DUP2 MLOAD SWAP2 MSTORE DUP1 SLOAD PUSH1 0x1 PUSH1 0x1 PUSH1 0xA0 SHL SUB NOT AND PUSH1 0x1 PUSH1 0x1 PUSH1 0xA0 SHL SUB SWAP3 SWAP1 SWAP3 AND SWAP2 SWAP1 SWAP2 OR SWAP1 SSTORE JUMP JUMPDEST PUSH2 0x238D DUP4 PUSH2 0x2471 JUMP JUMPDEST PUSH1 0x0 DUP3 MLOAD GT DUP1 PUSH2 0x239A JUMPI POP DUP1 JUMPDEST ISZERO PUSH2 0x1D77 JUMPI PUSH2 0x23A9 DUP4 DUP4 PUSH2 0x24B1 JUMP JUMPDEST POP POP POP POP JUMP JUMPDEST PUSH1 0x33 SLOAD PUSH1 0xFF AND PUSH2 0xC2A JUMPI PUSH1 0x40 MLOAD PUSH3 0x461BCD PUSH1 0xE5 SHL DUP2 MSTORE PUSH1 0x20 PUSH1 0x4 DUP3 ADD MSTORE PUSH1 0x14 PUSH1 0x24 DUP3 ADD MSTORE PUSH20 0x14185D5CD8589B194E881B9BDD081C185D5CD959 PUSH1 0x62 SHL PUSH1 0x44 DUP3 ADD MSTORE PUSH1 0x64 ADD PUSH2 0xADF JUMP JUMPDEST PUSH1 0x0 SLOAD PUSH2 0x100 SWAP1 DIV PUSH1 0xFF AND PUSH2 0x241F JUMPI PUSH1 0x40 MLOAD PUSH3 0x461BCD PUSH1 0xE5 SHL DUP2 MSTORE PUSH1 0x4 ADD PUSH2 0xADF SWAP1 PUSH2 0x2CD9 JUMP JUMPDEST PUSH1 0x33 DUP1 SLOAD PUSH1 0xFF NOT AND SWAP1 SSTORE JUMP JUMPDEST PUSH1 0x0 SLOAD PUSH2 0x100 SWAP1 DIV PUSH1 0xFF AND PUSH2 0x2452 JUMPI PUSH1 0x40 MLOAD PUSH3 0x461BCD PUSH1 0xE5 SHL DUP2 MSTORE PUSH1 0x4 ADD PUSH2 0xADF SWAP1 PUSH2 0x2CD9 JUMP JUMPDEST PUSH2 0xC2A CALLER PUSH2 0x202F JUMP JUMPDEST PUSH1 0x0 DUP2 DUP4 LT PUSH2 0x246A JUMPI DUP2 PUSH2 0xAF7 JUMP JUMPDEST POP SWAP1 SWAP2 SWAP1 POP JUMP JUMPDEST PUSH2 0x247A DUP2 PUSH2 0x22E8 JUMP JUMPDEST PUSH1 0x40 MLOAD PUSH1 0x1 PUSH1 0x1 PUSH1 0xA0 SHL SUB DUP3 AND SWAP1 PUSH32 0xBC7CD75A20EE27FD9ADEBAB32041F755214DBC6BFFA90CC0225B39DA2E5C2D3B SWAP1 PUSH1 0x0 SWAP1 LOG2 POP JUMP JUMPDEST PUSH1 0x60 PUSH1 0x1 PUSH1 0x1 PUSH1 0xA0 SHL SUB DUP4 AND EXTCODESIZE PUSH2 0x2519 JUMPI PUSH1 0x40 MLOAD PUSH3 0x461BCD PUSH1 0xE5 SHL DUP2 MSTORE PUSH1 0x20 PUSH1 0x4 DUP3 ADD MSTORE PUSH1 0x26 PUSH1 0x24 DUP3 ADD MSTORE PUSH32 0x416464726573733A2064656C65676174652063616C6C20746F206E6F6E2D636F PUSH1 0x44 DUP3 ADD MSTORE PUSH6 0x1B9D1C9858DD PUSH1 0xD2 SHL PUSH1 0x64 DUP3 ADD MSTORE PUSH1 0x84 ADD PUSH2 0xADF JUMP JUMPDEST PUSH1 0x0 DUP1 DUP5 PUSH1 0x1 PUSH1 0x1 PUSH1 0xA0 SHL SUB AND DUP5 PUSH1 0x40 MLOAD PUSH2 0x2534 SWAP2 SWAP1 PUSH2 0x2D24 JUMP JUMPDEST PUSH1 0x0 PUSH1 0x40 MLOAD DUP1 DUP4 SUB DUP2 DUP6 GAS DELEGATECALL SWAP2 POP POP RETURNDATASIZE DUP1 PUSH1 0x0 DUP2 EQ PUSH2 0x256F JUMPI PUSH1 0x40 MLOAD SWAP2 POP PUSH1 0x1F NOT PUSH1 0x3F RETURNDATASIZE ADD AND DUP3 ADD PUSH1 0x40 MSTORE RETURNDATASIZE DUP3 MSTORE RETURNDATASIZE PUSH1 0x0 PUSH1 0x20 DUP5 ADD RETURNDATACOPY PUSH2 0x2574 JUMP JUMPDEST PUSH1 0x60 SWAP2 POP JUMPDEST POP SWAP2 POP SWAP2 POP PUSH2 0xB32 DUP3 DUP3 PUSH1 0x40 MLOAD DUP1 PUSH1 0x60 ADD PUSH1 0x40 MSTORE DUP1 PUSH1 0x27 DUP2 MSTORE PUSH1 0x20 ADD PUSH2 0x2D74 PUSH1 0x27 SWAP2 CODECOPY PUSH1 0x60 DUP4 ISZERO PUSH2 0x25A6 JUMPI POP DUP2 PUSH2 0xAF7 JUMP JUMPDEST DUP3 MLOAD ISZERO PUSH2 0x25B6 JUMPI DUP3 MLOAD DUP1 DUP5 PUSH1 0x20 ADD REVERT JUMPDEST DUP2 PUSH1 0x40 MLOAD PUSH3 0x461BCD PUSH1 0xE5 SHL DUP2 MSTORE PUSH1 0x4 ADD PUSH2 0xADF SWAP2 SWAP1 PUSH2 0x2D40 JUMP JUMPDEST DUP3 DUP1 SLOAD DUP3 DUP3 SSTORE SWAP1 PUSH1 0x0 MSTORE PUSH1 0x20 PUSH1 0x0 KECCAK256 SWAP1 DUP2 ADD SWAP3 DUP3 ISZERO PUSH2 0x2613 JUMPI SWAP2 PUSH1 0x20 MUL DUP3 ADD JUMPDEST DUP3 DUP2 GT ISZERO PUSH2 0x2613 JUMPI DUP3 MLOAD DUP3 SWAP1 PUSH4 0xFFFFFFFF AND SWAP1 SSTORE SWAP2 PUSH1 0x20 ADD SWAP2 SWAP1 PUSH1 0x1 ADD SWAP1 PUSH2 0x25F0 JUMP JUMPDEST POP PUSH2 0x261F SWAP3 SWAP2 POP PUSH2 0x269E JUMP JUMPDEST POP SWAP1 JUMP JUMPDEST DUP3 DUP1 SLOAD DUP3 DUP3 SSTORE SWAP1 PUSH1 0x0 MSTORE PUSH1 0x20 PUSH1 0x0 KECCAK256 SWAP1 DUP2 ADD SWAP3 DUP3 ISZERO PUSH2 0x2613 JUMPI SWAP2 PUSH1 0x20 MUL DUP3 ADD JUMPDEST DUP3 DUP2 GT ISZERO PUSH2 0x2613 JUMPI DUP3 MLOAD DUP3 SWAP1 PUSH1 0xFF AND SWAP1 SSTORE SWAP2 PUSH1 0x20 ADD SWAP2 SWAP1 PUSH1 0x1 ADD SWAP1 PUSH2 0x2643 JUMP JUMPDEST DUP3 DUP1 SLOAD DUP3 DUP3 SSTORE SWAP1 PUSH1 0x0 MSTORE PUSH1 0x20 PUSH1 0x0 KECCAK256 SWAP1 DUP2 ADD SWAP3 DUP3 ISZERO PUSH2 0x2613 JUMPI SWAP2 PUSH1 0x20 MUL DUP3 ADD JUMPDEST DUP3 DUP2 GT ISZERO PUSH2 0x2613 JUMPI DUP3 CALLDATALOAD DUP3 SSTORE SWAP2 PUSH1 0x20 ADD SWAP2 SWAP1 PUSH1 0x1 ADD SWAP1 PUSH2 0x2683 JUMP JUMPDEST JUMPDEST DUP1 DUP3 GT ISZERO PUSH2 0x261F JUMPI PUSH1 0x0 DUP2 SSTORE PUSH1 0x1 ADD PUSH2 0x269F JUMP JUMPDEST DUP1 CALLDATALOAD PUSH1 0x1 PUSH1 0x1 PUSH1 0xA0 SHL SUB DUP2 AND DUP2 EQ PUSH2 0x836 JUMPI PUSH1 0x0 DUP1 REVERT JUMPDEST PUSH1 0x0 PUSH1 0x20 DUP3 DUP5 SUB SLT ISZERO PUSH2 0x26DC JUMPI PUSH1 0x0 DUP1 REVERT JUMPDEST PUSH2 0xAF7 DUP3 PUSH2 0x26B3 JUMP JUMPDEST PUSH1 0x0 PUSH1 0x20 DUP3 DUP5 SUB SLT ISZERO PUSH2 0x26F7 JUMPI PUSH1 0x0 DUP1 REVERT JUMPDEST POP CALLDATALOAD SWAP2 SWAP1 POP JUMP JUMPDEST PUSH1 0x0 DUP1 PUSH1 0x40 DUP4 DUP6 SUB SLT ISZERO PUSH2 0x2711 JUMPI PUSH1 0x0 DUP1 REVERT JUMPDEST PUSH2 0x271A DUP4 PUSH2 0x26B3 JUMP JUMPDEST SWAP5 PUSH1 0x20 SWAP4 SWAP1 SWAP4 ADD CALLDATALOAD SWAP4 POP POP POP JUMP JUMPDEST PUSH1 0x0 JUMPDEST DUP4 DUP2 LT ISZERO PUSH2 0x2743 JUMPI DUP2 DUP2 ADD MLOAD DUP4 DUP3 ADD MSTORE PUSH1 0x20 ADD PUSH2 0x272B JUMP JUMPDEST POP POP PUSH1 0x0 SWAP2 ADD MSTORE JUMP JUMPDEST PUSH1 0x0 DUP2 MLOAD DUP1 DUP5 MSTORE PUSH2 0x2764 DUP2 PUSH1 0x20 DUP7 ADD PUSH1 0x20 DUP7 ADD PUSH2 0x2728 JUMP JUMPDEST PUSH1 0x1F ADD PUSH1 0x1F NOT AND SWAP3 SWAP1 SWAP3 ADD PUSH1 0x20 ADD SWAP3 SWAP2 POP POP JUMP JUMPDEST PUSH1 0x1 PUSH1 0x1 PUSH1 0xA0 SHL SUB DUP6 AND DUP2 MSTORE PUSH1 0x80 PUSH1 0x20 DUP3 ADD DUP2 SWAP1 MSTORE PUSH1 0x0 SWAP1 PUSH2 0x279C SWAP1 DUP4 ADD DUP7 PUSH2 0x274C JUMP JUMPDEST PUSH1 0x40 DUP4 ADD SWAP5 SWAP1 SWAP5 MSTORE POP PUSH1 0x60 ADD MSTORE SWAP3 SWAP2 POP POP JUMP JUMPDEST PUSH1 0x0 DUP1 PUSH1 0x0 PUSH1 0x60 DUP5 DUP7 SUB SLT ISZERO PUSH2 0x27C4 JUMPI PUSH1 0x0 DUP1 REVERT JUMPDEST PUSH2 0x27CD DUP5 PUSH2 0x26B3 JUMP JUMPDEST SWAP6 PUSH1 0x20 DUP6 ADD CALLDATALOAD SWAP6 POP PUSH1 0x40 SWAP1 SWAP5 ADD CALLDATALOAD SWAP4 SWAP3 POP POP POP JUMP JUMPDEST PUSH4 0x4E487B71 PUSH1 0xE0 SHL PUSH1 0x0 MSTORE PUSH1 0x41 PUSH1 0x4 MSTORE PUSH1 0x24 PUSH1 0x0 REVERT JUMPDEST PUSH1 0x40 MLOAD PUSH1 0x1F DUP3 ADD PUSH1 0x1F NOT AND DUP2 ADD PUSH8 0xFFFFFFFFFFFFFFFF DUP2 GT DUP3 DUP3 LT OR ISZERO PUSH2 0x2821 JUMPI PUSH2 0x2821 PUSH2 0x27E2 JUMP JUMPDEST PUSH1 0x40 MSTORE SWAP2 SWAP1 POP JUMP JUMPDEST PUSH1 0x0 PUSH8 0xFFFFFFFFFFFFFFFF DUP3 GT ISZERO PUSH2 0x2843 JUMPI PUSH2 0x2843 PUSH2 0x27E2 JUMP JUMPDEST POP PUSH1 0x1F ADD PUSH1 0x1F NOT AND PUSH1 0x20 ADD SWAP1 JUMP JUMPDEST PUSH1 0x0 DUP1 PUSH1 0x40 DUP4 DUP6 SUB SLT ISZERO PUSH2 0x2864 JUMPI PUSH1 0x0 DUP1 REVERT JUMPDEST PUSH2 0x286D DUP4 PUSH2 0x26B3 JUMP JUMPDEST SWAP2 POP PUSH1 0x20 DUP4 ADD CALLDATALOAD PUSH8 0xFFFFFFFFFFFFFFFF DUP2 GT ISZERO PUSH2 0x2889 JUMPI PUSH1 0x0 DUP1 REVERT JUMPDEST DUP4 ADD PUSH1 0x1F DUP2 ADD DUP6 SGT PUSH2 0x289A JUMPI PUSH1 0x0 DUP1 REVERT JUMPDEST DUP1 CALLDATALOAD PUSH2 0x28AD PUSH2 0x28A8 DUP3 PUSH2 0x2829 JUMP JUMPDEST PUSH2 0x27F8 JUMP JUMPDEST DUP2 DUP2 MSTORE DUP7 PUSH1 0x20 DUP4 DUP6 ADD ADD GT ISZERO PUSH2 0x28C2 JUMPI PUSH1 0x0 DUP1 REVERT JUMPDEST DUP2 PUSH1 0x20 DUP5 ADD PUSH1 0x20 DUP4 ADD CALLDATACOPY PUSH1 0x0 PUSH1 0x20 DUP4 DUP4 ADD ADD MSTORE DUP1 SWAP4 POP POP POP POP SWAP3 POP SWAP3 SWAP1 POP JUMP JUMPDEST PUSH1 0x0 DUP1 PUSH1 0x0 PUSH1 0x60 DUP5 DUP7 SUB SLT ISZERO PUSH2 0x28F7 JUMPI PUSH1 0x0 DUP1 REVERT JUMPDEST PUSH2 0x2900 DUP5 PUSH2 0x26B3 JUMP JUMPDEST SWAP3 POP PUSH2 0x290E PUSH1 0x20 DUP6 ADD PUSH2 0x26B3 JUMP JUMPDEST SWAP2 POP PUSH1 0x40 DUP5 ADD CALLDATALOAD SWAP1 POP SWAP3 POP SWAP3 POP SWAP3 JUMP JUMPDEST PUSH1 0x0 DUP2 MLOAD DUP1 DUP5 MSTORE PUSH1 0x20 DUP1 DUP6 ADD SWAP5 POP DUP1 DUP5 ADD PUSH1 0x0 JUMPDEST DUP4 DUP2 LT ISZERO PUSH2 0x294E JUMPI DUP2 MLOAD DUP8 MSTORE SWAP6 DUP3 ADD SWAP6 SWAP1 DUP3 ADD SWAP1 PUSH1 0x1 ADD PUSH2 0x2932 JUMP JUMPDEST POP SWAP5 SWAP6 SWAP5 POP POP POP POP POP JUMP JUMPDEST PUSH1 0xA0 DUP2 MSTORE PUSH1 0x0 PUSH2 0x296C PUSH1 0xA0 DUP4 ADD DUP9 PUSH2 0x291E JUMP JUMPDEST DUP3 DUP2 SUB PUSH1 0x20 DUP5 ADD MSTORE PUSH2 0x297E DUP2 DUP9 PUSH2 0x291E JUMP JUMPDEST PUSH1 0x40 DUP5 ADD SWAP7 SWAP1 SWAP7 MSTORE POP POP PUSH1 0x60 DUP2 ADD SWAP3 SWAP1 SWAP3 MSTORE PUSH1 0x80 SWAP1 SWAP2 ADD MSTORE SWAP3 SWAP2 POP POP JUMP JUMPDEST PUSH1 0x20 DUP2 MSTORE PUSH1 0x0 PUSH2 0xAF7 PUSH1 0x20 DUP4 ADD DUP5 PUSH2 0x291E JUMP JUMPDEST PUSH1 0x0 DUP1 PUSH1 0x40 DUP4 DUP6 SUB SLT ISZERO PUSH2 0x29C2 JUMPI PUSH1 0x0 DUP1 REVERT JUMPDEST POP POP DUP1 CALLDATALOAD SWAP3 PUSH1 0x20 SWAP1 SWAP2 ADD CALLDATALOAD SWAP2 POP JUMP JUMPDEST DUP4 DUP2 MSTORE PUSH1 0x60 PUSH1 0x20 DUP3 ADD MSTORE PUSH1 0x0 PUSH2 0x29EA PUSH1 0x60 DUP4 ADD DUP6 PUSH2 0x291E JUMP JUMPDEST DUP3 DUP2 SUB PUSH1 0x40 DUP5 ADD MSTORE PUSH2 0x29FC DUP2 DUP6 PUSH2 0x291E JUMP JUMPDEST SWAP7 SWAP6 POP POP POP POP POP POP JUMP JUMPDEST PUSH1 0x0 DUP1 DUP4 PUSH1 0x1F DUP5 ADD SLT PUSH2 0x2A18 JUMPI PUSH1 0x0 DUP1 REVERT JUMPDEST POP DUP2 CALLDATALOAD PUSH8 0xFFFFFFFFFFFFFFFF DUP2 GT ISZERO PUSH2 0x2A30 JUMPI PUSH1 0x0 DUP1 REVERT JUMPDEST PUSH1 0x20 DUP4 ADD SWAP2 POP DUP4 PUSH1 0x20 DUP3 PUSH1 0x5 SHL DUP6 ADD ADD GT ISZERO PUSH2 0x2A4B JUMPI PUSH1 0x0 DUP1 REVERT JUMPDEST SWAP3 POP SWAP3 SWAP1 POP JUMP JUMPDEST PUSH1 0x0 DUP1 PUSH1 0x0 DUP1 PUSH1 0x40 DUP6 DUP8 SUB SLT ISZERO PUSH2 0x2A68 JUMPI PUSH1 0x0 DUP1 REVERT JUMPDEST DUP5 CALLDATALOAD PUSH8 0xFFFFFFFFFFFFFFFF DUP1 DUP3 GT ISZERO PUSH2 0x2A80 JUMPI PUSH1 0x0 DUP1 REVERT JUMPDEST PUSH2 0x2A8C DUP9 DUP4 DUP10 ADD PUSH2 0x2A06 JUMP JUMPDEST SWAP1 SWAP7 POP SWAP5 POP PUSH1 0x20 DUP8 ADD CALLDATALOAD SWAP2 POP DUP1 DUP3 GT ISZERO PUSH2 0x2AA5 JUMPI PUSH1 0x0 DUP1 REVERT JUMPDEST POP PUSH2 0x2AB2 DUP8 DUP3 DUP9 ADD PUSH2 0x2A06 JUMP JUMPDEST SWAP6 SWAP9 SWAP5 SWAP8 POP SWAP6 POP POP POP POP JUMP JUMPDEST PUSH1 0x0 PUSH1 0x20 DUP3 DUP5 SUB SLT ISZERO PUSH2 0x2AD0 JUMPI PUSH1 0x0 DUP1 REVERT JUMPDEST DUP2 MLOAD PUSH8 0xFFFFFFFFFFFFFFFF DUP2 GT ISZERO PUSH2 0x2AE7 JUMPI PUSH1 0x0 DUP1 REVERT JUMPDEST DUP3 ADD PUSH1 0x1F DUP2 ADD DUP5 SGT PUSH2 0x2AF8 JUMPI PUSH1 0x0 DUP1 REVERT JUMPDEST DUP1 MLOAD PUSH2 0x2B06 PUSH2 0x28A8 DUP3 PUSH2 0x2829 JUMP JUMPDEST DUP2 DUP2 MSTORE DUP6 PUSH1 0x20 DUP4 DUP6 ADD ADD GT ISZERO PUSH2 0x2B1B JUMPI PUSH1 0x0 DUP1 REVERT JUMPDEST PUSH2 0xB32 DUP3 PUSH1 0x20 DUP4 ADD PUSH1 0x20 DUP7 ADD PUSH2 0x2728 JUMP JUMPDEST PUSH1 0x0 PUSH1 0x20 DUP3 DUP5 SUB SLT ISZERO PUSH2 0x2B3E JUMPI PUSH1 0x0 DUP1 REVERT JUMPDEST POP MLOAD SWAP2 SWAP1 POP JUMP JUMPDEST PUSH4 0x4E487B71 PUSH1 0xE0 SHL PUSH1 0x0 MSTORE PUSH1 0x11 PUSH1 0x4 MSTORE PUSH1 0x24 PUSH1 0x0 REVERT JUMPDEST DUP1 DUP3 MUL DUP2 ISZERO DUP3 DUP3 DIV DUP5 EQ OR PUSH2 0x8B8 JUMPI PUSH2 0x8B8 PUSH2 0x2B45 JUMP JUMPDEST PUSH1 0x20 DUP1 DUP3 MSTORE PUSH1 0x2C SWAP1 DUP3 ADD MSTORE PUSH32 0x46756E6374696F6E206D7573742062652063616C6C6564207468726F75676820 PUSH1 0x40 DUP3 ADD MSTORE PUSH12 0x19195B1959D85D1958D85B1B PUSH1 0xA2 SHL PUSH1 0x60 DUP3 ADD MSTORE PUSH1 0x80 ADD SWAP1 JUMP JUMPDEST PUSH1 0x20 DUP1 DUP3 MSTORE PUSH1 0x2C SWAP1 DUP3 ADD MSTORE PUSH32 0x46756E6374696F6E206D7573742062652063616C6C6564207468726F75676820 PUSH1 0x40 DUP3 ADD MSTORE PUSH12 0x6163746976652070726F7879 PUSH1 0xA0 SHL PUSH1 0x60 DUP3 ADD MSTORE PUSH1 0x80 ADD SWAP1 JUMP JUMPDEST PUSH4 0x4E487B71 PUSH1 0xE0 SHL PUSH1 0x0 MSTORE PUSH1 0x32 PUSH1 0x4 MSTORE PUSH1 0x24 PUSH1 0x0 REVERT JUMPDEST DUP1 DUP3 ADD DUP1 DUP3 GT ISZERO PUSH2 0x8B8 JUMPI PUSH2 0x8B8 PUSH2 0x2B45 JUMP JUMPDEST PUSH1 0x0 PUSH1 0x1 DUP3 ADD PUSH2 0x2C45 JUMPI PUSH2 0x2C45 PUSH2 0x2B45 JUMP JUMPDEST POP PUSH1 0x1 ADD SWAP1 JUMP JUMPDEST PUSH1 0x0 DUP3 PUSH2 0x2C69 JUMPI PUSH4 0x4E487B71 PUSH1 0xE0 SHL PUSH1 0x0 MSTORE PUSH1 0x12 PUSH1 0x4 MSTORE PUSH1 0x24 PUSH1 0x0 REVERT JUMPDEST POP DIV SWAP1 JUMP JUMPDEST DUP2 DUP2 SUB DUP2 DUP2 GT ISZERO PUSH2 0x8B8 JUMPI PUSH2 0x8B8 PUSH2 0x2B45 JUMP JUMPDEST PUSH1 0x0 PUSH1 0x20 DUP3 DUP5 SUB SLT ISZERO PUSH2 0x2C93 JUMPI PUSH1 0x0 DUP1 REVERT JUMPDEST DUP2 MLOAD DUP1 ISZERO ISZERO DUP2 EQ PUSH2 0xAF7 JUMPI PUSH1 0x0 DUP1 REVERT JUMPDEST PUSH1 0x0 PUSH1 0xFF DUP3 AND PUSH1 0xFF DUP2 SUB PUSH2 0x2CB9 JUMPI PUSH2 0x2CB9 PUSH2 0x2B45 JUMP JUMPDEST PUSH1 0x1 ADD SWAP3 SWAP2 POP POP JUMP JUMPDEST PUSH1 0x0 DUP2 PUSH2 0x2CD1 JUMPI PUSH2 0x2CD1 PUSH2 0x2B45 JUMP JUMPDEST POP PUSH1 0x0 NOT ADD SWAP1 JUMP JUMPDEST PUSH1 0x20 DUP1 DUP3 MSTORE PUSH1 0x2B SWAP1 DUP3 ADD MSTORE PUSH32 0x496E697469616C697A61626C653A20636F6E7472616374206973206E6F742069 PUSH1 0x40 DUP3 ADD MSTORE PUSH11 0x6E697469616C697A696E67 PUSH1 0xA8 SHL PUSH1 0x60 DUP3 ADD MSTORE PUSH1 0x80 ADD SWAP1 JUMP JUMPDEST PUSH1 0x0 DUP3 MLOAD PUSH2 0x2D36 DUP2 DUP5 PUSH1 0x20 DUP8 ADD PUSH2 0x2728 JUMP JUMPDEST SWAP2 SWAP1 SWAP2 ADD SWAP3 SWAP2 POP POP JUMP JUMPDEST PUSH1 0x20 DUP2 MSTORE PUSH1 0x0 PUSH2 0xAF7 PUSH1 0x20 DUP4 ADD DUP5 PUSH2 0x274C JUMP INVALID CALLDATASIZE ADDMOD SWAP5 LOG1 EXTCODESIZE LOG1 LOG3 0x21 MOD PUSH8 0xC828492DB98DCA3E KECCAK256 PUSH23 0xCC3735A920A3CA505D382BBC416464726573733A206C6F PUSH24 0x2D6C6576656C2064656C65676174652063616C6C20666169 PUSH13 0x6564A2646970667358221220D6 PC 0xF6 SWAP4 DUP16 PUSH18 0xD44A4A989245D13B5708A792AA892484536D 0xC0 NUMBER 0xCC PUSH8 0x3C556DFF64736F6C PUSH4 0x43000811 STOP CALLER "},"methodIdentifiers":{"claimStakingReward(uint256)":"239cd4a4","getPresaleContract()":"f1012b45","getReferralContract()":"23442c60","getStakingAnalystics()":"61686dac","getStakingCapping()":"03b50314","getStakingReward(address,uint256)":"8d5103bb","getStakingRewardAll(address)":"8ed0b213","getTokenContract()":"28b7bede","getUnStakeFees()":"0cd9b370","getUserRewardClaimedByStakingID(address,uint256)":"eb0bea0e","getUserStakingAPY(address,uint256)":"363a14a9","getUserStakingByID(address,uint256)":"ac675112","getUserStakingIDs(address)":"6f51b20b","getUserStakingRewardRate(address,uint256)":"8e0e735f","getUserTotalRewardClaimed(address)":"ae3132e8","getUserTotalStakedValue(address)":"469bbc12","getUserTotalStakingsCount(address)":"623b44d5","initialize()":"8129fc1c","isStaked(address)":"6177fd18","owner()":"8da5cb5b","pause()":"8456cb59","paused()":"5c975abb","proxiableUUID()":"52d1902d","renounceOwnership()":"715018a6","setMinStakingValue(uint256)":"d596fe7f","setStakingDurationAndRateAdmin(uint256[],uint256[])":"cde263ed","setUnStakeFeesAdmin(uint256)":"cdfa89cc","stake(uint256,uint256)":"7b0472f0","stakeByAdmin(address,uint256,uint256)":"310c9b20","transferOwnership(address)":"f2fde38b","unStake(uint256)":"5d3eea91","unStakeByAdmin(address,uint256)":"8d10c868","unpause()":"3f4ba83a","updatePresaleContract(address)":"1124f7dd","updateReferralContract(address)":"d3460d8a","updateTokenContract(address)":"989ced26","upgradeTo(address)":"3659cfe6","upgradeToAndCall(address,bytes)":"4f1ef286","withdrawNativeFunds(address,uint256)":"26792aca","withdrawTokens(address,address,uint256)":"5e35359e"}},"storageLayout":{"storage":[{"astId":573,"contract":"contracts/StakingV1Upgradable.sol:StakingV1Upgradable","label":"_initialized","offset":0,"slot":"0","type":"t_uint8"},{"astId":576,"contract":"contracts/StakingV1Upgradable.sol:StakingV1Upgradable","label":"_initializing","offset":1,"slot":"0","type":"t_bool"},{"astId":1342,"contract":"contracts/StakingV1Upgradable.sol:StakingV1Upgradable","label":"__gap","offset":0,"slot":"1","type":"t_array(t_uint256)50_storage"},{"astId":874,"contract":"contracts/StakingV1Upgradable.sol:StakingV1Upgradable","label":"_paused","offset":0,"slot":"51","type":"t_bool"},{"astId":979,"contract":"contracts/StakingV1Upgradable.sol:StakingV1Upgradable","label":"__gap","offset":0,"slot":"52","type":"t_array(t_uint256)49_storage"},{"astId":56,"contract":"contracts/StakingV1Upgradable.sol:StakingV1Upgradable","label":"_owner","offset":0,"slot":"101","type":"t_address"},{"astId":176,"contract":"contracts/StakingV1Upgradable.sol:StakingV1Upgradable","label":"__gap","offset":0,"slot":"102","type":"t_array(t_uint256)49_storage"},{"astId":555,"contract":"contracts/StakingV1Upgradable.sol:StakingV1Upgradable","label":"__gap","offset":0,"slot":"151","type":"t_array(t_uint256)50_storage"},{"astId":852,"contract":"contracts/StakingV1Upgradable.sol:StakingV1Upgradable","label":"__gap","offset":0,"slot":"201","type":"t_array(t_uint256)50_storage"},{"astId":4678,"contract":"contracts/StakingV1Upgradable.sol:StakingV1Upgradable","label":"tokenSeller","offset":0,"slot":"251","type":"t_address"},{"astId":4680,"contract":"contracts/StakingV1Upgradable.sol:StakingV1Upgradable","label":"tokenContract","offset":0,"slot":"252","type":"t_address"},{"astId":4682,"contract":"contracts/StakingV1Upgradable.sol:StakingV1Upgradable","label":"presaleContract","offset":0,"slot":"253","type":"t_address"},{"astId":4684,"contract":"contracts/StakingV1Upgradable.sol:StakingV1Upgradable","label":"referralContract","offset":0,"slot":"254","type":"t_address"},{"astId":4686,"contract":"contracts/StakingV1Upgradable.sol:StakingV1Upgradable","label":"totalStakers","offset":0,"slot":"255","type":"t_uint256"},{"astId":4688,"contract":"contracts/StakingV1Upgradable.sol:StakingV1Upgradable","label":"totalValueStaked","offset":0,"slot":"256","type":"t_uint256"},{"astId":4690,"contract":"contracts/StakingV1Upgradable.sol:StakingV1Upgradable","label":"totalRewardsDistributed","offset":0,"slot":"257","type":"t_uint256"},{"astId":4693,"contract":"contracts/StakingV1Upgradable.sol:StakingV1Upgradable","label":"stakingDurations","offset":0,"slot":"258","type":"t_array(t_uint256)dyn_storage"},{"astId":4696,"contract":"contracts/StakingV1Upgradable.sol:StakingV1Upgradable","label":"rewardRates","offset":0,"slot":"259","type":"t_array(t_uint256)dyn_storage"},{"astId":4698,"contract":"contracts/StakingV1Upgradable.sol:StakingV1Upgradable","label":"minStakingValue","offset":0,"slot":"260","type":"t_uint256"},{"astId":4700,"contract":"contracts/StakingV1Upgradable.sol:StakingV1Upgradable","label":"unStakeFees","offset":0,"slot":"261","type":"t_uint256"},{"astId":4718,"contract":"contracts/StakingV1Upgradable.sol:StakingV1Upgradable","label":"user","offset":0,"slot":"262","type":"t_mapping(t_address,t_mapping(t_uint256,t_struct(Account)4711_storage))"},{"astId":4723,"contract":"contracts/StakingV1Upgradable.sol:StakingV1Upgradable","label":"userStakingIndexes","offset":0,"slot":"263","type":"t_mapping(t_address,t_array(t_uint256)dyn_storage)"},{"astId":4728,"contract":"contracts/StakingV1Upgradable.sol:StakingV1Upgradable","label":"userRewardClaimed","offset":0,"slot":"264","type":"t_mapping(t_address,t_array(t_uint256)dyn_storage)"},{"astId":4733,"contract":"contracts/StakingV1Upgradable.sol:StakingV1Upgradable","label":"userRewardClaimedTimestamp","offset":0,"slot":"265","type":"t_mapping(t_address,t_array(t_uint256)dyn_storage)"}],"types":{"t_address":{"encoding":"inplace","label":"address","numberOfBytes":"20"},"t_array(t_uint256)49_storage":{"base":"t_uint256","encoding":"inplace","label":"uint256[49]","numberOfBytes":"1568"},"t_array(t_uint256)50_storage":{"base":"t_uint256","encoding":"inplace","label":"uint256[50]","numberOfBytes":"1600"},"t_array(t_uint256)dyn_storage":{"base":"t_uint256","encoding":"dynamic_array","label":"uint256[]","numberOfBytes":"32"},"t_bool":{"encoding":"inplace","label":"bool","numberOfBytes":"1"},"t_mapping(t_address,t_array(t_uint256)dyn_storage)":{"encoding":"mapping","key":"t_address","label":"mapping(address => uint256[])","numberOfBytes":"32","value":"t_array(t_uint256)dyn_storage"},"t_mapping(t_address,t_mapping(t_uint256,t_struct(Account)4711_storage))":{"encoding":"mapping","key":"t_address","label":"mapping(address => mapping(uint256 => struct StakingV1Upgradable.Account))","numberOfBytes":"32","value":"t_mapping(t_uint256,t_struct(Account)4711_storage)"},"t_mapping(t_uint256,t_struct(Account)4711_storage)":{"encoding":"mapping","key":"t_uint256","label":"mapping(uint256 => struct StakingV1Upgradable.Account)","numberOfBytes":"32","value":"t_struct(Account)4711_storage"},"t_struct(Account)4711_storage":{"encoding":"inplace","label":"struct StakingV1Upgradable.Account","members":[{"astId":4702,"contract":"contracts/StakingV1Upgradable.sol:StakingV1Upgradable","label":"valueStaked","offset":0,"slot":"0","type":"t_uint256"},{"astId":4704,"contract":"contracts/StakingV1Upgradable.sol:StakingV1Upgradable","label":"rewardRate","offset":0,"slot":"1","type":"t_uint256"},{"astId":4706,"contract":"contracts/StakingV1Upgradable.sol:StakingV1Upgradable","label":"startTime","offset":0,"slot":"2","type":"t_uint256"},{"astId":4708,"contract":"contracts/StakingV1Upgradable.sol:StakingV1Upgradable","label":"endTime","offset":0,"slot":"3","type":"t_uint256"},{"astId":4710,"contract":"contracts/StakingV1Upgradable.sol:StakingV1Upgradable","label":"rewardClaimed","offset":0,"slot":"4","type":"t_uint256"}],"numberOfBytes":"160"},"t_uint256":{"encoding":"inplace","label":"uint256","numberOfBytes":"32"},"t_uint8":{"encoding":"inplace","label":"uint8","numberOfBytes":"1"}}}}}}