{"contracts/PresaleV1Upgradable.sol":{"PresaleV1Upgradable":{"abi":[{"anonymous":false,"inputs":[{"indexed":false,"internalType":"address","name":"previousAdmin","type":"address"},{"indexed":false,"internalType":"address","name":"newAdmin","type":"address"}],"name":"AdminChanged","type":"event"},{"anonymous":false,"inputs":[{"indexed":true,"internalType":"address","name":"beacon","type":"address"}],"name":"BeaconUpgraded","type":"event"},{"anonymous":false,"inputs":[{"indexed":false,"internalType":"uint8","name":"version","type":"uint8"}],"name":"Initialized","type":"event"},{"anonymous":false,"inputs":[{"indexed":true,"internalType":"address","name":"previousOwner","type":"address"},{"indexed":true,"internalType":"address","name":"newOwner","type":"address"}],"name":"OwnershipTransferred","type":"event"},{"anonymous":false,"inputs":[{"indexed":false,"internalType":"address","name":"account","type":"address"}],"name":"Paused","type":"event"},{"anonymous":false,"inputs":[{"indexed":true,"internalType":"address","name":"to","type":"address"},{"indexed":true,"internalType":"uint256","name":"tokenValue","type":"uint256"},{"indexed":true,"internalType":"address","name":"rewardTokenContract","type":"address"}],"name":"RewardTokenDistributed","type":"event"},{"anonymous":false,"inputs":[{"indexed":true,"internalType":"address","name":"from","type":"address"},{"indexed":true,"internalType":"uint256","name":"tokenValue","type":"uint256"},{"indexed":true,"internalType":"uint256","name":"ethValue","type":"uint256"},{"indexed":false,"internalType":"string","name":"currency","type":"string"}],"name":"TokenPurchased","type":"event"},{"anonymous":false,"inputs":[{"indexed":false,"internalType":"address","name":"account","type":"address"}],"name":"Unpaused","type":"event"},{"anonymous":false,"inputs":[{"indexed":true,"internalType":"address","name":"implementation","type":"address"}],"name":"Upgraded","type":"event"},{"inputs":[{"internalType":"address","name":"_referrer","type":"address"},{"internalType":"uint256","name":"_duration","type":"uint256"}],"name":"BuyWithETH","outputs":[],"stateMutability":"payable","type":"function"},{"inputs":[{"internalType":"address","name":"_referrer","type":"address"},{"internalType":"uint256","name":"_value","type":"uint256"},{"internalType":"uint256","name":"_duration","type":"uint256"}],"name":"BuyWithUSD","outputs":[],"stateMutability":"nonpayable","type":"function"},{"inputs":[],"name":"getETH_USDPrice","outputs":[{"internalType":"uint256","name":"ETH_USD","type":"uint256"}],"stateMutability":"view","type":"function"},{"inputs":[],"name":"getPresaleAnalystics","outputs":[{"internalType":"uint256","name":"tokenSold","type":"uint256"},{"internalType":"uint256","name":"ethRaised","type":"uint256"},{"internalType":"uint256","name":"USDRaised","type":"uint256"}],"stateMutability":"view","type":"function"},{"inputs":[],"name":"getPriceFeedOracleAddress","outputs":[{"internalType":"address","name":"","type":"address"}],"stateMutability":"view","type":"function"},{"inputs":[],"name":"getPricePerUSD","outputs":[{"internalType":"uint256","name":"","type":"uint256"}],"stateMutability":"view","type":"function"},{"inputs":[],"name":"getReferralContract","outputs":[{"internalType":"address","name":"","type":"address"}],"stateMutability":"view","type":"function"},{"inputs":[],"name":"getRewardOwners","outputs":[{"internalType":"address","name":"","type":"address"}],"stateMutability":"view","type":"function"},{"inputs":[],"name":"getRewardPerUSD","outputs":[{"internalType":"uint256","name":"","type":"uint256"}],"stateMutability":"view","type":"function"},{"inputs":[],"name":"getRewardTokenContract","outputs":[{"internalType":"address","name":"tokenAddress","type":"address"},{"internalType":"string","name":"name","type":"string"},{"internalType":"uint256","name":"decimals","type":"uint256"},{"internalType":"uint256","name":"totalSupply","type":"uint256"}],"stateMutability":"view","type":"function"},{"inputs":[],"name":"getStakingContract","outputs":[{"internalType":"address","name":"","type":"address"}],"stateMutability":"view","type":"function"},{"inputs":[],"name":"getTokenContract","outputs":[{"internalType":"address","name":"tokenAddress","type":"address"},{"internalType":"string","name":"name","type":"string"},{"internalType":"uint256","name":"decimals","type":"uint256"},{"internalType":"uint256","name":"totalSupply","type":"uint256"}],"stateMutability":"view","type":"function"},{"inputs":[],"name":"getTokenSeller","outputs":[{"internalType":"address","name":"","type":"address"}],"stateMutability":"view","type":"function"},{"inputs":[],"name":"getUSDContract","outputs":[{"internalType":"address","name":"USDAddress","type":"address"},{"internalType":"string","name":"USDName","type":"string"},{"internalType":"uint256","name":"USDDecimals","type":"uint256"},{"internalType":"uint256","name":"USDSupply","type":"uint256"}],"stateMutability":"view","type":"function"},{"inputs":[],"name":"initialize","outputs":[],"stateMutability":"nonpayable","type":"function"},{"inputs":[],"name":"isEnabled","outputs":[{"internalType":"bool","name":"stake","type":"bool"},{"internalType":"bool","name":"referral","type":"bool"},{"internalType":"bool","name":"reward","type":"bool"}],"stateMutability":"view","type":"function"},{"inputs":[],"name":"minContribution","outputs":[{"internalType":"uint256","name":"minContETH","type":"uint256"},{"internalType":"uint256","name":"minContUSD","type":"uint256"}],"stateMutability":"view","type":"function"},{"inputs":[],"name":"owner","outputs":[{"internalType":"address","name":"","type":"address"}],"stateMutability":"view","type":"function"},{"inputs":[],"name":"pauseAdmin","outputs":[],"stateMutability":"nonpayable","type":"function"},{"inputs":[],"name":"paused","outputs":[{"internalType":"bool","name":"","type":"bool"}],"stateMutability":"view","type":"function"},{"inputs":[],"name":"proxiableUUID","outputs":[{"internalType":"bytes32","name":"","type":"bytes32"}],"stateMutability":"view","type":"function"},{"inputs":[],"name":"renounceOwnership","outputs":[],"stateMutability":"nonpayable","type":"function"},{"inputs":[{"internalType":"address","name":"_address","type":"address"},{"internalType":"uint256","name":"_value","type":"uint256"}],"name":"sendNativeFundsAdmin","outputs":[],"stateMutability":"nonpayable","type":"function"},{"inputs":[{"internalType":"bool","name":"_bool","type":"bool"}],"name":"setBuyAndStake","outputs":[{"internalType":"bool","name":"","type":"bool"}],"stateMutability":"nonpayable","type":"function"},{"inputs":[{"internalType":"uint256","name":"_value","type":"uint256"}],"name":"setMinContributionUSDAdmin","outputs":[{"internalType":"bool","name":"","type":"bool"}],"stateMutability":"nonpayable","type":"function"},{"inputs":[{"internalType":"bool","name":"_bool","type":"bool"}],"name":"setPayReferralAdmin","outputs":[{"internalType":"bool","name":"","type":"bool"}],"stateMutability":"nonpayable","type":"function"},{"inputs":[{"internalType":"bool","name":"_bool","type":"bool"}],"name":"setPayRewardTokensAdmin","outputs":[],"stateMutability":"nonpayable","type":"function"},{"inputs":[{"internalType":"uint256","name":"_value","type":"uint256"}],"name":"setPricePerUSDAdmin","outputs":[{"internalType":"bool","name":"","type":"bool"}],"stateMutability":"nonpayable","type":"function"},{"inputs":[{"internalType":"address","name":"_address","type":"address"}],"name":"setReferralContract","outputs":[{"internalType":"address","name":"","type":"address"}],"stateMutability":"nonpayable","type":"function"},{"inputs":[{"internalType":"address","name":"_address","type":"address"}],"name":"setRewardOwner","outputs":[],"stateMutability":"nonpayable","type":"function"},{"inputs":[{"internalType":"uint256","name":"_value","type":"uint256"}],"name":"setRewardPerUSDAdmin","outputs":[{"internalType":"bool","name":"","type":"bool"}],"stateMutability":"nonpayable","type":"function"},{"inputs":[{"internalType":"address","name":"_tokenContractAddress","type":"address"}],"name":"setRewardTokenContract","outputs":[],"stateMutability":"nonpayable","type":"function"},{"inputs":[{"internalType":"address","name":"_address","type":"address"}],"name":"setStakingContract","outputs":[{"internalType":"bool","name":"","type":"bool"}],"stateMutability":"nonpayable","type":"function"},{"inputs":[{"internalType":"address","name":"_address","type":"address"}],"name":"setTokenContractAdmin","outputs":[{"internalType":"bool","name":"","type":"bool"}],"stateMutability":"nonpayable","type":"function"},{"inputs":[{"internalType":"address","name":"_address","type":"address"}],"name":"setTokenSeller","outputs":[],"stateMutability":"nonpayable","type":"function"},{"inputs":[{"internalType":"address","name":"_address","type":"address"}],"name":"setUSDContractAdmin","outputs":[{"internalType":"bool","name":"","type":"bool"}],"stateMutability":"nonpayable","type":"function"},{"inputs":[{"internalType":"address","name":"_address","type":"address"}],"name":"setpriceFeedOracleAddressAdmin","outputs":[{"internalType":"bool","name":"","type":"bool"}],"stateMutability":"nonpayable","type":"function"},{"inputs":[{"internalType":"address","name":"newOwner","type":"address"}],"name":"transferOwnership","outputs":[],"stateMutability":"nonpayable","type":"function"},{"inputs":[],"name":"unpauseAdmin","outputs":[],"stateMutability":"nonpayable","type":"function"},{"inputs":[{"internalType":"address","name":"newImplementation","type":"address"}],"name":"upgradeTo","outputs":[],"stateMutability":"nonpayable","type":"function"},{"inputs":[{"internalType":"address","name":"newImplementation","type":"address"},{"internalType":"bytes","name":"data","type":"bytes"}],"name":"upgradeToAndCall","outputs":[],"stateMutability":"payable","type":"function"},{"inputs":[],"name":"withdrawAdmin","outputs":[],"stateMutability":"nonpayable","type":"function"},{"inputs":[{"internalType":"address","name":"_tokenAddress","type":"address"},{"internalType":"uint256","name":"_value","type":"uint256"}],"name":"withdrawTokenAdmin","outputs":[],"stateMutability":"nonpayable","type":"function"},{"stateMutability":"payable","type":"receive"}],"evm":{"bytecode":{"linkReferences":{},"object":"60a06040523060805234801561001457600080fd5b50608051612ce461004c60003960008181610a9801528181610ae101528181610bcc01528181610c0c0152610c9f0152612ce46000f3fe6080604052600436106102605760003560e01c80636aa633b611610144578063a5bac943116100b6578063d42cedfb1161007a578063d42cedfb146106fd578063db5184e61461071d578063dc245e1214610732578063e9bd186d14610752578063f067c19914610772578063f2fde38b1461078857600080fd5b8063a5bac9431461065e578063aaffadf314610673578063ac6f6a2d1461069d578063b68e1e46146106bd578063c94d6b1f146106dd57600080fd5b8063857d22ef11610108578063857d22ef146105ad5780638da5cb5b146105cd5780638e68dce4146105eb57806394a73f591461060957806398094ba11461061e5780639dd373b91461063e57600080fd5b80636aa633b614610501578063715018a6146105455780637a22393b1461055a5780637ce1757d1461057a5780638129fc1c1461059857600080fd5b80633659cfe6116101dd5780634f1ef286116101a15780634f1ef2861461047a57806352d1902d1461048d57806357526c33146104a25780635845394b146104b55780635c975abb146104d457806365eb204d146104ec57600080fd5b80633659cfe6146103c657806338f992c9146103e65780633958b8441461041a578063472d561d1461043a5780634809b4291461045a57600080fd5b80631cecbe9a116102245780631cecbe9a1461032e57806323442c601461034e57806328b7bede1461036c5780632f11d6531461039157806334dcfa8c146103a657600080fd5b806304c76af01461026c57806306ad5a471461028357806308fcfbbe146102c057806310bd7ab5146102e057806314d09b941461031057600080fd5b3661026757005b600080fd5b34801561027857600080fd5b506102816107a8565b005b34801561028f57600080fd5b506102a361029e366004612598565b6107df565b6040516001600160a01b0390911681526020015b60405180910390f35b3480156102cc57600080fd5b506102816102db366004612598565b61080c565b3480156102ec57600080fd5b506103006102fb3660046125b5565b610837565b60405190151581526020016102b7565b34801561031c57600080fd5b5060fb546001600160a01b03166102a3565b34801561033a57600080fd5b506102816103493660046125ce565b61084b565b34801561035a57600080fd5b5060ff546001600160a01b03166102a3565b34801561037857600080fd5b5061038161088e565b6040516102b7949392919061264a565b34801561039d57600080fd5b50610281610a03565b3480156103b257600080fd5b506102816103c13660046125ce565b610a15565b3480156103d257600080fd5b506102816103e1366004612598565b610a8e565b3480156103f257600080fd5b50610106546101075461010854604080519384526020840192909252908201526060016102b7565b34801561042657600080fd5b5061028161043536600461268f565b610b73565b34801561044657600080fd5b50610103545b6040519081526020016102b7565b34801561046657600080fd5b50610281610475366004612598565b610b98565b61028161048836600461271b565b610bc2565b34801561049957600080fd5b5061044c610c92565b6102816104b03660046125ce565b610d45565b3480156104c157600080fd5b50610102546001600160a01b03166102a3565b3480156104e057600080fd5b5060655460ff16610300565b3480156104f857600080fd5b5061038161109e565b34801561050d57600080fd5b50610109546040805160ff808416151582526101008404811615156020830152620100009093049092161515908201526060016102b7565b34801561055157600080fd5b506102816111ea565b34801561056657600080fd5b50610281610575366004612598565b6111fc565b34801561058657600080fd5b5060fc546001600160a01b03166102a3565b3480156105a457600080fd5b50610281611226565b3480156105b957600080fd5b506103006105c8366004612598565b61141a565b3480156105d957600080fd5b506033546001600160a01b03166102a3565b3480156105f757600080fd5b5060fe546001600160a01b03166102a3565b34801561061557600080fd5b5061044c61144a565b34801561062a57600080fd5b5061030061063936600461268f565b6114e2565b34801561064a57600080fd5b50610300610659366004612598565b6114ff565b34801561066a57600080fd5b5061038161152e565b34801561067f57600080fd5b5061068861167a565b604080519283526020830191909152016102b7565b3480156106a957600080fd5b506103006106b8366004612598565b611691565b3480156106c957600080fd5b506103006106d8366004612598565b6116c1565b3480156106e957600080fd5b506103006106f83660046125b5565b6116f0565b34801561070957600080fd5b506102816107183660046127ae565b611704565b34801561072957600080fd5b506102816119a6565b34801561073e57600080fd5b5061030061074d3660046125b5565b6119b6565b34801561075e57600080fd5b5061030061076d36600461268f565b6119ca565b34801561077e57600080fd5b506101045461044c565b34801561079457600080fd5b506102816107a3366004612598565b6119f2565b6107b0611a68565b60405133904780156108fc02916000818181858888f193505050501580156107dc573d6000803e3d6000fd5b50565b60006107e9611a68565b5060ff80546001600160a01b0319166001600160a01b038316179055805b919050565b610814611a68565b61010180546001600160a01b0319166001600160a01b0392909216919091179055565b6000610841611a68565b5061010455600190565b610853611a68565b6040516001600160a01b0383169082156108fc029083906000818181858888f19350505050158015610889573d6000803e3d6000fd5b505050565b60fd54604080516306fdde0360e01b815290516001600160a01b0390921691606091600091829185916306fdde039160048082019286929091908290030181865afa1580156108e1573d6000803e3d6000fd5b505050506040513d6000823e601f3d908101601f1916820160405261090991908101906127e3565b925060fd60009054906101000a90046001600160a01b03166001600160a01b031663313ce5676040518163ffffffff1660e01b8152600401602060405180830381865afa15801561095e573d6000803e3d6000fd5b505050506040513d601f19601f820116820180604052508101906109829190612851565b915060fd60009054906101000a90046001600160a01b03166001600160a01b03166318160ddd6040518163ffffffff1660e01b8152600401602060405180830381865afa1580156109d7573d6000803e3d6000fd5b505050506040513d601f19601f820116820180604052508101906109fb9190612851565b905090919293565b610a0b611a68565b610a13611ac2565b565b610a1d611a68565b60405163a9059cbb60e01b8152336004820152602481018290526001600160a01b0383169063a9059cbb906044016020604051808303816000875af1158015610a6a573d6000803e3d6000fd5b505050506040513d601f19601f82011682018060405250810190610889919061286a565b6001600160a01b037f0000000000000000000000000000000000000000000000000000000000000000163003610adf5760405162461bcd60e51b8152600401610ad690612887565b60405180910390fd5b7f00000000000000000000000000000000000000000000000000000000000000006001600160a01b0316610b28600080516020612c68833981519152546001600160a01b031690565b6001600160a01b031614610b4e5760405162461bcd60e51b8152600401610ad6906128d3565b610b5781611b1c565b604080516000808252602082019092526107dc91839190611b24565b610b7b611a68565b6101098054911515620100000262ff000019909216919091179055565b610ba0611a68565b60fc80546001600160a01b0319166001600160a01b0392909216919091179055565b6001600160a01b037f0000000000000000000000000000000000000000000000000000000000000000163003610c0a5760405162461bcd60e51b8152600401610ad690612887565b7f00000000000000000000000000000000000000000000000000000000000000006001600160a01b0316610c53600080516020612c68833981519152546001600160a01b031690565b6001600160a01b031614610c795760405162461bcd60e51b8152600401610ad6906128d3565b610c8282611b1c565b610c8e82826001611b24565b5050565b6000306001600160a01b037f00000000000000000000000000000000000000000000000000000000000000001614610d325760405162461bcd60e51b815260206004820152603860248201527f555550535570677261646561626c653a206d757374206e6f742062652063616c60448201527f6c6564207468726f7567682064656c656761746563616c6c00000000000000006064820152608401610ad6565b50600080516020612c6883398151915290565b610d4d611c8f565b3334610d57611cd5565b811015610db95760405162461bcd60e51b815260206004820152602a60248201527f4574682056616c7565206973206c657373207468616e206d696e436f6e747269604482015269313aba34b7b722aa241760b11b6064820152608401610ad6565b6000610dc88261010354611da6565b90506000610dd98361010454611da6565b6101095490915060ff1615610df957610df3848387611eee565b50610e17565b60fd5460fb54610e17916001600160a01b0390811691168685611f77565b61010954610100900460ff1615610ef35760ff546001600160a01b03166108fc610e49610e42611ff9565b8690612081565b6040518115909202916000818181858888f19350505050158015610e71573d6000803e3d6000fd5b5060ff54604051631eb714b160e31b8152600481018590526001600160a01b03868116602483015288811660448301529091169063f5b8a588906064016020604051808303816000875af1158015610ecd573d6000803e3d6000fd5b505050506040513d601f19601f82011682018060405250810190610ef1919061286a565b505b6101095462010000900460ff1615611035576101015460fc5460ff546040516310ed3afd60e21b81526001600160a01b038881166004830152610f899481169381169216906343b4ebf4906024015b602060405180830381865afa158015610f5f573d6000803e3d6000fd5b505050506040513d601f19601f82011682018060405250810190610f83919061291f565b84611f77565b6101015460ff546040516310ed3afd60e21b81526001600160a01b03878116600483015292831692849216906343b4ebf490602401602060405180830381865afa158015610fdb573d6000803e3d6000fd5b505050506040513d601f19601f82011682018060405250810190610fff919061291f565b6001600160a01b03167fdec9451ea7f92de23239ac3b71d0a2c5d5bae68af900a8b74100c866d159f41960405160405180910390a45b60fb546040516001600160a01b03909116904780156108fc02916000818181858888f1935050505015801561106e573d6000803e3d6000fd5b506110968483856040518060400160405280600381526020016208aa8960eb1b815250612096565b505050505050565b61010154604080516306fdde0360e01b815290516001600160a01b0390921691606091600091829185916306fdde039160048082019286929091908290030181865afa1580156110f2573d6000803e3d6000fd5b505050506040513d6000823e601f3d908101601f1916820160405261111a91908101906127e3565b925061010160009054906101000a90046001600160a01b03166001600160a01b031663313ce5676040518163ffffffff1660e01b8152600401602060405180830381865afa158015611170573d6000803e3d6000fd5b505050506040513d601f19601f820116820180604052508101906111949190612851565b915061010160009054906101000a90046001600160a01b03166001600160a01b03166318160ddd6040518163ffffffff1660e01b8152600401602060405180830381865afa1580156109d7573d6000803e3d6000fd5b6111f2611a68565b610a136000612113565b611204611a68565b60fb80546001600160a01b0319166001600160a01b0392909216919091179055565b600054610100900460ff16158080156112465750600054600160ff909116105b806112605750303b158015611260575060005460ff166001145b6112c35760405162461bcd60e51b815260206004820152602e60248201527f496e697469616c697a61626c653a20636f6e747261637420697320616c72656160448201526d191e481a5b9a5d1a585b1a5e995960921b6064820152608401610ad6565b6000805460ff1916600117905580156112e6576000805461ff0019166101001790555b610102805473ab594600376ec9fd91f8e885dadf0ce036862de06001600160a01b031991821617909155610100805473c2132d05d31c914a87c6611c10748aeb04b58e8f90831617905560fd80547335d21e38200e125c9352c777b256854a65329053908316811790915561010180548316909117905560fb805473397b8db43aaaa23a757c52c05eb14a66a0f368d8908316811790915560fc805490921617905567a884183c60de8500610103556710da026c7016408061010455610109805462ffffff1916620101011790556000610105556113c2612165565b6113ca612194565b6113d26121c3565b80156107dc576000805461ff0019169055604051600181527f7f26b83ff96e1f2b6a682f133852f6798a09c465da95921460cefb38474024989060200160405180910390a150565b6000611424611a68565b5061010280546001600160a01b0383166001600160a01b03199091161790556001919050565b60008061010260009054906101000a90046001600160a01b03166001600160a01b031663feaf968c6040518163ffffffff1660e01b815260040160a060405180830381865afa1580156114a1573d6000803e3d6000fd5b505050506040513d601f19601f820116820180604052508101906114c59190612956565b505050915050806402540be4006114dc91906129bc565b91505090565b60006114ec611a68565b50610109805460ff191682151517905590565b6000611509611a68565b5060fe80546001600160a01b0383166001600160a01b03199091161790556001919050565b61010054604080516306fdde0360e01b815290516001600160a01b0390921691606091600091829185916306fdde039160048082019286929091908290030181865afa158015611582573d6000803e3d6000fd5b505050506040513d6000823e601f3d908101601f191682016040526115aa91908101906127e3565b925061010060009054906101000a90046001600160a01b03166001600160a01b031663313ce5676040518163ffffffff1660e01b8152600401602060405180830381865afa158015611600573d6000803e3d6000fd5b505050506040513d601f19601f820116820180604052508101906116249190612851565b915061010060009054906101000a90046001600160a01b03166001600160a01b03166318160ddd6040518163ffffffff1660e01b8152600401602060405180830381865afa1580156109d7573d6000803e3d6000fd5b600080611685611cd5565b91506101055490509091565b600061169b611a68565b5061010080546001600160a01b0383166001600160a01b03199091161790556001919050565b60006116cb611a68565b5060fd80546001600160a01b0383166001600160a01b03199091161790556001919050565b60006116fa611a68565b5061010555600190565b61170c611c8f565b6101055482101561176a5760405162461bcd60e51b815260206004820152602260248201527f5553442076616c7565206c657373207468656e206d696e206275792076616c75604482015261329760f11b6064820152608401610ad6565b6000339050600061177e84610103546121ea565b9050600061178f85610104546121ea565b6101005460fb549192506117b2916001600160a01b039182169186911688611f77565b6101095460ff16156117cf576117c9838386611eee565b506117ed565b60fd5460fb546117ed916001600160a01b0390811691168585611f77565b61010954610100900460ff161561187f5760ff54604051635188f1e160e01b8152600481018790526001600160a01b038581166024830152888116604483015290911690635188f1e1906064016020604051808303816000875af1158015611859573d6000803e3d6000fd5b505050506040513d601f19601f8201168201806040525081019061187d919061286a565b505b6101095462010000900460ff161561197e576101015460fc5460ff546040516310ed3afd60e21b81526001600160a01b0387811660048301526118d29481169381169216906343b4ebf490602401610f42565b6101015460ff546040516310ed3afd60e21b81526001600160a01b03868116600483015292831692849216906343b4ebf490602401602060405180830381865afa158015611924573d6000803e3d6000fd5b505050506040513d601f19601f82011682018060405250810190611948919061291f565b6001600160a01b03167fdec9451ea7f92de23239ac3b71d0a2c5d5bae68af900a8b74100c866d159f41960405160405180910390a45b611096838387604051806040016040528060048152602001631554d11560e21b815250612096565b6119ae611a68565b610a13612278565b60006119c0611a68565b5061010355600190565b60006119d4611a68565b5061010980548215156101000261ff00199091161790556001919050565b6119fa611a68565b6001600160a01b038116611a5f5760405162461bcd60e51b815260206004820152602660248201527f4f776e61626c653a206e6577206f776e657220697320746865207a65726f206160448201526564647265737360d01b6064820152608401610ad6565b6107dc81612113565b6033546001600160a01b03163314610a135760405162461bcd60e51b815260206004820181905260248201527f4f776e61626c653a2063616c6c6572206973206e6f7420746865206f776e65726044820152606401610ad6565b611aca611c8f565b6065805460ff191660011790557f62e78cea01bee320cd4e420270b5ea74000d11b0c9f74754ebdbfc544b05a258611aff3390565b6040516001600160a01b03909116815260200160405180910390a1565b6107dc611a68565b7f4910fdfa16fed3260ed0e7147f7cc6da11a60208b5b9406d12a635614ffd91435460ff1615611b5757610889836122b1565b826001600160a01b03166352d1902d6040518163ffffffff1660e01b8152600401602060405180830381865afa925050508015611bb1575060408051601f3d908101601f19168201909252611bae91810190612851565b60015b611c145760405162461bcd60e51b815260206004820152602e60248201527f45524331393637557067726164653a206e657720696d706c656d656e7461746960448201526d6f6e206973206e6f74205555505360901b6064820152608401610ad6565b600080516020612c688339815191528114611c835760405162461bcd60e51b815260206004820152602960248201527f45524331393637557067726164653a20756e737570706f727465642070726f786044820152681a58589b195555525160ba1b6064820152608401610ad6565b5061088983838361234d565b60655460ff1615610a135760405162461bcd60e51b815260206004820152601060248201526f14185d5cd8589b194e881c185d5cd95960821b6044820152606401610ad6565b600061010554600003611ce85750600090565b6000611cf261144a565b905060006101055482611d0591906129d3565b90508060fd60009054906101000a90046001600160a01b03166001600160a01b031663313ce5676040518163ffffffff1660e01b8152600401602060405180830381865afa158015611d5b573d6000803e3d6000fd5b505050506040513d601f19601f82011682018060405250810190611d7f9190612851565b611d8a90600a612ad9565b611d959060016129bc565b611d9f91906129d3565b9250505090565b600080611db161144a565b9050600060fd60009054906101000a90046001600160a01b03166001600160a01b031663313ce5676040518163ffffffff1660e01b8152600401602060405180830381865afa158015611e08573d6000803e3d6000fd5b505050506040513d601f19601f82011682018060405250810190611e2c9190612851565b611e3790600a612ad9565b611e4183876129bc565b611e4b91906129d3565b9050611e5784826129bc565b925060fd60009054906101000a90046001600160a01b03166001600160a01b031663313ce5676040518163ffffffff1660e01b8152600401602060405180830381865afa158015611eac573d6000803e3d6000fd5b505050506040513d601f19601f82011682018060405250810190611ed09190612851565b611edb90600a612ad9565b611ee590846129d3565b95945050505050565b60fe5460405163018864d960e51b81526001600160a01b0385811660048301526024820185905260448201849052600092169063310c9b20906064016020604051808303816000875af1158015611f49573d6000803e3d6000fd5b505050506040513d601f19601f82011682018060405250810190611f6d919061286a565b90505b9392505050565b6040516323b872dd60e01b81526001600160a01b0384811660048301528381166024830152604482018390528516906323b872dd906064016020604051808303816000875af1158015611fce573d6000803e3d6000fd5b505050506040513d601f19601f82011682018060405250810190611ff2919061286a565b5050505050565b60008060ff60009054906101000a90046001600160a01b03166001600160a01b031663918a54db6040518163ffffffff1660e01b8152600401600060405180830381865afa15801561204f573d6000803e3d6000fd5b505050506040513d6000823e601f3d908101601f191682016040526120779190810190612b65565b5090949350505050565b600061208d82846129d3565b90505b92915050565b8261010660008282546120a99190612bda565b925050819055508161010760008282546120c39190612bda565b925050819055508183856001600160a01b03167f4ed8f3d1ed53b91a72ec0150f2643e443830cc7515a0b4111db52c15cd8119e6846040516121059190612bed565b60405180910390a450505050565b603380546001600160a01b038381166001600160a01b0319831681179093556040519116919082907f8be0079c531659141344cd1fd0a4f28419497f9722a3daafe3b4186f6b6457e090600090a35050565b600054610100900460ff1661218c5760405162461bcd60e51b8152600401610ad690612c00565b610a13612378565b600054610100900460ff166121bb5760405162461bcd60e51b8152600401610ad690612c00565b610a136123ab565b600054610100900460ff16610a135760405162461bcd60e51b8152600401610ad690612c00565b610100546040805163313ce56760e01b815290516000926001600160a01b03169163313ce5679160048083019260209291908290030181865afa158015612235573d6000803e3d6000fd5b505050506040513d601f19601f820116820180604052508101906122599190612851565b61226490600a612ad9565b61226e83856129bc565b61208d91906129d3565b6122806123db565b6065805460ff191690557f5db9ee0a495bf2e6ff9c91a7834c1ba4fdd244a5e8aa4e537bd38aeae4b073aa33611aff565b6001600160a01b0381163b61231e5760405162461bcd60e51b815260206004820152602d60248201527f455243313936373a206e657720696d706c656d656e746174696f6e206973206e60448201526c1bdd08184818dbdb9d1c9858dd609a1b6064820152608401610ad6565b600080516020612c6883398151915280546001600160a01b0319166001600160a01b0392909216919091179055565b61235683612424565b6000825111806123635750805b15610889576123728383612464565b50505050565b600054610100900460ff1661239f5760405162461bcd60e51b8152600401610ad690612c00565b6065805460ff19169055565b600054610100900460ff166123d25760405162461bcd60e51b8152600401610ad690612c00565b610a1333612113565b60655460ff16610a135760405162461bcd60e51b815260206004820152601460248201527314185d5cd8589b194e881b9bdd081c185d5cd95960621b6044820152606401610ad6565b61242d816122b1565b6040516001600160a01b038216907fbc7cd75a20ee27fd9adebab32041f755214dbc6bffa90cc0225b39da2e5c2d3b90600090a250565b60606001600160a01b0383163b6124cc5760405162461bcd60e51b815260206004820152602660248201527f416464726573733a2064656c65676174652063616c6c20746f206e6f6e2d636f6044820152651b9d1c9858dd60d21b6064820152608401610ad6565b600080846001600160a01b0316846040516124e79190612c4b565b600060405180830381855af49150503d8060008114612522576040519150601f19603f3d011682016040523d82523d6000602084013e612527565b606091505b5091509150611ee58282604051806060016040528060278152602001612c886027913960608315612559575081611f70565b8251156125695782518084602001fd5b8160405162461bcd60e51b8152600401610ad69190612bed565b6001600160a01b03811681146107dc57600080fd5b6000602082840312156125aa57600080fd5b8135611f7081612583565b6000602082840312156125c757600080fd5b5035919050565b600080604083850312156125e157600080fd5b82356125ec81612583565b946020939093013593505050565b60005b838110156126155781810151838201526020016125fd565b50506000910152565b600081518084526126368160208601602086016125fa565b601f01601f19169290920160200192915050565b6001600160a01b038516815260806020820181905260009061266e9083018661261e565b6040830194909452506060015292915050565b80151581146107dc57600080fd5b6000602082840312156126a157600080fd5b8135611f7081612681565b634e487b7160e01b600052604160045260246000fd5b604051601f8201601f1916810167ffffffffffffffff811182821017156126eb576126eb6126ac565b604052919050565b600067ffffffffffffffff82111561270d5761270d6126ac565b50601f01601f191660200190565b6000806040838503121561272e57600080fd5b823561273981612583565b9150602083013567ffffffffffffffff81111561275557600080fd5b8301601f8101851361276657600080fd5b8035612779612774826126f3565b6126c2565b81815286602083850101111561278e57600080fd5b816020840160208301376000602083830101528093505050509250929050565b6000806000606084860312156127c357600080fd5b83356127ce81612583565b95602085013595506040909401359392505050565b6000602082840312156127f557600080fd5b815167ffffffffffffffff81111561280c57600080fd5b8201601f8101841361281d57600080fd5b805161282b612774826126f3565b81815285602083850101111561284057600080fd5b611ee58260208301602086016125fa565b60006020828403121561286357600080fd5b5051919050565b60006020828403121561287c57600080fd5b8151611f7081612681565b6020808252602c908201527f46756e6374696f6e206d7573742062652063616c6c6564207468726f7567682060408201526b19195b1959d85d1958d85b1b60a21b606082015260800190565b6020808252602c908201527f46756e6374696f6e206d7573742062652063616c6c6564207468726f7567682060408201526b6163746976652070726f787960a01b606082015260800190565b60006020828403121561293157600080fd5b8151611f7081612583565b805169ffffffffffffffffffff8116811461080757600080fd5b600080600080600060a0868803121561296e57600080fd5b6129778661293c565b945060208601519350604086015192506060860151915061299a6080870161293c565b90509295509295909350565b634e487b7160e01b600052601160045260246000fd5b8082028115828204841417612090576120906129a6565b6000826129f057634e487b7160e01b600052601260045260246000fd5b500490565b600181815b80851115612a30578160001904821115612a1657612a166129a6565b80851615612a2357918102915b93841c93908002906129fa565b509250929050565b600082612a4757506001612090565b81612a5457506000612090565b8160018114612a6a5760028114612a7457612a90565b6001915050612090565b60ff841115612a8557612a856129a6565b50506001821b612090565b5060208310610133831016604e8410600b8410161715612ab3575081810a612090565b612abd83836129f5565b8060001904821115612ad157612ad16129a6565b029392505050565b600061208d8383612a38565b600082601f830112612af657600080fd5b8151602067ffffffffffffffff821115612b1257612b126126ac565b8160051b612b218282016126c2565b9283528481018201928281019087851115612b3b57600080fd5b83870192505b84831015612b5a57825182529183019190830190612b41565b979650505050505050565b60008060008060808587031215612b7b57600080fd5b845167ffffffffffffffff80821115612b9357600080fd5b612b9f88838901612ae5565b9550602087015194506040870151915080821115612bbc57600080fd5b50612bc987828801612ae5565b606096909601519497939650505050565b80820180821115612090576120906129a6565b60208152600061208d602083018461261e565b6020808252602b908201527f496e697469616c697a61626c653a20636f6e7472616374206973206e6f74206960408201526a6e697469616c697a696e6760a81b606082015260800190565b60008251612c5d8184602087016125fa565b919091019291505056fe360894a13ba1a3210667c828492db98dca3e2076cc3735a920a3ca505d382bbc416464726573733a206c6f772d6c6576656c2064656c65676174652063616c6c206661696c6564a264697066735822122049c7977bcdc9cea894de913ea6cd568ac7bd5105d02c45469e2c2c23829f694964736f6c63430008110033","opcodes":"PUSH1 0xA0 PUSH1 0x40 MSTORE ADDRESS PUSH1 0x80 MSTORE CALLVALUE DUP1 ISZERO PUSH2 0x14 JUMPI PUSH1 0x0 DUP1 REVERT JUMPDEST POP PUSH1 0x80 MLOAD PUSH2 0x2CE4 PUSH2 0x4C PUSH1 0x0 CODECOPY PUSH1 0x0 DUP2 DUP2 PUSH2 0xA98 ADD MSTORE DUP2 DUP2 PUSH2 0xAE1 ADD MSTORE DUP2 DUP2 PUSH2 0xBCC ADD MSTORE DUP2 DUP2 PUSH2 0xC0C ADD MSTORE PUSH2 0xC9F ADD MSTORE PUSH2 0x2CE4 PUSH1 0x0 RETURN INVALID PUSH1 0x80 PUSH1 0x40 MSTORE PUSH1 0x4 CALLDATASIZE LT PUSH2 0x260 JUMPI PUSH1 0x0 CALLDATALOAD PUSH1 0xE0 SHR DUP1 PUSH4 0x6AA633B6 GT PUSH2 0x144 JUMPI DUP1 PUSH4 0xA5BAC943 GT PUSH2 0xB6 JUMPI DUP1 PUSH4 0xD42CEDFB GT PUSH2 0x7A JUMPI DUP1 PUSH4 0xD42CEDFB EQ PUSH2 0x6FD JUMPI DUP1 PUSH4 0xDB5184E6 EQ PUSH2 0x71D JUMPI DUP1 PUSH4 0xDC245E12 EQ PUSH2 0x732 JUMPI DUP1 PUSH4 0xE9BD186D EQ PUSH2 0x752 JUMPI DUP1 PUSH4 0xF067C199 EQ PUSH2 0x772 JUMPI DUP1 PUSH4 0xF2FDE38B EQ PUSH2 0x788 JUMPI PUSH1 0x0 DUP1 REVERT JUMPDEST DUP1 PUSH4 0xA5BAC943 EQ PUSH2 0x65E JUMPI DUP1 PUSH4 0xAAFFADF3 EQ PUSH2 0x673 JUMPI DUP1 PUSH4 0xAC6F6A2D EQ PUSH2 0x69D JUMPI DUP1 PUSH4 0xB68E1E46 EQ PUSH2 0x6BD JUMPI DUP1 PUSH4 0xC94D6B1F EQ PUSH2 0x6DD JUMPI PUSH1 0x0 DUP1 REVERT JUMPDEST DUP1 PUSH4 0x857D22EF GT PUSH2 0x108 JUMPI DUP1 PUSH4 0x857D22EF EQ PUSH2 0x5AD JUMPI DUP1 PUSH4 0x8DA5CB5B EQ PUSH2 0x5CD JUMPI DUP1 PUSH4 0x8E68DCE4 EQ PUSH2 0x5EB JUMPI DUP1 PUSH4 0x94A73F59 EQ PUSH2 0x609 JUMPI DUP1 PUSH4 0x98094BA1 EQ PUSH2 0x61E JUMPI DUP1 PUSH4 0x9DD373B9 EQ PUSH2 0x63E JUMPI PUSH1 0x0 DUP1 REVERT JUMPDEST DUP1 PUSH4 0x6AA633B6 EQ PUSH2 0x501 JUMPI DUP1 PUSH4 0x715018A6 EQ PUSH2 0x545 JUMPI DUP1 PUSH4 0x7A22393B EQ PUSH2 0x55A JUMPI DUP1 PUSH4 0x7CE1757D EQ PUSH2 0x57A JUMPI DUP1 PUSH4 0x8129FC1C EQ PUSH2 0x598 JUMPI PUSH1 0x0 DUP1 REVERT JUMPDEST DUP1 PUSH4 0x3659CFE6 GT PUSH2 0x1DD JUMPI DUP1 PUSH4 0x4F1EF286 GT PUSH2 0x1A1 JUMPI DUP1 PUSH4 0x4F1EF286 EQ PUSH2 0x47A JUMPI DUP1 PUSH4 0x52D1902D EQ PUSH2 0x48D JUMPI DUP1 PUSH4 0x57526C33 EQ PUSH2 0x4A2 JUMPI DUP1 PUSH4 0x5845394B EQ PUSH2 0x4B5 JUMPI DUP1 PUSH4 0x5C975ABB EQ PUSH2 0x4D4 JUMPI DUP1 PUSH4 0x65EB204D EQ PUSH2 0x4EC JUMPI PUSH1 0x0 DUP1 REVERT JUMPDEST DUP1 PUSH4 0x3659CFE6 EQ PUSH2 0x3C6 JUMPI DUP1 PUSH4 0x38F992C9 EQ PUSH2 0x3E6 JUMPI DUP1 PUSH4 0x3958B844 EQ PUSH2 0x41A JUMPI DUP1 PUSH4 0x472D561D EQ PUSH2 0x43A JUMPI DUP1 PUSH4 0x4809B429 EQ PUSH2 0x45A JUMPI PUSH1 0x0 DUP1 REVERT JUMPDEST DUP1 PUSH4 0x1CECBE9A GT PUSH2 0x224 JUMPI DUP1 PUSH4 0x1CECBE9A EQ PUSH2 0x32E JUMPI DUP1 PUSH4 0x23442C60 EQ PUSH2 0x34E JUMPI DUP1 PUSH4 0x28B7BEDE EQ PUSH2 0x36C JUMPI DUP1 PUSH4 0x2F11D653 EQ PUSH2 0x391 JUMPI DUP1 PUSH4 0x34DCFA8C EQ PUSH2 0x3A6 JUMPI PUSH1 0x0 DUP1 REVERT JUMPDEST DUP1 PUSH4 0x4C76AF0 EQ PUSH2 0x26C JUMPI DUP1 PUSH4 0x6AD5A47 EQ PUSH2 0x283 JUMPI DUP1 PUSH4 0x8FCFBBE EQ PUSH2 0x2C0 JUMPI DUP1 PUSH4 0x10BD7AB5 EQ PUSH2 0x2E0 JUMPI DUP1 PUSH4 0x14D09B94 EQ PUSH2 0x310 JUMPI PUSH1 0x0 DUP1 REVERT JUMPDEST CALLDATASIZE PUSH2 0x267 JUMPI STOP JUMPDEST PUSH1 0x0 DUP1 REVERT JUMPDEST CALLVALUE DUP1 ISZERO PUSH2 0x278 JUMPI PUSH1 0x0 DUP1 REVERT JUMPDEST POP PUSH2 0x281 PUSH2 0x7A8 JUMP JUMPDEST STOP JUMPDEST CALLVALUE DUP1 ISZERO PUSH2 0x28F JUMPI PUSH1 0x0 DUP1 REVERT JUMPDEST POP PUSH2 0x2A3 PUSH2 0x29E CALLDATASIZE PUSH1 0x4 PUSH2 0x2598 JUMP JUMPDEST PUSH2 0x7DF JUMP JUMPDEST PUSH1 0x40 MLOAD PUSH1 0x1 PUSH1 0x1 PUSH1 0xA0 SHL SUB SWAP1 SWAP2 AND DUP2 MSTORE PUSH1 0x20 ADD JUMPDEST PUSH1 0x40 MLOAD DUP1 SWAP2 SUB SWAP1 RETURN JUMPDEST CALLVALUE DUP1 ISZERO PUSH2 0x2CC JUMPI PUSH1 0x0 DUP1 REVERT JUMPDEST POP PUSH2 0x281 PUSH2 0x2DB CALLDATASIZE PUSH1 0x4 PUSH2 0x2598 JUMP JUMPDEST PUSH2 0x80C JUMP JUMPDEST CALLVALUE DUP1 ISZERO PUSH2 0x2EC JUMPI PUSH1 0x0 DUP1 REVERT JUMPDEST POP PUSH2 0x300 PUSH2 0x2FB CALLDATASIZE PUSH1 0x4 PUSH2 0x25B5 JUMP JUMPDEST PUSH2 0x837 JUMP JUMPDEST PUSH1 0x40 MLOAD SWAP1 ISZERO ISZERO DUP2 MSTORE PUSH1 0x20 ADD PUSH2 0x2B7 JUMP JUMPDEST CALLVALUE DUP1 ISZERO PUSH2 0x31C JUMPI PUSH1 0x0 DUP1 REVERT JUMPDEST POP PUSH1 0xFB SLOAD PUSH1 0x1 PUSH1 0x1 PUSH1 0xA0 SHL SUB AND PUSH2 0x2A3 JUMP JUMPDEST CALLVALUE DUP1 ISZERO PUSH2 0x33A JUMPI PUSH1 0x0 DUP1 REVERT JUMPDEST POP PUSH2 0x281 PUSH2 0x349 CALLDATASIZE PUSH1 0x4 PUSH2 0x25CE JUMP JUMPDEST PUSH2 0x84B JUMP JUMPDEST CALLVALUE DUP1 ISZERO PUSH2 0x35A JUMPI PUSH1 0x0 DUP1 REVERT JUMPDEST POP PUSH1 0xFF SLOAD PUSH1 0x1 PUSH1 0x1 PUSH1 0xA0 SHL SUB AND PUSH2 0x2A3 JUMP JUMPDEST CALLVALUE DUP1 ISZERO PUSH2 0x378 JUMPI PUSH1 0x0 DUP1 REVERT JUMPDEST POP PUSH2 0x381 PUSH2 0x88E JUMP JUMPDEST PUSH1 0x40 MLOAD PUSH2 0x2B7 SWAP5 SWAP4 SWAP3 SWAP2 SWAP1 PUSH2 0x264A JUMP JUMPDEST CALLVALUE DUP1 ISZERO PUSH2 0x39D JUMPI PUSH1 0x0 DUP1 REVERT JUMPDEST POP PUSH2 0x281 PUSH2 0xA03 JUMP JUMPDEST CALLVALUE DUP1 ISZERO PUSH2 0x3B2 JUMPI PUSH1 0x0 DUP1 REVERT JUMPDEST POP PUSH2 0x281 PUSH2 0x3C1 CALLDATASIZE PUSH1 0x4 PUSH2 0x25CE JUMP JUMPDEST PUSH2 0xA15 JUMP JUMPDEST CALLVALUE DUP1 ISZERO PUSH2 0x3D2 JUMPI PUSH1 0x0 DUP1 REVERT JUMPDEST POP PUSH2 0x281 PUSH2 0x3E1 CALLDATASIZE PUSH1 0x4 PUSH2 0x2598 JUMP JUMPDEST PUSH2 0xA8E JUMP JUMPDEST CALLVALUE DUP1 ISZERO PUSH2 0x3F2 JUMPI PUSH1 0x0 DUP1 REVERT JUMPDEST POP PUSH2 0x106 SLOAD PUSH2 0x107 SLOAD PUSH2 0x108 SLOAD PUSH1 0x40 DUP1 MLOAD SWAP4 DUP5 MSTORE PUSH1 0x20 DUP5 ADD SWAP3 SWAP1 SWAP3 MSTORE SWAP1 DUP3 ADD MSTORE PUSH1 0x60 ADD PUSH2 0x2B7 JUMP JUMPDEST CALLVALUE DUP1 ISZERO PUSH2 0x426 JUMPI PUSH1 0x0 DUP1 REVERT JUMPDEST POP PUSH2 0x281 PUSH2 0x435 CALLDATASIZE PUSH1 0x4 PUSH2 0x268F JUMP JUMPDEST PUSH2 0xB73 JUMP JUMPDEST CALLVALUE DUP1 ISZERO PUSH2 0x446 JUMPI PUSH1 0x0 DUP1 REVERT JUMPDEST POP PUSH2 0x103 SLOAD JUMPDEST PUSH1 0x40 MLOAD SWAP1 DUP2 MSTORE PUSH1 0x20 ADD PUSH2 0x2B7 JUMP JUMPDEST CALLVALUE DUP1 ISZERO PUSH2 0x466 JUMPI PUSH1 0x0 DUP1 REVERT JUMPDEST POP PUSH2 0x281 PUSH2 0x475 CALLDATASIZE PUSH1 0x4 PUSH2 0x2598 JUMP JUMPDEST PUSH2 0xB98 JUMP JUMPDEST PUSH2 0x281 PUSH2 0x488 CALLDATASIZE PUSH1 0x4 PUSH2 0x271B JUMP JUMPDEST PUSH2 0xBC2 JUMP JUMPDEST CALLVALUE DUP1 ISZERO PUSH2 0x499 JUMPI PUSH1 0x0 DUP1 REVERT JUMPDEST POP PUSH2 0x44C PUSH2 0xC92 JUMP JUMPDEST PUSH2 0x281 PUSH2 0x4B0 CALLDATASIZE PUSH1 0x4 PUSH2 0x25CE JUMP JUMPDEST PUSH2 0xD45 JUMP JUMPDEST CALLVALUE DUP1 ISZERO PUSH2 0x4C1 JUMPI PUSH1 0x0 DUP1 REVERT JUMPDEST POP PUSH2 0x102 SLOAD PUSH1 0x1 PUSH1 0x1 PUSH1 0xA0 SHL SUB AND PUSH2 0x2A3 JUMP JUMPDEST CALLVALUE DUP1 ISZERO PUSH2 0x4E0 JUMPI PUSH1 0x0 DUP1 REVERT JUMPDEST POP PUSH1 0x65 SLOAD PUSH1 0xFF AND PUSH2 0x300 JUMP JUMPDEST CALLVALUE DUP1 ISZERO PUSH2 0x4F8 JUMPI PUSH1 0x0 DUP1 REVERT JUMPDEST POP PUSH2 0x381 PUSH2 0x109E JUMP JUMPDEST CALLVALUE DUP1 ISZERO PUSH2 0x50D JUMPI PUSH1 0x0 DUP1 REVERT JUMPDEST POP PUSH2 0x109 SLOAD PUSH1 0x40 DUP1 MLOAD PUSH1 0xFF DUP1 DUP5 AND ISZERO ISZERO DUP3 MSTORE PUSH2 0x100 DUP5 DIV DUP2 AND ISZERO ISZERO PUSH1 0x20 DUP4 ADD MSTORE PUSH3 0x10000 SWAP1 SWAP4 DIV SWAP1 SWAP3 AND ISZERO ISZERO SWAP1 DUP3 ADD MSTORE PUSH1 0x60 ADD PUSH2 0x2B7 JUMP JUMPDEST CALLVALUE DUP1 ISZERO PUSH2 0x551 JUMPI PUSH1 0x0 DUP1 REVERT JUMPDEST POP PUSH2 0x281 PUSH2 0x11EA JUMP JUMPDEST CALLVALUE DUP1 ISZERO PUSH2 0x566 JUMPI PUSH1 0x0 DUP1 REVERT JUMPDEST POP PUSH2 0x281 PUSH2 0x575 CALLDATASIZE PUSH1 0x4 PUSH2 0x2598 JUMP JUMPDEST PUSH2 0x11FC JUMP JUMPDEST CALLVALUE DUP1 ISZERO PUSH2 0x586 JUMPI PUSH1 0x0 DUP1 REVERT JUMPDEST POP PUSH1 0xFC SLOAD PUSH1 0x1 PUSH1 0x1 PUSH1 0xA0 SHL SUB AND PUSH2 0x2A3 JUMP JUMPDEST CALLVALUE DUP1 ISZERO PUSH2 0x5A4 JUMPI PUSH1 0x0 DUP1 REVERT JUMPDEST POP PUSH2 0x281 PUSH2 0x1226 JUMP JUMPDEST CALLVALUE DUP1 ISZERO PUSH2 0x5B9 JUMPI PUSH1 0x0 DUP1 REVERT JUMPDEST POP PUSH2 0x300 PUSH2 0x5C8 CALLDATASIZE PUSH1 0x4 PUSH2 0x2598 JUMP JUMPDEST PUSH2 0x141A JUMP JUMPDEST CALLVALUE DUP1 ISZERO PUSH2 0x5D9 JUMPI PUSH1 0x0 DUP1 REVERT JUMPDEST POP PUSH1 0x33 SLOAD PUSH1 0x1 PUSH1 0x1 PUSH1 0xA0 SHL SUB AND PUSH2 0x2A3 JUMP JUMPDEST CALLVALUE DUP1 ISZERO PUSH2 0x5F7 JUMPI PUSH1 0x0 DUP1 REVERT JUMPDEST POP PUSH1 0xFE SLOAD PUSH1 0x1 PUSH1 0x1 PUSH1 0xA0 SHL SUB AND PUSH2 0x2A3 JUMP JUMPDEST CALLVALUE DUP1 ISZERO PUSH2 0x615 JUMPI PUSH1 0x0 DUP1 REVERT JUMPDEST POP PUSH2 0x44C PUSH2 0x144A JUMP JUMPDEST CALLVALUE DUP1 ISZERO PUSH2 0x62A JUMPI PUSH1 0x0 DUP1 REVERT JUMPDEST POP PUSH2 0x300 PUSH2 0x639 CALLDATASIZE PUSH1 0x4 PUSH2 0x268F JUMP JUMPDEST PUSH2 0x14E2 JUMP JUMPDEST CALLVALUE DUP1 ISZERO PUSH2 0x64A JUMPI PUSH1 0x0 DUP1 REVERT JUMPDEST POP PUSH2 0x300 PUSH2 0x659 CALLDATASIZE PUSH1 0x4 PUSH2 0x2598 JUMP JUMPDEST PUSH2 0x14FF JUMP JUMPDEST CALLVALUE DUP1 ISZERO PUSH2 0x66A JUMPI PUSH1 0x0 DUP1 REVERT JUMPDEST POP PUSH2 0x381 PUSH2 0x152E JUMP JUMPDEST CALLVALUE DUP1 ISZERO PUSH2 0x67F JUMPI PUSH1 0x0 DUP1 REVERT JUMPDEST POP PUSH2 0x688 PUSH2 0x167A JUMP JUMPDEST PUSH1 0x40 DUP1 MLOAD SWAP3 DUP4 MSTORE PUSH1 0x20 DUP4 ADD SWAP2 SWAP1 SWAP2 MSTORE ADD PUSH2 0x2B7 JUMP JUMPDEST CALLVALUE DUP1 ISZERO PUSH2 0x6A9 JUMPI PUSH1 0x0 DUP1 REVERT JUMPDEST POP PUSH2 0x300 PUSH2 0x6B8 CALLDATASIZE PUSH1 0x4 PUSH2 0x2598 JUMP JUMPDEST PUSH2 0x1691 JUMP JUMPDEST CALLVALUE DUP1 ISZERO PUSH2 0x6C9 JUMPI PUSH1 0x0 DUP1 REVERT JUMPDEST POP PUSH2 0x300 PUSH2 0x6D8 CALLDATASIZE PUSH1 0x4 PUSH2 0x2598 JUMP JUMPDEST PUSH2 0x16C1 JUMP JUMPDEST CALLVALUE DUP1 ISZERO PUSH2 0x6E9 JUMPI PUSH1 0x0 DUP1 REVERT JUMPDEST POP PUSH2 0x300 PUSH2 0x6F8 CALLDATASIZE PUSH1 0x4 PUSH2 0x25B5 JUMP JUMPDEST PUSH2 0x16F0 JUMP JUMPDEST CALLVALUE DUP1 ISZERO PUSH2 0x709 JUMPI PUSH1 0x0 DUP1 REVERT JUMPDEST POP PUSH2 0x281 PUSH2 0x718 CALLDATASIZE PUSH1 0x4 PUSH2 0x27AE JUMP JUMPDEST PUSH2 0x1704 JUMP JUMPDEST CALLVALUE DUP1 ISZERO PUSH2 0x729 JUMPI PUSH1 0x0 DUP1 REVERT JUMPDEST POP PUSH2 0x281 PUSH2 0x19A6 JUMP JUMPDEST CALLVALUE DUP1 ISZERO PUSH2 0x73E JUMPI PUSH1 0x0 DUP1 REVERT JUMPDEST POP PUSH2 0x300 PUSH2 0x74D CALLDATASIZE PUSH1 0x4 PUSH2 0x25B5 JUMP JUMPDEST PUSH2 0x19B6 JUMP JUMPDEST CALLVALUE DUP1 ISZERO PUSH2 0x75E JUMPI PUSH1 0x0 DUP1 REVERT JUMPDEST POP PUSH2 0x300 PUSH2 0x76D CALLDATASIZE PUSH1 0x4 PUSH2 0x268F JUMP JUMPDEST PUSH2 0x19CA JUMP JUMPDEST CALLVALUE DUP1 ISZERO PUSH2 0x77E JUMPI PUSH1 0x0 DUP1 REVERT JUMPDEST POP PUSH2 0x104 SLOAD PUSH2 0x44C JUMP JUMPDEST CALLVALUE DUP1 ISZERO PUSH2 0x794 JUMPI PUSH1 0x0 DUP1 REVERT JUMPDEST POP PUSH2 0x281 PUSH2 0x7A3 CALLDATASIZE PUSH1 0x4 PUSH2 0x2598 JUMP JUMPDEST PUSH2 0x19F2 JUMP JUMPDEST PUSH2 0x7B0 PUSH2 0x1A68 JUMP JUMPDEST PUSH1 0x40 MLOAD CALLER SWAP1 SELFBALANCE DUP1 ISZERO PUSH2 0x8FC MUL SWAP2 PUSH1 0x0 DUP2 DUP2 DUP2 DUP6 DUP9 DUP9 CALL SWAP4 POP POP POP POP ISZERO DUP1 ISZERO PUSH2 0x7DC JUMPI RETURNDATASIZE PUSH1 0x0 DUP1 RETURNDATACOPY RETURNDATASIZE PUSH1 0x0 REVERT JUMPDEST POP JUMP JUMPDEST PUSH1 0x0 PUSH2 0x7E9 PUSH2 0x1A68 JUMP JUMPDEST POP PUSH1 0xFF DUP1 SLOAD PUSH1 0x1 PUSH1 0x1 PUSH1 0xA0 SHL SUB NOT AND PUSH1 0x1 PUSH1 0x1 PUSH1 0xA0 SHL SUB DUP4 AND OR SWAP1 SSTORE DUP1 JUMPDEST SWAP2 SWAP1 POP JUMP JUMPDEST PUSH2 0x814 PUSH2 0x1A68 JUMP JUMPDEST PUSH2 0x101 DUP1 SLOAD PUSH1 0x1 PUSH1 0x1 PUSH1 0xA0 SHL SUB NOT AND PUSH1 0x1 PUSH1 0x1 PUSH1 0xA0 SHL SUB SWAP3 SWAP1 SWAP3 AND SWAP2 SWAP1 SWAP2 OR SWAP1 SSTORE JUMP JUMPDEST PUSH1 0x0 PUSH2 0x841 PUSH2 0x1A68 JUMP JUMPDEST POP PUSH2 0x104 SSTORE PUSH1 0x1 SWAP1 JUMP JUMPDEST PUSH2 0x853 PUSH2 0x1A68 JUMP JUMPDEST PUSH1 0x40 MLOAD PUSH1 0x1 PUSH1 0x1 PUSH1 0xA0 SHL SUB DUP4 AND SWAP1 DUP3 ISZERO PUSH2 0x8FC MUL SWAP1 DUP4 SWAP1 PUSH1 0x0 DUP2 DUP2 DUP2 DUP6 DUP9 DUP9 CALL SWAP4 POP POP POP POP ISZERO DUP1 ISZERO PUSH2 0x889 JUMPI RETURNDATASIZE PUSH1 0x0 DUP1 RETURNDATACOPY RETURNDATASIZE PUSH1 0x0 REVERT JUMPDEST POP POP POP JUMP JUMPDEST PUSH1 0xFD SLOAD PUSH1 0x40 DUP1 MLOAD PUSH4 0x6FDDE03 PUSH1 0xE0 SHL DUP2 MSTORE SWAP1 MLOAD PUSH1 0x1 PUSH1 0x1 PUSH1 0xA0 SHL SUB SWAP1 SWAP3 AND SWAP2 PUSH1 0x60 SWAP2 PUSH1 0x0 SWAP2 DUP3 SWAP2 DUP6 SWAP2 PUSH4 0x6FDDE03 SWAP2 PUSH1 0x4 DUP1 DUP3 ADD SWAP3 DUP7 SWAP3 SWAP1 SWAP2 SWAP1 DUP3 SWAP1 SUB ADD DUP2 DUP7 GAS STATICCALL ISZERO DUP1 ISZERO PUSH2 0x8E1 JUMPI RETURNDATASIZE PUSH1 0x0 DUP1 RETURNDATACOPY RETURNDATASIZE PUSH1 0x0 REVERT JUMPDEST POP POP POP POP PUSH1 0x40 MLOAD RETURNDATASIZE PUSH1 0x0 DUP3 RETURNDATACOPY PUSH1 0x1F RETURNDATASIZE SWAP1 DUP2 ADD PUSH1 0x1F NOT AND DUP3 ADD PUSH1 0x40 MSTORE PUSH2 0x909 SWAP2 SWAP1 DUP2 ADD SWAP1 PUSH2 0x27E3 JUMP JUMPDEST SWAP3 POP PUSH1 0xFD PUSH1 0x0 SWAP1 SLOAD SWAP1 PUSH2 0x100 EXP SWAP1 DIV PUSH1 0x1 PUSH1 0x1 PUSH1 0xA0 SHL SUB AND PUSH1 0x1 PUSH1 0x1 PUSH1 0xA0 SHL SUB AND PUSH4 0x313CE567 PUSH1 0x40 MLOAD DUP2 PUSH4 0xFFFFFFFF AND PUSH1 0xE0 SHL DUP2 MSTORE PUSH1 0x4 ADD PUSH1 0x20 PUSH1 0x40 MLOAD DUP1 DUP4 SUB DUP2 DUP7 GAS STATICCALL ISZERO DUP1 ISZERO PUSH2 0x95E JUMPI RETURNDATASIZE PUSH1 0x0 DUP1 RETURNDATACOPY RETURNDATASIZE PUSH1 0x0 REVERT JUMPDEST POP POP POP POP PUSH1 0x40 MLOAD RETURNDATASIZE PUSH1 0x1F NOT PUSH1 0x1F DUP3 ADD AND DUP3 ADD DUP1 PUSH1 0x40 MSTORE POP DUP2 ADD SWAP1 PUSH2 0x982 SWAP2 SWAP1 PUSH2 0x2851 JUMP JUMPDEST SWAP2 POP PUSH1 0xFD PUSH1 0x0 SWAP1 SLOAD SWAP1 PUSH2 0x100 EXP SWAP1 DIV PUSH1 0x1 PUSH1 0x1 PUSH1 0xA0 SHL SUB AND PUSH1 0x1 PUSH1 0x1 PUSH1 0xA0 SHL SUB AND PUSH4 0x18160DDD PUSH1 0x40 MLOAD DUP2 PUSH4 0xFFFFFFFF AND PUSH1 0xE0 SHL DUP2 MSTORE PUSH1 0x4 ADD PUSH1 0x20 PUSH1 0x40 MLOAD DUP1 DUP4 SUB DUP2 DUP7 GAS STATICCALL ISZERO DUP1 ISZERO PUSH2 0x9D7 JUMPI RETURNDATASIZE PUSH1 0x0 DUP1 RETURNDATACOPY RETURNDATASIZE PUSH1 0x0 REVERT JUMPDEST POP POP POP POP PUSH1 0x40 MLOAD RETURNDATASIZE PUSH1 0x1F NOT PUSH1 0x1F DUP3 ADD AND DUP3 ADD DUP1 PUSH1 0x40 MSTORE POP DUP2 ADD SWAP1 PUSH2 0x9FB SWAP2 SWAP1 PUSH2 0x2851 JUMP JUMPDEST SWAP1 POP SWAP1 SWAP2 SWAP3 SWAP4 JUMP JUMPDEST PUSH2 0xA0B PUSH2 0x1A68 JUMP JUMPDEST PUSH2 0xA13 PUSH2 0x1AC2 JUMP JUMPDEST JUMP JUMPDEST PUSH2 0xA1D PUSH2 0x1A68 JUMP JUMPDEST PUSH1 0x40 MLOAD PUSH4 0xA9059CBB PUSH1 0xE0 SHL DUP2 MSTORE CALLER PUSH1 0x4 DUP3 ADD MSTORE PUSH1 0x24 DUP2 ADD DUP3 SWAP1 MSTORE PUSH1 0x1 PUSH1 0x1 PUSH1 0xA0 SHL SUB DUP4 AND SWAP1 PUSH4 0xA9059CBB SWAP1 PUSH1 0x44 ADD PUSH1 0x20 PUSH1 0x40 MLOAD DUP1 DUP4 SUB DUP2 PUSH1 0x0 DUP8 GAS CALL ISZERO DUP1 ISZERO PUSH2 0xA6A JUMPI RETURNDATASIZE PUSH1 0x0 DUP1 RETURNDATACOPY RETURNDATASIZE PUSH1 0x0 REVERT JUMPDEST POP POP POP POP PUSH1 0x40 MLOAD RETURNDATASIZE PUSH1 0x1F NOT PUSH1 0x1F DUP3 ADD AND DUP3 ADD DUP1 PUSH1 0x40 MSTORE POP DUP2 ADD SWAP1 PUSH2 0x889 SWAP2 SWAP1 PUSH2 0x286A JUMP JUMPDEST PUSH1 0x1 PUSH1 0x1 PUSH1 0xA0 SHL SUB PUSH32 0x0 AND ADDRESS SUB PUSH2 0xADF JUMPI PUSH1 0x40 MLOAD PUSH3 0x461BCD PUSH1 0xE5 SHL DUP2 MSTORE PUSH1 0x4 ADD PUSH2 0xAD6 SWAP1 PUSH2 0x2887 JUMP JUMPDEST PUSH1 0x40 MLOAD DUP1 SWAP2 SUB SWAP1 REVERT JUMPDEST PUSH32 0x0 PUSH1 0x1 PUSH1 0x1 PUSH1 0xA0 SHL SUB AND PUSH2 0xB28 PUSH1 0x0 DUP1 MLOAD PUSH1 0x20 PUSH2 0x2C68 DUP4 CODECOPY DUP2 MLOAD SWAP2 MSTORE SLOAD PUSH1 0x1 PUSH1 0x1 PUSH1 0xA0 SHL SUB AND SWAP1 JUMP JUMPDEST PUSH1 0x1 PUSH1 0x1 PUSH1 0xA0 SHL SUB AND EQ PUSH2 0xB4E JUMPI PUSH1 0x40 MLOAD PUSH3 0x461BCD PUSH1 0xE5 SHL DUP2 MSTORE PUSH1 0x4 ADD PUSH2 0xAD6 SWAP1 PUSH2 0x28D3 JUMP JUMPDEST PUSH2 0xB57 DUP2 PUSH2 0x1B1C JUMP JUMPDEST PUSH1 0x40 DUP1 MLOAD PUSH1 0x0 DUP1 DUP3 MSTORE PUSH1 0x20 DUP3 ADD SWAP1 SWAP3 MSTORE PUSH2 0x7DC SWAP2 DUP4 SWAP2 SWAP1 PUSH2 0x1B24 JUMP JUMPDEST PUSH2 0xB7B PUSH2 0x1A68 JUMP JUMPDEST PUSH2 0x109 DUP1 SLOAD SWAP2 ISZERO ISZERO PUSH3 0x10000 MUL PUSH3 0xFF0000 NOT SWAP1 SWAP3 AND SWAP2 SWAP1 SWAP2 OR SWAP1 SSTORE JUMP JUMPDEST PUSH2 0xBA0 PUSH2 0x1A68 JUMP JUMPDEST PUSH1 0xFC DUP1 SLOAD PUSH1 0x1 PUSH1 0x1 PUSH1 0xA0 SHL SUB NOT AND PUSH1 0x1 PUSH1 0x1 PUSH1 0xA0 SHL SUB SWAP3 SWAP1 SWAP3 AND SWAP2 SWAP1 SWAP2 OR SWAP1 SSTORE JUMP JUMPDEST PUSH1 0x1 PUSH1 0x1 PUSH1 0xA0 SHL SUB PUSH32 0x0 AND ADDRESS SUB PUSH2 0xC0A JUMPI PUSH1 0x40 MLOAD PUSH3 0x461BCD PUSH1 0xE5 SHL DUP2 MSTORE PUSH1 0x4 ADD PUSH2 0xAD6 SWAP1 PUSH2 0x2887 JUMP JUMPDEST PUSH32 0x0 PUSH1 0x1 PUSH1 0x1 PUSH1 0xA0 SHL SUB AND PUSH2 0xC53 PUSH1 0x0 DUP1 MLOAD PUSH1 0x20 PUSH2 0x2C68 DUP4 CODECOPY DUP2 MLOAD SWAP2 MSTORE SLOAD PUSH1 0x1 PUSH1 0x1 PUSH1 0xA0 SHL SUB AND SWAP1 JUMP JUMPDEST PUSH1 0x1 PUSH1 0x1 PUSH1 0xA0 SHL SUB AND EQ PUSH2 0xC79 JUMPI PUSH1 0x40 MLOAD PUSH3 0x461BCD PUSH1 0xE5 SHL DUP2 MSTORE PUSH1 0x4 ADD PUSH2 0xAD6 SWAP1 PUSH2 0x28D3 JUMP JUMPDEST PUSH2 0xC82 DUP3 PUSH2 0x1B1C JUMP JUMPDEST PUSH2 0xC8E DUP3 DUP3 PUSH1 0x1 PUSH2 0x1B24 JUMP JUMPDEST POP POP JUMP JUMPDEST PUSH1 0x0 ADDRESS PUSH1 0x1 PUSH1 0x1 PUSH1 0xA0 SHL SUB PUSH32 0x0 AND EQ PUSH2 0xD32 JUMPI PUSH1 0x40 MLOAD PUSH3 0x461BCD PUSH1 0xE5 SHL DUP2 MSTORE PUSH1 0x20 PUSH1 0x4 DUP3 ADD MSTORE PUSH1 0x38 PUSH1 0x24 DUP3 ADD MSTORE PUSH32 0x555550535570677261646561626C653A206D757374206E6F742062652063616C PUSH1 0x44 DUP3 ADD MSTORE PUSH32 0x6C6564207468726F7567682064656C656761746563616C6C0000000000000000 PUSH1 0x64 DUP3 ADD MSTORE PUSH1 0x84 ADD PUSH2 0xAD6 JUMP JUMPDEST POP PUSH1 0x0 DUP1 MLOAD PUSH1 0x20 PUSH2 0x2C68 DUP4 CODECOPY DUP2 MLOAD SWAP2 MSTORE SWAP1 JUMP JUMPDEST PUSH2 0xD4D PUSH2 0x1C8F JUMP JUMPDEST CALLER CALLVALUE PUSH2 0xD57 PUSH2 0x1CD5 JUMP JUMPDEST DUP2 LT ISZERO PUSH2 0xDB9 JUMPI PUSH1 0x40 MLOAD PUSH3 0x461BCD PUSH1 0xE5 SHL DUP2 MSTORE PUSH1 0x20 PUSH1 0x4 DUP3 ADD MSTORE PUSH1 0x2A PUSH1 0x24 DUP3 ADD MSTORE PUSH32 0x4574682056616C7565206973206C657373207468616E206D696E436F6E747269 PUSH1 0x44 DUP3 ADD MSTORE PUSH10 0x313ABA34B7B722AA2417 PUSH1 0xB1 SHL PUSH1 0x64 DUP3 ADD MSTORE PUSH1 0x84 ADD PUSH2 0xAD6 JUMP JUMPDEST PUSH1 0x0 PUSH2 0xDC8 DUP3 PUSH2 0x103 SLOAD PUSH2 0x1DA6 JUMP JUMPDEST SWAP1 POP PUSH1 0x0 PUSH2 0xDD9 DUP4 PUSH2 0x104 SLOAD PUSH2 0x1DA6 JUMP JUMPDEST PUSH2 0x109 SLOAD SWAP1 SWAP2 POP PUSH1 0xFF AND ISZERO PUSH2 0xDF9 JUMPI PUSH2 0xDF3 DUP5 DUP4 DUP8 PUSH2 0x1EEE JUMP JUMPDEST POP PUSH2 0xE17 JUMP JUMPDEST PUSH1 0xFD SLOAD PUSH1 0xFB SLOAD PUSH2 0xE17 SWAP2 PUSH1 0x1 PUSH1 0x1 PUSH1 0xA0 SHL SUB SWAP1 DUP2 AND SWAP2 AND DUP7 DUP6 PUSH2 0x1F77 JUMP JUMPDEST PUSH2 0x109 SLOAD PUSH2 0x100 SWAP1 DIV PUSH1 0xFF AND ISZERO PUSH2 0xEF3 JUMPI PUSH1 0xFF SLOAD PUSH1 0x1 PUSH1 0x1 PUSH1 0xA0 SHL SUB AND PUSH2 0x8FC PUSH2 0xE49 PUSH2 0xE42 PUSH2 0x1FF9 JUMP JUMPDEST DUP7 SWAP1 PUSH2 0x2081 JUMP JUMPDEST PUSH1 0x40 MLOAD DUP2 ISZERO SWAP1 SWAP3 MUL SWAP2 PUSH1 0x0 DUP2 DUP2 DUP2 DUP6 DUP9 DUP9 CALL SWAP4 POP POP POP POP ISZERO DUP1 ISZERO PUSH2 0xE71 JUMPI RETURNDATASIZE PUSH1 0x0 DUP1 RETURNDATACOPY RETURNDATASIZE PUSH1 0x0 REVERT JUMPDEST POP PUSH1 0xFF SLOAD PUSH1 0x40 MLOAD PUSH4 0x1EB714B1 PUSH1 0xE3 SHL DUP2 MSTORE PUSH1 0x4 DUP2 ADD DUP6 SWAP1 MSTORE PUSH1 0x1 PUSH1 0x1 PUSH1 0xA0 SHL SUB DUP7 DUP2 AND PUSH1 0x24 DUP4 ADD MSTORE DUP9 DUP2 AND PUSH1 0x44 DUP4 ADD MSTORE SWAP1 SWAP2 AND SWAP1 PUSH4 0xF5B8A588 SWAP1 PUSH1 0x64 ADD PUSH1 0x20 PUSH1 0x40 MLOAD DUP1 DUP4 SUB DUP2 PUSH1 0x0 DUP8 GAS CALL ISZERO DUP1 ISZERO PUSH2 0xECD JUMPI RETURNDATASIZE PUSH1 0x0 DUP1 RETURNDATACOPY RETURNDATASIZE PUSH1 0x0 REVERT JUMPDEST POP POP POP POP PUSH1 0x40 MLOAD RETURNDATASIZE PUSH1 0x1F NOT PUSH1 0x1F DUP3 ADD AND DUP3 ADD DUP1 PUSH1 0x40 MSTORE POP DUP2 ADD SWAP1 PUSH2 0xEF1 SWAP2 SWAP1 PUSH2 0x286A JUMP JUMPDEST POP JUMPDEST PUSH2 0x109 SLOAD PUSH3 0x10000 SWAP1 DIV PUSH1 0xFF AND ISZERO PUSH2 0x1035 JUMPI PUSH2 0x101 SLOAD PUSH1 0xFC SLOAD PUSH1 0xFF SLOAD PUSH1 0x40 MLOAD PUSH4 0x10ED3AFD PUSH1 0xE2 SHL DUP2 MSTORE PUSH1 0x1 PUSH1 0x1 PUSH1 0xA0 SHL SUB DUP9 DUP2 AND PUSH1 0x4 DUP4 ADD MSTORE PUSH2 0xF89 SWAP5 DUP2 AND SWAP4 DUP2 AND SWAP3 AND SWAP1 PUSH4 0x43B4EBF4 SWAP1 PUSH1 0x24 ADD JUMPDEST PUSH1 0x20 PUSH1 0x40 MLOAD DUP1 DUP4 SUB DUP2 DUP7 GAS STATICCALL ISZERO DUP1 ISZERO PUSH2 0xF5F JUMPI RETURNDATASIZE PUSH1 0x0 DUP1 RETURNDATACOPY RETURNDATASIZE PUSH1 0x0 REVERT JUMPDEST POP POP POP POP PUSH1 0x40 MLOAD RETURNDATASIZE PUSH1 0x1F NOT PUSH1 0x1F DUP3 ADD AND DUP3 ADD DUP1 PUSH1 0x40 MSTORE POP DUP2 ADD SWAP1 PUSH2 0xF83 SWAP2 SWAP1 PUSH2 0x291F JUMP JUMPDEST DUP5 PUSH2 0x1F77 JUMP JUMPDEST PUSH2 0x101 SLOAD PUSH1 0xFF SLOAD PUSH1 0x40 MLOAD PUSH4 0x10ED3AFD PUSH1 0xE2 SHL DUP2 MSTORE PUSH1 0x1 PUSH1 0x1 PUSH1 0xA0 SHL SUB DUP8 DUP2 AND PUSH1 0x4 DUP4 ADD MSTORE SWAP3 DUP4 AND SWAP3 DUP5 SWAP3 AND SWAP1 PUSH4 0x43B4EBF4 SWAP1 PUSH1 0x24 ADD PUSH1 0x20 PUSH1 0x40 MLOAD DUP1 DUP4 SUB DUP2 DUP7 GAS STATICCALL ISZERO DUP1 ISZERO PUSH2 0xFDB JUMPI RETURNDATASIZE PUSH1 0x0 DUP1 RETURNDATACOPY RETURNDATASIZE PUSH1 0x0 REVERT JUMPDEST POP POP POP POP PUSH1 0x40 MLOAD RETURNDATASIZE PUSH1 0x1F NOT PUSH1 0x1F DUP3 ADD AND DUP3 ADD DUP1 PUSH1 0x40 MSTORE POP DUP2 ADD SWAP1 PUSH2 0xFFF SWAP2 SWAP1 PUSH2 0x291F JUMP JUMPDEST PUSH1 0x1 PUSH1 0x1 PUSH1 0xA0 SHL SUB AND PUSH32 0xDEC9451EA7F92DE23239AC3B71D0A2C5D5BAE68AF900A8B74100C866D159F419 PUSH1 0x40 MLOAD PUSH1 0x40 MLOAD DUP1 SWAP2 SUB SWAP1 LOG4 JUMPDEST PUSH1 0xFB SLOAD PUSH1 0x40 MLOAD PUSH1 0x1 PUSH1 0x1 PUSH1 0xA0 SHL SUB SWAP1 SWAP2 AND SWAP1 SELFBALANCE DUP1 ISZERO PUSH2 0x8FC MUL SWAP2 PUSH1 0x0 DUP2 DUP2 DUP2 DUP6 DUP9 DUP9 CALL SWAP4 POP POP POP POP ISZERO DUP1 ISZERO PUSH2 0x106E JUMPI RETURNDATASIZE PUSH1 0x0 DUP1 RETURNDATACOPY RETURNDATASIZE PUSH1 0x0 REVERT JUMPDEST POP PUSH2 0x1096 DUP5 DUP4 DUP6 PUSH1 0x40 MLOAD DUP1 PUSH1 0x40 ADD PUSH1 0x40 MSTORE DUP1 PUSH1 0x3 DUP2 MSTORE PUSH1 0x20 ADD PUSH3 0x8AA89 PUSH1 0xEB SHL DUP2 MSTORE POP PUSH2 0x2096 JUMP JUMPDEST POP POP POP POP POP POP JUMP JUMPDEST PUSH2 0x101 SLOAD PUSH1 0x40 DUP1 MLOAD PUSH4 0x6FDDE03 PUSH1 0xE0 SHL DUP2 MSTORE SWAP1 MLOAD PUSH1 0x1 PUSH1 0x1 PUSH1 0xA0 SHL SUB SWAP1 SWAP3 AND SWAP2 PUSH1 0x60 SWAP2 PUSH1 0x0 SWAP2 DUP3 SWAP2 DUP6 SWAP2 PUSH4 0x6FDDE03 SWAP2 PUSH1 0x4 DUP1 DUP3 ADD SWAP3 DUP7 SWAP3 SWAP1 SWAP2 SWAP1 DUP3 SWAP1 SUB ADD DUP2 DUP7 GAS STATICCALL ISZERO DUP1 ISZERO PUSH2 0x10F2 JUMPI RETURNDATASIZE PUSH1 0x0 DUP1 RETURNDATACOPY RETURNDATASIZE PUSH1 0x0 REVERT JUMPDEST POP POP POP POP PUSH1 0x40 MLOAD RETURNDATASIZE PUSH1 0x0 DUP3 RETURNDATACOPY PUSH1 0x1F RETURNDATASIZE SWAP1 DUP2 ADD PUSH1 0x1F NOT AND DUP3 ADD PUSH1 0x40 MSTORE PUSH2 0x111A SWAP2 SWAP1 DUP2 ADD SWAP1 PUSH2 0x27E3 JUMP JUMPDEST SWAP3 POP PUSH2 0x101 PUSH1 0x0 SWAP1 SLOAD SWAP1 PUSH2 0x100 EXP SWAP1 DIV PUSH1 0x1 PUSH1 0x1 PUSH1 0xA0 SHL SUB AND PUSH1 0x1 PUSH1 0x1 PUSH1 0xA0 SHL SUB AND PUSH4 0x313CE567 PUSH1 0x40 MLOAD DUP2 PUSH4 0xFFFFFFFF AND PUSH1 0xE0 SHL DUP2 MSTORE PUSH1 0x4 ADD PUSH1 0x20 PUSH1 0x40 MLOAD DUP1 DUP4 SUB DUP2 DUP7 GAS STATICCALL ISZERO DUP1 ISZERO PUSH2 0x1170 JUMPI RETURNDATASIZE PUSH1 0x0 DUP1 RETURNDATACOPY RETURNDATASIZE PUSH1 0x0 REVERT JUMPDEST POP POP POP POP PUSH1 0x40 MLOAD RETURNDATASIZE PUSH1 0x1F NOT PUSH1 0x1F DUP3 ADD AND DUP3 ADD DUP1 PUSH1 0x40 MSTORE POP DUP2 ADD SWAP1 PUSH2 0x1194 SWAP2 SWAP1 PUSH2 0x2851 JUMP JUMPDEST SWAP2 POP PUSH2 0x101 PUSH1 0x0 SWAP1 SLOAD SWAP1 PUSH2 0x100 EXP SWAP1 DIV PUSH1 0x1 PUSH1 0x1 PUSH1 0xA0 SHL SUB AND PUSH1 0x1 PUSH1 0x1 PUSH1 0xA0 SHL SUB AND PUSH4 0x18160DDD PUSH1 0x40 MLOAD DUP2 PUSH4 0xFFFFFFFF AND PUSH1 0xE0 SHL DUP2 MSTORE PUSH1 0x4 ADD PUSH1 0x20 PUSH1 0x40 MLOAD DUP1 DUP4 SUB DUP2 DUP7 GAS STATICCALL ISZERO DUP1 ISZERO PUSH2 0x9D7 JUMPI RETURNDATASIZE PUSH1 0x0 DUP1 RETURNDATACOPY RETURNDATASIZE PUSH1 0x0 REVERT JUMPDEST PUSH2 0x11F2 PUSH2 0x1A68 JUMP JUMPDEST PUSH2 0xA13 PUSH1 0x0 PUSH2 0x2113 JUMP JUMPDEST PUSH2 0x1204 PUSH2 0x1A68 JUMP JUMPDEST PUSH1 0xFB DUP1 SLOAD PUSH1 0x1 PUSH1 0x1 PUSH1 0xA0 SHL SUB NOT AND PUSH1 0x1 PUSH1 0x1 PUSH1 0xA0 SHL SUB SWAP3 SWAP1 SWAP3 AND SWAP2 SWAP1 SWAP2 OR SWAP1 SSTORE JUMP JUMPDEST PUSH1 0x0 SLOAD PUSH2 0x100 SWAP1 DIV PUSH1 0xFF AND ISZERO DUP1 DUP1 ISZERO PUSH2 0x1246 JUMPI POP PUSH1 0x0 SLOAD PUSH1 0x1 PUSH1 0xFF SWAP1 SWAP2 AND LT JUMPDEST DUP1 PUSH2 0x1260 JUMPI POP ADDRESS EXTCODESIZE ISZERO DUP1 ISZERO PUSH2 0x1260 JUMPI POP PUSH1 0x0 SLOAD PUSH1 0xFF AND PUSH1 0x1 EQ JUMPDEST PUSH2 0x12C3 JUMPI PUSH1 0x40 MLOAD PUSH3 0x461BCD PUSH1 0xE5 SHL DUP2 MSTORE PUSH1 0x20 PUSH1 0x4 DUP3 ADD MSTORE PUSH1 0x2E PUSH1 0x24 DUP3 ADD MSTORE PUSH32 0x496E697469616C697A61626C653A20636F6E747261637420697320616C726561 PUSH1 0x44 DUP3 ADD MSTORE PUSH14 0x191E481A5B9A5D1A585B1A5E9959 PUSH1 0x92 SHL PUSH1 0x64 DUP3 ADD MSTORE PUSH1 0x84 ADD PUSH2 0xAD6 JUMP JUMPDEST PUSH1 0x0 DUP1 SLOAD PUSH1 0xFF NOT AND PUSH1 0x1 OR SWAP1 SSTORE DUP1 ISZERO PUSH2 0x12E6 JUMPI PUSH1 0x0 DUP1 SLOAD PUSH2 0xFF00 NOT AND PUSH2 0x100 OR SWAP1 SSTORE JUMPDEST PUSH2 0x102 DUP1 SLOAD PUSH20 0xAB594600376EC9FD91F8E885DADF0CE036862DE0 PUSH1 0x1 PUSH1 0x1 PUSH1 0xA0 SHL SUB NOT SWAP2 DUP3 AND OR SWAP1 SWAP2 SSTORE PUSH2 0x100 DUP1 SLOAD PUSH20 0xC2132D05D31C914A87C6611C10748AEB04B58E8F SWAP1 DUP4 AND OR SWAP1 SSTORE PUSH1 0xFD DUP1 SLOAD PUSH20 0x35D21E38200E125C9352C777B256854A65329053 SWAP1 DUP4 AND DUP2 OR SWAP1 SWAP2 SSTORE PUSH2 0x101 DUP1 SLOAD DUP4 AND SWAP1 SWAP2 OR SWAP1 SSTORE PUSH1 0xFB DUP1 SLOAD PUSH20 0x397B8DB43AAAA23A757C52C05EB14A66A0F368D8 SWAP1 DUP4 AND DUP2 OR SWAP1 SWAP2 SSTORE PUSH1 0xFC DUP1 SLOAD SWAP1 SWAP3 AND OR SWAP1 SSTORE PUSH8 0xA884183C60DE8500 PUSH2 0x103 SSTORE PUSH8 0x10DA026C70164080 PUSH2 0x104 SSTORE PUSH2 0x109 DUP1 SLOAD PUSH3 0xFFFFFF NOT AND PUSH3 0x10101 OR SWAP1 SSTORE PUSH1 0x0 PUSH2 0x105 SSTORE PUSH2 0x13C2 PUSH2 0x2165 JUMP JUMPDEST PUSH2 0x13CA PUSH2 0x2194 JUMP JUMPDEST PUSH2 0x13D2 PUSH2 0x21C3 JUMP JUMPDEST DUP1 ISZERO PUSH2 0x7DC JUMPI PUSH1 0x0 DUP1 SLOAD PUSH2 0xFF00 NOT AND SWAP1 SSTORE PUSH1 0x40 MLOAD PUSH1 0x1 DUP2 MSTORE PUSH32 0x7F26B83FF96E1F2B6A682F133852F6798A09C465DA95921460CEFB3847402498 SWAP1 PUSH1 0x20 ADD PUSH1 0x40 MLOAD DUP1 SWAP2 SUB SWAP1 LOG1 POP JUMP JUMPDEST PUSH1 0x0 PUSH2 0x1424 PUSH2 0x1A68 JUMP JUMPDEST POP PUSH2 0x102 DUP1 SLOAD PUSH1 0x1 PUSH1 0x1 PUSH1 0xA0 SHL SUB DUP4 AND PUSH1 0x1 PUSH1 0x1 PUSH1 0xA0 SHL SUB NOT SWAP1 SWAP2 AND OR SWAP1 SSTORE PUSH1 0x1 SWAP2 SWAP1 POP JUMP JUMPDEST PUSH1 0x0 DUP1 PUSH2 0x102 PUSH1 0x0 SWAP1 SLOAD SWAP1 PUSH2 0x100 EXP SWAP1 DIV PUSH1 0x1 PUSH1 0x1 PUSH1 0xA0 SHL SUB AND PUSH1 0x1 PUSH1 0x1 PUSH1 0xA0 SHL SUB AND PUSH4 0xFEAF968C PUSH1 0x40 MLOAD DUP2 PUSH4 0xFFFFFFFF AND PUSH1 0xE0 SHL DUP2 MSTORE PUSH1 0x4 ADD PUSH1 0xA0 PUSH1 0x40 MLOAD DUP1 DUP4 SUB DUP2 DUP7 GAS STATICCALL ISZERO DUP1 ISZERO PUSH2 0x14A1 JUMPI RETURNDATASIZE PUSH1 0x0 DUP1 RETURNDATACOPY RETURNDATASIZE PUSH1 0x0 REVERT JUMPDEST POP POP POP POP PUSH1 0x40 MLOAD RETURNDATASIZE PUSH1 0x1F NOT PUSH1 0x1F DUP3 ADD AND DUP3 ADD DUP1 PUSH1 0x40 MSTORE POP DUP2 ADD SWAP1 PUSH2 0x14C5 SWAP2 SWAP1 PUSH2 0x2956 JUMP JUMPDEST POP POP POP SWAP2 POP POP DUP1 PUSH5 0x2540BE400 PUSH2 0x14DC SWAP2 SWAP1 PUSH2 0x29BC JUMP JUMPDEST SWAP2 POP POP SWAP1 JUMP JUMPDEST PUSH1 0x0 PUSH2 0x14EC PUSH2 0x1A68 JUMP JUMPDEST POP PUSH2 0x109 DUP1 SLOAD PUSH1 0xFF NOT AND DUP3 ISZERO ISZERO OR SWAP1 SSTORE SWAP1 JUMP JUMPDEST PUSH1 0x0 PUSH2 0x1509 PUSH2 0x1A68 JUMP JUMPDEST POP PUSH1 0xFE DUP1 SLOAD PUSH1 0x1 PUSH1 0x1 PUSH1 0xA0 SHL SUB DUP4 AND PUSH1 0x1 PUSH1 0x1 PUSH1 0xA0 SHL SUB NOT SWAP1 SWAP2 AND OR SWAP1 SSTORE PUSH1 0x1 SWAP2 SWAP1 POP JUMP JUMPDEST PUSH2 0x100 SLOAD PUSH1 0x40 DUP1 MLOAD PUSH4 0x6FDDE03 PUSH1 0xE0 SHL DUP2 MSTORE SWAP1 MLOAD PUSH1 0x1 PUSH1 0x1 PUSH1 0xA0 SHL SUB SWAP1 SWAP3 AND SWAP2 PUSH1 0x60 SWAP2 PUSH1 0x0 SWAP2 DUP3 SWAP2 DUP6 SWAP2 PUSH4 0x6FDDE03 SWAP2 PUSH1 0x4 DUP1 DUP3 ADD SWAP3 DUP7 SWAP3 SWAP1 SWAP2 SWAP1 DUP3 SWAP1 SUB ADD DUP2 DUP7 GAS STATICCALL ISZERO DUP1 ISZERO PUSH2 0x1582 JUMPI RETURNDATASIZE PUSH1 0x0 DUP1 RETURNDATACOPY RETURNDATASIZE PUSH1 0x0 REVERT JUMPDEST POP POP POP POP PUSH1 0x40 MLOAD RETURNDATASIZE PUSH1 0x0 DUP3 RETURNDATACOPY PUSH1 0x1F RETURNDATASIZE SWAP1 DUP2 ADD PUSH1 0x1F NOT AND DUP3 ADD PUSH1 0x40 MSTORE PUSH2 0x15AA SWAP2 SWAP1 DUP2 ADD SWAP1 PUSH2 0x27E3 JUMP JUMPDEST SWAP3 POP PUSH2 0x100 PUSH1 0x0 SWAP1 SLOAD SWAP1 PUSH2 0x100 EXP SWAP1 DIV PUSH1 0x1 PUSH1 0x1 PUSH1 0xA0 SHL SUB AND PUSH1 0x1 PUSH1 0x1 PUSH1 0xA0 SHL SUB AND PUSH4 0x313CE567 PUSH1 0x40 MLOAD DUP2 PUSH4 0xFFFFFFFF AND PUSH1 0xE0 SHL DUP2 MSTORE PUSH1 0x4 ADD PUSH1 0x20 PUSH1 0x40 MLOAD DUP1 DUP4 SUB DUP2 DUP7 GAS STATICCALL ISZERO DUP1 ISZERO PUSH2 0x1600 JUMPI RETURNDATASIZE PUSH1 0x0 DUP1 RETURNDATACOPY RETURNDATASIZE PUSH1 0x0 REVERT JUMPDEST POP POP POP POP PUSH1 0x40 MLOAD RETURNDATASIZE PUSH1 0x1F NOT PUSH1 0x1F DUP3 ADD AND DUP3 ADD DUP1 PUSH1 0x40 MSTORE POP DUP2 ADD SWAP1 PUSH2 0x1624 SWAP2 SWAP1 PUSH2 0x2851 JUMP JUMPDEST SWAP2 POP PUSH2 0x100 PUSH1 0x0 SWAP1 SLOAD SWAP1 PUSH2 0x100 EXP SWAP1 DIV PUSH1 0x1 PUSH1 0x1 PUSH1 0xA0 SHL SUB AND PUSH1 0x1 PUSH1 0x1 PUSH1 0xA0 SHL SUB AND PUSH4 0x18160DDD PUSH1 0x40 MLOAD DUP2 PUSH4 0xFFFFFFFF AND PUSH1 0xE0 SHL DUP2 MSTORE PUSH1 0x4 ADD PUSH1 0x20 PUSH1 0x40 MLOAD DUP1 DUP4 SUB DUP2 DUP7 GAS STATICCALL ISZERO DUP1 ISZERO PUSH2 0x9D7 JUMPI RETURNDATASIZE PUSH1 0x0 DUP1 RETURNDATACOPY RETURNDATASIZE PUSH1 0x0 REVERT JUMPDEST PUSH1 0x0 DUP1 PUSH2 0x1685 PUSH2 0x1CD5 JUMP JUMPDEST SWAP2 POP PUSH2 0x105 SLOAD SWAP1 POP SWAP1 SWAP2 JUMP JUMPDEST PUSH1 0x0 PUSH2 0x169B PUSH2 0x1A68 JUMP JUMPDEST POP PUSH2 0x100 DUP1 SLOAD PUSH1 0x1 PUSH1 0x1 PUSH1 0xA0 SHL SUB DUP4 AND PUSH1 0x1 PUSH1 0x1 PUSH1 0xA0 SHL SUB NOT SWAP1 SWAP2 AND OR SWAP1 SSTORE PUSH1 0x1 SWAP2 SWAP1 POP JUMP JUMPDEST PUSH1 0x0 PUSH2 0x16CB PUSH2 0x1A68 JUMP JUMPDEST POP PUSH1 0xFD DUP1 SLOAD PUSH1 0x1 PUSH1 0x1 PUSH1 0xA0 SHL SUB DUP4 AND PUSH1 0x1 PUSH1 0x1 PUSH1 0xA0 SHL SUB NOT SWAP1 SWAP2 AND OR SWAP1 SSTORE PUSH1 0x1 SWAP2 SWAP1 POP JUMP JUMPDEST PUSH1 0x0 PUSH2 0x16FA PUSH2 0x1A68 JUMP JUMPDEST POP PUSH2 0x105 SSTORE PUSH1 0x1 SWAP1 JUMP JUMPDEST PUSH2 0x170C PUSH2 0x1C8F JUMP JUMPDEST PUSH2 0x105 SLOAD DUP3 LT ISZERO PUSH2 0x176A JUMPI PUSH1 0x40 MLOAD PUSH3 0x461BCD PUSH1 0xE5 SHL DUP2 MSTORE PUSH1 0x20 PUSH1 0x4 DUP3 ADD MSTORE PUSH1 0x22 PUSH1 0x24 DUP3 ADD MSTORE PUSH32 0x5553442076616C7565206C657373207468656E206D696E206275792076616C75 PUSH1 0x44 DUP3 ADD MSTORE PUSH2 0x3297 PUSH1 0xF1 SHL PUSH1 0x64 DUP3 ADD MSTORE PUSH1 0x84 ADD PUSH2 0xAD6 JUMP JUMPDEST PUSH1 0x0 CALLER SWAP1 POP PUSH1 0x0 PUSH2 0x177E DUP5 PUSH2 0x103 SLOAD PUSH2 0x21EA JUMP JUMPDEST SWAP1 POP PUSH1 0x0 PUSH2 0x178F DUP6 PUSH2 0x104 SLOAD PUSH2 0x21EA JUMP JUMPDEST PUSH2 0x100 SLOAD PUSH1 0xFB SLOAD SWAP2 SWAP3 POP PUSH2 0x17B2 SWAP2 PUSH1 0x1 PUSH1 0x1 PUSH1 0xA0 SHL SUB SWAP2 DUP3 AND SWAP2 DUP7 SWAP2 AND DUP9 PUSH2 0x1F77 JUMP JUMPDEST PUSH2 0x109 SLOAD PUSH1 0xFF AND ISZERO PUSH2 0x17CF JUMPI PUSH2 0x17C9 DUP4 DUP4 DUP7 PUSH2 0x1EEE JUMP JUMPDEST POP PUSH2 0x17ED JUMP JUMPDEST PUSH1 0xFD SLOAD PUSH1 0xFB SLOAD PUSH2 0x17ED SWAP2 PUSH1 0x1 PUSH1 0x1 PUSH1 0xA0 SHL SUB SWAP1 DUP2 AND SWAP2 AND DUP6 DUP6 PUSH2 0x1F77 JUMP JUMPDEST PUSH2 0x109 SLOAD PUSH2 0x100 SWAP1 DIV PUSH1 0xFF AND ISZERO PUSH2 0x187F JUMPI PUSH1 0xFF SLOAD PUSH1 0x40 MLOAD PUSH4 0x5188F1E1 PUSH1 0xE0 SHL DUP2 MSTORE PUSH1 0x4 DUP2 ADD DUP8 SWAP1 MSTORE PUSH1 0x1 PUSH1 0x1 PUSH1 0xA0 SHL SUB DUP6 DUP2 AND PUSH1 0x24 DUP4 ADD MSTORE DUP9 DUP2 AND PUSH1 0x44 DUP4 ADD MSTORE SWAP1 SWAP2 AND SWAP1 PUSH4 0x5188F1E1 SWAP1 PUSH1 0x64 ADD PUSH1 0x20 PUSH1 0x40 MLOAD DUP1 DUP4 SUB DUP2 PUSH1 0x0 DUP8 GAS CALL ISZERO DUP1 ISZERO PUSH2 0x1859 JUMPI RETURNDATASIZE PUSH1 0x0 DUP1 RETURNDATACOPY RETURNDATASIZE PUSH1 0x0 REVERT JUMPDEST POP POP POP POP PUSH1 0x40 MLOAD RETURNDATASIZE PUSH1 0x1F NOT PUSH1 0x1F DUP3 ADD AND DUP3 ADD DUP1 PUSH1 0x40 MSTORE POP DUP2 ADD SWAP1 PUSH2 0x187D SWAP2 SWAP1 PUSH2 0x286A JUMP JUMPDEST POP JUMPDEST PUSH2 0x109 SLOAD PUSH3 0x10000 SWAP1 DIV PUSH1 0xFF AND ISZERO PUSH2 0x197E JUMPI PUSH2 0x101 SLOAD PUSH1 0xFC SLOAD PUSH1 0xFF SLOAD PUSH1 0x40 MLOAD PUSH4 0x10ED3AFD PUSH1 0xE2 SHL DUP2 MSTORE PUSH1 0x1 PUSH1 0x1 PUSH1 0xA0 SHL SUB DUP8 DUP2 AND PUSH1 0x4 DUP4 ADD MSTORE PUSH2 0x18D2 SWAP5 DUP2 AND SWAP4 DUP2 AND SWAP3 AND SWAP1 PUSH4 0x43B4EBF4 SWAP1 PUSH1 0x24 ADD PUSH2 0xF42 JUMP JUMPDEST PUSH2 0x101 SLOAD PUSH1 0xFF SLOAD PUSH1 0x40 MLOAD PUSH4 0x10ED3AFD PUSH1 0xE2 SHL DUP2 MSTORE PUSH1 0x1 PUSH1 0x1 PUSH1 0xA0 SHL SUB DUP7 DUP2 AND PUSH1 0x4 DUP4 ADD MSTORE SWAP3 DUP4 AND SWAP3 DUP5 SWAP3 AND SWAP1 PUSH4 0x43B4EBF4 SWAP1 PUSH1 0x24 ADD PUSH1 0x20 PUSH1 0x40 MLOAD DUP1 DUP4 SUB DUP2 DUP7 GAS STATICCALL ISZERO DUP1 ISZERO PUSH2 0x1924 JUMPI RETURNDATASIZE PUSH1 0x0 DUP1 RETURNDATACOPY RETURNDATASIZE PUSH1 0x0 REVERT JUMPDEST POP POP POP POP PUSH1 0x40 MLOAD RETURNDATASIZE PUSH1 0x1F NOT PUSH1 0x1F DUP3 ADD AND DUP3 ADD DUP1 PUSH1 0x40 MSTORE POP DUP2 ADD SWAP1 PUSH2 0x1948 SWAP2 SWAP1 PUSH2 0x291F JUMP JUMPDEST PUSH1 0x1 PUSH1 0x1 PUSH1 0xA0 SHL SUB AND PUSH32 0xDEC9451EA7F92DE23239AC3B71D0A2C5D5BAE68AF900A8B74100C866D159F419 PUSH1 0x40 MLOAD PUSH1 0x40 MLOAD DUP1 SWAP2 SUB SWAP1 LOG4 JUMPDEST PUSH2 0x1096 DUP4 DUP4 DUP8 PUSH1 0x40 MLOAD DUP1 PUSH1 0x40 ADD PUSH1 0x40 MSTORE DUP1 PUSH1 0x4 DUP2 MSTORE PUSH1 0x20 ADD PUSH4 0x1554D115 PUSH1 0xE2 SHL DUP2 MSTORE POP PUSH2 0x2096 JUMP JUMPDEST PUSH2 0x19AE PUSH2 0x1A68 JUMP JUMPDEST PUSH2 0xA13 PUSH2 0x2278 JUMP JUMPDEST PUSH1 0x0 PUSH2 0x19C0 PUSH2 0x1A68 JUMP JUMPDEST POP PUSH2 0x103 SSTORE PUSH1 0x1 SWAP1 JUMP JUMPDEST PUSH1 0x0 PUSH2 0x19D4 PUSH2 0x1A68 JUMP JUMPDEST POP PUSH2 0x109 DUP1 SLOAD DUP3 ISZERO ISZERO PUSH2 0x100 MUL PUSH2 0xFF00 NOT SWAP1 SWAP2 AND OR SWAP1 SSTORE PUSH1 0x1 SWAP2 SWAP1 POP JUMP JUMPDEST PUSH2 0x19FA PUSH2 0x1A68 JUMP JUMPDEST PUSH1 0x1 PUSH1 0x1 PUSH1 0xA0 SHL SUB DUP2 AND PUSH2 0x1A5F JUMPI PUSH1 0x40 MLOAD PUSH3 0x461BCD PUSH1 0xE5 SHL DUP2 MSTORE PUSH1 0x20 PUSH1 0x4 DUP3 ADD MSTORE PUSH1 0x26 PUSH1 0x24 DUP3 ADD MSTORE PUSH32 0x4F776E61626C653A206E6577206F776E657220697320746865207A65726F2061 PUSH1 0x44 DUP3 ADD MSTORE PUSH6 0x646472657373 PUSH1 0xD0 SHL PUSH1 0x64 DUP3 ADD MSTORE PUSH1 0x84 ADD PUSH2 0xAD6 JUMP JUMPDEST PUSH2 0x7DC DUP2 PUSH2 0x2113 JUMP JUMPDEST PUSH1 0x33 SLOAD PUSH1 0x1 PUSH1 0x1 PUSH1 0xA0 SHL SUB AND CALLER EQ PUSH2 0xA13 JUMPI PUSH1 0x40 MLOAD PUSH3 0x461BCD PUSH1 0xE5 SHL DUP2 MSTORE PUSH1 0x20 PUSH1 0x4 DUP3 ADD DUP2 SWAP1 MSTORE PUSH1 0x24 DUP3 ADD MSTORE PUSH32 0x4F776E61626C653A2063616C6C6572206973206E6F7420746865206F776E6572 PUSH1 0x44 DUP3 ADD MSTORE PUSH1 0x64 ADD PUSH2 0xAD6 JUMP JUMPDEST PUSH2 0x1ACA PUSH2 0x1C8F JUMP JUMPDEST PUSH1 0x65 DUP1 SLOAD PUSH1 0xFF NOT AND PUSH1 0x1 OR SWAP1 SSTORE PUSH32 0x62E78CEA01BEE320CD4E420270B5EA74000D11B0C9F74754EBDBFC544B05A258 PUSH2 0x1AFF CALLER SWAP1 JUMP JUMPDEST PUSH1 0x40 MLOAD PUSH1 0x1 PUSH1 0x1 PUSH1 0xA0 SHL SUB SWAP1 SWAP2 AND DUP2 MSTORE PUSH1 0x20 ADD PUSH1 0x40 MLOAD DUP1 SWAP2 SUB SWAP1 LOG1 JUMP JUMPDEST PUSH2 0x7DC PUSH2 0x1A68 JUMP JUMPDEST PUSH32 0x4910FDFA16FED3260ED0E7147F7CC6DA11A60208B5B9406D12A635614FFD9143 SLOAD PUSH1 0xFF AND ISZERO PUSH2 0x1B57 JUMPI PUSH2 0x889 DUP4 PUSH2 0x22B1 JUMP JUMPDEST DUP3 PUSH1 0x1 PUSH1 0x1 PUSH1 0xA0 SHL SUB AND PUSH4 0x52D1902D PUSH1 0x40 MLOAD DUP2 PUSH4 0xFFFFFFFF AND PUSH1 0xE0 SHL DUP2 MSTORE PUSH1 0x4 ADD PUSH1 0x20 PUSH1 0x40 MLOAD DUP1 DUP4 SUB DUP2 DUP7 GAS STATICCALL SWAP3 POP POP POP DUP1 ISZERO PUSH2 0x1BB1 JUMPI POP PUSH1 0x40 DUP1 MLOAD PUSH1 0x1F RETURNDATASIZE SWAP1 DUP2 ADD PUSH1 0x1F NOT AND DUP3 ADD SWAP1 SWAP3 MSTORE PUSH2 0x1BAE SWAP2 DUP2 ADD SWAP1 PUSH2 0x2851 JUMP JUMPDEST PUSH1 0x1 JUMPDEST PUSH2 0x1C14 JUMPI PUSH1 0x40 MLOAD PUSH3 0x461BCD PUSH1 0xE5 SHL DUP2 MSTORE PUSH1 0x20 PUSH1 0x4 DUP3 ADD MSTORE PUSH1 0x2E PUSH1 0x24 DUP3 ADD MSTORE PUSH32 0x45524331393637557067726164653A206E657720696D706C656D656E74617469 PUSH1 0x44 DUP3 ADD MSTORE PUSH14 0x6F6E206973206E6F742055555053 PUSH1 0x90 SHL PUSH1 0x64 DUP3 ADD MSTORE PUSH1 0x84 ADD PUSH2 0xAD6 JUMP JUMPDEST PUSH1 0x0 DUP1 MLOAD PUSH1 0x20 PUSH2 0x2C68 DUP4 CODECOPY DUP2 MLOAD SWAP2 MSTORE DUP2 EQ PUSH2 0x1C83 JUMPI PUSH1 0x40 MLOAD PUSH3 0x461BCD PUSH1 0xE5 SHL DUP2 MSTORE PUSH1 0x20 PUSH1 0x4 DUP3 ADD MSTORE PUSH1 0x29 PUSH1 0x24 DUP3 ADD MSTORE PUSH32 0x45524331393637557067726164653A20756E737570706F727465642070726F78 PUSH1 0x44 DUP3 ADD MSTORE PUSH9 0x1A58589B1955555251 PUSH1 0xBA SHL PUSH1 0x64 DUP3 ADD MSTORE PUSH1 0x84 ADD PUSH2 0xAD6 JUMP JUMPDEST POP PUSH2 0x889 DUP4 DUP4 DUP4 PUSH2 0x234D JUMP JUMPDEST PUSH1 0x65 SLOAD PUSH1 0xFF AND ISZERO PUSH2 0xA13 JUMPI PUSH1 0x40 MLOAD PUSH3 0x461BCD PUSH1 0xE5 SHL DUP2 MSTORE PUSH1 0x20 PUSH1 0x4 DUP3 ADD MSTORE PUSH1 0x10 PUSH1 0x24 DUP3 ADD MSTORE PUSH16 0x14185D5CD8589B194E881C185D5CD959 PUSH1 0x82 SHL PUSH1 0x44 DUP3 ADD MSTORE PUSH1 0x64 ADD PUSH2 0xAD6 JUMP JUMPDEST PUSH1 0x0 PUSH2 0x105 SLOAD PUSH1 0x0 SUB PUSH2 0x1CE8 JUMPI POP PUSH1 0x0 SWAP1 JUMP JUMPDEST PUSH1 0x0 PUSH2 0x1CF2 PUSH2 0x144A JUMP JUMPDEST SWAP1 POP PUSH1 0x0 PUSH2 0x105 SLOAD DUP3 PUSH2 0x1D05 SWAP2 SWAP1 PUSH2 0x29D3 JUMP JUMPDEST SWAP1 POP DUP1 PUSH1 0xFD PUSH1 0x0 SWAP1 SLOAD SWAP1 PUSH2 0x100 EXP SWAP1 DIV PUSH1 0x1 PUSH1 0x1 PUSH1 0xA0 SHL SUB AND PUSH1 0x1 PUSH1 0x1 PUSH1 0xA0 SHL SUB AND PUSH4 0x313CE567 PUSH1 0x40 MLOAD DUP2 PUSH4 0xFFFFFFFF AND PUSH1 0xE0 SHL DUP2 MSTORE PUSH1 0x4 ADD PUSH1 0x20 PUSH1 0x40 MLOAD DUP1 DUP4 SUB DUP2 DUP7 GAS STATICCALL ISZERO DUP1 ISZERO PUSH2 0x1D5B JUMPI RETURNDATASIZE PUSH1 0x0 DUP1 RETURNDATACOPY RETURNDATASIZE PUSH1 0x0 REVERT JUMPDEST POP POP POP POP PUSH1 0x40 MLOAD RETURNDATASIZE PUSH1 0x1F NOT PUSH1 0x1F DUP3 ADD AND DUP3 ADD DUP1 PUSH1 0x40 MSTORE POP DUP2 ADD SWAP1 PUSH2 0x1D7F SWAP2 SWAP1 PUSH2 0x2851 JUMP JUMPDEST PUSH2 0x1D8A SWAP1 PUSH1 0xA PUSH2 0x2AD9 JUMP JUMPDEST PUSH2 0x1D95 SWAP1 PUSH1 0x1 PUSH2 0x29BC JUMP JUMPDEST PUSH2 0x1D9F SWAP2 SWAP1 PUSH2 0x29D3 JUMP JUMPDEST SWAP3 POP POP POP SWAP1 JUMP JUMPDEST PUSH1 0x0 DUP1 PUSH2 0x1DB1 PUSH2 0x144A JUMP JUMPDEST SWAP1 POP PUSH1 0x0 PUSH1 0xFD PUSH1 0x0 SWAP1 SLOAD SWAP1 PUSH2 0x100 EXP SWAP1 DIV PUSH1 0x1 PUSH1 0x1 PUSH1 0xA0 SHL SUB AND PUSH1 0x1 PUSH1 0x1 PUSH1 0xA0 SHL SUB AND PUSH4 0x313CE567 PUSH1 0x40 MLOAD DUP2 PUSH4 0xFFFFFFFF AND PUSH1 0xE0 SHL DUP2 MSTORE PUSH1 0x4 ADD PUSH1 0x20 PUSH1 0x40 MLOAD DUP1 DUP4 SUB DUP2 DUP7 GAS STATICCALL ISZERO DUP1 ISZERO PUSH2 0x1E08 JUMPI RETURNDATASIZE PUSH1 0x0 DUP1 RETURNDATACOPY RETURNDATASIZE PUSH1 0x0 REVERT JUMPDEST POP POP POP POP PUSH1 0x40 MLOAD RETURNDATASIZE PUSH1 0x1F NOT PUSH1 0x1F DUP3 ADD AND DUP3 ADD DUP1 PUSH1 0x40 MSTORE POP DUP2 ADD SWAP1 PUSH2 0x1E2C SWAP2 SWAP1 PUSH2 0x2851 JUMP JUMPDEST PUSH2 0x1E37 SWAP1 PUSH1 0xA PUSH2 0x2AD9 JUMP JUMPDEST PUSH2 0x1E41 DUP4 DUP8 PUSH2 0x29BC JUMP JUMPDEST PUSH2 0x1E4B SWAP2 SWAP1 PUSH2 0x29D3 JUMP JUMPDEST SWAP1 POP PUSH2 0x1E57 DUP5 DUP3 PUSH2 0x29BC JUMP JUMPDEST SWAP3 POP PUSH1 0xFD PUSH1 0x0 SWAP1 SLOAD SWAP1 PUSH2 0x100 EXP SWAP1 DIV PUSH1 0x1 PUSH1 0x1 PUSH1 0xA0 SHL SUB AND PUSH1 0x1 PUSH1 0x1 PUSH1 0xA0 SHL SUB AND PUSH4 0x313CE567 PUSH1 0x40 MLOAD DUP2 PUSH4 0xFFFFFFFF AND PUSH1 0xE0 SHL DUP2 MSTORE PUSH1 0x4 ADD PUSH1 0x20 PUSH1 0x40 MLOAD DUP1 DUP4 SUB DUP2 DUP7 GAS STATICCALL ISZERO DUP1 ISZERO PUSH2 0x1EAC JUMPI RETURNDATASIZE PUSH1 0x0 DUP1 RETURNDATACOPY RETURNDATASIZE PUSH1 0x0 REVERT JUMPDEST POP POP POP POP PUSH1 0x40 MLOAD RETURNDATASIZE PUSH1 0x1F NOT PUSH1 0x1F DUP3 ADD AND DUP3 ADD DUP1 PUSH1 0x40 MSTORE POP DUP2 ADD SWAP1 PUSH2 0x1ED0 SWAP2 SWAP1 PUSH2 0x2851 JUMP JUMPDEST PUSH2 0x1EDB SWAP1 PUSH1 0xA PUSH2 0x2AD9 JUMP JUMPDEST PUSH2 0x1EE5 SWAP1 DUP5 PUSH2 0x29D3 JUMP JUMPDEST SWAP6 SWAP5 POP POP POP POP POP JUMP JUMPDEST PUSH1 0xFE SLOAD PUSH1 0x40 MLOAD PUSH4 0x18864D9 PUSH1 0xE5 SHL DUP2 MSTORE PUSH1 0x1 PUSH1 0x1 PUSH1 0xA0 SHL SUB DUP6 DUP2 AND PUSH1 0x4 DUP4 ADD MSTORE PUSH1 0x24 DUP3 ADD DUP6 SWAP1 MSTORE PUSH1 0x44 DUP3 ADD DUP5 SWAP1 MSTORE PUSH1 0x0 SWAP3 AND SWAP1 PUSH4 0x310C9B20 SWAP1 PUSH1 0x64 ADD PUSH1 0x20 PUSH1 0x40 MLOAD DUP1 DUP4 SUB DUP2 PUSH1 0x0 DUP8 GAS CALL ISZERO DUP1 ISZERO PUSH2 0x1F49 JUMPI RETURNDATASIZE PUSH1 0x0 DUP1 RETURNDATACOPY RETURNDATASIZE PUSH1 0x0 REVERT JUMPDEST POP POP POP POP PUSH1 0x40 MLOAD RETURNDATASIZE PUSH1 0x1F NOT PUSH1 0x1F DUP3 ADD AND DUP3 ADD DUP1 PUSH1 0x40 MSTORE POP DUP2 ADD SWAP1 PUSH2 0x1F6D SWAP2 SWAP1 PUSH2 0x286A JUMP JUMPDEST SWAP1 POP JUMPDEST SWAP4 SWAP3 POP POP POP JUMP JUMPDEST PUSH1 0x40 MLOAD PUSH4 0x23B872DD PUSH1 0xE0 SHL DUP2 MSTORE PUSH1 0x1 PUSH1 0x1 PUSH1 0xA0 SHL SUB DUP5 DUP2 AND PUSH1 0x4 DUP4 ADD MSTORE DUP4 DUP2 AND PUSH1 0x24 DUP4 ADD MSTORE PUSH1 0x44 DUP3 ADD DUP4 SWAP1 MSTORE DUP6 AND SWAP1 PUSH4 0x23B872DD SWAP1 PUSH1 0x64 ADD PUSH1 0x20 PUSH1 0x40 MLOAD DUP1 DUP4 SUB DUP2 PUSH1 0x0 DUP8 GAS CALL ISZERO DUP1 ISZERO PUSH2 0x1FCE JUMPI RETURNDATASIZE PUSH1 0x0 DUP1 RETURNDATACOPY RETURNDATASIZE PUSH1 0x0 REVERT JUMPDEST POP POP POP POP PUSH1 0x40 MLOAD RETURNDATASIZE PUSH1 0x1F NOT PUSH1 0x1F DUP3 ADD AND DUP3 ADD DUP1 PUSH1 0x40 MSTORE POP DUP2 ADD SWAP1 PUSH2 0x1FF2 SWAP2 SWAP1 PUSH2 0x286A JUMP JUMPDEST POP POP POP POP POP JUMP JUMPDEST PUSH1 0x0 DUP1 PUSH1 0xFF PUSH1 0x0 SWAP1 SLOAD SWAP1 PUSH2 0x100 EXP SWAP1 DIV PUSH1 0x1 PUSH1 0x1 PUSH1 0xA0 SHL SUB AND PUSH1 0x1 PUSH1 0x1 PUSH1 0xA0 SHL SUB AND PUSH4 0x918A54DB PUSH1 0x40 MLOAD DUP2 PUSH4 0xFFFFFFFF AND PUSH1 0xE0 SHL DUP2 MSTORE PUSH1 0x4 ADD PUSH1 0x0 PUSH1 0x40 MLOAD DUP1 DUP4 SUB DUP2 DUP7 GAS STATICCALL ISZERO DUP1 ISZERO PUSH2 0x204F JUMPI RETURNDATASIZE PUSH1 0x0 DUP1 RETURNDATACOPY RETURNDATASIZE PUSH1 0x0 REVERT JUMPDEST POP POP POP POP PUSH1 0x40 MLOAD RETURNDATASIZE PUSH1 0x0 DUP3 RETURNDATACOPY PUSH1 0x1F RETURNDATASIZE SWAP1 DUP2 ADD PUSH1 0x1F NOT AND DUP3 ADD PUSH1 0x40 MSTORE PUSH2 0x2077 SWAP2 SWAP1 DUP2 ADD SWAP1 PUSH2 0x2B65 JUMP JUMPDEST POP SWAP1 SWAP5 SWAP4 POP POP POP POP JUMP JUMPDEST PUSH1 0x0 PUSH2 0x208D DUP3 DUP5 PUSH2 0x29D3 JUMP JUMPDEST SWAP1 POP JUMPDEST SWAP3 SWAP2 POP POP JUMP JUMPDEST DUP3 PUSH2 0x106 PUSH1 0x0 DUP3 DUP3 SLOAD PUSH2 0x20A9 SWAP2 SWAP1 PUSH2 0x2BDA JUMP JUMPDEST SWAP3 POP POP DUP2 SWAP1 SSTORE POP DUP2 PUSH2 0x107 PUSH1 0x0 DUP3 DUP3 SLOAD PUSH2 0x20C3 SWAP2 SWAP1 PUSH2 0x2BDA JUMP JUMPDEST SWAP3 POP POP DUP2 SWAP1 SSTORE POP DUP2 DUP4 DUP6 PUSH1 0x1 PUSH1 0x1 PUSH1 0xA0 SHL SUB AND PUSH32 0x4ED8F3D1ED53B91A72EC0150F2643E443830CC7515A0B4111DB52C15CD8119E6 DUP5 PUSH1 0x40 MLOAD PUSH2 0x2105 SWAP2 SWAP1 PUSH2 0x2BED JUMP JUMPDEST PUSH1 0x40 MLOAD DUP1 SWAP2 SUB SWAP1 LOG4 POP POP POP POP JUMP JUMPDEST PUSH1 0x33 DUP1 SLOAD PUSH1 0x1 PUSH1 0x1 PUSH1 0xA0 SHL SUB DUP4 DUP2 AND PUSH1 0x1 PUSH1 0x1 PUSH1 0xA0 SHL SUB NOT DUP4 AND DUP2 OR SWAP1 SWAP4 SSTORE PUSH1 0x40 MLOAD SWAP2 AND SWAP2 SWAP1 DUP3 SWAP1 PUSH32 0x8BE0079C531659141344CD1FD0A4F28419497F9722A3DAAFE3B4186F6B6457E0 SWAP1 PUSH1 0x0 SWAP1 LOG3 POP POP JUMP JUMPDEST PUSH1 0x0 SLOAD PUSH2 0x100 SWAP1 DIV PUSH1 0xFF AND PUSH2 0x218C JUMPI PUSH1 0x40 MLOAD PUSH3 0x461BCD PUSH1 0xE5 SHL DUP2 MSTORE PUSH1 0x4 ADD PUSH2 0xAD6 SWAP1 PUSH2 0x2C00 JUMP JUMPDEST PUSH2 0xA13 PUSH2 0x2378 JUMP JUMPDEST PUSH1 0x0 SLOAD PUSH2 0x100 SWAP1 DIV PUSH1 0xFF AND PUSH2 0x21BB JUMPI PUSH1 0x40 MLOAD PUSH3 0x461BCD PUSH1 0xE5 SHL DUP2 MSTORE PUSH1 0x4 ADD PUSH2 0xAD6 SWAP1 PUSH2 0x2C00 JUMP JUMPDEST PUSH2 0xA13 PUSH2 0x23AB JUMP JUMPDEST PUSH1 0x0 SLOAD PUSH2 0x100 SWAP1 DIV PUSH1 0xFF AND PUSH2 0xA13 JUMPI PUSH1 0x40 MLOAD PUSH3 0x461BCD PUSH1 0xE5 SHL DUP2 MSTORE PUSH1 0x4 ADD PUSH2 0xAD6 SWAP1 PUSH2 0x2C00 JUMP JUMPDEST PUSH2 0x100 SLOAD PUSH1 0x40 DUP1 MLOAD PUSH4 0x313CE567 PUSH1 0xE0 SHL DUP2 MSTORE SWAP1 MLOAD PUSH1 0x0 SWAP3 PUSH1 0x1 PUSH1 0x1 PUSH1 0xA0 SHL SUB AND SWAP2 PUSH4 0x313CE567 SWAP2 PUSH1 0x4 DUP1 DUP4 ADD SWAP3 PUSH1 0x20 SWAP3 SWAP2 SWAP1 DUP3 SWAP1 SUB ADD DUP2 DUP7 GAS STATICCALL ISZERO DUP1 ISZERO PUSH2 0x2235 JUMPI RETURNDATASIZE PUSH1 0x0 DUP1 RETURNDATACOPY RETURNDATASIZE PUSH1 0x0 REVERT JUMPDEST POP POP POP POP PUSH1 0x40 MLOAD RETURNDATASIZE PUSH1 0x1F NOT PUSH1 0x1F DUP3 ADD AND DUP3 ADD DUP1 PUSH1 0x40 MSTORE POP DUP2 ADD SWAP1 PUSH2 0x2259 SWAP2 SWAP1 PUSH2 0x2851 JUMP JUMPDEST PUSH2 0x2264 SWAP1 PUSH1 0xA PUSH2 0x2AD9 JUMP JUMPDEST PUSH2 0x226E DUP4 DUP6 PUSH2 0x29BC JUMP JUMPDEST PUSH2 0x208D SWAP2 SWAP1 PUSH2 0x29D3 JUMP JUMPDEST PUSH2 0x2280 PUSH2 0x23DB JUMP JUMPDEST PUSH1 0x65 DUP1 SLOAD PUSH1 0xFF NOT AND SWAP1 SSTORE PUSH32 0x5DB9EE0A495BF2E6FF9C91A7834C1BA4FDD244A5E8AA4E537BD38AEAE4B073AA CALLER PUSH2 0x1AFF JUMP JUMPDEST PUSH1 0x1 PUSH1 0x1 PUSH1 0xA0 SHL SUB DUP2 AND EXTCODESIZE PUSH2 0x231E JUMPI PUSH1 0x40 MLOAD PUSH3 0x461BCD PUSH1 0xE5 SHL DUP2 MSTORE PUSH1 0x20 PUSH1 0x4 DUP3 ADD MSTORE PUSH1 0x2D PUSH1 0x24 DUP3 ADD MSTORE PUSH32 0x455243313936373A206E657720696D706C656D656E746174696F6E206973206E PUSH1 0x44 DUP3 ADD MSTORE PUSH13 0x1BDD08184818DBDB9D1C9858DD PUSH1 0x9A SHL PUSH1 0x64 DUP3 ADD MSTORE PUSH1 0x84 ADD PUSH2 0xAD6 JUMP JUMPDEST PUSH1 0x0 DUP1 MLOAD PUSH1 0x20 PUSH2 0x2C68 DUP4 CODECOPY DUP2 MLOAD SWAP2 MSTORE DUP1 SLOAD PUSH1 0x1 PUSH1 0x1 PUSH1 0xA0 SHL SUB NOT AND PUSH1 0x1 PUSH1 0x1 PUSH1 0xA0 SHL SUB SWAP3 SWAP1 SWAP3 AND SWAP2 SWAP1 SWAP2 OR SWAP1 SSTORE JUMP JUMPDEST PUSH2 0x2356 DUP4 PUSH2 0x2424 JUMP JUMPDEST PUSH1 0x0 DUP3 MLOAD GT DUP1 PUSH2 0x2363 JUMPI POP DUP1 JUMPDEST ISZERO PUSH2 0x889 JUMPI PUSH2 0x2372 DUP4 DUP4 PUSH2 0x2464 JUMP JUMPDEST POP POP POP POP JUMP JUMPDEST PUSH1 0x0 SLOAD PUSH2 0x100 SWAP1 DIV PUSH1 0xFF AND PUSH2 0x239F JUMPI PUSH1 0x40 MLOAD PUSH3 0x461BCD PUSH1 0xE5 SHL DUP2 MSTORE PUSH1 0x4 ADD PUSH2 0xAD6 SWAP1 PUSH2 0x2C00 JUMP JUMPDEST PUSH1 0x65 DUP1 SLOAD PUSH1 0xFF NOT AND SWAP1 SSTORE JUMP JUMPDEST PUSH1 0x0 SLOAD PUSH2 0x100 SWAP1 DIV PUSH1 0xFF AND PUSH2 0x23D2 JUMPI PUSH1 0x40 MLOAD PUSH3 0x461BCD PUSH1 0xE5 SHL DUP2 MSTORE PUSH1 0x4 ADD PUSH2 0xAD6 SWAP1 PUSH2 0x2C00 JUMP JUMPDEST PUSH2 0xA13 CALLER PUSH2 0x2113 JUMP JUMPDEST PUSH1 0x65 SLOAD PUSH1 0xFF AND PUSH2 0xA13 JUMPI PUSH1 0x40 MLOAD PUSH3 0x461BCD PUSH1 0xE5 SHL DUP2 MSTORE PUSH1 0x20 PUSH1 0x4 DUP3 ADD MSTORE PUSH1 0x14 PUSH1 0x24 DUP3 ADD MSTORE PUSH20 0x14185D5CD8589B194E881B9BDD081C185D5CD959 PUSH1 0x62 SHL PUSH1 0x44 DUP3 ADD MSTORE PUSH1 0x64 ADD PUSH2 0xAD6 JUMP JUMPDEST PUSH2 0x242D DUP2 PUSH2 0x22B1 JUMP JUMPDEST PUSH1 0x40 MLOAD PUSH1 0x1 PUSH1 0x1 PUSH1 0xA0 SHL SUB DUP3 AND SWAP1 PUSH32 0xBC7CD75A20EE27FD9ADEBAB32041F755214DBC6BFFA90CC0225B39DA2E5C2D3B SWAP1 PUSH1 0x0 SWAP1 LOG2 POP JUMP JUMPDEST PUSH1 0x60 PUSH1 0x1 PUSH1 0x1 PUSH1 0xA0 SHL SUB DUP4 AND EXTCODESIZE PUSH2 0x24CC JUMPI PUSH1 0x40 MLOAD PUSH3 0x461BCD PUSH1 0xE5 SHL DUP2 MSTORE PUSH1 0x20 PUSH1 0x4 DUP3 ADD MSTORE PUSH1 0x26 PUSH1 0x24 DUP3 ADD MSTORE PUSH32 0x416464726573733A2064656C65676174652063616C6C20746F206E6F6E2D636F PUSH1 0x44 DUP3 ADD MSTORE PUSH6 0x1B9D1C9858DD PUSH1 0xD2 SHL PUSH1 0x64 DUP3 ADD MSTORE PUSH1 0x84 ADD PUSH2 0xAD6 JUMP JUMPDEST PUSH1 0x0 DUP1 DUP5 PUSH1 0x1 PUSH1 0x1 PUSH1 0xA0 SHL SUB AND DUP5 PUSH1 0x40 MLOAD PUSH2 0x24E7 SWAP2 SWAP1 PUSH2 0x2C4B JUMP JUMPDEST PUSH1 0x0 PUSH1 0x40 MLOAD DUP1 DUP4 SUB DUP2 DUP6 GAS DELEGATECALL SWAP2 POP POP RETURNDATASIZE DUP1 PUSH1 0x0 DUP2 EQ PUSH2 0x2522 JUMPI PUSH1 0x40 MLOAD SWAP2 POP PUSH1 0x1F NOT PUSH1 0x3F RETURNDATASIZE ADD AND DUP3 ADD PUSH1 0x40 MSTORE RETURNDATASIZE DUP3 MSTORE RETURNDATASIZE PUSH1 0x0 PUSH1 0x20 DUP5 ADD RETURNDATACOPY PUSH2 0x2527 JUMP JUMPDEST PUSH1 0x60 SWAP2 POP JUMPDEST POP SWAP2 POP SWAP2 POP PUSH2 0x1EE5 DUP3 DUP3 PUSH1 0x40 MLOAD DUP1 PUSH1 0x60 ADD PUSH1 0x40 MSTORE DUP1 PUSH1 0x27 DUP2 MSTORE PUSH1 0x20 ADD PUSH2 0x2C88 PUSH1 0x27 SWAP2 CODECOPY PUSH1 0x60 DUP4 ISZERO PUSH2 0x2559 JUMPI POP DUP2 PUSH2 0x1F70 JUMP JUMPDEST DUP3 MLOAD ISZERO PUSH2 0x2569 JUMPI DUP3 MLOAD DUP1 DUP5 PUSH1 0x20 ADD REVERT JUMPDEST DUP2 PUSH1 0x40 MLOAD PUSH3 0x461BCD PUSH1 0xE5 SHL DUP2 MSTORE PUSH1 0x4 ADD PUSH2 0xAD6 SWAP2 SWAP1 PUSH2 0x2BED JUMP JUMPDEST PUSH1 0x1 PUSH1 0x1 PUSH1 0xA0 SHL SUB DUP2 AND DUP2 EQ PUSH2 0x7DC JUMPI PUSH1 0x0 DUP1 REVERT JUMPDEST PUSH1 0x0 PUSH1 0x20 DUP3 DUP5 SUB SLT ISZERO PUSH2 0x25AA JUMPI PUSH1 0x0 DUP1 REVERT JUMPDEST DUP2 CALLDATALOAD PUSH2 0x1F70 DUP2 PUSH2 0x2583 JUMP JUMPDEST PUSH1 0x0 PUSH1 0x20 DUP3 DUP5 SUB SLT ISZERO PUSH2 0x25C7 JUMPI PUSH1 0x0 DUP1 REVERT JUMPDEST POP CALLDATALOAD SWAP2 SWAP1 POP JUMP JUMPDEST PUSH1 0x0 DUP1 PUSH1 0x40 DUP4 DUP6 SUB SLT ISZERO PUSH2 0x25E1 JUMPI PUSH1 0x0 DUP1 REVERT JUMPDEST DUP3 CALLDATALOAD PUSH2 0x25EC DUP2 PUSH2 0x2583 JUMP JUMPDEST SWAP5 PUSH1 0x20 SWAP4 SWAP1 SWAP4 ADD CALLDATALOAD SWAP4 POP POP POP JUMP JUMPDEST PUSH1 0x0 JUMPDEST DUP4 DUP2 LT ISZERO PUSH2 0x2615 JUMPI DUP2 DUP2 ADD MLOAD DUP4 DUP3 ADD MSTORE PUSH1 0x20 ADD PUSH2 0x25FD JUMP JUMPDEST POP POP PUSH1 0x0 SWAP2 ADD MSTORE JUMP JUMPDEST PUSH1 0x0 DUP2 MLOAD DUP1 DUP5 MSTORE PUSH2 0x2636 DUP2 PUSH1 0x20 DUP7 ADD PUSH1 0x20 DUP7 ADD PUSH2 0x25FA JUMP JUMPDEST PUSH1 0x1F ADD PUSH1 0x1F NOT AND SWAP3 SWAP1 SWAP3 ADD PUSH1 0x20 ADD SWAP3 SWAP2 POP POP JUMP JUMPDEST PUSH1 0x1 PUSH1 0x1 PUSH1 0xA0 SHL SUB DUP6 AND DUP2 MSTORE PUSH1 0x80 PUSH1 0x20 DUP3 ADD DUP2 SWAP1 MSTORE PUSH1 0x0 SWAP1 PUSH2 0x266E SWAP1 DUP4 ADD DUP7 PUSH2 0x261E JUMP JUMPDEST PUSH1 0x40 DUP4 ADD SWAP5 SWAP1 SWAP5 MSTORE POP PUSH1 0x60 ADD MSTORE SWAP3 SWAP2 POP POP JUMP JUMPDEST DUP1 ISZERO ISZERO DUP2 EQ PUSH2 0x7DC JUMPI PUSH1 0x0 DUP1 REVERT JUMPDEST PUSH1 0x0 PUSH1 0x20 DUP3 DUP5 SUB SLT ISZERO PUSH2 0x26A1 JUMPI PUSH1 0x0 DUP1 REVERT JUMPDEST DUP2 CALLDATALOAD PUSH2 0x1F70 DUP2 PUSH2 0x2681 JUMP JUMPDEST PUSH4 0x4E487B71 PUSH1 0xE0 SHL PUSH1 0x0 MSTORE PUSH1 0x41 PUSH1 0x4 MSTORE PUSH1 0x24 PUSH1 0x0 REVERT JUMPDEST PUSH1 0x40 MLOAD PUSH1 0x1F DUP3 ADD PUSH1 0x1F NOT AND DUP2 ADD PUSH8 0xFFFFFFFFFFFFFFFF DUP2 GT DUP3 DUP3 LT OR ISZERO PUSH2 0x26EB JUMPI PUSH2 0x26EB PUSH2 0x26AC JUMP JUMPDEST PUSH1 0x40 MSTORE SWAP2 SWAP1 POP JUMP JUMPDEST PUSH1 0x0 PUSH8 0xFFFFFFFFFFFFFFFF DUP3 GT ISZERO PUSH2 0x270D JUMPI PUSH2 0x270D PUSH2 0x26AC JUMP JUMPDEST POP PUSH1 0x1F ADD PUSH1 0x1F NOT AND PUSH1 0x20 ADD SWAP1 JUMP JUMPDEST PUSH1 0x0 DUP1 PUSH1 0x40 DUP4 DUP6 SUB SLT ISZERO PUSH2 0x272E JUMPI PUSH1 0x0 DUP1 REVERT JUMPDEST DUP3 CALLDATALOAD PUSH2 0x2739 DUP2 PUSH2 0x2583 JUMP JUMPDEST SWAP2 POP PUSH1 0x20 DUP4 ADD CALLDATALOAD PUSH8 0xFFFFFFFFFFFFFFFF DUP2 GT ISZERO PUSH2 0x2755 JUMPI PUSH1 0x0 DUP1 REVERT JUMPDEST DUP4 ADD PUSH1 0x1F DUP2 ADD DUP6 SGT PUSH2 0x2766 JUMPI PUSH1 0x0 DUP1 REVERT JUMPDEST DUP1 CALLDATALOAD PUSH2 0x2779 PUSH2 0x2774 DUP3 PUSH2 0x26F3 JUMP JUMPDEST PUSH2 0x26C2 JUMP JUMPDEST DUP2 DUP2 MSTORE DUP7 PUSH1 0x20 DUP4 DUP6 ADD ADD GT ISZERO PUSH2 0x278E JUMPI PUSH1 0x0 DUP1 REVERT JUMPDEST DUP2 PUSH1 0x20 DUP5 ADD PUSH1 0x20 DUP4 ADD CALLDATACOPY PUSH1 0x0 PUSH1 0x20 DUP4 DUP4 ADD ADD MSTORE DUP1 SWAP4 POP POP POP POP SWAP3 POP SWAP3 SWAP1 POP JUMP JUMPDEST PUSH1 0x0 DUP1 PUSH1 0x0 PUSH1 0x60 DUP5 DUP7 SUB SLT ISZERO PUSH2 0x27C3 JUMPI PUSH1 0x0 DUP1 REVERT JUMPDEST DUP4 CALLDATALOAD PUSH2 0x27CE DUP2 PUSH2 0x2583 JUMP JUMPDEST SWAP6 PUSH1 0x20 DUP6 ADD CALLDATALOAD SWAP6 POP PUSH1 0x40 SWAP1 SWAP5 ADD CALLDATALOAD SWAP4 SWAP3 POP POP POP JUMP JUMPDEST PUSH1 0x0 PUSH1 0x20 DUP3 DUP5 SUB SLT ISZERO PUSH2 0x27F5 JUMPI PUSH1 0x0 DUP1 REVERT JUMPDEST DUP2 MLOAD PUSH8 0xFFFFFFFFFFFFFFFF DUP2 GT ISZERO PUSH2 0x280C JUMPI PUSH1 0x0 DUP1 REVERT JUMPDEST DUP3 ADD PUSH1 0x1F DUP2 ADD DUP5 SGT PUSH2 0x281D JUMPI PUSH1 0x0 DUP1 REVERT JUMPDEST DUP1 MLOAD PUSH2 0x282B PUSH2 0x2774 DUP3 PUSH2 0x26F3 JUMP JUMPDEST DUP2 DUP2 MSTORE DUP6 PUSH1 0x20 DUP4 DUP6 ADD ADD GT ISZERO PUSH2 0x2840 JUMPI PUSH1 0x0 DUP1 REVERT JUMPDEST PUSH2 0x1EE5 DUP3 PUSH1 0x20 DUP4 ADD PUSH1 0x20 DUP7 ADD PUSH2 0x25FA JUMP JUMPDEST PUSH1 0x0 PUSH1 0x20 DUP3 DUP5 SUB SLT ISZERO PUSH2 0x2863 JUMPI PUSH1 0x0 DUP1 REVERT JUMPDEST POP MLOAD SWAP2 SWAP1 POP JUMP JUMPDEST PUSH1 0x0 PUSH1 0x20 DUP3 DUP5 SUB SLT ISZERO PUSH2 0x287C JUMPI PUSH1 0x0 DUP1 REVERT JUMPDEST DUP2 MLOAD PUSH2 0x1F70 DUP2 PUSH2 0x2681 JUMP JUMPDEST PUSH1 0x20 DUP1 DUP3 MSTORE PUSH1 0x2C SWAP1 DUP3 ADD MSTORE PUSH32 0x46756E6374696F6E206D7573742062652063616C6C6564207468726F75676820 PUSH1 0x40 DUP3 ADD MSTORE PUSH12 0x19195B1959D85D1958D85B1B PUSH1 0xA2 SHL PUSH1 0x60 DUP3 ADD MSTORE PUSH1 0x80 ADD SWAP1 JUMP JUMPDEST PUSH1 0x20 DUP1 DUP3 MSTORE PUSH1 0x2C SWAP1 DUP3 ADD MSTORE PUSH32 0x46756E6374696F6E206D7573742062652063616C6C6564207468726F75676820 PUSH1 0x40 DUP3 ADD MSTORE PUSH12 0x6163746976652070726F7879 PUSH1 0xA0 SHL PUSH1 0x60 DUP3 ADD MSTORE PUSH1 0x80 ADD SWAP1 JUMP JUMPDEST PUSH1 0x0 PUSH1 0x20 DUP3 DUP5 SUB SLT ISZERO PUSH2 0x2931 JUMPI PUSH1 0x0 DUP1 REVERT JUMPDEST DUP2 MLOAD PUSH2 0x1F70 DUP2 PUSH2 0x2583 JUMP JUMPDEST DUP1 MLOAD PUSH10 0xFFFFFFFFFFFFFFFFFFFF DUP2 AND DUP2 EQ PUSH2 0x807 JUMPI PUSH1 0x0 DUP1 REVERT JUMPDEST PUSH1 0x0 DUP1 PUSH1 0x0 DUP1 PUSH1 0x0 PUSH1 0xA0 DUP7 DUP9 SUB SLT ISZERO PUSH2 0x296E JUMPI PUSH1 0x0 DUP1 REVERT JUMPDEST PUSH2 0x2977 DUP7 PUSH2 0x293C JUMP JUMPDEST SWAP5 POP PUSH1 0x20 DUP7 ADD MLOAD SWAP4 POP PUSH1 0x40 DUP7 ADD MLOAD SWAP3 POP PUSH1 0x60 DUP7 ADD MLOAD SWAP2 POP PUSH2 0x299A PUSH1 0x80 DUP8 ADD PUSH2 0x293C JUMP JUMPDEST SWAP1 POP SWAP3 SWAP6 POP SWAP3 SWAP6 SWAP1 SWAP4 POP JUMP JUMPDEST PUSH4 0x4E487B71 PUSH1 0xE0 SHL PUSH1 0x0 MSTORE PUSH1 0x11 PUSH1 0x4 MSTORE PUSH1 0x24 PUSH1 0x0 REVERT JUMPDEST DUP1 DUP3 MUL DUP2 ISZERO DUP3 DUP3 DIV DUP5 EQ OR PUSH2 0x2090 JUMPI PUSH2 0x2090 PUSH2 0x29A6 JUMP JUMPDEST PUSH1 0x0 DUP3 PUSH2 0x29F0 JUMPI PUSH4 0x4E487B71 PUSH1 0xE0 SHL PUSH1 0x0 MSTORE PUSH1 0x12 PUSH1 0x4 MSTORE PUSH1 0x24 PUSH1 0x0 REVERT JUMPDEST POP DIV SWAP1 JUMP JUMPDEST PUSH1 0x1 DUP2 DUP2 JUMPDEST DUP1 DUP6 GT ISZERO PUSH2 0x2A30 JUMPI DUP2 PUSH1 0x0 NOT DIV DUP3 GT ISZERO PUSH2 0x2A16 JUMPI PUSH2 0x2A16 PUSH2 0x29A6 JUMP JUMPDEST DUP1 DUP6 AND ISZERO PUSH2 0x2A23 JUMPI SWAP2 DUP2 MUL SWAP2 JUMPDEST SWAP4 DUP5 SHR SWAP4 SWAP1 DUP1 MUL SWAP1 PUSH2 0x29FA JUMP JUMPDEST POP SWAP3 POP SWAP3 SWAP1 POP JUMP JUMPDEST PUSH1 0x0 DUP3 PUSH2 0x2A47 JUMPI POP PUSH1 0x1 PUSH2 0x2090 JUMP JUMPDEST DUP2 PUSH2 0x2A54 JUMPI POP PUSH1 0x0 PUSH2 0x2090 JUMP JUMPDEST DUP2 PUSH1 0x1 DUP2 EQ PUSH2 0x2A6A JUMPI PUSH1 0x2 DUP2 EQ PUSH2 0x2A74 JUMPI PUSH2 0x2A90 JUMP JUMPDEST PUSH1 0x1 SWAP2 POP POP PUSH2 0x2090 JUMP JUMPDEST PUSH1 0xFF DUP5 GT ISZERO PUSH2 0x2A85 JUMPI PUSH2 0x2A85 PUSH2 0x29A6 JUMP JUMPDEST POP POP PUSH1 0x1 DUP3 SHL PUSH2 0x2090 JUMP JUMPDEST POP PUSH1 0x20 DUP4 LT PUSH2 0x133 DUP4 LT AND PUSH1 0x4E DUP5 LT PUSH1 0xB DUP5 LT AND OR ISZERO PUSH2 0x2AB3 JUMPI POP DUP2 DUP2 EXP PUSH2 0x2090 JUMP JUMPDEST PUSH2 0x2ABD DUP4 DUP4 PUSH2 0x29F5 JUMP JUMPDEST DUP1 PUSH1 0x0 NOT DIV DUP3 GT ISZERO PUSH2 0x2AD1 JUMPI PUSH2 0x2AD1 PUSH2 0x29A6 JUMP JUMPDEST MUL SWAP4 SWAP3 POP POP POP JUMP JUMPDEST PUSH1 0x0 PUSH2 0x208D DUP4 DUP4 PUSH2 0x2A38 JUMP JUMPDEST PUSH1 0x0 DUP3 PUSH1 0x1F DUP4 ADD SLT PUSH2 0x2AF6 JUMPI PUSH1 0x0 DUP1 REVERT JUMPDEST DUP2 MLOAD PUSH1 0x20 PUSH8 0xFFFFFFFFFFFFFFFF DUP3 GT ISZERO PUSH2 0x2B12 JUMPI PUSH2 0x2B12 PUSH2 0x26AC JUMP JUMPDEST DUP2 PUSH1 0x5 SHL PUSH2 0x2B21 DUP3 DUP3 ADD PUSH2 0x26C2 JUMP JUMPDEST SWAP3 DUP4 MSTORE DUP5 DUP2 ADD DUP3 ADD SWAP3 DUP3 DUP2 ADD SWAP1 DUP8 DUP6 GT ISZERO PUSH2 0x2B3B JUMPI PUSH1 0x0 DUP1 REVERT JUMPDEST DUP4 DUP8 ADD SWAP3 POP JUMPDEST DUP5 DUP4 LT ISZERO PUSH2 0x2B5A JUMPI DUP3 MLOAD DUP3 MSTORE SWAP2 DUP4 ADD SWAP2 SWAP1 DUP4 ADD SWAP1 PUSH2 0x2B41 JUMP JUMPDEST SWAP8 SWAP7 POP POP POP POP POP POP POP JUMP JUMPDEST PUSH1 0x0 DUP1 PUSH1 0x0 DUP1 PUSH1 0x80 DUP6 DUP8 SUB SLT ISZERO PUSH2 0x2B7B JUMPI PUSH1 0x0 DUP1 REVERT JUMPDEST DUP5 MLOAD PUSH8 0xFFFFFFFFFFFFFFFF DUP1 DUP3 GT ISZERO PUSH2 0x2B93 JUMPI PUSH1 0x0 DUP1 REVERT JUMPDEST PUSH2 0x2B9F DUP9 DUP4 DUP10 ADD PUSH2 0x2AE5 JUMP JUMPDEST SWAP6 POP PUSH1 0x20 DUP8 ADD MLOAD SWAP5 POP PUSH1 0x40 DUP8 ADD MLOAD SWAP2 POP DUP1 DUP3 GT ISZERO PUSH2 0x2BBC JUMPI PUSH1 0x0 DUP1 REVERT JUMPDEST POP PUSH2 0x2BC9 DUP8 DUP3 DUP9 ADD PUSH2 0x2AE5 JUMP JUMPDEST PUSH1 0x60 SWAP7 SWAP1 SWAP7 ADD MLOAD SWAP5 SWAP8 SWAP4 SWAP7 POP POP POP POP JUMP JUMPDEST DUP1 DUP3 ADD DUP1 DUP3 GT ISZERO PUSH2 0x2090 JUMPI PUSH2 0x2090 PUSH2 0x29A6 JUMP JUMPDEST PUSH1 0x20 DUP2 MSTORE PUSH1 0x0 PUSH2 0x208D PUSH1 0x20 DUP4 ADD DUP5 PUSH2 0x261E JUMP JUMPDEST PUSH1 0x20 DUP1 DUP3 MSTORE PUSH1 0x2B SWAP1 DUP3 ADD MSTORE PUSH32 0x496E697469616C697A61626C653A20636F6E7472616374206973206E6F742069 PUSH1 0x40 DUP3 ADD MSTORE PUSH11 0x6E697469616C697A696E67 PUSH1 0xA8 SHL PUSH1 0x60 DUP3 ADD MSTORE PUSH1 0x80 ADD SWAP1 JUMP JUMPDEST PUSH1 0x0 DUP3 MLOAD PUSH2 0x2C5D DUP2 DUP5 PUSH1 0x20 DUP8 ADD PUSH2 0x25FA JUMP JUMPDEST SWAP2 SWAP1 SWAP2 ADD SWAP3 SWAP2 POP POP JUMP INVALID CALLDATASIZE ADDMOD SWAP5 LOG1 EXTCODESIZE LOG1 LOG3 0x21 MOD PUSH8 0xC828492DB98DCA3E KECCAK256 PUSH23 0xCC3735A920A3CA505D382BBC416464726573733A206C6F PUSH24 0x2D6C6576656C2064656C65676174652063616C6C20666169 PUSH13 0x6564A264697066735822122049 0xC7 SWAP8 PUSH28 0xCDC9CEA894DE913EA6CD568AC7BD5105D02C45469E2C2C23829F6949 PUSH5 0x736F6C6343 STOP ADDMOD GT STOP CALLER "},"methodIdentifiers":{"BuyWithETH(address,uint256)":"57526c33","BuyWithUSD(address,uint256,uint256)":"d42cedfb","getETH_USDPrice()":"94a73f59","getPresaleAnalystics()":"38f992c9","getPriceFeedOracleAddress()":"5845394b","getPricePerUSD()":"472d561d","getReferralContract()":"23442c60","getRewardOwners()":"7ce1757d","getRewardPerUSD()":"f067c199","getRewardTokenContract()":"65eb204d","getStakingContract()":"8e68dce4","getTokenContract()":"28b7bede","getTokenSeller()":"14d09b94","getUSDContract()":"a5bac943","initialize()":"8129fc1c","isEnabled()":"6aa633b6","minContribution()":"aaffadf3","owner()":"8da5cb5b","pauseAdmin()":"2f11d653","paused()":"5c975abb","proxiableUUID()":"52d1902d","renounceOwnership()":"715018a6","sendNativeFundsAdmin(address,uint256)":"1cecbe9a","setBuyAndStake(bool)":"98094ba1","setMinContributionUSDAdmin(uint256)":"c94d6b1f","setPayReferralAdmin(bool)":"e9bd186d","setPayRewardTokensAdmin(bool)":"3958b844","setPricePerUSDAdmin(uint256)":"dc245e12","setReferralContract(address)":"06ad5a47","setRewardOwner(address)":"4809b429","setRewardPerUSDAdmin(uint256)":"10bd7ab5","setRewardTokenContract(address)":"08fcfbbe","setStakingContract(address)":"9dd373b9","setTokenContractAdmin(address)":"b68e1e46","setTokenSeller(address)":"7a22393b","setUSDContractAdmin(address)":"ac6f6a2d","setpriceFeedOracleAddressAdmin(address)":"857d22ef","transferOwnership(address)":"f2fde38b","unpauseAdmin()":"db5184e6","upgradeTo(address)":"3659cfe6","upgradeToAndCall(address,bytes)":"4f1ef286","withdrawAdmin()":"04c76af0","withdrawTokenAdmin(address,uint256)":"34dcfa8c"}},"storageLayout":{"storage":[{"astId":573,"contract":"contracts/PresaleV1Upgradable.sol:PresaleV1Upgradable","label":"_initialized","offset":0,"slot":"0","type":"t_uint8"},{"astId":576,"contract":"contracts/PresaleV1Upgradable.sol:PresaleV1Upgradable","label":"_initializing","offset":1,"slot":"0","type":"t_bool"},{"astId":1342,"contract":"contracts/PresaleV1Upgradable.sol:PresaleV1Upgradable","label":"__gap","offset":0,"slot":"1","type":"t_array(t_uint256)50_storage"},{"astId":56,"contract":"contracts/PresaleV1Upgradable.sol:PresaleV1Upgradable","label":"_owner","offset":0,"slot":"51","type":"t_address"},{"astId":176,"contract":"contracts/PresaleV1Upgradable.sol:PresaleV1Upgradable","label":"__gap","offset":0,"slot":"52","type":"t_array(t_uint256)49_storage"},{"astId":874,"contract":"contracts/PresaleV1Upgradable.sol:PresaleV1Upgradable","label":"_paused","offset":0,"slot":"101","type":"t_bool"},{"astId":979,"contract":"contracts/PresaleV1Upgradable.sol:PresaleV1Upgradable","label":"__gap","offset":0,"slot":"102","type":"t_array(t_uint256)49_storage"},{"astId":555,"contract":"contracts/PresaleV1Upgradable.sol:PresaleV1Upgradable","label":"__gap","offset":0,"slot":"151","type":"t_array(t_uint256)50_storage"},{"astId":852,"contract":"contracts/PresaleV1Upgradable.sol:PresaleV1Upgradable","label":"__gap","offset":0,"slot":"201","type":"t_array(t_uint256)50_storage"},{"astId":1803,"contract":"contracts/PresaleV1Upgradable.sol:PresaleV1Upgradable","label":"tokenSeller","offset":0,"slot":"251","type":"t_address"},{"astId":1805,"contract":"contracts/PresaleV1Upgradable.sol:PresaleV1Upgradable","label":"rewardOwner","offset":0,"slot":"252","type":"t_address"},{"astId":1807,"contract":"contracts/PresaleV1Upgradable.sol:PresaleV1Upgradable","label":"tokenContract","offset":0,"slot":"253","type":"t_address"},{"astId":1809,"contract":"contracts/PresaleV1Upgradable.sol:PresaleV1Upgradable","label":"stakingContract","offset":0,"slot":"254","type":"t_address"},{"astId":1811,"contract":"contracts/PresaleV1Upgradable.sol:PresaleV1Upgradable","label":"referralContract","offset":0,"slot":"255","type":"t_address"},{"astId":1813,"contract":"contracts/PresaleV1Upgradable.sol:PresaleV1Upgradable","label":"USDContract","offset":0,"slot":"256","type":"t_address"},{"astId":1815,"contract":"contracts/PresaleV1Upgradable.sol:PresaleV1Upgradable","label":"rewardTokenContract","offset":0,"slot":"257","type":"t_address"},{"astId":1818,"contract":"contracts/PresaleV1Upgradable.sol:PresaleV1Upgradable","label":"priceFeedOracleAddress","offset":0,"slot":"258","type":"t_contract(AggregatorV3Interface)45"},{"astId":1820,"contract":"contracts/PresaleV1Upgradable.sol:PresaleV1Upgradable","label":"pricePerUSD","offset":0,"slot":"259","type":"t_uint256"},{"astId":1822,"contract":"contracts/PresaleV1Upgradable.sol:PresaleV1Upgradable","label":"rewardPerUSD","offset":0,"slot":"260","type":"t_uint256"},{"astId":1824,"contract":"contracts/PresaleV1Upgradable.sol:PresaleV1Upgradable","label":"minContributionUSD","offset":0,"slot":"261","type":"t_uint256"},{"astId":1826,"contract":"contracts/PresaleV1Upgradable.sol:PresaleV1Upgradable","label":"totalTokenSold","offset":0,"slot":"262","type":"t_uint256"},{"astId":1828,"contract":"contracts/PresaleV1Upgradable.sol:PresaleV1Upgradable","label":"totalETHRaised","offset":0,"slot":"263","type":"t_uint256"},{"astId":1830,"contract":"contracts/PresaleV1Upgradable.sol:PresaleV1Upgradable","label":"totalUSDRaised","offset":0,"slot":"264","type":"t_uint256"},{"astId":1832,"contract":"contracts/PresaleV1Upgradable.sol:PresaleV1Upgradable","label":"isBuyNStake","offset":0,"slot":"265","type":"t_bool"},{"astId":1834,"contract":"contracts/PresaleV1Upgradable.sol:PresaleV1Upgradable","label":"isPayReferral","offset":1,"slot":"265","type":"t_bool"},{"astId":1836,"contract":"contracts/PresaleV1Upgradable.sol:PresaleV1Upgradable","label":"isPayRewardTokens","offset":2,"slot":"265","type":"t_bool"}],"types":{"t_address":{"encoding":"inplace","label":"address","numberOfBytes":"20"},"t_array(t_uint256)49_storage":{"base":"t_uint256","encoding":"inplace","label":"uint256[49]","numberOfBytes":"1568"},"t_array(t_uint256)50_storage":{"base":"t_uint256","encoding":"inplace","label":"uint256[50]","numberOfBytes":"1600"},"t_bool":{"encoding":"inplace","label":"bool","numberOfBytes":"1"},"t_contract(AggregatorV3Interface)45":{"encoding":"inplace","label":"contract AggregatorV3Interface","numberOfBytes":"20"},"t_uint256":{"encoding":"inplace","label":"uint256","numberOfBytes":"32"},"t_uint8":{"encoding":"inplace","label":"uint8","numberOfBytes":"1"}}}}}}