{
  "_format": "hh-sol-artifact-1",
  "contractName": "StakingV1Upgradable",
  "sourceName": "contracts/StakingV1Upgradable.sol",
  "abi": [
    {
      "anonymous": false,
      "inputs": [
        {
          "indexed": false,
          "internalType": "address",
          "name": "previousAdmin",
          "type": "address"
        },
        {
          "indexed": false,
          "internalType": "address",
          "name": "newAdmin",
          "type": "address"
        }
      ],
      "name": "AdminChanged",
      "type": "event"
    },
    {
      "anonymous": false,
      "inputs": [
        {
          "indexed": true,
          "internalType": "address",
          "name": "beacon",
          "type": "address"
        }
      ],
      "name": "BeaconUpgraded",
      "type": "event"
    },
    {
      "anonymous": false,
      "inputs": [
        {
          "indexed": false,
          "internalType": "uint8",
          "name": "version",
          "type": "uint8"
        }
      ],
      "name": "Initialized",
      "type": "event"
    },
    {
      "anonymous": false,
      "inputs": [
        {
          "indexed": true,
          "internalType": "address",
          "name": "previousOwner",
          "type": "address"
        },
        {
          "indexed": true,
          "internalType": "address",
          "name": "newOwner",
          "type": "address"
        }
      ],
      "name": "OwnershipTransferred",
      "type": "event"
    },
    {
      "anonymous": false,
      "inputs": [
        {
          "indexed": false,
          "internalType": "address",
          "name": "account",
          "type": "address"
        }
      ],
      "name": "Paused",
      "type": "event"
    },
    {
      "anonymous": false,
      "inputs": [
        {
          "indexed": true,
          "internalType": "address",
          "name": "userAddress",
          "type": "address"
        },
        {
          "indexed": true,
          "internalType": "uint256",
          "name": "valueStaked",
          "type": "uint256"
        },
        {
          "indexed": true,
          "internalType": "uint256",
          "name": "duration",
          "type": "uint256"
        },
        {
          "indexed": false,
          "internalType": "uint256",
          "name": "stakingID",
          "type": "uint256"
        }
      ],
      "name": "Stake",
      "type": "event"
    },
    {
      "anonymous": false,
      "inputs": [
        {
          "indexed": true,
          "internalType": "address",
          "name": "userAddress",
          "type": "address"
        },
        {
          "indexed": true,
          "internalType": "uint256",
          "name": "reward",
          "type": "uint256"
        },
        {
          "indexed": true,
          "internalType": "uint256",
          "name": "stakingID",
          "type": "uint256"
        }
      ],
      "name": "StakingRewardClaimed",
      "type": "event"
    },
    {
      "anonymous": false,
      "inputs": [
        {
          "indexed": false,
          "internalType": "address",
          "name": "account",
          "type": "address"
        }
      ],
      "name": "Unpaused",
      "type": "event"
    },
    {
      "anonymous": false,
      "inputs": [
        {
          "indexed": true,
          "internalType": "address",
          "name": "userAddress",
          "type": "address"
        },
        {
          "indexed": true,
          "internalType": "uint256",
          "name": "valueStaked",
          "type": "uint256"
        },
        {
          "indexed": true,
          "internalType": "uint256",
          "name": "stakingID",
          "type": "uint256"
        }
      ],
      "name": "Unstake",
      "type": "event"
    },
    {
      "anonymous": false,
      "inputs": [
        {
          "indexed": true,
          "internalType": "address",
          "name": "implementation",
          "type": "address"
        }
      ],
      "name": "Upgraded",
      "type": "event"
    },
    {
      "inputs": [
        {
          "internalType": "uint256",
          "name": "_stakingID",
          "type": "uint256"
        }
      ],
      "name": "claimStakingReward",
      "outputs": [
        {
          "internalType": "bool",
          "name": "",
          "type": "bool"
        }
      ],
      "stateMutability": "nonpayable",
      "type": "function"
    },
    {
      "inputs": [],
      "name": "getPresaleContract",
      "outputs": [
        {
          "internalType": "address",
          "name": "",
          "type": "address"
        }
      ],
      "stateMutability": "view",
      "type": "function"
    },
    {
      "inputs": [],
      "name": "getReferralContract",
      "outputs": [
        {
          "internalType": "address",
          "name": "",
          "type": "address"
        }
      ],
      "stateMutability": "view",
      "type": "function"
    },
    {
      "inputs": [],
      "name": "getStakingAnalystics",
      "outputs": [
        {
          "internalType": "uint256[]",
          "name": "stakingRewardRates",
          "type": "uint256[]"
        },
        {
          "internalType": "uint256[]",
          "name": "stakingRewardDurations",
          "type": "uint256[]"
        },
        {
          "internalType": "uint256",
          "name": "stakers",
          "type": "uint256"
        },
        {
          "internalType": "uint256",
          "name": "tokenStaked",
          "type": "uint256"
        },
        {
          "internalType": "uint256",
          "name": "rewardDistributed",
          "type": "uint256"
        }
      ],
      "stateMutability": "view",
      "type": "function"
    },
    {
      "inputs": [],
      "name": "getStakingCapping",
      "outputs": [
        {
          "internalType": "uint256",
          "name": "minTokensToStake",
          "type": "uint256"
        },
        {
          "internalType": "uint256",
          "name": "minDurationToStake",
          "type": "uint256"
        },
        {
          "internalType": "uint256",
          "name": "maxDurationToStake",
          "type": "uint256"
        }
      ],
      "stateMutability": "view",
      "type": "function"
    },
    {
      "inputs": [
        {
          "internalType": "address",
          "name": "_userAddress",
          "type": "address"
        },
        {
          "internalType": "uint256",
          "name": "_stakingID",
          "type": "uint256"
        }
      ],
      "name": "getStakingReward",
      "outputs": [
        {
          "internalType": "uint256",
          "name": "",
          "type": "uint256"
        }
      ],
      "stateMutability": "view",
      "type": "function"
    },
    {
      "inputs": [
        {
          "internalType": "address",
          "name": "_userAddress",
          "type": "address"
        }
      ],
      "name": "getStakingRewardAll",
      "outputs": [
        {
          "internalType": "uint256",
          "name": "totalStakingReward",
          "type": "uint256"
        }
      ],
      "stateMutability": "view",
      "type": "function"
    },
    {
      "inputs": [],
      "name": "getTokenContract",
      "outputs": [
        {
          "internalType": "address",
          "name": "tokenAddress",
          "type": "address"
        },
        {
          "internalType": "string",
          "name": "tokenName",
          "type": "string"
        },
        {
          "internalType": "uint256",
          "name": "tokenDecimals",
          "type": "uint256"
        },
        {
          "internalType": "uint256",
          "name": "tokenSupply",
          "type": "uint256"
        }
      ],
      "stateMutability": "view",
      "type": "function"
    },
    {
      "inputs": [],
      "name": "getUnStakeFees",
      "outputs": [
        {
          "internalType": "uint256",
          "name": "",
          "type": "uint256"
        }
      ],
      "stateMutability": "view",
      "type": "function"
    },
    {
      "inputs": [
        {
          "internalType": "address",
          "name": "_userAddress",
          "type": "address"
        },
        {
          "internalType": "uint256",
          "name": "_stakingID",
          "type": "uint256"
        }
      ],
      "name": "getUserRewardClaimedByStakingID",
      "outputs": [
        {
          "internalType": "uint256",
          "name": "",
          "type": "uint256"
        }
      ],
      "stateMutability": "view",
      "type": "function"
    },
    {
      "inputs": [
        {
          "internalType": "address",
          "name": "_userAddress",
          "type": "address"
        },
        {
          "internalType": "uint256",
          "name": "_stakingID",
          "type": "uint256"
        }
      ],
      "name": "getUserStakingAPY",
      "outputs": [
        {
          "internalType": "uint256",
          "name": "userStakingAPY",
          "type": "uint256"
        }
      ],
      "stateMutability": "view",
      "type": "function"
    },
    {
      "inputs": [
        {
          "internalType": "address",
          "name": "_address",
          "type": "address"
        },
        {
          "internalType": "uint256",
          "name": "_stakingID",
          "type": "uint256"
        }
      ],
      "name": "getUserStakingByID",
      "outputs": [
        {
          "internalType": "uint256",
          "name": "valueStaked",
          "type": "uint256"
        },
        {
          "internalType": "uint256",
          "name": "startTime",
          "type": "uint256"
        },
        {
          "internalType": "uint256",
          "name": "endTime",
          "type": "uint256"
        },
        {
          "internalType": "uint256",
          "name": "stakingDuration",
          "type": "uint256"
        },
        {
          "internalType": "uint256",
          "name": "timeLeft",
          "type": "uint256"
        }
      ],
      "stateMutability": "view",
      "type": "function"
    },
    {
      "inputs": [
        {
          "internalType": "address",
          "name": "_userAddress",
          "type": "address"
        }
      ],
      "name": "getUserStakingIDs",
      "outputs": [
        {
          "internalType": "uint256[]",
          "name": "",
          "type": "uint256[]"
        }
      ],
      "stateMutability": "view",
      "type": "function"
    },
    {
      "inputs": [
        {
          "internalType": "address",
          "name": "_userAddress",
          "type": "address"
        },
        {
          "internalType": "uint256",
          "name": "_stakingID",
          "type": "uint256"
        }
      ],
      "name": "getUserStakingRewardRate",
      "outputs": [
        {
          "internalType": "uint256",
          "name": "",
          "type": "uint256"
        }
      ],
      "stateMutability": "view",
      "type": "function"
    },
    {
      "inputs": [
        {
          "internalType": "address",
          "name": "_userAddress",
          "type": "address"
        }
      ],
      "name": "getUserTotalRewardClaimed",
      "outputs": [
        {
          "internalType": "uint256",
          "name": "totalRewardClaimed",
          "type": "uint256"
        },
        {
          "internalType": "uint256[]",
          "name": "rewardClaimedArray",
          "type": "uint256[]"
        },
        {
          "internalType": "uint256[]",
          "name": "rewardClaimedTimestamp",
          "type": "uint256[]"
        }
      ],
      "stateMutability": "view",
      "type": "function"
    },
    {
      "inputs": [
        {
          "internalType": "address",
          "name": "_userAddress",
          "type": "address"
        }
      ],
      "name": "getUserTotalStakedValue",
      "outputs": [
        {
          "internalType": "uint256",
          "name": "userTotalValueStaked",
          "type": "uint256"
        }
      ],
      "stateMutability": "view",
      "type": "function"
    },
    {
      "inputs": [
        {
          "internalType": "address",
          "name": "_userAddress",
          "type": "address"
        }
      ],
      "name": "getUserTotalStakingsCount",
      "outputs": [
        {
          "internalType": "uint256",
          "name": "",
          "type": "uint256"
        }
      ],
      "stateMutability": "view",
      "type": "function"
    },
    {
      "inputs": [],
      "name": "initialize",
      "outputs": [],
      "stateMutability": "nonpayable",
      "type": "function"
    },
    {
      "inputs": [
        {
          "internalType": "address",
          "name": "_userAddress",
          "type": "address"
        }
      ],
      "name": "isStaked",
      "outputs": [
        {
          "internalType": "bool",
          "name": "",
          "type": "bool"
        }
      ],
      "stateMutability": "view",
      "type": "function"
    },
    {
      "inputs": [],
      "name": "owner",
      "outputs": [
        {
          "internalType": "address",
          "name": "",
          "type": "address"
        }
      ],
      "stateMutability": "view",
      "type": "function"
    },
    {
      "inputs": [],
      "name": "pause",
      "outputs": [],
      "stateMutability": "nonpayable",
      "type": "function"
    },
    {
      "inputs": [],
      "name": "paused",
      "outputs": [
        {
          "internalType": "bool",
          "name": "",
          "type": "bool"
        }
      ],
      "stateMutability": "view",
      "type": "function"
    },
    {
      "inputs": [],
      "name": "proxiableUUID",
      "outputs": [
        {
          "internalType": "bytes32",
          "name": "",
          "type": "bytes32"
        }
      ],
      "stateMutability": "view",
      "type": "function"
    },
    {
      "inputs": [],
      "name": "renounceOwnership",
      "outputs": [],
      "stateMutability": "nonpayable",
      "type": "function"
    },
    {
      "inputs": [
        {
          "internalType": "uint256",
          "name": "_value",
          "type": "uint256"
        }
      ],
      "name": "setMinStakingValue",
      "outputs": [
        {
          "internalType": "uint256",
          "name": "",
          "type": "uint256"
        }
      ],
      "stateMutability": "nonpayable",
      "type": "function"
    },
    {
      "inputs": [
        {
          "internalType": "uint256[]",
          "name": "_rewardRates",
          "type": "uint256[]"
        },
        {
          "internalType": "uint256[]",
          "name": "_stakingDurations",
          "type": "uint256[]"
        }
      ],
      "name": "setStakingDurationAndRateAdmin",
      "outputs": [
        {
          "internalType": "bool",
          "name": "",
          "type": "bool"
        }
      ],
      "stateMutability": "nonpayable",
      "type": "function"
    },
    {
      "inputs": [
        {
          "internalType": "uint256",
          "name": "_value",
          "type": "uint256"
        }
      ],
      "name": "setUnStakeFeesAdmin",
      "outputs": [],
      "stateMutability": "nonpayable",
      "type": "function"
    },
    {
      "inputs": [
        {
          "internalType": "uint256",
          "name": "_value",
          "type": "uint256"
        },
        {
          "internalType": "uint256",
          "name": "_duration",
          "type": "uint256"
        }
      ],
      "name": "stake",
      "outputs": [
        {
          "internalType": "bool",
          "name": "",
          "type": "bool"
        }
      ],
      "stateMutability": "nonpayable",
      "type": "function"
    },
    {
      "inputs": [
        {
          "internalType": "address",
          "name": "_userAddress",
          "type": "address"
        },
        {
          "internalType": "uint256",
          "name": "_value",
          "type": "uint256"
        },
        {
          "internalType": "uint256",
          "name": "_duration",
          "type": "uint256"
        }
      ],
      "name": "stakeByAdmin",
      "outputs": [
        {
          "internalType": "bool",
          "name": "",
          "type": "bool"
        }
      ],
      "stateMutability": "nonpayable",
      "type": "function"
    },
    {
      "inputs": [
        {
          "internalType": "address",
          "name": "newOwner",
          "type": "address"
        }
      ],
      "name": "transferOwnership",
      "outputs": [],
      "stateMutability": "nonpayable",
      "type": "function"
    },
    {
      "inputs": [
        {
          "internalType": "uint256",
          "name": "_stakingID",
          "type": "uint256"
        }
      ],
      "name": "unStake",
      "outputs": [
        {
          "internalType": "bool",
          "name": "",
          "type": "bool"
        }
      ],
      "stateMutability": "nonpayable",
      "type": "function"
    },
    {
      "inputs": [
        {
          "internalType": "address",
          "name": "_userAddress",
          "type": "address"
        },
        {
          "internalType": "uint256",
          "name": "_stakingID",
          "type": "uint256"
        }
      ],
      "name": "unStakeByAdmin",
      "outputs": [
        {
          "internalType": "bool",
          "name": "",
          "type": "bool"
        }
      ],
      "stateMutability": "nonpayable",
      "type": "function"
    },
    {
      "inputs": [],
      "name": "unpause",
      "outputs": [],
      "stateMutability": "nonpayable",
      "type": "function"
    },
    {
      "inputs": [
        {
          "internalType": "address",
          "name": "_presaleAddress",
          "type": "address"
        }
      ],
      "name": "updatePresaleContract",
      "outputs": [
        {
          "internalType": "address",
          "name": "",
          "type": "address"
        }
      ],
      "stateMutability": "nonpayable",
      "type": "function"
    },
    {
      "inputs": [
        {
          "internalType": "address",
          "name": "_referralAddress",
          "type": "address"
        }
      ],
      "name": "updateReferralContract",
      "outputs": [
        {
          "internalType": "address",
          "name": "",
          "type": "address"
        }
      ],
      "stateMutability": "nonpayable",
      "type": "function"
    },
    {
      "inputs": [
        {
          "internalType": "address",
          "name": "_tokenAddress",
          "type": "address"
        }
      ],
      "name": "updateTokenContract",
      "outputs": [
        {
          "internalType": "address",
          "name": "",
          "type": "address"
        }
      ],
      "stateMutability": "nonpayable",
      "type": "function"
    },
    {
      "inputs": [
        {
          "internalType": "address",
          "name": "newImplementation",
          "type": "address"
        }
      ],
      "name": "upgradeTo",
      "outputs": [],
      "stateMutability": "nonpayable",
      "type": "function"
    },
    {
      "inputs": [
        {
          "internalType": "address",
          "name": "newImplementation",
          "type": "address"
        },
        {
          "internalType": "bytes",
          "name": "data",
          "type": "bytes"
        }
      ],
      "name": "upgradeToAndCall",
      "outputs": [],
      "stateMutability": "payable",
      "type": "function"
    },
    {
      "inputs": [
        {
          "internalType": "address",
          "name": "_receiver",
          "type": "address"
        },
        {
          "internalType": "uint256",
          "name": "_value",
          "type": "uint256"
        }
      ],
      "name": "withdrawNativeFunds",
      "outputs": [
        {
          "internalType": "bool",
          "name": "",
          "type": "bool"
        }
      ],
      "stateMutability": "nonpayable",
      "type": "function"
    },
    {
      "inputs": [
        {
          "internalType": "address",
          "name": "_tokenAddress",
          "type": "address"
        },
        {
          "internalType": "address",
          "name": "_receiver",
          "type": "address"
        },
        {
          "internalType": "uint256",
          "name": "_value",
          "type": "uint256"
        }
      ],
      "name": "withdrawTokens",
      "outputs": [
        {
          "internalType": "bool",
          "name": "",
          "type": "bool"
        }
      ],
      "stateMutability": "nonpayable",
      "type": "function"
    },
    {
      "stateMutability": "payable",
      "type": "receive"
    }
  ],
  "bytecode": "0x60a06040523060805234801561001457600080fd5b50608051612dd061004c60003960008181610b4501528181610b8501528181610d1b01528181610d5b0152610dee0152612dd06000f3fe60806040526004361061023f5760003560e01c80636f51b20b1161012e578063989ced26116100ab578063d3460d8a1161006f578063d3460d8a14610727578063d596fe7f14610747578063eb0bea0e14610767578063f1012b45146107ae578063f2fde38b146107cc57600080fd5b8063989ced2614610650578063ac67511214610670578063ae3132e8146106b8578063cde263ed146106e7578063cdfa89cc1461070757600080fd5b80638d10c868116100f25780638d10c8681461058b5780638d5103bb146105ab5780638da5cb5b146105cb5780638e0e735f146105e95780638ed0b2131461063057600080fd5b80636f51b20b146104ff578063715018a61461052c5780637b0472f0146105415780638129fc1c146105615780638456cb591461057657600080fd5b80633f4ba83a116101bc5780635d3eea91116101805780635d3eea91146104425780635e35359e1461046257806361686dac146104825780636177fd18146104a8578063623b44d5146104c857600080fd5b80633f4ba83a146103cd578063469bbc12146103e25780634f1ef2861461040257806352d1902d146104155780635c975abb1461042a57600080fd5b806326792aca1161020357806326792aca1461032657806328b7bede14610346578063310c9b201461036b578063363a14a91461038b5780633659cfe6146103ab57600080fd5b806303b503141461024b5780630cd9b370146102805780631124f7dd146102a057806323442c60146102d8578063239cd4a4146102f657600080fd5b3661024657005b600080fd5b34801561025757600080fd5b506102606107ec565b604080519384526020840192909252908201526060015b60405180910390f35b34801561028c57600080fd5b50610105545b604051908152602001610277565b3480156102ac57600080fd5b506102c06102bb3660046126ca565b61080c565b6040516001600160a01b039091168152602001610277565b3480156102e457600080fd5b5060fe546001600160a01b03166102c0565b34801561030257600080fd5b506103166103113660046126e5565b61083b565b6040519015158152602001610277565b34801561033257600080fd5b506103166103413660046126fe565b610872565b34801561035257600080fd5b5061035b6108be565b6040516102779493929190612778565b34801561037757600080fd5b506103166103863660046127af565b610a33565b34801561039757600080fd5b506102926103a63660046126fe565b610afe565b3480156103b757600080fd5b506103cb6103c63660046126ca565b610b3b565b005b3480156103d957600080fd5b506103cb610c1a565b3480156103ee57600080fd5b506102926103fd3660046126ca565b610c2c565b6103cb610410366004612851565b610d11565b34801561042157600080fd5b50610292610de1565b34801561043657600080fd5b5060335460ff16610316565b34801561044e57600080fd5b5061031661045d3660046126e5565b610e94565b34801561046e57600080fd5b5061031661047d3660046128e2565b610f0a565b34801561048e57600080fd5b50610497610f92565b604051610277959493929190612959565b3480156104b457600080fd5b506103166104c33660046126ca565b61105a565b3480156104d457600080fd5b506102926104e33660046126ca565b6001600160a01b03166000908152610107602052604090205490565b34801561050b57600080fd5b5061051f61051a3660046126ca565b611145565b604051610277919061299c565b34801561053857600080fd5b506103cb6111b2565b34801561054d57600080fd5b5061031661055c3660046129af565b6111c4565b34801561056d57600080fd5b506103cb611255565b34801561058257600080fd5b506103cb611480565b34801561059757600080fd5b506103166105a63660046126fe565b611490565b3480156105b757600080fd5b506102926105c63660046126fe565b6114af565b3480156105d757600080fd5b506065546001600160a01b03166102c0565b3480156105f557600080fd5b506102926106043660046126fe565b6001600160a01b0391909116600090815261010660209081526040808320938352929052206001015490565b34801561063c57600080fd5b5061029261064b3660046126ca565b6114bb565b34801561065c57600080fd5b506102c061066b3660046126ca565b61158c565b34801561067c57600080fd5b5061069061068b3660046126fe565b6115b9565b604080519586526020860194909452928401919091526060830152608082015260a001610277565b3480156106c457600080fd5b506106d86106d33660046126ca565b611623565b604051610277939291906129d1565b3480156106f357600080fd5b50610316610702366004612a52565b611745565b34801561071357600080fd5b506103cb6107223660046126e5565b611776565b34801561073357600080fd5b506102c06107423660046126ca565b611784565b34801561075357600080fd5b506102926107623660046126e5565b6117b1565b34801561077357600080fd5b506102926107823660046126fe565b6001600160a01b0391909116600090815261010660209081526040808320938352929052206004015490565b3480156107ba57600080fd5b5060fd546001600160a01b03166102c0565b3480156107d857600080fd5b506103cb6107e73660046126ca565b6117c5565b610104546000806107fb61183b565b9150610805611862565b9050909192565b6000610816611896565b5060fd80546001600160a01b0319166001600160a01b0383169081179091555b919050565b60008061084833846118f0565b60fc5460fb54919250610869916001600160a01b0391821691163384611aa4565b50600192915050565b600061087c611896565b6040516001600160a01b0384169083156108fc029084906000818181858888f193505050501580156108b2573d6000803e3d6000fd5b50600190505b92915050565b60fc54604080516306fdde0360e01b815290516001600160a01b0390921691606091600091829185916306fdde039160048082019286929091908290030181865afa158015610911573d6000803e3d6000fd5b505050506040513d6000823e601f3d908101601f191682016040526109399190810190612abe565b925060fc60009054906101000a90046001600160a01b03166001600160a01b031663313ce5676040518163ffffffff1660e01b8152600401602060405180830381865afa15801561098e573d6000803e3d6000fd5b505050506040513d601f19601f820116820180604052508101906109b29190612b2c565b915060fc60009054906101000a90046001600160a01b03166001600160a01b03166318160ddd6040518163ffffffff1660e01b8152600401602060405180830381865afa158015610a07573d6000803e3d6000fd5b505050506040513d601f19601f82011682018060405250810190610a2b9190612b2c565b905090919293565b600033610a486065546001600160a01b031690565b6001600160a01b0316816001600160a01b03161480610a74575060fd546001600160a01b038281169116145b80610a8c575060fe546001600160a01b038281169116145b610ae85760405162461bcd60e51b815260206004820152602260248201527f4f6e6c79206f776e65722063616e2063616c6c20746869732066756e6374696f604482015261371760f11b60648201526084015b60405180910390fd5b610af3858585611b26565b9150505b9392505050565b6001600160a01b03821660009081526101066020908152604080832084845290915281206001810154610b3281600c612b5b565b95945050505050565b6001600160a01b037f0000000000000000000000000000000000000000000000000000000000000000163003610b835760405162461bcd60e51b8152600401610adf90612b72565b7f00000000000000000000000000000000000000000000000000000000000000006001600160a01b0316610bcc600080516020612d54833981519152546001600160a01b031690565b6001600160a01b031614610bf25760405162461bcd60e51b8152600401610adf90612bbe565b610bfb81611d3c565b60408051600080825260208201909252610c1791839190611d44565b50565b610c22611896565b610c2a611eb4565b565b6001600160a01b03811660009081526101076020908152604080832080548251818502810185019093528083528493830182828015610c8a57602002820191906000526020600020905b815481526020019060010190808311610c76575b505083519394506000925050505b81811015610d09576001600160a01b0385166000908152610106602052604081208451909190859084908110610cd057610cd0612c0a565b602002602001015181526020019081526020016000206000015484610cf59190612c20565b935080610d0181612c33565b915050610c98565b505050919050565b6001600160a01b037f0000000000000000000000000000000000000000000000000000000000000000163003610d595760405162461bcd60e51b8152600401610adf90612b72565b7f00000000000000000000000000000000000000000000000000000000000000006001600160a01b0316610da2600080516020612d54833981519152546001600160a01b031690565b6001600160a01b031614610dc85760405162461bcd60e51b8152600401610adf90612bbe565b610dd182611d3c565b610ddd82826001611d44565b5050565b6000306001600160a01b037f00000000000000000000000000000000000000000000000000000000000000001614610e815760405162461bcd60e51b815260206004820152603860248201527f555550535570677261646561626c653a206d757374206e6f742062652063616c60448201527f6c6564207468726f7567682064656c656761746563616c6c00000000000000006064820152608401610adf565b50600080516020612d5483398151915290565b600080610ea133846118f0565b90506000610eaf3385611f06565b905060646101055482610ec29190612b5b565b610ecc9190612c4c565b610ed69082612c6e565b60fc5460fb54919250610f00916001600160a01b03918216911633610efb8587612c20565b611aa4565b5060019392505050565b6000610f14611896565b60405163a9059cbb60e01b81526001600160a01b0384811660048301526024820184905285169063a9059cbb906044016020604051808303816000875af1158015610f63573d6000803e3d6000fd5b505050506040513d601f19601f82011682018060405250810190610f879190612c81565b506001949350505050565b6060806000806000610103805480602002602001604051908101604052809291908181526020018280548015610fe757602002820191906000526020600020905b815481526020019060010190808311610fd3575b5050505050945061010280548060200260200160405190810160405280929190818152602001828054801561103b57602002820191906000526020600020905b815481526020019060010190808311611027575b5050505050935060ff5492506101005491506101015490509091929394565b6001600160a01b038116600090815261010760209081526040808320805482518185028101850190935280835284938301828280156110b857602002820191906000526020600020905b8154815260200190600101908083116110a4575b505083519394506000925050505b8181101561113a576001600160a01b038516600090815261010660205260408120845182908690859081106110fd576110fd612c0a565b6020026020010151815260200190815260200160002060000154111561112857506001949350505050565b8061113281612c33565b9150506110c6565b506000949350505050565b6001600160a01b038116600090815261010760209081526040918290208054835181840281018401909452808452606093928301828280156111a657602002820191906000526020600020905b815481526020019060010190808311611192575b50505050509050919050565b6111ba611896565b610c2a600061202f565b60006111ce612081565b60fc546040516323b872dd60e01b8152336004820152306024820152604481018590526001600160a01b03909116906323b872dd906064016020604051808303816000875af1158015611225573d6000803e3d6000fd5b505050506040513d601f19601f820116820180604052508101906112499190612c81565b50610af7338484611b26565b600054610100900460ff16158080156112755750600054600160ff909116105b8061128f5750303b15801561128f575060005460ff166001145b6112f25760405162461bcd60e51b815260206004820152602e60248201527f496e697469616c697a61626c653a20636f6e747261637420697320616c72656160448201526d191e481a5b9a5d1a585b1a5e995960921b6064820152608401610adf565b6000805460ff191660011790558015611315576000805461ff0019166101001790555b60fb80546001600160a01b031990811673397b8db43aaaa23a757c52c05eb14a66a0f368d81790915560fc805482167335d21e38200e125c9352c777b256854a6532905317905560fd8054821673262a0d88b7acc1677d234f38cb8443b99fb8075f17905560fe8054909116732d227feed1bfbb46fbf8aef5c3d32e5da4487a6c179055604080516080810182526276a700815262ed4e0060208201526301e13380918101919091526302ce818060608201526113d7906101029060046125d0565b5060408051608081018252600c8152600f60208201526012918101919091526015606082015261140c90610103906004612623565b50670de0b6b3a764000061010455600a610105556114286120c7565b6114306120f6565b611438612125565b8015610c17576000805461ff0019169055604051600181527f7f26b83ff96e1f2b6a682f133852f6798a09c465da95921460cefb38474024989060200160405180910390a150565b611488611896565b610c2a61214c565b600061149a611896565b6114a483836118f0565b506108b28383611f06565b6000610af78383612189565b6001600160a01b0381166000908152610107602090815260408083208054825181850281018501909352808352849383018282801561151957602002820191906000526020600020905b815481526020019060010190808311611505575b5050506001600160a01b038616600090815261010760205260408120549394509150505b818160ff161015610d095761156e85848360ff168151811061156157611561612c0a565b6020026020010151612189565b6115789085612c20565b93508061158481612ca3565b91505061153d565b6000611596611896565b5060fc80546001600160a01b0319166001600160a01b0392909216918217905590565b6001600160a01b03821660009081526101066020908152604080832084845290915281208054600282015460038301549193909281906115f98585612c6e565b925083421061160b5760009150611618565b6116154285612c6e565b91505b509295509295909350565b6001600160a01b0381166000908152610108602090815260408083208054825181850281018501909352808352606093849392919083018282801561168757602002820191906000526020600020905b815481526020019060010190808311611673575b505083519395506000925050505b818110156116d6578381815181106116af576116af612c0a565b6020026020010151856116c29190612c20565b9450806116ce81612c33565b915050611695565b506001600160a01b038516600090815261010960209081526040918290208054835181840281018401909452808452909183018282801561173657602002820191906000526020600020905b815481526020019060010190808311611722575b50505050509150509193909250565b600061174f611896565b61175c6101038686612663565b5061176a6101028484612663565b50600195945050505050565b61177e611896565b61010555565b600061178e611896565b5060fe80546001600160a01b0319166001600160a01b0392909216918217905590565b60006117bb611896565b5061010481905590565b6117cd611896565b6001600160a01b0381166118325760405162461bcd60e51b815260206004820152602660248201527f4f776e61626c653a206e6577206f776e657220697320746865207a65726f206160448201526564647265737360d01b6064820152608401610adf565b610c178161202f565b600061010260008154811061185257611852612c0a565b9060005260206000200154905090565b6101028054600091611875600183612c6e565b8154811061188557611885612c0a565b906000526020600020015491505090565b6065546001600160a01b03163314610c2a5760405162461bcd60e51b815260206004820181905260248201527f4f776e61626c653a2063616c6c6572206973206e6f7420746865206f776e65726044820152606401610adf565b6001600160a01b038216600090815261010660209081526040808320848452909152812080546119625760405162461bcd60e51b815260206004820152601860248201527f596f752068617665206e6f207374616b696e67207965742e00000000000000006044820152606401610adf565b600061196e8585612189565b9050808260040160008282546119849190612c20565b90915550506001600160a01b038516600081815261010860209081526040808320805460018101825590845282842001859055928252610109905220428154600181018355600092835260208320015561010180548392906119e7908490612c20565b9091555050604051849082906001600160a01b038816907fd6ab86e55e7211dddcda4c7c65e9e1c75f06b5da6b05222f8cd39b93986fecad90600090a460fe546040516305d1657960e41b8152600481018390526001600160a01b03878116602483015290911690635d165790906044016020604051808303816000875af1158015611a77573d6000803e3d6000fd5b505050506040513d601f19601f82011682018060405250810190611a9b9190612c81565b50949350505050565b6040516323b872dd60e01b81526001600160a01b0384811660048301528381166024830152604482018390528516906323b872dd906064016020604051808303816000875af1158015611afb573d6000803e3d6000fd5b505050506040513d601f19601f82011682018060405250810190611b1f9190612c81565b5050505050565b6000611b30611862565b8211158015611b465750611b4261183b565b8210155b611bca5760405162461bcd60e51b815260206004820152604960248201527f5374616b696e67206475726174696f6e206d757374206265203e3d206d696e5360448201527f74616b696e674475726174696f6e20616e64203c3d206d61785374616b696e67606482015268223ab930ba34b7b71760b91b608482015260a401610adf565b61010454831015611c315760405162461bcd60e51b815260206004820152602b60248201527f5374616b696e672076616c75652073686f756c64206265203e3d206d696e537460448201526a30b5b4b733ab30b63ab29760a91b6064820152608401610adf565b600060ff546001611c429190612c20565b6001600160a01b0386166000908152610106602090815260408083208484529091529020858155909150611c7584612236565b60018201554260028201558342611c8c9190612c20565b60038201556001600160a01b038616600090815261010760209081526040822080546001810182559083529082200183905560ff805491611ccc83612c33565b9190505550846101006000828254611ce49190612c20565b925050819055508385876001600160a01b03167ff556991011e831bcfac4f406d547e5e32cdd98267efab83935230d5f8d02c44685604051611d2891815260200190565b60405180910390a450600195945050505050565b610c17611896565b7f4910fdfa16fed3260ed0e7147f7cc6da11a60208b5b9406d12a635614ffd91435460ff1615611d7c57611d77836122e8565b505050565b826001600160a01b03166352d1902d6040518163ffffffff1660e01b8152600401602060405180830381865afa925050508015611dd6575060408051601f3d908101601f19168201909252611dd391810190612b2c565b60015b611e395760405162461bcd60e51b815260206004820152602e60248201527f45524331393637557067726164653a206e657720696d706c656d656e7461746960448201526d6f6e206973206e6f74205555505360901b6064820152608401610adf565b600080516020612d548339815191528114611ea85760405162461bcd60e51b815260206004820152602960248201527f45524331393637557067726164653a20756e737570706f727465642070726f786044820152681a58589b195555525160ba1b6064820152608401610adf565b50611d77838383612384565b611ebc6123af565b6033805460ff191690557f5db9ee0a495bf2e6ff9c91a7834c1ba4fdd244a5e8aa4e537bd38aeae4b073aa335b6040516001600160a01b03909116815260200160405180910390a1565b6001600160a01b038216600090815261010660209081526040808320848452909152812080548015801590611f3f575060038201544210155b611fa85760405162461bcd60e51b815260206004820152603460248201527f596f7572207374616b696e67206973206e6f74206f766572206f7220796f75206044820152733430bb329037379039ba30b5b4b733903cb2ba1760611b6064820152608401610adf565b60008083556001830181905560028301819055600383018190556101008054839290611fd5908490612c6e565b909155505060ff8054906000611fea83612cc2565b91905055508381866001600160a01b03167ff960dbf9e5d0682f7a298ed974e33a28b4464914b7a2bfac12ae419a9afeb28060405160405180910390a4949350505050565b606580546001600160a01b038381166001600160a01b0319831681179093556040519116919082907f8be0079c531659141344cd1fd0a4f28419497f9722a3daafe3b4186f6b6457e090600090a35050565b60335460ff1615610c2a5760405162461bcd60e51b815260206004820152601060248201526f14185d5cd8589b194e881c185d5cd95960821b6044820152606401610adf565b600054610100900460ff166120ee5760405162461bcd60e51b8152600401610adf90612cd9565b610c2a6123f8565b600054610100900460ff1661211d5760405162461bcd60e51b8152600401610adf90612cd9565b610c2a61242b565b600054610100900460ff16610c2a5760405162461bcd60e51b8152600401610adf90612cd9565b612154612081565b6033805460ff191660011790557f62e78cea01bee320cd4e420270b5ea74000d11b0c9f74754ebdbfc544b05a258611ee93390565b6001600160a01b03821660009081526101066020908152604080832084845290915281208054600282015460038301546001840154859062278d00906064906121d29087612b5b565b6121dc9190612c4c565b6121e69190612c4c565b905060006121f48442612c6e565b90508560040154612215612208858461245b565b612210611862565b61245b565b61221f9084612b5b565b6122299190612c6e565b9998505050505050505050565b610102546000908290825b818160ff161015610d09576101028160ff168154811061226357612263612c0a565b9060005260206000200154831161229d576101038160ff168154811061228b5761228b612c0a565b90600052602060002001549350610d09565b6122a8600183612c6e565b8160ff16036122d6576101038160ff16815481106122c8576122c8612c0a565b906000526020600020015493505b806122e081612ca3565b915050612241565b6001600160a01b0381163b6123555760405162461bcd60e51b815260206004820152602d60248201527f455243313936373a206e657720696d706c656d656e746174696f6e206973206e60448201526c1bdd08184818dbdb9d1c9858dd609a1b6064820152608401610adf565b600080516020612d5483398151915280546001600160a01b0319166001600160a01b0392909216919091179055565b61238d83612471565b60008251118061239a5750805b15611d77576123a983836124b1565b50505050565b60335460ff16610c2a5760405162461bcd60e51b815260206004820152601460248201527314185d5cd8589b194e881b9bdd081c185d5cd95960621b6044820152606401610adf565b600054610100900460ff1661241f5760405162461bcd60e51b8152600401610adf90612cd9565b6033805460ff19169055565b600054610100900460ff166124525760405162461bcd60e51b8152600401610adf90612cd9565b610c2a3361202f565b600081831061246a5781610af7565b5090919050565b61247a816122e8565b6040516001600160a01b038216907fbc7cd75a20ee27fd9adebab32041f755214dbc6bffa90cc0225b39da2e5c2d3b90600090a250565b60606001600160a01b0383163b6125195760405162461bcd60e51b815260206004820152602660248201527f416464726573733a2064656c65676174652063616c6c20746f206e6f6e2d636f6044820152651b9d1c9858dd60d21b6064820152608401610adf565b600080846001600160a01b0316846040516125349190612d24565b600060405180830381855af49150503d806000811461256f576040519150601f19603f3d011682016040523d82523d6000602084013e612574565b606091505b5091509150610b328282604051806060016040528060278152602001612d7460279139606083156125a6575081610af7565b8251156125b65782518084602001fd5b8160405162461bcd60e51b8152600401610adf9190612d40565b828054828255906000526020600020908101928215612613579160200282015b82811115612613578251829063ffffffff169055916020019190600101906125f0565b5061261f92915061269e565b5090565b828054828255906000526020600020908101928215612613579160200282015b82811115612613578251829060ff16905591602001919060010190612643565b828054828255906000526020600020908101928215612613579160200282015b82811115612613578235825591602001919060010190612683565b5b8082111561261f576000815560010161269f565b80356001600160a01b038116811461083657600080fd5b6000602082840312156126dc57600080fd5b610af7826126b3565b6000602082840312156126f757600080fd5b5035919050565b6000806040838503121561271157600080fd5b61271a836126b3565b946020939093013593505050565b60005b8381101561274357818101518382015260200161272b565b50506000910152565b60008151808452612764816020860160208601612728565b601f01601f19169290920160200192915050565b6001600160a01b038516815260806020820181905260009061279c9083018661274c565b6040830194909452506060015292915050565b6000806000606084860312156127c457600080fd5b6127cd846126b3565b95602085013595506040909401359392505050565b634e487b7160e01b600052604160045260246000fd5b604051601f8201601f1916810167ffffffffffffffff81118282101715612821576128216127e2565b604052919050565b600067ffffffffffffffff821115612843576128436127e2565b50601f01601f191660200190565b6000806040838503121561286457600080fd5b61286d836126b3565b9150602083013567ffffffffffffffff81111561288957600080fd5b8301601f8101851361289a57600080fd5b80356128ad6128a882612829565b6127f8565b8181528660208385010111156128c257600080fd5b816020840160208301376000602083830101528093505050509250929050565b6000806000606084860312156128f757600080fd5b612900846126b3565b925061290e602085016126b3565b9150604084013590509250925092565b600081518084526020808501945080840160005b8381101561294e57815187529582019590820190600101612932565b509495945050505050565b60a08152600061296c60a083018861291e565b828103602084015261297e818861291e565b60408401969096525050606081019290925260809091015292915050565b602081526000610af7602083018461291e565b600080604083850312156129c257600080fd5b50508035926020909101359150565b8381526060602082015260006129ea606083018561291e565b82810360408401526129fc818561291e565b9695505050505050565b60008083601f840112612a1857600080fd5b50813567ffffffffffffffff811115612a3057600080fd5b6020830191508360208260051b8501011115612a4b57600080fd5b9250929050565b60008060008060408587031215612a6857600080fd5b843567ffffffffffffffff80821115612a8057600080fd5b612a8c88838901612a06565b90965094506020870135915080821115612aa557600080fd5b50612ab287828801612a06565b95989497509550505050565b600060208284031215612ad057600080fd5b815167ffffffffffffffff811115612ae757600080fd5b8201601f81018413612af857600080fd5b8051612b066128a882612829565b818152856020838501011115612b1b57600080fd5b610b32826020830160208601612728565b600060208284031215612b3e57600080fd5b5051919050565b634e487b7160e01b600052601160045260246000fd5b80820281158282048414176108b8576108b8612b45565b6020808252602c908201527f46756e6374696f6e206d7573742062652063616c6c6564207468726f7567682060408201526b19195b1959d85d1958d85b1b60a21b606082015260800190565b6020808252602c908201527f46756e6374696f6e206d7573742062652063616c6c6564207468726f7567682060408201526b6163746976652070726f787960a01b606082015260800190565b634e487b7160e01b600052603260045260246000fd5b808201808211156108b8576108b8612b45565b600060018201612c4557612c45612b45565b5060010190565b600082612c6957634e487b7160e01b600052601260045260246000fd5b500490565b818103818111156108b8576108b8612b45565b600060208284031215612c9357600080fd5b81518015158114610af757600080fd5b600060ff821660ff8103612cb957612cb9612b45565b60010192915050565b600081612cd157612cd1612b45565b506000190190565b6020808252602b908201527f496e697469616c697a61626c653a20636f6e7472616374206973206e6f74206960408201526a6e697469616c697a696e6760a81b606082015260800190565b60008251612d36818460208701612728565b9190910192915050565b602081526000610af7602083018461274c56fe360894a13ba1a3210667c828492db98dca3e2076cc3735a920a3ca505d382bbc416464726573733a206c6f772d6c6576656c2064656c65676174652063616c6c206661696c6564a2646970667358221220d658f6938f71d44a4a989245d13b5708a792aa892484536dc043cc673c556dff64736f6c63430008110033",
  "linkReferences": {},
  "deployedLinkReferences": {}
}