{
  "_format": "hh-sol-artifact-1",
  "contractName": "USDT",
  "sourceName": "contracts/USDT.sol",
  "abi": [
    {
      "anonymous": false,
      "inputs": [
        {
          "indexed": false,
          "internalType": "address",
          "name": "previousAdmin",
          "type": "address"
        },
        {
          "indexed": false,
          "internalType": "address",
          "name": "newAdmin",
          "type": "address"
        }
      ],
      "name": "AdminChanged",
      "type": "event"
    },
    {
      "anonymous": false,
      "inputs": [
        {
          "indexed": true,
          "internalType": "address",
          "name": "owner",
          "type": "address"
        },
        {
          "indexed": true,
          "internalType": "address",
          "name": "spender",
          "type": "address"
        },
        {
          "indexed": false,
          "internalType": "uint256",
          "name": "value",
          "type": "uint256"
        }
      ],
      "name": "Approval",
      "type": "event"
    },
    {
      "anonymous": false,
      "inputs": [
        {
          "indexed": true,
          "internalType": "address",
          "name": "beacon",
          "type": "address"
        }
      ],
      "name": "BeaconUpgraded",
      "type": "event"
    },
    {
      "anonymous": false,
      "inputs": [
        {
          "indexed": false,
          "internalType": "uint8",
          "name": "version",
          "type": "uint8"
        }
      ],
      "name": "Initialized",
      "type": "event"
    },
    {
      "anonymous": false,
      "inputs": [
        {
          "indexed": true,
          "internalType": "address",
          "name": "previousOwner",
          "type": "address"
        },
        {
          "indexed": true,
          "internalType": "address",
          "name": "newOwner",
          "type": "address"
        }
      ],
      "name": "OwnershipTransferred",
      "type": "event"
    },
    {
      "anonymous": false,
      "inputs": [
        {
          "indexed": false,
          "internalType": "address",
          "name": "account",
          "type": "address"
        }
      ],
      "name": "Paused",
      "type": "event"
    },
    {
      "anonymous": false,
      "inputs": [
        {
          "indexed": true,
          "internalType": "address",
          "name": "from",
          "type": "address"
        },
        {
          "indexed": true,
          "internalType": "address",
          "name": "to",
          "type": "address"
        },
        {
          "indexed": false,
          "internalType": "uint256",
          "name": "value",
          "type": "uint256"
        }
      ],
      "name": "Transfer",
      "type": "event"
    },
    {
      "anonymous": false,
      "inputs": [
        {
          "indexed": false,
          "internalType": "address",
          "name": "account",
          "type": "address"
        }
      ],
      "name": "Unpaused",
      "type": "event"
    },
    {
      "anonymous": false,
      "inputs": [
        {
          "indexed": true,
          "internalType": "address",
          "name": "implementation",
          "type": "address"
        }
      ],
      "name": "Upgraded",
      "type": "event"
    },
    {
      "inputs": [
        {
          "internalType": "address",
          "name": "owner",
          "type": "address"
        },
        {
          "internalType": "address",
          "name": "spender",
          "type": "address"
        }
      ],
      "name": "allowance",
      "outputs": [
        {
          "internalType": "uint256",
          "name": "",
          "type": "uint256"
        }
      ],
      "stateMutability": "view",
      "type": "function"
    },
    {
      "inputs": [
        {
          "internalType": "address",
          "name": "spender",
          "type": "address"
        },
        {
          "internalType": "uint256",
          "name": "amount",
          "type": "uint256"
        }
      ],
      "name": "approve",
      "outputs": [
        {
          "internalType": "bool",
          "name": "",
          "type": "bool"
        }
      ],
      "stateMutability": "nonpayable",
      "type": "function"
    },
    {
      "inputs": [
        {
          "internalType": "address",
          "name": "account",
          "type": "address"
        }
      ],
      "name": "balanceOf",
      "outputs": [
        {
          "internalType": "uint256",
          "name": "",
          "type": "uint256"
        }
      ],
      "stateMutability": "view",
      "type": "function"
    },
    {
      "inputs": [
        {
          "internalType": "uint256",
          "name": "amount",
          "type": "uint256"
        }
      ],
      "name": "burn",
      "outputs": [],
      "stateMutability": "nonpayable",
      "type": "function"
    },
    {
      "inputs": [
        {
          "internalType": "address",
          "name": "account",
          "type": "address"
        },
        {
          "internalType": "uint256",
          "name": "amount",
          "type": "uint256"
        }
      ],
      "name": "burnFrom",
      "outputs": [],
      "stateMutability": "nonpayable",
      "type": "function"
    },
    {
      "inputs": [],
      "name": "decimals",
      "outputs": [
        {
          "internalType": "uint8",
          "name": "",
          "type": "uint8"
        }
      ],
      "stateMutability": "pure",
      "type": "function"
    },
    {
      "inputs": [
        {
          "internalType": "address",
          "name": "spender",
          "type": "address"
        },
        {
          "internalType": "uint256",
          "name": "subtractedValue",
          "type": "uint256"
        }
      ],
      "name": "decreaseAllowance",
      "outputs": [
        {
          "internalType": "bool",
          "name": "",
          "type": "bool"
        }
      ],
      "stateMutability": "nonpayable",
      "type": "function"
    },
    {
      "inputs": [
        {
          "internalType": "address",
          "name": "spender",
          "type": "address"
        },
        {
          "internalType": "uint256",
          "name": "addedValue",
          "type": "uint256"
        }
      ],
      "name": "increaseAllowance",
      "outputs": [
        {
          "internalType": "bool",
          "name": "",
          "type": "bool"
        }
      ],
      "stateMutability": "nonpayable",
      "type": "function"
    },
    {
      "inputs": [],
      "name": "initialize",
      "outputs": [],
      "stateMutability": "nonpayable",
      "type": "function"
    },
    {
      "inputs": [],
      "name": "name",
      "outputs": [
        {
          "internalType": "string",
          "name": "",
          "type": "string"
        }
      ],
      "stateMutability": "view",
      "type": "function"
    },
    {
      "inputs": [],
      "name": "owner",
      "outputs": [
        {
          "internalType": "address",
          "name": "",
          "type": "address"
        }
      ],
      "stateMutability": "view",
      "type": "function"
    },
    {
      "inputs": [],
      "name": "pause",
      "outputs": [],
      "stateMutability": "nonpayable",
      "type": "function"
    },
    {
      "inputs": [],
      "name": "paused",
      "outputs": [
        {
          "internalType": "bool",
          "name": "",
          "type": "bool"
        }
      ],
      "stateMutability": "view",
      "type": "function"
    },
    {
      "inputs": [],
      "name": "proxiableUUID",
      "outputs": [
        {
          "internalType": "bytes32",
          "name": "",
          "type": "bytes32"
        }
      ],
      "stateMutability": "view",
      "type": "function"
    },
    {
      "inputs": [],
      "name": "renounceOwnership",
      "outputs": [],
      "stateMutability": "nonpayable",
      "type": "function"
    },
    {
      "inputs": [],
      "name": "symbol",
      "outputs": [
        {
          "internalType": "string",
          "name": "",
          "type": "string"
        }
      ],
      "stateMutability": "view",
      "type": "function"
    },
    {
      "inputs": [],
      "name": "totalSupply",
      "outputs": [
        {
          "internalType": "uint256",
          "name": "",
          "type": "uint256"
        }
      ],
      "stateMutability": "view",
      "type": "function"
    },
    {
      "inputs": [
        {
          "internalType": "address",
          "name": "to",
          "type": "address"
        },
        {
          "internalType": "uint256",
          "name": "amount",
          "type": "uint256"
        }
      ],
      "name": "transfer",
      "outputs": [
        {
          "internalType": "bool",
          "name": "",
          "type": "bool"
        }
      ],
      "stateMutability": "nonpayable",
      "type": "function"
    },
    {
      "inputs": [
        {
          "internalType": "address",
          "name": "from",
          "type": "address"
        },
        {
          "internalType": "address",
          "name": "to",
          "type": "address"
        },
        {
          "internalType": "uint256",
          "name": "amount",
          "type": "uint256"
        }
      ],
      "name": "transferFrom",
      "outputs": [
        {
          "internalType": "bool",
          "name": "",
          "type": "bool"
        }
      ],
      "stateMutability": "nonpayable",
      "type": "function"
    },
    {
      "inputs": [
        {
          "internalType": "address",
          "name": "newOwner",
          "type": "address"
        }
      ],
      "name": "transferOwnership",
      "outputs": [],
      "stateMutability": "nonpayable",
      "type": "function"
    },
    {
      "inputs": [],
      "name": "unpause",
      "outputs": [],
      "stateMutability": "nonpayable",
      "type": "function"
    },
    {
      "inputs": [
        {
          "internalType": "address",
          "name": "newImplementation",
          "type": "address"
        }
      ],
      "name": "upgradeTo",
      "outputs": [],
      "stateMutability": "nonpayable",
      "type": "function"
    },
    {
      "inputs": [
        {
          "internalType": "address",
          "name": "newImplementation",
          "type": "address"
        },
        {
          "internalType": "bytes",
          "name": "data",
          "type": "bytes"
        }
      ],
      "name": "upgradeToAndCall",
      "outputs": [],
      "stateMutability": "payable",
      "type": "function"
    }
  ],
  "bytecode": "0x60a06040523060805234801561001457600080fd5b50608051611d5161004c600039600081816104e001528181610529015281816106060152818161064601526106d90152611d516000f3fe6080604052600436106101405760003560e01c80635c975abb116100b65780638da5cb5b1161006f5780638da5cb5b1461034757806395d89b411461036f578063a457c2d714610384578063a9059cbb146103a4578063dd62ed3e146103c4578063f2fde38b146103e457600080fd5b80635c975abb1461029a57806370a08231146102b2578063715018a6146102e857806379cc6790146102fd5780638129fc1c1461031d5780638456cb591461033257600080fd5b80633659cfe6116101085780633659cfe6146101fb578063395093511461021d5780633f4ba83a1461023d57806342966c68146102525780634f1ef2861461027257806352d1902d1461028557600080fd5b806306fdde0314610145578063095ea7b31461017057806318160ddd146101a057806323b872dd146101bf578063313ce567146101df575b600080fd5b34801561015157600080fd5b5061015a610404565b604051610167919061173a565b60405180910390f35b34801561017c57600080fd5b5061019061018b366004611789565b610496565b6040519015158152602001610167565b3480156101ac57600080fd5b506035545b604051908152602001610167565b3480156101cb57600080fd5b506101906101da3660046117b3565b6104b0565b3480156101eb57600080fd5b5060405160068152602001610167565b34801561020757600080fd5b5061021b6102163660046117ef565b6104d6565b005b34801561022957600080fd5b50610190610238366004611789565b6105be565b34801561024957600080fd5b5061021b6105e0565b34801561025e57600080fd5b5061021b61026d36600461180a565b6105f2565b61021b610280366004611839565b6105fc565b34801561029157600080fd5b506101b16106cc565b3480156102a657600080fd5b5060975460ff16610190565b3480156102be57600080fd5b506101b16102cd3660046117ef565b6001600160a01b031660009081526033602052604090205490565b3480156102f457600080fd5b5061021b61077f565b34801561030957600080fd5b5061021b610318366004611789565b610791565b34801561032957600080fd5b5061021b6107a6565b34801561033e57600080fd5b5061021b610935565b34801561035357600080fd5b5060c9546040516001600160a01b039091168152602001610167565b34801561037b57600080fd5b5061015a610945565b34801561039057600080fd5b5061019061039f366004611789565b610954565b3480156103b057600080fd5b506101906103bf366004611789565b6109da565b3480156103d057600080fd5b506101b16103df3660046118fb565b6109e8565b3480156103f057600080fd5b5061021b6103ff3660046117ef565b610a13565b6060603680546104139061192e565b80601f016020809104026020016040519081016040528092919081815260200182805461043f9061192e565b801561048c5780601f106104615761010080835404028352916020019161048c565b820191906000526020600020905b81548152906001019060200180831161046f57829003601f168201915b5050505050905090565b6000336104a4818585610a89565b60019150505b92915050565b6000336104be858285610bad565b6104c9858585610c27565b60019150505b9392505050565b6001600160a01b037f00000000000000000000000000000000000000000000000000000000000000001630036105275760405162461bcd60e51b815260040161051e90611968565b60405180910390fd5b7f00000000000000000000000000000000000000000000000000000000000000006001600160a01b0316610570600080516020611cd5833981519152546001600160a01b031690565b6001600160a01b0316146105965760405162461bcd60e51b815260040161051e906119b4565b61059f81610e00565b604080516000808252602082019092526105bb91839190610e08565b50565b6000336104a48185856105d183836109e8565b6105db9190611a16565b610a89565b6105e8610f78565b6105f0610fd2565b565b6105bb3382611024565b6001600160a01b037f00000000000000000000000000000000000000000000000000000000000000001630036106445760405162461bcd60e51b815260040161051e90611968565b7f00000000000000000000000000000000000000000000000000000000000000006001600160a01b031661068d600080516020611cd5833981519152546001600160a01b031690565b6001600160a01b0316146106b35760405162461bcd60e51b815260040161051e906119b4565b6106bc82610e00565b6106c882826001610e08565b5050565b6000306001600160a01b037f0000000000000000000000000000000000000000000000000000000000000000161461076c5760405162461bcd60e51b815260206004820152603860248201527f555550535570677261646561626c653a206d757374206e6f742062652063616c60448201527f6c6564207468726f7567682064656c656761746563616c6c0000000000000000606482015260840161051e565b50600080516020611cd583398151915290565b610787610f78565b6105f0600061117e565b61079c823383610bad565b6106c88282611024565b600054610100900460ff16158080156107c65750600054600160ff909116105b806107e05750303b1580156107e0575060005460ff166001145b6108435760405162461bcd60e51b815260206004820152602e60248201527f496e697469616c697a61626c653a20636f6e747261637420697320616c72656160448201526d191e481a5b9a5d1a585b1a5e995960921b606482015260840161051e565b6000805460ff191660011790558015610866576000805461ff0019166101001790555b6108aa604051806040016040528060068152602001652a32ba3432b960d11b815250604051806040016040528060048152602001631554d11560e21b8152506111d0565b6108b2611201565b6108ba611228565b6108c2611257565b6108ca611201565b6108ed336108da6006600a611b0d565b6108e8906305f5e0ff611b1c565b611286565b80156105bb576000805461ff0019169055604051600181527f7f26b83ff96e1f2b6a682f133852f6798a09c465da95921460cefb38474024989060200160405180910390a150565b61093d610f78565b6105f0611371565b6060603780546104139061192e565b6000338161096282866109e8565b9050838110156109c25760405162461bcd60e51b815260206004820152602560248201527f45524332303a2064656372656173656420616c6c6f77616e63652062656c6f77604482015264207a65726f60d81b606482015260840161051e565b6109cf8286868403610a89565b506001949350505050565b6000336104a4818585610c27565b6001600160a01b03918216600090815260346020908152604080832093909416825291909152205490565b610a1b610f78565b6001600160a01b038116610a805760405162461bcd60e51b815260206004820152602660248201527f4f776e61626c653a206e6577206f776e657220697320746865207a65726f206160448201526564647265737360d01b606482015260840161051e565b6105bb8161117e565b6001600160a01b038316610aeb5760405162461bcd60e51b8152602060048201526024808201527f45524332303a20617070726f76652066726f6d20746865207a65726f206164646044820152637265737360e01b606482015260840161051e565b6001600160a01b038216610b4c5760405162461bcd60e51b815260206004820152602260248201527f45524332303a20617070726f766520746f20746865207a65726f206164647265604482015261737360f01b606482015260840161051e565b6001600160a01b0383811660008181526034602090815260408083209487168084529482529182902085905590518481527f8c5be1e5ebec7d5bd14f71427d1e84f3dd0314c0f7b2291e5b200ac8c7c3b925910160405180910390a3505050565b6000610bb984846109e8565b90506000198114610c215781811015610c145760405162461bcd60e51b815260206004820152601d60248201527f45524332303a20696e73756666696369656e7420616c6c6f77616e6365000000604482015260640161051e565b610c218484848403610a89565b50505050565b6001600160a01b038316610c8b5760405162461bcd60e51b815260206004820152602560248201527f45524332303a207472616e736665722066726f6d20746865207a65726f206164604482015264647265737360d81b606482015260840161051e565b6001600160a01b038216610ced5760405162461bcd60e51b815260206004820152602360248201527f45524332303a207472616e7366657220746f20746865207a65726f206164647260448201526265737360e81b606482015260840161051e565b610cf88383836113ae565b6001600160a01b03831660009081526033602052604090205481811015610d705760405162461bcd60e51b815260206004820152602660248201527f45524332303a207472616e7366657220616d6f756e7420657863656564732062604482015265616c616e636560d01b606482015260840161051e565b6001600160a01b03808516600090815260336020526040808220858503905591851681529081208054849290610da7908490611a16565b92505081905550826001600160a01b0316846001600160a01b03167fddf252ad1be2c89b69c2b068fc378daa952ba7f163c4a11628f55a4df523b3ef84604051610df391815260200190565b60405180910390a3610c21565b6105bb610f78565b7f4910fdfa16fed3260ed0e7147f7cc6da11a60208b5b9406d12a635614ffd91435460ff1615610e4057610e3b836113b6565b505050565b826001600160a01b03166352d1902d6040518163ffffffff1660e01b8152600401602060405180830381865afa925050508015610e9a575060408051601f3d908101601f19168201909252610e9791810190611b33565b60015b610efd5760405162461bcd60e51b815260206004820152602e60248201527f45524331393637557067726164653a206e657720696d706c656d656e7461746960448201526d6f6e206973206e6f74205555505360901b606482015260840161051e565b600080516020611cd58339815191528114610f6c5760405162461bcd60e51b815260206004820152602960248201527f45524331393637557067726164653a20756e737570706f727465642070726f786044820152681a58589b195555525160ba1b606482015260840161051e565b50610e3b838383611452565b60c9546001600160a01b031633146105f05760405162461bcd60e51b815260206004820181905260248201527f4f776e61626c653a2063616c6c6572206973206e6f7420746865206f776e6572604482015260640161051e565b610fda611477565b6097805460ff191690557f5db9ee0a495bf2e6ff9c91a7834c1ba4fdd244a5e8aa4e537bd38aeae4b073aa335b6040516001600160a01b03909116815260200160405180910390a1565b6001600160a01b0382166110845760405162461bcd60e51b815260206004820152602160248201527f45524332303a206275726e2066726f6d20746865207a65726f206164647265736044820152607360f81b606482015260840161051e565b611090826000836113ae565b6001600160a01b038216600090815260336020526040902054818110156111045760405162461bcd60e51b815260206004820152602260248201527f45524332303a206275726e20616d6f756e7420657863656564732062616c616e604482015261636560f01b606482015260840161051e565b6001600160a01b0383166000908152603360205260408120838303905560358054849290611133908490611b4c565b90915550506040518281526000906001600160a01b038516907fddf252ad1be2c89b69c2b068fc378daa952ba7f163c4a11628f55a4df523b3ef9060200160405180910390a3505050565b60c980546001600160a01b038381166001600160a01b0319831681179093556040519116919082907f8be0079c531659141344cd1fd0a4f28419497f9722a3daafe3b4186f6b6457e090600090a35050565b600054610100900460ff166111f75760405162461bcd60e51b815260040161051e90611b5f565b6106c882826114c0565b600054610100900460ff166105f05760405162461bcd60e51b815260040161051e90611b5f565b600054610100900460ff1661124f5760405162461bcd60e51b815260040161051e90611b5f565b6105f0611500565b600054610100900460ff1661127e5760405162461bcd60e51b815260040161051e90611b5f565b6105f0611533565b6001600160a01b0382166112dc5760405162461bcd60e51b815260206004820152601f60248201527f45524332303a206d696e7420746f20746865207a65726f206164647265737300604482015260640161051e565b6112e8600083836113ae565b80603560008282546112fa9190611a16565b90915550506001600160a01b03821660009081526033602052604081208054839290611327908490611a16565b90915550506040518181526001600160a01b038316906000907fddf252ad1be2c89b69c2b068fc378daa952ba7f163c4a11628f55a4df523b3ef9060200160405180910390a35050565b611379611563565b6097805460ff191660011790557f62e78cea01bee320cd4e420270b5ea74000d11b0c9f74754ebdbfc544b05a2586110073390565b610e3b611563565b6001600160a01b0381163b6114235760405162461bcd60e51b815260206004820152602d60248201527f455243313936373a206e657720696d706c656d656e746174696f6e206973206e60448201526c1bdd08184818dbdb9d1c9858dd609a1b606482015260840161051e565b600080516020611cd583398151915280546001600160a01b0319166001600160a01b0392909216919091179055565b61145b836115a9565b6000825111806114685750805b15610e3b57610c2183836115e9565b60975460ff166105f05760405162461bcd60e51b815260206004820152601460248201527314185d5cd8589b194e881b9bdd081c185d5cd95960621b604482015260640161051e565b600054610100900460ff166114e75760405162461bcd60e51b815260040161051e90611b5f565b60366114f38382611bf8565b506037610e3b8282611bf8565b600054610100900460ff166115275760405162461bcd60e51b815260040161051e90611b5f565b6097805460ff19169055565b600054610100900460ff1661155a5760405162461bcd60e51b815260040161051e90611b5f565b6105f03361117e565b60975460ff16156105f05760405162461bcd60e51b815260206004820152601060248201526f14185d5cd8589b194e881c185d5cd95960821b604482015260640161051e565b6115b2816113b6565b6040516001600160a01b038216907fbc7cd75a20ee27fd9adebab32041f755214dbc6bffa90cc0225b39da2e5c2d3b90600090a250565b60606001600160a01b0383163b6116515760405162461bcd60e51b815260206004820152602660248201527f416464726573733a2064656c65676174652063616c6c20746f206e6f6e2d636f6044820152651b9d1c9858dd60d21b606482015260840161051e565b600080846001600160a01b03168460405161166c9190611cb8565b600060405180830381855af49150503d80600081146116a7576040519150601f19603f3d011682016040523d82523d6000602084013e6116ac565b606091505b50915091506116d48282604051806060016040528060278152602001611cf5602791396116dd565b95945050505050565b606083156116ec5750816104cf565b8251156116fc5782518084602001fd5b8160405162461bcd60e51b815260040161051e919061173a565b60005b83811015611731578181015183820152602001611719565b50506000910152565b6020815260008251806020840152611759816040850160208701611716565b601f01601f19169190910160400192915050565b80356001600160a01b038116811461178457600080fd5b919050565b6000806040838503121561179c57600080fd5b6117a58361176d565b946020939093013593505050565b6000806000606084860312156117c857600080fd5b6117d18461176d565b92506117df6020850161176d565b9150604084013590509250925092565b60006020828403121561180157600080fd5b6104cf8261176d565b60006020828403121561181c57600080fd5b5035919050565b634e487b7160e01b600052604160045260246000fd5b6000806040838503121561184c57600080fd5b6118558361176d565b9150602083013567ffffffffffffffff8082111561187257600080fd5b818501915085601f83011261188657600080fd5b81358181111561189857611898611823565b604051601f8201601f19908116603f011681019083821181831017156118c0576118c0611823565b816040528281528860208487010111156118d957600080fd5b8260208601602083013760006020848301015280955050505050509250929050565b6000806040838503121561190e57600080fd5b6119178361176d565b91506119256020840161176d565b90509250929050565b600181811c9082168061194257607f821691505b60208210810361196257634e487b7160e01b600052602260045260246000fd5b50919050565b6020808252602c908201527f46756e6374696f6e206d7573742062652063616c6c6564207468726f7567682060408201526b19195b1959d85d1958d85b1b60a21b606082015260800190565b6020808252602c908201527f46756e6374696f6e206d7573742062652063616c6c6564207468726f7567682060408201526b6163746976652070726f787960a01b606082015260800190565b634e487b7160e01b600052601160045260246000fd5b808201808211156104aa576104aa611a00565b600181815b80851115611a64578160001904821115611a4a57611a4a611a00565b80851615611a5757918102915b93841c9390800290611a2e565b509250929050565b600082611a7b575060016104aa565b81611a88575060006104aa565b8160018114611a9e5760028114611aa857611ac4565b60019150506104aa565b60ff841115611ab957611ab9611a00565b50506001821b6104aa565b5060208310610133831016604e8410600b8410161715611ae7575081810a6104aa565b611af18383611a29565b8060001904821115611b0557611b05611a00565b029392505050565b60006104cf60ff841683611a6c565b80820281158282048414176104aa576104aa611a00565b600060208284031215611b4557600080fd5b5051919050565b818103818111156104aa576104aa611a00565b6020808252602b908201527f496e697469616c697a61626c653a20636f6e7472616374206973206e6f74206960408201526a6e697469616c697a696e6760a81b606082015260800190565b601f821115610e3b57600081815260208120601f850160051c81016020861015611bd15750805b601f850160051c820191505b81811015611bf057828155600101611bdd565b505050505050565b815167ffffffffffffffff811115611c1257611c12611823565b611c2681611c20845461192e565b84611baa565b602080601f831160018114611c5b5760008415611c435750858301515b600019600386901b1c1916600185901b178555611bf0565b600085815260208120601f198616915b82811015611c8a57888601518255948401946001909101908401611c6b565b5085821015611ca85787850151600019600388901b60f8161c191681555b5050505050600190811b01905550565b60008251611cca818460208701611716565b919091019291505056fe360894a13ba1a3210667c828492db98dca3e2076cc3735a920a3ca505d382bbc416464726573733a206c6f772d6c6576656c2064656c65676174652063616c6c206661696c6564a2646970667358221220d2e663da44ea688304156390458a1a5091ab134c9f8d8e323417da6c7b81ea4364736f6c63430008110033",
  "linkReferences": {},
  "deployedLinkReferences": {}
}