{
  "_format": "hh-sol-artifact-1",
  "contractName": "PresaleV1Upgradable",
  "sourceName": "contracts/PresaleV1Upgradable.sol",
  "abi": [
    {
      "anonymous": false,
      "inputs": [
        {
          "indexed": false,
          "internalType": "address",
          "name": "previousAdmin",
          "type": "address"
        },
        {
          "indexed": false,
          "internalType": "address",
          "name": "newAdmin",
          "type": "address"
        }
      ],
      "name": "AdminChanged",
      "type": "event"
    },
    {
      "anonymous": false,
      "inputs": [
        {
          "indexed": true,
          "internalType": "address",
          "name": "beacon",
          "type": "address"
        }
      ],
      "name": "BeaconUpgraded",
      "type": "event"
    },
    {
      "anonymous": false,
      "inputs": [
        {
          "indexed": false,
          "internalType": "uint8",
          "name": "version",
          "type": "uint8"
        }
      ],
      "name": "Initialized",
      "type": "event"
    },
    {
      "anonymous": false,
      "inputs": [
        {
          "indexed": true,
          "internalType": "address",
          "name": "previousOwner",
          "type": "address"
        },
        {
          "indexed": true,
          "internalType": "address",
          "name": "newOwner",
          "type": "address"
        }
      ],
      "name": "OwnershipTransferred",
      "type": "event"
    },
    {
      "anonymous": false,
      "inputs": [
        {
          "indexed": false,
          "internalType": "address",
          "name": "account",
          "type": "address"
        }
      ],
      "name": "Paused",
      "type": "event"
    },
    {
      "anonymous": false,
      "inputs": [
        {
          "indexed": true,
          "internalType": "address",
          "name": "to",
          "type": "address"
        },
        {
          "indexed": true,
          "internalType": "uint256",
          "name": "tokenValue",
          "type": "uint256"
        },
        {
          "indexed": true,
          "internalType": "address",
          "name": "rewardTokenContract",
          "type": "address"
        }
      ],
      "name": "RewardTokenDistributed",
      "type": "event"
    },
    {
      "anonymous": false,
      "inputs": [
        {
          "indexed": true,
          "internalType": "address",
          "name": "from",
          "type": "address"
        },
        {
          "indexed": true,
          "internalType": "uint256",
          "name": "tokenValue",
          "type": "uint256"
        },
        {
          "indexed": true,
          "internalType": "uint256",
          "name": "ethValue",
          "type": "uint256"
        },
        {
          "indexed": false,
          "internalType": "string",
          "name": "currency",
          "type": "string"
        }
      ],
      "name": "TokenPurchased",
      "type": "event"
    },
    {
      "anonymous": false,
      "inputs": [
        {
          "indexed": false,
          "internalType": "address",
          "name": "account",
          "type": "address"
        }
      ],
      "name": "Unpaused",
      "type": "event"
    },
    {
      "anonymous": false,
      "inputs": [
        {
          "indexed": true,
          "internalType": "address",
          "name": "implementation",
          "type": "address"
        }
      ],
      "name": "Upgraded",
      "type": "event"
    },
    {
      "inputs": [
        {
          "internalType": "address",
          "name": "_referrer",
          "type": "address"
        },
        {
          "internalType": "uint256",
          "name": "_duration",
          "type": "uint256"
        }
      ],
      "name": "BuyWithETH",
      "outputs": [],
      "stateMutability": "payable",
      "type": "function"
    },
    {
      "inputs": [
        {
          "internalType": "address",
          "name": "_referrer",
          "type": "address"
        },
        {
          "internalType": "uint256",
          "name": "_value",
          "type": "uint256"
        },
        {
          "internalType": "uint256",
          "name": "_duration",
          "type": "uint256"
        }
      ],
      "name": "BuyWithUSD",
      "outputs": [],
      "stateMutability": "nonpayable",
      "type": "function"
    },
    {
      "inputs": [],
      "name": "getETH_USDPrice",
      "outputs": [
        {
          "internalType": "uint256",
          "name": "ETH_USD",
          "type": "uint256"
        }
      ],
      "stateMutability": "view",
      "type": "function"
    },
    {
      "inputs": [],
      "name": "getPresaleAnalystics",
      "outputs": [
        {
          "internalType": "uint256",
          "name": "tokenSold",
          "type": "uint256"
        },
        {
          "internalType": "uint256",
          "name": "ethRaised",
          "type": "uint256"
        },
        {
          "internalType": "uint256",
          "name": "USDRaised",
          "type": "uint256"
        }
      ],
      "stateMutability": "view",
      "type": "function"
    },
    {
      "inputs": [],
      "name": "getPriceFeedOracleAddress",
      "outputs": [
        {
          "internalType": "address",
          "name": "",
          "type": "address"
        }
      ],
      "stateMutability": "view",
      "type": "function"
    },
    {
      "inputs": [],
      "name": "getPricePerUSD",
      "outputs": [
        {
          "internalType": "uint256",
          "name": "",
          "type": "uint256"
        }
      ],
      "stateMutability": "view",
      "type": "function"
    },
    {
      "inputs": [],
      "name": "getReferralContract",
      "outputs": [
        {
          "internalType": "address",
          "name": "",
          "type": "address"
        }
      ],
      "stateMutability": "view",
      "type": "function"
    },
    {
      "inputs": [],
      "name": "getRewardOwners",
      "outputs": [
        {
          "internalType": "address",
          "name": "",
          "type": "address"
        }
      ],
      "stateMutability": "view",
      "type": "function"
    },
    {
      "inputs": [],
      "name": "getRewardPerUSD",
      "outputs": [
        {
          "internalType": "uint256",
          "name": "",
          "type": "uint256"
        }
      ],
      "stateMutability": "view",
      "type": "function"
    },
    {
      "inputs": [],
      "name": "getRewardTokenContract",
      "outputs": [
        {
          "internalType": "address",
          "name": "tokenAddress",
          "type": "address"
        },
        {
          "internalType": "string",
          "name": "name",
          "type": "string"
        },
        {
          "internalType": "uint256",
          "name": "decimals",
          "type": "uint256"
        },
        {
          "internalType": "uint256",
          "name": "totalSupply",
          "type": "uint256"
        }
      ],
      "stateMutability": "view",
      "type": "function"
    },
    {
      "inputs": [],
      "name": "getStakingContract",
      "outputs": [
        {
          "internalType": "address",
          "name": "",
          "type": "address"
        }
      ],
      "stateMutability": "view",
      "type": "function"
    },
    {
      "inputs": [],
      "name": "getTokenContract",
      "outputs": [
        {
          "internalType": "address",
          "name": "tokenAddress",
          "type": "address"
        },
        {
          "internalType": "string",
          "name": "name",
          "type": "string"
        },
        {
          "internalType": "uint256",
          "name": "decimals",
          "type": "uint256"
        },
        {
          "internalType": "uint256",
          "name": "totalSupply",
          "type": "uint256"
        }
      ],
      "stateMutability": "view",
      "type": "function"
    },
    {
      "inputs": [],
      "name": "getTokenSeller",
      "outputs": [
        {
          "internalType": "address",
          "name": "",
          "type": "address"
        }
      ],
      "stateMutability": "view",
      "type": "function"
    },
    {
      "inputs": [],
      "name": "getUSDContract",
      "outputs": [
        {
          "internalType": "address",
          "name": "USDAddress",
          "type": "address"
        },
        {
          "internalType": "string",
          "name": "USDName",
          "type": "string"
        },
        {
          "internalType": "uint256",
          "name": "USDDecimals",
          "type": "uint256"
        },
        {
          "internalType": "uint256",
          "name": "USDSupply",
          "type": "uint256"
        }
      ],
      "stateMutability": "view",
      "type": "function"
    },
    {
      "inputs": [],
      "name": "initialize",
      "outputs": [],
      "stateMutability": "nonpayable",
      "type": "function"
    },
    {
      "inputs": [],
      "name": "isEnabled",
      "outputs": [
        {
          "internalType": "bool",
          "name": "stake",
          "type": "bool"
        },
        {
          "internalType": "bool",
          "name": "referral",
          "type": "bool"
        },
        {
          "internalType": "bool",
          "name": "reward",
          "type": "bool"
        }
      ],
      "stateMutability": "view",
      "type": "function"
    },
    {
      "inputs": [],
      "name": "minContribution",
      "outputs": [
        {
          "internalType": "uint256",
          "name": "minContETH",
          "type": "uint256"
        },
        {
          "internalType": "uint256",
          "name": "minContUSD",
          "type": "uint256"
        }
      ],
      "stateMutability": "view",
      "type": "function"
    },
    {
      "inputs": [],
      "name": "owner",
      "outputs": [
        {
          "internalType": "address",
          "name": "",
          "type": "address"
        }
      ],
      "stateMutability": "view",
      "type": "function"
    },
    {
      "inputs": [],
      "name": "pauseAdmin",
      "outputs": [],
      "stateMutability": "nonpayable",
      "type": "function"
    },
    {
      "inputs": [],
      "name": "paused",
      "outputs": [
        {
          "internalType": "bool",
          "name": "",
          "type": "bool"
        }
      ],
      "stateMutability": "view",
      "type": "function"
    },
    {
      "inputs": [],
      "name": "proxiableUUID",
      "outputs": [
        {
          "internalType": "bytes32",
          "name": "",
          "type": "bytes32"
        }
      ],
      "stateMutability": "view",
      "type": "function"
    },
    {
      "inputs": [],
      "name": "renounceOwnership",
      "outputs": [],
      "stateMutability": "nonpayable",
      "type": "function"
    },
    {
      "inputs": [
        {
          "internalType": "address",
          "name": "_address",
          "type": "address"
        },
        {
          "internalType": "uint256",
          "name": "_value",
          "type": "uint256"
        }
      ],
      "name": "sendNativeFundsAdmin",
      "outputs": [],
      "stateMutability": "nonpayable",
      "type": "function"
    },
    {
      "inputs": [
        {
          "internalType": "bool",
          "name": "_bool",
          "type": "bool"
        }
      ],
      "name": "setBuyAndStake",
      "outputs": [
        {
          "internalType": "bool",
          "name": "",
          "type": "bool"
        }
      ],
      "stateMutability": "nonpayable",
      "type": "function"
    },
    {
      "inputs": [
        {
          "internalType": "uint256",
          "name": "_value",
          "type": "uint256"
        }
      ],
      "name": "setMinContributionUSDAdmin",
      "outputs": [
        {
          "internalType": "bool",
          "name": "",
          "type": "bool"
        }
      ],
      "stateMutability": "nonpayable",
      "type": "function"
    },
    {
      "inputs": [
        {
          "internalType": "bool",
          "name": "_bool",
          "type": "bool"
        }
      ],
      "name": "setPayReferralAdmin",
      "outputs": [
        {
          "internalType": "bool",
          "name": "",
          "type": "bool"
        }
      ],
      "stateMutability": "nonpayable",
      "type": "function"
    },
    {
      "inputs": [
        {
          "internalType": "bool",
          "name": "_bool",
          "type": "bool"
        }
      ],
      "name": "setPayRewardTokensAdmin",
      "outputs": [],
      "stateMutability": "nonpayable",
      "type": "function"
    },
    {
      "inputs": [
        {
          "internalType": "uint256",
          "name": "_value",
          "type": "uint256"
        }
      ],
      "name": "setPricePerUSDAdmin",
      "outputs": [
        {
          "internalType": "bool",
          "name": "",
          "type": "bool"
        }
      ],
      "stateMutability": "nonpayable",
      "type": "function"
    },
    {
      "inputs": [
        {
          "internalType": "address",
          "name": "_address",
          "type": "address"
        }
      ],
      "name": "setReferralContract",
      "outputs": [
        {
          "internalType": "address",
          "name": "",
          "type": "address"
        }
      ],
      "stateMutability": "nonpayable",
      "type": "function"
    },
    {
      "inputs": [
        {
          "internalType": "address",
          "name": "_address",
          "type": "address"
        }
      ],
      "name": "setRewardOwner",
      "outputs": [],
      "stateMutability": "nonpayable",
      "type": "function"
    },
    {
      "inputs": [
        {
          "internalType": "uint256",
          "name": "_value",
          "type": "uint256"
        }
      ],
      "name": "setRewardPerUSDAdmin",
      "outputs": [
        {
          "internalType": "bool",
          "name": "",
          "type": "bool"
        }
      ],
      "stateMutability": "nonpayable",
      "type": "function"
    },
    {
      "inputs": [
        {
          "internalType": "address",
          "name": "_tokenContractAddress",
          "type": "address"
        }
      ],
      "name": "setRewardTokenContract",
      "outputs": [],
      "stateMutability": "nonpayable",
      "type": "function"
    },
    {
      "inputs": [
        {
          "internalType": "address",
          "name": "_address",
          "type": "address"
        }
      ],
      "name": "setStakingContract",
      "outputs": [
        {
          "internalType": "bool",
          "name": "",
          "type": "bool"
        }
      ],
      "stateMutability": "nonpayable",
      "type": "function"
    },
    {
      "inputs": [
        {
          "internalType": "address",
          "name": "_address",
          "type": "address"
        }
      ],
      "name": "setTokenContractAdmin",
      "outputs": [
        {
          "internalType": "bool",
          "name": "",
          "type": "bool"
        }
      ],
      "stateMutability": "nonpayable",
      "type": "function"
    },
    {
      "inputs": [
        {
          "internalType": "address",
          "name": "_address",
          "type": "address"
        }
      ],
      "name": "setTokenSeller",
      "outputs": [],
      "stateMutability": "nonpayable",
      "type": "function"
    },
    {
      "inputs": [
        {
          "internalType": "address",
          "name": "_address",
          "type": "address"
        }
      ],
      "name": "setUSDContractAdmin",
      "outputs": [
        {
          "internalType": "bool",
          "name": "",
          "type": "bool"
        }
      ],
      "stateMutability": "nonpayable",
      "type": "function"
    },
    {
      "inputs": [
        {
          "internalType": "address",
          "name": "_address",
          "type": "address"
        }
      ],
      "name": "setpriceFeedOracleAddressAdmin",
      "outputs": [
        {
          "internalType": "bool",
          "name": "",
          "type": "bool"
        }
      ],
      "stateMutability": "nonpayable",
      "type": "function"
    },
    {
      "inputs": [
        {
          "internalType": "address",
          "name": "newOwner",
          "type": "address"
        }
      ],
      "name": "transferOwnership",
      "outputs": [],
      "stateMutability": "nonpayable",
      "type": "function"
    },
    {
      "inputs": [],
      "name": "unpauseAdmin",
      "outputs": [],
      "stateMutability": "nonpayable",
      "type": "function"
    },
    {
      "inputs": [
        {
          "internalType": "address",
          "name": "newImplementation",
          "type": "address"
        }
      ],
      "name": "upgradeTo",
      "outputs": [],
      "stateMutability": "nonpayable",
      "type": "function"
    },
    {
      "inputs": [
        {
          "internalType": "address",
          "name": "newImplementation",
          "type": "address"
        },
        {
          "internalType": "bytes",
          "name": "data",
          "type": "bytes"
        }
      ],
      "name": "upgradeToAndCall",
      "outputs": [],
      "stateMutability": "payable",
      "type": "function"
    },
    {
      "inputs": [],
      "name": "withdrawAdmin",
      "outputs": [],
      "stateMutability": "nonpayable",
      "type": "function"
    },
    {
      "inputs": [
        {
          "internalType": "address",
          "name": "_tokenAddress",
          "type": "address"
        },
        {
          "internalType": "uint256",
          "name": "_value",
          "type": "uint256"
        }
      ],
      "name": "withdrawTokenAdmin",
      "outputs": [],
      "stateMutability": "nonpayable",
      "type": "function"
    },
    {
      "stateMutability": "payable",
      "type": "receive"
    }
  ],
  "bytecode": "0x60a06040523060805234801561001457600080fd5b50608051612ce561004c60003960008181610a9801528181610ae101528181610bcc01528181610c0c0152610c9f0152612ce56000f3fe6080604052600436106102605760003560e01c80636aa633b611610144578063a5bac943116100b6578063d42cedfb1161007a578063d42cedfb146106fd578063db5184e61461071d578063dc245e1214610732578063e9bd186d14610752578063f067c19914610772578063f2fde38b1461078857600080fd5b8063a5bac9431461065e578063aaffadf314610673578063ac6f6a2d1461069d578063b68e1e46146106bd578063c94d6b1f146106dd57600080fd5b8063857d22ef11610108578063857d22ef146105ad5780638da5cb5b146105cd5780638e68dce4146105eb57806394a73f591461060957806398094ba11461061e5780639dd373b91461063e57600080fd5b80636aa633b614610501578063715018a6146105455780637a22393b1461055a5780637ce1757d1461057a5780638129fc1c1461059857600080fd5b80633659cfe6116101dd5780634f1ef286116101a15780634f1ef2861461047a57806352d1902d1461048d57806357526c33146104a25780635845394b146104b55780635c975abb146104d457806365eb204d146104ec57600080fd5b80633659cfe6146103c657806338f992c9146103e65780633958b8441461041a578063472d561d1461043a5780634809b4291461045a57600080fd5b80631cecbe9a116102245780631cecbe9a1461032e57806323442c601461034e57806328b7bede1461036c5780632f11d6531461039157806334dcfa8c146103a657600080fd5b806304c76af01461026c57806306ad5a471461028357806308fcfbbe146102c057806310bd7ab5146102e057806314d09b941461031057600080fd5b3661026757005b600080fd5b34801561027857600080fd5b506102816107a8565b005b34801561028f57600080fd5b506102a361029e366004612599565b6107df565b6040516001600160a01b0390911681526020015b60405180910390f35b3480156102cc57600080fd5b506102816102db366004612599565b61080c565b3480156102ec57600080fd5b506103006102fb3660046125b6565b610837565b60405190151581526020016102b7565b34801561031c57600080fd5b5060fb546001600160a01b03166102a3565b34801561033a57600080fd5b506102816103493660046125cf565b61084b565b34801561035a57600080fd5b5060ff546001600160a01b03166102a3565b34801561037857600080fd5b5061038161088e565b6040516102b7949392919061264b565b34801561039d57600080fd5b50610281610a03565b3480156103b257600080fd5b506102816103c13660046125cf565b610a15565b3480156103d257600080fd5b506102816103e1366004612599565b610a8e565b3480156103f257600080fd5b50610106546101075461010854604080519384526020840192909252908201526060016102b7565b34801561042657600080fd5b50610281610435366004612690565b610b73565b34801561044657600080fd5b50610103545b6040519081526020016102b7565b34801561046657600080fd5b50610281610475366004612599565b610b98565b61028161048836600461271c565b610bc2565b34801561049957600080fd5b5061044c610c92565b6102816104b03660046125cf565b610d45565b3480156104c157600080fd5b50610102546001600160a01b03166102a3565b3480156104e057600080fd5b5060655460ff16610300565b3480156104f857600080fd5b5061038161109e565b34801561050d57600080fd5b50610109546040805160ff808416151582526101008404811615156020830152620100009093049092161515908201526060016102b7565b34801561055157600080fd5b506102816111ea565b34801561056657600080fd5b50610281610575366004612599565b6111fc565b34801561058657600080fd5b5060fc546001600160a01b03166102a3565b3480156105a457600080fd5b50610281611226565b3480156105b957600080fd5b506103006105c8366004612599565b61141b565b3480156105d957600080fd5b506033546001600160a01b03166102a3565b3480156105f757600080fd5b5060fe546001600160a01b03166102a3565b34801561061557600080fd5b5061044c61144b565b34801561062a57600080fd5b50610300610639366004612690565b6114e3565b34801561064a57600080fd5b50610300610659366004612599565b611500565b34801561066a57600080fd5b5061038161152f565b34801561067f57600080fd5b5061068861167b565b604080519283526020830191909152016102b7565b3480156106a957600080fd5b506103006106b8366004612599565b611692565b3480156106c957600080fd5b506103006106d8366004612599565b6116c2565b3480156106e957600080fd5b506103006106f83660046125b6565b6116f1565b34801561070957600080fd5b506102816107183660046127af565b611705565b34801561072957600080fd5b506102816119a7565b34801561073e57600080fd5b5061030061074d3660046125b6565b6119b7565b34801561075e57600080fd5b5061030061076d366004612690565b6119cb565b34801561077e57600080fd5b506101045461044c565b34801561079457600080fd5b506102816107a3366004612599565b6119f3565b6107b0611a69565b60405133904780156108fc02916000818181858888f193505050501580156107dc573d6000803e3d6000fd5b50565b60006107e9611a69565b5060ff80546001600160a01b0319166001600160a01b038316179055805b919050565b610814611a69565b61010180546001600160a01b0319166001600160a01b0392909216919091179055565b6000610841611a69565b5061010455600190565b610853611a69565b6040516001600160a01b0383169082156108fc029083906000818181858888f19350505050158015610889573d6000803e3d6000fd5b505050565b60fd54604080516306fdde0360e01b815290516001600160a01b0390921691606091600091829185916306fdde039160048082019286929091908290030181865afa1580156108e1573d6000803e3d6000fd5b505050506040513d6000823e601f3d908101601f1916820160405261090991908101906127e4565b925060fd60009054906101000a90046001600160a01b03166001600160a01b031663313ce5676040518163ffffffff1660e01b8152600401602060405180830381865afa15801561095e573d6000803e3d6000fd5b505050506040513d601f19601f820116820180604052508101906109829190612852565b915060fd60009054906101000a90046001600160a01b03166001600160a01b03166318160ddd6040518163ffffffff1660e01b8152600401602060405180830381865afa1580156109d7573d6000803e3d6000fd5b505050506040513d601f19601f820116820180604052508101906109fb9190612852565b905090919293565b610a0b611a69565b610a13611ac3565b565b610a1d611a69565b60405163a9059cbb60e01b8152336004820152602481018290526001600160a01b0383169063a9059cbb906044016020604051808303816000875af1158015610a6a573d6000803e3d6000fd5b505050506040513d601f19601f82011682018060405250810190610889919061286b565b6001600160a01b037f0000000000000000000000000000000000000000000000000000000000000000163003610adf5760405162461bcd60e51b8152600401610ad690612888565b60405180910390fd5b7f00000000000000000000000000000000000000000000000000000000000000006001600160a01b0316610b28600080516020612c69833981519152546001600160a01b031690565b6001600160a01b031614610b4e5760405162461bcd60e51b8152600401610ad6906128d4565b610b5781611b1d565b604080516000808252602082019092526107dc91839190611b25565b610b7b611a69565b6101098054911515620100000262ff000019909216919091179055565b610ba0611a69565b60fc80546001600160a01b0319166001600160a01b0392909216919091179055565b6001600160a01b037f0000000000000000000000000000000000000000000000000000000000000000163003610c0a5760405162461bcd60e51b8152600401610ad690612888565b7f00000000000000000000000000000000000000000000000000000000000000006001600160a01b0316610c53600080516020612c69833981519152546001600160a01b031690565b6001600160a01b031614610c795760405162461bcd60e51b8152600401610ad6906128d4565b610c8282611b1d565b610c8e82826001611b25565b5050565b6000306001600160a01b037f00000000000000000000000000000000000000000000000000000000000000001614610d325760405162461bcd60e51b815260206004820152603860248201527f555550535570677261646561626c653a206d757374206e6f742062652063616c60448201527f6c6564207468726f7567682064656c656761746563616c6c00000000000000006064820152608401610ad6565b50600080516020612c6983398151915290565b610d4d611c90565b3334610d57611cd6565b811015610db95760405162461bcd60e51b815260206004820152602a60248201527f4574682056616c7565206973206c657373207468616e206d696e436f6e747269604482015269313aba34b7b722aa241760b11b6064820152608401610ad6565b6000610dc88261010354611da7565b90506000610dd98361010454611da7565b6101095490915060ff1615610df957610df3848387611eef565b50610e17565b60fd5460fb54610e17916001600160a01b0390811691168685611f78565b61010954610100900460ff1615610ef35760ff546001600160a01b03166108fc610e49610e42611ffa565b8690612082565b6040518115909202916000818181858888f19350505050158015610e71573d6000803e3d6000fd5b5060ff54604051631eb714b160e31b8152600481018590526001600160a01b03868116602483015288811660448301529091169063f5b8a588906064016020604051808303816000875af1158015610ecd573d6000803e3d6000fd5b505050506040513d601f19601f82011682018060405250810190610ef1919061286b565b505b6101095462010000900460ff1615611035576101015460fc5460ff546040516310ed3afd60e21b81526001600160a01b038881166004830152610f899481169381169216906343b4ebf4906024015b602060405180830381865afa158015610f5f573d6000803e3d6000fd5b505050506040513d601f19601f82011682018060405250810190610f839190612920565b84611f78565b6101015460ff546040516310ed3afd60e21b81526001600160a01b03878116600483015292831692849216906343b4ebf490602401602060405180830381865afa158015610fdb573d6000803e3d6000fd5b505050506040513d601f19601f82011682018060405250810190610fff9190612920565b6001600160a01b03167fdec9451ea7f92de23239ac3b71d0a2c5d5bae68af900a8b74100c866d159f41960405160405180910390a45b60fb546040516001600160a01b03909116904780156108fc02916000818181858888f1935050505015801561106e573d6000803e3d6000fd5b506110968483856040518060400160405280600381526020016208aa8960eb1b815250612097565b505050505050565b61010154604080516306fdde0360e01b815290516001600160a01b0390921691606091600091829185916306fdde039160048082019286929091908290030181865afa1580156110f2573d6000803e3d6000fd5b505050506040513d6000823e601f3d908101601f1916820160405261111a91908101906127e4565b925061010160009054906101000a90046001600160a01b03166001600160a01b031663313ce5676040518163ffffffff1660e01b8152600401602060405180830381865afa158015611170573d6000803e3d6000fd5b505050506040513d601f19601f820116820180604052508101906111949190612852565b915061010160009054906101000a90046001600160a01b03166001600160a01b03166318160ddd6040518163ffffffff1660e01b8152600401602060405180830381865afa1580156109d7573d6000803e3d6000fd5b6111f2611a69565b610a136000612114565b611204611a69565b60fb80546001600160a01b0319166001600160a01b0392909216919091179055565b600054610100900460ff16158080156112465750600054600160ff909116105b806112605750303b158015611260575060005460ff166001145b6112c35760405162461bcd60e51b815260206004820152602e60248201527f496e697469616c697a61626c653a20636f6e747261637420697320616c72656160448201526d191e481a5b9a5d1a585b1a5e995960921b6064820152608401610ad6565b6000805460ff1916600117905580156112e6576000805461ff0019166101001790555b6101028054732514895c72f50d8bd4b4f9b1110f0d6bd2c975266001600160a01b031991821617909155610100805473bfa0e2f4b2676c62885b1033670c71cdefd975fb90831617905560fd805473ada2dec22f0796f9b4a538f51b6ac868d449c143908316811790915561010180548316909117905560fb8054734345492b7bf4967e8ff7b3d0858945560391eab1908316811790915560fc805490921617905568049b9ca9a694340000610103556775f610f70ed2000061010455610109805462ffffff1916620101011790556000610105556113c3612166565b6113cb612195565b6113d36121c4565b80156107dc576000805461ff0019169055604051600181527f7f26b83ff96e1f2b6a682f133852f6798a09c465da95921460cefb38474024989060200160405180910390a150565b6000611425611a69565b5061010280546001600160a01b0383166001600160a01b03199091161790556001919050565b60008061010260009054906101000a90046001600160a01b03166001600160a01b031663feaf968c6040518163ffffffff1660e01b815260040160a060405180830381865afa1580156114a2573d6000803e3d6000fd5b505050506040513d601f19601f820116820180604052508101906114c69190612957565b505050915050806402540be4006114dd91906129bd565b91505090565b60006114ed611a69565b50610109805460ff191682151517905590565b600061150a611a69565b5060fe80546001600160a01b0383166001600160a01b03199091161790556001919050565b61010054604080516306fdde0360e01b815290516001600160a01b0390921691606091600091829185916306fdde039160048082019286929091908290030181865afa158015611583573d6000803e3d6000fd5b505050506040513d6000823e601f3d908101601f191682016040526115ab91908101906127e4565b925061010060009054906101000a90046001600160a01b03166001600160a01b031663313ce5676040518163ffffffff1660e01b8152600401602060405180830381865afa158015611601573d6000803e3d6000fd5b505050506040513d601f19601f820116820180604052508101906116259190612852565b915061010060009054906101000a90046001600160a01b03166001600160a01b03166318160ddd6040518163ffffffff1660e01b8152600401602060405180830381865afa1580156109d7573d6000803e3d6000fd5b600080611686611cd6565b91506101055490509091565b600061169c611a69565b5061010080546001600160a01b0383166001600160a01b03199091161790556001919050565b60006116cc611a69565b5060fd80546001600160a01b0383166001600160a01b03199091161790556001919050565b60006116fb611a69565b5061010555600190565b61170d611c90565b6101055482101561176b5760405162461bcd60e51b815260206004820152602260248201527f5553442076616c7565206c657373207468656e206d696e206275792076616c75604482015261329760f11b6064820152608401610ad6565b6000339050600061177f84610103546121eb565b9050600061179085610104546121eb565b6101005460fb549192506117b3916001600160a01b039182169186911688611f78565b6101095460ff16156117d0576117ca838386611eef565b506117ee565b60fd5460fb546117ee916001600160a01b0390811691168585611f78565b61010954610100900460ff16156118805760ff54604051635188f1e160e01b8152600481018790526001600160a01b038581166024830152888116604483015290911690635188f1e1906064016020604051808303816000875af115801561185a573d6000803e3d6000fd5b505050506040513d601f19601f8201168201806040525081019061187e919061286b565b505b6101095462010000900460ff161561197f576101015460fc5460ff546040516310ed3afd60e21b81526001600160a01b0387811660048301526118d39481169381169216906343b4ebf490602401610f42565b6101015460ff546040516310ed3afd60e21b81526001600160a01b03868116600483015292831692849216906343b4ebf490602401602060405180830381865afa158015611925573d6000803e3d6000fd5b505050506040513d601f19601f820116820180604052508101906119499190612920565b6001600160a01b03167fdec9451ea7f92de23239ac3b71d0a2c5d5bae68af900a8b74100c866d159f41960405160405180910390a45b611096838387604051806040016040528060048152602001631554d11560e21b815250612097565b6119af611a69565b610a13612279565b60006119c1611a69565b5061010355600190565b60006119d5611a69565b5061010980548215156101000261ff00199091161790556001919050565b6119fb611a69565b6001600160a01b038116611a605760405162461bcd60e51b815260206004820152602660248201527f4f776e61626c653a206e6577206f776e657220697320746865207a65726f206160448201526564647265737360d01b6064820152608401610ad6565b6107dc81612114565b6033546001600160a01b03163314610a135760405162461bcd60e51b815260206004820181905260248201527f4f776e61626c653a2063616c6c6572206973206e6f7420746865206f776e65726044820152606401610ad6565b611acb611c90565b6065805460ff191660011790557f62e78cea01bee320cd4e420270b5ea74000d11b0c9f74754ebdbfc544b05a258611b003390565b6040516001600160a01b03909116815260200160405180910390a1565b6107dc611a69565b7f4910fdfa16fed3260ed0e7147f7cc6da11a60208b5b9406d12a635614ffd91435460ff1615611b5857610889836122b2565b826001600160a01b03166352d1902d6040518163ffffffff1660e01b8152600401602060405180830381865afa925050508015611bb2575060408051601f3d908101601f19168201909252611baf91810190612852565b60015b611c155760405162461bcd60e51b815260206004820152602e60248201527f45524331393637557067726164653a206e657720696d706c656d656e7461746960448201526d6f6e206973206e6f74205555505360901b6064820152608401610ad6565b600080516020612c698339815191528114611c845760405162461bcd60e51b815260206004820152602960248201527f45524331393637557067726164653a20756e737570706f727465642070726f786044820152681a58589b195555525160ba1b6064820152608401610ad6565b5061088983838361234e565b60655460ff1615610a135760405162461bcd60e51b815260206004820152601060248201526f14185d5cd8589b194e881c185d5cd95960821b6044820152606401610ad6565b600061010554600003611ce95750600090565b6000611cf361144b565b905060006101055482611d0691906129d4565b90508060fd60009054906101000a90046001600160a01b03166001600160a01b031663313ce5676040518163ffffffff1660e01b8152600401602060405180830381865afa158015611d5c573d6000803e3d6000fd5b505050506040513d601f19601f82011682018060405250810190611d809190612852565b611d8b90600a612ada565b611d969060016129bd565b611da091906129d4565b9250505090565b600080611db261144b565b9050600060fd60009054906101000a90046001600160a01b03166001600160a01b031663313ce5676040518163ffffffff1660e01b8152600401602060405180830381865afa158015611e09573d6000803e3d6000fd5b505050506040513d601f19601f82011682018060405250810190611e2d9190612852565b611e3890600a612ada565b611e4283876129bd565b611e4c91906129d4565b9050611e5884826129bd565b925060fd60009054906101000a90046001600160a01b03166001600160a01b031663313ce5676040518163ffffffff1660e01b8152600401602060405180830381865afa158015611ead573d6000803e3d6000fd5b505050506040513d601f19601f82011682018060405250810190611ed19190612852565b611edc90600a612ada565b611ee690846129d4565b95945050505050565b60fe5460405163018864d960e51b81526001600160a01b0385811660048301526024820185905260448201849052600092169063310c9b20906064016020604051808303816000875af1158015611f4a573d6000803e3d6000fd5b505050506040513d601f19601f82011682018060405250810190611f6e919061286b565b90505b9392505050565b6040516323b872dd60e01b81526001600160a01b0384811660048301528381166024830152604482018390528516906323b872dd906064016020604051808303816000875af1158015611fcf573d6000803e3d6000fd5b505050506040513d601f19601f82011682018060405250810190611ff3919061286b565b5050505050565b60008060ff60009054906101000a90046001600160a01b03166001600160a01b031663918a54db6040518163ffffffff1660e01b8152600401600060405180830381865afa158015612050573d6000803e3d6000fd5b505050506040513d6000823e601f3d908101601f191682016040526120789190810190612b66565b5090949350505050565b600061208e82846129d4565b90505b92915050565b8261010660008282546120aa9190612bdb565b925050819055508161010760008282546120c49190612bdb565b925050819055508183856001600160a01b03167f4ed8f3d1ed53b91a72ec0150f2643e443830cc7515a0b4111db52c15cd8119e6846040516121069190612bee565b60405180910390a450505050565b603380546001600160a01b038381166001600160a01b0319831681179093556040519116919082907f8be0079c531659141344cd1fd0a4f28419497f9722a3daafe3b4186f6b6457e090600090a35050565b600054610100900460ff1661218d5760405162461bcd60e51b8152600401610ad690612c01565b610a13612379565b600054610100900460ff166121bc5760405162461bcd60e51b8152600401610ad690612c01565b610a136123ac565b600054610100900460ff16610a135760405162461bcd60e51b8152600401610ad690612c01565b610100546040805163313ce56760e01b815290516000926001600160a01b03169163313ce5679160048083019260209291908290030181865afa158015612236573d6000803e3d6000fd5b505050506040513d601f19601f8201168201806040525081019061225a9190612852565b61226590600a612ada565b61226f83856129bd565b61208e91906129d4565b6122816123dc565b6065805460ff191690557f5db9ee0a495bf2e6ff9c91a7834c1ba4fdd244a5e8aa4e537bd38aeae4b073aa33611b00565b6001600160a01b0381163b61231f5760405162461bcd60e51b815260206004820152602d60248201527f455243313936373a206e657720696d706c656d656e746174696f6e206973206e60448201526c1bdd08184818dbdb9d1c9858dd609a1b6064820152608401610ad6565b600080516020612c6983398151915280546001600160a01b0319166001600160a01b0392909216919091179055565b61235783612425565b6000825111806123645750805b15610889576123738383612465565b50505050565b600054610100900460ff166123a05760405162461bcd60e51b8152600401610ad690612c01565b6065805460ff19169055565b600054610100900460ff166123d35760405162461bcd60e51b8152600401610ad690612c01565b610a1333612114565b60655460ff16610a135760405162461bcd60e51b815260206004820152601460248201527314185d5cd8589b194e881b9bdd081c185d5cd95960621b6044820152606401610ad6565b61242e816122b2565b6040516001600160a01b038216907fbc7cd75a20ee27fd9adebab32041f755214dbc6bffa90cc0225b39da2e5c2d3b90600090a250565b60606001600160a01b0383163b6124cd5760405162461bcd60e51b815260206004820152602660248201527f416464726573733a2064656c65676174652063616c6c20746f206e6f6e2d636f6044820152651b9d1c9858dd60d21b6064820152608401610ad6565b600080846001600160a01b0316846040516124e89190612c4c565b600060405180830381855af49150503d8060008114612523576040519150601f19603f3d011682016040523d82523d6000602084013e612528565b606091505b5091509150611ee68282604051806060016040528060278152602001612c89602791396060831561255a575081611f71565b82511561256a5782518084602001fd5b8160405162461bcd60e51b8152600401610ad69190612bee565b6001600160a01b03811681146107dc57600080fd5b6000602082840312156125ab57600080fd5b8135611f7181612584565b6000602082840312156125c857600080fd5b5035919050565b600080604083850312156125e257600080fd5b82356125ed81612584565b946020939093013593505050565b60005b838110156126165781810151838201526020016125fe565b50506000910152565b600081518084526126378160208601602086016125fb565b601f01601f19169290920160200192915050565b6001600160a01b038516815260806020820181905260009061266f9083018661261f565b6040830194909452506060015292915050565b80151581146107dc57600080fd5b6000602082840312156126a257600080fd5b8135611f7181612682565b634e487b7160e01b600052604160045260246000fd5b604051601f8201601f1916810167ffffffffffffffff811182821017156126ec576126ec6126ad565b604052919050565b600067ffffffffffffffff82111561270e5761270e6126ad565b50601f01601f191660200190565b6000806040838503121561272f57600080fd5b823561273a81612584565b9150602083013567ffffffffffffffff81111561275657600080fd5b8301601f8101851361276757600080fd5b803561277a612775826126f4565b6126c3565b81815286602083850101111561278f57600080fd5b816020840160208301376000602083830101528093505050509250929050565b6000806000606084860312156127c457600080fd5b83356127cf81612584565b95602085013595506040909401359392505050565b6000602082840312156127f657600080fd5b815167ffffffffffffffff81111561280d57600080fd5b8201601f8101841361281e57600080fd5b805161282c612775826126f4565b81815285602083850101111561284157600080fd5b611ee68260208301602086016125fb565b60006020828403121561286457600080fd5b5051919050565b60006020828403121561287d57600080fd5b8151611f7181612682565b6020808252602c908201527f46756e6374696f6e206d7573742062652063616c6c6564207468726f7567682060408201526b19195b1959d85d1958d85b1b60a21b606082015260800190565b6020808252602c908201527f46756e6374696f6e206d7573742062652063616c6c6564207468726f7567682060408201526b6163746976652070726f787960a01b606082015260800190565b60006020828403121561293257600080fd5b8151611f7181612584565b805169ffffffffffffffffffff8116811461080757600080fd5b600080600080600060a0868803121561296f57600080fd5b6129788661293d565b945060208601519350604086015192506060860151915061299b6080870161293d565b90509295509295909350565b634e487b7160e01b600052601160045260246000fd5b8082028115828204841417612091576120916129a7565b6000826129f157634e487b7160e01b600052601260045260246000fd5b500490565b600181815b80851115612a31578160001904821115612a1757612a176129a7565b80851615612a2457918102915b93841c93908002906129fb565b509250929050565b600082612a4857506001612091565b81612a5557506000612091565b8160018114612a6b5760028114612a7557612a91565b6001915050612091565b60ff841115612a8657612a866129a7565b50506001821b612091565b5060208310610133831016604e8410600b8410161715612ab4575081810a612091565b612abe83836129f6565b8060001904821115612ad257612ad26129a7565b029392505050565b600061208e8383612a39565b600082601f830112612af757600080fd5b8151602067ffffffffffffffff821115612b1357612b136126ad565b8160051b612b228282016126c3565b9283528481018201928281019087851115612b3c57600080fd5b83870192505b84831015612b5b57825182529183019190830190612b42565b979650505050505050565b60008060008060808587031215612b7c57600080fd5b845167ffffffffffffffff80821115612b9457600080fd5b612ba088838901612ae6565b9550602087015194506040870151915080821115612bbd57600080fd5b50612bca87828801612ae6565b606096909601519497939650505050565b80820180821115612091576120916129a7565b60208152600061208e602083018461261f565b6020808252602b908201527f496e697469616c697a61626c653a20636f6e7472616374206973206e6f74206960408201526a6e697469616c697a696e6760a81b606082015260800190565b60008251612c5e8184602087016125fb565b919091019291505056fe360894a13ba1a3210667c828492db98dca3e2076cc3735a920a3ca505d382bbc416464726573733a206c6f772d6c6576656c2064656c65676174652063616c6c206661696c6564a2646970667358221220e00d45590fca02cfe3725909aea2570c6c30e4faf0db13e2e42e6142a44bbf6364736f6c63430008110033",
  "linkReferences": {},
  "deployedLinkReferences": {}
}